{
  "_format": "hh-sol-artifact-1",
  "contractName": "Gem",
  "sourceName": "contracts/others/Gem.sol",
  "abi": [
    {
      "inputs": [
        {
          "internalType": "uint256",
          "name": "compensationRate_",
          "type": "uint256"
        }
      ],
      "stateMutability": "nonpayable",
      "type": "constructor"
    },
    {
      "anonymous": false,
      "inputs": [
        {
          "indexed": true,
          "internalType": "address",
          "name": "owner",
          "type": "address"
        },
        {
          "indexed": true,
          "internalType": "address",
          "name": "spender",
          "type": "address"
        },
        {
          "indexed": false,
          "internalType": "uint256",
          "name": "value",
          "type": "uint256"
        }
      ],
      "name": "Approval",
      "type": "event"
    },
    {
      "anonymous": false,
      "inputs": [
        {
          "indexed": true,
          "internalType": "address",
          "name": "previousOwner",
          "type": "address"
        },
        {
          "indexed": true,
          "internalType": "address",
          "name": "newOwner",
          "type": "address"
        }
      ],
      "name": "OwnershipTransferred",
      "type": "event"
    },
    {
      "anonymous": false,
      "inputs": [
        {
          "indexed": true,
          "internalType": "address",
          "name": "from",
          "type": "address"
        },
        {
          "indexed": true,
          "internalType": "address",
          "name": "to",
          "type": "address"
        },
        {
          "indexed": false,
          "internalType": "uint256",
          "name": "value",
          "type": "uint256"
        }
      ],
      "name": "Transfer",
      "type": "event"
    },
    {
      "inputs": [
        {
          "internalType": "address",
          "name": "owner",
          "type": "address"
        },
        {
          "internalType": "address",
          "name": "spender",
          "type": "address"
        }
      ],
      "name": "allowance",
      "outputs": [
        {
          "internalType": "uint256",
          "name": "",
          "type": "uint256"
        }
      ],
      "stateMutability": "view",
      "type": "function"
    },
    {
      "inputs": [
        {
          "internalType": "address",
          "name": "spender",
          "type": "address"
        },
        {
          "internalType": "uint256",
          "name": "amount",
          "type": "uint256"
        }
      ],
      "name": "approve",
      "outputs": [
        {
          "internalType": "bool",
          "name": "",
          "type": "bool"
        }
      ],
      "stateMutability": "nonpayable",
      "type": "function"
    },
    {
      "inputs": [
        {
          "internalType": "address",
          "name": "account",
          "type": "address"
        }
      ],
      "name": "balanceOf",
      "outputs": [
        {
          "internalType": "uint256",
          "name": "",
          "type": "uint256"
        }
      ],
      "stateMutability": "view",
      "type": "function"
    },
    {
      "inputs": [
        {
          "internalType": "address",
          "name": "addr",
          "type": "address"
        },
        {
          "internalType": "bool",
          "name": "isBlocked",
          "type": "bool"
        }
      ],
      "name": "blockAddress",
      "outputs": [],
      "stateMutability": "nonpayable",
      "type": "function"
    },
    {
      "inputs": [
        {
          "internalType": "address",
          "name": "",
          "type": "address"
        }
      ],
      "name": "blocked",
      "outputs": [
        {
          "internalType": "bool",
          "name": "",
          "type": "bool"
        }
      ],
      "stateMutability": "view",
      "type": "function"
    },
    {
      "inputs": [
        {
          "internalType": "address",
          "name": "to",
          "type": "address"
        },
        {
          "internalType": "uint256",
          "name": "bnbAmount",
          "type": "uint256"
        }
      ],
      "name": "compensateBnb",
      "outputs": [],
      "stateMutability": "nonpayable",
      "type": "function"
    },
    {
      "inputs": [],
      "name": "compensationRate",
      "outputs": [
        {
          "internalType": "uint256",
          "name": "",
          "type": "uint256"
        }
      ],
      "stateMutability": "view",
      "type": "function"
    },
    {
      "inputs": [],
      "name": "compensator",
      "outputs": [
        {
          "internalType": "address",
          "name": "",
          "type": "address"
        }
      ],
      "stateMutability": "view",
      "type": "function"
    },
    {
      "inputs": [],
      "name": "decimals",
      "outputs": [
        {
          "internalType": "uint8",
          "name": "",
          "type": "uint8"
        }
      ],
      "stateMutability": "pure",
      "type": "function"
    },
    {
      "inputs": [
        {
          "internalType": "address",
          "name": "spender",
          "type": "address"
        },
        {
          "internalType": "uint256",
          "name": "subtractedValue",
          "type": "uint256"
        }
      ],
      "name": "decreaseAllowance",
      "outputs": [
        {
          "internalType": "bool",
          "name": "",
          "type": "bool"
        }
      ],
      "stateMutability": "nonpayable",
      "type": "function"
    },
    {
      "inputs": [
        {
          "internalType": "address",
          "name": "spender",
          "type": "address"
        },
        {
          "internalType": "uint256",
          "name": "addedValue",
          "type": "uint256"
        }
      ],
      "name": "increaseAllowance",
      "outputs": [
        {
          "internalType": "bool",
          "name": "",
          "type": "bool"
        }
      ],
      "stateMutability": "nonpayable",
      "type": "function"
    },
    {
      "inputs": [],
      "name": "name",
      "outputs": [
        {
          "internalType": "string",
          "name": "",
          "type": "string"
        }
      ],
      "stateMutability": "view",
      "type": "function"
    },
    {
      "inputs": [],
      "name": "owner",
      "outputs": [
        {
          "internalType": "address",
          "name": "",
          "type": "address"
        }
      ],
      "stateMutability": "view",
      "type": "function"
    },
    {
      "inputs": [],
      "name": "renounceOwnership",
      "outputs": [],
      "stateMutability": "nonpayable",
      "type": "function"
    },
    {
      "inputs": [
        {
          "internalType": "uint256",
          "name": "compensationRate_",
          "type": "uint256"
        }
      ],
      "name": "setCompensationRate",
      "outputs": [],
      "stateMutability": "nonpayable",
      "type": "function"
    },
    {
      "inputs": [
        {
          "internalType": "address",
          "name": "compensator_",
          "type": "address"
        }
      ],
      "name": "setCompensator",
      "outputs": [],
      "stateMutability": "nonpayable",
      "type": "function"
    },
    {
      "inputs": [],
      "name": "symbol",
      "outputs": [
        {
          "internalType": "string",
          "name": "",
          "type": "string"
        }
      ],
      "stateMutability": "view",
      "type": "function"
    },
    {
      "inputs": [],
      "name": "totalSupply",
      "outputs": [
        {
          "internalType": "uint256",
          "name": "",
          "type": "uint256"
        }
      ],
      "stateMutability": "view",
      "type": "function"
    },
    {
      "inputs": [
        {
          "internalType": "address",
          "name": "to",
          "type": "address"
        },
        {
          "internalType": "uint256",
          "name": "amount",
          "type": "uint256"
        }
      ],
      "name": "transfer",
      "outputs": [
        {
          "internalType": "bool",
          "name": "",
          "type": "bool"
        }
      ],
      "stateMutability": "nonpayable",
      "type": "function"
    },
    {
      "inputs": [
        {
          "internalType": "address",
          "name": "from",
          "type": "address"
        },
        {
          "internalType": "address",
          "name": "to",
          "type": "address"
        },
        {
          "internalType": "uint256",
          "name": "amount",
          "type": "uint256"
        }
      ],
      "name": "transferFrom",
      "outputs": [
        {
          "internalType": "bool",
          "name": "",
          "type": "bool"
        }
      ],
      "stateMutability": "nonpayable",
      "type": "function"
    },
    {
      "inputs": [
        {
          "internalType": "address",
          "name": "newOwner",
          "type": "address"
        }
      ],
      "name": "transferOwnership",
      "outputs": [],
      "stateMutability": "nonpayable",
      "type": "function"
    }
  ],
  "bytecode": "0x60806040523480156200001157600080fd5b5060405162001047380380620010478339810160408190526200003491620001b7565b6040518060400160405280600381526020016247454d60e81b8152506040518060400160405280600381526020016247454d60e81b8152506200008662000080620000bd60201b60201c565b620000c1565b81516200009b90600490602085019062000111565b508051620000b190600590602084019062000111565b5050506007556200020e565b3390565b600080546001600160a01b038381166001600160a01b0319831681178455604051919092169283917f8be0079c531659141344cd1fd0a4f28419497f9722a3daafe3b4186f6b6457e09190a35050565b8280546200011f90620001d1565b90600052602060002090601f0160209004810192826200014357600085556200018e565b82601f106200015e57805160ff19168380011785556200018e565b828001600101855582156200018e579182015b828111156200018e57825182559160200191906001019062000171565b506200019c929150620001a0565b5090565b5b808211156200019c5760008155600101620001a1565b600060208284031215620001ca57600080fd5b5051919050565b600181811c90821680620001e657607f821691505b602082108114156200020857634e487b7160e01b600052602260045260246000fd5b50919050565b610e29806200021e6000396000f3fe608060405234801561001057600080fd5b50600436106101075760003560e01c806306fdde031461010c578063095ea7b31461012a57806315bc95901461014d57806318160ddd1461016257806323b872dd14610174578063313ce56714610187578063369cba2a1461019657806339509351146101c157806359cb0ddc146101d457806370a08231146101e7578063715018a6146102105780638170e90f146102185780638da5cb5b1461022157806395d89b4114610229578063a457c2d714610231578063a9059cbb14610244578063c53c267714610257578063dd62ed3e1461026a578063e59621951461027d578063ec0d4982146102a0578063f2fde38b146102b3575b600080fd5b6101146102c6565b6040516101219190610ba8565b60405180910390f35b61013d610138366004610c19565b610358565b6040519015158152602001610121565b61016061015b366004610c19565b610370565b005b6003545b604051908152602001610121565b61013d610182366004610c43565b6103ad565b60405160098152602001610121565b6006546101a9906001600160a01b031681565b6040516001600160a01b039091168152602001610121565b61013d6101cf366004610c19565b6103d1565b6101606101e2366004610c7f565b6103f3565b6101666101f5366004610c7f565b6001600160a01b031660009081526001602052604090205490565b61016061041d565b61016660075481565b6101a9610431565b610114610440565b61013d61023f366004610c19565b61044f565b61013d610252366004610c19565b6104cf565b610160610265366004610ca1565b6104dd565b610166610278366004610cba565b6104ea565b61013d61028b366004610c7f565b60086020526000908152604090205460ff1681565b6101606102ae366004610ced565b610515565b6101606102c1366004610c7f565b610548565b6060600480546102d590610d29565b80601f016020809104026020016040519081016040528092919081815260200182805461030190610d29565b801561034e5780601f106103235761010080835404028352916020019161034e565b820191906000526020600020905b81548152906001019060200180831161033157829003601f168201915b5050505050905090565b6000336103668185856105c1565b5060019392505050565b6006546001600160a01b03163314156103a9576103a982633b9aca006007548461039a9190610d7a565b6103a49190610d99565b610644565b5050565b6000336103bb85828561071d565b6103c6858585610797565b506001949350505050565b6000336103668185856103e483836104ea565b6103ee9190610dbb565b6105c1565b6103fb61095e565b600680546001600160a01b0319166001600160a01b0392909216919091179055565b61042561095e565b61042f60006109bd565b565b6000546001600160a01b031690565b6060600580546102d590610d29565b6000338161045d82866104ea565b9050838110156104c25760405162461bcd60e51b815260206004820152602560248201527f45524332303a2064656372656173656420616c6c6f77616e63652062656c6f77604482015264207a65726f60d81b60648201526084015b60405180910390fd5b6103c682868684036105c1565b600033610366818585610797565b6104e561095e565b600755565b6001600160a01b03918216600090815260026020908152604080832093909416825291909152205490565b61051d61095e565b6001600160a01b03919091166000908152600860205260409020805460ff1916911515919091179055565b61055061095e565b6001600160a01b0381166105b55760405162461bcd60e51b815260206004820152602660248201527f4f776e61626c653a206e6577206f776e657220697320746865207a65726f206160448201526564647265737360d01b60648201526084016104b9565b6105be816109bd565b50565b6001600160a01b03821660009081526008602052604090205460ff16156106345760405162461bcd60e51b815260206004820152602160248201527f43616e206e6f7420617070726f766520626c6f636b65642061646472657373656044820152607360f81b60648201526084016104b9565b61063f838383610a0d565b505050565b6001600160a01b03821661069a5760405162461bcd60e51b815260206004820152601f60248201527f45524332303a206d696e7420746f20746865207a65726f20616464726573730060448201526064016104b9565b6106a660008383610b31565b80600360008282546106b89190610dbb565b90915550506001600160a01b038216600090815260016020526040812080548392906106e5908490610dbb565b90915550506040518181526001600160a01b03831690600090600080516020610dd48339815191529060200160405180910390a35050565b600061072984846104ea565b9050600019811461079157818110156107845760405162461bcd60e51b815260206004820152601d60248201527f45524332303a20696e73756666696369656e7420616c6c6f77616e636500000060448201526064016104b9565b61079184848484036105c1565b50505050565b6001600160a01b0383166107fb5760405162461bcd60e51b815260206004820152602560248201527f45524332303a207472616e736665722066726f6d20746865207a65726f206164604482015264647265737360d81b60648201526084016104b9565b6001600160a01b03821661085d5760405162461bcd60e51b815260206004820152602360248201527f45524332303a207472616e7366657220746f20746865207a65726f206164647260448201526265737360e81b60648201526084016104b9565b610868838383610b31565b6001600160a01b038316600090815260016020526040902054818110156108e05760405162461bcd60e51b815260206004820152602660248201527f45524332303a207472616e7366657220616d6f756e7420657863656564732062604482015265616c616e636560d01b60648201526084016104b9565b6001600160a01b03808516600090815260016020526040808220858503905591851681529081208054849290610917908490610dbb565b92505081905550826001600160a01b0316846001600160a01b0316600080516020610dd48339815191528460405161095191815260200190565b60405180910390a3610791565b33610967610431565b6001600160a01b03161461042f5760405162461bcd60e51b815260206004820181905260248201527f4f776e61626c653a2063616c6c6572206973206e6f7420746865206f776e657260448201526064016104b9565b600080546001600160a01b038381166001600160a01b0319831681178455604051919092169283917f8be0079c531659141344cd1fd0a4f28419497f9722a3daafe3b4186f6b6457e09190a35050565b6001600160a01b038316610a6f5760405162461bcd60e51b8152602060048201526024808201527f45524332303a20617070726f76652066726f6d20746865207a65726f206164646044820152637265737360e01b60648201526084016104b9565b6001600160a01b038216610ad05760405162461bcd60e51b815260206004820152602260248201527f45524332303a20617070726f766520746f20746865207a65726f206164647265604482015261737360f01b60648201526084016104b9565b6001600160a01b0383811660008181526002602090815260408083209487168084529482529182902085905590518481527f8c5be1e5ebec7d5bd14f71427d1e84f3dd0314c0f7b2291e5b200ac8c7c3b925910160405180910390a3505050565b6001600160a01b03821660009081526008602052604090205460ff161561063f5760405162461bcd60e51b815260206004820152602560248201527f43616e206e6f74207472616e7366657220746f20626c6f636b65642061646472604482015264657373657360d81b60648201526084016104b9565b600060208083528351808285015260005b81811015610bd557858101830151858201604001528201610bb9565b81811115610be7576000604083870101525b50601f01601f1916929092016040019392505050565b80356001600160a01b0381168114610c1457600080fd5b919050565b60008060408385031215610c2c57600080fd5b610c3583610bfd565b946020939093013593505050565b600080600060608486031215610c5857600080fd5b610c6184610bfd565b9250610c6f60208501610bfd565b9150604084013590509250925092565b600060208284031215610c9157600080fd5b610c9a82610bfd565b9392505050565b600060208284031215610cb357600080fd5b5035919050565b60008060408385031215610ccd57600080fd5b610cd683610bfd565b9150610ce460208401610bfd565b90509250929050565b60008060408385031215610d0057600080fd5b610d0983610bfd565b915060208301358015158114610d1e57600080fd5b809150509250929050565b600181811c90821680610d3d57607f821691505b60208210811415610d5e57634e487b7160e01b600052602260045260246000fd5b50919050565b634e487b7160e01b600052601160045260246000fd5b6000816000190483118215151615610d9457610d94610d64565b500290565b600082610db657634e487b7160e01b600052601260045260246000fd5b500490565b60008219821115610dce57610dce610d64565b50019056feddf252ad1be2c89b69c2b068fc378daa952ba7f163c4a11628f55a4df523b3efa26469706673582212206ce001334d90af8796bd1f00a8c3cb555e076fb80d94b9850fd38a042358dadb64736f6c634300080c0033",
  "linkReferences": {},
  "deployedLinkReferences": {}
}