{
  "_format": "hh-sol-artifact-1",
  "contractName": "Gem",
  "sourceName": "contracts/others/Gem.sol",
  "abi": [
    {
      "inputs": [
        {
          "internalType": "uint256",
          "name": "compensationRate_",
          "type": "uint256"
        }
      ],
      "stateMutability": "nonpayable",
      "type": "constructor"
    },
    {
      "anonymous": false,
      "inputs": [
        {
          "indexed": true,
          "internalType": "address",
          "name": "owner",
          "type": "address"
        },
        {
          "indexed": true,
          "internalType": "address",
          "name": "spender",
          "type": "address"
        },
        {
          "indexed": false,
          "internalType": "uint256",
          "name": "value",
          "type": "uint256"
        }
      ],
      "name": "Approval",
      "type": "event"
    },
    {
      "anonymous": false,
      "inputs": [
        {
          "indexed": true,
          "internalType": "address",
          "name": "previousOwner",
          "type": "address"
        },
        {
          "indexed": true,
          "internalType": "address",
          "name": "newOwner",
          "type": "address"
        }
      ],
      "name": "OwnershipTransferred",
      "type": "event"
    },
    {
      "anonymous": false,
      "inputs": [
        {
          "indexed": true,
          "internalType": "address",
          "name": "from",
          "type": "address"
        },
        {
          "indexed": true,
          "internalType": "address",
          "name": "to",
          "type": "address"
        },
        {
          "indexed": false,
          "internalType": "uint256",
          "name": "value",
          "type": "uint256"
        }
      ],
      "name": "Transfer",
      "type": "event"
    },
    {
      "inputs": [
        {
          "internalType": "address",
          "name": "owner",
          "type": "address"
        },
        {
          "internalType": "address",
          "name": "spender",
          "type": "address"
        }
      ],
      "name": "allowance",
      "outputs": [
        {
          "internalType": "uint256",
          "name": "",
          "type": "uint256"
        }
      ],
      "stateMutability": "view",
      "type": "function"
    },
    {
      "inputs": [
        {
          "internalType": "address",
          "name": "spender",
          "type": "address"
        },
        {
          "internalType": "uint256",
          "name": "amount",
          "type": "uint256"
        }
      ],
      "name": "approve",
      "outputs": [
        {
          "internalType": "bool",
          "name": "",
          "type": "bool"
        }
      ],
      "stateMutability": "nonpayable",
      "type": "function"
    },
    {
      "inputs": [
        {
          "internalType": "address",
          "name": "account",
          "type": "address"
        }
      ],
      "name": "balanceOf",
      "outputs": [
        {
          "internalType": "uint256",
          "name": "",
          "type": "uint256"
        }
      ],
      "stateMutability": "view",
      "type": "function"
    },
    {
      "inputs": [
        {
          "internalType": "address",
          "name": "addr",
          "type": "address"
        },
        {
          "internalType": "bool",
          "name": "isBlocked",
          "type": "bool"
        }
      ],
      "name": "blockAddress",
      "outputs": [],
      "stateMutability": "nonpayable",
      "type": "function"
    },
    {
      "inputs": [
        {
          "internalType": "address",
          "name": "",
          "type": "address"
        }
      ],
      "name": "blocked",
      "outputs": [
        {
          "internalType": "bool",
          "name": "",
          "type": "bool"
        }
      ],
      "stateMutability": "view",
      "type": "function"
    },
    {
      "inputs": [
        {
          "internalType": "address",
          "name": "to",
          "type": "address"
        },
        {
          "internalType": "uint256",
          "name": "bnbAmount",
          "type": "uint256"
        }
      ],
      "name": "compensateBnb",
      "outputs": [],
      "stateMutability": "nonpayable",
      "type": "function"
    },
    {
      "inputs": [],
      "name": "compensationRate",
      "outputs": [
        {
          "internalType": "uint256",
          "name": "",
          "type": "uint256"
        }
      ],
      "stateMutability": "view",
      "type": "function"
    },
    {
      "inputs": [],
      "name": "compensator",
      "outputs": [
        {
          "internalType": "address",
          "name": "",
          "type": "address"
        }
      ],
      "stateMutability": "view",
      "type": "function"
    },
    {
      "inputs": [],
      "name": "decimals",
      "outputs": [
        {
          "internalType": "uint8",
          "name": "",
          "type": "uint8"
        }
      ],
      "stateMutability": "pure",
      "type": "function"
    },
    {
      "inputs": [
        {
          "internalType": "address",
          "name": "spender",
          "type": "address"
        },
        {
          "internalType": "uint256",
          "name": "subtractedValue",
          "type": "uint256"
        }
      ],
      "name": "decreaseAllowance",
      "outputs": [
        {
          "internalType": "bool",
          "name": "",
          "type": "bool"
        }
      ],
      "stateMutability": "nonpayable",
      "type": "function"
    },
    {
      "inputs": [
        {
          "internalType": "address",
          "name": "spender",
          "type": "address"
        },
        {
          "internalType": "uint256",
          "name": "addedValue",
          "type": "uint256"
        }
      ],
      "name": "increaseAllowance",
      "outputs": [
        {
          "internalType": "bool",
          "name": "",
          "type": "bool"
        }
      ],
      "stateMutability": "nonpayable",
      "type": "function"
    },
    {
      "inputs": [],
      "name": "name",
      "outputs": [
        {
          "internalType": "string",
          "name": "",
          "type": "string"
        }
      ],
      "stateMutability": "view",
      "type": "function"
    },
    {
      "inputs": [],
      "name": "owner",
      "outputs": [
        {
          "internalType": "address",
          "name": "",
          "type": "address"
        }
      ],
      "stateMutability": "view",
      "type": "function"
    },
    {
      "inputs": [],
      "name": "renounceOwnership",
      "outputs": [],
      "stateMutability": "nonpayable",
      "type": "function"
    },
    {
      "inputs": [
        {
          "internalType": "uint256",
          "name": "compensationRate_",
          "type": "uint256"
        }
      ],
      "name": "setCompensationRate",
      "outputs": [],
      "stateMutability": "nonpayable",
      "type": "function"
    },
    {
      "inputs": [
        {
          "internalType": "address",
          "name": "compensator_",
          "type": "address"
        }
      ],
      "name": "setCompensator",
      "outputs": [],
      "stateMutability": "nonpayable",
      "type": "function"
    },
    {
      "inputs": [],
      "name": "symbol",
      "outputs": [
        {
          "internalType": "string",
          "name": "",
          "type": "string"
        }
      ],
      "stateMutability": "view",
      "type": "function"
    },
    {
      "inputs": [],
      "name": "totalSupply",
      "outputs": [
        {
          "internalType": "uint256",
          "name": "",
          "type": "uint256"
        }
      ],
      "stateMutability": "view",
      "type": "function"
    },
    {
      "inputs": [
        {
          "internalType": "address",
          "name": "to",
          "type": "address"
        },
        {
          "internalType": "uint256",
          "name": "amount",
          "type": "uint256"
        }
      ],
      "name": "transfer",
      "outputs": [
        {
          "internalType": "bool",
          "name": "",
          "type": "bool"
        }
      ],
      "stateMutability": "nonpayable",
      "type": "function"
    },
    {
      "inputs": [
        {
          "internalType": "address",
          "name": "from",
          "type": "address"
        },
        {
          "internalType": "address",
          "name": "to",
          "type": "address"
        },
        {
          "internalType": "uint256",
          "name": "amount",
          "type": "uint256"
        }
      ],
      "name": "transferFrom",
      "outputs": [
        {
          "internalType": "bool",
          "name": "",
          "type": "bool"
        }
      ],
      "stateMutability": "nonpayable",
      "type": "function"
    },
    {
      "inputs": [
        {
          "internalType": "address",
          "name": "newOwner",
          "type": "address"
        }
      ],
      "name": "transferOwnership",
      "outputs": [],
      "stateMutability": "nonpayable",
      "type": "function"
    }
  ],
  "bytecode": "0x60806040523480156200001157600080fd5b50604051620011f1380380620011f18339810160408190526200003491620001b7565b6040518060400160405280600381526020016247454d60e81b8152506040518060400160405280600381526020016247454d60e81b8152506200008662000080620000bd60201b60201c565b620000c1565b81516200009b90600490602085019062000111565b508051620000b190600590602084019062000111565b5050506007556200020e565b3390565b600080546001600160a01b038381166001600160a01b0319831681178455604051919092169283917f8be0079c531659141344cd1fd0a4f28419497f9722a3daafe3b4186f6b6457e09190a35050565b8280546200011f90620001d1565b90600052602060002090601f0160209004810192826200014357600085556200018e565b82601f106200015e57805160ff19168380011785556200018e565b828001600101855582156200018e579182015b828111156200018e57825182559160200191906001019062000171565b506200019c929150620001a0565b5090565b5b808211156200019c5760008155600101620001a1565b600060208284031215620001ca57600080fd5b5051919050565b600181811c90821680620001e657607f821691505b602082108114156200020857634e487b7160e01b600052602260045260246000fd5b50919050565b610fd3806200021e6000396000f3fe608060405234801561001057600080fd5b50600436106101775760003560e01c8063715018a6116100d8578063a9059cbb1161008c578063e596219511610066578063e59621951461031c578063ec0d49821461033f578063f2fde38b1461035257600080fd5b8063a9059cbb146102bd578063c53c2677146102d0578063dd62ed3e146102e357600080fd5b80638da5cb5b116100bd5780638da5cb5b1461029157806395d89b41146102a2578063a457c2d7146102aa57600080fd5b8063715018a6146102805780638170e90f1461028857600080fd5b8063313ce5671161012f5780633950935111610114578063395093511461023157806359cb0ddc1461024457806370a082311461025757600080fd5b8063313ce567146101f7578063369cba2a1461020657600080fd5b806315bc95901161016057806315bc9590146101bd57806318160ddd146101d257806323b872dd146101e457600080fd5b806306fdde031461017c578063095ea7b31461019a575b600080fd5b610184610365565b6040516101919190610d72565b60405180910390f35b6101ad6101a8366004610de3565b6103f7565b6040519015158152602001610191565b6101d06101cb366004610de3565b61040f565b005b6003545b604051908152602001610191565b6101ad6101f2366004610e0d565b61044c565b60405160098152602001610191565b600654610219906001600160a01b031681565b6040516001600160a01b039091168152602001610191565b6101ad61023f366004610de3565b610470565b6101d0610252366004610e49565b6104af565b6101d6610265366004610e49565b6001600160a01b031660009081526001602052604090205490565b6101d06104e6565b6101d660075481565b6000546001600160a01b0316610219565b6101846104fa565b6101ad6102b8366004610de3565b610509565b6101ad6102cb366004610de3565b6105b8565b6101d06102de366004610e6b565b6105c6565b6101d66102f1366004610e84565b6001600160a01b03918216600090815260026020908152604080832093909416825291909152205490565b6101ad61032a366004610e49565b60086020526000908152604090205460ff1681565b6101d061034d366004610eb7565b6105d3565b6101d0610360366004610e49565b610606565b60606004805461037490610ef3565b80601f01602080910402602001604051908101604052809291908181526020018280546103a090610ef3565b80156103ed5780601f106103c2576101008083540402835291602001916103ed565b820191906000526020600020905b8154815290600101906020018083116103d057829003601f168201915b5050505050905090565b600033610405818585610696565b5060019392505050565b6006546001600160a01b03163314156104485761044882633b9aca00600754846104399190610f44565b6104439190610f63565b610735565b5050565b60003361045a858285610820565b6104658585856108b2565b506001949350505050565b3360008181526002602090815260408083206001600160a01b038716845290915281205490919061040590829086906104aa908790610f85565b610696565b6104b7610ad4565b6006805473ffffffffffffffffffffffffffffffffffffffff19166001600160a01b0392909216919091179055565b6104ee610ad4565b6104f86000610b2e565b565b60606005805461037490610ef3565b3360008181526002602090815260408083206001600160a01b0387168452909152812054909190838110156105ab5760405162461bcd60e51b815260206004820152602560248201527f45524332303a2064656372656173656420616c6c6f77616e63652062656c6f7760448201527f207a65726f00000000000000000000000000000000000000000000000000000060648201526084015b60405180910390fd5b6104658286868403610696565b6000336104058185856108b2565b6105ce610ad4565b600755565b6105db610ad4565b6001600160a01b03919091166000908152600860205260409020805460ff1916911515919091179055565b61060e610ad4565b6001600160a01b03811661068a5760405162461bcd60e51b815260206004820152602660248201527f4f776e61626c653a206e6577206f776e657220697320746865207a65726f206160448201527f646472657373000000000000000000000000000000000000000000000000000060648201526084016105a2565b61069381610b2e565b50565b6001600160a01b03821660009081526008602052604090205460ff16156107255760405162461bcd60e51b815260206004820152602160248201527f43616e206e6f7420617070726f766520626c6f636b656420616464726573736560448201527f730000000000000000000000000000000000000000000000000000000000000060648201526084016105a2565b610730838383610b8b565b505050565b6001600160a01b03821661078b5760405162461bcd60e51b815260206004820152601f60248201527f45524332303a206d696e7420746f20746865207a65726f20616464726573730060448201526064016105a2565b61079760008383610ce3565b80600360008282546107a99190610f85565b90915550506001600160a01b038216600090815260016020526040812080548392906107d6908490610f85565b90915550506040518181526001600160a01b038316906000907fddf252ad1be2c89b69c2b068fc378daa952ba7f163c4a11628f55a4df523b3ef9060200160405180910390a35050565b6001600160a01b0383811660009081526002602090815260408083209386168352929052205460001981146108ac578181101561089f5760405162461bcd60e51b815260206004820152601d60248201527f45524332303a20696e73756666696369656e7420616c6c6f77616e636500000060448201526064016105a2565b6108ac8484848403610696565b50505050565b6001600160a01b03831661092e5760405162461bcd60e51b815260206004820152602560248201527f45524332303a207472616e736665722066726f6d20746865207a65726f20616460448201527f647265737300000000000000000000000000000000000000000000000000000060648201526084016105a2565b6001600160a01b0382166109aa5760405162461bcd60e51b815260206004820152602360248201527f45524332303a207472616e7366657220746f20746865207a65726f206164647260448201527f657373000000000000000000000000000000000000000000000000000000000060648201526084016105a2565b6109b5838383610ce3565b6001600160a01b03831660009081526001602052604090205481811015610a445760405162461bcd60e51b815260206004820152602660248201527f45524332303a207472616e7366657220616d6f756e742065786365656473206260448201527f616c616e6365000000000000000000000000000000000000000000000000000060648201526084016105a2565b6001600160a01b03808516600090815260016020526040808220858503905591851681529081208054849290610a7b908490610f85565b92505081905550826001600160a01b0316846001600160a01b03167fddf252ad1be2c89b69c2b068fc378daa952ba7f163c4a11628f55a4df523b3ef84604051610ac791815260200190565b60405180910390a36108ac565b6000546001600160a01b031633146104f85760405162461bcd60e51b815260206004820181905260248201527f4f776e61626c653a2063616c6c6572206973206e6f7420746865206f776e657260448201526064016105a2565b600080546001600160a01b0383811673ffffffffffffffffffffffffffffffffffffffff19831681178455604051919092169283917f8be0079c531659141344cd1fd0a4f28419497f9722a3daafe3b4186f6b6457e09190a35050565b6001600160a01b038316610c065760405162461bcd60e51b8152602060048201526024808201527f45524332303a20617070726f76652066726f6d20746865207a65726f2061646460448201527f726573730000000000000000000000000000000000000000000000000000000060648201526084016105a2565b6001600160a01b038216610c825760405162461bcd60e51b815260206004820152602260248201527f45524332303a20617070726f766520746f20746865207a65726f20616464726560448201527f737300000000000000000000000000000000000000000000000000000000000060648201526084016105a2565b6001600160a01b0383811660008181526002602090815260408083209487168084529482529182902085905590518481527f8c5be1e5ebec7d5bd14f71427d1e84f3dd0314c0f7b2291e5b200ac8c7c3b925910160405180910390a3505050565b6001600160a01b03821660009081526008602052604090205460ff16156107305760405162461bcd60e51b815260206004820152602560248201527f43616e206e6f74207472616e7366657220746f20626c6f636b6564206164647260448201527f657373657300000000000000000000000000000000000000000000000000000060648201526084016105a2565b600060208083528351808285015260005b81811015610d9f57858101830151858201604001528201610d83565b81811115610db1576000604083870101525b50601f01601f1916929092016040019392505050565b80356001600160a01b0381168114610dde57600080fd5b919050565b60008060408385031215610df657600080fd5b610dff83610dc7565b946020939093013593505050565b600080600060608486031215610e2257600080fd5b610e2b84610dc7565b9250610e3960208501610dc7565b9150604084013590509250925092565b600060208284031215610e5b57600080fd5b610e6482610dc7565b9392505050565b600060208284031215610e7d57600080fd5b5035919050565b60008060408385031215610e9757600080fd5b610ea083610dc7565b9150610eae60208401610dc7565b90509250929050565b60008060408385031215610eca57600080fd5b610ed383610dc7565b915060208301358015158114610ee857600080fd5b809150509250929050565b600181811c90821680610f0757607f821691505b60208210811415610f2857634e487b7160e01b600052602260045260246000fd5b50919050565b634e487b7160e01b600052601160045260246000fd5b6000816000190483118215151615610f5e57610f5e610f2e565b500290565b600082610f8057634e487b7160e01b600052601260045260246000fd5b500490565b60008219821115610f9857610f98610f2e565b50019056fea26469706673582212209b12a5c6db2c4e5f07d52014aa113841ee1926f7c9bf0665baf3d69da0e4928e64736f6c634300080c0033",
  "linkReferences": {},
  "deployedLinkReferences": {}
}