{
  "_format": "hh-sol-artifact-1",
  "contractName": "Tools",
  "sourceName": "contracts/Tools.sol",
  "abi": [
    {
      "anonymous": false,
      "inputs": [
        {
          "indexed": false,
          "internalType": "uint256",
          "name": "toolType",
          "type": "uint256"
        }
      ],
      "name": "AddTool",
      "type": "event"
    },
    {
      "anonymous": false,
      "inputs": [
        {
          "indexed": true,
          "internalType": "address",
          "name": "account",
          "type": "address"
        },
        {
          "indexed": true,
          "internalType": "address",
          "name": "operator",
          "type": "address"
        },
        {
          "indexed": false,
          "internalType": "bool",
          "name": "approved",
          "type": "bool"
        }
      ],
      "name": "ApprovalForAll",
      "type": "event"
    },
    {
      "anonymous": false,
      "inputs": [
        {
          "indexed": false,
          "internalType": "string",
          "name": "baseURI",
          "type": "string"
        }
      ],
      "name": "BaseURI",
      "type": "event"
    },
    {
      "anonymous": false,
      "inputs": [
        {
          "indexed": false,
          "internalType": "address",
          "name": "user",
          "type": "address"
        },
        {
          "indexed": false,
          "internalType": "uint256",
          "name": "",
          "type": "uint256"
        }
      ],
      "name": "Craft",
      "type": "event"
    },
    {
      "anonymous": false,
      "inputs": [
        {
          "indexed": false,
          "internalType": "uint8",
          "name": "version",
          "type": "uint8"
        }
      ],
      "name": "Initialized",
      "type": "event"
    },
    {
      "anonymous": false,
      "inputs": [
        {
          "indexed": true,
          "internalType": "address",
          "name": "previousOwner",
          "type": "address"
        },
        {
          "indexed": true,
          "internalType": "address",
          "name": "newOwner",
          "type": "address"
        }
      ],
      "name": "OwnershipTransferred",
      "type": "event"
    },
    {
      "anonymous": false,
      "inputs": [
        {
          "indexed": false,
          "internalType": "address",
          "name": "account",
          "type": "address"
        }
      ],
      "name": "Paused",
      "type": "event"
    },
    {
      "anonymous": false,
      "inputs": [
        {
          "indexed": false,
          "internalType": "uint256",
          "name": "toolType",
          "type": "uint256"
        },
        {
          "indexed": false,
          "internalType": "uint256",
          "name": "resourcesAmount",
          "type": "uint256"
        },
        {
          "indexed": false,
          "internalType": "uint256[]",
          "name": "artifactsAmount",
          "type": "uint256[]"
        }
      ],
      "name": "RecipeCreatedOrUpdated",
      "type": "event"
    },
    {
      "anonymous": false,
      "inputs": [
        {
          "indexed": false,
          "internalType": "uint256",
          "name": "toolType",
          "type": "uint256"
        }
      ],
      "name": "ToolPropertiesSet",
      "type": "event"
    },
    {
      "anonymous": false,
      "inputs": [
        {
          "indexed": false,
          "internalType": "uint256",
          "name": "toolId",
          "type": "uint256"
        }
      ],
      "name": "ToolRepaired",
      "type": "event"
    },
    {
      "anonymous": false,
      "inputs": [
        {
          "indexed": true,
          "internalType": "address",
          "name": "operator",
          "type": "address"
        },
        {
          "indexed": true,
          "internalType": "address",
          "name": "from",
          "type": "address"
        },
        {
          "indexed": true,
          "internalType": "address",
          "name": "to",
          "type": "address"
        },
        {
          "indexed": false,
          "internalType": "uint256[]",
          "name": "ids",
          "type": "uint256[]"
        },
        {
          "indexed": false,
          "internalType": "uint256[]",
          "name": "values",
          "type": "uint256[]"
        }
      ],
      "name": "TransferBatch",
      "type": "event"
    },
    {
      "anonymous": false,
      "inputs": [
        {
          "indexed": true,
          "internalType": "address",
          "name": "operator",
          "type": "address"
        },
        {
          "indexed": true,
          "internalType": "address",
          "name": "from",
          "type": "address"
        },
        {
          "indexed": true,
          "internalType": "address",
          "name": "to",
          "type": "address"
        },
        {
          "indexed": false,
          "internalType": "uint256",
          "name": "id",
          "type": "uint256"
        },
        {
          "indexed": false,
          "internalType": "uint256",
          "name": "value",
          "type": "uint256"
        }
      ],
      "name": "TransferSingle",
      "type": "event"
    },
    {
      "anonymous": false,
      "inputs": [
        {
          "indexed": false,
          "internalType": "string",
          "name": "value",
          "type": "string"
        },
        {
          "indexed": true,
          "internalType": "uint256",
          "name": "id",
          "type": "uint256"
        }
      ],
      "name": "URI",
      "type": "event"
    },
    {
      "anonymous": false,
      "inputs": [
        {
          "indexed": false,
          "internalType": "address",
          "name": "account",
          "type": "address"
        }
      ],
      "name": "Unpaused",
      "type": "event"
    },
    {
      "inputs": [
        {
          "internalType": "uint32",
          "name": "maxStrength",
          "type": "uint32"
        },
        {
          "internalType": "uint32",
          "name": "miningDuration",
          "type": "uint32"
        },
        {
          "internalType": "uint32",
          "name": "energyCost",
          "type": "uint32"
        },
        {
          "internalType": "uint32",
          "name": "strengthCost",
          "type": "uint32"
        },
        {
          "internalType": "uint256",
          "name": "resourcesAmount",
          "type": "uint256"
        },
        {
          "internalType": "uint256[]",
          "name": "artifactsAmount",
          "type": "uint256[]"
        },
        {
          "internalType": "string",
          "name": "newURI",
          "type": "string"
        }
      ],
      "name": "addTool",
      "outputs": [
        {
          "internalType": "uint256",
          "name": "",
          "type": "uint256"
        }
      ],
      "stateMutability": "nonpayable",
      "type": "function"
    },
    {
      "inputs": [
        {
          "internalType": "address",
          "name": "account",
          "type": "address"
        },
        {
          "internalType": "uint256",
          "name": "id",
          "type": "uint256"
        }
      ],
      "name": "balanceOf",
      "outputs": [
        {
          "internalType": "uint256",
          "name": "",
          "type": "uint256"
        }
      ],
      "stateMutability": "view",
      "type": "function"
    },
    {
      "inputs": [
        {
          "internalType": "address[]",
          "name": "accounts",
          "type": "address[]"
        },
        {
          "internalType": "uint256[]",
          "name": "ids",
          "type": "uint256[]"
        }
      ],
      "name": "balanceOfBatch",
      "outputs": [
        {
          "internalType": "uint256[]",
          "name": "",
          "type": "uint256[]"
        }
      ],
      "stateMutability": "view",
      "type": "function"
    },
    {
      "inputs": [
        {
          "internalType": "address",
          "name": "user",
          "type": "address"
        },
        {
          "internalType": "uint256",
          "name": "toolId",
          "type": "uint256"
        },
        {
          "internalType": "uint256",
          "name": "strengthCost",
          "type": "uint256"
        }
      ],
      "name": "corrupt",
      "outputs": [],
      "stateMutability": "nonpayable",
      "type": "function"
    },
    {
      "inputs": [
        {
          "internalType": "uint256",
          "name": "toolType",
          "type": "uint256"
        }
      ],
      "name": "craft",
      "outputs": [],
      "stateMutability": "nonpayable",
      "type": "function"
    },
    {
      "inputs": [],
      "name": "getArtifactsAddress",
      "outputs": [
        {
          "internalType": "address",
          "name": "",
          "type": "address"
        }
      ],
      "stateMutability": "view",
      "type": "function"
    },
    {
      "inputs": [],
      "name": "getArtifactsTypesAmount",
      "outputs": [
        {
          "internalType": "uint256",
          "name": "",
          "type": "uint256"
        }
      ],
      "stateMutability": "view",
      "type": "function"
    },
    {
      "inputs": [],
      "name": "getMiningAddress",
      "outputs": [
        {
          "internalType": "address",
          "name": "",
          "type": "address"
        }
      ],
      "stateMutability": "view",
      "type": "function"
    },
    {
      "inputs": [
        {
          "internalType": "uint256",
          "name": "toolType",
          "type": "uint256"
        }
      ],
      "name": "getRecipe",
      "outputs": [
        {
          "internalType": "uint256",
          "name": "resourcesAmount",
          "type": "uint256"
        },
        {
          "internalType": "uint256[]",
          "name": "artifactsAmount",
          "type": "uint256[]"
        }
      ],
      "stateMutability": "view",
      "type": "function"
    },
    {
      "inputs": [
        {
          "internalType": "uint256",
          "name": "resourceId",
          "type": "uint256"
        }
      ],
      "name": "getResourceAddress",
      "outputs": [
        {
          "internalType": "address",
          "name": "",
          "type": "address"
        }
      ],
      "stateMutability": "view",
      "type": "function"
    },
    {
      "inputs": [],
      "name": "getResourceAmount",
      "outputs": [
        {
          "internalType": "uint256",
          "name": "",
          "type": "uint256"
        }
      ],
      "stateMutability": "view",
      "type": "function"
    },
    {
      "inputs": [
        {
          "internalType": "uint256",
          "name": "toolId",
          "type": "uint256"
        }
      ],
      "name": "getStrength",
      "outputs": [
        {
          "internalType": "uint256",
          "name": "",
          "type": "uint256"
        }
      ],
      "stateMutability": "view",
      "type": "function"
    },
    {
      "inputs": [
        {
          "internalType": "address",
          "name": "user",
          "type": "address"
        },
        {
          "internalType": "uint256",
          "name": "toolId",
          "type": "uint256"
        }
      ],
      "name": "getToolProperties",
      "outputs": [
        {
          "internalType": "uint256",
          "name": "toolType",
          "type": "uint256"
        },
        {
          "internalType": "uint256",
          "name": "strength",
          "type": "uint256"
        },
        {
          "internalType": "uint256",
          "name": "strengthCost",
          "type": "uint256"
        },
        {
          "internalType": "uint256",
          "name": "miningDuration",
          "type": "uint256"
        },
        {
          "internalType": "uint256",
          "name": "energyCost",
          "type": "uint256"
        }
      ],
      "stateMutability": "view",
      "type": "function"
    },
    {
      "inputs": [
        {
          "internalType": "uint256",
          "name": "toolType",
          "type": "uint256"
        }
      ],
      "name": "getToolTypeProperties",
      "outputs": [
        {
          "internalType": "uint256",
          "name": "maxStrength",
          "type": "uint256"
        },
        {
          "internalType": "uint256",
          "name": "strengthCost",
          "type": "uint256"
        },
        {
          "internalType": "uint256",
          "name": "miningDuration",
          "type": "uint256"
        },
        {
          "internalType": "uint256",
          "name": "energyCost",
          "type": "uint256"
        }
      ],
      "stateMutability": "view",
      "type": "function"
    },
    {
      "inputs": [],
      "name": "getToolsTypesAmount",
      "outputs": [
        {
          "internalType": "uint256",
          "name": "",
          "type": "uint256"
        }
      ],
      "stateMutability": "view",
      "type": "function"
    },
    {
      "inputs": [],
      "name": "increaseArtifactAmount",
      "outputs": [],
      "stateMutability": "nonpayable",
      "type": "function"
    },
    {
      "inputs": [
        {
          "internalType": "address",
          "name": "newResource",
          "type": "address"
        }
      ],
      "name": "increaseResourceAmount",
      "outputs": [],
      "stateMutability": "nonpayable",
      "type": "function"
    },
    {
      "inputs": [
        {
          "internalType": "address",
          "name": "blacklistAddress",
          "type": "address"
        },
        {
          "internalType": "address",
          "name": "berryAddress",
          "type": "address"
        },
        {
          "internalType": "address",
          "name": "treeAddress",
          "type": "address"
        },
        {
          "internalType": "address",
          "name": "goldAddress",
          "type": "address"
        },
        {
          "internalType": "string",
          "name": "baseURI",
          "type": "string"
        }
      ],
      "name": "initialize",
      "outputs": [],
      "stateMutability": "nonpayable",
      "type": "function"
    },
    {
      "inputs": [
        {
          "internalType": "address",
          "name": "account",
          "type": "address"
        },
        {
          "internalType": "address",
          "name": "operator",
          "type": "address"
        }
      ],
      "name": "isApprovedForAll",
      "outputs": [
        {
          "internalType": "bool",
          "name": "",
          "type": "bool"
        }
      ],
      "stateMutability": "view",
      "type": "function"
    },
    {
      "inputs": [
        {
          "internalType": "address",
          "name": "to",
          "type": "address"
        },
        {
          "internalType": "uint128",
          "name": "toolType",
          "type": "uint128"
        },
        {
          "internalType": "uint256",
          "name": "amount",
          "type": "uint256"
        }
      ],
      "name": "mint",
      "outputs": [],
      "stateMutability": "nonpayable",
      "type": "function"
    },
    {
      "inputs": [
        {
          "internalType": "address",
          "name": "to",
          "type": "address"
        },
        {
          "internalType": "uint256[]",
          "name": "toolTypes",
          "type": "uint256[]"
        },
        {
          "internalType": "uint256[]",
          "name": "amounts",
          "type": "uint256[]"
        },
        {
          "internalType": "bytes",
          "name": "data",
          "type": "bytes"
        }
      ],
      "name": "mintBatch",
      "outputs": [],
      "stateMutability": "nonpayable",
      "type": "function"
    },
    {
      "inputs": [
        {
          "internalType": "address",
          "name": "operator",
          "type": "address"
        },
        {
          "internalType": "address",
          "name": "from",
          "type": "address"
        },
        {
          "internalType": "uint256[]",
          "name": "ids",
          "type": "uint256[]"
        },
        {
          "internalType": "uint256[]",
          "name": "values",
          "type": "uint256[]"
        },
        {
          "internalType": "bytes",
          "name": "data",
          "type": "bytes"
        }
      ],
      "name": "onERC1155BatchReceived",
      "outputs": [
        {
          "internalType": "bytes4",
          "name": "",
          "type": "bytes4"
        }
      ],
      "stateMutability": "pure",
      "type": "function"
    },
    {
      "inputs": [
        {
          "internalType": "address",
          "name": "operator",
          "type": "address"
        },
        {
          "internalType": "address",
          "name": "from",
          "type": "address"
        },
        {
          "internalType": "uint256",
          "name": "id",
          "type": "uint256"
        },
        {
          "internalType": "uint256",
          "name": "value",
          "type": "uint256"
        },
        {
          "internalType": "bytes",
          "name": "data",
          "type": "bytes"
        }
      ],
      "name": "onERC1155Received",
      "outputs": [
        {
          "internalType": "bytes4",
          "name": "",
          "type": "bytes4"
        }
      ],
      "stateMutability": "pure",
      "type": "function"
    },
    {
      "inputs": [],
      "name": "owner",
      "outputs": [
        {
          "internalType": "address",
          "name": "",
          "type": "address"
        }
      ],
      "stateMutability": "view",
      "type": "function"
    },
    {
      "inputs": [],
      "name": "pause",
      "outputs": [],
      "stateMutability": "nonpayable",
      "type": "function"
    },
    {
      "inputs": [],
      "name": "paused",
      "outputs": [
        {
          "internalType": "bool",
          "name": "",
          "type": "bool"
        }
      ],
      "stateMutability": "view",
      "type": "function"
    },
    {
      "inputs": [],
      "name": "renounceOwnership",
      "outputs": [],
      "stateMutability": "nonpayable",
      "type": "function"
    },
    {
      "inputs": [
        {
          "internalType": "uint256",
          "name": "toolId",
          "type": "uint256"
        }
      ],
      "name": "repairTool",
      "outputs": [],
      "stateMutability": "nonpayable",
      "type": "function"
    },
    {
      "inputs": [
        {
          "internalType": "address",
          "name": "from",
          "type": "address"
        },
        {
          "internalType": "address",
          "name": "to",
          "type": "address"
        },
        {
          "internalType": "uint256[]",
          "name": "toolIds",
          "type": "uint256[]"
        },
        {
          "internalType": "uint256[]",
          "name": "amounts",
          "type": "uint256[]"
        },
        {
          "internalType": "bytes",
          "name": "data",
          "type": "bytes"
        }
      ],
      "name": "safeBatchTransferFrom",
      "outputs": [],
      "stateMutability": "nonpayable",
      "type": "function"
    },
    {
      "inputs": [
        {
          "internalType": "address",
          "name": "from",
          "type": "address"
        },
        {
          "internalType": "address",
          "name": "to",
          "type": "address"
        },
        {
          "internalType": "uint256",
          "name": "toolId",
          "type": "uint256"
        },
        {
          "internalType": "uint256",
          "name": "amount",
          "type": "uint256"
        },
        {
          "internalType": "bytes",
          "name": "data",
          "type": "bytes"
        }
      ],
      "name": "safeTransferFrom",
      "outputs": [],
      "stateMutability": "nonpayable",
      "type": "function"
    },
    {
      "inputs": [
        {
          "internalType": "address",
          "name": "operator",
          "type": "address"
        },
        {
          "internalType": "bool",
          "name": "approved",
          "type": "bool"
        }
      ],
      "name": "setApprovalForAll",
      "outputs": [],
      "stateMutability": "nonpayable",
      "type": "function"
    },
    {
      "inputs": [
        {
          "internalType": "address",
          "name": "artifactsAddress",
          "type": "address"
        }
      ],
      "name": "setArtifactsAddress",
      "outputs": [],
      "stateMutability": "nonpayable",
      "type": "function"
    },
    {
      "inputs": [
        {
          "internalType": "string",
          "name": "baseURI",
          "type": "string"
        }
      ],
      "name": "setBaseURI",
      "outputs": [],
      "stateMutability": "nonpayable",
      "type": "function"
    },
    {
      "inputs": [
        {
          "internalType": "address",
          "name": "miningAddress",
          "type": "address"
        }
      ],
      "name": "setMiningAddress",
      "outputs": [],
      "stateMutability": "nonpayable",
      "type": "function"
    },
    {
      "inputs": [
        {
          "internalType": "uint256",
          "name": "toolType",
          "type": "uint256"
        },
        {
          "internalType": "uint256",
          "name": "resourcesAmount",
          "type": "uint256"
        },
        {
          "internalType": "uint256[]",
          "name": "artifactsAmount",
          "type": "uint256[]"
        }
      ],
      "name": "setRecipe",
      "outputs": [],
      "stateMutability": "nonpayable",
      "type": "function"
    },
    {
      "inputs": [
        {
          "internalType": "uint256",
          "name": "toolType",
          "type": "uint256"
        },
        {
          "internalType": "uint32",
          "name": "maxStrength",
          "type": "uint32"
        },
        {
          "internalType": "uint32",
          "name": "miningDuration",
          "type": "uint32"
        },
        {
          "internalType": "uint32",
          "name": "energyCost",
          "type": "uint32"
        },
        {
          "internalType": "uint32",
          "name": "strengthCost",
          "type": "uint32"
        }
      ],
      "name": "setToolProperties",
      "outputs": [],
      "stateMutability": "nonpayable",
      "type": "function"
    },
    {
      "inputs": [
        {
          "internalType": "uint256",
          "name": "toolType",
          "type": "uint256"
        },
        {
          "internalType": "string",
          "name": "newURI",
          "type": "string"
        }
      ],
      "name": "setURI",
      "outputs": [],
      "stateMutability": "nonpayable",
      "type": "function"
    },
    {
      "inputs": [
        {
          "internalType": "bytes4",
          "name": "interfaceId",
          "type": "bytes4"
        }
      ],
      "name": "supportsInterface",
      "outputs": [
        {
          "internalType": "bool",
          "name": "",
          "type": "bool"
        }
      ],
      "stateMutability": "view",
      "type": "function"
    },
    {
      "inputs": [
        {
          "internalType": "address",
          "name": "newOwner",
          "type": "address"
        }
      ],
      "name": "transferOwnership",
      "outputs": [],
      "stateMutability": "nonpayable",
      "type": "function"
    },
    {
      "inputs": [
        {
          "internalType": "uint256",
          "name": "toolType",
          "type": "uint256"
        }
      ],
      "name": "uri",
      "outputs": [
        {
          "internalType": "string",
          "name": "",
          "type": "string"
        }
      ],
      "stateMutability": "view",
      "type": "function"
    }
  ],
  "bytecode": "0x60806040523480156200001157600080fd5b5061b04380620000226000396000f3fe608060405234801561001057600080fd5b50600436106102475760003560e01c80638da5cb5b1161013b578063e61e401a116100b8578063f242432a1161007c578063f242432a146106ef578063f2fde38b1461070b578063f3917bd214610727578063f6e384e414610743578063f8d12a411461075f57610247565b8063e61e401a14610637578063e7fa2e6c14610653578063e985e9c514610671578063ee100cd6146106a1578063f23a6e61146106bf57610247565b8063aa48fbf5116100ff578063aa48fbf514610581578063bc197c811461059d578063daa6c755146105cd578063e30d34a7146105eb578063e53fbda61461060757610247565b80638da5cb5b146104dd5780639bccf8ec146104fb578063a22cb4651461052b578063a264adc014610547578063aa1b775a1461056557610247565b806343cac2b1116101c957806377a2ec4d1161018d57806377a2ec4d146104385780637ae1f137146104545780637c280237146104845780638456cb59146104b7578063862440e2146104c157610247565b806343cac2b1146103a65780634e1273f4146103c457806355f804b3146103f45780635c975abb14610410578063715018a61461042e57610247565b80631f7fdffa116102105780631f7fdffa146103025780632eb2c2d61461031e5780632fb3b3611461033a5780633524f16c146103565780633dfc8f211461037257610247565b8062fdd58e1461024c57806301ffc9a71461027c5780630e89341c146102ac5780630ebb956d146102dc5780631399de51146102e6575b600080fd5b61026660048036038101906102619190618726565b610790565b6040516102739190618775565b60405180910390f35b610296600480360381019061029191906187e8565b61085a565b6040516102a39190618830565b60405180910390f35b6102c660048036038101906102c1919061884b565b610a28565b6040516102d39190618911565b60405180910390f35b6102e4610bea565b005b61030060048036038101906102fb9190618998565b610d9d565b005b61031c60048036038101906103179190618a62565b6111e6565b005b61033860048036038101906103339190618d1e565b611b19565b005b610354600480360381019061034f9190618e8e565b611d51565b005b610370600480360381019061036b919061884b565b612451565b005b61038c60048036038101906103879190618726565b612e07565b60405161039d959493929190618f25565b60405180910390f35b6103ae6131ef565b6040516103bb9190618f87565b60405180910390f35b6103de60048036038101906103d99190619065565b61329d565b6040516103eb919061919b565b60405180910390f35b61040e60048036038101906104099190619213565b6133b6565b005b610418613450565b6040516104259190618830565b60405180910390f35b610436613467565b005b610452600480360381019061044d9190619260565b61347b565b005b61046e6004803603810190610469919061884b565b61354b565b60405161047b9190618f87565b60405180910390f35b61049e6004803603810190610499919061884b565b61360d565b6040516104ae949392919061928d565b60405180910390f35b6104bf6138be565b005b6104db60048036038101906104d691906192d2565b613a76565b005b6104e5613b12565b6040516104f29190618f87565b60405180910390f35b6105156004803603810190610510919061936e565b613b3c565b6040516105229190618775565b60405180910390f35b6105456004803603810190610540919061947c565b61420c565b005b61054f614222565b60405161055c9190618775565b60405180910390f35b61057f600480360381019061057a9190619260565b6142b1565b005b61059b60048036038101906105969190619260565b6144fb565b005b6105b760048036038101906105b291906194bc565b6145cb565b6040516105c4919061959d565b60405180910390f35b6105d561467e565b6040516105e29190618775565b60405180910390f35b610605600480360381019061060091906195b8565b61470d565b005b610621600480360381019061061c919061884b565b61499a565b60405161062e9190618775565b60405180910390f35b610651600480360381019061064c919061960b565b614ab1565b005b61065b6150a7565b6040516106689190618775565b60405180910390f35b61068b60048036038101906106869190619686565b615136565b6040516106989190618830565b60405180910390f35b6106a96151ca565b6040516106b69190618f87565b60405180910390f35b6106d960048036038101906106d491906196c6565b615278565b6040516106e6919061959d565b60405180910390f35b61070960048036038101906107049190619760565b61532b565b005b61072560048036038101906107209190619260565b615902565b005b610741600480360381019061073c919061884b565b615986565b005b61075d6004803603810190610758919061983f565b6164c1565b005b6107796004803603810190610774919061884b565b616bc7565b604051610787929190619892565b60405180910390f35b60008073ffffffffffffffffffffffffffffffffffffffff168373ffffffffffffffffffffffffffffffffffffffff161415610801576040517f08c379a00000000000000000000000000000000000000000000000000000000081526004016107f890619934565b60405180910390fd5b6097600083815260200190815260200160002060008473ffffffffffffffffffffffffffffffffffffffff1673ffffffffffffffffffffffffffffffffffffffff16815260200190815260200160002054905092915050565b60006108887f2a88dabda3e170938990df3d2c4fdeeb558cf1d01d25da788ff63d3e2957df6860001b616f1d565b6108b47f8541f58034a180e2b90485b295b14dc3c4d1d611921b7aac0e73a3970986d58960001b616f1d565b6108e07f16509e4bb8cf5390b853c2efb17dc9de38fc04e0aeda9de17fb75a689ecd685260001b616f1d565b7fd9b67a26000000000000000000000000000000000000000000000000000000007bffffffffffffffffffffffffffffffffffffffffffffffffffffffff1916827bffffffffffffffffffffffffffffffffffffffffffffffffffffffff191614806109a957507f01ffc9a7000000000000000000000000000000000000000000000000000000007bffffffffffffffffffffffffffffffffffffffffffffffffffffffff1916827bffffffffffffffffffffffffffffffffffffffffffffffffffffffff1916145b80610a1157507f01ffc9a7000000000000000000000000000000000000000000000000000000007bffffffffffffffffffffffffffffffffffffffffffffffffffffffff1916827bffffffffffffffffffffffffffffffffffffffffffffffffffffffff1916145b80610a215750610a2082616f20565b5b9050919050565b6060610a567f9f646607f1c53f9fd2d0fd3f9a65768ad62015b84d87f52fb2506f7540760f3460001b616f1d565b610a827f7b543c562a519e94d19884b5ed8531d059c90eee6f90461a9d07297e9c31ea6160001b616f1d565b610aae7f96e4b4d9e1a6cc924514a9d450098b238effea832ef624308abd4269c7b7b93d60001b616f1d565b600061010660008481526020019081526020016000208054610acf90619983565b80601f0160208091040260200160405190810160405280929190818152602001828054610afb90619983565b8015610b485780601f10610b1d57610100808354040283529160200191610b48565b820191906000526020600020905b815481529060010190602001808311610b2b57829003601f168201915b50505050509050610b7b7f5254bc8de8620e640394c2eb35749f4b5b97da6bf35eef67c2c5f3a5b791dae260001b616f1d565b610ba77f777dd43156405f4243f0530669db71f4890e348cf11822f59a2733ec4f85ed8f60001b616f1d565b6000815111610bbe57610bb983617002565b610be2565b60fd81604051602001610bd2929190619a85565b6040516020818303038152906040525b915050919050565b610c167f0585a72710fc700ca5b88c9640c814c0f2a2677c558c38c9b0ffd338e45546e260001b616f1d565b610c427fa8db5c7f97a835c20b57b3a27829ccedd6d2669425ae5f776d091deed7b6b01360001b616f1d565b610c6e7f21d20b9f8702973ce63bdeca469778cf147a2a69dc715f5d035a2b1ce46cb9df60001b616f1d565b610c9a7fbdfca7025cecf5acd39d33046a0b544c4d26bc5a33c07cca92fe1101540ee58960001b616f1d565b60fc60009054906101000a900473ffffffffffffffffffffffffffffffffffffffff1673ffffffffffffffffffffffffffffffffffffffff163373ffffffffffffffffffffffffffffffffffffffff1614610d2a576040517f08c379a0000000000000000000000000000000000000000000000000000000008152600401610d2190619b1b565b60405180910390fd5b610d567ff07cf29a3b2395d6c3d4dc429a728e0677b6640104483f9e7f577441d03077d060001b616f1d565b610d827f98d12bbb621e9f4fc3b6e25789425d884d4b07782fbf11c1291f5c34bf7a86b160001b616f1d565b6101026000815480929190610d9690619b6a565b9190505550565b610da5617096565b610dd17f1e01367d5f358f5ee9366f6b1b7949b1a13251c74f11e813eb2b2731c1a743a560001b616f1d565b610dfd7f181c3301214f1a1be98fc2b68ab0681ad27ff36223bfc46df3e6aed82d81e80360001b616f1d565b610e297fb8a1e685c00a512af9bc0f06179ec62da66ed8ecdb36a9a02dbab686f0f2bf3c60001b616f1d565b610e557f7a46cc97e9fde82e4f799c1ef047559bacee6dd7656b97da4e92ed2fecb8d71d60001b616f1d565b61010154841115610e9b576040517f08c379a0000000000000000000000000000000000000000000000000000000008152600401610e9290619bff565b60405180910390fd5b610ec77f7d6fe98667e6aefef7bc708222b1b526d4dd3a366aa0d1d812a2e2d50bd619bb60001b616f1d565b610ef37f14bc05de5a4678c08a3aaaaa65e4f9305b801d290f4a2d761667bf276ded638960001b616f1d565b610f1f7f3a78a8ae084e08678f1fbc459145baa5bfdaf99d9d6c6a9af5e342a019e6851360001b616f1d565b610f4b7fce743e2fbff5162249d7b4af670358a360279d84fb30de66633448b36e2d1b8260001b616f1d565b610102548282905014610f93576040517f08c379a0000000000000000000000000000000000000000000000000000000008152600401610f8a90619c6b565b60405180910390fd5b610fbf7fee6d95b187fb21cba3466da572138c7eaf92b1346d3be4539b44e1a9a2ce4d3d60001b616f1d565b610feb7fde11d3926ad8a3b442542ca5b31dc80dd460d93a2f4e77ef8d5a2d6ba344729260001b616f1d565b6110177f147c25f85e8bb4ce0a7f47a96cce30bcf2662c1d81f9835fe4cc1104114a262e60001b616f1d565b8261010860008681526020019081526020016000206000018190555061105f7fe344f9b96b0e6c0b60b1653383bb0a05ece622799c77ce0128c4055bd374734960001b616f1d565b61108b7fb2bc0c96e4413f7425cbc9fe56b0b6921348dd5cc24ceedfce729bdb5c76562860001b616f1d565b60005b6101025481101561114a576110c57f3b84e49a3e6c7a1aba50a6849d7001f217b4bf9e348d26cfae4e4b9de8c512ad60001b616f1d565b6110f17f16cff307090e0bf0acae3af44074a6afee718051acbe21317cf3b2f5d477544160001b616f1d565b82828281811061110457611103619c8b565b5b905060200201356101086000878152602001908152602001600020600101600083815260200190815260200160002081905550808061114290619b6a565b91505061108e565b506111777fe8574c679e4e114c667caf9a4a36e7bbe38c6304687b37657a7e8a44bbfe45d660001b616f1d565b6111a37fa9890dafc911b4e3c8fc5300b5167b6d3eb83a05b96c59ee04ea25b3dbcfc7b160001b616f1d565b7f36726119f64f1c98115eb86c6099e74e39f6a954e8c56a8c88dbc02ee6e55752848484846040516111d89493929190619d1b565b60405180910390a150505050565b6111ee617096565b8661121b7fa61b4ef944203d678e76d2ba1eb417acc21818e79a1af769abb1c89cd1c0f50f60001b616f1d565b6112477f6baa363599516281ff358fd3591254e0e2ee624889dd0b271c1cb98b93ddeed460001b616f1d565b6112737fb89796500ae1c378adb939f1f6e0b11f0398c32cf24f94de9cb5b3a58966e65760001b616f1d565b61129f7f1cc7efb0e7ea04ccb413ecc0811a20c81a92159082f04dd82f307696f512772d60001b616f1d565b60fb60009054906101000a900473ffffffffffffffffffffffffffffffffffffffff1673ffffffffffffffffffffffffffffffffffffffff1663c23697a8826040518263ffffffff1660e01b81526004016112fa9190618f87565b6020604051808303816000875af1158015611319573d6000803e3d6000fd5b505050506040513d601f19601f8201168201806040525081019061133d9190619d70565b1561137d576040517f08c379a000000000000000000000000000000000000000000000000000000000815260040161137490619de9565b60405180910390fd5b6113a97f26f2cb1faaf12fc528b414744a4a90db7ea8d754710f9cbc97f194445890f8ff60001b616f1d565b6113d57f2df17c2152180b16071e9fd161f63b974c266dad30aee8b16a7ef3fb4ecde4d660001b616f1d565b6114017f8f23cb65df6fe310af81ba89b75b5a84a48e3af48c5350102592ce6a4935770060001b616f1d565b61142d7f036cf4797d8ce821b7cd19eaea55a4626cefa2ebbbcee963d7b4282b272828f960001b616f1d565b6114597f66c18579c468a94e0d4ab759b8385d37d177291f5b83b0a658bf07df67720e4460001b616f1d565b6114857fb4b3eff78e6560bf717623e2f9bd005e93b743d4b10d50c7b28733f0c17a4c6660001b616f1d565b60006101015414156114cc576040517f08c379a00000000000000000000000000000000000000000000000000000000081526004016114c390619e55565b60405180910390fd5b6114f87fe23a20ad61a8f2fd1203d906f28a247af7d9ead73a1a4e6dd69760992dfeeb2e60001b616f1d565b6115247f267f204a7c2b53b3ddd506acf7fce0325eb8dea8ae45247220d85589c507aeea60001b616f1d565b6115507f1cc91209d4c14ee9ab2fddf5402d980223b9958a6bd6cd1100d955be67402bbd60001b616f1d565b60005b878790508110156116805761158a7f76a6c8af9b5c794c9978df87ba7b75a68a55f3a16ceba2bb91c80c90665a604e60001b616f1d565b6115b67f4e1b8356d25414011b044a8140c280fa83bfd6f5c7825d336bb1db5a4be61ac360001b616f1d565b6115e27faa359575f8fa082e752b5ed6ef0ee8c55c08b0b8846b84d446faccb1737d399b60001b616f1d565b610101548888838181106115f9576115f8619c8b565b5b905060200201351115611641576040517f08c379a000000000000000000000000000000000000000000000000000000000815260040161163890619ec1565b60405180910390fd5b61166d7fa79e8f1c30052a010cf71269ffed935f90d0026c308a5d49b953273ca0e57d1260001b616f1d565b808061167890619b6a565b915050611553565b506116ad7fb07574947713df1728c803f9fb830f81d4e4103d388c5d4ea15845dfec54d7a860001b616f1d565b6116d97fd5961e0de0c00048f33b077442253ab2d2a2a17b80a5082b6a73ae93c41fde8f60001b616f1d565b6117ab88888880806020026020016040519081016040528093929190818152602001838360200280828437600081840152601f19601f82011690508083019250505050505050878780806020026020016040519081016040528093929190818152602001838360200280828437600081840152601f19601f8201169050808301925050505050505086868080601f016020809104026020016040519081016040528093929190818152602001838380828437600081840152601f19601f82011690508083019250505050505050617114565b6117d77fa3d43e2232e3b83e149062f4c4baf21d12c66d84f6e6e472f889dd2efc7530e060001b616f1d565b6118037f9ce5b82cb8014a1a09d70d1439e41f027cfaa634cfff2cbb4b16ade3e86d6fd160001b616f1d565b60005b87879050811015611b0e5761183d7f03a57a907fd01d05e4089dbe44fb8745348cf5f93bbf2fb2af7cab431c93cb3660001b616f1d565b6118697f58da6ab1790f95ca28b04c0cb2be288327e1d05836837c095a5ee20b3f17985460001b616f1d565b60005b86869050811015611afa576118a37f6f6bc114b93c76175d595bf4dfa9a440b13194eb5b3b5149fd773d9e867481dd60001b616f1d565b61010060008154809291906118b790619b6a565b91905055506118e87ff5b8acbbdc8472395c117d20e9423521448fca2125f357c72d2ca639cc3777ef60001b616f1d565b6119147ff32648f20bdc64e2b9dc5d5dcd12ffbdb6a7a213d74918871dcb01696ee3309e60001b616f1d565b88888381811061192757611926619c8b565b5b9050602002013561010960008c73ffffffffffffffffffffffffffffffffffffffff1673ffffffffffffffffffffffffffffffffffffffff168152602001908152602001600020600061010054815260200190815260200160002060000160006101000a8154816fffffffffffffffffffffffffffffffff02191690836fffffffffffffffffffffffffffffffff1602179055506119e77ffe548b56723d8f9331d07cb68a3c132f9c505fefd7610bdd01958afb1d0b5a0460001b616f1d565b611a137fb1c5a452205512774248dbf58684ad8d341d32de29c42a0e09c5192919f351e960001b616f1d565b61010760008a8a85818110611a2b57611a2a619c8b565b5b90506020020135815260200190815260200160002060000160049054906101000a900463ffffffff1663ffffffff1661010960008c73ffffffffffffffffffffffffffffffffffffffff1673ffffffffffffffffffffffffffffffffffffffff168152602001908152602001600020600061010054815260200190815260200160002060000160106101000a8154816fffffffffffffffffffffffffffffffff02191690836fffffffffffffffffffffffffffffffff1602179055508080611af290619b6a565b91505061186c565b508080611b0690619b6a565b915050611806565b505050505050505050565b611b457f43264bc71208aabd721568261678be13fb2bb620df021f379bcce706e4555ecb60001b616f1d565b611b717f7ffd0e2b257d484356e8875b0a4ea848fe8b33a5783d2ef58cdb3574df25be5760001b616f1d565b611b9d7f4bb575b39699695cae12cdbb6e8ed7ce1e7198705f6e2c880caf1241eaf70b6c60001b616f1d565b60005b8351811015611d4957611bd57fd25a873073731e6c77b518b908c8f5554cf0a7754c967ec17c18fa763828308d60001b616f1d565b611c017f49cc438732ae335fdf231bd4583fca4d67f887e801bdbdb2a5952b9a78ab0cfc60001b616f1d565b611c2d7f5318bda325760faa5b6cd2ba03601de5b352ad03487cb3f272d40c94cf73e3f860001b616f1d565b6001838281518110611c4257611c41619c8b565b5b602002602001015114611c8a576040517f08c379a0000000000000000000000000000000000000000000000000000000008152600401611c8190619f2d565b60405180910390fd5b611cb67f9d92c71f7ae691f7963175d8d766d83d0e52ef49b6d5cddb9d815d5944f1fc8260001b616f1d565b611ce27fdb6f452318ba8abd6efaa5ab182a19db1223355d419815eaac2c2f8f659cbeb560001b616f1d565b611d0e7fba538affa973d75dff7143a76e1dbeb1d96a131d205b7df16d0c95d616a58ed060001b616f1d565b611d368686868481518110611d2657611d25619c8b565b5b602002602001015160018661532b565b8080611d4190619b6a565b915050611ba0565b505050505050565b60008060019054906101000a900460ff16159050808015611d825750600160008054906101000a900460ff1660ff16105b80611daf5750611d9130617342565b158015611dae5750600160008054906101000a900460ff1660ff16145b5b611dee576040517f08c379a0000000000000000000000000000000000000000000000000000000008152600401611de590619fbf565b60405180910390fd5b60016000806101000a81548160ff021916908360ff1602179055508015611e2b576001600060016101000a81548160ff0219169083151502179055505b611e577f8913bf013bad3454ee0668abb19680ecd1e423816d65cce213d6bfca4e55070360001b616f1d565b611e837f6dac24a18108abffdcfc54c934adfd9f4ca93903aa7b928d52540962ce50cacb60001b616f1d565b611eaf7fd24da4ae23fe52605be71513b97efb0027d02d16dba45a217ed1bd2dd4ab1d7560001b616f1d565b61dead60ff60006101000a81548173ffffffffffffffffffffffffffffffffffffffff021916908373ffffffffffffffffffffffffffffffffffffffff160217905550611f1e7fd89f3a4fc5151c0be876cb011ada9d6251f90a0883d1292d3df503959c1ef15760001b616f1d565b611f4a7f21594380db4acf1049471da77aaee5314604505ce8c244cef1dcd494069cf13f60001b616f1d565b8560fb60006101000a81548173ffffffffffffffffffffffffffffffffffffffff021916908373ffffffffffffffffffffffffffffffffffffffff160217905550611fb77fbdf4dbec65276e53e8583887ef11009893dde29d1038120a5891eb8b9810350c60001b616f1d565b611fe37ff8ed749b5f29ec17239494548f146037f2912b041122fb43d8b1c0db7670d77b60001b616f1d565b8461010460006001815260200190815260200160002060006101000a81548173ffffffffffffffffffffffffffffffffffffffff021916908373ffffffffffffffffffffffffffffffffffffffff1602179055506120637f69257bb711d704e7ce134bfbba4800ca00b4112c8d3eb69424d98a4dcc2560a660001b616f1d565b61208f7f588600ca1656b53b95bf643f65e159d10d40433098757e69d71f4187ff5768ae60001b616f1d565b8361010460006002815260200190815260200160002060006101000a81548173ffffffffffffffffffffffffffffffffffffffff021916908373ffffffffffffffffffffffffffffffffffffffff16021790555061210f7fb9766ad225704ce8eec4f2c737134950f0b26bd499fde87f5647bd1256a7837f60001b616f1d565b61213b7f790be6c59ac18114fc9fa23e505b89efa93021cab08861cf9c74be2bc9796e3460001b616f1d565b8261010460006003815260200190815260200160002060006101000a81548173ffffffffffffffffffffffffffffffffffffffff021916908373ffffffffffffffffffffffffffffffffffffffff1602179055506121bb7fdd9afe941f17a81858d1616346539738ffbd6766c003acfec7832c25d8e5ada160001b616f1d565b6121e77ff61fa295496d841e425f9adf2f9a4de47fae5bca130d5a7acd170dd5a80fbbfe60001b616f1d565b60066101028190555061221c7fb9fc2718fd3b6d5f3a7cf9359338a193354f40b2fac5af8e1a3c6e5f87211dfc60001b616f1d565b6122487f4c141c3e515894c824d142b661737acb03d6e3d0e6979dc438ec72e97c4a747f60001b616f1d565b60036101038190555061227d7fade11751af799c46051d14f98c31267a9a464dacb76f44238aff33c05b36883d60001b616f1d565b6122a97ff6334d1a8a6c548549cad18c7693f53e233df601f2b7f191d11ce048708755f460001b616f1d565b8160fd90805190602001906122bf929190618555565b506122ec7f46f9f193fdf2149d15938dbdf496c58324b3079f06120b14ea821b78e2796b4360001b616f1d565b6123187f32496c8b58c4ba54e255cc8349ee1e617cdb1cb3482a68aad4ab06d881af39da60001b616f1d565b61233060405180602001604052806000815250617365565b61235c7f6ca0d8ea59c5cf0a0cace8832e5d6c2609e01e00ce3cfa63769cc7ee499b235960001b616f1d565b6123887fe3bff0c56e471885c6964ae859fa43b56f3562ec6321e52a8a3e27149b44e57f60001b616f1d565b6123906173c0565b6123bc7f82e09b884e831e7852b1e4348a16b11ef36581359e015751ae2651064eac79d760001b616f1d565b6123e87f47a311378f0ce62cadf4a0a6e70b50ccc1ecec0a19d8aab2332f3c3b6d53910c60001b616f1d565b6123f0617419565b80156124495760008060016101000a81548160ff0219169083151502179055507f7f26b83ff96e1f2b6a682f133852f6798a09c465da95921460cefb38474024986001604051612440919061a031565b60405180910390a15b505050505050565b612459617472565b6124616174bc565b61248d7fa61b4ef944203d678e76d2ba1eb417acc21818e79a1af769abb1c89cd1c0f50f60001b616f1d565b6124b97f6baa363599516281ff358fd3591254e0e2ee624889dd0b271c1cb98b93ddeed460001b616f1d565b6124e57fb89796500ae1c378adb939f1f6e0b11f0398c32cf24f94de9cb5b3a58966e65760001b616f1d565b6125117f1cc7efb0e7ea04ccb413ecc0811a20c81a92159082f04dd82f307696f512772d60001b616f1d565b60fb60009054906101000a900473ffffffffffffffffffffffffffffffffffffffff1673ffffffffffffffffffffffffffffffffffffffff1663c23697a8826040518263ffffffff1660e01b815260040161256c9190618f87565b6020604051808303816000875af115801561258b573d6000803e3d6000fd5b505050506040513d601f19601f820116820180604052508101906125af9190619d70565b156125ef576040517f08c379a00000000000000000000000000000000000000000000000000000000081526004016125e690619de9565b60405180910390fd5b61261b7f26f2cb1faaf12fc528b414744a4a90db7ea8d754710f9cbc97f194445890f8ff60001b616f1d565b6126477f2df17c2152180b16071e9fd161f63b974c266dad30aee8b16a7ef3fb4ecde4d660001b616f1d565b6126737fa40e967e535b6b2901de43d53cf8ce88955c6a28102d8225bd03331ce0c6cad860001b616f1d565b61269f7f0ce46119a2d514c90abc0bbd96032fd00e5fc32181f255ef346ec7268bae94ab60001b616f1d565b6126cb7f116a00d6173939fad0146a0cee97d61041d8cb9dca1874f09b6bf933319089b660001b616f1d565b600061010960006126da6174bc565b73ffffffffffffffffffffffffffffffffffffffff1673ffffffffffffffffffffffffffffffffffffffff168152602001908152602001600020600084815260200190815260200160002060000160009054906101000a90046fffffffffffffffffffffffffffffffff166fffffffffffffffffffffffffffffffff1690506127857f69e2b3ea7552e27ba3341612c84fc23083eca971b90c301b7340d0cdc02cbbc560001b616f1d565b6127b17f6593456d95b71c7106553aad6b3be6b29cab0fbd067f0c0876627dda2c91a49660001b616f1d565b6127dd7f1a23593e3cf98386e7e26aaaccebd45179fe4e73e26eb67403b593ba5276a43060001b616f1d565b60008111612820576040517f08c379a00000000000000000000000000000000000000000000000000000000081526004016128179061a098565b60405180910390fd5b61284c7f702898c3eb616d23045dc703ac500cda30326d467acd74c29f08db2420cb4d4b60001b616f1d565b6128787f737dbb797a4a867f15b7b01b2bbf7978e755e63dc210e8b6af6fa7d3aa11f08960001b616f1d565b6128a47f368b1d15c8e1da011cfd093db763421a15424311c85b219276da4ef259d20ade60001b616f1d565b6000610107600061010960006128b86174bc565b73ffffffffffffffffffffffffffffffffffffffff1673ffffffffffffffffffffffffffffffffffffffff168152602001908152602001600020600087815260200190815260200160002060000160009054906101000a90046fffffffffffffffffffffffffffffffff166fffffffffffffffffffffffffffffffff16815260200190815260200160002060000160049054906101000a900463ffffffff1663ffffffff16905061298b7f864710393c158153466f416581fe4a44e7ffde85fafbb725775682a1a4c6d6ee60001b616f1d565b6129b77fe5ef963bb5bedada545fa0012da10b1c7ee442f0d38921c00824bfabdc760d4160001b616f1d565b6000600561010960006129c86174bc565b73ffffffffffffffffffffffffffffffffffffffff1673ffffffffffffffffffffffffffffffffffffffff168152602001908152602001600020600087815260200190815260200160002060000160109054906101000a90046fffffffffffffffffffffffffffffffff1683612a3e919061a0b8565b612a48919061a11b565b6fffffffffffffffffffffffffffffffff169050612a887f18b07ed5b23ac219ad8aee9bbc4be2d2c83b3e69309e3c1af69ba8f9106b37e960001b616f1d565b612ab47f89c2d47594fc453d05020b430bf6dc56d132af91ceb8531639761f743ad2ade760001b616f1d565b612ae07fd00e3b455d3f1bbdc4394ce258a33de52a51cc3cbeee7abc5a91dca1279f382460001b616f1d565b6000811415612b24576040517f08c379a0000000000000000000000000000000000000000000000000000000008152600401612b1b9061a1be565b60405180910390fd5b612b507ffa17a95f70a9e54db9aaf8d8f1c40129177edfd57deeba4c126fd40517e02daa60001b616f1d565b612b7c7ff2d5ed1e53d462be48dc510eecd307e1e37a09a4678e5a6ab69d347e14ac557760001b616f1d565b612ba87f86c37b41b80e6be6124d40271ead2670f81f72ae3804501eb9c983ee57e1d8d760001b616f1d565b61010460006003815260200190815260200160002060009054906101000a900473ffffffffffffffffffffffffffffffffffffffff1673ffffffffffffffffffffffffffffffffffffffff166323b872dd612c016174bc565b60ff60009054906101000a900473ffffffffffffffffffffffffffffffffffffffff16846040518463ffffffff1660e01b8152600401612c439392919061a1de565b6020604051808303816000875af1158015612c62573d6000803e3d6000fd5b505050506040513d601f19601f82011682018060405250810190612c869190619d70565b50612cb37f8a4ae8669ee63229acc3046d2b4b7990bb5df082b43a710105fba408c3a6106860001b616f1d565b612cdf7fb2ac487dde0a76a422a8712fc9e836fbfeecddd44e4428ecee5b1ab55364f7d860001b616f1d565b816101096000612ced6174bc565b73ffffffffffffffffffffffffffffffffffffffff1673ffffffffffffffffffffffffffffffffffffffff168152602001908152602001600020600087815260200190815260200160002060000160106101000a8154816fffffffffffffffffffffffffffffffff02191690836fffffffffffffffffffffffffffffffff160217905550612d9d7fbc11768cbffda88af4dbf2c0dc02f9c0881af532aaf67a30d7b339b688d4e5c460001b616f1d565b612dc97f6b300f698b504623b48d2ef1a46e7f03d0d3b657f52481918c3678c6fccd4d6860001b616f1d565b7f489732742a3b7fa64b47009a0782e6a403d44f8efd85d60cea8722a001e1667385604051612df89190618775565b60405180910390a15050505050565b6000806000806000612e3b7f85fd2072cb9fd9c34457d4219d0f7d644a0cb0e9ab177a69921f3a7469d834c260001b616f1d565b612e677f4147003b9df28df330760befd4d6a9b27d9215b09496cf4e8787ece87363c83b60001b616f1d565b612e937fbb17ae1364dbb20d56d75318c2cbf03925d60aad8aad807218682af0742b149c60001b616f1d565b61010960008873ffffffffffffffffffffffffffffffffffffffff1673ffffffffffffffffffffffffffffffffffffffff168152602001908152602001600020600087815260200190815260200160002060000160009054906101000a90046fffffffffffffffffffffffffffffffff166fffffffffffffffffffffffffffffffff169450612f447f0ab2ab55532807b059404db8aa1a061959d0249864b1865597f45ea5366a0c9460001b616f1d565b612f707f0cc719245cb4bda80a5d8c3a1ae4fab9cfcc9b8488bd6920d3059005b531e39960001b616f1d565b61010960008873ffffffffffffffffffffffffffffffffffffffff1673ffffffffffffffffffffffffffffffffffffffff168152602001908152602001600020600087815260200190815260200160002060000160109054906101000a90046fffffffffffffffffffffffffffffffff166fffffffffffffffffffffffffffffffff1693506130217ffc4c9ac0dbce47876d3e47841f19e30aa8fac3c84c70599bf4ca1a2bed5e282460001b616f1d565b61304d7fde20905d00638c6e00b82cf482f9bdedc05b8b5e4b9769493d400f07cf74b24460001b616f1d565b610107600086815260200190815260200160002060000160009054906101000a900463ffffffff1663ffffffff1692506130a97f825b224139767e1715c778ce5319f4ff594a7a588e09510e8352e6526e01590060001b616f1d565b6130d57f4b3dc276150544f1fb1f618478bf18940fe5803d31f7edb46b6ff4070426ece460001b616f1d565b610107600086815260200190815260200160002060000160089054906101000a900463ffffffff1663ffffffff1691506131317f5747a5f585f061b923c4d3aa8125f041edd5aba6ad6a817fdbd1ccb144bb462e60001b616f1d565b61315d7f1823e3d6e9b2725c6a5e083d99c59b556d5dc1bde11ee7d00ceec749ba7f7b7f60001b616f1d565b6101076000868152602001908152602001600020600001600c9054906101000a900463ffffffff1663ffffffff1690506131b97f7580ef7c326038746f893cb359686b3d3852ef5662e015e9ae5b887daa99924760001b616f1d565b6131e57fc4caacf45c8e6595d5bf0137a0503d677a438f21a2ff081bc319b885d75da30e60001b616f1d565b9295509295909350565b600061321d7f230efacda6d0ec6fadf67fa8b2afa80eee6cade5c84fe019b6846f28fc1b8f7260001b616f1d565b6132497f35e831ef5f2a72c09e6f97f2ee3e1171818359a5f545c17af8d093a62ffc527560001b616f1d565b6132757f4b23c9b00e2a14c84703deeeba87bdd0fb16c435b327a59ba8e4380edb622b2e60001b616f1d565b60fe60009054906101000a900473ffffffffffffffffffffffffffffffffffffffff16905090565b606081518351146132e3576040517f08c379a00000000000000000000000000000000000000000000000000000000081526004016132da9061a287565b60405180910390fd5b6000835167ffffffffffffffff811115613300576132ff618b2b565b5b60405190808252806020026020018201604052801561332e5781602001602082028036833780820191505090505b50905060005b84518110156133ab5761337b85828151811061335357613352619c8b565b5b602002602001015185838151811061336e5761336d619c8b565b5b6020026020010151610790565b82828151811061338e5761338d619c8b565b5b602002602001018181525050806133a490619b6a565b9050613334565b508091505092915050565b6133be617096565b6133ea7ff00bd598b995852e8eb3145a3d65b66a8a86b7b21bc2bd73e0fdf3390ae63b4360001b616f1d565b6134167fa60af17c34c570958c6ff39e3064247e42276a858c288514abe3c43ec884a5e160001b616f1d565b6134427f5649e7403cc6bb1bab1918ff0ead638d9d7b33c5c2b56e5621112415c5b1276c60001b616f1d565b61344c82826174c4565b5050565b600060c960009054906101000a900460ff16905090565b61346f617096565b61347960006175f6565b565b613483617096565b6134af7f0bd639348673e84d8d321f596372d7464427d148f6edd273c3da16220e7b942a60001b616f1d565b6134db7f175542c6c32a4d94a96e01cbdc5e79a0fd6f6ef647a26c6a644cd8ebcefc1f3860001b616f1d565b6135077f8e26ea5fcaa7982dc2754412235538965ed674b2550eefd2c0b9f5638d2468af60001b616f1d565b8060fe60006101000a81548173ffffffffffffffffffffffffffffffffffffffff021916908373ffffffffffffffffffffffffffffffffffffffff16021790555050565b60006135797f673dace2b1bb8b97227be5edf815c021baa3d7e4b0051082ea1594d1f26b477060001b616f1d565b6135a57f83186a7e4a93038e9f5ad3da92a604bea5413f566195337051b4f7baa6268f2b60001b616f1d565b6135d17f9f37ab514f99da226332f7455530f9112fa612e6848a76c4c034b6dc780239c460001b616f1d565b610104600083815260200190815260200160002060009054906101000a900473ffffffffffffffffffffffffffffffffffffffff169050919050565b60008060008061363f7f2d497a0a7d0d52b5c26e91e1d673dba1649e0c7dc539ff5f3b212ae642bbd8e460001b616f1d565b61366b7f12738341ac7f1e49d5b5e7bfb56c15cc18bd5ee065cb9e09ce0b48ba5d2dd1ba60001b616f1d565b6136977fed0490a59766060a3019f7d325d30f0a380c6e427f7c1fd739a3e143b64bd74c60001b616f1d565b610107600086815260200190815260200160002060000160049054906101000a900463ffffffff1663ffffffff1693506136f37f44f079c448ce02c06994d0e4aeea593cd38421751afbd9edd860cf1b689ec5e760001b616f1d565b61371f7f54b842eb7aabd744603afbfb218290710d9c568d84ea7b0c243f3f420741a7ae60001b616f1d565b610107600086815260200190815260200160002060000160009054906101000a900463ffffffff1663ffffffff16925061377b7f67d68cf201dbcf84a708f904e99543d40f09a288ee66ffc03d08ba938a860fab60001b616f1d565b6137a77facb6db47531ac84395776077585bfbc0db359b332e6ff157783ffdca435b256660001b616f1d565b610107600086815260200190815260200160002060000160089054906101000a900463ffffffff1663ffffffff1691506138037ff02d3d2f7c11c670a732b977850beeda1da65717f2a9ba2ffbec2213e8c578b660001b616f1d565b61382f7f5513d3f05beffc85b130db9d57f5339aade7952feff36eb6a609df79c28423a960001b616f1d565b6101076000868152602001908152602001600020600001600c9054906101000a900463ffffffff1663ffffffff16905061388b7ff94db835698e3b13542692a5338f99d39ecddf0caa2ce80416bd267bda6c986360001b616f1d565b6138b77ff8676a5ed3da52506030d514f886e6512b281183ab8cc25c8fa76c328331246860001b616f1d565b9193509193565b6138c6617096565b6138f27fb2629e46020567511ae5ce142209c76f0ae1b254671b9d14b848bba120bb300f60001b616f1d565b61391e7ffa5e0c7ae9dd59cdc49e145e5417f7b62fede462b820b128d5fcd8c188f273e160001b616f1d565b61394a7f5e89c11b0e4b8377c2d2617b90c47c5f1e9494447e60b332a1594ae4f611293d60001b616f1d565b613952613450565b6139e7576139827fc3204c5fbdcc81d7e5c2c341e9bfa89798807d8596d26348415abc39e845126d60001b616f1d565b6139ae7fb6b01772a57b76f994b0a8c1c9e8a4f1755b7de5866538299496a3e543be4cc360001b616f1d565b6139da7f8ae9219dbfc766dc7c0a9450a02c6576037935b7f88a6057b8dc719b1be5ac8960001b616f1d565b6139e26176bc565b613a74565b613a137f70c67238fe55693f002390e5c0b284dd5d385af98a4a474b2866eb2e8ef8ec8160001b616f1d565b613a3f7f6094f3617291f811521a811e4698a362d15794ea5bc4081415ebacb6d16dbdb760001b616f1d565b613a6b7f88c39a7a865d2fe812fe23cc57b77a1033b0e0d5663dfe888d9092013c0b9c4660001b616f1d565b613a7361771f565b5b565b613a7e617096565b613aaa7f28be9d56e333a82c731a8c2ef6e00ac8f42cb8e9505ee02469c39b0e4b2c3bfb60001b616f1d565b613ad67f15dde29dbb2451295bcdb121390336ac44dc4a261c1eff1e96ea4c44cc270edb60001b616f1d565b613b027f37b94a8064f5fb75f7822de00ec30169cea5ad6234db5564bbc74c316355a48060001b616f1d565b613b0d838383617782565b505050565b6000603360009054906101000a900473ffffffffffffffffffffffffffffffffffffffff16905090565b6000613b46617096565b613b727f8c95ce8a19b5ba5998436fb900a7feece2ea1aa5b9d80529f6b8add24487877560001b616f1d565b613b9e7fc7ad0c3a8e4385a10bc78717b289615b025ed7524c1df13d8a695f78dfa9ae7660001b616f1d565b613bca7f39a8b66b4f0f4764b65c3fd13f921a9fb24a3695de285845eb07ef80d026311160001b616f1d565b613bf67fd1cefcae1474ad75ce3b4f1e9547f6bcb30872e753447214a70df6f250ae957d60001b616f1d565b600060058b613c05919061a2a7565b63ffffffff1614613c4b576040517f08c379a0000000000000000000000000000000000000000000000000000000008152600401613c429061a324565b60405180910390fd5b613c777feeebc5b92d8aa3dd3503af9af310c330d09656ec91fb7b1b7ef5f253ca7bee6160001b616f1d565b613ca37f3ad991ec417a45ad22ef5bdf37a23fb2731a97c7eb5c494bbb7f83dad3b2666d60001b616f1d565b613ccf7f0ccada9078ae5a5ac8f874996ed274acefd10432ea344f4a98adb371da3c96c760001b616f1d565b613cfb7fd03952de2567c3cd856a9506cf8212038197eca7c2bb2922fbfdbbe742f5d74c60001b616f1d565b60008963ffffffff1611613d44576040517f08c379a0000000000000000000000000000000000000000000000000000000008152600401613d3b9061a3b6565b60405180910390fd5b613d707f979935b38a589aa64a0dfdd58197a7c68734d70d51296b6d51d4aabf71e8819c60001b616f1d565b613d9c7f900f3714becaaa978b485924b90c946778331e15f2b32583e809bb7e1b27fd8560001b616f1d565b6101016000815480929190613db090619b6a565b9190505550613de17fd4cdf3ed13de6bd722a7a5c1c61772fbf032150e9e6deb0d0dda683b801fb63a60001b616f1d565b613e0d7fc26a498cbdfc9c95a7ff378bb54f5c51bf7153a298bae2d40b13b697fbb678b860001b616f1d565b6000610101549050613e417fd5f037b351259dbf7c7e95cbf1d6f64815b3f33dc5458121fe0c5304b628d6ec60001b616f1d565b613e6d7f39c0f5fcdcefe98d1412ab60f4ed8fd6901519773516bff7091388e4a7dbc01b60001b616f1d565b8a610107600083815260200190815260200160002060000160046101000a81548163ffffffff021916908363ffffffff160217905550613ecf7f01c0920cf32c0a0d074d6b7817a869c5fa2069c5d3e4e5df4ec04139e55ae46d60001b616f1d565b613efb7fa7c24349a8dcd7dcf10a93d112a560b1b046c90360018f24fdf43db40982955660001b616f1d565b89610107600083815260200190815260200160002060000160086101000a81548163ffffffff021916908363ffffffff160217905550613f5d7ff6477d8ce3d91b4979b6e81c43690f4740f74913d04660d03e1e612a7c7fb2ff60001b616f1d565b613f897f4bce61417c8174678a2dbcfde66d2c8b8b616dc88b703617e7c8cc4074d7102660001b616f1d565b886101076000838152602001908152602001600020600001600c6101000a81548163ffffffff021916908363ffffffff160217905550613feb7f7a3ba7b0939c5a693a3692da0b4ec9c2ace6318724014e8ccd7f0596f831aedc60001b616f1d565b6140177fd766870d79ef23e4e5e7506a540e4fd7825b50b17f74d21d9227e229563ec5bf60001b616f1d565b87610107600083815260200190815260200160002060000160006101000a81548163ffffffff021916908363ffffffff1602179055506140797f3397979905e14780486abbedc9f601e1fe9b2d1cb4baf77eeb93cf168ef9c3f160001b616f1d565b6140a57f6ad1eae5fe778fc823e8a08cbe9a87e1a919db1b18dac90238d29c9cfc19726360001b616f1d565b7f7296f5fa391687be022b0baddb2ec8adabc082c89fa302b5acd49b08bd9e4615816040516140d49190618775565b60405180910390a16141087f4f0de8fed92e5f6a355498b9ed35764f43c55b30ab2fee711abf06fd318c58b260001b616f1d565b6141347fd702a30665475333542ad0099c4423e76711531fde84392b69dee64cda0b0d0f60001b616f1d565b61413f818585613a76565b61416b7f903dcaa14eb79de70b9b23a3724009681997ae3b6b672526b591409f152e257160001b616f1d565b6141977fa4da3cafb8dfebb3158836ba55ccd805f61515dab6a64b8edb5aea5eb69ea6b760001b616f1d565b6141a381888888610d9d565b6141cf7f0ec5b03b295b42cf7fe4b2fd409591640123db8f2e584ce27e54700d52dfd8dc60001b616f1d565b6141fb7f150a4e2aa516046417ea15992d97f201c55989ad605b2f9cb485e2b34c5cbd0460001b616f1d565b809150509998505050505050505050565b61421e6142176174bc565b83836178c7565b5050565b60006142507ff70dbca41e93db41e82987a50d84be4e7e5595ce2e306b27b02834836aa9115360001b616f1d565b61427c7fffa1cbd61b5188e7cecca6fef88e20404d9fbd511a701cae379776485a8175fe60001b616f1d565b6142a87f08e1ae38c6590360183a5c53fb9d395cb9ca8bdf1c490e0551458025f0b5e61160001b616f1d565b61010154905090565b6142b9617096565b6142e57f3e1bf832ec9b65f1a7a18ea04e9e9011e8a23a77ae32d39b8672ff66fb32b1b760001b616f1d565b6143117f6ccd2f9747b8ddf9862105b22d7aeaa98a307245825d3bfbc9415bba27d92b4060001b616f1d565b61433d7f32d63a7346d2fc409225a0fdfc00e6fcb535f887324f6ca45dc21126a97c32ec60001b616f1d565b6143697fee145253c3c98c52288b60497c53f4904e0ae3f86ac58d87303e94f312c8a53c60001b616f1d565b600073ffffffffffffffffffffffffffffffffffffffff168173ffffffffffffffffffffffffffffffffffffffff1614156143d9576040517f08c379a00000000000000000000000000000000000000000000000000000000081526004016143d09061a422565b60405180910390fd5b6144057f4741726298123f805b9647d0ee98daf1f786bbcfce1f8ab366095d6732a802c360001b616f1d565b6144317fa981f9fe82a0483f892cc55d421de9defd11a07faa0c6984ff729ee079a5993760001b616f1d565b610103600081548092919061444590619b6a565b91905055506144767f3979278dc3a5862fafe138da62ab506f0c8a78eac134061a3eb2763d9cb16e5460001b616f1d565b6144a27f33accdd51cede079369198617871d0c7dce9941815e72e076413b0804953105460001b616f1d565b80610104600061010354815260200190815260200160002060006101000a81548173ffffffffffffffffffffffffffffffffffffffff021916908373ffffffffffffffffffffffffffffffffffffffff16021790555050565b614503617096565b61452f7f12ecad670884ebe9b6d6b644d5776274fb903834ad825974f160a2308942378960001b616f1d565b61455b7f7d2a8a7708b7f37fe55925a4933f90ee627d5a5d67bad6b6a63f06303a85729460001b616f1d565b6145877f8cb4e561f541af4f96accd0df19f4468d0795e04d0ca948aa82f8132757dd34260001b616f1d565b8060fc60006101000a81548173ffffffffffffffffffffffffffffffffffffffff021916908373ffffffffffffffffffffffffffffffffffffffff16021790555050565b60006145f97fe1a80724e598367ba851f88d493dfc306aee8eb2a066b4a7f42f1bd87af3557d60001b616f1d565b6146257f9b42931b2c31cc79a50f464bb34c173c472752981dcaa5e8624cfb9c8e711a8160001b616f1d565b6146517f7141ff1763b1dbc330d5ae6eb9c0259d3f3e8ad68e8e81ced8b07d9451b9f98d60001b616f1d565b7fbc197c819b3e337a6f9652dd10becd7eef83032af3b9d958d3d42f669414662190509695505050505050565b60006146ac7f3064cee1682a87ef5522275c5503c33b57432a245cc171231c8ac8f0638ca4b660001b616f1d565b6146d87f741f639b4927c85e784789ee6a184343ce08a75a9fcd48f983be82fcd1da1ca260001b616f1d565b6147047fda8a99048be609f0983fac8a6d067271f73f74b034a432e79f9dba81d92b0c6360001b616f1d565b61010254905090565b614715617472565b6147417fd5db1215656b22437d3adb7756e31c3557154aaad813a311728296c5888aa5e760001b616f1d565b61476d7f414d2a0a10b431a50d467d13f289f38cfe61878e3fd8125f9646319b071501a960001b616f1d565b6147997f1bce773ff92c167936d86119d7f8a9d55ca8c15007c7af8b4e5259c78a19ae9060001b616f1d565b6147c57f991b01e9871a861e9bee1aded8e598de32cb8b5f4c7a2a806bbd8f6ac4d9aae260001b616f1d565b60fe60009054906101000a900473ffffffffffffffffffffffffffffffffffffffff1673ffffffffffffffffffffffffffffffffffffffff166148066174bc565b73ffffffffffffffffffffffffffffffffffffffff161461485c576040517f08c379a00000000000000000000000000000000000000000000000000000000081526004016148539061a4b4565b60405180910390fd5b6148887f2e3c4dc0fb16f1d2335af478bd6d7e08c781e643a6fa3841a18a110a82a360cc60001b616f1d565b6148b47f91a7f2a77c711af42ced419cb166dcb479c80f4eec0dc413f1805865205cd80060001b616f1d565b6148e07fe38f5e079c0bb10b926c308bbda755d4291bcf647875447dbec3891817646d8660001b616f1d565b8061010960008573ffffffffffffffffffffffffffffffffffffffff1673ffffffffffffffffffffffffffffffffffffffff168152602001908152602001600020600084815260200190815260200160002060000160108282829054906101000a90046fffffffffffffffffffffffffffffffff1661495f919061a0b8565b92506101000a8154816fffffffffffffffffffffffffffffffff02191690836fffffffffffffffffffffffffffffffff160217905550505050565b60006149c87f4f668b469344d01e83f2c21ca48edb8a804127129a714ff3ed89a3ae054ab12a60001b616f1d565b6149f47f826e05e858fc954df6639af98e970e56d2d1689e57fc8d360a4147bc0d4b84a060001b616f1d565b614a207fc000810bc6a398a1f12c406a7089f49b02ee0e94797bc46adefcb011e3c31a1660001b616f1d565b6101096000614a2d6174bc565b73ffffffffffffffffffffffffffffffffffffffff1673ffffffffffffffffffffffffffffffffffffffff168152602001908152602001600020600083815260200190815260200160002060000160109054906101000a90046fffffffffffffffffffffffffffffffff166fffffffffffffffffffffffffffffffff169050919050565b614ab9617096565b614ae57fd3dacad3d9b32a0f33334264165a1e326e081931812ade7967011abee3476c9c60001b616f1d565b614b117ff071b76b504123e5df739ccfc5a2b8d31ade94b3932ac42c1e54487ddedafe2060001b616f1d565b614b3d7f868bc4574c332451dbf13071e946acd229d421dae6c0070e2fdc85efe90323f660001b616f1d565b614b697f0e020a60fe9feb4898b571b99ab90cfaf56f8508ce2bc0b93e4a322d83d6ae6360001b616f1d565b61010154851115614baf576040517f08c379a0000000000000000000000000000000000000000000000000000000008152600401614ba690619ec1565b60405180910390fd5b614bdb7f1699e38cff05fa366a80b895d47715e7dda30a62fa0ee0c5397ddb22ab8c97db60001b616f1d565b614c077fa6906b31089f4e4cd8ee06d8d619cb64f662a5b71e6655265ac204bf5f0bf45d60001b616f1d565b614c337fdca23033f4d33436990f4d1e07bd35e9c8e7c0db20b680191343379a7be9bf3a60001b616f1d565b614c5f7ffb0e97ca6a591e762ac31341ea5655c31e4ff480163cc769d1d1a557b602f49e60001b616f1d565b6000600585614c6e919061a2a7565b63ffffffff1614614cb4576040517f08c379a0000000000000000000000000000000000000000000000000000000008152600401614cab9061a324565b60405180910390fd5b614ce07f07918d8d88852773d83c0b895d0605e0c6121d869eaca02682e424485bc48d3560001b616f1d565b614d0c7f683dcc0f365e8516d1582431d4d92eb74ce9d31c49b78b68dde91b29c4c10b7c60001b616f1d565b614d387fe9443581d5e78bf0833a96d1dd86d77fee7fe43f2e670dea0f9050123e3109ef60001b616f1d565b614d647fd883a6c9f2ee9cfbc894524daae0091588e34652169a6a8c5ba134ceb6330c4460001b616f1d565b60008363ffffffff1611614dad576040517f08c379a0000000000000000000000000000000000000000000000000000000008152600401614da49061a3b6565b60405180910390fd5b614dd97f0b9531cc7f712daee54671614f4cb1436462ed29666398283b82519b1b255a9460001b616f1d565b614e057f2020500ea3a4dc420b3d5bf9989e5d5915342dc13476269e98a3948321f62eb760001b616f1d565b614e317f8ac453a07802588bf6716ddc41ef3843de3a0de6c64e3f9aa7a160480d88d39160001b616f1d565b83610107600087815260200190815260200160002060000160046101000a81548163ffffffff021916908363ffffffff160217905550614e937f9278efe49291a67b59d2bf5175e804eb8ac3bb1e09e532fff2588a50c9c8c09260001b616f1d565b614ebf7fb709e3d455d07323a6a5df60ee9547d7bcee4e47a5b6370314b1ce82c82027f560001b616f1d565b82610107600087815260200190815260200160002060000160086101000a81548163ffffffff021916908363ffffffff160217905550614f217f45acaf079dbfacae4241167cc978fcbd3ff52763096ed16509ac9a7a9e6ebef860001b616f1d565b614f4d7f1616e80b6e6f2a00629a088c654f121b93fe22e37d5325e3ea31538661e91b0d60001b616f1d565b816101076000878152602001908152602001600020600001600c6101000a81548163ffffffff021916908363ffffffff160217905550614faf7f7cca1636e3ae98b4aa546ef7bbebf365a20d3e40e2ab5f3d3b106c1a8abd80f160001b616f1d565b614fdb7f8bcc5fdde7ee65873a8fb4db8f016635c0153c1c52a4fd210e5234d4f7e8534560001b616f1d565b80610107600087815260200190815260200160002060000160006101000a81548163ffffffff021916908363ffffffff16021790555061503d7f7fbdd76fb34bfe46c83a713548fbb2db91979f63b82e7c615a3a496601516c4160001b616f1d565b6150697f07f60b995c20ad523e138d1980eec23bc32da985aabe6eade3141256e0a60c4e60001b616f1d565b7f0d941a060da7489cee731e5f3679ce755c90811e0811066c59392d5bfe194012856040516150989190618775565b60405180910390a15050505050565b60006150d57ffdacf576698bfbdde41d49f56d2bc33fed0a77b71be29ffb529d1eb0065d0b2d60001b616f1d565b6151017ffc457e6d3f1b3026a4c0e1978f1e129cae842dfb309bc1d925952fd2963f9c6e60001b616f1d565b61512d7f2ba76d2f287f9972ca4ed2a6b7411e5ad1053c3ec34051ea2ca15b8de16c864f60001b616f1d565b61010354905090565b6000609860008473ffffffffffffffffffffffffffffffffffffffff1673ffffffffffffffffffffffffffffffffffffffff16815260200190815260200160002060008373ffffffffffffffffffffffffffffffffffffffff1673ffffffffffffffffffffffffffffffffffffffff16815260200190815260200160002060009054906101000a900460ff16905092915050565b60006151f87fdc251fced91f83d45f69c9cffaacb14359e632e96122a1c923e52a6859078f2360001b616f1d565b6152247ff495d52ad5559d31a433a1d660c6d44e3599703789c282963b970d9d67dbf0da60001b616f1d565b6152507fda766559ca18bf188a55b490b270dd696966bee556e1a49ce0263f645425fb0660001b616f1d565b60fc60009054906101000a900473ffffffffffffffffffffffffffffffffffffffff16905090565b60006152a67fbca9ce13a6c07b9b13efa3c13b81ca8331592038bd3eba886b5af3b1290e08cc60001b616f1d565b6152d27f1b65655c39d33663f4e3df534bc75aec413c19c75a9b414faaa26bff2290243160001b616f1d565b6152fe7ff73ad0f726c3d4639bab7341bef5adab8945cb1a7c20adba33e60e3a79f438de60001b616f1d565b7ff23a6e612e1ff4830e658fe43f4e3cb4a5f8170bd5d9e69fb5d7a7fa9e4fdf9790509695505050505050565b6153577ff8d7f8031978bad9dd8ffee8fa9ed69f957d78a3ce4ff0c32d2fd3d22045f39260001b616f1d565b6153837f7f797de21be17a00508ecead9747cd90e20857c28283b68f58202578b206ac2860001b616f1d565b6153af7f18cb50a1b6b1fa9b4232f76b0eca05419671033fd220110f0465fa5ffc30a71660001b616f1d565b6153db7f601530d44811302b66802e7a5ed272d31fa073a0549cf793d8aa7d1890cf555560001b616f1d565b6001821461541e576040517f08c379a000000000000000000000000000000000000000000000000000000000815260040161541590619f2d565b60405180910390fd5b61544a7fd01c4a5dfe69efba60d962b876cfcb7b7afade10d51c5712b87a9dfed0ec443560001b616f1d565b6154767fb82a02dd3ea80864c5eac170b4f141b5b62502c23155c73f5af1f50b521450c760001b616f1d565b6154a27fbbfd687b198a13fae50508ac55e6cc0eac75bb6d018cd1c6a99f56cfd9ffc94460001b616f1d565b600061010960008773ffffffffffffffffffffffffffffffffffffffff1673ffffffffffffffffffffffffffffffffffffffff168152602001908152602001600020600085815260200190815260200160002060000160009054906101000a90046fffffffffffffffffffffffffffffffff166fffffffffffffffffffffffffffffffff1690506155557f7a7145d88f4fd058c9f6de248f471476401b7c9e8a9265d53f02d78386d70b1760001b616f1d565b6155817fe2b10542d9013e24b3987542609b7493b9ce8da0807fb07e47a52246529db27460001b616f1d565b6155ad7f7306deed3e3c2ca00a8e184d165f38d60b158a643a2e6df4624660a47e723d2160001b616f1d565b600081116155f0576040517f08c379a00000000000000000000000000000000000000000000000000000000081526004016155e79061a520565b60405180910390fd5b61561c7fc82690133383ab1e7a50af9be02e55bbe5afb862f455e143257af7a8116efc2a60001b616f1d565b6156487f8285e90c3b912ae515d853747df7d95b03316cb91370f74259b5b472b769dd9960001b616f1d565b6156747fc7f56fadda08ec5de9c4a7e22519e54cc597d5326132023348f500345bda35de60001b616f1d565b6156818686838686617a34565b6156ad7f26270807a1a137b9a7e438975872619522202fcd74d72f388c7b2fa7c84d18ae60001b616f1d565b6156d97f3db6396a19b9411d26198f06479aa98c2232d2af5ba9fb6be7dca6c90dd54a7460001b616f1d565b61010960008773ffffffffffffffffffffffffffffffffffffffff1673ffffffffffffffffffffffffffffffffffffffff168152602001908152602001600020600085815260200190815260200160002061010960008773ffffffffffffffffffffffffffffffffffffffff1673ffffffffffffffffffffffffffffffffffffffff16815260200190815260200160002060008681526020019081526020016000206000820160009054906101000a90046fffffffffffffffffffffffffffffffff168160000160006101000a8154816fffffffffffffffffffffffffffffffff02191690836fffffffffffffffffffffffffffffffff1602179055506000820160109054906101000a90046fffffffffffffffffffffffffffffffff168160000160106101000a8154816fffffffffffffffffffffffffffffffff02191690836fffffffffffffffffffffffffffffffff1602179055509050506158607ffb5a8836e79723cdc71c890db16d83dfa7edbc286761c518849508e24226eded60001b616f1d565b61010960008773ffffffffffffffffffffffffffffffffffffffff1673ffffffffffffffffffffffffffffffffffffffff1681526020019081526020016000206000858152602001908152602001600020600080820160006101000a8154906fffffffffffffffffffffffffffffffff02191690556000820160106101000a8154906fffffffffffffffffffffffffffffffff02191690555050505050505050565b61590a617096565b600073ffffffffffffffffffffffffffffffffffffffff168173ffffffffffffffffffffffffffffffffffffffff16141561597a576040517f08c379a00000000000000000000000000000000000000000000000000000000081526004016159719061a5b2565b60405180910390fd5b615983816175f6565b50565b61598e617472565b6159966174bc565b6159c27fa61b4ef944203d678e76d2ba1eb417acc21818e79a1af769abb1c89cd1c0f50f60001b616f1d565b6159ee7f6baa363599516281ff358fd3591254e0e2ee624889dd0b271c1cb98b93ddeed460001b616f1d565b615a1a7fb89796500ae1c378adb939f1f6e0b11f0398c32cf24f94de9cb5b3a58966e65760001b616f1d565b615a467f1cc7efb0e7ea04ccb413ecc0811a20c81a92159082f04dd82f307696f512772d60001b616f1d565b60fb60009054906101000a900473ffffffffffffffffffffffffffffffffffffffff1673ffffffffffffffffffffffffffffffffffffffff1663c23697a8826040518263ffffffff1660e01b8152600401615aa19190618f87565b6020604051808303816000875af1158015615ac0573d6000803e3d6000fd5b505050506040513d601f19601f82011682018060405250810190615ae49190619d70565b15615b24576040517f08c379a0000000000000000000000000000000000000000000000000000000008152600401615b1b90619de9565b60405180910390fd5b615b507f26f2cb1faaf12fc528b414744a4a90db7ea8d754710f9cbc97f194445890f8ff60001b616f1d565b615b7c7f2df17c2152180b16071e9fd161f63b974c266dad30aee8b16a7ef3fb4ecde4d660001b616f1d565b615ba87fc0ee9c5c736c439c56e528e1f429b59441b0cddcd310dcaca2a399e4c7632ec060001b616f1d565b615bd47fabf30d8addb9db563ccefb1a6160b4a3effecfe333ae942ae714ddb5f7cb0df460001b616f1d565b615c007f3fb3021671c7780a0108b96487e9e5ff8ddbab5194d96482d37eb3a1963abe2960001b616f1d565b6000615c2e7fb3949832f68589d766a4f2b974553453104651f4d916f3e086292c20727f262260001b616f1d565b615c5a7fbcd3307392063e183470be6af9fe7d7ba1dd4924d8665429d7490603458eb89260001b616f1d565b6060615c887f3d352c5dae7e67f1c66d96c36206f0108824165e76f952ce433a4cd55e4bc8c260001b616f1d565b615cb47f843c32f2cfdb632de46456b2a0fc7f5474b1515dc0942f9fdd83db076d48f7b360001b616f1d565b615cbd84616bc7565b8092508193505050615cf17f6267c98144bc9a49fc5eca0b23b98e880f6c9a0a7c65d3e574ff7f57dbe2575c60001b616f1d565b615d1d7f85fbebb008ff58b0988a213c3ec234037f3dcf8cf721561e33f8625fc8f249ff60001b616f1d565b61010460006003815260200190815260200160002060009054906101000a900473ffffffffffffffffffffffffffffffffffffffff1673ffffffffffffffffffffffffffffffffffffffff166323b872dd615d766174bc565b60ff60009054906101000a900473ffffffffffffffffffffffffffffffffffffffff16856040518463ffffffff1660e01b8152600401615db89392919061a1de565b6020604051808303816000875af1158015615dd7573d6000803e3d6000fd5b505050506040513d601f19601f82011682018060405250810190615dfb9190619d70565b50615e287f6115510a383f1fb615a32cfa80bca370bf9f7c0430aabf6b94b4a6f96ac96bbc60001b616f1d565b615e547ff211510d5027f61b385a1a916db83f542e5c39f0c0e75ba6dd7b86a77728203f60001b616f1d565b61010460006002815260200190815260200160002060009054906101000a900473ffffffffffffffffffffffffffffffffffffffff1673ffffffffffffffffffffffffffffffffffffffff166323b872dd615ead6174bc565b60ff60009054906101000a900473ffffffffffffffffffffffffffffffffffffffff16600586615edd919061a5d2565b6040518463ffffffff1660e01b8152600401615efb9392919061a1de565b6020604051808303816000875af1158015615f1a573d6000803e3d6000fd5b505050506040513d601f19601f82011682018060405250810190615f3e9190619d70565b50615f6b7f17fc1440a038bbc075a2737076fb016350e69ec3b19c512288829a542ab8118a60001b616f1d565b615f977f749f5860fd930722b07de2bf948b56a8defa4c06481db1bee1d160aa7bd37af360001b616f1d565b60005b81518110156161c857615fcf7f6612e2ef5e2640b0b0c31594a0b57d76a08d8598b415c2b69798621a83b0842560001b616f1d565b615ffb7fc1f13096407734df4f46ac016b89ae4b8f25c4b838c9f4065b6f6f6d7c6e3d0a60001b616f1d565b60008282815181106160105761600f619c8b565b5b602002602001015114616188576160497faefe2d5e1129d4c08604f9dcc35829437e77f7e73b70f70dce66f0a4eda74d0660001b616f1d565b6160757fd878da716b3fcac229376e106c271695ae63898d3c05b3781e9c795ebede460b60001b616f1d565b6160a17f81b573cce036e4e369d910f92c558f1bbd4d8521e09c04872d967c1527891cda60001b616f1d565b60fc60009054906101000a900473ffffffffffffffffffffffffffffffffffffffff1673ffffffffffffffffffffffffffffffffffffffff1663f242432a6160e76174bc565b60ff60009054906101000a900473ffffffffffffffffffffffffffffffffffffffff16600185616117919061a62c565b86868151811061612a57616129619c8b565b5b60200260200101516040518563ffffffff1660e01b8152600401616151949392919061a6b9565b600060405180830381600087803b15801561616b57600080fd5b505af115801561617f573d6000803e3d6000fd5b505050506161b5565b6161b47f7d9818486579b231886f5d8822c04cc59c7655426bed0d4f20bcabab23e5f06860001b616f1d565b5b80806161c090619b6a565b915050615f9a565b506161f57fd3fdb16fec652149043f8bc7c32d051279106cfad4db071263f82a0e5201a22560001b616f1d565b6162217f0cddfb22981acf13697945c64583dac7fc3c6f1dcc802d5fe98263d1dbf28c3460001b616f1d565b61624461622c6174bc565b85600160405180602001604052806000815250617ad5565b6162707fa871b95903823516c002d9173c262868aacf62553bc24fb7d6ebb2a7db07192b60001b616f1d565b610100600081548092919061628490619b6a565b91905055506162b57f7567064e53aebb6743626ac96c2f9165add39d0abdcc97a3176bf1f5c967e78160001b616f1d565b6162e17f14dfecb649193c0a1329de51f68e248a817c5bdd8f25955980ff8018cb83fa2160001b616f1d565b6040518060400160405280856fffffffffffffffffffffffffffffffff168152602001610107600087815260200190815260200160002060000160049054906101000a900463ffffffff1663ffffffff166fffffffffffffffffffffffffffffffff1681525061010960006163546174bc565b73ffffffffffffffffffffffffffffffffffffffff1673ffffffffffffffffffffffffffffffffffffffff168152602001908152602001600020600061010054815260200190815260200160002060008201518160000160006101000a8154816fffffffffffffffffffffffffffffffff02191690836fffffffffffffffffffffffffffffffff16021790555060208201518160000160106101000a8154816fffffffffffffffffffffffffffffffff02191690836fffffffffffffffffffffffffffffffff16021790555090505061644f7fc4b65254a9fb5374d0c3990f2ca6539a3bb24ac6f70d2b89cda7188200cb049260001b616f1d565b61647b7f542eb5298c0876fd5bced6e0d7088dcaec324c92c75d9b9a94e95a2384b2f8bd60001b616f1d565b7f82bf558222c4c37aae80230f0a656373f327bcc6f1ac1ef73c385d4dec21b2236164a46174bc565b856040516164b392919061a711565b60405180910390a150505050565b6164c9617096565b826164f67fa61b4ef944203d678e76d2ba1eb417acc21818e79a1af769abb1c89cd1c0f50f60001b616f1d565b6165227f6baa363599516281ff358fd3591254e0e2ee624889dd0b271c1cb98b93ddeed460001b616f1d565b61654e7fb89796500ae1c378adb939f1f6e0b11f0398c32cf24f94de9cb5b3a58966e65760001b616f1d565b61657a7f1cc7efb0e7ea04ccb413ecc0811a20c81a92159082f04dd82f307696f512772d60001b616f1d565b60fb60009054906101000a900473ffffffffffffffffffffffffffffffffffffffff1673ffffffffffffffffffffffffffffffffffffffff1663c23697a8826040518263ffffffff1660e01b81526004016165d59190618f87565b6020604051808303816000875af11580156165f4573d6000803e3d6000fd5b505050506040513d601f19601f820116820180604052508101906166189190619d70565b15616658576040517f08c379a000000000000000000000000000000000000000000000000000000000815260040161664f90619de9565b60405180910390fd5b6166847f26f2cb1faaf12fc528b414744a4a90db7ea8d754710f9cbc97f194445890f8ff60001b616f1d565b6166b07f2df17c2152180b16071e9fd161f63b974c266dad30aee8b16a7ef3fb4ecde4d660001b616f1d565b6166dc7f3662416ff951ecddb3edcb6741854b4f1b5e8f0edda79698484b7e5698d2c34360001b616f1d565b6167087fe394a205f56fb419d8fd5682379bc847f058ca845c3b8ba7261f0ac65f6c954260001b616f1d565b6167347fd2887792d5b755e82d7ee4dc545044b1cf4a8ee935f02f46effbe7b22b5ed8ff60001b616f1d565b6167607f8fe62048df2eea020d3279fee7a30c323f5e890bb4f1437637c3be3b067423c760001b616f1d565b60006101015414156167a7576040517f08c379a000000000000000000000000000000000000000000000000000000000815260040161679e90619e55565b60405180910390fd5b6167d37f55eb7097b9f1e36cf813f588a05714ece173a106a3f4a6118a47e1fe654d48b360001b616f1d565b6167ff7f2483650cd04ff757e06ace031a429239b72835cf00d2f85e3fb1898aa2d76a1860001b616f1d565b61682b7f01a809b76140b11f6347e32bf17ed724a7306e26cfd73df3841aa35fd13ba51460001b616f1d565b6168577f8d173b933db44604f81ab82036012b936e19f8961fbded6a924dcc7b9863f23160001b616f1d565b61010154836fffffffffffffffffffffffffffffffff1611156168af576040517f08c379a00000000000000000000000000000000000000000000000000000000081526004016168a690619ec1565b60405180910390fd5b6168db7f2faa3b7aba3b48869da718955c1c635bf93294f7e9976122d16f1bad5e4d6a1560001b616f1d565b6169077ff33807f2d68f7b5532d58aa0126300b2aee3d8c49403b9ba9ca8d1315a6c770460001b616f1d565b6169337f26594cad72123955eb3a39d7a4343b1fc1f5e07b37b88982cbb6a5e6b2376a7c60001b616f1d565b61696084846fffffffffffffffffffffffffffffffff168460405180602001604052806000815250617ad5565b61698c7f30891ea54607f8809f53442c85244b9441f55374361313ac55dfde29250bcc4860001b616f1d565b6169b87f713c43f37851f91f1eb88916db3c54ccd29c80b736210934a8e2cea856e5658b60001b616f1d565b60005b82811015616bc0576169ef7f4c4b67fc9683637555f9e483cf8373234a029a5f7e1b6cc8ed0e926853283e6260001b616f1d565b6101006000815480929190616a0390619b6a565b9190505550616a347f44bd35c713e8705fdd2934e35092639ce89c68e5d7e5f290b565fa98f6d9015860001b616f1d565b616a607fc60ea4091803cc5c2ccbb9f31365d64a2a540398da580ecef3585a1c5322eeee60001b616f1d565b6040518060400160405280856fffffffffffffffffffffffffffffffff1681526020016101076000876fffffffffffffffffffffffffffffffff16815260200190815260200160002060000160049054906101000a900463ffffffff1663ffffffff166fffffffffffffffffffffffffffffffff1681525061010960008773ffffffffffffffffffffffffffffffffffffffff1673ffffffffffffffffffffffffffffffffffffffff168152602001908152602001600020600061010054815260200190815260200160002060008201518160000160006101000a8154816fffffffffffffffffffffffffffffffff02191690836fffffffffffffffffffffffffffffffff16021790555060208201518160000160106101000a8154816fffffffffffffffffffffffffffffffff02191690836fffffffffffffffffffffffffffffffff1602179055509050508080616bb890619b6a565b9150506169bb565b5050505050565b60006060616bd3617472565b616bff7f5e3af11dffa400f8948d15532966189410508de778596db5782a3774e1b08c4060001b616f1d565b616c2b7ff07813f06a2a6ef834e46a347dd3a0ad4e3702ce28ab04707ca89a8e5f918d6a60001b616f1d565b616c577f119b22bbfe4839d223c3b67cbdd8a11e6d9477788b1343da0ae938a3a170551860001b616f1d565b6101025467ffffffffffffffff811115616c7457616c73618b2b565b5b604051908082528060200260200182016040528015616ca25781602001602082028036833780820191505090505b509050616cd17f72d39826082b0f37060458ef706e44e486d4e494eede0f8f0646023cc227b7cd60001b616f1d565b616cfd7f4f3f3b441132066daed8b1397f82ec247d47ec49bd895606c9e0714a04616b6060001b616f1d565b6101086000848152602001908152602001600020600001549150616d437fa8505de1419832b0862df90e8330cc78d82af009769bd969f22e5a29d2f2274d60001b616f1d565b616d6f7f6c8bafb0cc80727356c1206bfbc1c1fb23c73c490fc8c148206e0c5b75e9579160001b616f1d565b60005b61010254811015616f1757616da97f8c05e980c4e384f93dc2b1a4baf9e0033a8f6ecdf193f45cf513dd8cd5530f1860001b616f1d565b616dd57f94cc5421cac9afbe6068eec3721051b7cf489f619028e674fbc8366838dbba5d60001b616f1d565b600061010860008681526020019081526020016000206001016000838152602001908152602001600020541115616ed757616e327f523b47ed1b2d4aff7fb9a877c9ce11a31058c5225088aac1024f1236d49df64a60001b616f1d565b616e5e7f74074ca2473d80de4d92ea993c8db9eed3c9eb7f94925cc1bb152d35925d070c60001b616f1d565b616e8a7f980b454fe58bd5aa3828c51323a3ed0a69bdcf7e08c5638295d333f273cd55f960001b616f1d565b6101086000858152602001908152602001600020600101600082815260200190815260200160002054828281518110616ec657616ec5619c8b565b5b602002602001018181525050616f04565b616f037f078a147923d985abece0d2b1122e52e1a6eb488e6c31f59e30e0ffd4e296d3f960001b616f1d565b5b8080616f0f90619b6a565b915050616d72565b50915091565b50565b60007fd9b67a26000000000000000000000000000000000000000000000000000000007bffffffffffffffffffffffffffffffffffffffffffffffffffffffff1916827bffffffffffffffffffffffffffffffffffffffffffffffffffffffff19161480616feb57507f0e89341c000000000000000000000000000000000000000000000000000000007bffffffffffffffffffffffffffffffffffffffffffffffffffffffff1916827bffffffffffffffffffffffffffffffffffffffffffffffffffffffff1916145b80616ffb5750616ffa82617c87565b5b9050919050565b60606099805461701190619983565b80601f016020809104026020016040519081016040528092919081815260200182805461703d90619983565b801561708a5780601f1061705f5761010080835404028352916020019161708a565b820191906000526020600020905b81548152906001019060200180831161706d57829003601f168201915b50505050509050919050565b61709e6174bc565b73ffffffffffffffffffffffffffffffffffffffff166170bc613b12565b73ffffffffffffffffffffffffffffffffffffffff1614617112576040517f08c379a00000000000000000000000000000000000000000000000000000000081526004016171099061a786565b60405180910390fd5b565b600073ffffffffffffffffffffffffffffffffffffffff168473ffffffffffffffffffffffffffffffffffffffff161415617184576040517f08c379a000000000000000000000000000000000000000000000000000000000815260040161717b9061a818565b60405180910390fd5b81518351146171c8576040517f08c379a00000000000000000000000000000000000000000000000000000000081526004016171bf9061a8aa565b60405180910390fd5b60006171d26174bc565b90506171e381600087878787617cf1565b60005b845181101561729d5783818151811061720257617201619c8b565b5b60200260200101516097600087848151811061722157617220619c8b565b5b6020026020010151815260200190815260200160002060008873ffffffffffffffffffffffffffffffffffffffff1673ffffffffffffffffffffffffffffffffffffffff1681526020019081526020016000206000828254617283919061a62c565b92505081905550808061729590619b6a565b9150506171e6565b508473ffffffffffffffffffffffffffffffffffffffff16600073ffffffffffffffffffffffffffffffffffffffff168273ffffffffffffffffffffffffffffffffffffffff167f4a39dc06d4c0dbc64b70af90fd698a233a518aa5d07e595d983b8c0526c8f7fb878760405161731592919061a8ca565b60405180910390a461732c81600087878787617cf9565b61733b81600087878787617d01565b5050505050565b6000808273ffffffffffffffffffffffffffffffffffffffff163b119050919050565b600060019054906101000a900460ff166173b4576040517f08c379a00000000000000000000000000000000000000000000000000000000081526004016173ab9061a973565b60405180910390fd5b6173bd81617ed9565b50565b600060019054906101000a900460ff1661740f576040517f08c379a00000000000000000000000000000000000000000000000000000000081526004016174069061a973565b60405180910390fd5b617417617f34565b565b600060019054906101000a900460ff16617468576040517f08c379a000000000000000000000000000000000000000000000000000000000815260040161745f9061a973565b60405180910390fd5b617470617fa0565b565b61747a613450565b156174ba576040517f08c379a00000000000000000000000000000000000000000000000000000000081526004016174b19061a9df565b60405180910390fd5b565b600033905090565b6174f07f3ea0c58999c68e9f289ea4fd23b0ba923e9e7874f9409cb1371d441221c39bb360001b616f1d565b61751c7ff124f336db8f5157695091919c317592000f36665950a86de19bc315bafae86560001b616f1d565b6175487f302cf3ed598524ba3911302ab21fba1c47c6e873f378463fea3447850cf109af60001b616f1d565b818160fd91906175599291906185db565b506175867f6f5ef6df3ac5e7a1b8336b0d7d86fb079d516dce7052b2a3870cf27d1b85a61060001b616f1d565b6175b27f926cf1db569dca6368f30ace1d163d1b083d3bd2697c641175e049a3ec017d4760001b616f1d565b7f01e56a02aca7f26a28165a040851ba78f30282b55ca81c63a804cdc1e2dcea726175dd6001610a28565b6040516175ea9190618911565b60405180910390a15050565b6000603360009054906101000a900473ffffffffffffffffffffffffffffffffffffffff16905081603360006101000a81548173ffffffffffffffffffffffffffffffffffffffff021916908373ffffffffffffffffffffffffffffffffffffffff1602179055508173ffffffffffffffffffffffffffffffffffffffff168173ffffffffffffffffffffffffffffffffffffffff167f8be0079c531659141344cd1fd0a4f28419497f9722a3daafe3b4186f6b6457e060405160405180910390a35050565b6176c4617472565b600160c960006101000a81548160ff0219169083151502179055507f62e78cea01bee320cd4e420270b5ea74000d11b0c9f74754ebdbfc544b05a2586177086174bc565b6040516177159190618f87565b60405180910390a1565b617727618001565b600060c960006101000a81548160ff0219169083151502179055507f5db9ee0a495bf2e6ff9c91a7834c1ba4fdd244a5e8aa4e537bd38aeae4b073aa61776b6174bc565b6040516177789190618f87565b60405180910390a1565b6177ae7f6d73bcead30e3844c68d57ad0dcb5b2795f8834868637f79646f758a3ca9904d60001b616f1d565b6177da7f4e2f4b420bd308cd7c4f0124f42d2e4347513ad2f0009748d07c26e143e6426460001b616f1d565b6178067f04f784e3054717bcd04b42059062b3be833199dce4ee512229d2ee70de207f0060001b616f1d565b8181610106600086815260200190815260200160002091906178299291906185db565b506178567f20314b5d87d2afe07d6ad13faa48e82f6309b3be742182205dff921b6786689a60001b616f1d565b6178827fdc56079fc56063183eaa2d6900c2dd0b0c289aec87c8b36809ea0bb4c95c823e60001b616f1d565b827f6bb7ff708619ba0610cba295a58592e0451dee2622938c8755667688daf3529b6178ad85610a28565b6040516178ba9190618911565b60405180910390a2505050565b8173ffffffffffffffffffffffffffffffffffffffff168373ffffffffffffffffffffffffffffffffffffffff161415617936576040517f08c379a000000000000000000000000000000000000000000000000000000000815260040161792d9061aa71565b60405180910390fd5b80609860008573ffffffffffffffffffffffffffffffffffffffff1673ffffffffffffffffffffffffffffffffffffffff16815260200190815260200160002060008473ffffffffffffffffffffffffffffffffffffffff1673ffffffffffffffffffffffffffffffffffffffff16815260200190815260200160002060006101000a81548160ff0219169083151502179055508173ffffffffffffffffffffffffffffffffffffffff168373ffffffffffffffffffffffffffffffffffffffff167f17307eab39ab6107e8899845ad3d59bd9653f200f220920489ca2b5937696c3183604051617a279190618830565b60405180910390a3505050565b617a3c6174bc565b73ffffffffffffffffffffffffffffffffffffffff168573ffffffffffffffffffffffffffffffffffffffff161480617a825750617a8185617a7c6174bc565b615136565b5b617ac1576040517f08c379a0000000000000000000000000000000000000000000000000000000008152600401617ab89061ab03565b60405180910390fd5b617ace858585858561804a565b5050505050565b600073ffffffffffffffffffffffffffffffffffffffff168473ffffffffffffffffffffffffffffffffffffffff161415617b45576040517f08c379a0000000000000000000000000000000000000000000000000000000008152600401617b3c9061a818565b60405180910390fd5b6000617b4f6174bc565b90506000617b5c856182e9565b90506000617b69856182e9565b9050617b7a83600089858589617cf1565b846097600088815260200190815260200160002060008973ffffffffffffffffffffffffffffffffffffffff1673ffffffffffffffffffffffffffffffffffffffff1681526020019081526020016000206000828254617bda919061a62c565b925050819055508673ffffffffffffffffffffffffffffffffffffffff16600073ffffffffffffffffffffffffffffffffffffffff168473ffffffffffffffffffffffffffffffffffffffff167fc3d58168c5ae7397731d063d5bbf3d657854427343f4c083240f7aacaa2d0f628989604051617c5892919061ab23565b60405180910390a4617c6f83600089858589617cf9565b617c7e83600089898989618363565b50505050505050565b60007f01ffc9a7000000000000000000000000000000000000000000000000000000007bffffffffffffffffffffffffffffffffffffffffffffffffffffffff1916827bffffffffffffffffffffffffffffffffffffffffffffffffffffffff1916149050919050565b505050505050565b505050505050565b617d208473ffffffffffffffffffffffffffffffffffffffff16617342565b15617ed1578373ffffffffffffffffffffffffffffffffffffffff1663bc197c8187878686866040518663ffffffff1660e01b8152600401617d6695949392919061ab90565b6020604051808303816000875af1925050508015617da257506040513d601f19601f82011682018060405250810190617d9f919061ac0d565b60015b617e4857617dae61ac47565b806308c379a01415617e0b5750617dc361ac69565b80617dce5750617e0d565b806040517f08c379a0000000000000000000000000000000000000000000000000000000008152600401617e029190618911565b60405180910390fd5b505b6040517f08c379a0000000000000000000000000000000000000000000000000000000008152600401617e3f9061ad71565b60405180910390fd5b63bc197c8160e01b7bffffffffffffffffffffffffffffffffffffffffffffffffffffffff1916817bffffffffffffffffffffffffffffffffffffffffffffffffffffffff191614617ecf576040517f08c379a0000000000000000000000000000000000000000000000000000000008152600401617ec69061ae03565b60405180910390fd5b505b505050505050565b600060019054906101000a900460ff16617f28576040517f08c379a0000000000000000000000000000000000000000000000000000000008152600401617f1f9061a973565b60405180910390fd5b617f318161853b565b50565b600060019054906101000a900460ff16617f83576040517f08c379a0000000000000000000000000000000000000000000000000000000008152600401617f7a9061a973565b60405180910390fd5b600060c960006101000a81548160ff021916908315150217905550565b600060019054906101000a900460ff16617fef576040517f08c379a0000000000000000000000000000000000000000000000000000000008152600401617fe69061a973565b60405180910390fd5b617fff617ffa6174bc565b6175f6565b565b618009613450565b618048576040517f08c379a000000000000000000000000000000000000000000000000000000000815260040161803f9061ae6f565b60405180910390fd5b565b600073ffffffffffffffffffffffffffffffffffffffff168473ffffffffffffffffffffffffffffffffffffffff1614156180ba576040517f08c379a00000000000000000000000000000000000000000000000000000000081526004016180b19061af01565b60405180910390fd5b60006180c46174bc565b905060006180d1856182e9565b905060006180de856182e9565b90506180ee838989858589617cf1565b60006097600088815260200190815260200160002060008a73ffffffffffffffffffffffffffffffffffffffff1673ffffffffffffffffffffffffffffffffffffffff16815260200190815260200160002054905085811015618186576040517f08c379a000000000000000000000000000000000000000000000000000000000815260040161817d9061af93565b60405180910390fd5b8581036097600089815260200190815260200160002060008b73ffffffffffffffffffffffffffffffffffffffff1673ffffffffffffffffffffffffffffffffffffffff16815260200190815260200160002081905550856097600089815260200190815260200160002060008a73ffffffffffffffffffffffffffffffffffffffff1673ffffffffffffffffffffffffffffffffffffffff168152602001908152602001600020600082825461823d919061a62c565b925050819055508773ffffffffffffffffffffffffffffffffffffffff168973ffffffffffffffffffffffffffffffffffffffff168573ffffffffffffffffffffffffffffffffffffffff167fc3d58168c5ae7397731d063d5bbf3d657854427343f4c083240f7aacaa2d0f628a8a6040516182ba92919061ab23565b60405180910390a46182d0848a8a86868a617cf9565b6182de848a8a8a8a8a618363565b505050505050505050565b60606000600167ffffffffffffffff81111561830857618307618b2b565b5b6040519080825280602002602001820160405280156183365781602001602082028036833780820191505090505b509050828160008151811061834e5761834d619c8b565b5b60200260200101818152505080915050919050565b6183828473ffffffffffffffffffffffffffffffffffffffff16617342565b15618533578373ffffffffffffffffffffffffffffffffffffffff1663f23a6e6187878686866040518663ffffffff1660e01b81526004016183c895949392919061afb3565b6020604051808303816000875af192505050801561840457506040513d601f19601f82011682018060405250810190618401919061ac0d565b60015b6184aa5761841061ac47565b806308c379a0141561846d575061842561ac69565b80618430575061846f565b806040517f08c379a00000000000000000000000000000000000000000000000000000000081526004016184649190618911565b60405180910390fd5b505b6040517f08c379a00000000000000000000000000000000000000000000000000000000081526004016184a19061ad71565b60405180910390fd5b63f23a6e6160e01b7bffffffffffffffffffffffffffffffffffffffffffffffffffffffff1916817bffffffffffffffffffffffffffffffffffffffffffffffffffffffff191614618531576040517f08c379a00000000000000000000000000000000000000000000000000000000081526004016185289061ae03565b60405180910390fd5b505b505050505050565b8060999080519060200190618551929190618555565b5050565b82805461856190619983565b90600052602060002090601f01602090048101928261858357600085556185ca565b82601f1061859c57805160ff19168380011785556185ca565b828001600101855582156185ca579182015b828111156185c95782518255916020019190600101906185ae565b5b5090506185d79190618661565b5090565b8280546185e790619983565b90600052602060002090601f0160209004810192826186095760008555618650565b82601f1061862257803560ff1916838001178555618650565b82800160010185558215618650579182015b8281111561864f578235825591602001919060010190618634565b5b50905061865d9190618661565b5090565b5b8082111561867a576000816000905550600101618662565b5090565b6000604051905090565b600080fd5b600080fd5b600073ffffffffffffffffffffffffffffffffffffffff82169050919050565b60006186bd82618692565b9050919050565b6186cd816186b2565b81146186d857600080fd5b50565b6000813590506186ea816186c4565b92915050565b6000819050919050565b618703816186f0565b811461870e57600080fd5b50565b600081359050618720816186fa565b92915050565b6000806040838503121561873d5761873c618688565b5b600061874b858286016186db565b925050602061875c85828601618711565b9150509250929050565b61876f816186f0565b82525050565b600060208201905061878a6000830184618766565b92915050565b60007fffffffff0000000000000000000000000000000000000000000000000000000082169050919050565b6187c581618790565b81146187d057600080fd5b50565b6000813590506187e2816187bc565b92915050565b6000602082840312156187fe576187fd618688565b5b600061880c848285016187d3565b91505092915050565b60008115159050919050565b61882a81618815565b82525050565b60006020820190506188456000830184618821565b92915050565b60006020828403121561886157618860618688565b5b600061886f84828501618711565b91505092915050565b600081519050919050565b600082825260208201905092915050565b60005b838110156188b2578082015181840152602081019050618897565b838111156188c1576000848401525b50505050565b6000601f19601f8301169050919050565b60006188e382618878565b6188ed8185618883565b93506188fd818560208601618894565b618906816188c7565b840191505092915050565b6000602082019050818103600083015261892b81846188d8565b905092915050565b600080fd5b600080fd5b600080fd5b60008083601f84011261895857618957618933565b5b8235905067ffffffffffffffff81111561897557618974618938565b5b6020830191508360208202830111156189915761899061893d565b5b9250929050565b600080600080606085870312156189b2576189b1618688565b5b60006189c087828801618711565b94505060206189d187828801618711565b935050604085013567ffffffffffffffff8111156189f2576189f161868d565b5b6189fe87828801618942565b925092505092959194509250565b60008083601f840112618a2257618a21618933565b5b8235905067ffffffffffffffff811115618a3f57618a3e618938565b5b602083019150836001820283011115618a5b57618a5a61893d565b5b9250929050565b60008060008060008060006080888a031215618a8157618a80618688565b5b6000618a8f8a828b016186db565b975050602088013567ffffffffffffffff811115618ab057618aaf61868d565b5b618abc8a828b01618942565b9650965050604088013567ffffffffffffffff811115618adf57618ade61868d565b5b618aeb8a828b01618942565b9450945050606088013567ffffffffffffffff811115618b0e57618b0d61868d565b5b618b1a8a828b01618a0c565b925092505092959891949750929550565b7f4e487b7100000000000000000000000000000000000000000000000000000000600052604160045260246000fd5b618b63826188c7565b810181811067ffffffffffffffff82111715618b8257618b81618b2b565b5b80604052505050565b6000618b9561867e565b9050618ba18282618b5a565b919050565b600067ffffffffffffffff821115618bc157618bc0618b2b565b5b602082029050602081019050919050565b6000618be5618be084618ba6565b618b8b565b90508083825260208201905060208402830185811115618c0857618c0761893d565b5b835b81811015618c315780618c1d8882618711565b845260208401935050602081019050618c0a565b5050509392505050565b600082601f830112618c5057618c4f618933565b5b8135618c60848260208601618bd2565b91505092915050565b600080fd5b600067ffffffffffffffff821115618c8957618c88618b2b565b5b618c92826188c7565b9050602081019050919050565b82818337600083830152505050565b6000618cc1618cbc84618c6e565b618b8b565b905082815260208101848484011115618cdd57618cdc618c69565b5b618ce8848285618c9f565b509392505050565b600082601f830112618d0557618d04618933565b5b8135618d15848260208601618cae565b91505092915050565b600080600080600060a08688031215618d3a57618d39618688565b5b6000618d48888289016186db565b9550506020618d59888289016186db565b945050604086013567ffffffffffffffff811115618d7a57618d7961868d565b5b618d8688828901618c3b565b935050606086013567ffffffffffffffff811115618da757618da661868d565b5b618db388828901618c3b565b925050608086013567ffffffffffffffff811115618dd457618dd361868d565b5b618de088828901618cf0565b9150509295509295909350565b600067ffffffffffffffff821115618e0857618e07618b2b565b5b618e11826188c7565b9050602081019050919050565b6000618e31618e2c84618ded565b618b8b565b905082815260208101848484011115618e4d57618e4c618c69565b5b618e58848285618c9f565b509392505050565b600082601f830112618e7557618e74618933565b5b8135618e85848260208601618e1e565b91505092915050565b600080600080600060a08688031215618eaa57618ea9618688565b5b6000618eb8888289016186db565b9550506020618ec9888289016186db565b9450506040618eda888289016186db565b9350506060618eeb888289016186db565b925050608086013567ffffffffffffffff811115618f0c57618f0b61868d565b5b618f1888828901618e60565b9150509295509295909350565b600060a082019050618f3a6000830188618766565b618f476020830187618766565b618f546040830186618766565b618f616060830185618766565b618f6e6080830184618766565b9695505050505050565b618f81816186b2565b82525050565b6000602082019050618f9c6000830184618f78565b92915050565b600067ffffffffffffffff821115618fbd57618fbc618b2b565b5b602082029050602081019050919050565b6000618fe1618fdc84618fa2565b618b8b565b905080838252602082019050602084028301858111156190045761900361893d565b5b835b8181101561902d578061901988826186db565b845260208401935050602081019050619006565b5050509392505050565b600082601f83011261904c5761904b618933565b5b813561905c848260208601618fce565b91505092915050565b6000806040838503121561907c5761907b618688565b5b600083013567ffffffffffffffff81111561909a5761909961868d565b5b6190a685828601619037565b925050602083013567ffffffffffffffff8111156190c7576190c661868d565b5b6190d385828601618c3b565b9150509250929050565b600081519050919050565b600082825260208201905092915050565b6000819050602082019050919050565b619112816186f0565b82525050565b60006191248383619109565b60208301905092915050565b6000602082019050919050565b6000619148826190dd565b61915281856190e8565b935061915d836190f9565b8060005b8381101561918e5781516191758882619118565b975061918083619130565b925050600181019050619161565b5085935050505092915050565b600060208201905081810360008301526191b5818461913d565b905092915050565b60008083601f8401126191d3576191d2618933565b5b8235905067ffffffffffffffff8111156191f0576191ef618938565b5b60208301915083600182028301111561920c5761920b61893d565b5b9250929050565b6000806020838503121561922a57619229618688565b5b600083013567ffffffffffffffff8111156192485761924761868d565b5b619254858286016191bd565b92509250509250929050565b60006020828403121561927657619275618688565b5b6000619284848285016186db565b91505092915050565b60006080820190506192a26000830187618766565b6192af6020830186618766565b6192bc6040830185618766565b6192c96060830184618766565b95945050505050565b6000806000604084860312156192eb576192ea618688565b5b60006192f986828701618711565b935050602084013567ffffffffffffffff81111561931a5761931961868d565b5b619326868287016191bd565b92509250509250925092565b600063ffffffff82169050919050565b61934b81619332565b811461935657600080fd5b50565b60008135905061936881619342565b92915050565b600080600080600080600080600060e08a8c0312156193905761938f618688565b5b600061939e8c828d01619359565b99505060206193af8c828d01619359565b98505060406193c08c828d01619359565b97505060606193d18c828d01619359565b96505060806193e28c828d01618711565b95505060a08a013567ffffffffffffffff8111156194035761940261868d565b5b61940f8c828d01618942565b945094505060c08a013567ffffffffffffffff8111156194325761943161868d565b5b61943e8c828d016191bd565b92509250509295985092959850929598565b61945981618815565b811461946457600080fd5b50565b60008135905061947681619450565b92915050565b6000806040838503121561949357619492618688565b5b60006194a1858286016186db565b92505060206194b285828601619467565b9150509250929050565b60008060008060008060a087890312156194d9576194d8618688565b5b60006194e789828a016186db565b96505060206194f889828a016186db565b955050604087013567ffffffffffffffff8111156195195761951861868d565b5b61952589828a01618c3b565b945050606087013567ffffffffffffffff8111156195465761954561868d565b5b61955289828a01618c3b565b935050608087013567ffffffffffffffff8111156195735761957261868d565b5b61957f89828a01618a0c565b92509250509295509295509295565b61959781618790565b82525050565b60006020820190506195b2600083018461958e565b92915050565b6000806000606084860312156195d1576195d0618688565b5b60006195df868287016186db565b93505060206195f086828701618711565b925050604061960186828701618711565b9150509250925092565b600080600080600060a0868803121561962757619626618688565b5b600061963588828901618711565b955050602061964688828901619359565b945050604061965788828901619359565b935050606061966888828901619359565b925050608061967988828901619359565b9150509295509295909350565b6000806040838503121561969d5761969c618688565b5b60006196ab858286016186db565b92505060206196bc858286016186db565b9150509250929050565b60008060008060008060a087890312156196e3576196e2618688565b5b60006196f189828a016186db565b965050602061970289828a016186db565b955050604061971389828a01618711565b945050606061972489828a01618711565b935050608087013567ffffffffffffffff8111156197455761974461868d565b5b61975189828a01618a0c565b92509250509295509295509295565b600080600080600060a0868803121561977c5761977b618688565b5b600061978a888289016186db565b955050602061979b888289016186db565b94505060406197ac88828901618711565b93505060606197bd88828901618711565b925050608086013567ffffffffffffffff8111156197de576197dd61868d565b5b6197ea88828901618cf0565b9150509295509295909350565b60006fffffffffffffffffffffffffffffffff82169050919050565b61981c816197f7565b811461982757600080fd5b50565b60008135905061983981619813565b92915050565b60008060006060848603121561985857619857618688565b5b6000619866868287016186db565b93505060206198778682870161982a565b925050604061988886828701618711565b9150509250925092565b60006040820190506198a76000830185618766565b81810360208301526198b9818461913d565b90509392505050565b7f455243313135353a2061646472657373207a65726f206973206e6f742061207660008201527f616c6964206f776e657200000000000000000000000000000000000000000000602082015250565b600061991e602a83618883565b9150619929826198c2565b604082019050919050565b6000602082019050818103600083015261994d81619911565b9050919050565b7f4e487b7100000000000000000000000000000000000000000000000000000000600052602260045260246000fd5b6000600282049050600182168061999b57607f821691505b602082108114156199af576199ae619954565b5b50919050565b600081905092915050565b60008190508160005260206000209050919050565b600081546199e281619983565b6199ec81866199b5565b94506001821660008114619a075760018114619a1857619a4b565b60ff19831686528186019350619a4b565b619a21856199c0565b60005b83811015619a4357815481890152600182019150602081019050619a24565b838801955050505b50505092915050565b6000619a5f82618878565b619a6981856199b5565b9350619a79818560208601618894565b80840191505092915050565b6000619a9182856199d5565b9150619a9d8284619a54565b91508190509392505050565b7f546f6f6c733a2063616c6c6572206973206e6f7420616e20417274696661637460008201527f7320636f6e747261637400000000000000000000000000000000000000000000602082015250565b6000619b05602a83618883565b9150619b1082619aa9565b604082019050919050565b60006020820190508181036000830152619b3481619af8565b9050919050565b7f4e487b7100000000000000000000000000000000000000000000000000000000600052601160045260246000fd5b6000619b75826186f0565b91507fffffffffffffffffffffffffffffffffffffffffffffffffffffffffffffffff821415619ba857619ba7619b3b565b5b600182019050919050565b7f546f6f6c733a20696e76616c696420746f6f6c54797065732076616c75650000600082015250565b6000619be9601e83618883565b9150619bf482619bb3565b602082019050919050565b60006020820190508181036000830152619c1881619bdc565b9050919050565b7f546f6f6c733a20696e76616c69642061727261792073697a6500000000000000600082015250565b6000619c55601983618883565b9150619c6082619c1f565b602082019050919050565b60006020820190508181036000830152619c8481619c48565b9050919050565b7f4e487b7100000000000000000000000000000000000000000000000000000000600052603260045260246000fd5b600080fd5b6000619ccb83856190e8565b93507f07ffffffffffffffffffffffffffffffffffffffffffffffffffffffffffffff831115619cfe57619cfd619cba565b5b602083029250619d0f838584618c9f565b82840190509392505050565b6000606082019050619d306000830187618766565b619d3d6020830186618766565b8181036040830152619d50818486619cbf565b905095945050505050565b600081519050619d6a81619450565b92915050565b600060208284031215619d8657619d85618688565b5b6000619d9484828501619d5b565b91505092915050565b7f546f6f6c733a207573657220696e20626c61636b6c6973740000000000000000600082015250565b6000619dd3601883618883565b9150619dde82619d9d565b602082019050919050565b60006020820190508181036000830152619e0281619dc6565b9050919050565b7f546f6f6c733a206e6f20746f6f6c730000000000000000000000000000000000600082015250565b6000619e3f600f83618883565b9150619e4a82619e09565b602082019050919050565b60006020820190508181036000830152619e6e81619e32565b9050919050565b7f546f6f6c733a20696e76616c69642069642076616c7565000000000000000000600082015250565b6000619eab601783618883565b9150619eb682619e75565b602082019050919050565b60006020820190508181036000830152619eda81619e9e565b9050919050565b7f546f6f6c733a20746f6b656e496420697320756e697175650000000000000000600082015250565b6000619f17601883618883565b9150619f2282619ee1565b602082019050919050565b60006020820190508181036000830152619f4681619f0a565b9050919050565b7f496e697469616c697a61626c653a20636f6e747261637420697320616c72656160008201527f647920696e697469616c697a6564000000000000000000000000000000000000602082015250565b6000619fa9602e83618883565b9150619fb482619f4d565b604082019050919050565b60006020820190508181036000830152619fd881619f9c565b9050919050565b6000819050919050565b600060ff82169050919050565b6000819050919050565b600061a01b61a01661a01184619fdf565b619ff6565b619fe9565b9050919050565b61a02b8161a000565b82525050565b600060208201905061a046600083018461a022565b92915050565b7f546f6f6c733a20746f6f6c20646f6573206e6f74206578697374000000000000600082015250565b600061a082601a83618883565b915061a08d8261a04c565b602082019050919050565b6000602082019050818103600083015261a0b18161a075565b9050919050565b600061a0c3826197f7565b915061a0ce836197f7565b92508282101561a0e15761a0e0619b3b565b5b828203905092915050565b7f4e487b7100000000000000000000000000000000000000000000000000000000600052601260045260246000fd5b600061a126826197f7565b915061a131836197f7565b92508261a1415761a14061a0ec565b5b828204905092915050565b7f546f6f6c733a2074686520746f6f6c20697320616c7265616479207374726f6e60008201527f6720656e6f756768000000000000000000000000000000000000000000000000602082015250565b600061a1a8602883618883565b915061a1b38261a14c565b604082019050919050565b6000602082019050818103600083015261a1d78161a19b565b9050919050565b600060608201905061a1f36000830186618f78565b61a2006020830185618f78565b61a20d6040830184618766565b949350505050565b7f455243313135353a206163636f756e747320616e6420696473206c656e67746860008201527f206d69736d617463680000000000000000000000000000000000000000000000602082015250565b600061a271602983618883565b915061a27c8261a215565b604082019050919050565b6000602082019050818103600083015261a2a08161a264565b9050919050565b600061a2b282619332565b915061a2bd83619332565b92508261a2cd5761a2cc61a0ec565b5b828206905092915050565b7f546f6f6c733a20696e76616c696420737472656e6774682076616c7565000000600082015250565b600061a30e601d83618883565b915061a3198261a2d8565b602082019050919050565b6000602082019050818103600083015261a33d8161a301565b9050919050565b7f546f6f6c733a206d696e696e67206475726174696f6e206d757374206265206760008201527f72656174686572207468616e207a65726f000000000000000000000000000000602082015250565b600061a3a0603183618883565b915061a3ab8261a344565b604082019050919050565b6000602082019050818103600083015261a3cf8161a393565b9050919050565b7f546f6f6c733a20696e76616c6964206164647265737300000000000000000000600082015250565b600061a40c601683618883565b915061a4178261a3d6565b602082019050919050565b6000602082019050818103600083015261a43b8161a3ff565b9050919050565b7f546f6f6c733a206d73672e73656e6465722069736e2774204d696e696e67206360008201527f6f6e747261637400000000000000000000000000000000000000000000000000602082015250565b600061a49e602783618883565b915061a4a98261a442565b604082019050919050565b6000602082019050818103600083015261a4cd8161a491565b9050919050565b7f546f6f6c733a20746f6f6c20646f65736e277420657869737400000000000000600082015250565b600061a50a601983618883565b915061a5158261a4d4565b602082019050919050565b6000602082019050818103600083015261a5398161a4fd565b9050919050565b7f4f776e61626c653a206e6577206f776e657220697320746865207a65726f206160008201527f6464726573730000000000000000000000000000000000000000000000000000602082015250565b600061a59c602683618883565b915061a5a78261a540565b604082019050919050565b6000602082019050818103600083015261a5cb8161a58f565b9050919050565b600061a5dd826186f0565b915061a5e8836186f0565b9250817fffffffffffffffffffffffffffffffffffffffffffffffffffffffffffffffff048311821515161561a6215761a620619b3b565b5b828202905092915050565b600061a637826186f0565b915061a642836186f0565b9250827fffffffffffffffffffffffffffffffffffffffffffffffffffffffffffffffff0382111561a6775761a676619b3b565b5b828201905092915050565b600082825260208201905092915050565b50565b600061a6a360008361a682565b915061a6ae8261a693565b600082019050919050565b600060a08201905061a6ce6000830187618f78565b61a6db6020830186618f78565b61a6e86040830185618766565b61a6f56060830184618766565b818103608083015261a7068161a696565b905095945050505050565b600060408201905061a7266000830185618f78565b61a7336020830184618766565b9392505050565b7f4f776e61626c653a2063616c6c6572206973206e6f7420746865206f776e6572600082015250565b600061a770602083618883565b915061a77b8261a73a565b602082019050919050565b6000602082019050818103600083015261a79f8161a763565b9050919050565b7f455243313135353a206d696e7420746f20746865207a65726f2061646472657360008201527f7300000000000000000000000000000000000000000000000000000000000000602082015250565b600061a802602183618883565b915061a80d8261a7a6565b604082019050919050565b6000602082019050818103600083015261a8318161a7f5565b9050919050565b7f455243313135353a2069647320616e6420616d6f756e7473206c656e6774682060008201527f6d69736d61746368000000000000000000000000000000000000000000000000602082015250565b600061a894602883618883565b915061a89f8261a838565b604082019050919050565b6000602082019050818103600083015261a8c38161a887565b9050919050565b6000604082019050818103600083015261a8e4818561913d565b9050818103602083015261a8f8818461913d565b90509392505050565b7f496e697469616c697a61626c653a20636f6e7472616374206973206e6f74206960008201527f6e697469616c697a696e67000000000000000000000000000000000000000000602082015250565b600061a95d602b83618883565b915061a9688261a901565b604082019050919050565b6000602082019050818103600083015261a98c8161a950565b9050919050565b7f5061757361626c653a2070617573656400000000000000000000000000000000600082015250565b600061a9c9601083618883565b915061a9d48261a993565b602082019050919050565b6000602082019050818103600083015261a9f88161a9bc565b9050919050565b7f455243313135353a2073657474696e6720617070726f76616c2073746174757360008201527f20666f722073656c660000000000000000000000000000000000000000000000602082015250565b600061aa5b602983618883565b915061aa668261a9ff565b604082019050919050565b6000602082019050818103600083015261aa8a8161aa4e565b9050919050565b7f455243313135353a2063616c6c6572206973206e6f7420746f6b656e206f776e60008201527f6572206e6f7220617070726f7665640000000000000000000000000000000000602082015250565b600061aaed602f83618883565b915061aaf88261aa91565b604082019050919050565b6000602082019050818103600083015261ab1c8161aae0565b9050919050565b600060408201905061ab386000830185618766565b61ab456020830184618766565b9392505050565b600081519050919050565b600061ab628261ab4c565b61ab6c818561a682565b935061ab7c818560208601618894565b61ab85816188c7565b840191505092915050565b600060a08201905061aba56000830188618f78565b61abb26020830187618f78565b818103604083015261abc4818661913d565b9050818103606083015261abd8818561913d565b9050818103608083015261abec818461ab57565b90509695505050505050565b60008151905061ac07816187bc565b92915050565b60006020828403121561ac235761ac22618688565b5b600061ac318482850161abf8565b91505092915050565b60008160e01c9050919050565b600060033d111561ac665760046000803e61ac6360005161ac3a565b90505b90565b600060443d101561ac795761acfc565b61ac8161867e565b60043d036004823e80513d602482011167ffffffffffffffff8211171561aca957505061acfc565b808201805167ffffffffffffffff81111561acc7575050505061acfc565b80602083010160043d03850181111561ace457505050505061acfc565b61acf382602001850186618b5a565b82955050505050505b90565b7f455243313135353a207472616e7366657220746f206e6f6e204552433131353560008201527f526563656976657220696d706c656d656e746572000000000000000000000000602082015250565b600061ad5b603483618883565b915061ad668261acff565b604082019050919050565b6000602082019050818103600083015261ad8a8161ad4e565b9050919050565b7f455243313135353a204552433131353552656365697665722072656a6563746560008201527f6420746f6b656e73000000000000000000000000000000000000000000000000602082015250565b600061aded602883618883565b915061adf88261ad91565b604082019050919050565b6000602082019050818103600083015261ae1c8161ade0565b9050919050565b7f5061757361626c653a206e6f7420706175736564000000000000000000000000600082015250565b600061ae59601483618883565b915061ae648261ae23565b602082019050919050565b6000602082019050818103600083015261ae888161ae4c565b9050919050565b7f455243313135353a207472616e7366657220746f20746865207a65726f20616460008201527f6472657373000000000000000000000000000000000000000000000000000000602082015250565b600061aeeb602583618883565b915061aef68261ae8f565b604082019050919050565b6000602082019050818103600083015261af1a8161aede565b9050919050565b7f455243313135353a20696e73756666696369656e742062616c616e636520666f60008201527f72207472616e7366657200000000000000000000000000000000000000000000602082015250565b600061af7d602a83618883565b915061af888261af21565b604082019050919050565b6000602082019050818103600083015261afac8161af70565b9050919050565b600060a08201905061afc86000830188618f78565b61afd56020830187618f78565b61afe26040830186618766565b61afef6060830185618766565b818103608083015261b001818461ab57565b9050969550505050505056fea2646970667358221220319a39fcea7a8492e9de478ed6268b2776bee1a8f661a67810726e6dff2526d364736f6c634300080c0033",
  "linkReferences": {},
  "deployedLinkReferences": {}
}