{
  "_format": "hh-sol-artifact-1",
  "contractName": "Tools",
  "sourceName": "contracts/Tools.sol",
  "abi": [
    {
      "anonymous": false,
      "inputs": [
        {
          "indexed": false,
          "internalType": "uint256",
          "name": "toolType",
          "type": "uint256"
        }
      ],
      "name": "AddTool",
      "type": "event"
    },
    {
      "anonymous": false,
      "inputs": [
        {
          "indexed": true,
          "internalType": "address",
          "name": "account",
          "type": "address"
        },
        {
          "indexed": true,
          "internalType": "address",
          "name": "operator",
          "type": "address"
        },
        {
          "indexed": false,
          "internalType": "bool",
          "name": "approved",
          "type": "bool"
        }
      ],
      "name": "ApprovalForAll",
      "type": "event"
    },
    {
      "anonymous": false,
      "inputs": [
        {
          "indexed": false,
          "internalType": "string",
          "name": "baseURI",
          "type": "string"
        }
      ],
      "name": "BaseURI",
      "type": "event"
    },
    {
      "anonymous": false,
      "inputs": [
        {
          "indexed": false,
          "internalType": "address",
          "name": "user",
          "type": "address"
        },
        {
          "indexed": false,
          "internalType": "uint256",
          "name": "",
          "type": "uint256"
        }
      ],
      "name": "Craft",
      "type": "event"
    },
    {
      "anonymous": false,
      "inputs": [
        {
          "indexed": false,
          "internalType": "uint256",
          "name": "recipeId",
          "type": "uint256"
        }
      ],
      "name": "CreateRecipe",
      "type": "event"
    },
    {
      "anonymous": false,
      "inputs": [
        {
          "indexed": false,
          "internalType": "uint8",
          "name": "version",
          "type": "uint8"
        }
      ],
      "name": "Initialized",
      "type": "event"
    },
    {
      "anonymous": false,
      "inputs": [
        {
          "indexed": true,
          "internalType": "address",
          "name": "previousOwner",
          "type": "address"
        },
        {
          "indexed": true,
          "internalType": "address",
          "name": "newOwner",
          "type": "address"
        }
      ],
      "name": "OwnershipTransferred",
      "type": "event"
    },
    {
      "anonymous": false,
      "inputs": [
        {
          "indexed": false,
          "internalType": "address",
          "name": "account",
          "type": "address"
        }
      ],
      "name": "Paused",
      "type": "event"
    },
    {
      "anonymous": false,
      "inputs": [
        {
          "indexed": true,
          "internalType": "address",
          "name": "operator",
          "type": "address"
        },
        {
          "indexed": true,
          "internalType": "address",
          "name": "from",
          "type": "address"
        },
        {
          "indexed": true,
          "internalType": "address",
          "name": "to",
          "type": "address"
        },
        {
          "indexed": false,
          "internalType": "uint256[]",
          "name": "ids",
          "type": "uint256[]"
        },
        {
          "indexed": false,
          "internalType": "uint256[]",
          "name": "values",
          "type": "uint256[]"
        }
      ],
      "name": "TransferBatch",
      "type": "event"
    },
    {
      "anonymous": false,
      "inputs": [
        {
          "indexed": true,
          "internalType": "address",
          "name": "operator",
          "type": "address"
        },
        {
          "indexed": true,
          "internalType": "address",
          "name": "from",
          "type": "address"
        },
        {
          "indexed": true,
          "internalType": "address",
          "name": "to",
          "type": "address"
        },
        {
          "indexed": false,
          "internalType": "uint256",
          "name": "id",
          "type": "uint256"
        },
        {
          "indexed": false,
          "internalType": "uint256",
          "name": "value",
          "type": "uint256"
        }
      ],
      "name": "TransferSingle",
      "type": "event"
    },
    {
      "anonymous": false,
      "inputs": [
        {
          "indexed": false,
          "internalType": "string",
          "name": "value",
          "type": "string"
        },
        {
          "indexed": true,
          "internalType": "uint256",
          "name": "id",
          "type": "uint256"
        }
      ],
      "name": "URI",
      "type": "event"
    },
    {
      "anonymous": false,
      "inputs": [
        {
          "indexed": false,
          "internalType": "address",
          "name": "account",
          "type": "address"
        }
      ],
      "name": "Unpaused",
      "type": "event"
    },
    {
      "inputs": [
        {
          "internalType": "uint32",
          "name": "miningResource",
          "type": "uint32"
        },
        {
          "internalType": "uint32",
          "name": "maxStrength",
          "type": "uint32"
        },
        {
          "internalType": "uint32",
          "name": "miningDuration",
          "type": "uint32"
        },
        {
          "internalType": "uint32",
          "name": "energyCost",
          "type": "uint32"
        },
        {
          "internalType": "uint32",
          "name": "strengthCost",
          "type": "uint32"
        },
        {
          "internalType": "uint32",
          "name": "rewardRate",
          "type": "uint32"
        }
      ],
      "name": "addTool",
      "outputs": [
        {
          "internalType": "uint256",
          "name": "",
          "type": "uint256"
        }
      ],
      "stateMutability": "nonpayable",
      "type": "function"
    },
    {
      "inputs": [
        {
          "internalType": "address",
          "name": "account",
          "type": "address"
        },
        {
          "internalType": "uint256",
          "name": "id",
          "type": "uint256"
        }
      ],
      "name": "balanceOf",
      "outputs": [
        {
          "internalType": "uint256",
          "name": "",
          "type": "uint256"
        }
      ],
      "stateMutability": "view",
      "type": "function"
    },
    {
      "inputs": [
        {
          "internalType": "address[]",
          "name": "accounts",
          "type": "address[]"
        },
        {
          "internalType": "uint256[]",
          "name": "ids",
          "type": "uint256[]"
        }
      ],
      "name": "balanceOfBatch",
      "outputs": [
        {
          "internalType": "uint256[]",
          "name": "",
          "type": "uint256[]"
        }
      ],
      "stateMutability": "view",
      "type": "function"
    },
    {
      "inputs": [
        {
          "internalType": "address",
          "name": "user",
          "type": "address"
        },
        {
          "internalType": "uint256",
          "name": "toolId",
          "type": "uint256"
        },
        {
          "internalType": "uint256",
          "name": "strengthCost",
          "type": "uint256"
        }
      ],
      "name": "corrupt",
      "outputs": [],
      "stateMutability": "nonpayable",
      "type": "function"
    },
    {
      "inputs": [
        {
          "internalType": "uint256",
          "name": "toolType",
          "type": "uint256"
        }
      ],
      "name": "craft",
      "outputs": [],
      "stateMutability": "nonpayable",
      "type": "function"
    },
    {
      "inputs": [
        {
          "internalType": "uint256",
          "name": "toolType",
          "type": "uint256"
        },
        {
          "internalType": "uint256[]",
          "name": "resourcesAmount",
          "type": "uint256[]"
        },
        {
          "internalType": "uint256[]",
          "name": "artifactsAmount",
          "type": "uint256[]"
        }
      ],
      "name": "createRecipe",
      "outputs": [],
      "stateMutability": "nonpayable",
      "type": "function"
    },
    {
      "inputs": [],
      "name": "getArtifactAmount",
      "outputs": [
        {
          "internalType": "uint256",
          "name": "",
          "type": "uint256"
        }
      ],
      "stateMutability": "view",
      "type": "function"
    },
    {
      "inputs": [],
      "name": "getArtifactsAddress",
      "outputs": [
        {
          "internalType": "address",
          "name": "",
          "type": "address"
        }
      ],
      "stateMutability": "view",
      "type": "function"
    },
    {
      "inputs": [],
      "name": "getMiningAddress",
      "outputs": [
        {
          "internalType": "address",
          "name": "",
          "type": "address"
        }
      ],
      "stateMutability": "view",
      "type": "function"
    },
    {
      "inputs": [
        {
          "internalType": "uint256",
          "name": "recipeId",
          "type": "uint256"
        }
      ],
      "name": "getRecipe",
      "outputs": [
        {
          "internalType": "uint256",
          "name": "toolType",
          "type": "uint256"
        },
        {
          "internalType": "uint256[]",
          "name": "resourcesAmount",
          "type": "uint256[]"
        },
        {
          "internalType": "uint256[]",
          "name": "artifactsAmount",
          "type": "uint256[]"
        }
      ],
      "stateMutability": "view",
      "type": "function"
    },
    {
      "inputs": [],
      "name": "getRecipieAmount",
      "outputs": [
        {
          "internalType": "uint256",
          "name": "",
          "type": "uint256"
        }
      ],
      "stateMutability": "view",
      "type": "function"
    },
    {
      "inputs": [],
      "name": "getRepairCost",
      "outputs": [
        {
          "internalType": "uint256[]",
          "name": "resourcesAmount",
          "type": "uint256[]"
        }
      ],
      "stateMutability": "view",
      "type": "function"
    },
    {
      "inputs": [
        {
          "internalType": "uint256",
          "name": "resourceId",
          "type": "uint256"
        }
      ],
      "name": "getResourceAddress",
      "outputs": [
        {
          "internalType": "address",
          "name": "",
          "type": "address"
        }
      ],
      "stateMutability": "view",
      "type": "function"
    },
    {
      "inputs": [],
      "name": "getResourceAmount",
      "outputs": [
        {
          "internalType": "uint256",
          "name": "",
          "type": "uint256"
        }
      ],
      "stateMutability": "view",
      "type": "function"
    },
    {
      "inputs": [
        {
          "internalType": "uint256",
          "name": "toolId",
          "type": "uint256"
        }
      ],
      "name": "getStrength",
      "outputs": [
        {
          "internalType": "uint256",
          "name": "",
          "type": "uint256"
        }
      ],
      "stateMutability": "view",
      "type": "function"
    },
    {
      "inputs": [
        {
          "internalType": "address",
          "name": "user",
          "type": "address"
        },
        {
          "internalType": "uint256",
          "name": "toolId",
          "type": "uint256"
        }
      ],
      "name": "getToolProperties",
      "outputs": [
        {
          "internalType": "uint256",
          "name": "toolType",
          "type": "uint256"
        },
        {
          "internalType": "uint256",
          "name": "strength",
          "type": "uint256"
        },
        {
          "internalType": "uint256",
          "name": "strengthCost",
          "type": "uint256"
        },
        {
          "internalType": "uint256",
          "name": "miningResource",
          "type": "uint256"
        },
        {
          "internalType": "uint256",
          "name": "miningDuration",
          "type": "uint256"
        },
        {
          "internalType": "uint256",
          "name": "energyCost",
          "type": "uint256"
        },
        {
          "internalType": "uint256",
          "name": "rewardRate",
          "type": "uint256"
        }
      ],
      "stateMutability": "view",
      "type": "function"
    },
    {
      "inputs": [],
      "name": "increaseArtifactAmount",
      "outputs": [],
      "stateMutability": "nonpayable",
      "type": "function"
    },
    {
      "inputs": [
        {
          "internalType": "address",
          "name": "newResource",
          "type": "address"
        }
      ],
      "name": "increaseResourceAmount",
      "outputs": [],
      "stateMutability": "nonpayable",
      "type": "function"
    },
    {
      "inputs": [
        {
          "internalType": "address",
          "name": "blacklistAddress",
          "type": "address"
        },
        {
          "internalType": "address",
          "name": "berryAddress",
          "type": "address"
        },
        {
          "internalType": "address",
          "name": "treeAddress",
          "type": "address"
        },
        {
          "internalType": "address",
          "name": "goldAddress",
          "type": "address"
        },
        {
          "internalType": "string",
          "name": "baseURI",
          "type": "string"
        }
      ],
      "name": "initialize",
      "outputs": [],
      "stateMutability": "nonpayable",
      "type": "function"
    },
    {
      "inputs": [
        {
          "internalType": "address",
          "name": "account",
          "type": "address"
        },
        {
          "internalType": "address",
          "name": "operator",
          "type": "address"
        }
      ],
      "name": "isApprovedForAll",
      "outputs": [
        {
          "internalType": "bool",
          "name": "",
          "type": "bool"
        }
      ],
      "stateMutability": "view",
      "type": "function"
    },
    {
      "inputs": [
        {
          "internalType": "address",
          "name": "account",
          "type": "address"
        },
        {
          "internalType": "uint128",
          "name": "toolType",
          "type": "uint128"
        },
        {
          "internalType": "uint256",
          "name": "amount",
          "type": "uint256"
        }
      ],
      "name": "mint",
      "outputs": [],
      "stateMutability": "nonpayable",
      "type": "function"
    },
    {
      "inputs": [
        {
          "internalType": "address",
          "name": "to",
          "type": "address"
        },
        {
          "internalType": "uint256[]",
          "name": "toolTypes",
          "type": "uint256[]"
        },
        {
          "internalType": "uint256[]",
          "name": "amounts",
          "type": "uint256[]"
        },
        {
          "internalType": "bytes",
          "name": "data",
          "type": "bytes"
        }
      ],
      "name": "mintBatch",
      "outputs": [],
      "stateMutability": "nonpayable",
      "type": "function"
    },
    {
      "inputs": [
        {
          "internalType": "address",
          "name": "operator",
          "type": "address"
        },
        {
          "internalType": "address",
          "name": "from",
          "type": "address"
        },
        {
          "internalType": "uint256[]",
          "name": "ids",
          "type": "uint256[]"
        },
        {
          "internalType": "uint256[]",
          "name": "values",
          "type": "uint256[]"
        },
        {
          "internalType": "bytes",
          "name": "data",
          "type": "bytes"
        }
      ],
      "name": "onERC1155BatchReceived",
      "outputs": [
        {
          "internalType": "bytes4",
          "name": "",
          "type": "bytes4"
        }
      ],
      "stateMutability": "pure",
      "type": "function"
    },
    {
      "inputs": [
        {
          "internalType": "address",
          "name": "operator",
          "type": "address"
        },
        {
          "internalType": "address",
          "name": "from",
          "type": "address"
        },
        {
          "internalType": "uint256",
          "name": "id",
          "type": "uint256"
        },
        {
          "internalType": "uint256",
          "name": "value",
          "type": "uint256"
        },
        {
          "internalType": "bytes",
          "name": "data",
          "type": "bytes"
        }
      ],
      "name": "onERC1155Received",
      "outputs": [
        {
          "internalType": "bytes4",
          "name": "",
          "type": "bytes4"
        }
      ],
      "stateMutability": "pure",
      "type": "function"
    },
    {
      "inputs": [],
      "name": "owner",
      "outputs": [
        {
          "internalType": "address",
          "name": "",
          "type": "address"
        }
      ],
      "stateMutability": "view",
      "type": "function"
    },
    {
      "inputs": [],
      "name": "pause",
      "outputs": [],
      "stateMutability": "nonpayable",
      "type": "function"
    },
    {
      "inputs": [],
      "name": "paused",
      "outputs": [
        {
          "internalType": "bool",
          "name": "",
          "type": "bool"
        }
      ],
      "stateMutability": "view",
      "type": "function"
    },
    {
      "inputs": [],
      "name": "renounceOwnership",
      "outputs": [],
      "stateMutability": "nonpayable",
      "type": "function"
    },
    {
      "inputs": [
        {
          "internalType": "uint256",
          "name": "toolId",
          "type": "uint256"
        },
        {
          "internalType": "uint256",
          "name": "repairValue",
          "type": "uint256"
        }
      ],
      "name": "repairTool",
      "outputs": [],
      "stateMutability": "nonpayable",
      "type": "function"
    },
    {
      "inputs": [
        {
          "internalType": "address",
          "name": "from",
          "type": "address"
        },
        {
          "internalType": "address",
          "name": "to",
          "type": "address"
        },
        {
          "internalType": "uint256[]",
          "name": "toolTypes",
          "type": "uint256[]"
        },
        {
          "internalType": "uint256[]",
          "name": "amounts",
          "type": "uint256[]"
        },
        {
          "internalType": "bytes",
          "name": "data",
          "type": "bytes"
        }
      ],
      "name": "safeBatchTransferFrom",
      "outputs": [],
      "stateMutability": "nonpayable",
      "type": "function"
    },
    {
      "inputs": [
        {
          "internalType": "address",
          "name": "from",
          "type": "address"
        },
        {
          "internalType": "address",
          "name": "to",
          "type": "address"
        },
        {
          "internalType": "uint256",
          "name": "toolId",
          "type": "uint256"
        },
        {
          "internalType": "uint256",
          "name": "amount",
          "type": "uint256"
        },
        {
          "internalType": "bytes",
          "name": "data",
          "type": "bytes"
        }
      ],
      "name": "safeTransferFrom",
      "outputs": [],
      "stateMutability": "nonpayable",
      "type": "function"
    },
    {
      "inputs": [
        {
          "internalType": "address",
          "name": "operator",
          "type": "address"
        },
        {
          "internalType": "bool",
          "name": "approved",
          "type": "bool"
        }
      ],
      "name": "setApprovalForAll",
      "outputs": [],
      "stateMutability": "nonpayable",
      "type": "function"
    },
    {
      "inputs": [
        {
          "internalType": "address",
          "name": "artifactsAddress",
          "type": "address"
        }
      ],
      "name": "setArtifactsAddress",
      "outputs": [],
      "stateMutability": "nonpayable",
      "type": "function"
    },
    {
      "inputs": [
        {
          "internalType": "string",
          "name": "baseURI",
          "type": "string"
        }
      ],
      "name": "setBaseURI",
      "outputs": [],
      "stateMutability": "nonpayable",
      "type": "function"
    },
    {
      "inputs": [
        {
          "internalType": "address",
          "name": "miningAddress",
          "type": "address"
        }
      ],
      "name": "setMiningAddress",
      "outputs": [],
      "stateMutability": "nonpayable",
      "type": "function"
    },
    {
      "inputs": [
        {
          "internalType": "uint256[]",
          "name": "resourcesAmount",
          "type": "uint256[]"
        }
      ],
      "name": "setRepairCost",
      "outputs": [],
      "stateMutability": "nonpayable",
      "type": "function"
    },
    {
      "inputs": [
        {
          "internalType": "uint256",
          "name": "toolType",
          "type": "uint256"
        },
        {
          "internalType": "string",
          "name": "newURI",
          "type": "string"
        }
      ],
      "name": "setURI",
      "outputs": [],
      "stateMutability": "nonpayable",
      "type": "function"
    },
    {
      "inputs": [
        {
          "internalType": "bytes4",
          "name": "interfaceId",
          "type": "bytes4"
        }
      ],
      "name": "supportsInterface",
      "outputs": [
        {
          "internalType": "bool",
          "name": "",
          "type": "bool"
        }
      ],
      "stateMutability": "view",
      "type": "function"
    },
    {
      "inputs": [
        {
          "internalType": "address",
          "name": "newOwner",
          "type": "address"
        }
      ],
      "name": "transferOwnership",
      "outputs": [],
      "stateMutability": "nonpayable",
      "type": "function"
    },
    {
      "inputs": [
        {
          "internalType": "uint256",
          "name": "toolType",
          "type": "uint256"
        }
      ],
      "name": "uri",
      "outputs": [
        {
          "internalType": "string",
          "name": "",
          "type": "string"
        }
      ],
      "stateMutability": "view",
      "type": "function"
    }
  ],
  "bytecode": "0x608060405234801561001057600080fd5b5061419b806100206000396000f3fe608060405234801561001057600080fd5b50600436106102475760003560e01c8063862440e21161013b578063e53fbda6116100b8578063f242432a1161007c578063f242432a1461065e578063f2fde38b14610671578063f3917bd214610684578063f6e384e414610697578063f8d12a41146106aa57600080fd5b8063e53fbda614610593578063e7fa2e6c146105cf578063e985e9c5146105d8578063ee100cd614610614578063f23a6e611461062557600080fd5b8063aa1b775a116100ff578063aa1b775a146104f5578063aa48fbf514610508578063bc197c811461051b578063c443b2bb1461056d578063e30d34a71461058057600080fd5b8063862440e2146104a35780638da5cb5b146104b65780638e8a922e146104c7578063a1ea56bd146104da578063a22cb465146104e257600080fd5b80632fb3b361116101c95780635c975abb1161018d5780635c975abb1461044b578063715018a61461045657806377a2ec4d1461045e5780637ae1f137146104715780638456cb591461049b57600080fd5b80632fb3b3611461031d5780633dfc8f211461033057806343cac2b1146103f35780634e1273f41461041857806355f804b31461043857600080fd5b80631184b2c6116102105780631184b2c6146102c85780631704a1e1146102db5780631f7fdffa146102e457806320767f2c146102f75780632eb2c2d61461030a57600080fd5b8062fdd58e1461024c57806301ffc9a7146102725780630e89341c146102955780630ebb956d146102b5578063111a5f84146102bf575b600080fd5b61025f61025a366004613255565b6106cc565b6040519081526020015b60405180910390f35b610285610280366004613295565b610764565b6040519015158152602001610269565b6102a86102a33660046132b2565b6107c5565b6040516102699190613327565b6102bd6108a6565b005b6101015461025f565b61025f6102d636600461334e565b6108c6565b6101025461025f565b6102bd6102f236600461344e565b610ba9565b6102bd6103053660046134f8565b610ed4565b6102bd61031836600461366d565b6111e9565b6102bd61032b366004613716565b61124e565b6103be61033e366004613255565b6001600160a01b0391909116600090815261010960209081526040808320938352928152828220546001600160801b0380821680855261010790935293909220549093600160801b928390049093169263ffffffff640100000000830481169381841693600160601b8104831693918104831692600160c01b9091041690565b604080519788526020880196909652948601939093526060850191909152608084015260a083015260c082015260e001610269565b60fe546001600160a01b03165b6040516001600160a01b039091168152602001610269565b61042b61042636600461379c565b61145a565b60405161026991906138a1565b6102bd6104463660046138b4565b611583565b60c95460ff16610285565b6102bd611599565b6102bd61046c3660046138f5565b6115ad565b61040061047f3660046132b2565b600090815261010460205260409020546001600160a01b031690565b6102bd6115d7565b6102bd6104b1366004613910565b6115f9565b6033546001600160a01b0316610400565b6102bd6104d536600461395b565b611611565b61042b611837565b6102bd6104f03660046139e2565b6118c1565b6102bd6105033660046138f5565b6118cc565b6102bd6105163660046138f5565b61196c565b610554610529366004613a19565b7fbc197c819b3e337a6f9652dd10becd7eef83032af3b9d958d3d42f66941466219695505050505050565b6040516001600160e01b03199091168152602001610269565b6102bd61057b366004613ac8565b611996565b6102bd61058e366004613b04565b611a6d565b61025f6105a13660046132b2565b336000908152610109602090815260408083209383529290522054600160801b90046001600160801b031690565b6101035461025f565b6102856105e6366004613b37565b6001600160a01b03918216600090815260986020908152604080832093909416825291909152205460ff1690565b60fc546001600160a01b0316610400565b610554610633366004613b6a565b7ff23a6e612e1ff4830e658fe43f4e3cb4a5f8170bd5d9e69fb5d7a7fa9e4fdf979695505050505050565b6102bd61066c366004613bcf565b611b2f565b6102bd61067f3660046138f5565b611c7c565b6102bd6106923660046132b2565b611cf5565b6102bd6106a5366004613c33565b6120ba565b6106bd6106b83660046132b2565b6122b3565b60405161026993929190613c7e565b60006001600160a01b03831661073c5760405162461bcd60e51b815260206004820152602a60248201527f455243313135353a2061646472657373207a65726f206973206e6f742061207660448201526930b634b21037bbb732b960b11b60648201526084015b60405180910390fd5b5060009081526097602090815260408083206001600160a01b03949094168352929052205490565b60006001600160e01b03198216636cdb3d1360e11b148061079557506001600160e01b031982166301ffc9a760e01b145b806107b057506001600160e01b031982166301ffc9a760e01b145b806107bf57506107bf826124c0565b92915050565b600081815261010660205260408120805460609291906107e490613cb3565b80601f016020809104026020016040519081016040528092919081815260200182805461081090613cb3565b801561085d5780601f106108325761010080835404028352916020019161085d565b820191906000526020600020905b81548152906001019060200180831161084057829003601f168201915b50505050509050600081511161087b5761087683612510565b61089f565b60fd8160405160200161088f929190613d0a565b6040516020818303038152906040525b9392505050565b6108ae6125a4565b61010180549060006108bf83613dc7565b9190505550565b60006108d06125a4565b610103548763ffffffff1611156109355760405162461bcd60e51b8152602060048201526024808201527f546f6f6c733a20696e76616c6964206d696e696e67207265736f757263652076604482015263616c756560e01b6064820152608401610733565b610940600587613de2565b63ffffffff16156109935760405162461bcd60e51b815260206004820152601d60248201527f546f6f6c733a20696e76616c696420737472656e6774682076616c75650000006044820152606401610733565b60008563ffffffff1611610a035760405162461bcd60e51b815260206004820152603160248201527f546f6f6c733a206d696e696e67206475726174696f6e206d757374206265206760448201527072656174686572207468616e207a65726f60781b6064820152608401610733565b6101008054906000610a1483613dc7565b9190505550600061010054905087610107600083815260200190815260200160002060000160006101000a81548163ffffffff021916908363ffffffff16021790555086610107600083815260200190815260200160002060000160086101000a81548163ffffffff021916908363ffffffff160217905550856101076000838152602001908152602001600020600001600c6101000a81548163ffffffff021916908363ffffffff16021790555084610107600083815260200190815260200160002060000160106101000a81548163ffffffff021916908363ffffffff16021790555083610107600083815260200190815260200160002060000160046101000a81548163ffffffff021916908363ffffffff16021790555082610107600083815260200190815260200160002060000160186101000a81548163ffffffff021916908363ffffffff1602179055507f7296f5fa391687be022b0baddb2ec8adabc082c89fa302b5acd49b08bd9e461581604051610b9691815260200190565b60405180910390a1979650505050505050565b610bb16125a4565b60fb54604051631846d2f560e31b81526001600160a01b03808a1660048301528992169063c23697a8906024016020604051808303816000875af1158015610bfd573d6000803e3d6000fd5b505050506040513d601f19601f82011682018060405250810190610c219190613e13565b15610c3e5760405162461bcd60e51b815260040161073390613e30565b61010054610c805760405162461bcd60e51b815260206004820152600f60248201526e546f6f6c733a206e6f20746f6f6c7360881b6044820152606401610733565b60005b86811015610d025761010054888883818110610ca157610ca1613e67565b905060200201351115610cf05760405162461bcd60e51b8152602060048201526017602482015276546f6f6c733a20696e76616c69642069642076616c756560481b6044820152606401610733565b80610cfa81613dc7565b915050610c83565b50610da58888888080602002602001604051908101604052809392919081815260200183836020028082843760009201919091525050604080516020808c0282810182019093528b82529093508b92508a91829185019084908082843760009201919091525050604080516020601f8b0181900481028201810190925289815292508991508890819084018382808284376000920191909152506125fe92505050565b60005b86811015610ec95760005b85811015610eb65760ff8054906000610dcb83613dc7565b9190505550888883818110610de257610de2613e67565b6001600160a01b038d1660009081526101096020908152604080832060ff5484528252822080546001600160801b0319169390910294909401356001600160801b03169190911790925550610107908a8a85818110610e4357610e43613e67565b602090810292909201358352508181019290925260409081016000908120546001600160a01b038e168252610109845282822060ff5483529093522080546001600160801b0316600160401b90920463ffffffff16600160801b0291909117905580610eae81613dc7565b915050610db3565b5080610ec181613dc7565b915050610da8565b505050505050505050565b610edc61278b565b3360fb54604051631846d2f560e31b81526001600160a01b0383811660048301529091169063c23697a8906024016020604051808303816000875af1158015610f29573d6000803e3d6000fd5b505050506040513d601f19601f82011682018060405250810190610f4d9190613e13565b15610f6a5760405162461bcd60e51b815260040161073390613e30565b336000908152610109602090815260408083208684529091529020546001600160801b0316610fdb5760405162461bcd60e51b815260206004820152601a60248201527f546f6f6c733a20746f6f6c20646f6573206e6f742065786973740000000000006044820152606401610733565b33600090815261010960209081526040808320868452808352818420546001600160801b038082168652610107855292852054948890529252600160401b90920463ffffffff1691611037918591600160801b90910416613e7d565b11156110965760405162461bcd60e51b815260206004820152602860248201527f546f6f6c733a2074686520746f6f6c20697320616c7265616479207374726f6e6044820152670ce40cadcdeeaced60c31b6064820152608401610733565b60015b61010354811161118157600081815261010560205260409020541561116f57600081815261010560205260408120546110d3908590613e95565b600083815261010460205260409020549091506001600160a01b03166323b872dd336040516001600160e01b031960e084901b1681526001600160a01b039091166004820152306024820152604481018490526064016020604051808303816000875af1158015611148573d6000803e3d6000fd5b505050506040513d601f19601f8201168201806040525081019061116c9190613e13565b50505b8061117981613dc7565b915050611099565b5033600090815261010960209081526040808320868452909152902080548391906010906111c0908490600160801b90046001600160801b0316613eb4565b92506101000a8154816001600160801b0302191690836001600160801b03160217905550505050565b60005b835181101561124657611234868686848151811061120c5761120c613e67565b602002602001015186858151811061122657611226613e67565b602002602001015186611b2f565b8061123e81613dc7565b9150506111ec565b505050505050565b600054610100900460ff161580801561126e5750600054600160ff909116105b806112885750303b158015611288575060005460ff166001145b6112eb5760405162461bcd60e51b815260206004820152602e60248201527f496e697469616c697a61626c653a20636f6e747261637420697320616c72656160448201526d191e481a5b9a5d1a585b1a5e995960921b6064820152608401610733565b6000805460ff19166001179055801561130e576000805461ff0019166101001790555b60fb80546001600160a01b038089166001600160a01b03199283161790925561010460209081527f366700fa4a54fabf41470ae21330c7a9ced6ce535b281916c3ea8a91b225034d80548985169084161790557fddd1838ad54486b43121aa4469d740f4d55ed333facef0ee1fcc9f1cb9a2ae7c8054888516908416179055600360008190527f4de5804478882e9f6e2018b97f515690a5a6a6a6aaea739bceeab0cbe233c45b805494881694909316939093179091556006610101556101039190915582516113e49160fd9190850190613130565b506113fd604051806020016040528060008152506127d1565b611405612801565b61140d612830565b8015611246576000805461ff0019169055604051600181527f7f26b83ff96e1f2b6a682f133852f6798a09c465da95921460cefb38474024989060200160405180910390a1505050505050565b606081518351146114bf5760405162461bcd60e51b815260206004820152602960248201527f455243313135353a206163636f756e747320616e6420696473206c656e677468604482015268040dad2e6dac2e8c6d60bb1b6064820152608401610733565b600083516001600160401b038111156114da576114da61351a565b604051908082528060200260200182016040528015611503578160200160208202803683370190505b50905060005b845181101561157b5761154e85828151811061152757611527613e67565b602002602001015185838151811061154157611541613e67565b60200260200101516106cc565b82828151811061156057611560613e67565b602090810291909101015261157481613dc7565b9050611509565b509392505050565b61158b6125a4565b611595828261285f565b5050565b6115a16125a4565b6115ab60006128b0565b565b6115b56125a4565b60fe80546001600160a01b0319166001600160a01b0392909216919091179055565b6115df6125a4565b60c95460ff166115f1576115ab612902565b6115ab61295c565b6116016125a4565b61160c838383612995565b505050565b6116196125a4565b6101005485111561166c5760405162461bcd60e51b815260206004820152601e60248201527f546f6f6c733a20696e76616c696420746f6f6c54797065732076616c756500006044820152606401610733565b610103548314801561168057506101015481145b6116c85760405162461bcd60e51b8152602060048201526019602482015278546f6f6c733a20696e76616c69642061727261792073697a6560381b6044820152606401610733565b61010280549060006116d983613dc7565b9091555050610102546000908152610108602052604081208690555b6101035481101561177257600085858381811061171457611714613e67565b9050602002013511156117605784848281811061173357611733613e67565b61010254600090815261010860209081526040808320878452600101825290912091029290920135909155505b8061176a81613dc7565b9150506116f5565b5060005b610101548110156117f357600083838381811061179557611795613e67565b9050602002013511156117e1578282828181106117b4576117b4613e67565b61010254600090815261010860209081526040808320878452600201825290912091029290920135909155505b806117eb81613dc7565b915050611776565b507f2dc61d5b90244dc321c01ca13c9f1d4814d322cd8e47ae55adfcb6c2245c1ef36101025460405161182891815260200190565b60405180910390a15050505050565b606060005b610103548110156118bd57600061010581611858846001613e7d565b81526020019081526020016000205411156118ab57610105600061187d836001613e7d565b81526020019081526020016000205482828151811061189e5761189e613e67565b6020026020010181815250505b806118b581613dc7565b91505061183c565b5090565b6115953383836129f5565b6118d46125a4565b6001600160a01b0381166119235760405162461bcd60e51b8152602060048201526016602482015275546f6f6c733a20696e76616c6964206164647265737360501b6044820152606401610733565b610103805490600061193483613dc7565b90915550506101025460009081526101046020526040902080546001600160a01b0319166001600160a01b0392909216919091179055565b6119746125a4565b60fc80546001600160a01b0319166001600160a01b0392909216919091179055565b61199e6125a4565b610103548151146119ed5760405162461bcd60e51b8152602060048201526019602482015278546f6f6c733a20696e76616c69642061727261792073697a6560381b6044820152606401610733565b60005b61010354811015611595576000828281518110611a0f57611a0f613e67565b60200260200101511115611a5b57818181518110611a2f57611a2f613e67565b60200260200101516101056000836001611a499190613e7d565b81526020810191909152604001600020555b80611a6581613dc7565b9150506119f0565b611a7561278b565b60fe546001600160a01b0316336001600160a01b031614611ae85760405162461bcd60e51b815260206004820152602760248201527f546f6f6c733a206d73672e73656e6465722069736e2774206d696e696e6720636044820152661bdb9d1c9858dd60ca1b6064820152608401610733565b6001600160a01b038316600090815261010960209081526040808320858452909152902080548291906010906111c0908490600160801b90046001600160801b0316613edf565b81600114611b7f5760405162461bcd60e51b815260206004820152601860248201527f546f6f6c733a20746f6b656e496420697320756e6971756500000000000000006044820152606401610733565b6001600160a01b0385166000908152610109602090815260408083208684529091529020546001600160801b031680611bfa5760405162461bcd60e51b815260206004820152601960248201527f546f6f6c733a20746f6f6c20646f65736e2774206578697374000000000000006044820152606401610733565b611c078686838686612ad6565b5050506001600160a01b039283166000908152610109602081815260408084208585528083528185209690971684529181528183209383529283528120835481546001600160801b0319166001600160801b0391821690811783558554600160801b9081900490921690910217905592905255565b611c846125a4565b6001600160a01b038116611ce95760405162461bcd60e51b815260206004820152602660248201527f4f776e61626c653a206e6577206f776e657220697320746865207a65726f206160448201526564647265737360d01b6064820152608401610733565b611cf2816128b0565b50565b611cfd61278b565b3360fb54604051631846d2f560e31b81526001600160a01b0383811660048301529091169063c23697a8906024016020604051808303816000875af1158015611d4a573d6000803e3d6000fd5b505050506040513d601f19601f82011682018060405250810190611d6e9190613e13565b15611d8b5760405162461bcd60e51b815260040161073390613e30565b60608060015b610102548111611dd95760008181526101086020526040902054851415611dc757611dbb816122b3565b9094509250611dd99050565b80611dd181613dc7565b915050611d91565b5060005b8251811015611ee157828181518110611df857611df8613e67565b6020026020010151600014611ecf576101046000611e17836001613e7d565b81526020810191909152604001600020546001600160a01b03166323b872dd3330868581518110611e4a57611e4a613e67565b60209081029190910101516040516001600160e01b031960e086901b1681526001600160a01b03938416600482015292909116602483015260448201526064016020604051808303816000875af1158015611ea9573d6000803e3d6000fd5b505050506040513d601f19601f82011682018060405250810190611ecd9190613e13565b505b80611ed981613dc7565b915050611ddd565b5060005b8151811015611fd757818181518110611f0057611f00613e67565b6020026020010151600014611fc55760fc546001600160a01b031663f242432a336001611f2d8582613e7d565b868681518110611f3f57611f3f613e67565b60209081029190910101516040516001600160e01b031960e087901b1681526001600160a01b0394851660048201529390921660248401526044830152606482015260a06084820152600060a482015260c401600060405180830381600087803b158015611fac57600080fd5b505af1158015611fc0573d6000803e3d6000fd5b505050505b80611fcf81613dc7565b915050611ee5565b50611ff43385600160405180602001604052806000815250612b63565b60ff805490600061200483613dc7565b90915550506040805180820182526001600160801b0386811682526000878152610107602090815284822054600160401b900463ffffffff1681850190815233808452610109835286842060ff54855290925294909120925193518216600160801b02939091169290921790557f82bf558222c4c37aae80230f0a656373f327bcc6f1ac1ef73c385d4dec21b22390604080516001600160a01b039092168252602082018790520160405180910390a150505050565b6120c26125a4565b60fb54604051631846d2f560e31b81526001600160a01b0380861660048301528592169063c23697a8906024016020604051808303816000875af115801561210e573d6000803e3d6000fd5b505050506040513d601f19601f820116820180604052508101906121329190613e13565b1561214f5760405162461bcd60e51b815260040161073390613e30565b610100546121915760405162461bcd60e51b815260206004820152600f60248201526e546f6f6c733a206e6f20746f6f6c7360881b6044820152606401610733565b61010054836001600160801b031611156121e75760405162461bcd60e51b8152602060048201526017602482015276546f6f6c733a20696e76616c69642069642076616c756560481b6044820152606401610733565b61220b84846001600160801b03168460405180602001604052806000815250612b63565b60005b828110156122ac5760ff805490600061222683613dc7565b90915550506040805180820182526001600160801b03808716808352600090815261010760209081528482205463ffffffff600160401b909104168185019081526001600160a01b038b168352610109825285832060ff548452909152939020915192518116600160801b029216919091179055806122a481613dc7565b91505061220e565b5050505050565b60006060806122c061278b565b610102548411156123135760405162461bcd60e51b815260206004820152601e60248201527f546f6f6c733a20696e76616c6964207265636970696549642076616c756500006044820152606401610733565b60008481526101086020526040902054610103549093506001600160401b038111156123415761234161351a565b60405190808252806020026020018201604052801561236a578160200160208202803683370190505b509150610101546001600160401b038111156123885761238861351a565b6040519080825280602002602001820160405280156123b1578160200160208202803683370190505b50905060005b610103548111612435576000858152610108602090815260408083208484526001019091529020541561242357600085815261010860209081526040808320848452600101909152902054835184908390811061241657612416613e67565b6020026020010181815250505b8061242d81613dc7565b9150506123b7565b5060005b610101548110156124b857600085815261010860209081526040808320848452600201909152902054156124a657600085815261010860209081526040808320848452600201909152902054825183908390811061249957612499613e67565b6020026020010181815250505b806124b081613dc7565b915050612439565b509193909250565b60006001600160e01b03198216636cdb3d1360e11b14806124f157506001600160e01b031982166303a24d0760e21b145b806107bf57506301ffc9a760e01b6001600160e01b03198316146107bf565b60606099805461251f90613cb3565b80601f016020809104026020016040519081016040528092919081815260200182805461254b90613cb3565b80156125985780601f1061256d57610100808354040283529160200191612598565b820191906000526020600020905b81548152906001019060200180831161257b57829003601f168201915b50505050509050919050565b6033546001600160a01b031633146115ab5760405162461bcd60e51b815260206004820181905260248201527f4f776e61626c653a2063616c6c6572206973206e6f7420746865206f776e65726044820152606401610733565b6001600160a01b0384166126245760405162461bcd60e51b815260040161073390613f07565b81518351146126865760405162461bcd60e51b815260206004820152602860248201527f455243313135353a2069647320616e6420616d6f756e7473206c656e677468206044820152670dad2e6dac2e8c6d60c31b6064820152608401610733565b3360005b8451811015612723578381815181106126a5576126a5613e67565b6020026020010151609760008784815181106126c3576126c3613e67565b602002602001015181526020019081526020016000206000886001600160a01b03166001600160a01b03168152602001908152602001600020600082825461270b9190613e7d565b9091555081905061271b81613dc7565b91505061268a565b50846001600160a01b031660006001600160a01b0316826001600160a01b03167f4a39dc06d4c0dbc64b70af90fd698a233a518aa5d07e595d983b8c0526c8f7fb8787604051612774929190613f48565b60405180910390a46122ac81600087878787612c3f565b60c95460ff16156115ab5760405162461bcd60e51b815260206004820152601060248201526f14185d5cd8589b194e881c185d5cd95960821b6044820152606401610733565b600054610100900460ff166127f85760405162461bcd60e51b815260040161073390613f6d565b611cf281612d9b565b600054610100900460ff166128285760405162461bcd60e51b815260040161073390613f6d565b6115ab612dcb565b600054610100900460ff166128575760405162461bcd60e51b815260040161073390613f6d565b6115ab612dfe565b61286b60fd83836131b0565b507f01e56a02aca7f26a28165a040851ba78f30282b55ca81c63a804cdc1e2dcea7261289760016107c5565b6040516128a49190613327565b60405180910390a15050565b603380546001600160a01b038381166001600160a01b0319831681179093556040519116919082907f8be0079c531659141344cd1fd0a4f28419497f9722a3daafe3b4186f6b6457e090600090a35050565b61290a61278b565b60c9805460ff191660011790557f62e78cea01bee320cd4e420270b5ea74000d11b0c9f74754ebdbfc544b05a25861293f3390565b6040516001600160a01b03909116815260200160405180910390a1565b612964612e2e565b60c9805460ff191690557f5db9ee0a495bf2e6ff9c91a7834c1ba4fdd244a5e8aa4e537bd38aeae4b073aa3361293f565b6000838152610106602052604090206129af9083836131b0565b50827f6bb7ff708619ba0610cba295a58592e0451dee2622938c8755667688daf3529b6129db856107c5565b6040516129e89190613327565b60405180910390a2505050565b816001600160a01b0316836001600160a01b03161415612a695760405162461bcd60e51b815260206004820152602960248201527f455243313135353a2073657474696e6720617070726f76616c20737461747573604482015268103337b91039b2b63360b91b6064820152608401610733565b6001600160a01b03838116600081815260986020908152604080832094871680845294825291829020805460ff191686151590811790915591519182527f17307eab39ab6107e8899845ad3d59bd9653f200f220920489ca2b5937696c31910160405180910390a3505050565b6001600160a01b038516331480612af25750612af285336105e6565b612b565760405162461bcd60e51b815260206004820152602f60248201527f455243313135353a2063616c6c6572206973206e6f7420746f6b656e206f776e60448201526e195c881b9bdc88185c1c1c9bdd9959608a1b6064820152608401610733565b6122ac8585858585612e77565b6001600160a01b038416612b895760405162461bcd60e51b815260040161073390613f07565b336000612b958561301b565b90506000612ba28561301b565b905060008681526097602090815260408083206001600160a01b038b16845290915281208054879290612bd6908490613e7d565b909155505060408051878152602081018790526001600160a01b03808a1692600092918716917fc3d58168c5ae7397731d063d5bbf3d657854427343f4c083240f7aacaa2d0f62910160405180910390a4612c3683600089898989613066565b50505050505050565b6001600160a01b0384163b156112465760405163bc197c8160e01b81526001600160a01b0385169063bc197c8190612c839089908990889088908890600401613fb8565b6020604051808303816000875af1925050508015612cbe575060408051601f3d908101601f19168201909252612cbb91810190614016565b60015b612d6b57612cca614033565b806308c379a01415612d045750612cdf61404f565b80612cea5750612d06565b8060405162461bcd60e51b81526004016107339190613327565b505b60405162461bcd60e51b815260206004820152603460248201527f455243313135353a207472616e7366657220746f206e6f6e20455243313135356044820152732932b1b2b4bb32b91034b6b83632b6b2b73a32b960611b6064820152608401610733565b6001600160e01b0319811663bc197c8160e01b14612c365760405162461bcd60e51b8152600401610733906140d8565b600054610100900460ff16612dc25760405162461bcd60e51b815260040161073390613f6d565b611cf281613121565b600054610100900460ff16612df25760405162461bcd60e51b815260040161073390613f6d565b60c9805460ff19169055565b600054610100900460ff16612e255760405162461bcd60e51b815260040161073390613f6d565b6115ab336128b0565b60c95460ff166115ab5760405162461bcd60e51b815260206004820152601460248201527314185d5cd8589b194e881b9bdd081c185d5cd95960621b6044820152606401610733565b6001600160a01b038416612edb5760405162461bcd60e51b815260206004820152602560248201527f455243313135353a207472616e7366657220746f20746865207a65726f206164604482015264647265737360d81b6064820152608401610733565b336000612ee78561301b565b90506000612ef48561301b565b905060008681526097602090815260408083206001600160a01b038c16845290915290205485811015612f7c5760405162461bcd60e51b815260206004820152602a60248201527f455243313135353a20696e73756666696369656e742062616c616e636520666f60448201526939103a3930b739b332b960b11b6064820152608401610733565b60008781526097602090815260408083206001600160a01b038d8116855292528083208985039055908a16825281208054889290612fbb908490613e7d565b909155505060408051888152602081018890526001600160a01b03808b16928c821692918816917fc3d58168c5ae7397731d063d5bbf3d657854427343f4c083240f7aacaa2d0f62910160405180910390a4610ec9848a8a8a8a8a613066565b6040805160018082528183019092526060916000919060208083019080368337019050509050828160008151811061305557613055613e67565b602090810291909101015292915050565b6001600160a01b0384163b156112465760405163f23a6e6160e01b81526001600160a01b0385169063f23a6e61906130aa9089908990889088908890600401614120565b6020604051808303816000875af19250505080156130e5575060408051601f3d908101601f191682019092526130e291810190614016565b60015b6130f157612cca614033565b6001600160e01b0319811663f23a6e6160e01b14612c365760405162461bcd60e51b8152600401610733906140d8565b80516115959060999060208401905b82805461313c90613cb3565b90600052602060002090601f01602090048101928261315e57600085556131a4565b82601f1061317757805160ff19168380011785556131a4565b828001600101855582156131a4579182015b828111156131a4578251825591602001919060010190613189565b506118bd929150613224565b8280546131bc90613cb3565b90600052602060002090601f0160209004810192826131de57600085556131a4565b82601f106131f75782800160ff198235161785556131a4565b828001600101855582156131a4579182015b828111156131a4578235825591602001919060010190613209565b5b808211156118bd5760008155600101613225565b80356001600160a01b038116811461325057600080fd5b919050565b6000806040838503121561326857600080fd5b61327183613239565b946020939093013593505050565b6001600160e01b031981168114611cf257600080fd5b6000602082840312156132a757600080fd5b813561089f8161327f565b6000602082840312156132c457600080fd5b5035919050565b60005b838110156132e65781810151838201526020016132ce565b838111156132f5576000848401525b50505050565b600081518084526133138160208601602086016132cb565b601f01601f19169290920160200192915050565b60208152600061089f60208301846132fb565b803563ffffffff8116811461325057600080fd5b60008060008060008060c0878903121561336757600080fd5b6133708761333a565b955061337e6020880161333a565b945061338c6040880161333a565b935061339a6060880161333a565b92506133a86080880161333a565b91506133b660a0880161333a565b90509295509295509295565b60008083601f8401126133d457600080fd5b5081356001600160401b038111156133eb57600080fd5b6020830191508360208260051b850101111561340657600080fd5b9250929050565b60008083601f84011261341f57600080fd5b5081356001600160401b0381111561343657600080fd5b60208301915083602082850101111561340657600080fd5b60008060008060008060006080888a03121561346957600080fd5b61347288613239565b965060208801356001600160401b038082111561348e57600080fd5b61349a8b838c016133c2565b909850965060408a01359150808211156134b357600080fd5b6134bf8b838c016133c2565b909650945060608a01359150808211156134d857600080fd5b506134e58a828b0161340d565b989b979a50959850939692959293505050565b6000806040838503121561350b57600080fd5b50508035926020909101359150565b634e487b7160e01b600052604160045260246000fd5b601f8201601f191681016001600160401b03811182821017156135555761355561351a565b6040525050565b60006001600160401b038211156135755761357561351a565b5060051b60200190565b600082601f83011261359057600080fd5b8135602061359d8261355c565b6040516135aa8282613530565b83815260059390931b85018201928281019150868411156135ca57600080fd5b8286015b848110156135e557803583529183019183016135ce565b509695505050505050565b60006001600160401b038311156136095761360961351a565b604051613620601f8501601f191660200182613530565b80915083815284848401111561363557600080fd5b83836020830137600060208583010152509392505050565b600082601f83011261365e57600080fd5b61089f838335602085016135f0565b600080600080600060a0868803121561368557600080fd5b61368e86613239565b945061369c60208701613239565b935060408601356001600160401b03808211156136b857600080fd5b6136c489838a0161357f565b945060608801359150808211156136da57600080fd5b6136e689838a0161357f565b935060808801359150808211156136fc57600080fd5b506137098882890161364d565b9150509295509295909350565b600080600080600060a0868803121561372e57600080fd5b61373786613239565b945061374560208701613239565b935061375360408701613239565b925061376160608701613239565b915060808601356001600160401b0381111561377c57600080fd5b8601601f8101881361378d57600080fd5b613709888235602084016135f0565b600080604083850312156137af57600080fd5b82356001600160401b03808211156137c657600080fd5b818501915085601f8301126137da57600080fd5b813560206137e78261355c565b6040516137f48282613530565b83815260059390931b850182019282810191508984111561381457600080fd5b948201945b838610156138395761382a86613239565b82529482019490820190613819565b9650508601359250508082111561384f57600080fd5b5061385c8582860161357f565b9150509250929050565b600081518084526020808501945080840160005b838110156138965781518752958201959082019060010161387a565b509495945050505050565b60208152600061089f6020830184613866565b600080602083850312156138c757600080fd5b82356001600160401b038111156138dd57600080fd5b6138e98582860161340d565b90969095509350505050565b60006020828403121561390757600080fd5b61089f82613239565b60008060006040848603121561392557600080fd5b8335925060208401356001600160401b0381111561394257600080fd5b61394e8682870161340d565b9497909650939450505050565b60008060008060006060868803121561397357600080fd5b8535945060208601356001600160401b038082111561399157600080fd5b61399d89838a016133c2565b909650945060408801359150808211156139b657600080fd5b506139c3888289016133c2565b969995985093965092949392505050565b8015158114611cf257600080fd5b600080604083850312156139f557600080fd5b6139fe83613239565b91506020830135613a0e816139d4565b809150509250929050565b60008060008060008060a08789031215613a3257600080fd5b613a3b87613239565b9550613a4960208801613239565b945060408701356001600160401b0380821115613a6557600080fd5b613a718a838b0161357f565b95506060890135915080821115613a8757600080fd5b613a938a838b0161357f565b94506080890135915080821115613aa957600080fd5b50613ab689828a0161340d565b979a9699509497509295939492505050565b600060208284031215613ada57600080fd5b81356001600160401b03811115613af057600080fd5b613afc8482850161357f565b949350505050565b600080600060608486031215613b1957600080fd5b613b2284613239565b95602085013595506040909401359392505050565b60008060408385031215613b4a57600080fd5b613b5383613239565b9150613b6160208401613239565b90509250929050565b60008060008060008060a08789031215613b8357600080fd5b613b8c87613239565b9550613b9a60208801613239565b9450604087013593506060870135925060808701356001600160401b03811115613bc357600080fd5b613ab689828a0161340d565b600080600080600060a08688031215613be757600080fd5b613bf086613239565b9450613bfe60208701613239565b9350604086013592506060860135915060808601356001600160401b03811115613c2757600080fd5b6137098882890161364d565b600080600060608486031215613c4857600080fd5b613c5184613239565b925060208401356001600160801b0381168114613c6d57600080fd5b929592945050506040919091013590565b838152606060208201526000613c976060830185613866565b8281036040840152613ca98185613866565b9695505050505050565b600181811c90821680613cc757607f821691505b60208210811415613ce857634e487b7160e01b600052602260045260246000fd5b50919050565b60008151613d008185602086016132cb565b9290920192915050565b600080845481600182811c915080831680613d2657607f831692505b6020808410821415613d4657634e487b7160e01b86526022600452602486fd5b818015613d5a5760018114613d6b57613d98565b60ff19861689528489019650613d98565b60008b81526020902060005b86811015613d905781548b820152908501908301613d77565b505084890196505b505050505050613da88185613cee565b95945050505050565b634e487b7160e01b600052601160045260246000fd5b6000600019821415613ddb57613ddb613db1565b5060010190565b600063ffffffff80841680613e0757634e487b7160e01b600052601260045260246000fd5b92169190910692915050565b600060208284031215613e2557600080fd5b815161089f816139d4565b60208082526018908201527f546f6f6c733a207573657220696e20626c61636b6c6973740000000000000000604082015260600190565b634e487b7160e01b600052603260045260246000fd5b60008219821115613e9057613e90613db1565b500190565b6000816000190483118215151615613eaf57613eaf613db1565b500290565b60006001600160801b03808316818516808303821115613ed657613ed6613db1565b01949350505050565b60006001600160801b0383811690831681811015613eff57613eff613db1565b039392505050565b60208082526021908201527f455243313135353a206d696e7420746f20746865207a65726f206164647265736040820152607360f81b606082015260800190565b604081526000613f5b6040830185613866565b8281036020840152613da88185613866565b6020808252602b908201527f496e697469616c697a61626c653a20636f6e7472616374206973206e6f74206960408201526a6e697469616c697a696e6760a81b606082015260800190565b6001600160a01b0386811682528516602082015260a060408201819052600090613fe490830186613866565b8281036060840152613ff68186613866565b9050828103608084015261400a81856132fb565b98975050505050505050565b60006020828403121561402857600080fd5b815161089f8161327f565b600060033d111561404c5760046000803e5060005160e01c5b90565b600060443d101561405d5790565b6040516003193d81016004833e81513d6001600160401b03816024840111818411171561408c57505050505090565b82850191508151818111156140a45750505050505090565b843d87010160208285010111156140be5750505050505090565b6140cd60208286010187613530565b509095945050505050565b60208082526028908201527f455243313135353a204552433131353552656365697665722072656a656374656040820152676420746f6b656e7360c01b606082015260800190565b6001600160a01b03868116825285166020820152604081018490526060810183905260a06080820181905260009061415a908301846132fb565b97965050505050505056fea2646970667358221220f0565385667b30faf578ec67f9a9d2eb8b9a1aad98b303bab6e49c03d8c79fa264736f6c634300080c0033",
  "linkReferences": {},
  "deployedLinkReferences": {}
}