{
  "_format": "hh-sol-artifact-1",
  "contractName": "Tools",
  "sourceName": "contracts/Tools.sol",
  "abi": [
    {
      "anonymous": false,
      "inputs": [
        {
          "indexed": false,
          "internalType": "uint256",
          "name": "toolType",
          "type": "uint256"
        }
      ],
      "name": "AddTool",
      "type": "event"
    },
    {
      "anonymous": false,
      "inputs": [
        {
          "indexed": true,
          "internalType": "address",
          "name": "account",
          "type": "address"
        },
        {
          "indexed": true,
          "internalType": "address",
          "name": "operator",
          "type": "address"
        },
        {
          "indexed": false,
          "internalType": "bool",
          "name": "approved",
          "type": "bool"
        }
      ],
      "name": "ApprovalForAll",
      "type": "event"
    },
    {
      "anonymous": false,
      "inputs": [
        {
          "indexed": false,
          "internalType": "string",
          "name": "baseURI",
          "type": "string"
        }
      ],
      "name": "BaseURI",
      "type": "event"
    },
    {
      "anonymous": false,
      "inputs": [
        {
          "indexed": false,
          "internalType": "address",
          "name": "user",
          "type": "address"
        },
        {
          "indexed": false,
          "internalType": "uint256",
          "name": "",
          "type": "uint256"
        }
      ],
      "name": "Craft",
      "type": "event"
    },
    {
      "anonymous": false,
      "inputs": [
        {
          "indexed": false,
          "internalType": "uint8",
          "name": "version",
          "type": "uint8"
        }
      ],
      "name": "Initialized",
      "type": "event"
    },
    {
      "anonymous": false,
      "inputs": [
        {
          "indexed": true,
          "internalType": "address",
          "name": "previousOwner",
          "type": "address"
        },
        {
          "indexed": true,
          "internalType": "address",
          "name": "newOwner",
          "type": "address"
        }
      ],
      "name": "OwnershipTransferred",
      "type": "event"
    },
    {
      "anonymous": false,
      "inputs": [
        {
          "indexed": false,
          "internalType": "address",
          "name": "account",
          "type": "address"
        }
      ],
      "name": "Paused",
      "type": "event"
    },
    {
      "anonymous": false,
      "inputs": [
        {
          "indexed": false,
          "internalType": "uint256",
          "name": "toolType",
          "type": "uint256"
        },
        {
          "indexed": false,
          "internalType": "uint256",
          "name": "resourcesAmount",
          "type": "uint256"
        },
        {
          "indexed": false,
          "internalType": "uint256[]",
          "name": "artifactsAmount",
          "type": "uint256[]"
        }
      ],
      "name": "RecipeCreatedOrUpdated",
      "type": "event"
    },
    {
      "anonymous": false,
      "inputs": [
        {
          "indexed": false,
          "internalType": "uint256",
          "name": "toolType",
          "type": "uint256"
        }
      ],
      "name": "ToolPropertiesSet",
      "type": "event"
    },
    {
      "anonymous": false,
      "inputs": [
        {
          "indexed": false,
          "internalType": "uint256",
          "name": "toolId",
          "type": "uint256"
        }
      ],
      "name": "ToolRepaired",
      "type": "event"
    },
    {
      "anonymous": false,
      "inputs": [
        {
          "indexed": true,
          "internalType": "address",
          "name": "operator",
          "type": "address"
        },
        {
          "indexed": true,
          "internalType": "address",
          "name": "from",
          "type": "address"
        },
        {
          "indexed": true,
          "internalType": "address",
          "name": "to",
          "type": "address"
        },
        {
          "indexed": false,
          "internalType": "uint256[]",
          "name": "ids",
          "type": "uint256[]"
        },
        {
          "indexed": false,
          "internalType": "uint256[]",
          "name": "values",
          "type": "uint256[]"
        }
      ],
      "name": "TransferBatch",
      "type": "event"
    },
    {
      "anonymous": false,
      "inputs": [
        {
          "indexed": true,
          "internalType": "address",
          "name": "operator",
          "type": "address"
        },
        {
          "indexed": true,
          "internalType": "address",
          "name": "from",
          "type": "address"
        },
        {
          "indexed": true,
          "internalType": "address",
          "name": "to",
          "type": "address"
        },
        {
          "indexed": false,
          "internalType": "uint256",
          "name": "id",
          "type": "uint256"
        },
        {
          "indexed": false,
          "internalType": "uint256",
          "name": "value",
          "type": "uint256"
        }
      ],
      "name": "TransferSingle",
      "type": "event"
    },
    {
      "anonymous": false,
      "inputs": [
        {
          "indexed": false,
          "internalType": "string",
          "name": "value",
          "type": "string"
        },
        {
          "indexed": true,
          "internalType": "uint256",
          "name": "id",
          "type": "uint256"
        }
      ],
      "name": "URI",
      "type": "event"
    },
    {
      "anonymous": false,
      "inputs": [
        {
          "indexed": false,
          "internalType": "address",
          "name": "account",
          "type": "address"
        }
      ],
      "name": "Unpaused",
      "type": "event"
    },
    {
      "inputs": [
        {
          "internalType": "uint32",
          "name": "maxStrength",
          "type": "uint32"
        },
        {
          "internalType": "uint32",
          "name": "miningDuration",
          "type": "uint32"
        },
        {
          "internalType": "uint32",
          "name": "energyCost",
          "type": "uint32"
        },
        {
          "internalType": "uint32",
          "name": "strengthCost",
          "type": "uint32"
        },
        {
          "internalType": "uint256",
          "name": "resourcesAmount",
          "type": "uint256"
        },
        {
          "internalType": "uint256[]",
          "name": "artifactsAmount",
          "type": "uint256[]"
        },
        {
          "internalType": "string",
          "name": "newURI",
          "type": "string"
        }
      ],
      "name": "addTool",
      "outputs": [
        {
          "internalType": "uint256",
          "name": "",
          "type": "uint256"
        }
      ],
      "stateMutability": "nonpayable",
      "type": "function"
    },
    {
      "inputs": [
        {
          "internalType": "address",
          "name": "account",
          "type": "address"
        },
        {
          "internalType": "uint256",
          "name": "id",
          "type": "uint256"
        }
      ],
      "name": "balanceOf",
      "outputs": [
        {
          "internalType": "uint256",
          "name": "",
          "type": "uint256"
        }
      ],
      "stateMutability": "view",
      "type": "function"
    },
    {
      "inputs": [
        {
          "internalType": "address[]",
          "name": "accounts",
          "type": "address[]"
        },
        {
          "internalType": "uint256[]",
          "name": "ids",
          "type": "uint256[]"
        }
      ],
      "name": "balanceOfBatch",
      "outputs": [
        {
          "internalType": "uint256[]",
          "name": "",
          "type": "uint256[]"
        }
      ],
      "stateMutability": "view",
      "type": "function"
    },
    {
      "inputs": [
        {
          "internalType": "address",
          "name": "user",
          "type": "address"
        },
        {
          "internalType": "uint256",
          "name": "toolId",
          "type": "uint256"
        },
        {
          "internalType": "uint256",
          "name": "strengthCost",
          "type": "uint256"
        }
      ],
      "name": "corrupt",
      "outputs": [],
      "stateMutability": "nonpayable",
      "type": "function"
    },
    {
      "inputs": [
        {
          "internalType": "uint256",
          "name": "toolType",
          "type": "uint256"
        }
      ],
      "name": "craft",
      "outputs": [],
      "stateMutability": "nonpayable",
      "type": "function"
    },
    {
      "inputs": [],
      "name": "getArtifactsAddress",
      "outputs": [
        {
          "internalType": "address",
          "name": "",
          "type": "address"
        }
      ],
      "stateMutability": "view",
      "type": "function"
    },
    {
      "inputs": [],
      "name": "getArtifactsTypesAmount",
      "outputs": [
        {
          "internalType": "uint256",
          "name": "",
          "type": "uint256"
        }
      ],
      "stateMutability": "view",
      "type": "function"
    },
    {
      "inputs": [],
      "name": "getMiningAddress",
      "outputs": [
        {
          "internalType": "address",
          "name": "",
          "type": "address"
        }
      ],
      "stateMutability": "view",
      "type": "function"
    },
    {
      "inputs": [
        {
          "internalType": "uint256",
          "name": "toolType",
          "type": "uint256"
        }
      ],
      "name": "getRecipe",
      "outputs": [
        {
          "internalType": "uint256",
          "name": "resourcesAmount",
          "type": "uint256"
        },
        {
          "internalType": "uint256[]",
          "name": "artifactsAmount",
          "type": "uint256[]"
        }
      ],
      "stateMutability": "view",
      "type": "function"
    },
    {
      "inputs": [
        {
          "internalType": "uint256",
          "name": "resourceId",
          "type": "uint256"
        }
      ],
      "name": "getResourceAddress",
      "outputs": [
        {
          "internalType": "address",
          "name": "",
          "type": "address"
        }
      ],
      "stateMutability": "view",
      "type": "function"
    },
    {
      "inputs": [],
      "name": "getResourceAmount",
      "outputs": [
        {
          "internalType": "uint256",
          "name": "",
          "type": "uint256"
        }
      ],
      "stateMutability": "view",
      "type": "function"
    },
    {
      "inputs": [
        {
          "internalType": "uint256",
          "name": "toolId",
          "type": "uint256"
        }
      ],
      "name": "getStrength",
      "outputs": [
        {
          "internalType": "uint256",
          "name": "",
          "type": "uint256"
        }
      ],
      "stateMutability": "view",
      "type": "function"
    },
    {
      "inputs": [
        {
          "internalType": "address",
          "name": "user",
          "type": "address"
        },
        {
          "internalType": "uint256",
          "name": "toolId",
          "type": "uint256"
        }
      ],
      "name": "getToolProperties",
      "outputs": [
        {
          "internalType": "uint256",
          "name": "toolType",
          "type": "uint256"
        },
        {
          "internalType": "uint256",
          "name": "strength",
          "type": "uint256"
        },
        {
          "internalType": "uint256",
          "name": "strengthCost",
          "type": "uint256"
        },
        {
          "internalType": "uint256",
          "name": "miningDuration",
          "type": "uint256"
        },
        {
          "internalType": "uint256",
          "name": "energyCost",
          "type": "uint256"
        }
      ],
      "stateMutability": "view",
      "type": "function"
    },
    {
      "inputs": [
        {
          "internalType": "uint256",
          "name": "toolType",
          "type": "uint256"
        }
      ],
      "name": "getToolTypeProperties",
      "outputs": [
        {
          "internalType": "uint256",
          "name": "maxStrength",
          "type": "uint256"
        },
        {
          "internalType": "uint256",
          "name": "strengthCost",
          "type": "uint256"
        },
        {
          "internalType": "uint256",
          "name": "miningDuration",
          "type": "uint256"
        },
        {
          "internalType": "uint256",
          "name": "energyCost",
          "type": "uint256"
        }
      ],
      "stateMutability": "view",
      "type": "function"
    },
    {
      "inputs": [],
      "name": "getToolsTypesAmount",
      "outputs": [
        {
          "internalType": "uint256",
          "name": "",
          "type": "uint256"
        }
      ],
      "stateMutability": "view",
      "type": "function"
    },
    {
      "inputs": [],
      "name": "increaseArtifactAmount",
      "outputs": [],
      "stateMutability": "nonpayable",
      "type": "function"
    },
    {
      "inputs": [
        {
          "internalType": "address",
          "name": "blacklistAddress",
          "type": "address"
        },
        {
          "internalType": "address",
          "name": "berryAddress",
          "type": "address"
        },
        {
          "internalType": "address",
          "name": "treeAddress",
          "type": "address"
        },
        {
          "internalType": "address",
          "name": "goldAddress",
          "type": "address"
        },
        {
          "internalType": "string",
          "name": "baseURI",
          "type": "string"
        }
      ],
      "name": "initialize",
      "outputs": [],
      "stateMutability": "nonpayable",
      "type": "function"
    },
    {
      "inputs": [
        {
          "internalType": "address",
          "name": "account",
          "type": "address"
        },
        {
          "internalType": "address",
          "name": "operator",
          "type": "address"
        }
      ],
      "name": "isApprovedForAll",
      "outputs": [
        {
          "internalType": "bool",
          "name": "",
          "type": "bool"
        }
      ],
      "stateMutability": "view",
      "type": "function"
    },
    {
      "inputs": [
        {
          "internalType": "address",
          "name": "to",
          "type": "address"
        },
        {
          "internalType": "uint128",
          "name": "toolType",
          "type": "uint128"
        },
        {
          "internalType": "uint256",
          "name": "amount",
          "type": "uint256"
        }
      ],
      "name": "mint",
      "outputs": [],
      "stateMutability": "nonpayable",
      "type": "function"
    },
    {
      "inputs": [
        {
          "internalType": "address",
          "name": "to",
          "type": "address"
        },
        {
          "internalType": "uint256[]",
          "name": "toolTypes",
          "type": "uint256[]"
        },
        {
          "internalType": "uint256[]",
          "name": "amounts",
          "type": "uint256[]"
        },
        {
          "internalType": "bytes",
          "name": "data",
          "type": "bytes"
        }
      ],
      "name": "mintBatch",
      "outputs": [],
      "stateMutability": "nonpayable",
      "type": "function"
    },
    {
      "inputs": [
        {
          "internalType": "address",
          "name": "operator",
          "type": "address"
        },
        {
          "internalType": "address",
          "name": "from",
          "type": "address"
        },
        {
          "internalType": "uint256[]",
          "name": "ids",
          "type": "uint256[]"
        },
        {
          "internalType": "uint256[]",
          "name": "values",
          "type": "uint256[]"
        },
        {
          "internalType": "bytes",
          "name": "data",
          "type": "bytes"
        }
      ],
      "name": "onERC1155BatchReceived",
      "outputs": [
        {
          "internalType": "bytes4",
          "name": "",
          "type": "bytes4"
        }
      ],
      "stateMutability": "pure",
      "type": "function"
    },
    {
      "inputs": [
        {
          "internalType": "address",
          "name": "operator",
          "type": "address"
        },
        {
          "internalType": "address",
          "name": "from",
          "type": "address"
        },
        {
          "internalType": "uint256",
          "name": "id",
          "type": "uint256"
        },
        {
          "internalType": "uint256",
          "name": "value",
          "type": "uint256"
        },
        {
          "internalType": "bytes",
          "name": "data",
          "type": "bytes"
        }
      ],
      "name": "onERC1155Received",
      "outputs": [
        {
          "internalType": "bytes4",
          "name": "",
          "type": "bytes4"
        }
      ],
      "stateMutability": "pure",
      "type": "function"
    },
    {
      "inputs": [],
      "name": "owner",
      "outputs": [
        {
          "internalType": "address",
          "name": "",
          "type": "address"
        }
      ],
      "stateMutability": "view",
      "type": "function"
    },
    {
      "inputs": [],
      "name": "pause",
      "outputs": [],
      "stateMutability": "nonpayable",
      "type": "function"
    },
    {
      "inputs": [],
      "name": "paused",
      "outputs": [
        {
          "internalType": "bool",
          "name": "",
          "type": "bool"
        }
      ],
      "stateMutability": "view",
      "type": "function"
    },
    {
      "inputs": [],
      "name": "renounceOwnership",
      "outputs": [],
      "stateMutability": "nonpayable",
      "type": "function"
    },
    {
      "inputs": [
        {
          "internalType": "uint256",
          "name": "toolId",
          "type": "uint256"
        }
      ],
      "name": "repairTool",
      "outputs": [],
      "stateMutability": "nonpayable",
      "type": "function"
    },
    {
      "inputs": [
        {
          "internalType": "address",
          "name": "from",
          "type": "address"
        },
        {
          "internalType": "address",
          "name": "to",
          "type": "address"
        },
        {
          "internalType": "uint256[]",
          "name": "toolIds",
          "type": "uint256[]"
        },
        {
          "internalType": "uint256[]",
          "name": "amounts",
          "type": "uint256[]"
        },
        {
          "internalType": "bytes",
          "name": "data",
          "type": "bytes"
        }
      ],
      "name": "safeBatchTransferFrom",
      "outputs": [],
      "stateMutability": "nonpayable",
      "type": "function"
    },
    {
      "inputs": [
        {
          "internalType": "address",
          "name": "from",
          "type": "address"
        },
        {
          "internalType": "address",
          "name": "to",
          "type": "address"
        },
        {
          "internalType": "uint256",
          "name": "toolId",
          "type": "uint256"
        },
        {
          "internalType": "uint256",
          "name": "amount",
          "type": "uint256"
        },
        {
          "internalType": "bytes",
          "name": "data",
          "type": "bytes"
        }
      ],
      "name": "safeTransferFrom",
      "outputs": [],
      "stateMutability": "nonpayable",
      "type": "function"
    },
    {
      "inputs": [
        {
          "internalType": "address",
          "name": "operator",
          "type": "address"
        },
        {
          "internalType": "bool",
          "name": "approved",
          "type": "bool"
        }
      ],
      "name": "setApprovalForAll",
      "outputs": [],
      "stateMutability": "nonpayable",
      "type": "function"
    },
    {
      "inputs": [
        {
          "internalType": "address",
          "name": "artifactsAddress",
          "type": "address"
        }
      ],
      "name": "setArtifactsAddress",
      "outputs": [],
      "stateMutability": "nonpayable",
      "type": "function"
    },
    {
      "inputs": [
        {
          "internalType": "string",
          "name": "baseURI",
          "type": "string"
        }
      ],
      "name": "setBaseURI",
      "outputs": [],
      "stateMutability": "nonpayable",
      "type": "function"
    },
    {
      "inputs": [
        {
          "internalType": "address",
          "name": "miningAddress",
          "type": "address"
        }
      ],
      "name": "setMiningAddress",
      "outputs": [],
      "stateMutability": "nonpayable",
      "type": "function"
    },
    {
      "inputs": [
        {
          "internalType": "uint256",
          "name": "toolType",
          "type": "uint256"
        },
        {
          "internalType": "uint256",
          "name": "resourcesAmount",
          "type": "uint256"
        },
        {
          "internalType": "uint256[]",
          "name": "artifactsAmount",
          "type": "uint256[]"
        }
      ],
      "name": "setRecipe",
      "outputs": [],
      "stateMutability": "nonpayable",
      "type": "function"
    },
    {
      "inputs": [
        {
          "internalType": "uint256",
          "name": "toolType",
          "type": "uint256"
        },
        {
          "internalType": "uint32",
          "name": "maxStrength",
          "type": "uint32"
        },
        {
          "internalType": "uint32",
          "name": "miningDuration",
          "type": "uint32"
        },
        {
          "internalType": "uint32",
          "name": "energyCost",
          "type": "uint32"
        },
        {
          "internalType": "uint32",
          "name": "strengthCost",
          "type": "uint32"
        }
      ],
      "name": "setToolProperties",
      "outputs": [],
      "stateMutability": "nonpayable",
      "type": "function"
    },
    {
      "inputs": [
        {
          "internalType": "uint256",
          "name": "toolType",
          "type": "uint256"
        },
        {
          "internalType": "string",
          "name": "newURI",
          "type": "string"
        }
      ],
      "name": "setURI",
      "outputs": [],
      "stateMutability": "nonpayable",
      "type": "function"
    },
    {
      "inputs": [
        {
          "internalType": "bytes4",
          "name": "interfaceId",
          "type": "bytes4"
        }
      ],
      "name": "supportsInterface",
      "outputs": [
        {
          "internalType": "bool",
          "name": "",
          "type": "bool"
        }
      ],
      "stateMutability": "view",
      "type": "function"
    },
    {
      "inputs": [
        {
          "internalType": "address",
          "name": "newOwner",
          "type": "address"
        }
      ],
      "name": "transferOwnership",
      "outputs": [],
      "stateMutability": "nonpayable",
      "type": "function"
    },
    {
      "inputs": [
        {
          "internalType": "uint256",
          "name": "toolType",
          "type": "uint256"
        }
      ],
      "name": "uri",
      "outputs": [
        {
          "internalType": "string",
          "name": "",
          "type": "string"
        }
      ],
      "stateMutability": "view",
      "type": "function"
    }
  ],
  "bytecode": "0x60806040523480156200001157600080fd5b5061ae9e80620000226000396000f3fe608060405234801561001057600080fd5b50600436106102ac5760003560e01c8063862440e21161017b578063e61e401a116100d8578063f242432a1161008c578063f3917bd211610071578063f3917bd214610770578063f6e384e41461078c578063f8d12a41146107a8576102ac565b8063f242432a14610738578063f2fde38b14610754576102ac565b8063e985e9c5116100bd578063e985e9c5146106ba578063ee100cd6146106ea578063f23a6e6114610708576102ac565b8063e61e401a14610680578063e7fa2e6c1461069c576102ac565b8063aa48fbf51161012f578063daa6c75511610114578063daa6c75514610616578063e30d34a714610634578063e53fbda614610650576102ac565b8063aa48fbf5146105ca578063bc197c81146105e6576102ac565b80639bccf8ec116101605780639bccf8ec14610560578063a22cb46514610590578063a264adc0146105ac576102ac565b8063862440e2146105265780638da5cb5b14610542576102ac565b80633dfc8f2111610229578063715018a6116101dd5780637ae1f137116101c25780637ae1f137146104b95780637c280237146104e95780638456cb591461051c576102ac565b8063715018a61461049357806377a2ec4d1461049d576102ac565b80634e1273f41161020e5780634e1273f41461042957806355f804b3146104595780635c975abb14610475576102ac565b80633dfc8f21146103d757806343cac2b11461040b576102ac565b80631399de51116102805780632eb2c2d6116102655780632eb2c2d6146103835780632fb3b3611461039f5780633524f16c146103bb576102ac565b80631399de511461034b5780631f7fdffa14610367576102ac565b8062fdd58e146102b157806301ffc9a7146102e15780630e89341c146103115780630ebb956d14610341575b600080fd5b6102cb60048036038101906102c6919061862a565b6107d9565b6040516102d89190618679565b60405180910390f35b6102fb60048036038101906102f691906186ec565b6108a3565b6040516103089190618734565b60405180910390f35b61032b6004803603810190610326919061874f565b610a71565b6040516103389190618815565b60405180910390f35b610349610c33565b005b6103656004803603810190610360919061889c565b610de6565b005b610381600480360381019061037c9190618966565b61122f565b005b61039d60048036038101906103989190618c22565b611b62565b005b6103b960048036038101906103b49190618d92565b611d9a565b005b6103d560048036038101906103d0919061874f565b612504565b005b6103f160048036038101906103ec919061862a565b612ed8565b604051610402959493929190618e29565b60405180910390f35b6104136132c0565b6040516104209190618e8b565b60405180910390f35b610443600480360381019061043e9190618f69565b61336e565b604051610450919061909f565b60405180910390f35b610473600480360381019061046e9190619117565b613487565b005b61047d613521565b60405161048a9190618734565b60405180910390f35b61049b613538565b005b6104b760048036038101906104b29190619164565b61354c565b005b6104d360048036038101906104ce919061874f565b61361c565b6040516104e09190618e8b565b60405180910390f35b61050360048036038101906104fe919061874f565b613714565b6040516105139493929190619191565b60405180910390f35b6105246139c5565b005b610540600480360381019061053b91906191d6565b613b7d565b005b61054a613c19565b6040516105579190618e8b565b60405180910390f35b61057a60048036038101906105759190619272565b613c43565b6040516105879190618679565b60405180910390f35b6105aa60048036038101906105a59190619380565b614313565b005b6105b4614329565b6040516105c19190618679565b60405180910390f35b6105e460048036038101906105df9190619164565b6143b8565b005b61060060048036038101906105fb91906193c0565b614488565b60405161060d91906194a1565b60405180910390f35b61061e61453b565b60405161062b9190618679565b60405180910390f35b61064e600480360381019061064991906194bc565b6145ca565b005b61066a6004803603810190610665919061874f565b614857565b6040516106779190618679565b60405180910390f35b61069a6004803603810190610695919061950f565b61496e565b005b6106a4614f64565b6040516106b19190618679565b60405180910390f35b6106d460048036038101906106cf919061958a565b614ff3565b6040516106e19190618734565b60405180910390f35b6106f2615087565b6040516106ff9190618e8b565b60405180910390f35b610722600480360381019061071d91906195ca565b615135565b60405161072f91906194a1565b60405180910390f35b610752600480360381019061074d9190619664565b6151e8565b005b61076e60048036038101906107699190619164565b6157bf565b005b61078a6004803603810190610785919061874f565b615843565b005b6107a660048036038101906107a19190619743565b6163c5565b005b6107c260048036038101906107bd919061874f565b616acb565b6040516107d0929190619796565b60405180910390f35b60008073ffffffffffffffffffffffffffffffffffffffff168373ffffffffffffffffffffffffffffffffffffffff16141561084a576040517f08c379a000000000000000000000000000000000000000000000000000000000815260040161084190619838565b60405180910390fd5b6097600083815260200190815260200160002060008473ffffffffffffffffffffffffffffffffffffffff1673ffffffffffffffffffffffffffffffffffffffff16815260200190815260200160002054905092915050565b60006108d17f6dac24a18108abffdcfc54c934adfd9f4ca93903aa7b928d52540962ce50cacb60001b616e21565b6108fd7fd24da4ae23fe52605be71513b97efb0027d02d16dba45a217ed1bd2dd4ab1d7560001b616e21565b6109297fd89f3a4fc5151c0be876cb011ada9d6251f90a0883d1292d3df503959c1ef15760001b616e21565b7fd9b67a26000000000000000000000000000000000000000000000000000000007bffffffffffffffffffffffffffffffffffffffffffffffffffffffff1916827bffffffffffffffffffffffffffffffffffffffffffffffffffffffff191614806109f257507f01ffc9a7000000000000000000000000000000000000000000000000000000007bffffffffffffffffffffffffffffffffffffffffffffffffffffffff1916827bffffffffffffffffffffffffffffffffffffffffffffffffffffffff1916145b80610a5a57507f01ffc9a7000000000000000000000000000000000000000000000000000000007bffffffffffffffffffffffffffffffffffffffffffffffffffffffff1916827bffffffffffffffffffffffffffffffffffffffffffffffffffffffff1916145b80610a6a5750610a6982616e24565b5b9050919050565b6060610a9f7f777dd43156405f4243f0530669db71f4890e348cf11822f59a2733ec4f85ed8f60001b616e21565b610acb7f6d73bcead30e3844c68d57ad0dcb5b2795f8834868637f79646f758a3ca9904d60001b616e21565b610af77f4e2f4b420bd308cd7c4f0124f42d2e4347513ad2f0009748d07c26e143e6426460001b616e21565b600061010660008481526020019081526020016000208054610b1890619887565b80601f0160208091040260200160405190810160405280929190818152602001828054610b4490619887565b8015610b915780601f10610b6657610100808354040283529160200191610b91565b820191906000526020600020905b815481529060010190602001808311610b7457829003601f168201915b50505050509050610bc47f04f784e3054717bcd04b42059062b3be833199dce4ee512229d2ee70de207f0060001b616e21565b610bf07f20314b5d87d2afe07d6ad13faa48e82f6309b3be742182205dff921b6786689a60001b616e21565b6000815111610c0757610c0283616f06565b610c2b565b60fd81604051602001610c1b929190619989565b6040516020818303038152906040525b915050919050565b610c5f7f3e1bf832ec9b65f1a7a18ea04e9e9011e8a23a77ae32d39b8672ff66fb32b1b760001b616e21565b610c8b7f6ccd2f9747b8ddf9862105b22d7aeaa98a307245825d3bfbc9415bba27d92b4060001b616e21565b610cb77f32d63a7346d2fc409225a0fdfc00e6fcb535f887324f6ca45dc21126a97c32ec60001b616e21565b610ce37fee145253c3c98c52288b60497c53f4904e0ae3f86ac58d87303e94f312c8a53c60001b616e21565b60fc60009054906101000a900473ffffffffffffffffffffffffffffffffffffffff1673ffffffffffffffffffffffffffffffffffffffff163373ffffffffffffffffffffffffffffffffffffffff1614610d73576040517f08c379a0000000000000000000000000000000000000000000000000000000008152600401610d6a90619a1f565b60405180910390fd5b610d9f7f4741726298123f805b9647d0ee98daf1f786bbcfce1f8ab366095d6732a802c360001b616e21565b610dcb7fa981f9fe82a0483f892cc55d421de9defd11a07faa0c6984ff729ee079a5993760001b616e21565b6101026000815480929190610ddf90619a6e565b9190505550565b610dee616f9a565b610e1a7f7d6fe98667e6aefef7bc708222b1b526d4dd3a366aa0d1d812a2e2d50bd619bb60001b616e21565b610e467f14bc05de5a4678c08a3aaaaa65e4f9305b801d290f4a2d761667bf276ded638960001b616e21565b610e727f3a78a8ae084e08678f1fbc459145baa5bfdaf99d9d6c6a9af5e342a019e6851360001b616e21565b610e9e7fce743e2fbff5162249d7b4af670358a360279d84fb30de66633448b36e2d1b8260001b616e21565b61010154841115610ee4576040517f08c379a0000000000000000000000000000000000000000000000000000000008152600401610edb90619b03565b60405180910390fd5b610f107fee6d95b187fb21cba3466da572138c7eaf92b1346d3be4539b44e1a9a2ce4d3d60001b616e21565b610f3c7fde11d3926ad8a3b442542ca5b31dc80dd460d93a2f4e77ef8d5a2d6ba344729260001b616e21565b610f687f147c25f85e8bb4ce0a7f47a96cce30bcf2662c1d81f9835fe4cc1104114a262e60001b616e21565b610f947fe344f9b96b0e6c0b60b1653383bb0a05ece622799c77ce0128c4055bd374734960001b616e21565b610102548282905014610fdc576040517f08c379a0000000000000000000000000000000000000000000000000000000008152600401610fd390619b6f565b60405180910390fd5b6110087fb2bc0c96e4413f7425cbc9fe56b0b6921348dd5cc24ceedfce729bdb5c76562860001b616e21565b6110347f3b84e49a3e6c7a1aba50a6849d7001f217b4bf9e348d26cfae4e4b9de8c512ad60001b616e21565b6110607f16cff307090e0bf0acae3af44074a6afee718051acbe21317cf3b2f5d477544160001b616e21565b826101086000868152602001908152602001600020600001819055506110a87fe8574c679e4e114c667caf9a4a36e7bbe38c6304687b37657a7e8a44bbfe45d660001b616e21565b6110d47fa9890dafc911b4e3c8fc5300b5167b6d3eb83a05b96c59ee04ea25b3dbcfc7b160001b616e21565b60005b610102548110156111935761110e7f5e3af11dffa400f8948d15532966189410508de778596db5782a3774e1b08c4060001b616e21565b61113a7ff07813f06a2a6ef834e46a347dd3a0ad4e3702ce28ab04707ca89a8e5f918d6a60001b616e21565b82828281811061114d5761114c619b8f565b5b905060200201356101086000878152602001908152602001600020600101600083815260200190815260200160002081905550808061118b90619a6e565b9150506110d7565b506111c07f119b22bbfe4839d223c3b67cbdd8a11e6d9477788b1343da0ae938a3a170551860001b616e21565b6111ec7f72d39826082b0f37060458ef706e44e486d4e494eede0f8f0646023cc227b7cd60001b616e21565b7f36726119f64f1c98115eb86c6099e74e39f6a954e8c56a8c88dbc02ee6e55752848484846040516112219493929190619c1f565b60405180910390a150505050565b611237616f9a565b866112647f26f2cb1faaf12fc528b414744a4a90db7ea8d754710f9cbc97f194445890f8ff60001b616e21565b6112907f2df17c2152180b16071e9fd161f63b974c266dad30aee8b16a7ef3fb4ecde4d660001b616e21565b6112bc7fbca9ce13a6c07b9b13efa3c13b81ca8331592038bd3eba886b5af3b1290e08cc60001b616e21565b6112e87f1b65655c39d33663f4e3df534bc75aec413c19c75a9b414faaa26bff2290243160001b616e21565b60fb60009054906101000a900473ffffffffffffffffffffffffffffffffffffffff1673ffffffffffffffffffffffffffffffffffffffff1663c23697a8826040518263ffffffff1660e01b81526004016113439190618e8b565b6020604051808303816000875af1158015611362573d6000803e3d6000fd5b505050506040513d601f19601f820116820180604052508101906113869190619c74565b156113c6576040517f08c379a00000000000000000000000000000000000000000000000000000000081526004016113bd90619ced565b60405180910390fd5b6113f27ff73ad0f726c3d4639bab7341bef5adab8945cb1a7c20adba33e60e3a79f438de60001b616e21565b61141e7fe1a80724e598367ba851f88d493dfc306aee8eb2a066b4a7f42f1bd87af3557d60001b616e21565b61144a7fe23a20ad61a8f2fd1203d906f28a247af7d9ead73a1a4e6dd69760992dfeeb2e60001b616e21565b6114767f267f204a7c2b53b3ddd506acf7fce0325eb8dea8ae45247220d85589c507aeea60001b616e21565b6114a27f1cc91209d4c14ee9ab2fddf5402d980223b9958a6bd6cd1100d955be67402bbd60001b616e21565b6114ce7f76a6c8af9b5c794c9978df87ba7b75a68a55f3a16ceba2bb91c80c90665a604e60001b616e21565b6000610101541415611515576040517f08c379a000000000000000000000000000000000000000000000000000000000815260040161150c90619d59565b60405180910390fd5b6115417f4e1b8356d25414011b044a8140c280fa83bfd6f5c7825d336bb1db5a4be61ac360001b616e21565b61156d7faa359575f8fa082e752b5ed6ef0ee8c55c08b0b8846b84d446faccb1737d399b60001b616e21565b6115997fa79e8f1c30052a010cf71269ffed935f90d0026c308a5d49b953273ca0e57d1260001b616e21565b60005b878790508110156116c9576115d37fb07574947713df1728c803f9fb830f81d4e4103d388c5d4ea15845dfec54d7a860001b616e21565b6115ff7fd5961e0de0c00048f33b077442253ab2d2a2a17b80a5082b6a73ae93c41fde8f60001b616e21565b61162b7fa3d43e2232e3b83e149062f4c4baf21d12c66d84f6e6e472f889dd2efc7530e060001b616e21565b6101015488888381811061164257611641619b8f565b5b90506020020135111561168a576040517f08c379a000000000000000000000000000000000000000000000000000000000815260040161168190619b03565b60405180910390fd5b6116b67f9ce5b82cb8014a1a09d70d1439e41f027cfaa634cfff2cbb4b16ade3e86d6fd160001b616e21565b80806116c190619a6e565b91505061159c565b506116f67f03a57a907fd01d05e4089dbe44fb8745348cf5f93bbf2fb2af7cab431c93cb3660001b616e21565b6117227f58da6ab1790f95ca28b04c0cb2be288327e1d05836837c095a5ee20b3f17985460001b616e21565b6117f488888880806020026020016040519081016040528093929190818152602001838360200280828437600081840152601f19601f82011690508083019250505050505050878780806020026020016040519081016040528093929190818152602001838360200280828437600081840152601f19601f8201169050808301925050505050505086868080601f016020809104026020016040519081016040528093929190818152602001838380828437600081840152601f19601f82011690508083019250505050505050617018565b6118207f6f6bc114b93c76175d595bf4dfa9a440b13194eb5b3b5149fd773d9e867481dd60001b616e21565b61184c7ff5b8acbbdc8472395c117d20e9423521448fca2125f357c72d2ca639cc3777ef60001b616e21565b60005b87879050811015611b57576118867ff32648f20bdc64e2b9dc5d5dcd12ffbdb6a7a213d74918871dcb01696ee3309e60001b616e21565b6118b27ffe548b56723d8f9331d07cb68a3c132f9c505fefd7610bdd01958afb1d0b5a0460001b616e21565b60005b86869050811015611b43576118ec7fb1c5a452205512774248dbf58684ad8d341d32de29c42a0e09c5192919f351e960001b616e21565b610100600081548092919061190090619a6e565b91905055506119317f28be9d56e333a82c731a8c2ef6e00ac8f42cb8e9505ee02469c39b0e4b2c3bfb60001b616e21565b61195d7f15dde29dbb2451295bcdb121390336ac44dc4a261c1eff1e96ea4c44cc270edb60001b616e21565b8888838181106119705761196f619b8f565b5b9050602002013561010960008c73ffffffffffffffffffffffffffffffffffffffff1673ffffffffffffffffffffffffffffffffffffffff168152602001908152602001600020600061010054815260200190815260200160002060000160006101000a8154816fffffffffffffffffffffffffffffffff02191690836fffffffffffffffffffffffffffffffff160217905550611a307f37b94a8064f5fb75f7822de00ec30169cea5ad6234db5564bbc74c316355a48060001b616e21565b611a5c7ff00bd598b995852e8eb3145a3d65b66a8a86b7b21bc2bd73e0fdf3390ae63b4360001b616e21565b61010760008a8a85818110611a7457611a73619b8f565b5b90506020020135815260200190815260200160002060000160049054906101000a900463ffffffff1663ffffffff1661010960008c73ffffffffffffffffffffffffffffffffffffffff1673ffffffffffffffffffffffffffffffffffffffff168152602001908152602001600020600061010054815260200190815260200160002060000160106101000a8154816fffffffffffffffffffffffffffffffff02191690836fffffffffffffffffffffffffffffffff1602179055508080611b3b90619a6e565b9150506118b5565b508080611b4f90619a6e565b91505061184f565b505050505050505050565b611b8e7f3db6396a19b9411d26198f06479aa98c2232d2af5ba9fb6be7dca6c90dd54a7460001b616e21565b611bba7ffb5a8836e79723cdc71c890db16d83dfa7edbc286761c518849508e24226eded60001b616e21565b611be67f43264bc71208aabd721568261678be13fb2bb620df021f379bcce706e4555ecb60001b616e21565b60005b8351811015611d9257611c1e7f7ffd0e2b257d484356e8875b0a4ea848fe8b33a5783d2ef58cdb3574df25be5760001b616e21565b611c4a7f4bb575b39699695cae12cdbb6e8ed7ce1e7198705f6e2c880caf1241eaf70b6c60001b616e21565b611c767fd25a873073731e6c77b518b908c8f5554cf0a7754c967ec17c18fa763828308d60001b616e21565b6001838281518110611c8b57611c8a619b8f565b5b602002602001015114611cd3576040517f08c379a0000000000000000000000000000000000000000000000000000000008152600401611cca90619dc5565b60405180910390fd5b611cff7f49cc438732ae335fdf231bd4583fca4d67f887e801bdbdb2a5952b9a78ab0cfc60001b616e21565b611d2b7f5318bda325760faa5b6cd2ba03601de5b352ad03487cb3f272d40c94cf73e3f860001b616e21565b611d577f9d92c71f7ae691f7963175d8d766d83d0e52ef49b6d5cddb9d815d5944f1fc8260001b616e21565b611d7f8686868481518110611d6f57611d6e619b8f565b5b60200260200101516001866151e8565b8080611d8a90619a6e565b915050611be9565b505050505050565b60008060019054906101000a900460ff16159050808015611dcb5750600160008054906101000a900460ff1660ff16105b80611df85750611dda30617246565b158015611df75750600160008054906101000a900460ff1660ff16145b5b611e37576040517f08c379a0000000000000000000000000000000000000000000000000000000008152600401611e2e90619e57565b60405180910390fd5b60016000806101000a81548160ff021916908360ff1602179055508015611e74576001600060016101000a81548160ff0219169083151502179055505b611ea07f21594380db4acf1049471da77aaee5314604505ce8c244cef1dcd494069cf13f60001b616e21565b611ecc7fbdf4dbec65276e53e8583887ef11009893dde29d1038120a5891eb8b9810350c60001b616e21565b611ef87ff8ed749b5f29ec17239494548f146037f2912b041122fb43d8b1c0db7670d77b60001b616e21565b61dead60ff60006101000a81548173ffffffffffffffffffffffffffffffffffffffff021916908373ffffffffffffffffffffffffffffffffffffffff160217905550611f677f69257bb711d704e7ce134bfbba4800ca00b4112c8d3eb69424d98a4dcc2560a660001b616e21565b611f937f588600ca1656b53b95bf643f65e159d10d40433098757e69d71f4187ff5768ae60001b616e21565b8560fb60006101000a81548173ffffffffffffffffffffffffffffffffffffffff021916908373ffffffffffffffffffffffffffffffffffffffff1602179055506120007fb9766ad225704ce8eec4f2c737134950f0b26bd499fde87f5647bd1256a7837f60001b616e21565b61202c7f790be6c59ac18114fc9fa23e505b89efa93021cab08861cf9c74be2bc9796e3460001b616e21565b84610104600080600281111561204557612044619e77565b5b600281111561205757612056619e77565b5b815260200190815260200160002060006101000a81548173ffffffffffffffffffffffffffffffffffffffff021916908373ffffffffffffffffffffffffffffffffffffffff1602179055506120cf7fdd9afe941f17a81858d1616346539738ffbd6766c003acfec7832c25d8e5ada160001b616e21565b6120fb7ff61fa295496d841e425f9adf2f9a4de47fae5bca130d5a7acd170dd5a80fbbfe60001b616e21565b8361010460006001600281111561211557612114619e77565b5b600281111561212757612126619e77565b5b815260200190815260200160002060006101000a81548173ffffffffffffffffffffffffffffffffffffffff021916908373ffffffffffffffffffffffffffffffffffffffff16021790555061219f7fb9fc2718fd3b6d5f3a7cf9359338a193354f40b2fac5af8e1a3c6e5f87211dfc60001b616e21565b6121cb7f4c141c3e515894c824d142b661737acb03d6e3d0e6979dc438ec72e97c4a747f60001b616e21565b8261010460006002808111156121e4576121e3619e77565b5b60028111156121f6576121f5619e77565b5b815260200190815260200160002060006101000a81548173ffffffffffffffffffffffffffffffffffffffff021916908373ffffffffffffffffffffffffffffffffffffffff16021790555061226e7fade11751af799c46051d14f98c31267a9a464dacb76f44238aff33c05b36883d60001b616e21565b61229a7ff6334d1a8a6c548549cad18c7693f53e233df601f2b7f191d11ce048708755f460001b616e21565b6006610102819055506122cf7f46f9f193fdf2149d15938dbdf496c58324b3079f06120b14ea821b78e2796b4360001b616e21565b6122fb7f32496c8b58c4ba54e255cc8349ee1e617cdb1cb3482a68aad4ab06d881af39da60001b616e21565b6003610103819055506123307f6ca0d8ea59c5cf0a0cace8832e5d6c2609e01e00ce3cfa63769cc7ee499b235960001b616e21565b61235c7fe3bff0c56e471885c6964ae859fa43b56f3562ec6321e52a8a3e27149b44e57f60001b616e21565b8160fd9080519060200190612372929190618459565b5061239f7f82e09b884e831e7852b1e4348a16b11ef36581359e015751ae2651064eac79d760001b616e21565b6123cb7f47a311378f0ce62cadf4a0a6e70b50ccc1ecec0a19d8aab2332f3c3b6d53910c60001b616e21565b6123e360405180602001604052806000815250617269565b61240f7f8c95ce8a19b5ba5998436fb900a7feece2ea1aa5b9d80529f6b8add24487877560001b616e21565b61243b7fc7ad0c3a8e4385a10bc78717b289615b025ed7524c1df13d8a695f78dfa9ae7660001b616e21565b6124436172c4565b61246f7f39a8b66b4f0f4764b65c3fd13f921a9fb24a3695de285845eb07ef80d026311160001b616e21565b61249b7fd1cefcae1474ad75ce3b4f1e9547f6bcb30872e753447214a70df6f250ae957d60001b616e21565b6124a361731d565b80156124fc5760008060016101000a81548160ff0219169083151502179055507f7f26b83ff96e1f2b6a682f133852f6798a09c465da95921460cefb384740249860016040516124f39190619ef8565b60405180910390a15b505050505050565b61250c617376565b6125146173c0565b6125407f26f2cb1faaf12fc528b414744a4a90db7ea8d754710f9cbc97f194445890f8ff60001b616e21565b61256c7f2df17c2152180b16071e9fd161f63b974c266dad30aee8b16a7ef3fb4ecde4d660001b616e21565b6125987fbca9ce13a6c07b9b13efa3c13b81ca8331592038bd3eba886b5af3b1290e08cc60001b616e21565b6125c47f1b65655c39d33663f4e3df534bc75aec413c19c75a9b414faaa26bff2290243160001b616e21565b60fb60009054906101000a900473ffffffffffffffffffffffffffffffffffffffff1673ffffffffffffffffffffffffffffffffffffffff1663c23697a8826040518263ffffffff1660e01b815260040161261f9190618e8b565b6020604051808303816000875af115801561263e573d6000803e3d6000fd5b505050506040513d601f19601f820116820180604052508101906126629190619c74565b156126a2576040517f08c379a000000000000000000000000000000000000000000000000000000000815260040161269990619ced565b60405180910390fd5b6126ce7ff73ad0f726c3d4639bab7341bef5adab8945cb1a7c20adba33e60e3a79f438de60001b616e21565b6126fa7fe1a80724e598367ba851f88d493dfc306aee8eb2a066b4a7f42f1bd87af3557d60001b616e21565b6127267f6593456d95b71c7106553aad6b3be6b29cab0fbd067f0c0876627dda2c91a49660001b616e21565b6127527f1a23593e3cf98386e7e26aaaccebd45179fe4e73e26eb67403b593ba5276a43060001b616e21565b61277e7f702898c3eb616d23045dc703ac500cda30326d467acd74c29f08db2420cb4d4b60001b616e21565b6000610109600061278d6173c0565b73ffffffffffffffffffffffffffffffffffffffff1673ffffffffffffffffffffffffffffffffffffffff16815260200190815260200160002060008481526020019081526020016000206040518060400160405290816000820160009054906101000a90046fffffffffffffffffffffffffffffffff166fffffffffffffffffffffffffffffffff166fffffffffffffffffffffffffffffffff1681526020016000820160109054906101000a90046fffffffffffffffffffffffffffffffff166fffffffffffffffffffffffffffffffff166fffffffffffffffffffffffffffffffff168152505090506128a57f737dbb797a4a867f15b7b01b2bbf7978e755e63dc210e8b6af6fa7d3aa11f08960001b616e21565b6128d17f368b1d15c8e1da011cfd093db763421a15424311c85b219276da4ef259d20ade60001b616e21565b600081600001516fffffffffffffffffffffffffffffffff1690506129187f864710393c158153466f416581fe4a44e7ffde85fafbb725775682a1a4c6d6ee60001b616e21565b6129447fe5ef963bb5bedada545fa0012da10b1c7ee442f0d38921c00824bfabdc760d4160001b616e21565b6129707f18b07ed5b23ac219ad8aee9bbc4be2d2c83b3e69309e3c1af69ba8f9106b37e960001b616e21565b600081116129b3576040517f08c379a00000000000000000000000000000000000000000000000000000000081526004016129aa90619f5f565b60405180910390fd5b6129df7f89c2d47594fc453d05020b430bf6dc56d132af91ceb8531639761f743ad2ade760001b616e21565b612a0b7fd00e3b455d3f1bbdc4394ce258a33de52a51cc3cbeee7abc5a91dca1279f382460001b616e21565b612a377ffa17a95f70a9e54db9aaf8d8f1c40129177edfd57deeba4c126fd40517e02daa60001b616e21565b6000610107600084600001516fffffffffffffffffffffffffffffffff16815260200190815260200160002060000160049054906101000a900463ffffffff1663ffffffff169050612aab7ff2d5ed1e53d462be48dc510eecd307e1e37a09a4678e5a6ab69d347e14ac557760001b616e21565b612ad77f86c37b41b80e6be6124d40271ead2670f81f72ae3804501eb9c983ee57e1d8d760001b616e21565b60006005846020015183612aeb9190619f7f565b612af59190619fe2565b6fffffffffffffffffffffffffffffffff169050612b357f8a4ae8669ee63229acc3046d2b4b7990bb5df082b43a710105fba408c3a6106860001b616e21565b612b617fb2ac487dde0a76a422a8712fc9e836fbfeecddd44e4428ecee5b1ab55364f7d860001b616e21565b612b8d7fbc11768cbffda88af4dbf2c0dc02f9c0881af532aaf67a30d7b339b688d4e5c460001b616e21565b6000811415612bd1576040517f08c379a0000000000000000000000000000000000000000000000000000000008152600401612bc89061a085565b60405180910390fd5b612bfd7f6b300f698b504623b48d2ef1a46e7f03d0d3b657f52481918c3678c6fccd4d6860001b616e21565b612c297f0585a72710fc700ca5b88c9640c814c0f2a2677c558c38c9b0ffd338e45546e260001b616e21565b612c557fa8db5c7f97a835c20b57b3a27829ccedd6d2669425ae5f776d091deed7b6b01360001b616e21565b6101046000600280811115612c6d57612c6c619e77565b5b6002811115612c7f57612c7e619e77565b5b815260200190815260200160002060009054906101000a900473ffffffffffffffffffffffffffffffffffffffff1673ffffffffffffffffffffffffffffffffffffffff166323b872dd612cd16173c0565b60ff60009054906101000a900473ffffffffffffffffffffffffffffffffffffffff16846040518463ffffffff1660e01b8152600401612d139392919061a0a5565b6020604051808303816000875af1158015612d32573d6000803e3d6000fd5b505050506040513d601f19601f82011682018060405250810190612d569190619c74565b50612d837f21d20b9f8702973ce63bdeca469778cf147a2a69dc715f5d035a2b1ce46cb9df60001b616e21565b612daf7fbdfca7025cecf5acd39d33046a0b544c4d26bc5a33c07cca92fe1101540ee58960001b616e21565b816101096000612dbd6173c0565b73ffffffffffffffffffffffffffffffffffffffff1673ffffffffffffffffffffffffffffffffffffffff168152602001908152602001600020600088815260200190815260200160002060000160106101000a8154816fffffffffffffffffffffffffffffffff02191690836fffffffffffffffffffffffffffffffff160217905550612e6d7ff07cf29a3b2395d6c3d4dc429a728e0677b6640104483f9e7f577441d03077d060001b616e21565b612e997f98d12bbb621e9f4fc3b6e25789425d884d4b07782fbf11c1291f5c34bf7a86b160001b616e21565b7f489732742a3b7fa64b47009a0782e6a403d44f8efd85d60cea8722a001e1667386604051612ec89190618679565b60405180910390a1505050505050565b6000806000806000612f0c7f3979278dc3a5862fafe138da62ab506f0c8a78eac134061a3eb2763d9cb16e5460001b616e21565b612f387f33accdd51cede079369198617871d0c7dce9941815e72e076413b0804953105460001b616e21565b612f647f85fd2072cb9fd9c34457d4219d0f7d644a0cb0e9ab177a69921f3a7469d834c260001b616e21565b61010960008873ffffffffffffffffffffffffffffffffffffffff1673ffffffffffffffffffffffffffffffffffffffff168152602001908152602001600020600087815260200190815260200160002060000160009054906101000a90046fffffffffffffffffffffffffffffffff166fffffffffffffffffffffffffffffffff1694506130157f4147003b9df28df330760befd4d6a9b27d9215b09496cf4e8787ece87363c83b60001b616e21565b6130417fbb17ae1364dbb20d56d75318c2cbf03925d60aad8aad807218682af0742b149c60001b616e21565b61010960008873ffffffffffffffffffffffffffffffffffffffff1673ffffffffffffffffffffffffffffffffffffffff168152602001908152602001600020600087815260200190815260200160002060000160109054906101000a90046fffffffffffffffffffffffffffffffff166fffffffffffffffffffffffffffffffff1693506130f27f0ab2ab55532807b059404db8aa1a061959d0249864b1865597f45ea5366a0c9460001b616e21565b61311e7f0cc719245cb4bda80a5d8c3a1ae4fab9cfcc9b8488bd6920d3059005b531e39960001b616e21565b610107600086815260200190815260200160002060000160009054906101000a900463ffffffff1663ffffffff16925061317a7ffc4c9ac0dbce47876d3e47841f19e30aa8fac3c84c70599bf4ca1a2bed5e282460001b616e21565b6131a67fde20905d00638c6e00b82cf482f9bdedc05b8b5e4b9769493d400f07cf74b24460001b616e21565b610107600086815260200190815260200160002060000160089054906101000a900463ffffffff1663ffffffff1691506132027f825b224139767e1715c778ce5319f4ff594a7a588e09510e8352e6526e01590060001b616e21565b61322e7f4b3dc276150544f1fb1f618478bf18940fe5803d31f7edb46b6ff4070426ece460001b616e21565b6101076000868152602001908152602001600020600001600c9054906101000a900463ffffffff1663ffffffff16905061328a7f5747a5f585f061b923c4d3aa8125f041edd5aba6ad6a817fdbd1ccb144bb462e60001b616e21565b6132b67f1823e3d6e9b2725c6a5e083d99c59b556d5dc1bde11ee7d00ceec749ba7f7b7f60001b616e21565b9295509295909350565b60006132ee7f175542c6c32a4d94a96e01cbdc5e79a0fd6f6ef647a26c6a644cd8ebcefc1f3860001b616e21565b61331a7f8e26ea5fcaa7982dc2754412235538965ed674b2550eefd2c0b9f5638d2468af60001b616e21565b6133467f230efacda6d0ec6fadf67fa8b2afa80eee6cade5c84fe019b6846f28fc1b8f7260001b616e21565b60fe60009054906101000a900473ffffffffffffffffffffffffffffffffffffffff16905090565b606081518351146133b4576040517f08c379a00000000000000000000000000000000000000000000000000000000081526004016133ab9061a14e565b60405180910390fd5b6000835167ffffffffffffffff8111156133d1576133d0618a2f565b5b6040519080825280602002602001820160405280156133ff5781602001602082028036833780820191505090505b50905060005b845181101561347c5761344c85828151811061342457613423619b8f565b5b602002602001015185838151811061343f5761343e619b8f565b5b60200260200101516107d9565b82828151811061345f5761345e619b8f565b5b6020026020010181815250508061347590619a6e565b9050613405565b508091505092915050565b61348f616f9a565b6134bb7f7b543c562a519e94d19884b5ed8531d059c90eee6f90461a9d07297e9c31ea6160001b616e21565b6134e77f96e4b4d9e1a6cc924514a9d450098b238effea832ef624308abd4269c7b7b93d60001b616e21565b6135137f5254bc8de8620e640394c2eb35749f4b5b97da6bf35eef67c2c5f3a5b791dae260001b616e21565b61351d82826173c8565b5050565b600060c960009054906101000a900460ff16905090565b613540616f9a565b61354a60006174fa565b565b613554616f9a565b6135807f7d2a8a7708b7f37fe55925a4933f90ee627d5a5d67bad6b6a63f06303a85729460001b616e21565b6135ac7f8cb4e561f541af4f96accd0df19f4468d0795e04d0ca948aa82f8132757dd34260001b616e21565b6135d87f0bd639348673e84d8d321f596372d7464427d148f6edd273c3da16220e7b942a60001b616e21565b8060fe60006101000a81548173ffffffffffffffffffffffffffffffffffffffff021916908373ffffffffffffffffffffffffffffffffffffffff16021790555050565b600061364a7f91a7f2a77c711af42ced419cb166dcb479c80f4eec0dc413f1805865205cd80060001b616e21565b6136767fe38f5e079c0bb10b926c308bbda755d4291bcf647875447dbec3891817646d8660001b616e21565b6136a27f673dace2b1bb8b97227be5edf815c021baa3d7e4b0051082ea1594d1f26b477060001b616e21565b61010460008360028111156136ba576136b9619e77565b5b60028111156136cc576136cb619e77565b5b60028111156136de576136dd619e77565b5b815260200190815260200160002060009054906101000a900473ffffffffffffffffffffffffffffffffffffffff169050919050565b6000806000806137467f7580ef7c326038746f893cb359686b3d3852ef5662e015e9ae5b887daa99924760001b616e21565b6137727fc4caacf45c8e6595d5bf0137a0503d677a438f21a2ff081bc319b885d75da30e60001b616e21565b61379e7f2d497a0a7d0d52b5c26e91e1d673dba1649e0c7dc539ff5f3b212ae642bbd8e460001b616e21565b610107600086815260200190815260200160002060000160049054906101000a900463ffffffff1663ffffffff1693506137fa7f12738341ac7f1e49d5b5e7bfb56c15cc18bd5ee065cb9e09ce0b48ba5d2dd1ba60001b616e21565b6138267fed0490a59766060a3019f7d325d30f0a380c6e427f7c1fd739a3e143b64bd74c60001b616e21565b610107600086815260200190815260200160002060000160009054906101000a900463ffffffff1663ffffffff1692506138827f44f079c448ce02c06994d0e4aeea593cd38421751afbd9edd860cf1b689ec5e760001b616e21565b6138ae7f54b842eb7aabd744603afbfb218290710d9c568d84ea7b0c243f3f420741a7ae60001b616e21565b610107600086815260200190815260200160002060000160089054906101000a900463ffffffff1663ffffffff16915061390a7f67d68cf201dbcf84a708f904e99543d40f09a288ee66ffc03d08ba938a860fab60001b616e21565b6139367facb6db47531ac84395776077585bfbc0db359b332e6ff157783ffdca435b256660001b616e21565b6101076000868152602001908152602001600020600001600c9054906101000a900463ffffffff1663ffffffff1690506139927ff02d3d2f7c11c670a732b977850beeda1da65717f2a9ba2ffbec2213e8c578b660001b616e21565b6139be7f5513d3f05beffc85b130db9d57f5339aade7952feff36eb6a609df79c28423a960001b616e21565b9193509193565b6139cd616f9a565b6139f97fffa1cbd61b5188e7cecca6fef88e20404d9fbd511a701cae379776485a8175fe60001b616e21565b613a257f08e1ae38c6590360183a5c53fb9d395cb9ca8bdf1c490e0551458025f0b5e61160001b616e21565b613a517fb2629e46020567511ae5ce142209c76f0ae1b254671b9d14b848bba120bb300f60001b616e21565b613a59613521565b613aee57613a897ffa5e0c7ae9dd59cdc49e145e5417f7b62fede462b820b128d5fcd8c188f273e160001b616e21565b613ab57f5e89c11b0e4b8377c2d2617b90c47c5f1e9494447e60b332a1594ae4f611293d60001b616e21565b613ae17fc3204c5fbdcc81d7e5c2c341e9bfa89798807d8596d26348415abc39e845126d60001b616e21565b613ae96175c0565b613b7b565b613b1a7fb6b01772a57b76f994b0a8c1c9e8a4f1755b7de5866538299496a3e543be4cc360001b616e21565b613b467f8ae9219dbfc766dc7c0a9450a02c6576037935b7f88a6057b8dc719b1be5ac8960001b616e21565b613b727f70c67238fe55693f002390e5c0b284dd5d385af98a4a474b2866eb2e8ef8ec8160001b616e21565b613b7a617623565b5b565b613b85616f9a565b613bb17fa60af17c34c570958c6ff39e3064247e42276a858c288514abe3c43ec884a5e160001b616e21565b613bdd7f5649e7403cc6bb1bab1918ff0ead638d9d7b33c5c2b56e5621112415c5b1276c60001b616e21565b613c097f9f646607f1c53f9fd2d0fd3f9a65768ad62015b84d87f52fb2506f7540760f3460001b616e21565b613c14838383617686565b505050565b6000603360009054906101000a900473ffffffffffffffffffffffffffffffffffffffff16905090565b6000613c4d616f9a565b613c797feeebc5b92d8aa3dd3503af9af310c330d09656ec91fb7b1b7ef5f253ca7bee6160001b616e21565b613ca57f3ad991ec417a45ad22ef5bdf37a23fb2731a97c7eb5c494bbb7f83dad3b2666d60001b616e21565b613cd17f0ccada9078ae5a5ac8f874996ed274acefd10432ea344f4a98adb371da3c96c760001b616e21565b613cfd7fd03952de2567c3cd856a9506cf8212038197eca7c2bb2922fbfdbbe742f5d74c60001b616e21565b600060058b613d0c919061a16e565b63ffffffff1614613d52576040517f08c379a0000000000000000000000000000000000000000000000000000000008152600401613d499061a1eb565b60405180910390fd5b613d7e7f979935b38a589aa64a0dfdd58197a7c68734d70d51296b6d51d4aabf71e8819c60001b616e21565b613daa7f900f3714becaaa978b485924b90c946778331e15f2b32583e809bb7e1b27fd8560001b616e21565b613dd67fd4cdf3ed13de6bd722a7a5c1c61772fbf032150e9e6deb0d0dda683b801fb63a60001b616e21565b613e027fc26a498cbdfc9c95a7ff378bb54f5c51bf7153a298bae2d40b13b697fbb678b860001b616e21565b60008963ffffffff1611613e4b576040517f08c379a0000000000000000000000000000000000000000000000000000000008152600401613e429061a27d565b60405180910390fd5b613e777fd5f037b351259dbf7c7e95cbf1d6f64815b3f33dc5458121fe0c5304b628d6ec60001b616e21565b613ea37f39c0f5fcdcefe98d1412ab60f4ed8fd6901519773516bff7091388e4a7dbc01b60001b616e21565b6101016000815480929190613eb790619a6e565b9190505550613ee87f01c0920cf32c0a0d074d6b7817a869c5fa2069c5d3e4e5df4ec04139e55ae46d60001b616e21565b613f147fa7c24349a8dcd7dcf10a93d112a560b1b046c90360018f24fdf43db40982955660001b616e21565b6000610101549050613f487ff6477d8ce3d91b4979b6e81c43690f4740f74913d04660d03e1e612a7c7fb2ff60001b616e21565b613f747f4bce61417c8174678a2dbcfde66d2c8b8b616dc88b703617e7c8cc4074d7102660001b616e21565b8a610107600083815260200190815260200160002060000160046101000a81548163ffffffff021916908363ffffffff160217905550613fd67f7a3ba7b0939c5a693a3692da0b4ec9c2ace6318724014e8ccd7f0596f831aedc60001b616e21565b6140027fd766870d79ef23e4e5e7506a540e4fd7825b50b17f74d21d9227e229563ec5bf60001b616e21565b89610107600083815260200190815260200160002060000160086101000a81548163ffffffff021916908363ffffffff1602179055506140647f3397979905e14780486abbedc9f601e1fe9b2d1cb4baf77eeb93cf168ef9c3f160001b616e21565b6140907f6ad1eae5fe778fc823e8a08cbe9a87e1a919db1b18dac90238d29c9cfc19726360001b616e21565b886101076000838152602001908152602001600020600001600c6101000a81548163ffffffff021916908363ffffffff1602179055506140f27f4f0de8fed92e5f6a355498b9ed35764f43c55b30ab2fee711abf06fd318c58b260001b616e21565b61411e7fd702a30665475333542ad0099c4423e76711531fde84392b69dee64cda0b0d0f60001b616e21565b87610107600083815260200190815260200160002060000160006101000a81548163ffffffff021916908363ffffffff1602179055506141807f903dcaa14eb79de70b9b23a3724009681997ae3b6b672526b591409f152e257160001b616e21565b6141ac7fa4da3cafb8dfebb3158836ba55ccd805f61515dab6a64b8edb5aea5eb69ea6b760001b616e21565b7f7296f5fa391687be022b0baddb2ec8adabc082c89fa302b5acd49b08bd9e4615816040516141db9190618679565b60405180910390a161420f7f0ec5b03b295b42cf7fe4b2fd409591640123db8f2e584ce27e54700d52dfd8dc60001b616e21565b61423b7f150a4e2aa516046417ea15992d97f201c55989ad605b2f9cb485e2b34c5cbd0460001b616e21565b614246818585613b7d565b6142727fd3dacad3d9b32a0f33334264165a1e326e081931812ade7967011abee3476c9c60001b616e21565b61429e7ff071b76b504123e5df739ccfc5a2b8d31ade94b3932ac42c1e54487ddedafe2060001b616e21565b6142aa81888888610de6565b6142d67f868bc4574c332451dbf13071e946acd229d421dae6c0070e2fdc85efe90323f660001b616e21565b6143027f0e020a60fe9feb4898b571b99ab90cfaf56f8508ce2bc0b93e4a322d83d6ae6360001b616e21565b809150509998505050505050505050565b61432561431e6173c0565b83836177cb565b5050565b60006143577f741f639b4927c85e784789ee6a184343ce08a75a9fcd48f983be82fcd1da1ca260001b616e21565b6143837fda8a99048be609f0983fac8a6d067271f73f74b034a432e79f9dba81d92b0c6360001b616e21565b6143af7ff70dbca41e93db41e82987a50d84be4e7e5595ce2e306b27b02834836aa9115360001b616e21565b61010154905090565b6143c0616f9a565b6143ec7f826e05e858fc954df6639af98e970e56d2d1689e57fc8d360a4147bc0d4b84a060001b616e21565b6144187fc000810bc6a398a1f12c406a7089f49b02ee0e94797bc46adefcb011e3c31a1660001b616e21565b6144447f12ecad670884ebe9b6d6b644d5776274fb903834ad825974f160a2308942378960001b616e21565b8060fc60006101000a81548173ffffffffffffffffffffffffffffffffffffffff021916908373ffffffffffffffffffffffffffffffffffffffff16021790555050565b60006144b67f8541f58034a180e2b90485b295b14dc3c4d1d611921b7aac0e73a3970986d58960001b616e21565b6144e27f16509e4bb8cf5390b853c2efb17dc9de38fc04e0aeda9de17fb75a689ecd685260001b616e21565b61450e7f8913bf013bad3454ee0668abb19680ecd1e423816d65cce213d6bfca4e55070360001b616e21565b7fbc197c819b3e337a6f9652dd10becd7eef83032af3b9d958d3d42f669414662190509695505050505050565b60006145697ffc457e6d3f1b3026a4c0e1978f1e129cae842dfb309bc1d925952fd2963f9c6e60001b616e21565b6145957f2ba76d2f287f9972ca4ed2a6b7411e5ad1053c3ec34051ea2ca15b8de16c864f60001b616e21565b6145c17f3064cee1682a87ef5522275c5503c33b57432a245cc171231c8ac8f0638ca4b660001b616e21565b61010254905090565b6145d2617376565b6145fe7ff94db835698e3b13542692a5338f99d39ecddf0caa2ce80416bd267bda6c986360001b616e21565b61462a7ff8676a5ed3da52506030d514f886e6512b281183ab8cc25c8fa76c328331246860001b616e21565b6146567fd5db1215656b22437d3adb7756e31c3557154aaad813a311728296c5888aa5e760001b616e21565b6146827f414d2a0a10b431a50d467d13f289f38cfe61878e3fd8125f9646319b071501a960001b616e21565b60fe60009054906101000a900473ffffffffffffffffffffffffffffffffffffffff1673ffffffffffffffffffffffffffffffffffffffff166146c36173c0565b73ffffffffffffffffffffffffffffffffffffffff1614614719576040517f08c379a00000000000000000000000000000000000000000000000000000000081526004016147109061a30f565b60405180910390fd5b6147457f1bce773ff92c167936d86119d7f8a9d55ca8c15007c7af8b4e5259c78a19ae9060001b616e21565b6147717f991b01e9871a861e9bee1aded8e598de32cb8b5f4c7a2a806bbd8f6ac4d9aae260001b616e21565b61479d7f2e3c4dc0fb16f1d2335af478bd6d7e08c781e643a6fa3841a18a110a82a360cc60001b616e21565b8061010960008573ffffffffffffffffffffffffffffffffffffffff1673ffffffffffffffffffffffffffffffffffffffff168152602001908152602001600020600084815260200190815260200160002060000160108282829054906101000a90046fffffffffffffffffffffffffffffffff1661481c9190619f7f565b92506101000a8154816fffffffffffffffffffffffffffffffff02191690836fffffffffffffffffffffffffffffffff160217905550505050565b60006148857ff495d52ad5559d31a433a1d660c6d44e3599703789c282963b970d9d67dbf0da60001b616e21565b6148b17fda766559ca18bf188a55b490b270dd696966bee556e1a49ce0263f645425fb0660001b616e21565b6148dd7f4f668b469344d01e83f2c21ca48edb8a804127129a714ff3ed89a3ae054ab12a60001b616e21565b61010960006148ea6173c0565b73ffffffffffffffffffffffffffffffffffffffff1673ffffffffffffffffffffffffffffffffffffffff168152602001908152602001600020600083815260200190815260200160002060000160109054906101000a90046fffffffffffffffffffffffffffffffff166fffffffffffffffffffffffffffffffff169050919050565b614976616f9a565b6149a27f1699e38cff05fa366a80b895d47715e7dda30a62fa0ee0c5397ddb22ab8c97db60001b616e21565b6149ce7fa6906b31089f4e4cd8ee06d8d619cb64f662a5b71e6655265ac204bf5f0bf45d60001b616e21565b6149fa7fdca23033f4d33436990f4d1e07bd35e9c8e7c0db20b680191343379a7be9bf3a60001b616e21565b614a267ffb0e97ca6a591e762ac31341ea5655c31e4ff480163cc769d1d1a557b602f49e60001b616e21565b61010154851115614a6c576040517f08c379a0000000000000000000000000000000000000000000000000000000008152600401614a6390619b03565b60405180910390fd5b614a987f07918d8d88852773d83c0b895d0605e0c6121d869eaca02682e424485bc48d3560001b616e21565b614ac47f683dcc0f365e8516d1582431d4d92eb74ce9d31c49b78b68dde91b29c4c10b7c60001b616e21565b614af07fe9443581d5e78bf0833a96d1dd86d77fee7fe43f2e670dea0f9050123e3109ef60001b616e21565b614b1c7fd883a6c9f2ee9cfbc894524daae0091588e34652169a6a8c5ba134ceb6330c4460001b616e21565b6000600585614b2b919061a16e565b63ffffffff1614614b71576040517f08c379a0000000000000000000000000000000000000000000000000000000008152600401614b689061a1eb565b60405180910390fd5b614b9d7f0b9531cc7f712daee54671614f4cb1436462ed29666398283b82519b1b255a9460001b616e21565b614bc97f2020500ea3a4dc420b3d5bf9989e5d5915342dc13476269e98a3948321f62eb760001b616e21565b614bf57f8ac453a07802588bf6716ddc41ef3843de3a0de6c64e3f9aa7a160480d88d39160001b616e21565b614c217f9278efe49291a67b59d2bf5175e804eb8ac3bb1e09e532fff2588a50c9c8c09260001b616e21565b60008363ffffffff1611614c6a576040517f08c379a0000000000000000000000000000000000000000000000000000000008152600401614c619061a27d565b60405180910390fd5b614c967fb709e3d455d07323a6a5df60ee9547d7bcee4e47a5b6370314b1ce82c82027f560001b616e21565b614cc27f45acaf079dbfacae4241167cc978fcbd3ff52763096ed16509ac9a7a9e6ebef860001b616e21565b614cee7f1616e80b6e6f2a00629a088c654f121b93fe22e37d5325e3ea31538661e91b0d60001b616e21565b83610107600087815260200190815260200160002060000160046101000a81548163ffffffff021916908363ffffffff160217905550614d507f7cca1636e3ae98b4aa546ef7bbebf365a20d3e40e2ab5f3d3b106c1a8abd80f160001b616e21565b614d7c7f8bcc5fdde7ee65873a8fb4db8f016635c0153c1c52a4fd210e5234d4f7e8534560001b616e21565b82610107600087815260200190815260200160002060000160086101000a81548163ffffffff021916908363ffffffff160217905550614dde7f7fbdd76fb34bfe46c83a713548fbb2db91979f63b82e7c615a3a496601516c4160001b616e21565b614e0a7f07f60b995c20ad523e138d1980eec23bc32da985aabe6eade3141256e0a60c4e60001b616e21565b816101076000878152602001908152602001600020600001600c6101000a81548163ffffffff021916908363ffffffff160217905550614e6c7f3662416ff951ecddb3edcb6741854b4f1b5e8f0edda79698484b7e5698d2c34360001b616e21565b614e987fe394a205f56fb419d8fd5682379bc847f058ca845c3b8ba7261f0ac65f6c954260001b616e21565b80610107600087815260200190815260200160002060000160006101000a81548163ffffffff021916908363ffffffff160217905550614efa7fd2887792d5b755e82d7ee4dc545044b1cf4a8ee935f02f46effbe7b22b5ed8ff60001b616e21565b614f267f8fe62048df2eea020d3279fee7a30c323f5e890bb4f1437637c3be3b067423c760001b616e21565b7f0d941a060da7489cee731e5f3679ce755c90811e0811066c59392d5bfe19401285604051614f559190618679565b60405180910390a15050505050565b6000614f927f35e831ef5f2a72c09e6f97f2ee3e1171818359a5f545c17af8d093a62ffc527560001b616e21565b614fbe7f4b23c9b00e2a14c84703deeeba87bdd0fb16c435b327a59ba8e4380edb622b2e60001b616e21565b614fea7ffdacf576698bfbdde41d49f56d2bc33fed0a77b71be29ffb529d1eb0065d0b2d60001b616e21565b61010354905090565b6000609860008473ffffffffffffffffffffffffffffffffffffffff1673ffffffffffffffffffffffffffffffffffffffff16815260200190815260200160002060008373ffffffffffffffffffffffffffffffffffffffff1673ffffffffffffffffffffffffffffffffffffffff16815260200190815260200160002060009054906101000a900460ff16905092915050565b60006150b57f83186a7e4a93038e9f5ad3da92a604bea5413f566195337051b4f7baa6268f2b60001b616e21565b6150e17f9f37ab514f99da226332f7455530f9112fa612e6848a76c4c034b6dc780239c460001b616e21565b61510d7fdc251fced91f83d45f69c9cffaacb14359e632e96122a1c923e52a6859078f2360001b616e21565b60fc60009054906101000a900473ffffffffffffffffffffffffffffffffffffffff16905090565b60006151637f9b42931b2c31cc79a50f464bb34c173c472752981dcaa5e8624cfb9c8e711a8160001b616e21565b61518f7f7141ff1763b1dbc330d5ae6eb9c0259d3f3e8ad68e8e81ced8b07d9451b9f98d60001b616e21565b6151bb7f2a88dabda3e170938990df3d2c4fdeeb558cf1d01d25da788ff63d3e2957df6860001b616e21565b7ff23a6e612e1ff4830e658fe43f4e3cb4a5f8170bd5d9e69fb5d7a7fa9e4fdf9790509695505050505050565b6152147f6094f3617291f811521a811e4698a362d15794ea5bc4081415ebacb6d16dbdb760001b616e21565b6152407f88c39a7a865d2fe812fe23cc57b77a1033b0e0d5663dfe888d9092013c0b9c4660001b616e21565b61526c7ff8d7f8031978bad9dd8ffee8fa9ed69f957d78a3ce4ff0c32d2fd3d22045f39260001b616e21565b6152987f7f797de21be17a00508ecead9747cd90e20857c28283b68f58202578b206ac2860001b616e21565b600182146152db576040517f08c379a00000000000000000000000000000000000000000000000000000000081526004016152d290619dc5565b60405180910390fd5b6153077f18cb50a1b6b1fa9b4232f76b0eca05419671033fd220110f0465fa5ffc30a71660001b616e21565b6153337f601530d44811302b66802e7a5ed272d31fa073a0549cf793d8aa7d1890cf555560001b616e21565b61535f7fd01c4a5dfe69efba60d962b876cfcb7b7afade10d51c5712b87a9dfed0ec443560001b616e21565b600061010960008773ffffffffffffffffffffffffffffffffffffffff1673ffffffffffffffffffffffffffffffffffffffff168152602001908152602001600020600085815260200190815260200160002060000160009054906101000a90046fffffffffffffffffffffffffffffffff166fffffffffffffffffffffffffffffffff1690506154127fb82a02dd3ea80864c5eac170b4f141b5b62502c23155c73f5af1f50b521450c760001b616e21565b61543e7fbbfd687b198a13fae50508ac55e6cc0eac75bb6d018cd1c6a99f56cfd9ffc94460001b616e21565b61546a7f7a7145d88f4fd058c9f6de248f471476401b7c9e8a9265d53f02d78386d70b1760001b616e21565b600081116154ad576040517f08c379a00000000000000000000000000000000000000000000000000000000081526004016154a49061a37b565b60405180910390fd5b6154d97fe2b10542d9013e24b3987542609b7493b9ce8da0807fb07e47a52246529db27460001b616e21565b6155057f7306deed3e3c2ca00a8e184d165f38d60b158a643a2e6df4624660a47e723d2160001b616e21565b6155317fc82690133383ab1e7a50af9be02e55bbe5afb862f455e143257af7a8116efc2a60001b616e21565b61553e8686838686617938565b61556a7f8285e90c3b912ae515d853747df7d95b03316cb91370f74259b5b472b769dd9960001b616e21565b6155967fc7f56fadda08ec5de9c4a7e22519e54cc597d5326132023348f500345bda35de60001b616e21565b61010960008773ffffffffffffffffffffffffffffffffffffffff1673ffffffffffffffffffffffffffffffffffffffff168152602001908152602001600020600085815260200190815260200160002061010960008773ffffffffffffffffffffffffffffffffffffffff1673ffffffffffffffffffffffffffffffffffffffff16815260200190815260200160002060008681526020019081526020016000206000820160009054906101000a90046fffffffffffffffffffffffffffffffff168160000160006101000a8154816fffffffffffffffffffffffffffffffff02191690836fffffffffffffffffffffffffffffffff1602179055506000820160109054906101000a90046fffffffffffffffffffffffffffffffff168160000160106101000a8154816fffffffffffffffffffffffffffffffff02191690836fffffffffffffffffffffffffffffffff16021790555090505061571d7f26270807a1a137b9a7e438975872619522202fcd74d72f388c7b2fa7c84d18ae60001b616e21565b61010960008773ffffffffffffffffffffffffffffffffffffffff1673ffffffffffffffffffffffffffffffffffffffff1681526020019081526020016000206000858152602001908152602001600020600080820160006101000a8154906fffffffffffffffffffffffffffffffff02191690556000820160106101000a8154906fffffffffffffffffffffffffffffffff02191690555050505050505050565b6157c7616f9a565b600073ffffffffffffffffffffffffffffffffffffffff168173ffffffffffffffffffffffffffffffffffffffff161415615837576040517f08c379a000000000000000000000000000000000000000000000000000000000815260040161582e9061a40d565b60405180910390fd5b615840816174fa565b50565b61584b617376565b6158536173c0565b61587f7f26f2cb1faaf12fc528b414744a4a90db7ea8d754710f9cbc97f194445890f8ff60001b616e21565b6158ab7f2df17c2152180b16071e9fd161f63b974c266dad30aee8b16a7ef3fb4ecde4d660001b616e21565b6158d77fbca9ce13a6c07b9b13efa3c13b81ca8331592038bd3eba886b5af3b1290e08cc60001b616e21565b6159037f1b65655c39d33663f4e3df534bc75aec413c19c75a9b414faaa26bff2290243160001b616e21565b60fb60009054906101000a900473ffffffffffffffffffffffffffffffffffffffff1673ffffffffffffffffffffffffffffffffffffffff1663c23697a8826040518263ffffffff1660e01b815260040161595e9190618e8b565b6020604051808303816000875af115801561597d573d6000803e3d6000fd5b505050506040513d601f19601f820116820180604052508101906159a19190619c74565b156159e1576040517f08c379a00000000000000000000000000000000000000000000000000000000081526004016159d890619ced565b60405180910390fd5b615a0d7ff73ad0f726c3d4639bab7341bef5adab8945cb1a7c20adba33e60e3a79f438de60001b616e21565b615a397fe1a80724e598367ba851f88d493dfc306aee8eb2a066b4a7f42f1bd87af3557d60001b616e21565b615a657fbcd3307392063e183470be6af9fe7d7ba1dd4924d8665429d7490603458eb89260001b616e21565b615a917f3d352c5dae7e67f1c66d96c36206f0108824165e76f952ce433a4cd55e4bc8c260001b616e21565b615abd7f843c32f2cfdb632de46456b2a0fc7f5474b1515dc0942f9fdd83db076d48f7b360001b616e21565b6000615aeb7f6267c98144bc9a49fc5eca0b23b98e880f6c9a0a7c65d3e574ff7f57dbe2575c60001b616e21565b615b177f85fbebb008ff58b0988a213c3ec234037f3dcf8cf721561e33f8625fc8f249ff60001b616e21565b6060615b457f6115510a383f1fb615a32cfa80bca370bf9f7c0430aabf6b94b4a6f96ac96bbc60001b616e21565b615b717ff211510d5027f61b385a1a916db83f542e5c39f0c0e75ba6dd7b86a77728203f60001b616e21565b615b7a84616acb565b8092508193505050615bae7f17fc1440a038bbc075a2737076fb016350e69ec3b19c512288829a542ab8118a60001b616e21565b615bda7f749f5860fd930722b07de2bf948b56a8defa4c06481db1bee1d160aa7bd37af360001b616e21565b6101046000600280811115615bf257615bf1619e77565b5b6002811115615c0457615c03619e77565b5b815260200190815260200160002060009054906101000a900473ffffffffffffffffffffffffffffffffffffffff1673ffffffffffffffffffffffffffffffffffffffff166323b872dd615c566173c0565b60ff60009054906101000a900473ffffffffffffffffffffffffffffffffffffffff16856040518463ffffffff1660e01b8152600401615c989392919061a0a5565b6020604051808303816000875af1158015615cb7573d6000803e3d6000fd5b505050506040513d601f19601f82011682018060405250810190615cdb9190619c74565b50615d087f6612e2ef5e2640b0b0c31594a0b57d76a08d8598b415c2b69798621a83b0842560001b616e21565b615d347fc1f13096407734df4f46ac016b89ae4b8f25c4b838c9f4065b6f6f6d7c6e3d0a60001b616e21565b610104600060016002811115615d4d57615d4c619e77565b5b6002811115615d5f57615d5e619e77565b5b815260200190815260200160002060009054906101000a900473ffffffffffffffffffffffffffffffffffffffff1673ffffffffffffffffffffffffffffffffffffffff166323b872dd615db16173c0565b60ff60009054906101000a900473ffffffffffffffffffffffffffffffffffffffff16600586615de1919061a42d565b6040518463ffffffff1660e01b8152600401615dff9392919061a0a5565b6020604051808303816000875af1158015615e1e573d6000803e3d6000fd5b505050506040513d601f19601f82011682018060405250810190615e429190619c74565b50615e6f7faefe2d5e1129d4c08604f9dcc35829437e77f7e73b70f70dce66f0a4eda74d0660001b616e21565b615e9b7fd878da716b3fcac229376e106c271695ae63898d3c05b3781e9c795ebede460b60001b616e21565b60005b81518110156160cc57615ed37f81b573cce036e4e369d910f92c558f1bbd4d8521e09c04872d967c1527891cda60001b616e21565b615eff7f7d9818486579b231886f5d8822c04cc59c7655426bed0d4f20bcabab23e5f06860001b616e21565b6000828281518110615f1457615f13619b8f565b5b60200260200101511461608c57615f4d7fd3fdb16fec652149043f8bc7c32d051279106cfad4db071263f82a0e5201a22560001b616e21565b615f797f0cddfb22981acf13697945c64583dac7fc3c6f1dcc802d5fe98263d1dbf28c3460001b616e21565b615fa57fa871b95903823516c002d9173c262868aacf62553bc24fb7d6ebb2a7db07192b60001b616e21565b60fc60009054906101000a900473ffffffffffffffffffffffffffffffffffffffff1673ffffffffffffffffffffffffffffffffffffffff1663f242432a615feb6173c0565b60ff60009054906101000a900473ffffffffffffffffffffffffffffffffffffffff1660018561601b919061a487565b86868151811061602e5761602d619b8f565b5b60200260200101516040518563ffffffff1660e01b8152600401616055949392919061a514565b600060405180830381600087803b15801561606f57600080fd5b505af1158015616083573d6000803e3d6000fd5b505050506160b9565b6160b87f7567064e53aebb6743626ac96c2f9165add39d0abdcc97a3176bf1f5c967e78160001b616e21565b5b80806160c490619a6e565b915050615e9e565b506160f97f14dfecb649193c0a1329de51f68e248a817c5bdd8f25955980ff8018cb83fa2160001b616e21565b6161257fc4b65254a9fb5374d0c3990f2ca6539a3bb24ac6f70d2b89cda7188200cb049260001b616e21565b6161486161306173c0565b856001604051806020016040528060008152506179d9565b6161747f542eb5298c0876fd5bced6e0d7088dcaec324c92c75d9b9a94e95a2384b2f8bd60001b616e21565b610100600081548092919061618890619a6e565b91905055506161b97fa40e967e535b6b2901de43d53cf8ce88955c6a28102d8225bd03331ce0c6cad860001b616e21565b6161e57f0ce46119a2d514c90abc0bbd96032fd00e5fc32181f255ef346ec7268bae94ab60001b616e21565b6040518060400160405280856fffffffffffffffffffffffffffffffff168152602001610107600087815260200190815260200160002060000160049054906101000a900463ffffffff1663ffffffff166fffffffffffffffffffffffffffffffff1681525061010960006162586173c0565b73ffffffffffffffffffffffffffffffffffffffff1673ffffffffffffffffffffffffffffffffffffffff168152602001908152602001600020600061010054815260200190815260200160002060008201518160000160006101000a8154816fffffffffffffffffffffffffffffffff02191690836fffffffffffffffffffffffffffffffff16021790555060208201518160000160106101000a8154816fffffffffffffffffffffffffffffffff02191690836fffffffffffffffffffffffffffffffff1602179055509050506163537f116a00d6173939fad0146a0cee97d61041d8cb9dca1874f09b6bf933319089b660001b616e21565b61637f7f69e2b3ea7552e27ba3341612c84fc23083eca971b90c301b7340d0cdc02cbbc560001b616e21565b7f82bf558222c4c37aae80230f0a656373f327bcc6f1ac1ef73c385d4dec21b2236163a86173c0565b856040516163b792919061a56c565b60405180910390a150505050565b6163cd616f9a565b826163fa7f26f2cb1faaf12fc528b414744a4a90db7ea8d754710f9cbc97f194445890f8ff60001b616e21565b6164267f2df17c2152180b16071e9fd161f63b974c266dad30aee8b16a7ef3fb4ecde4d660001b616e21565b6164527fbca9ce13a6c07b9b13efa3c13b81ca8331592038bd3eba886b5af3b1290e08cc60001b616e21565b61647e7f1b65655c39d33663f4e3df534bc75aec413c19c75a9b414faaa26bff2290243160001b616e21565b60fb60009054906101000a900473ffffffffffffffffffffffffffffffffffffffff1673ffffffffffffffffffffffffffffffffffffffff1663c23697a8826040518263ffffffff1660e01b81526004016164d99190618e8b565b6020604051808303816000875af11580156164f8573d6000803e3d6000fd5b505050506040513d601f19601f8201168201806040525081019061651c9190619c74565b1561655c576040517f08c379a000000000000000000000000000000000000000000000000000000000815260040161655390619ced565b60405180910390fd5b6165887ff73ad0f726c3d4639bab7341bef5adab8945cb1a7c20adba33e60e3a79f438de60001b616e21565b6165b47fe1a80724e598367ba851f88d493dfc306aee8eb2a066b4a7f42f1bd87af3557d60001b616e21565b6165e07f55eb7097b9f1e36cf813f588a05714ece173a106a3f4a6118a47e1fe654d48b360001b616e21565b61660c7f2483650cd04ff757e06ace031a429239b72835cf00d2f85e3fb1898aa2d76a1860001b616e21565b6166387f01a809b76140b11f6347e32bf17ed724a7306e26cfd73df3841aa35fd13ba51460001b616e21565b6166647f8d173b933db44604f81ab82036012b936e19f8961fbded6a924dcc7b9863f23160001b616e21565b60006101015414156166ab576040517f08c379a00000000000000000000000000000000000000000000000000000000081526004016166a290619d59565b60405180910390fd5b6166d77f2faa3b7aba3b48869da718955c1c635bf93294f7e9976122d16f1bad5e4d6a1560001b616e21565b6167037ff33807f2d68f7b5532d58aa0126300b2aee3d8c49403b9ba9ca8d1315a6c770460001b616e21565b61672f7f26594cad72123955eb3a39d7a4343b1fc1f5e07b37b88982cbb6a5e6b2376a7c60001b616e21565b61675b7f30891ea54607f8809f53442c85244b9441f55374361313ac55dfde29250bcc4860001b616e21565b61010154836fffffffffffffffffffffffffffffffff1611156167b3576040517f08c379a00000000000000000000000000000000000000000000000000000000081526004016167aa90619b03565b60405180910390fd5b6167df7f713c43f37851f91f1eb88916db3c54ccd29c80b736210934a8e2cea856e5658b60001b616e21565b61680b7f4c4b67fc9683637555f9e483cf8373234a029a5f7e1b6cc8ed0e926853283e6260001b616e21565b6168377f44bd35c713e8705fdd2934e35092639ce89c68e5d7e5f290b565fa98f6d9015860001b616e21565b61686484846fffffffffffffffffffffffffffffffff1684604051806020016040528060008152506179d9565b6168907fc60ea4091803cc5c2ccbb9f31365d64a2a540398da580ecef3585a1c5322eeee60001b616e21565b6168bc7f8f23cb65df6fe310af81ba89b75b5a84a48e3af48c5350102592ce6a4935770060001b616e21565b60005b82811015616ac4576168f37f036cf4797d8ce821b7cd19eaea55a4626cefa2ebbbcee963d7b4282b272828f960001b616e21565b610100600081548092919061690790619a6e565b91905055506169387f66c18579c468a94e0d4ab759b8385d37d177291f5b83b0a658bf07df67720e4460001b616e21565b6169647fb4b3eff78e6560bf717623e2f9bd005e93b743d4b10d50c7b28733f0c17a4c6660001b616e21565b6040518060400160405280856fffffffffffffffffffffffffffffffff1681526020016101076000876fffffffffffffffffffffffffffffffff16815260200190815260200160002060000160049054906101000a900463ffffffff1663ffffffff166fffffffffffffffffffffffffffffffff1681525061010960008773ffffffffffffffffffffffffffffffffffffffff1673ffffffffffffffffffffffffffffffffffffffff168152602001908152602001600020600061010054815260200190815260200160002060008201518160000160006101000a8154816fffffffffffffffffffffffffffffffff02191690836fffffffffffffffffffffffffffffffff16021790555060208201518160000160106101000a8154816fffffffffffffffffffffffffffffffff02191690836fffffffffffffffffffffffffffffffff1602179055509050508080616abc90619a6e565b9150506168bf565b5050505050565b60006060616ad7617376565b616b037f4f3f3b441132066daed8b1397f82ec247d47ec49bd895606c9e0714a04616b6060001b616e21565b616b2f7fa8505de1419832b0862df90e8330cc78d82af009769bd969f22e5a29d2f2274d60001b616e21565b616b5b7f6c8bafb0cc80727356c1206bfbc1c1fb23c73c490fc8c148206e0c5b75e9579160001b616e21565b6101025467ffffffffffffffff811115616b7857616b77618a2f565b5b604051908082528060200260200182016040528015616ba65781602001602082028036833780820191505090505b509050616bd57f8c05e980c4e384f93dc2b1a4baf9e0033a8f6ecdf193f45cf513dd8cd5530f1860001b616e21565b616c017f94cc5421cac9afbe6068eec3721051b7cf489f619028e674fbc8366838dbba5d60001b616e21565b6101086000848152602001908152602001600020600001549150616c477f523b47ed1b2d4aff7fb9a877c9ce11a31058c5225088aac1024f1236d49df64a60001b616e21565b616c737f74074ca2473d80de4d92ea993c8db9eed3c9eb7f94925cc1bb152d35925d070c60001b616e21565b60005b61010254811015616e1b57616cad7f980b454fe58bd5aa3828c51323a3ed0a69bdcf7e08c5638295d333f273cd55f960001b616e21565b616cd97f078a147923d985abece0d2b1122e52e1a6eb488e6c31f59e30e0ffd4e296d3f960001b616e21565b600061010860008681526020019081526020016000206001016000838152602001908152602001600020541115616ddb57616d367fc0ee9c5c736c439c56e528e1f429b59441b0cddcd310dcaca2a399e4c7632ec060001b616e21565b616d627fabf30d8addb9db563ccefb1a6160b4a3effecfe333ae942ae714ddb5f7cb0df460001b616e21565b616d8e7f3fb3021671c7780a0108b96487e9e5ff8ddbab5194d96482d37eb3a1963abe2960001b616e21565b6101086000858152602001908152602001600020600101600082815260200190815260200160002054828281518110616dca57616dc9619b8f565b5b602002602001018181525050616e08565b616e077fb3949832f68589d766a4f2b974553453104651f4d916f3e086292c20727f262260001b616e21565b5b8080616e1390619a6e565b915050616c76565b50915091565b50565b60007fd9b67a26000000000000000000000000000000000000000000000000000000007bffffffffffffffffffffffffffffffffffffffffffffffffffffffff1916827bffffffffffffffffffffffffffffffffffffffffffffffffffffffff19161480616eef57507f0e89341c000000000000000000000000000000000000000000000000000000007bffffffffffffffffffffffffffffffffffffffffffffffffffffffff1916827bffffffffffffffffffffffffffffffffffffffffffffffffffffffff1916145b80616eff5750616efe82617b8b565b5b9050919050565b606060998054616f1590619887565b80601f0160208091040260200160405190810160405280929190818152602001828054616f4190619887565b8015616f8e5780601f10616f6357610100808354040283529160200191616f8e565b820191906000526020600020905b815481529060010190602001808311616f7157829003601f168201915b50505050509050919050565b616fa26173c0565b73ffffffffffffffffffffffffffffffffffffffff16616fc0613c19565b73ffffffffffffffffffffffffffffffffffffffff1614617016576040517f08c379a000000000000000000000000000000000000000000000000000000000815260040161700d9061a5e1565b60405180910390fd5b565b600073ffffffffffffffffffffffffffffffffffffffff168473ffffffffffffffffffffffffffffffffffffffff161415617088576040517f08c379a000000000000000000000000000000000000000000000000000000000815260040161707f9061a673565b60405180910390fd5b81518351146170cc576040517f08c379a00000000000000000000000000000000000000000000000000000000081526004016170c39061a705565b60405180910390fd5b60006170d66173c0565b90506170e781600087878787617bf5565b60005b84518110156171a15783818151811061710657617105619b8f565b5b60200260200101516097600087848151811061712557617124619b8f565b5b6020026020010151815260200190815260200160002060008873ffffffffffffffffffffffffffffffffffffffff1673ffffffffffffffffffffffffffffffffffffffff1681526020019081526020016000206000828254617187919061a487565b92505081905550808061719990619a6e565b9150506170ea565b508473ffffffffffffffffffffffffffffffffffffffff16600073ffffffffffffffffffffffffffffffffffffffff168273ffffffffffffffffffffffffffffffffffffffff167f4a39dc06d4c0dbc64b70af90fd698a233a518aa5d07e595d983b8c0526c8f7fb878760405161721992919061a725565b60405180910390a461723081600087878787617bfd565b61723f81600087878787617c05565b5050505050565b6000808273ffffffffffffffffffffffffffffffffffffffff163b119050919050565b600060019054906101000a900460ff166172b8576040517f08c379a00000000000000000000000000000000000000000000000000000000081526004016172af9061a7ce565b60405180910390fd5b6172c181617ddd565b50565b600060019054906101000a900460ff16617313576040517f08c379a000000000000000000000000000000000000000000000000000000000815260040161730a9061a7ce565b60405180910390fd5b61731b617e38565b565b600060019054906101000a900460ff1661736c576040517f08c379a00000000000000000000000000000000000000000000000000000000081526004016173639061a7ce565b60405180910390fd5b617374617ea4565b565b61737e613521565b156173be576040517f08c379a00000000000000000000000000000000000000000000000000000000081526004016173b59061a83a565b60405180910390fd5b565b600033905090565b6173f47f926cf1db569dca6368f30ace1d163d1b083d3bd2697c641175e049a3ec017d4760001b616e21565b6174207f1e01367d5f358f5ee9366f6b1b7949b1a13251c74f11e813eb2b2731c1a743a560001b616e21565b61744c7f181c3301214f1a1be98fc2b68ab0681ad27ff36223bfc46df3e6aed82d81e80360001b616e21565b818160fd919061745d9291906184df565b5061748a7fb8a1e685c00a512af9bc0f06179ec62da66ed8ecdb36a9a02dbab686f0f2bf3c60001b616e21565b6174b67f7a46cc97e9fde82e4f799c1ef047559bacee6dd7656b97da4e92ed2fecb8d71d60001b616e21565b7f01e56a02aca7f26a28165a040851ba78f30282b55ca81c63a804cdc1e2dcea726174e16001610a71565b6040516174ee9190618815565b60405180910390a15050565b6000603360009054906101000a900473ffffffffffffffffffffffffffffffffffffffff16905081603360006101000a81548173ffffffffffffffffffffffffffffffffffffffff021916908373ffffffffffffffffffffffffffffffffffffffff1602179055508173ffffffffffffffffffffffffffffffffffffffff168173ffffffffffffffffffffffffffffffffffffffff167f8be0079c531659141344cd1fd0a4f28419497f9722a3daafe3b4186f6b6457e060405160405180910390a35050565b6175c8617376565b600160c960006101000a81548160ff0219169083151502179055507f62e78cea01bee320cd4e420270b5ea74000d11b0c9f74754ebdbfc544b05a25861760c6173c0565b6040516176199190618e8b565b60405180910390a1565b61762b617f05565b600060c960006101000a81548160ff0219169083151502179055507f5db9ee0a495bf2e6ff9c91a7834c1ba4fdd244a5e8aa4e537bd38aeae4b073aa61766f6173c0565b60405161767c9190618e8b565b60405180910390a1565b6176b27fdc56079fc56063183eaa2d6900c2dd0b0c289aec87c8b36809ea0bb4c95c823e60001b616e21565b6176de7f3ea0c58999c68e9f289ea4fd23b0ba923e9e7874f9409cb1371d441221c39bb360001b616e21565b61770a7ff124f336db8f5157695091919c317592000f36665950a86de19bc315bafae86560001b616e21565b81816101066000868152602001908152602001600020919061772d9291906184df565b5061775a7f302cf3ed598524ba3911302ab21fba1c47c6e873f378463fea3447850cf109af60001b616e21565b6177867f6f5ef6df3ac5e7a1b8336b0d7d86fb079d516dce7052b2a3870cf27d1b85a61060001b616e21565b827f6bb7ff708619ba0610cba295a58592e0451dee2622938c8755667688daf3529b6177b185610a71565b6040516177be9190618815565b60405180910390a2505050565b8173ffffffffffffffffffffffffffffffffffffffff168373ffffffffffffffffffffffffffffffffffffffff16141561783a576040517f08c379a00000000000000000000000000000000000000000000000000000000081526004016178319061a8cc565b60405180910390fd5b80609860008573ffffffffffffffffffffffffffffffffffffffff1673ffffffffffffffffffffffffffffffffffffffff16815260200190815260200160002060008473ffffffffffffffffffffffffffffffffffffffff1673ffffffffffffffffffffffffffffffffffffffff16815260200190815260200160002060006101000a81548160ff0219169083151502179055508173ffffffffffffffffffffffffffffffffffffffff168373ffffffffffffffffffffffffffffffffffffffff167f17307eab39ab6107e8899845ad3d59bd9653f200f220920489ca2b5937696c318360405161792b9190618734565b60405180910390a3505050565b6179406173c0565b73ffffffffffffffffffffffffffffffffffffffff168573ffffffffffffffffffffffffffffffffffffffff1614806179865750617985856179806173c0565b614ff3565b5b6179c5576040517f08c379a00000000000000000000000000000000000000000000000000000000081526004016179bc9061a95e565b60405180910390fd5b6179d28585858585617f4e565b5050505050565b600073ffffffffffffffffffffffffffffffffffffffff168473ffffffffffffffffffffffffffffffffffffffff161415617a49576040517f08c379a0000000000000000000000000000000000000000000000000000000008152600401617a409061a673565b60405180910390fd5b6000617a536173c0565b90506000617a60856181ed565b90506000617a6d856181ed565b9050617a7e83600089858589617bf5565b846097600088815260200190815260200160002060008973ffffffffffffffffffffffffffffffffffffffff1673ffffffffffffffffffffffffffffffffffffffff1681526020019081526020016000206000828254617ade919061a487565b925050819055508673ffffffffffffffffffffffffffffffffffffffff16600073ffffffffffffffffffffffffffffffffffffffff168473ffffffffffffffffffffffffffffffffffffffff167fc3d58168c5ae7397731d063d5bbf3d657854427343f4c083240f7aacaa2d0f628989604051617b5c92919061a97e565b60405180910390a4617b7383600089858589617bfd565b617b8283600089898989618267565b50505050505050565b60007f01ffc9a7000000000000000000000000000000000000000000000000000000007bffffffffffffffffffffffffffffffffffffffffffffffffffffffff1916827bffffffffffffffffffffffffffffffffffffffffffffffffffffffff1916149050919050565b505050505050565b505050505050565b617c248473ffffffffffffffffffffffffffffffffffffffff16617246565b15617dd5578373ffffffffffffffffffffffffffffffffffffffff1663bc197c8187878686866040518663ffffffff1660e01b8152600401617c6a95949392919061a9eb565b6020604051808303816000875af1925050508015617ca657506040513d601f19601f82011682018060405250810190617ca3919061aa68565b60015b617d4c57617cb261aaa2565b806308c379a01415617d0f5750617cc761aac4565b80617cd25750617d11565b806040517f08c379a0000000000000000000000000000000000000000000000000000000008152600401617d069190618815565b60405180910390fd5b505b6040517f08c379a0000000000000000000000000000000000000000000000000000000008152600401617d439061abcc565b60405180910390fd5b63bc197c8160e01b7bffffffffffffffffffffffffffffffffffffffffffffffffffffffff1916817bffffffffffffffffffffffffffffffffffffffffffffffffffffffff191614617dd3576040517f08c379a0000000000000000000000000000000000000000000000000000000008152600401617dca9061ac5e565b60405180910390fd5b505b505050505050565b600060019054906101000a900460ff16617e2c576040517f08c379a0000000000000000000000000000000000000000000000000000000008152600401617e239061a7ce565b60405180910390fd5b617e358161843f565b50565b600060019054906101000a900460ff16617e87576040517f08c379a0000000000000000000000000000000000000000000000000000000008152600401617e7e9061a7ce565b60405180910390fd5b600060c960006101000a81548160ff021916908315150217905550565b600060019054906101000a900460ff16617ef3576040517f08c379a0000000000000000000000000000000000000000000000000000000008152600401617eea9061a7ce565b60405180910390fd5b617f03617efe6173c0565b6174fa565b565b617f0d613521565b617f4c576040517f08c379a0000000000000000000000000000000000000000000000000000000008152600401617f439061acca565b60405180910390fd5b565b600073ffffffffffffffffffffffffffffffffffffffff168473ffffffffffffffffffffffffffffffffffffffff161415617fbe576040517f08c379a0000000000000000000000000000000000000000000000000000000008152600401617fb59061ad5c565b60405180910390fd5b6000617fc86173c0565b90506000617fd5856181ed565b90506000617fe2856181ed565b9050617ff2838989858589617bf5565b60006097600088815260200190815260200160002060008a73ffffffffffffffffffffffffffffffffffffffff1673ffffffffffffffffffffffffffffffffffffffff1681526020019081526020016000205490508581101561808a576040517f08c379a00000000000000000000000000000000000000000000000000000000081526004016180819061adee565b60405180910390fd5b8581036097600089815260200190815260200160002060008b73ffffffffffffffffffffffffffffffffffffffff1673ffffffffffffffffffffffffffffffffffffffff16815260200190815260200160002081905550856097600089815260200190815260200160002060008a73ffffffffffffffffffffffffffffffffffffffff1673ffffffffffffffffffffffffffffffffffffffff1681526020019081526020016000206000828254618141919061a487565b925050819055508773ffffffffffffffffffffffffffffffffffffffff168973ffffffffffffffffffffffffffffffffffffffff168573ffffffffffffffffffffffffffffffffffffffff167fc3d58168c5ae7397731d063d5bbf3d657854427343f4c083240f7aacaa2d0f628a8a6040516181be92919061a97e565b60405180910390a46181d4848a8a86868a617bfd565b6181e2848a8a8a8a8a618267565b505050505050505050565b60606000600167ffffffffffffffff81111561820c5761820b618a2f565b5b60405190808252806020026020018201604052801561823a5781602001602082028036833780820191505090505b509050828160008151811061825257618251619b8f565b5b60200260200101818152505080915050919050565b6182868473ffffffffffffffffffffffffffffffffffffffff16617246565b15618437578373ffffffffffffffffffffffffffffffffffffffff1663f23a6e6187878686866040518663ffffffff1660e01b81526004016182cc95949392919061ae0e565b6020604051808303816000875af192505050801561830857506040513d601f19601f82011682018060405250810190618305919061aa68565b60015b6183ae5761831461aaa2565b806308c379a01415618371575061832961aac4565b806183345750618373565b806040517f08c379a00000000000000000000000000000000000000000000000000000000081526004016183689190618815565b60405180910390fd5b505b6040517f08c379a00000000000000000000000000000000000000000000000000000000081526004016183a59061abcc565b60405180910390fd5b63f23a6e6160e01b7bffffffffffffffffffffffffffffffffffffffffffffffffffffffff1916817bffffffffffffffffffffffffffffffffffffffffffffffffffffffff191614618435576040517f08c379a000000000000000000000000000000000000000000000000000000000815260040161842c9061ac5e565b60405180910390fd5b505b505050505050565b8060999080519060200190618455929190618459565b5050565b82805461846590619887565b90600052602060002090601f01602090048101928261848757600085556184ce565b82601f106184a057805160ff19168380011785556184ce565b828001600101855582156184ce579182015b828111156184cd5782518255916020019190600101906184b2565b5b5090506184db9190618565565b5090565b8280546184eb90619887565b90600052602060002090601f01602090048101928261850d5760008555618554565b82601f1061852657803560ff1916838001178555618554565b82800160010185558215618554579182015b82811115618553578235825591602001919060010190618538565b5b5090506185619190618565565b5090565b5b8082111561857e576000816000905550600101618566565b5090565b6000604051905090565b600080fd5b600080fd5b600073ffffffffffffffffffffffffffffffffffffffff82169050919050565b60006185c182618596565b9050919050565b6185d1816185b6565b81146185dc57600080fd5b50565b6000813590506185ee816185c8565b92915050565b6000819050919050565b618607816185f4565b811461861257600080fd5b50565b600081359050618624816185fe565b92915050565b600080604083850312156186415761864061858c565b5b600061864f858286016185df565b925050602061866085828601618615565b9150509250929050565b618673816185f4565b82525050565b600060208201905061868e600083018461866a565b92915050565b60007fffffffff0000000000000000000000000000000000000000000000000000000082169050919050565b6186c981618694565b81146186d457600080fd5b50565b6000813590506186e6816186c0565b92915050565b6000602082840312156187025761870161858c565b5b6000618710848285016186d7565b91505092915050565b60008115159050919050565b61872e81618719565b82525050565b60006020820190506187496000830184618725565b92915050565b6000602082840312156187655761876461858c565b5b600061877384828501618615565b91505092915050565b600081519050919050565b600082825260208201905092915050565b60005b838110156187b657808201518184015260208101905061879b565b838111156187c5576000848401525b50505050565b6000601f19601f8301169050919050565b60006187e78261877c565b6187f18185618787565b9350618801818560208601618798565b61880a816187cb565b840191505092915050565b6000602082019050818103600083015261882f81846187dc565b905092915050565b600080fd5b600080fd5b600080fd5b60008083601f84011261885c5761885b618837565b5b8235905067ffffffffffffffff8111156188795761887861883c565b5b60208301915083602082028301111561889557618894618841565b5b9250929050565b600080600080606085870312156188b6576188b561858c565b5b60006188c487828801618615565b94505060206188d587828801618615565b935050604085013567ffffffffffffffff8111156188f6576188f5618591565b5b61890287828801618846565b925092505092959194509250565b60008083601f84011261892657618925618837565b5b8235905067ffffffffffffffff8111156189435761894261883c565b5b60208301915083600182028301111561895f5761895e618841565b5b9250929050565b60008060008060008060006080888a0312156189855761898461858c565b5b60006189938a828b016185df565b975050602088013567ffffffffffffffff8111156189b4576189b3618591565b5b6189c08a828b01618846565b9650965050604088013567ffffffffffffffff8111156189e3576189e2618591565b5b6189ef8a828b01618846565b9450945050606088013567ffffffffffffffff811115618a1257618a11618591565b5b618a1e8a828b01618910565b925092505092959891949750929550565b7f4e487b7100000000000000000000000000000000000000000000000000000000600052604160045260246000fd5b618a67826187cb565b810181811067ffffffffffffffff82111715618a8657618a85618a2f565b5b80604052505050565b6000618a99618582565b9050618aa58282618a5e565b919050565b600067ffffffffffffffff821115618ac557618ac4618a2f565b5b602082029050602081019050919050565b6000618ae9618ae484618aaa565b618a8f565b90508083825260208201905060208402830185811115618b0c57618b0b618841565b5b835b81811015618b355780618b218882618615565b845260208401935050602081019050618b0e565b5050509392505050565b600082601f830112618b5457618b53618837565b5b8135618b64848260208601618ad6565b91505092915050565b600080fd5b600067ffffffffffffffff821115618b8d57618b8c618a2f565b5b618b96826187cb565b9050602081019050919050565b82818337600083830152505050565b6000618bc5618bc084618b72565b618a8f565b905082815260208101848484011115618be157618be0618b6d565b5b618bec848285618ba3565b509392505050565b600082601f830112618c0957618c08618837565b5b8135618c19848260208601618bb2565b91505092915050565b600080600080600060a08688031215618c3e57618c3d61858c565b5b6000618c4c888289016185df565b9550506020618c5d888289016185df565b945050604086013567ffffffffffffffff811115618c7e57618c7d618591565b5b618c8a88828901618b3f565b935050606086013567ffffffffffffffff811115618cab57618caa618591565b5b618cb788828901618b3f565b925050608086013567ffffffffffffffff811115618cd857618cd7618591565b5b618ce488828901618bf4565b9150509295509295909350565b600067ffffffffffffffff821115618d0c57618d0b618a2f565b5b618d15826187cb565b9050602081019050919050565b6000618d35618d3084618cf1565b618a8f565b905082815260208101848484011115618d5157618d50618b6d565b5b618d5c848285618ba3565b509392505050565b600082601f830112618d7957618d78618837565b5b8135618d89848260208601618d22565b91505092915050565b600080600080600060a08688031215618dae57618dad61858c565b5b6000618dbc888289016185df565b9550506020618dcd888289016185df565b9450506040618dde888289016185df565b9350506060618def888289016185df565b925050608086013567ffffffffffffffff811115618e1057618e0f618591565b5b618e1c88828901618d64565b9150509295509295909350565b600060a082019050618e3e600083018861866a565b618e4b602083018761866a565b618e58604083018661866a565b618e65606083018561866a565b618e72608083018461866a565b9695505050505050565b618e85816185b6565b82525050565b6000602082019050618ea06000830184618e7c565b92915050565b600067ffffffffffffffff821115618ec157618ec0618a2f565b5b602082029050602081019050919050565b6000618ee5618ee084618ea6565b618a8f565b90508083825260208201905060208402830185811115618f0857618f07618841565b5b835b81811015618f315780618f1d88826185df565b845260208401935050602081019050618f0a565b5050509392505050565b600082601f830112618f5057618f4f618837565b5b8135618f60848260208601618ed2565b91505092915050565b60008060408385031215618f8057618f7f61858c565b5b600083013567ffffffffffffffff811115618f9e57618f9d618591565b5b618faa85828601618f3b565b925050602083013567ffffffffffffffff811115618fcb57618fca618591565b5b618fd785828601618b3f565b9150509250929050565b600081519050919050565b600082825260208201905092915050565b6000819050602082019050919050565b619016816185f4565b82525050565b6000619028838361900d565b60208301905092915050565b6000602082019050919050565b600061904c82618fe1565b6190568185618fec565b935061906183618ffd565b8060005b83811015619092578151619079888261901c565b975061908483619034565b925050600181019050619065565b5085935050505092915050565b600060208201905081810360008301526190b98184619041565b905092915050565b60008083601f8401126190d7576190d6618837565b5b8235905067ffffffffffffffff8111156190f4576190f361883c565b5b6020830191508360018202830111156191105761910f618841565b5b9250929050565b6000806020838503121561912e5761912d61858c565b5b600083013567ffffffffffffffff81111561914c5761914b618591565b5b619158858286016190c1565b92509250509250929050565b60006020828403121561917a5761917961858c565b5b6000619188848285016185df565b91505092915050565b60006080820190506191a6600083018761866a565b6191b3602083018661866a565b6191c0604083018561866a565b6191cd606083018461866a565b95945050505050565b6000806000604084860312156191ef576191ee61858c565b5b60006191fd86828701618615565b935050602084013567ffffffffffffffff81111561921e5761921d618591565b5b61922a868287016190c1565b92509250509250925092565b600063ffffffff82169050919050565b61924f81619236565b811461925a57600080fd5b50565b60008135905061926c81619246565b92915050565b600080600080600080600080600060e08a8c0312156192945761929361858c565b5b60006192a28c828d0161925d565b99505060206192b38c828d0161925d565b98505060406192c48c828d0161925d565b97505060606192d58c828d0161925d565b96505060806192e68c828d01618615565b95505060a08a013567ffffffffffffffff81111561930757619306618591565b5b6193138c828d01618846565b945094505060c08a013567ffffffffffffffff81111561933657619335618591565b5b6193428c828d016190c1565b92509250509295985092959850929598565b61935d81618719565b811461936857600080fd5b50565b60008135905061937a81619354565b92915050565b600080604083850312156193975761939661858c565b5b60006193a5858286016185df565b92505060206193b68582860161936b565b9150509250929050565b60008060008060008060a087890312156193dd576193dc61858c565b5b60006193eb89828a016185df565b96505060206193fc89828a016185df565b955050604087013567ffffffffffffffff81111561941d5761941c618591565b5b61942989828a01618b3f565b945050606087013567ffffffffffffffff81111561944a57619449618591565b5b61945689828a01618b3f565b935050608087013567ffffffffffffffff81111561947757619476618591565b5b61948389828a01618910565b92509250509295509295509295565b61949b81618694565b82525050565b60006020820190506194b66000830184619492565b92915050565b6000806000606084860312156194d5576194d461858c565b5b60006194e3868287016185df565b93505060206194f486828701618615565b925050604061950586828701618615565b9150509250925092565b600080600080600060a0868803121561952b5761952a61858c565b5b600061953988828901618615565b955050602061954a8882890161925d565b945050604061955b8882890161925d565b935050606061956c8882890161925d565b925050608061957d8882890161925d565b9150509295509295909350565b600080604083850312156195a1576195a061858c565b5b60006195af858286016185df565b92505060206195c0858286016185df565b9150509250929050565b60008060008060008060a087890312156195e7576195e661858c565b5b60006195f589828a016185df565b965050602061960689828a016185df565b955050604061961789828a01618615565b945050606061962889828a01618615565b935050608087013567ffffffffffffffff81111561964957619648618591565b5b61965589828a01618910565b92509250509295509295509295565b600080600080600060a086880312156196805761967f61858c565b5b600061968e888289016185df565b955050602061969f888289016185df565b94505060406196b088828901618615565b93505060606196c188828901618615565b925050608086013567ffffffffffffffff8111156196e2576196e1618591565b5b6196ee88828901618bf4565b9150509295509295909350565b60006fffffffffffffffffffffffffffffffff82169050919050565b619720816196fb565b811461972b57600080fd5b50565b60008135905061973d81619717565b92915050565b60008060006060848603121561975c5761975b61858c565b5b600061976a868287016185df565b935050602061977b8682870161972e565b925050604061978c86828701618615565b9150509250925092565b60006040820190506197ab600083018561866a565b81810360208301526197bd8184619041565b90509392505050565b7f455243313135353a2061646472657373207a65726f206973206e6f742061207660008201527f616c6964206f776e657200000000000000000000000000000000000000000000602082015250565b6000619822602a83618787565b915061982d826197c6565b604082019050919050565b6000602082019050818103600083015261985181619815565b9050919050565b7f4e487b7100000000000000000000000000000000000000000000000000000000600052602260045260246000fd5b6000600282049050600182168061989f57607f821691505b602082108114156198b3576198b2619858565b5b50919050565b600081905092915050565b60008190508160005260206000209050919050565b600081546198e681619887565b6198f081866198b9565b9450600182166000811461990b576001811461991c5761994f565b60ff1983168652818601935061994f565b619925856198c4565b60005b8381101561994757815481890152600182019150602081019050619928565b838801955050505b50505092915050565b60006199638261877c565b61996d81856198b9565b935061997d818560208601618798565b80840191505092915050565b600061999582856198d9565b91506199a18284619958565b91508190509392505050565b7f546f6f6c733a2063616c6c6572206973206e6f7420616e20417274696661637460008201527f7320636f6e747261637400000000000000000000000000000000000000000000602082015250565b6000619a09602a83618787565b9150619a14826199ad565b604082019050919050565b60006020820190508181036000830152619a38816199fc565b9050919050565b7f4e487b7100000000000000000000000000000000000000000000000000000000600052601160045260246000fd5b6000619a79826185f4565b91507fffffffffffffffffffffffffffffffffffffffffffffffffffffffffffffffff821415619aac57619aab619a3f565b5b600182019050919050565b7f546f6f6c733a20696e76616c696420746f6f6c54797065732076616c75650000600082015250565b6000619aed601e83618787565b9150619af882619ab7565b602082019050919050565b60006020820190508181036000830152619b1c81619ae0565b9050919050565b7f546f6f6c733a20696e76616c69642061727261792073697a6500000000000000600082015250565b6000619b59601983618787565b9150619b6482619b23565b602082019050919050565b60006020820190508181036000830152619b8881619b4c565b9050919050565b7f4e487b7100000000000000000000000000000000000000000000000000000000600052603260045260246000fd5b600080fd5b6000619bcf8385618fec565b93507f07ffffffffffffffffffffffffffffffffffffffffffffffffffffffffffffff831115619c0257619c01619bbe565b5b602083029250619c13838584618ba3565b82840190509392505050565b6000606082019050619c34600083018761866a565b619c41602083018661866a565b8181036040830152619c54818486619bc3565b905095945050505050565b600081519050619c6e81619354565b92915050565b600060208284031215619c8a57619c8961858c565b5b6000619c9884828501619c5f565b91505092915050565b7f546f6f6c733a207573657220696e20626c61636b6c6973740000000000000000600082015250565b6000619cd7601883618787565b9150619ce282619ca1565b602082019050919050565b60006020820190508181036000830152619d0681619cca565b9050919050565b7f546f6f6c733a206e6f20746f6f6c730000000000000000000000000000000000600082015250565b6000619d43600f83618787565b9150619d4e82619d0d565b602082019050919050565b60006020820190508181036000830152619d7281619d36565b9050919050565b7f546f6f6c733a20746f6b656e496420697320756e697175650000000000000000600082015250565b6000619daf601883618787565b9150619dba82619d79565b602082019050919050565b60006020820190508181036000830152619dde81619da2565b9050919050565b7f496e697469616c697a61626c653a20636f6e747261637420697320616c72656160008201527f647920696e697469616c697a6564000000000000000000000000000000000000602082015250565b6000619e41602e83618787565b9150619e4c82619de5565b604082019050919050565b60006020820190508181036000830152619e7081619e34565b9050919050565b7f4e487b7100000000000000000000000000000000000000000000000000000000600052602160045260246000fd5b6000819050919050565b600060ff82169050919050565b6000819050919050565b6000619ee2619edd619ed884619ea6565b619ebd565b619eb0565b9050919050565b619ef281619ec7565b82525050565b6000602082019050619f0d6000830184619ee9565b92915050565b7f546f6f6c733a20746f6f6c20646f6573206e6f74206578697374000000000000600082015250565b6000619f49601a83618787565b9150619f5482619f13565b602082019050919050565b60006020820190508181036000830152619f7881619f3c565b9050919050565b6000619f8a826196fb565b9150619f95836196fb565b925082821015619fa857619fa7619a3f565b5b828203905092915050565b7f4e487b7100000000000000000000000000000000000000000000000000000000600052601260045260246000fd5b6000619fed826196fb565b9150619ff8836196fb565b92508261a0085761a007619fb3565b5b828204905092915050565b7f546f6f6c733a2074686520746f6f6c20697320616c7265616479207374726f6e60008201527f6720656e6f756768000000000000000000000000000000000000000000000000602082015250565b600061a06f602883618787565b915061a07a8261a013565b604082019050919050565b6000602082019050818103600083015261a09e8161a062565b9050919050565b600060608201905061a0ba6000830186618e7c565b61a0c76020830185618e7c565b61a0d4604083018461866a565b949350505050565b7f455243313135353a206163636f756e747320616e6420696473206c656e67746860008201527f206d69736d617463680000000000000000000000000000000000000000000000602082015250565b600061a138602983618787565b915061a1438261a0dc565b604082019050919050565b6000602082019050818103600083015261a1678161a12b565b9050919050565b600061a17982619236565b915061a18483619236565b92508261a1945761a193619fb3565b5b828206905092915050565b7f546f6f6c733a20696e76616c696420737472656e6774682076616c7565000000600082015250565b600061a1d5601d83618787565b915061a1e08261a19f565b602082019050919050565b6000602082019050818103600083015261a2048161a1c8565b9050919050565b7f546f6f6c733a206d696e696e67206475726174696f6e206d757374206265206760008201527f72656174686572207468616e207a65726f000000000000000000000000000000602082015250565b600061a267603183618787565b915061a2728261a20b565b604082019050919050565b6000602082019050818103600083015261a2968161a25a565b9050919050565b7f546f6f6c733a206d73672e73656e6465722069736e2774204d696e696e67206360008201527f6f6e747261637400000000000000000000000000000000000000000000000000602082015250565b600061a2f9602783618787565b915061a3048261a29d565b604082019050919050565b6000602082019050818103600083015261a3288161a2ec565b9050919050565b7f546f6f6c733a20746f6f6c20646f65736e277420657869737400000000000000600082015250565b600061a365601983618787565b915061a3708261a32f565b602082019050919050565b6000602082019050818103600083015261a3948161a358565b9050919050565b7f4f776e61626c653a206e6577206f776e657220697320746865207a65726f206160008201527f6464726573730000000000000000000000000000000000000000000000000000602082015250565b600061a3f7602683618787565b915061a4028261a39b565b604082019050919050565b6000602082019050818103600083015261a4268161a3ea565b9050919050565b600061a438826185f4565b915061a443836185f4565b9250817fffffffffffffffffffffffffffffffffffffffffffffffffffffffffffffffff048311821515161561a47c5761a47b619a3f565b5b828202905092915050565b600061a492826185f4565b915061a49d836185f4565b9250827fffffffffffffffffffffffffffffffffffffffffffffffffffffffffffffffff0382111561a4d25761a4d1619a3f565b5b828201905092915050565b600082825260208201905092915050565b50565b600061a4fe60008361a4dd565b915061a5098261a4ee565b600082019050919050565b600060a08201905061a5296000830187618e7c565b61a5366020830186618e7c565b61a543604083018561866a565b61a550606083018461866a565b818103608083015261a5618161a4f1565b905095945050505050565b600060408201905061a5816000830185618e7c565b61a58e602083018461866a565b9392505050565b7f4f776e61626c653a2063616c6c6572206973206e6f7420746865206f776e6572600082015250565b600061a5cb602083618787565b915061a5d68261a595565b602082019050919050565b6000602082019050818103600083015261a5fa8161a5be565b9050919050565b7f455243313135353a206d696e7420746f20746865207a65726f2061646472657360008201527f7300000000000000000000000000000000000000000000000000000000000000602082015250565b600061a65d602183618787565b915061a6688261a601565b604082019050919050565b6000602082019050818103600083015261a68c8161a650565b9050919050565b7f455243313135353a2069647320616e6420616d6f756e7473206c656e6774682060008201527f6d69736d61746368000000000000000000000000000000000000000000000000602082015250565b600061a6ef602883618787565b915061a6fa8261a693565b604082019050919050565b6000602082019050818103600083015261a71e8161a6e2565b9050919050565b6000604082019050818103600083015261a73f8185619041565b9050818103602083015261a7538184619041565b90509392505050565b7f496e697469616c697a61626c653a20636f6e7472616374206973206e6f74206960008201527f6e697469616c697a696e67000000000000000000000000000000000000000000602082015250565b600061a7b8602b83618787565b915061a7c38261a75c565b604082019050919050565b6000602082019050818103600083015261a7e78161a7ab565b9050919050565b7f5061757361626c653a2070617573656400000000000000000000000000000000600082015250565b600061a824601083618787565b915061a82f8261a7ee565b602082019050919050565b6000602082019050818103600083015261a8538161a817565b9050919050565b7f455243313135353a2073657474696e6720617070726f76616c2073746174757360008201527f20666f722073656c660000000000000000000000000000000000000000000000602082015250565b600061a8b6602983618787565b915061a8c18261a85a565b604082019050919050565b6000602082019050818103600083015261a8e58161a8a9565b9050919050565b7f455243313135353a2063616c6c6572206973206e6f7420746f6b656e206f776e60008201527f6572206e6f7220617070726f7665640000000000000000000000000000000000602082015250565b600061a948602f83618787565b915061a9538261a8ec565b604082019050919050565b6000602082019050818103600083015261a9778161a93b565b9050919050565b600060408201905061a993600083018561866a565b61a9a0602083018461866a565b9392505050565b600081519050919050565b600061a9bd8261a9a7565b61a9c7818561a4dd565b935061a9d7818560208601618798565b61a9e0816187cb565b840191505092915050565b600060a08201905061aa006000830188618e7c565b61aa0d6020830187618e7c565b818103604083015261aa1f8186619041565b9050818103606083015261aa338185619041565b9050818103608083015261aa47818461a9b2565b90509695505050505050565b60008151905061aa62816186c0565b92915050565b60006020828403121561aa7e5761aa7d61858c565b5b600061aa8c8482850161aa53565b91505092915050565b60008160e01c9050919050565b600060033d111561aac15760046000803e61aabe60005161aa95565b90505b90565b600060443d101561aad45761ab57565b61aadc618582565b60043d036004823e80513d602482011167ffffffffffffffff8211171561ab0457505061ab57565b808201805167ffffffffffffffff81111561ab22575050505061ab57565b80602083010160043d03850181111561ab3f57505050505061ab57565b61ab4e82602001850186618a5e565b82955050505050505b90565b7f455243313135353a207472616e7366657220746f206e6f6e204552433131353560008201527f526563656976657220696d706c656d656e746572000000000000000000000000602082015250565b600061abb6603483618787565b915061abc18261ab5a565b604082019050919050565b6000602082019050818103600083015261abe58161aba9565b9050919050565b7f455243313135353a204552433131353552656365697665722072656a6563746560008201527f6420746f6b656e73000000000000000000000000000000000000000000000000602082015250565b600061ac48602883618787565b915061ac538261abec565b604082019050919050565b6000602082019050818103600083015261ac778161ac3b565b9050919050565b7f5061757361626c653a206e6f7420706175736564000000000000000000000000600082015250565b600061acb4601483618787565b915061acbf8261ac7e565b602082019050919050565b6000602082019050818103600083015261ace38161aca7565b9050919050565b7f455243313135353a207472616e7366657220746f20746865207a65726f20616460008201527f6472657373000000000000000000000000000000000000000000000000000000602082015250565b600061ad46602583618787565b915061ad518261acea565b604082019050919050565b6000602082019050818103600083015261ad758161ad39565b9050919050565b7f455243313135353a20696e73756666696369656e742062616c616e636520666f60008201527f72207472616e7366657200000000000000000000000000000000000000000000602082015250565b600061add8602a83618787565b915061ade38261ad7c565b604082019050919050565b6000602082019050818103600083015261ae078161adcb565b9050919050565b600060a08201905061ae236000830188618e7c565b61ae306020830187618e7c565b61ae3d604083018661866a565b61ae4a606083018561866a565b818103608083015261ae5c818461a9b2565b9050969550505050505056fea26469706673582212202a78fb6ae02516b9c04da81adc24854b91df937792a683951894bd92bb85c2d164736f6c634300080c0033",
  "linkReferences": {},
  "deployedLinkReferences": {}
}