{
  "_format": "hh-sol-artifact-1",
  "contractName": "Tools",
  "sourceName": "contracts/Tools.sol",
  "abi": [
    {
      "anonymous": false,
      "inputs": [
        {
          "indexed": false,
          "internalType": "uint256",
          "name": "toolType",
          "type": "uint256"
        }
      ],
      "name": "AddTool",
      "type": "event"
    },
    {
      "anonymous": false,
      "inputs": [
        {
          "indexed": true,
          "internalType": "address",
          "name": "account",
          "type": "address"
        },
        {
          "indexed": true,
          "internalType": "address",
          "name": "operator",
          "type": "address"
        },
        {
          "indexed": false,
          "internalType": "bool",
          "name": "approved",
          "type": "bool"
        }
      ],
      "name": "ApprovalForAll",
      "type": "event"
    },
    {
      "anonymous": false,
      "inputs": [
        {
          "indexed": false,
          "internalType": "string",
          "name": "baseURI",
          "type": "string"
        }
      ],
      "name": "BaseURI",
      "type": "event"
    },
    {
      "anonymous": false,
      "inputs": [
        {
          "indexed": false,
          "internalType": "address",
          "name": "user",
          "type": "address"
        },
        {
          "indexed": false,
          "internalType": "uint256",
          "name": "",
          "type": "uint256"
        }
      ],
      "name": "Craft",
      "type": "event"
    },
    {
      "anonymous": false,
      "inputs": [
        {
          "indexed": false,
          "internalType": "uint8",
          "name": "version",
          "type": "uint8"
        }
      ],
      "name": "Initialized",
      "type": "event"
    },
    {
      "anonymous": false,
      "inputs": [
        {
          "indexed": true,
          "internalType": "address",
          "name": "previousOwner",
          "type": "address"
        },
        {
          "indexed": true,
          "internalType": "address",
          "name": "newOwner",
          "type": "address"
        }
      ],
      "name": "OwnershipTransferred",
      "type": "event"
    },
    {
      "anonymous": false,
      "inputs": [
        {
          "indexed": false,
          "internalType": "address",
          "name": "account",
          "type": "address"
        }
      ],
      "name": "Paused",
      "type": "event"
    },
    {
      "anonymous": false,
      "inputs": [
        {
          "indexed": false,
          "internalType": "uint256",
          "name": "toolType",
          "type": "uint256"
        },
        {
          "indexed": false,
          "internalType": "uint256",
          "name": "resourcesAmount",
          "type": "uint256"
        },
        {
          "indexed": false,
          "internalType": "uint256[]",
          "name": "artifactsAmount",
          "type": "uint256[]"
        }
      ],
      "name": "RecipeCreatedOrUpdated",
      "type": "event"
    },
    {
      "anonymous": false,
      "inputs": [
        {
          "indexed": false,
          "internalType": "uint256",
          "name": "toolType",
          "type": "uint256"
        }
      ],
      "name": "ToolPropertiesSet",
      "type": "event"
    },
    {
      "anonymous": false,
      "inputs": [
        {
          "indexed": false,
          "internalType": "uint256",
          "name": "toolId",
          "type": "uint256"
        }
      ],
      "name": "ToolRepaired",
      "type": "event"
    },
    {
      "anonymous": false,
      "inputs": [
        {
          "indexed": true,
          "internalType": "address",
          "name": "operator",
          "type": "address"
        },
        {
          "indexed": true,
          "internalType": "address",
          "name": "from",
          "type": "address"
        },
        {
          "indexed": true,
          "internalType": "address",
          "name": "to",
          "type": "address"
        },
        {
          "indexed": false,
          "internalType": "uint256[]",
          "name": "ids",
          "type": "uint256[]"
        },
        {
          "indexed": false,
          "internalType": "uint256[]",
          "name": "values",
          "type": "uint256[]"
        }
      ],
      "name": "TransferBatch",
      "type": "event"
    },
    {
      "anonymous": false,
      "inputs": [
        {
          "indexed": true,
          "internalType": "address",
          "name": "operator",
          "type": "address"
        },
        {
          "indexed": true,
          "internalType": "address",
          "name": "from",
          "type": "address"
        },
        {
          "indexed": true,
          "internalType": "address",
          "name": "to",
          "type": "address"
        },
        {
          "indexed": false,
          "internalType": "uint256",
          "name": "id",
          "type": "uint256"
        },
        {
          "indexed": false,
          "internalType": "uint256",
          "name": "value",
          "type": "uint256"
        }
      ],
      "name": "TransferSingle",
      "type": "event"
    },
    {
      "anonymous": false,
      "inputs": [
        {
          "indexed": false,
          "internalType": "string",
          "name": "value",
          "type": "string"
        },
        {
          "indexed": true,
          "internalType": "uint256",
          "name": "id",
          "type": "uint256"
        }
      ],
      "name": "URI",
      "type": "event"
    },
    {
      "anonymous": false,
      "inputs": [
        {
          "indexed": false,
          "internalType": "address",
          "name": "account",
          "type": "address"
        }
      ],
      "name": "Unpaused",
      "type": "event"
    },
    {
      "inputs": [
        {
          "internalType": "uint32",
          "name": "maxStrength",
          "type": "uint32"
        },
        {
          "internalType": "uint32",
          "name": "miningDuration",
          "type": "uint32"
        },
        {
          "internalType": "uint32",
          "name": "energyCost",
          "type": "uint32"
        },
        {
          "internalType": "uint32",
          "name": "strengthCost",
          "type": "uint32"
        },
        {
          "internalType": "uint256",
          "name": "resourcesAmount",
          "type": "uint256"
        },
        {
          "internalType": "uint256[]",
          "name": "artifactsAmount",
          "type": "uint256[]"
        },
        {
          "internalType": "string",
          "name": "newURI",
          "type": "string"
        }
      ],
      "name": "addTool",
      "outputs": [
        {
          "internalType": "uint256",
          "name": "",
          "type": "uint256"
        }
      ],
      "stateMutability": "nonpayable",
      "type": "function"
    },
    {
      "inputs": [
        {
          "internalType": "address",
          "name": "account",
          "type": "address"
        },
        {
          "internalType": "uint256",
          "name": "id",
          "type": "uint256"
        }
      ],
      "name": "balanceOf",
      "outputs": [
        {
          "internalType": "uint256",
          "name": "",
          "type": "uint256"
        }
      ],
      "stateMutability": "view",
      "type": "function"
    },
    {
      "inputs": [
        {
          "internalType": "address[]",
          "name": "accounts",
          "type": "address[]"
        },
        {
          "internalType": "uint256[]",
          "name": "ids",
          "type": "uint256[]"
        }
      ],
      "name": "balanceOfBatch",
      "outputs": [
        {
          "internalType": "uint256[]",
          "name": "",
          "type": "uint256[]"
        }
      ],
      "stateMutability": "view",
      "type": "function"
    },
    {
      "inputs": [
        {
          "internalType": "address",
          "name": "user",
          "type": "address"
        },
        {
          "internalType": "uint256",
          "name": "toolId",
          "type": "uint256"
        },
        {
          "internalType": "uint256",
          "name": "strengthCost",
          "type": "uint256"
        }
      ],
      "name": "corrupt",
      "outputs": [],
      "stateMutability": "nonpayable",
      "type": "function"
    },
    {
      "inputs": [
        {
          "internalType": "uint256",
          "name": "toolType",
          "type": "uint256"
        }
      ],
      "name": "craft",
      "outputs": [],
      "stateMutability": "nonpayable",
      "type": "function"
    },
    {
      "inputs": [],
      "name": "getArtifactsAddress",
      "outputs": [
        {
          "internalType": "address",
          "name": "",
          "type": "address"
        }
      ],
      "stateMutability": "view",
      "type": "function"
    },
    {
      "inputs": [],
      "name": "getArtifactsTypesAmount",
      "outputs": [
        {
          "internalType": "uint256",
          "name": "",
          "type": "uint256"
        }
      ],
      "stateMutability": "view",
      "type": "function"
    },
    {
      "inputs": [],
      "name": "getMiningAddress",
      "outputs": [
        {
          "internalType": "address",
          "name": "",
          "type": "address"
        }
      ],
      "stateMutability": "view",
      "type": "function"
    },
    {
      "inputs": [
        {
          "internalType": "uint256",
          "name": "toolType",
          "type": "uint256"
        }
      ],
      "name": "getRecipe",
      "outputs": [
        {
          "internalType": "uint256",
          "name": "resourcesAmount",
          "type": "uint256"
        },
        {
          "internalType": "uint256[]",
          "name": "artifactsAmount",
          "type": "uint256[]"
        }
      ],
      "stateMutability": "view",
      "type": "function"
    },
    {
      "inputs": [
        {
          "internalType": "uint256",
          "name": "resourceId",
          "type": "uint256"
        }
      ],
      "name": "getResourceAddress",
      "outputs": [
        {
          "internalType": "address",
          "name": "",
          "type": "address"
        }
      ],
      "stateMutability": "view",
      "type": "function"
    },
    {
      "inputs": [],
      "name": "getResourceAmount",
      "outputs": [
        {
          "internalType": "uint256",
          "name": "",
          "type": "uint256"
        }
      ],
      "stateMutability": "view",
      "type": "function"
    },
    {
      "inputs": [
        {
          "internalType": "uint256",
          "name": "toolId",
          "type": "uint256"
        }
      ],
      "name": "getStrength",
      "outputs": [
        {
          "internalType": "uint256",
          "name": "",
          "type": "uint256"
        }
      ],
      "stateMutability": "view",
      "type": "function"
    },
    {
      "inputs": [
        {
          "internalType": "address",
          "name": "user",
          "type": "address"
        },
        {
          "internalType": "uint256",
          "name": "toolId",
          "type": "uint256"
        }
      ],
      "name": "getToolProperties",
      "outputs": [
        {
          "internalType": "uint256",
          "name": "toolType",
          "type": "uint256"
        },
        {
          "internalType": "uint256",
          "name": "strength",
          "type": "uint256"
        },
        {
          "internalType": "uint256",
          "name": "strengthCost",
          "type": "uint256"
        },
        {
          "internalType": "uint256",
          "name": "miningDuration",
          "type": "uint256"
        },
        {
          "internalType": "uint256",
          "name": "energyCost",
          "type": "uint256"
        }
      ],
      "stateMutability": "view",
      "type": "function"
    },
    {
      "inputs": [
        {
          "internalType": "uint256",
          "name": "toolType",
          "type": "uint256"
        }
      ],
      "name": "getToolTypeProperties",
      "outputs": [
        {
          "internalType": "uint256",
          "name": "maxStrength",
          "type": "uint256"
        },
        {
          "internalType": "uint256",
          "name": "strengthCost",
          "type": "uint256"
        },
        {
          "internalType": "uint256",
          "name": "miningDuration",
          "type": "uint256"
        },
        {
          "internalType": "uint256",
          "name": "energyCost",
          "type": "uint256"
        }
      ],
      "stateMutability": "view",
      "type": "function"
    },
    {
      "inputs": [],
      "name": "getToolsTypesAmount",
      "outputs": [
        {
          "internalType": "uint256",
          "name": "",
          "type": "uint256"
        }
      ],
      "stateMutability": "view",
      "type": "function"
    },
    {
      "inputs": [],
      "name": "increaseArtifactAmount",
      "outputs": [],
      "stateMutability": "nonpayable",
      "type": "function"
    },
    {
      "inputs": [
        {
          "internalType": "address",
          "name": "blacklistAddress",
          "type": "address"
        },
        {
          "internalType": "address",
          "name": "berryAddress",
          "type": "address"
        },
        {
          "internalType": "address",
          "name": "treeAddress",
          "type": "address"
        },
        {
          "internalType": "address",
          "name": "goldAddress",
          "type": "address"
        },
        {
          "internalType": "string",
          "name": "baseURI",
          "type": "string"
        }
      ],
      "name": "initialize",
      "outputs": [],
      "stateMutability": "nonpayable",
      "type": "function"
    },
    {
      "inputs": [
        {
          "internalType": "address",
          "name": "account",
          "type": "address"
        },
        {
          "internalType": "address",
          "name": "operator",
          "type": "address"
        }
      ],
      "name": "isApprovedForAll",
      "outputs": [
        {
          "internalType": "bool",
          "name": "",
          "type": "bool"
        }
      ],
      "stateMutability": "view",
      "type": "function"
    },
    {
      "inputs": [
        {
          "internalType": "address",
          "name": "to",
          "type": "address"
        },
        {
          "internalType": "uint128",
          "name": "toolType",
          "type": "uint128"
        },
        {
          "internalType": "uint256",
          "name": "amount",
          "type": "uint256"
        }
      ],
      "name": "mint",
      "outputs": [],
      "stateMutability": "nonpayable",
      "type": "function"
    },
    {
      "inputs": [
        {
          "internalType": "address",
          "name": "to",
          "type": "address"
        },
        {
          "internalType": "uint256[]",
          "name": "toolTypes",
          "type": "uint256[]"
        },
        {
          "internalType": "uint256[]",
          "name": "amounts",
          "type": "uint256[]"
        },
        {
          "internalType": "bytes",
          "name": "data",
          "type": "bytes"
        }
      ],
      "name": "mintBatch",
      "outputs": [],
      "stateMutability": "nonpayable",
      "type": "function"
    },
    {
      "inputs": [
        {
          "internalType": "address",
          "name": "operator",
          "type": "address"
        },
        {
          "internalType": "address",
          "name": "from",
          "type": "address"
        },
        {
          "internalType": "uint256[]",
          "name": "ids",
          "type": "uint256[]"
        },
        {
          "internalType": "uint256[]",
          "name": "values",
          "type": "uint256[]"
        },
        {
          "internalType": "bytes",
          "name": "data",
          "type": "bytes"
        }
      ],
      "name": "onERC1155BatchReceived",
      "outputs": [
        {
          "internalType": "bytes4",
          "name": "",
          "type": "bytes4"
        }
      ],
      "stateMutability": "pure",
      "type": "function"
    },
    {
      "inputs": [
        {
          "internalType": "address",
          "name": "operator",
          "type": "address"
        },
        {
          "internalType": "address",
          "name": "from",
          "type": "address"
        },
        {
          "internalType": "uint256",
          "name": "id",
          "type": "uint256"
        },
        {
          "internalType": "uint256",
          "name": "value",
          "type": "uint256"
        },
        {
          "internalType": "bytes",
          "name": "data",
          "type": "bytes"
        }
      ],
      "name": "onERC1155Received",
      "outputs": [
        {
          "internalType": "bytes4",
          "name": "",
          "type": "bytes4"
        }
      ],
      "stateMutability": "pure",
      "type": "function"
    },
    {
      "inputs": [],
      "name": "owner",
      "outputs": [
        {
          "internalType": "address",
          "name": "",
          "type": "address"
        }
      ],
      "stateMutability": "view",
      "type": "function"
    },
    {
      "inputs": [],
      "name": "pause",
      "outputs": [],
      "stateMutability": "nonpayable",
      "type": "function"
    },
    {
      "inputs": [],
      "name": "paused",
      "outputs": [
        {
          "internalType": "bool",
          "name": "",
          "type": "bool"
        }
      ],
      "stateMutability": "view",
      "type": "function"
    },
    {
      "inputs": [],
      "name": "renounceOwnership",
      "outputs": [],
      "stateMutability": "nonpayable",
      "type": "function"
    },
    {
      "inputs": [
        {
          "internalType": "uint256",
          "name": "toolId",
          "type": "uint256"
        }
      ],
      "name": "repairTool",
      "outputs": [],
      "stateMutability": "nonpayable",
      "type": "function"
    },
    {
      "inputs": [
        {
          "internalType": "address",
          "name": "from",
          "type": "address"
        },
        {
          "internalType": "address",
          "name": "to",
          "type": "address"
        },
        {
          "internalType": "uint256[]",
          "name": "toolIds",
          "type": "uint256[]"
        },
        {
          "internalType": "uint256[]",
          "name": "amounts",
          "type": "uint256[]"
        },
        {
          "internalType": "bytes",
          "name": "data",
          "type": "bytes"
        }
      ],
      "name": "safeBatchTransferFrom",
      "outputs": [],
      "stateMutability": "nonpayable",
      "type": "function"
    },
    {
      "inputs": [
        {
          "internalType": "address",
          "name": "from",
          "type": "address"
        },
        {
          "internalType": "address",
          "name": "to",
          "type": "address"
        },
        {
          "internalType": "uint256",
          "name": "toolId",
          "type": "uint256"
        },
        {
          "internalType": "uint256",
          "name": "amount",
          "type": "uint256"
        },
        {
          "internalType": "bytes",
          "name": "data",
          "type": "bytes"
        }
      ],
      "name": "safeTransferFrom",
      "outputs": [],
      "stateMutability": "nonpayable",
      "type": "function"
    },
    {
      "inputs": [
        {
          "internalType": "address",
          "name": "operator",
          "type": "address"
        },
        {
          "internalType": "bool",
          "name": "approved",
          "type": "bool"
        }
      ],
      "name": "setApprovalForAll",
      "outputs": [],
      "stateMutability": "nonpayable",
      "type": "function"
    },
    {
      "inputs": [
        {
          "internalType": "address",
          "name": "artifactsAddress",
          "type": "address"
        }
      ],
      "name": "setArtifactsAddress",
      "outputs": [],
      "stateMutability": "nonpayable",
      "type": "function"
    },
    {
      "inputs": [
        {
          "internalType": "string",
          "name": "baseURI",
          "type": "string"
        }
      ],
      "name": "setBaseURI",
      "outputs": [],
      "stateMutability": "nonpayable",
      "type": "function"
    },
    {
      "inputs": [
        {
          "internalType": "address",
          "name": "miningAddress",
          "type": "address"
        }
      ],
      "name": "setMiningAddress",
      "outputs": [],
      "stateMutability": "nonpayable",
      "type": "function"
    },
    {
      "inputs": [
        {
          "internalType": "uint256",
          "name": "toolType",
          "type": "uint256"
        },
        {
          "internalType": "uint256",
          "name": "resourcesAmount",
          "type": "uint256"
        },
        {
          "internalType": "uint256[]",
          "name": "artifactsAmount",
          "type": "uint256[]"
        }
      ],
      "name": "setRecipe",
      "outputs": [],
      "stateMutability": "nonpayable",
      "type": "function"
    },
    {
      "inputs": [
        {
          "internalType": "uint256",
          "name": "toolType",
          "type": "uint256"
        },
        {
          "internalType": "uint32",
          "name": "maxStrength",
          "type": "uint32"
        },
        {
          "internalType": "uint32",
          "name": "miningDuration",
          "type": "uint32"
        },
        {
          "internalType": "uint32",
          "name": "energyCost",
          "type": "uint32"
        },
        {
          "internalType": "uint32",
          "name": "strengthCost",
          "type": "uint32"
        }
      ],
      "name": "setToolProperties",
      "outputs": [],
      "stateMutability": "nonpayable",
      "type": "function"
    },
    {
      "inputs": [
        {
          "internalType": "uint256",
          "name": "toolType",
          "type": "uint256"
        },
        {
          "internalType": "string",
          "name": "newURI",
          "type": "string"
        }
      ],
      "name": "setURI",
      "outputs": [],
      "stateMutability": "nonpayable",
      "type": "function"
    },
    {
      "inputs": [
        {
          "internalType": "bytes4",
          "name": "interfaceId",
          "type": "bytes4"
        }
      ],
      "name": "supportsInterface",
      "outputs": [
        {
          "internalType": "bool",
          "name": "",
          "type": "bool"
        }
      ],
      "stateMutability": "view",
      "type": "function"
    },
    {
      "inputs": [
        {
          "internalType": "address",
          "name": "newOwner",
          "type": "address"
        }
      ],
      "name": "transferOwnership",
      "outputs": [],
      "stateMutability": "nonpayable",
      "type": "function"
    },
    {
      "inputs": [
        {
          "internalType": "uint256",
          "name": "toolType",
          "type": "uint256"
        }
      ],
      "name": "uri",
      "outputs": [
        {
          "internalType": "string",
          "name": "",
          "type": "string"
        }
      ],
      "stateMutability": "view",
      "type": "function"
    }
  ],
  "bytecode": "0x608060405234801561001057600080fd5b5061456c806100206000396000f3fe608060405234801561001057600080fd5b50600436106102ac5760003560e01c8063862440e21161017b578063e61e401a116100d8578063f242432a1161008c578063f3917bd211610071578063f3917bd21461071d578063f6e384e414610730578063f8d12a411461074357600080fd5b8063f242432a146106f7578063f2fde38b1461070a57600080fd5b8063e985e9c5116100bd578063e985e9c514610671578063ee100cd6146106ad578063f23a6e61146106be57600080fd5b8063e61e401a14610655578063e7fa2e6c1461066857600080fd5b8063aa48fbf51161012f578063daa6c75511610114578063daa6c755146105fd578063e30d34a714610606578063e53fbda61461061957600080fd5b8063aa48fbf514610598578063bc197c81146105ab57600080fd5b80639bccf8ec116101605780639bccf8ec14610569578063a22cb4651461057c578063a264adc01461058f57600080fd5b8063862440e2146105455780638da5cb5b1461055857600080fd5b80633dfc8f2111610229578063715018a6116101dd5780637ae1f137116101c25780637ae1f137146104b45780637c280237146104c75780638456cb591461053d57600080fd5b8063715018a61461049957806377a2ec4d146104a157600080fd5b80634e1273f41161020e5780634e1273f41461045b57806355f804b31461047b5780635c975abb1461048e57600080fd5b80633dfc8f211461038357806343cac2b11461043657600080fd5b80631399de51116102805780632eb2c2d6116102655780632eb2c2d61461034a5780632fb3b3611461035d5780633524f16c1461037057600080fd5b80631399de51146103245780631f7fdffa1461033757600080fd5b8062fdd58e146102b157806301ffc9a7146102d75780630e89341c146102fa5780630ebb956d1461031a575b600080fd5b6102c46102bf366004613698565b610764565b6040519081526020015b60405180910390f35b6102ea6102e53660046136d8565b61080f565b60405190151581526020016102ce565b61030d6103083660046136f5565b610870565b6040516102ce919061376a565b610322610951565b005b6103226103323660046137c9565b6109e9565b61032261034536600461385e565b610b44565b610322610358366004613a5f565b610ec0565b61032261036b366004613b09565b610f76565b61032261037e3660046136f5565b6111a9565b61040e610391366004613698565b6001600160a01b0382166000908152610109602090815260408083208484528252808320546001600160801b0380821680865261010790945291909320549192600160801b9004169063ffffffff808216916801000000000000000081048216916c01000000000000000000000000909104169295509295909350565b604080519586526020860194909452928401919091526060830152608082015260a0016102ce565b60fe546001600160a01b03165b6040516001600160a01b0390911681526020016102ce565b61046e610469366004613b90565b6114ca565b6040516102ce9190613c96565b610322610489366004613ca9565b611608565b60c95460ff166102ea565b61032261161e565b6103226104af366004613ceb565b611632565b6104436104c23660046136f5565b611669565b61051d6104d53660046136f5565b6000908152610107602052604090205463ffffffff6401000000008204811692818316926801000000000000000081048316926c010000000000000000000000009091041690565b6040805194855260208501939093529183015260608201526080016102ce565b6103226116c4565b610322610553366004613d06565b6116e6565b6033546001600160a01b0316610443565b6102c4610577366004613d66565b6116fe565b61032261058a366004613e32565b611936565b610101546102c4565b6103226105a6366004613ceb565b611941565b6105e46105b9366004613e69565b7fbc197c819b3e337a6f9652dd10becd7eef83032af3b9d958d3d42f66941466219695505050505050565b6040516001600160e01b031990911681526020016102ce565b610102546102c4565b610322610614366004613f19565b611978565b6102c46106273660046136f5565b336000908152610109602090815260408083209383529290522054600160801b90046001600160801b031690565b610322610663366004613f4c565b611a79565b610103546102c4565b6102ea61067f366004613faa565b6001600160a01b03918216600090815260986020908152604080832093909416825291909152205460ff1690565b60fc546001600160a01b0316610443565b6105e46106cc366004613fdd565b7ff23a6e612e1ff4830e658fe43f4e3cb4a5f8170bd5d9e69fb5d7a7fa9e4fdf979695505050505050565b610322610705366004614043565b611c7f565b610322610718366004613ceb565b611dd5565b61032261072b3660046136f5565b611e65565b61032261073e3660046140a8565b61229d565b6107566107513660046136f5565b6124dd565b6040516102ce9291906140f3565b60006001600160a01b0383166107e75760405162461bcd60e51b815260206004820152602a60248201527f455243313135353a2061646472657373207a65726f206973206e6f742061207660448201527f616c6964206f776e65720000000000000000000000000000000000000000000060648201526084015b60405180910390fd5b5060009081526097602090815260408083206001600160a01b03949094168352929052205490565b60006001600160e01b03198216636cdb3d1360e11b148061084057506001600160e01b031982166301ffc9a760e01b145b8061085b57506001600160e01b031982166301ffc9a760e01b145b8061086a575061086a826125ca565b92915050565b6000818152610106602052604081208054606092919061088f90614114565b80601f01602080910402602001604051908101604052809291908181526020018280546108bb90614114565b80156109085780601f106108dd57610100808354040283529160200191610908565b820191906000526020600020905b8154815290600101906020018083116108eb57829003601f168201915b5050505050905060008151116109265761092183612633565b61094a565b60fd8160405160200161093a92919061416b565b6040516020818303038152906040525b9392505050565b60fc546001600160a01b031633146109d15760405162461bcd60e51b815260206004820152602a60248201527f546f6f6c733a2063616c6c6572206973206e6f7420616e20417274696661637460448201527f7320636f6e74726163740000000000000000000000000000000000000000000060648201526084016107de565b61010280549060006109e283614228565b9190505550565b6109f16126c7565b61010154841115610a445760405162461bcd60e51b815260206004820152601e60248201527f546f6f6c733a20696e76616c696420746f6f6c54797065732076616c7565000060448201526064016107de565b610102548114610a965760405162461bcd60e51b815260206004820152601960248201527f546f6f6c733a20696e76616c69642061727261792073697a650000000000000060448201526064016107de565b6000848152610108602052604081208490555b61010254811015610b0057828282818110610ac657610ac6614243565b6000888152610108602090815260408083208784526001018252909120910292909201359091555080610af881614228565b915050610aa9565b507f36726119f64f1c98115eb86c6099e74e39f6a954e8c56a8c88dbc02ee6e5575284848484604051610b369493929190614259565b60405180910390a150505050565b610b4c6126c7565b60fb54604051631846d2f560e31b81526001600160a01b03808a1660048301528992169063c23697a8906024016020604051808303816000875af1158015610b98573d6000803e3d6000fd5b505050506040513d601f19601f82011682018060405250810190610bbc91906142bc565b15610c095760405162461bcd60e51b815260206004820152601860248201527f546f6f6c733a207573657220696e20626c61636b6c697374000000000000000060448201526064016107de565b61010154610c595760405162461bcd60e51b815260206004820152600f60248201527f546f6f6c733a206e6f20746f6f6c73000000000000000000000000000000000060448201526064016107de565b60005b86811015610ce15761010154888883818110610c7a57610c7a614243565b905060200201351115610ccf5760405162461bcd60e51b815260206004820152601e60248201527f546f6f6c733a20696e76616c696420746f6f6c54797065732076616c7565000060448201526064016107de565b80610cd981614228565b915050610c5c565b50610d848888888080602002602001604051908101604052809392919081815260200183836020028082843760009201919091525050604080516020808c0282810182019093528b82529093508b92508a91829185019084908082843760009201919091525050604080516020601f8b01819004810282018101909252898152925089915088908190840183828082843760009201919091525061272192505050565b60005b86811015610eb55760005b85811015610ea2576101008054906000610dab83614228565b9190505550888883818110610dc257610dc2614243565b6001600160a01b038d166000908152610109602090815260408083206101005484528252822080546fffffffffffffffffffffffffffffffff19169390910294909401356001600160801b03169190911790925550610107908a8a85818110610e2d57610e2d614243565b602090810292909201358352508181019290925260409081016000908120546001600160a01b038e16825261010984528282206101005483529093522080546001600160801b031664010000000090920463ffffffff16600160801b0291909117905580610e9a81614228565b915050610d92565b5080610ead81614228565b915050610d87565b505050505050505050565b60005b8351811015610f6e57828181518110610ede57610ede614243565b6020026020010151600114610f355760405162461bcd60e51b815260206004820152601860248201527f546f6f6c733a20746f6b656e496420697320756e69717565000000000000000060448201526064016107de565b610f5c8686868481518110610f4c57610f4c614243565b6020026020010151600186611c7f565b80610f6681614228565b915050610ec3565b505050505050565b600054610100900460ff1615808015610f965750600054600160ff909116105b80610fb05750303b158015610fb0575060005460ff166001145b6110225760405162461bcd60e51b815260206004820152602e60248201527f496e697469616c697a61626c653a20636f6e747261637420697320616c72656160448201527f647920696e697469616c697a656400000000000000000000000000000000000060648201526084016107de565b6000805460ff191660011790558015611045576000805461ff0019166101001790555b60ff805461dead73ffffffffffffffffffffffffffffffffffffffff199182161790915560fb805482166001600160a01b038981169190911790915561010460209081527f0c81ce4857d5b94b8c75139d9e9e2911ece8cd067eddba6000e40a08e09d5643805484168984161790557f366700fa4a54fabf41470ae21330c7a9ced6ce535b281916c3ea8a91b225034d8054841688841617905560026000527fddd1838ad54486b43121aa4469d740f4d55ed333facef0ee1fcc9f1cb9a2ae7c80549093169186169190911790915560066101025560036101035582516111329160fd919085019061356f565b5061114b604051806020016040528060008152506128fd565b611153612971565b61115b6129e4565b8015610f6e576000805461ff0019169055604051600181527f7f26b83ff96e1f2b6a682f133852f6798a09c465da95921460cefb3847402498906020015b60405180910390a1505050505050565b6111b1612a57565b3360fb54604051631846d2f560e31b81526001600160a01b0383811660048301529091169063c23697a8906024016020604051808303816000875af11580156111fe573d6000803e3d6000fd5b505050506040513d601f19601f8201168201806040525081019061122291906142bc565b1561126f5760405162461bcd60e51b815260206004820152601860248201527f546f6f6c733a207573657220696e20626c61636b6c697374000000000000000060448201526064016107de565b336000908152610109602090815260408083208584528252918290208251808401909352546001600160801b03808216808552600160801b9092041691830191909152806112ff5760405162461bcd60e51b815260206004820152601a60248201527f546f6f6c733a20746f6f6c20646f6573206e6f7420657869737400000000000060448201526064016107de565b81516001600160801b03166000908152610107602090815260408220549084015164010000000090910463ffffffff16919060059061133e90846142ef565b611348919061432d565b6001600160801b03169050806113c65760405162461bcd60e51b815260206004820152602860248201527f546f6f6c733a2074686520746f6f6c20697320616c7265616479207374726f6e60448201527f6720656e6f75676800000000000000000000000000000000000000000000000060648201526084016107de565b6101046000600281526020810191909152604001600020546001600160a01b03166323b872dd3360ff5460405160e084901b6001600160e01b03191681526001600160a01b03928316600482015291166024820152604481018490526064016020604051808303816000875af1158015611444573d6000803e3d6000fd5b505050506040513d601f19601f8201168201806040525081019061146891906142bc565b503360009081526101096020908152604080832089845282529182902080546001600160801b03868116600160801b02911617905590518781527f489732742a3b7fa64b47009a0782e6a403d44f8efd85d60cea8722a001e166739101611199565b606081518351146115435760405162461bcd60e51b815260206004820152602960248201527f455243313135353a206163636f756e747320616e6420696473206c656e67746860448201527f206d69736d61746368000000000000000000000000000000000000000000000060648201526084016107de565b6000835167ffffffffffffffff81111561155f5761155f613909565b604051908082528060200260200182016040528015611588578160200160208202803683370190505b50905060005b8451811015611600576115d38582815181106115ac576115ac614243565b60200260200101518583815181106115c6576115c6614243565b6020026020010151610764565b8282815181106115e5576115e5614243565b60209081029190910101526115f981614228565b905061158e565b509392505050565b6116106126c7565b61161a8282612aaa565b5050565b6116266126c7565b6116306000612afb565b565b61163a6126c7565b60fe805473ffffffffffffffffffffffffffffffffffffffff19166001600160a01b0392909216919091179055565b60006101046000836002811115611682576116826142d9565b6002811115611693576116936142d9565b60028111156116a4576116a46142d9565b81526020810191909152604001600020546001600160a01b031692915050565b6116cc6126c7565b60c95460ff166116de57611630612b5a565b611630612bb4565b6116ee6126c7565b6116f9838383612bed565b505050565b60006117086126c7565b61171360058b614353565b63ffffffff16156117665760405162461bcd60e51b815260206004820152601d60248201527f546f6f6c733a20696e76616c696420737472656e6774682076616c756500000060448201526064016107de565b60008963ffffffff16116117e25760405162461bcd60e51b815260206004820152603160248201527f546f6f6c733a206d696e696e67206475726174696f6e206d757374206265206760448201527f72656174686572207468616e207a65726f00000000000000000000000000000060648201526084016107de565b61010180549060006117f383614228565b919050555060006101015490508a610107600083815260200190815260200160002060000160046101000a81548163ffffffff021916908363ffffffff16021790555089610107600083815260200190815260200160002060000160086101000a81548163ffffffff021916908363ffffffff160217905550886101076000838152602001908152602001600020600001600c6101000a81548163ffffffff021916908363ffffffff16021790555087610107600083815260200190815260200160002060000160006101000a81548163ffffffff021916908363ffffffff1602179055507f7296f5fa391687be022b0baddb2ec8adabc082c89fa302b5acd49b08bd9e46158160405161190991815260200190565b60405180910390a161191c8185856116e6565b611928818888886109e9565b9a9950505050505050505050565b61161a338383612c4d565b6119496126c7565b60fc805473ffffffffffffffffffffffffffffffffffffffff19166001600160a01b0392909216919091179055565b611980612a57565b60fe546001600160a01b0316336001600160a01b031614611a095760405162461bcd60e51b815260206004820152602760248201527f546f6f6c733a206d73672e73656e6465722069736e2774204d696e696e67206360448201527f6f6e74726163740000000000000000000000000000000000000000000000000060648201526084016107de565b6001600160a01b03831660009081526101096020908152604080832085845290915290208054829190601090611a50908490600160801b90046001600160801b03166142ef565b92506101000a8154816001600160801b0302191690836001600160801b03160217905550505050565b611a816126c7565b61010154851115611ad45760405162461bcd60e51b815260206004820152601e60248201527f546f6f6c733a20696e76616c696420746f6f6c54797065732076616c7565000060448201526064016107de565b611adf600585614353565b63ffffffff1615611b325760405162461bcd60e51b815260206004820152601d60248201527f546f6f6c733a20696e76616c696420737472656e6774682076616c756500000060448201526064016107de565b60008363ffffffff1611611bae5760405162461bcd60e51b815260206004820152603160248201527f546f6f6c733a206d696e696e67206475726174696f6e206d757374206265206760448201527f72656174686572207468616e207a65726f00000000000000000000000000000060648201526084016107de565b6000858152610107602090815260409182902080546bffffffffffffffff00000000191664010000000063ffffffff898116919091026bffffffff00000000000000001916919091176801000000000000000088831602177fffffffffffffffffffffffffffffffff00000000ffffffffffffffff00000000166c010000000000000000000000008783160263ffffffff19161790851617905590518681527f0d941a060da7489cee731e5f3679ce755c90811e0811066c59392d5bfe194012910160405180910390a15050505050565b81600114611ccf5760405162461bcd60e51b815260206004820152601860248201527f546f6f6c733a20746f6b656e496420697320756e69717565000000000000000060448201526064016107de565b6001600160a01b0385166000908152610109602090815260408083208684529091529020546001600160801b031680611d4a5760405162461bcd60e51b815260206004820152601960248201527f546f6f6c733a20746f6f6c20646f65736e27742065786973740000000000000060448201526064016107de565b611d578686838686612d42565b5050506001600160a01b039283166000908152610109602081815260408084208585528083528185209690971684529181528183209383529283528120835481546fffffffffffffffffffffffffffffffff19166001600160801b0391821690811783558554600160801b9081900490921690910217905592905255565b611ddd6126c7565b6001600160a01b038116611e595760405162461bcd60e51b815260206004820152602660248201527f4f776e61626c653a206e6577206f776e657220697320746865207a65726f206160448201527f646472657373000000000000000000000000000000000000000000000000000060648201526084016107de565b611e6281612afb565b50565b611e6d612a57565b3360fb54604051631846d2f560e31b81526001600160a01b0383811660048301529091169063c23697a8906024016020604051808303816000875af1158015611eba573d6000803e3d6000fd5b505050506040513d601f19601f82011682018060405250810190611ede91906142bc565b15611f2b5760405162461bcd60e51b815260206004820152601860248201527f546f6f6c733a207573657220696e20626c61636b6c697374000000000000000060448201526064016107de565b60006060611f38846124dd565b6002600090815261010460209081527fddd1838ad54486b43121aa4469d740f4d55ed333facef0ee1fcc9f1cb9a2ae7c5460ff54604080517f23b872dd0000000000000000000000000000000000000000000000000000000081523360048201526001600160a01b03928316602482015260448101889052905196985094965016936323b872dd936064808201949183900301908290875af1158015611fe2573d6000803e3d6000fd5b505050506040513d601f19601f8201168201806040525081019061200691906142bc565b5060016000526101046020527f366700fa4a54fabf41470ae21330c7a9ced6ce535b281916c3ea8a91b225034d5460ff546001600160a01b03918216916323b872dd91339116612057866005614376565b6040516001600160e01b031960e086901b1681526001600160a01b03938416600482015292909116602483015260448201526064016020604051808303816000875af11580156120ab573d6000803e3d6000fd5b505050506040513d601f19601f820116820180604052508101906120cf91906142bc565b5060005b81518110156121d0578181815181106120ee576120ee614243565b60200260200101516000146121be5760fc546001600160a01b031663f242432a3360ff546001600160a01b0316612126856001614395565b86868151811061213857612138614243565b60209081029190910101516040516001600160e01b031960e087901b1681526001600160a01b0394851660048201529390921660248401526044830152606482015260a06084820152600060a482015260c401600060405180830381600087803b1580156121a557600080fd5b505af11580156121b9573d6000803e3d6000fd5b505050505b806121c881614228565b9150506120d3565b506121ed3385600160405180602001604052806000815250612ddd565b61010080549060006121fe83614228565b90915550506040805180820182526001600160801b0386811682526000878152610107602090815284822054640100000000900463ffffffff16818501908152338084526101098352868420610100548552835292869020945190518416600160801b02931692909217909255825191825281018690527f82bf558222c4c37aae80230f0a656373f327bcc6f1ac1ef73c385d4dec21b2239101610b36565b6122a56126c7565b60fb54604051631846d2f560e31b81526001600160a01b0380861660048301528592169063c23697a8906024016020604051808303816000875af11580156122f1573d6000803e3d6000fd5b505050506040513d601f19601f8201168201806040525081019061231591906142bc565b156123625760405162461bcd60e51b815260206004820152601860248201527f546f6f6c733a207573657220696e20626c61636b6c697374000000000000000060448201526064016107de565b610101546123b25760405162461bcd60e51b815260206004820152600f60248201527f546f6f6c733a206e6f20746f6f6c73000000000000000000000000000000000060448201526064016107de565b61010154836001600160801b0316111561240e5760405162461bcd60e51b815260206004820152601e60248201527f546f6f6c733a20696e76616c696420746f6f6c54797065732076616c7565000060448201526064016107de565b61243284846001600160801b03168460405180602001604052806000815250612ddd565b60005b828110156124d657610100805490600061244e83614228565b90915550506040805180820182526001600160801b03808716808352600090815261010760209081528482205463ffffffff640100000000909104168185019081526001600160a01b038b1683526101098252858320610100548452909152939020915192518116600160801b029216919091179055806124ce81614228565b915050612435565b5050505050565b600060606124e9612a57565b6101025467ffffffffffffffff81111561250557612505613909565b60405190808252806020026020018201604052801561252e578160200160208202803683370190505b506000848152610108602052604081205493509091505b610102548110156125c457600084815261010860209081526040808320848452600101909152902054156125b25760008481526101086020908152604080832084845260010190915290205482518390839081106125a5576125a5614243565b6020026020010181815250505b806125bc81614228565b915050612545565b50915091565b60006001600160e01b03198216636cdb3d1360e11b148061261457506001600160e01b031982167f0e89341c00000000000000000000000000000000000000000000000000000000145b8061086a57506301ffc9a760e01b6001600160e01b031983161461086a565b60606099805461264290614114565b80601f016020809104026020016040519081016040528092919081815260200182805461266e90614114565b80156126bb5780601f10612690576101008083540402835291602001916126bb565b820191906000526020600020905b81548152906001019060200180831161269e57829003601f168201915b50505050509050919050565b6033546001600160a01b031633146116305760405162461bcd60e51b815260206004820181905260248201527f4f776e61626c653a2063616c6c6572206973206e6f7420746865206f776e657260448201526064016107de565b6001600160a01b0384166127815760405162461bcd60e51b815260206004820152602160248201527f455243313135353a206d696e7420746f20746865207a65726f206164647265736044820152607360f81b60648201526084016107de565b81518351146127f85760405162461bcd60e51b815260206004820152602860248201527f455243313135353a2069647320616e6420616d6f756e7473206c656e6774682060448201527f6d69736d6174636800000000000000000000000000000000000000000000000060648201526084016107de565b3360005b84518110156128955783818151811061281757612817614243565b60200260200101516097600087848151811061283557612835614243565b602002602001015181526020019081526020016000206000886001600160a01b03166001600160a01b03168152602001908152602001600020600082825461287d9190614395565b9091555081905061288d81614228565b9150506127fc565b50846001600160a01b031660006001600160a01b0316826001600160a01b03167f4a39dc06d4c0dbc64b70af90fd698a233a518aa5d07e595d983b8c0526c8f7fb87876040516128e69291906143ad565b60405180910390a46124d681600087878787612ef3565b600054610100900460ff166129685760405162461bcd60e51b815260206004820152602b60248201527f496e697469616c697a61626c653a20636f6e7472616374206973206e6f74206960448201526a6e697469616c697a696e6760a81b60648201526084016107de565b611e6281613099565b600054610100900460ff166129dc5760405162461bcd60e51b815260206004820152602b60248201527f496e697469616c697a61626c653a20636f6e7472616374206973206e6f74206960448201526a6e697469616c697a696e6760a81b60648201526084016107de565b61163061310d565b600054610100900460ff16612a4f5760405162461bcd60e51b815260206004820152602b60248201527f496e697469616c697a61626c653a20636f6e7472616374206973206e6f74206960448201526a6e697469616c697a696e6760a81b60648201526084016107de565b611630613184565b60c95460ff16156116305760405162461bcd60e51b815260206004820152601060248201527f5061757361626c653a207061757365640000000000000000000000000000000060448201526064016107de565b612ab660fd83836135f3565b507f01e56a02aca7f26a28165a040851ba78f30282b55ca81c63a804cdc1e2dcea72612ae26001610870565b604051612aef919061376a565b60405180910390a15050565b603380546001600160a01b0383811673ffffffffffffffffffffffffffffffffffffffff19831681179093556040519116919082907f8be0079c531659141344cd1fd0a4f28419497f9722a3daafe3b4186f6b6457e090600090a35050565b612b62612a57565b60c9805460ff191660011790557f62e78cea01bee320cd4e420270b5ea74000d11b0c9f74754ebdbfc544b05a258612b973390565b6040516001600160a01b03909116815260200160405180910390a1565b612bbc6131f8565b60c9805460ff191690557f5db9ee0a495bf2e6ff9c91a7834c1ba4fdd244a5e8aa4e537bd38aeae4b073aa33612b97565b600083815261010660205260409020612c079083836135f3565b50827f6bb7ff708619ba0610cba295a58592e0451dee2622938c8755667688daf3529b612c3385610870565b604051612c40919061376a565b60405180910390a2505050565b816001600160a01b0316836001600160a01b03161415612cd55760405162461bcd60e51b815260206004820152602960248201527f455243313135353a2073657474696e6720617070726f76616c2073746174757360448201527f20666f722073656c66000000000000000000000000000000000000000000000060648201526084016107de565b6001600160a01b03838116600081815260986020908152604080832094871680845294825291829020805460ff191686151590811790915591519182527f17307eab39ab6107e8899845ad3d59bd9653f200f220920489ca2b5937696c31910160405180910390a3505050565b6001600160a01b038516331480612d5e5750612d5e853361067f565b612dd05760405162461bcd60e51b815260206004820152602f60248201527f455243313135353a2063616c6c6572206973206e6f7420746f6b656e206f776e60448201527f6572206e6f7220617070726f766564000000000000000000000000000000000060648201526084016107de565b6124d6858585858561324a565b6001600160a01b038416612e3d5760405162461bcd60e51b815260206004820152602160248201527f455243313135353a206d696e7420746f20746865207a65726f206164647265736044820152607360f81b60648201526084016107de565b336000612e4985613419565b90506000612e5685613419565b905060008681526097602090815260408083206001600160a01b038b16845290915281208054879290612e8a908490614395565b909155505060408051878152602081018790526001600160a01b03808a1692600092918716917fc3d58168c5ae7397731d063d5bbf3d657854427343f4c083240f7aacaa2d0f62910160405180910390a4612eea83600089898989613464565b50505050505050565b6001600160a01b0384163b15610f6e5760405163bc197c8160e01b81526001600160a01b0385169063bc197c8190612f3790899089908890889088906004016143d2565b6020604051808303816000875af1925050508015612f72575060408051601f3d908101601f19168201909252612f6f91810190614430565b60015b61302857612f7e61444d565b806308c379a01415612fb85750612f93614469565b80612f9e5750612fba565b8060405162461bcd60e51b81526004016107de919061376a565b505b60405162461bcd60e51b815260206004820152603460248201527f455243313135353a207472616e7366657220746f206e6f6e204552433131353560448201527f526563656976657220696d706c656d656e74657200000000000000000000000060648201526084016107de565b6001600160e01b0319811663bc197c8160e01b14612eea5760405162461bcd60e51b815260206004820152602860248201527f455243313135353a204552433131353552656365697665722072656a656374656044820152676420746f6b656e7360c01b60648201526084016107de565b600054610100900460ff166131045760405162461bcd60e51b815260206004820152602b60248201527f496e697469616c697a61626c653a20636f6e7472616374206973206e6f74206960448201526a6e697469616c697a696e6760a81b60648201526084016107de565b611e6281613560565b600054610100900460ff166131785760405162461bcd60e51b815260206004820152602b60248201527f496e697469616c697a61626c653a20636f6e7472616374206973206e6f74206960448201526a6e697469616c697a696e6760a81b60648201526084016107de565b60c9805460ff19169055565b600054610100900460ff166131ef5760405162461bcd60e51b815260206004820152602b60248201527f496e697469616c697a61626c653a20636f6e7472616374206973206e6f74206960448201526a6e697469616c697a696e6760a81b60648201526084016107de565b61163033612afb565b60c95460ff166116305760405162461bcd60e51b815260206004820152601460248201527f5061757361626c653a206e6f742070617573656400000000000000000000000060448201526064016107de565b6001600160a01b0384166132c65760405162461bcd60e51b815260206004820152602560248201527f455243313135353a207472616e7366657220746f20746865207a65726f20616460448201527f647265737300000000000000000000000000000000000000000000000000000060648201526084016107de565b3360006132d285613419565b905060006132df85613419565b905060008681526097602090815260408083206001600160a01b038c1684529091529020548581101561337a5760405162461bcd60e51b815260206004820152602a60248201527f455243313135353a20696e73756666696369656e742062616c616e636520666f60448201527f72207472616e736665720000000000000000000000000000000000000000000060648201526084016107de565b60008781526097602090815260408083206001600160a01b038d8116855292528083208985039055908a168252812080548892906133b9908490614395565b909155505060408051888152602081018890526001600160a01b03808b16928c821692918816917fc3d58168c5ae7397731d063d5bbf3d657854427343f4c083240f7aacaa2d0f62910160405180910390a4610eb5848a8a8a8a8a613464565b6040805160018082528183019092526060916000919060208083019080368337019050509050828160008151811061345357613453614243565b602090810291909101015292915050565b6001600160a01b0384163b15610f6e5760405163f23a6e6160e01b81526001600160a01b0385169063f23a6e61906134a890899089908890889088906004016144f3565b6020604051808303816000875af19250505080156134e3575060408051601f3d908101601f191682019092526134e091810190614430565b60015b6134ef57612f7e61444d565b6001600160e01b0319811663f23a6e6160e01b14612eea5760405162461bcd60e51b815260206004820152602860248201527f455243313135353a204552433131353552656365697665722072656a656374656044820152676420746f6b656e7360c01b60648201526084016107de565b805161161a9060999060208401905b82805461357b90614114565b90600052602060002090601f01602090048101928261359d57600085556135e3565b82601f106135b657805160ff19168380011785556135e3565b828001600101855582156135e3579182015b828111156135e35782518255916020019190600101906135c8565b506135ef929150613667565b5090565b8280546135ff90614114565b90600052602060002090601f01602090048101928261362157600085556135e3565b82601f1061363a5782800160ff198235161785556135e3565b828001600101855582156135e3579182015b828111156135e357823582559160200191906001019061364c565b5b808211156135ef5760008155600101613668565b80356001600160a01b038116811461369357600080fd5b919050565b600080604083850312156136ab57600080fd5b6136b48361367c565b946020939093013593505050565b6001600160e01b031981168114611e6257600080fd5b6000602082840312156136ea57600080fd5b813561094a816136c2565b60006020828403121561370757600080fd5b5035919050565b60005b83811015613729578181015183820152602001613711565b83811115613738576000848401525b50505050565b6000815180845261375681602086016020860161370e565b601f01601f19169290920160200192915050565b60208152600061094a602083018461373e565b60008083601f84011261378f57600080fd5b50813567ffffffffffffffff8111156137a757600080fd5b6020830191508360208260051b85010111156137c257600080fd5b9250929050565b600080600080606085870312156137df57600080fd5b8435935060208501359250604085013567ffffffffffffffff81111561380457600080fd5b6138108782880161377d565b95989497509550505050565b60008083601f84011261382e57600080fd5b50813567ffffffffffffffff81111561384657600080fd5b6020830191508360208285010111156137c257600080fd5b60008060008060008060006080888a03121561387957600080fd5b6138828861367c565b9650602088013567ffffffffffffffff8082111561389f57600080fd5b6138ab8b838c0161377d565b909850965060408a01359150808211156138c457600080fd5b6138d08b838c0161377d565b909650945060608a01359150808211156138e957600080fd5b506138f68a828b0161381c565b989b979a50959850939692959293505050565b634e487b7160e01b600052604160045260246000fd5b601f8201601f1916810167ffffffffffffffff8111828210171561394557613945613909565b6040525050565b600067ffffffffffffffff82111561396657613966613909565b5060051b60200190565b600082601f83011261398157600080fd5b8135602061398e8261394c565b60405161399b828261391f565b83815260059390931b85018201928281019150868411156139bb57600080fd5b8286015b848110156139d657803583529183019183016139bf565b509695505050505050565b600067ffffffffffffffff8311156139fb576139fb613909565b604051613a12601f8501601f19166020018261391f565b809150838152848484011115613a2757600080fd5b83836020830137600060208583010152509392505050565b600082601f830112613a5057600080fd5b61094a838335602085016139e1565b600080600080600060a08688031215613a7757600080fd5b613a808661367c565b9450613a8e6020870161367c565b9350604086013567ffffffffffffffff80821115613aab57600080fd5b613ab789838a01613970565b94506060880135915080821115613acd57600080fd5b613ad989838a01613970565b93506080880135915080821115613aef57600080fd5b50613afc88828901613a3f565b9150509295509295909350565b600080600080600060a08688031215613b2157600080fd5b613b2a8661367c565b9450613b386020870161367c565b9350613b466040870161367c565b9250613b546060870161367c565b9150608086013567ffffffffffffffff811115613b7057600080fd5b8601601f81018813613b8157600080fd5b613afc888235602084016139e1565b60008060408385031215613ba357600080fd5b823567ffffffffffffffff80821115613bbb57600080fd5b818501915085601f830112613bcf57600080fd5b81356020613bdc8261394c565b604051613be9828261391f565b83815260059390931b8501820192828101915089841115613c0957600080fd5b948201945b83861015613c2e57613c1f8661367c565b82529482019490820190613c0e565b96505086013592505080821115613c4457600080fd5b50613c5185828601613970565b9150509250929050565b600081518084526020808501945080840160005b83811015613c8b57815187529582019590820190600101613c6f565b509495945050505050565b60208152600061094a6020830184613c5b565b60008060208385031215613cbc57600080fd5b823567ffffffffffffffff811115613cd357600080fd5b613cdf8582860161381c565b90969095509350505050565b600060208284031215613cfd57600080fd5b61094a8261367c565b600080600060408486031215613d1b57600080fd5b83359250602084013567ffffffffffffffff811115613d3957600080fd5b613d458682870161381c565b9497909650939450505050565b803563ffffffff8116811461369357600080fd5b600080600080600080600080600060e08a8c031215613d8457600080fd5b613d8d8a613d52565b9850613d9b60208b01613d52565b9750613da960408b01613d52565b9650613db760608b01613d52565b955060808a0135945060a08a013567ffffffffffffffff80821115613ddb57600080fd5b613de78d838e0161377d565b909650945060c08c0135915080821115613e0057600080fd5b50613e0d8c828d0161381c565b915080935050809150509295985092959850929598565b8015158114611e6257600080fd5b60008060408385031215613e4557600080fd5b613e4e8361367c565b91506020830135613e5e81613e24565b809150509250929050565b60008060008060008060a08789031215613e8257600080fd5b613e8b8761367c565b9550613e996020880161367c565b9450604087013567ffffffffffffffff80821115613eb657600080fd5b613ec28a838b01613970565b95506060890135915080821115613ed857600080fd5b613ee48a838b01613970565b94506080890135915080821115613efa57600080fd5b50613f0789828a0161381c565b979a9699509497509295939492505050565b600080600060608486031215613f2e57600080fd5b613f378461367c565b95602085013595506040909401359392505050565b600080600080600060a08688031215613f6457600080fd5b85359450613f7460208701613d52565b9350613f8260408701613d52565b9250613f9060608701613d52565b9150613f9e60808701613d52565b90509295509295909350565b60008060408385031215613fbd57600080fd5b613fc68361367c565b9150613fd46020840161367c565b90509250929050565b60008060008060008060a08789031215613ff657600080fd5b613fff8761367c565b955061400d6020880161367c565b94506040870135935060608701359250608087013567ffffffffffffffff81111561403757600080fd5b613f0789828a0161381c565b600080600080600060a0868803121561405b57600080fd5b6140648661367c565b94506140726020870161367c565b93506040860135925060608601359150608086013567ffffffffffffffff81111561409c57600080fd5b613afc88828901613a3f565b6000806000606084860312156140bd57600080fd5b6140c68461367c565b925060208401356001600160801b03811681146140e257600080fd5b929592945050506040919091013590565b82815260406020820152600061410c6040830184613c5b565b949350505050565b600181811c9082168061412857607f821691505b6020821081141561414957634e487b7160e01b600052602260045260246000fd5b50919050565b6000815161416181856020860161370e565b9290920192915050565b600080845481600182811c91508083168061418757607f831692505b60208084108214156141a757634e487b7160e01b86526022600452602486fd5b8180156141bb57600181146141cc576141f9565b60ff198616895284890196506141f9565b60008b81526020902060005b868110156141f15781548b8201529085019083016141d8565b505084890196505b505050505050614209818561414f565b95945050505050565b634e487b7160e01b600052601160045260246000fd5b600060001982141561423c5761423c614212565b5060010190565b634e487b7160e01b600052603260045260246000fd5b8481528360208201526060604082015281606082015260007f07ffffffffffffffffffffffffffffffffffffffffffffffffffffffffffffff83111561429e57600080fd5b8260051b808560808501376000920160800191825250949350505050565b6000602082840312156142ce57600080fd5b815161094a81613e24565b634e487b7160e01b600052602160045260246000fd5b60006001600160801b038381169083168181101561430f5761430f614212565b039392505050565b634e487b7160e01b600052601260045260246000fd5b60006001600160801b038084168061434757614347614317565b92169190910492915050565b600063ffffffff8084168061436a5761436a614317565b92169190910692915050565b600081600019048311821515161561439057614390614212565b500290565b600082198211156143a8576143a8614212565b500190565b6040815260006143c06040830185613c5b565b82810360208401526142098185613c5b565b60006001600160a01b03808816835280871660208401525060a060408301526143fe60a0830186613c5b565b82810360608401526144108186613c5b565b90508281036080840152614424818561373e565b98975050505050505050565b60006020828403121561444257600080fd5b815161094a816136c2565b600060033d11156144665760046000803e5060005160e01c5b90565b600060443d10156144775790565b6040516003193d81016004833e81513d67ffffffffffffffff81602484011181841117156144a757505050505090565b82850191508151818111156144bf5750505050505090565b843d87010160208285010111156144d95750505050505090565b6144e86020828601018761391f565b509095945050505050565b60006001600160a01b03808816835280871660208401525084604083015283606083015260a0608083015261452b60a083018461373e565b97965050505050505056fea2646970667358221220302912f85bd0df98674898f6b46c29b432b4f81782ae474e4f0e03304f78847364736f6c634300080c0033",
  "linkReferences": {},
  "deployedLinkReferences": {}
}