{
  "_format": "hh-sol-artifact-1",
  "contractName": "Tools",
  "sourceName": "contracts/Tools.sol",
  "abi": [
    {
      "anonymous": false,
      "inputs": [
        {
          "indexed": false,
          "internalType": "uint256",
          "name": "toolType",
          "type": "uint256"
        }
      ],
      "name": "AddTool",
      "type": "event"
    },
    {
      "anonymous": false,
      "inputs": [
        {
          "indexed": true,
          "internalType": "address",
          "name": "account",
          "type": "address"
        },
        {
          "indexed": true,
          "internalType": "address",
          "name": "operator",
          "type": "address"
        },
        {
          "indexed": false,
          "internalType": "bool",
          "name": "approved",
          "type": "bool"
        }
      ],
      "name": "ApprovalForAll",
      "type": "event"
    },
    {
      "anonymous": false,
      "inputs": [
        {
          "indexed": false,
          "internalType": "string",
          "name": "baseURI",
          "type": "string"
        }
      ],
      "name": "BaseURI",
      "type": "event"
    },
    {
      "anonymous": false,
      "inputs": [
        {
          "indexed": false,
          "internalType": "address",
          "name": "user",
          "type": "address"
        },
        {
          "indexed": false,
          "internalType": "uint256",
          "name": "",
          "type": "uint256"
        }
      ],
      "name": "Craft",
      "type": "event"
    },
    {
      "anonymous": false,
      "inputs": [
        {
          "indexed": false,
          "internalType": "uint8",
          "name": "version",
          "type": "uint8"
        }
      ],
      "name": "Initialized",
      "type": "event"
    },
    {
      "anonymous": false,
      "inputs": [
        {
          "indexed": true,
          "internalType": "address",
          "name": "previousOwner",
          "type": "address"
        },
        {
          "indexed": true,
          "internalType": "address",
          "name": "newOwner",
          "type": "address"
        }
      ],
      "name": "OwnershipTransferred",
      "type": "event"
    },
    {
      "anonymous": false,
      "inputs": [
        {
          "indexed": false,
          "internalType": "address",
          "name": "account",
          "type": "address"
        }
      ],
      "name": "Paused",
      "type": "event"
    },
    {
      "anonymous": false,
      "inputs": [
        {
          "indexed": false,
          "internalType": "uint256",
          "name": "toolType",
          "type": "uint256"
        },
        {
          "indexed": false,
          "internalType": "uint256",
          "name": "resourcesAmount",
          "type": "uint256"
        },
        {
          "indexed": false,
          "internalType": "uint256[]",
          "name": "artifactsAmount",
          "type": "uint256[]"
        }
      ],
      "name": "RecipeCreatedOrUpdated",
      "type": "event"
    },
    {
      "anonymous": false,
      "inputs": [
        {
          "indexed": false,
          "internalType": "uint256",
          "name": "toolType",
          "type": "uint256"
        }
      ],
      "name": "ToolPropertiesSet",
      "type": "event"
    },
    {
      "anonymous": false,
      "inputs": [
        {
          "indexed": false,
          "internalType": "uint256",
          "name": "toolId",
          "type": "uint256"
        }
      ],
      "name": "ToolRepaired",
      "type": "event"
    },
    {
      "anonymous": false,
      "inputs": [
        {
          "indexed": true,
          "internalType": "address",
          "name": "operator",
          "type": "address"
        },
        {
          "indexed": true,
          "internalType": "address",
          "name": "from",
          "type": "address"
        },
        {
          "indexed": true,
          "internalType": "address",
          "name": "to",
          "type": "address"
        },
        {
          "indexed": false,
          "internalType": "uint256[]",
          "name": "ids",
          "type": "uint256[]"
        },
        {
          "indexed": false,
          "internalType": "uint256[]",
          "name": "values",
          "type": "uint256[]"
        }
      ],
      "name": "TransferBatch",
      "type": "event"
    },
    {
      "anonymous": false,
      "inputs": [
        {
          "indexed": true,
          "internalType": "address",
          "name": "operator",
          "type": "address"
        },
        {
          "indexed": true,
          "internalType": "address",
          "name": "from",
          "type": "address"
        },
        {
          "indexed": true,
          "internalType": "address",
          "name": "to",
          "type": "address"
        },
        {
          "indexed": false,
          "internalType": "uint256",
          "name": "id",
          "type": "uint256"
        },
        {
          "indexed": false,
          "internalType": "uint256",
          "name": "value",
          "type": "uint256"
        }
      ],
      "name": "TransferSingle",
      "type": "event"
    },
    {
      "anonymous": false,
      "inputs": [
        {
          "indexed": false,
          "internalType": "string",
          "name": "value",
          "type": "string"
        },
        {
          "indexed": true,
          "internalType": "uint256",
          "name": "id",
          "type": "uint256"
        }
      ],
      "name": "URI",
      "type": "event"
    },
    {
      "anonymous": false,
      "inputs": [
        {
          "indexed": false,
          "internalType": "address",
          "name": "account",
          "type": "address"
        }
      ],
      "name": "Unpaused",
      "type": "event"
    },
    {
      "inputs": [
        {
          "internalType": "uint32",
          "name": "maxStrength",
          "type": "uint32"
        },
        {
          "internalType": "uint32",
          "name": "miningDuration",
          "type": "uint32"
        },
        {
          "internalType": "uint32",
          "name": "energyCost",
          "type": "uint32"
        },
        {
          "internalType": "uint32",
          "name": "strengthCost",
          "type": "uint32"
        },
        {
          "internalType": "uint256",
          "name": "resourcesAmount",
          "type": "uint256"
        },
        {
          "internalType": "uint256[]",
          "name": "artifactsAmount",
          "type": "uint256[]"
        },
        {
          "internalType": "string",
          "name": "newURI",
          "type": "string"
        }
      ],
      "name": "addTool",
      "outputs": [
        {
          "internalType": "uint256",
          "name": "",
          "type": "uint256"
        }
      ],
      "stateMutability": "nonpayable",
      "type": "function"
    },
    {
      "inputs": [
        {
          "internalType": "address",
          "name": "account",
          "type": "address"
        },
        {
          "internalType": "uint256",
          "name": "id",
          "type": "uint256"
        }
      ],
      "name": "balanceOf",
      "outputs": [
        {
          "internalType": "uint256",
          "name": "",
          "type": "uint256"
        }
      ],
      "stateMutability": "view",
      "type": "function"
    },
    {
      "inputs": [
        {
          "internalType": "address[]",
          "name": "accounts",
          "type": "address[]"
        },
        {
          "internalType": "uint256[]",
          "name": "ids",
          "type": "uint256[]"
        }
      ],
      "name": "balanceOfBatch",
      "outputs": [
        {
          "internalType": "uint256[]",
          "name": "",
          "type": "uint256[]"
        }
      ],
      "stateMutability": "view",
      "type": "function"
    },
    {
      "inputs": [
        {
          "internalType": "address",
          "name": "user",
          "type": "address"
        },
        {
          "internalType": "uint256",
          "name": "toolId",
          "type": "uint256"
        },
        {
          "internalType": "uint256",
          "name": "strengthCost",
          "type": "uint256"
        }
      ],
      "name": "corrupt",
      "outputs": [],
      "stateMutability": "nonpayable",
      "type": "function"
    },
    {
      "inputs": [
        {
          "internalType": "uint256",
          "name": "toolType",
          "type": "uint256"
        }
      ],
      "name": "craft",
      "outputs": [],
      "stateMutability": "nonpayable",
      "type": "function"
    },
    {
      "inputs": [],
      "name": "getArtifactsAddress",
      "outputs": [
        {
          "internalType": "address",
          "name": "",
          "type": "address"
        }
      ],
      "stateMutability": "view",
      "type": "function"
    },
    {
      "inputs": [],
      "name": "getArtifactsTypesAmount",
      "outputs": [
        {
          "internalType": "uint256",
          "name": "",
          "type": "uint256"
        }
      ],
      "stateMutability": "view",
      "type": "function"
    },
    {
      "inputs": [],
      "name": "getMiningAddress",
      "outputs": [
        {
          "internalType": "address",
          "name": "",
          "type": "address"
        }
      ],
      "stateMutability": "view",
      "type": "function"
    },
    {
      "inputs": [
        {
          "internalType": "uint256",
          "name": "toolType",
          "type": "uint256"
        }
      ],
      "name": "getRecipe",
      "outputs": [
        {
          "internalType": "uint256",
          "name": "resourcesAmount",
          "type": "uint256"
        },
        {
          "internalType": "uint256[]",
          "name": "artifactsAmount",
          "type": "uint256[]"
        }
      ],
      "stateMutability": "view",
      "type": "function"
    },
    {
      "inputs": [
        {
          "internalType": "uint256",
          "name": "resourceId",
          "type": "uint256"
        }
      ],
      "name": "getResourceAddress",
      "outputs": [
        {
          "internalType": "address",
          "name": "",
          "type": "address"
        }
      ],
      "stateMutability": "view",
      "type": "function"
    },
    {
      "inputs": [],
      "name": "getResourceAmount",
      "outputs": [
        {
          "internalType": "uint256",
          "name": "",
          "type": "uint256"
        }
      ],
      "stateMutability": "view",
      "type": "function"
    },
    {
      "inputs": [
        {
          "internalType": "uint256",
          "name": "toolId",
          "type": "uint256"
        }
      ],
      "name": "getStrength",
      "outputs": [
        {
          "internalType": "uint256",
          "name": "",
          "type": "uint256"
        }
      ],
      "stateMutability": "view",
      "type": "function"
    },
    {
      "inputs": [
        {
          "internalType": "address",
          "name": "user",
          "type": "address"
        },
        {
          "internalType": "uint256",
          "name": "toolId",
          "type": "uint256"
        }
      ],
      "name": "getToolProperties",
      "outputs": [
        {
          "internalType": "uint256",
          "name": "toolType",
          "type": "uint256"
        },
        {
          "internalType": "uint256",
          "name": "strength",
          "type": "uint256"
        },
        {
          "internalType": "uint256",
          "name": "strengthCost",
          "type": "uint256"
        },
        {
          "internalType": "uint256",
          "name": "miningDuration",
          "type": "uint256"
        },
        {
          "internalType": "uint256",
          "name": "energyCost",
          "type": "uint256"
        }
      ],
      "stateMutability": "view",
      "type": "function"
    },
    {
      "inputs": [
        {
          "internalType": "uint256",
          "name": "toolType",
          "type": "uint256"
        }
      ],
      "name": "getToolTypeProperties",
      "outputs": [
        {
          "internalType": "uint256",
          "name": "maxStrength",
          "type": "uint256"
        },
        {
          "internalType": "uint256",
          "name": "strengthCost",
          "type": "uint256"
        },
        {
          "internalType": "uint256",
          "name": "miningDuration",
          "type": "uint256"
        },
        {
          "internalType": "uint256",
          "name": "energyCost",
          "type": "uint256"
        }
      ],
      "stateMutability": "view",
      "type": "function"
    },
    {
      "inputs": [],
      "name": "getToolsTypesAmount",
      "outputs": [
        {
          "internalType": "uint256",
          "name": "",
          "type": "uint256"
        }
      ],
      "stateMutability": "view",
      "type": "function"
    },
    {
      "inputs": [],
      "name": "increaseArtifactAmount",
      "outputs": [],
      "stateMutability": "nonpayable",
      "type": "function"
    },
    {
      "inputs": [
        {
          "internalType": "address",
          "name": "newResource",
          "type": "address"
        }
      ],
      "name": "increaseResourceAmount",
      "outputs": [],
      "stateMutability": "nonpayable",
      "type": "function"
    },
    {
      "inputs": [
        {
          "internalType": "address",
          "name": "blacklistAddress",
          "type": "address"
        },
        {
          "internalType": "address",
          "name": "berryAddress",
          "type": "address"
        },
        {
          "internalType": "address",
          "name": "treeAddress",
          "type": "address"
        },
        {
          "internalType": "address",
          "name": "goldAddress",
          "type": "address"
        },
        {
          "internalType": "string",
          "name": "baseURI",
          "type": "string"
        }
      ],
      "name": "initialize",
      "outputs": [],
      "stateMutability": "nonpayable",
      "type": "function"
    },
    {
      "inputs": [
        {
          "internalType": "address",
          "name": "account",
          "type": "address"
        },
        {
          "internalType": "address",
          "name": "operator",
          "type": "address"
        }
      ],
      "name": "isApprovedForAll",
      "outputs": [
        {
          "internalType": "bool",
          "name": "",
          "type": "bool"
        }
      ],
      "stateMutability": "view",
      "type": "function"
    },
    {
      "inputs": [
        {
          "internalType": "address",
          "name": "to",
          "type": "address"
        },
        {
          "internalType": "uint128",
          "name": "toolType",
          "type": "uint128"
        },
        {
          "internalType": "uint256",
          "name": "amount",
          "type": "uint256"
        }
      ],
      "name": "mint",
      "outputs": [],
      "stateMutability": "nonpayable",
      "type": "function"
    },
    {
      "inputs": [
        {
          "internalType": "address",
          "name": "to",
          "type": "address"
        },
        {
          "internalType": "uint256[]",
          "name": "toolTypes",
          "type": "uint256[]"
        },
        {
          "internalType": "uint256[]",
          "name": "amounts",
          "type": "uint256[]"
        },
        {
          "internalType": "bytes",
          "name": "data",
          "type": "bytes"
        }
      ],
      "name": "mintBatch",
      "outputs": [],
      "stateMutability": "nonpayable",
      "type": "function"
    },
    {
      "inputs": [
        {
          "internalType": "address",
          "name": "operator",
          "type": "address"
        },
        {
          "internalType": "address",
          "name": "from",
          "type": "address"
        },
        {
          "internalType": "uint256[]",
          "name": "ids",
          "type": "uint256[]"
        },
        {
          "internalType": "uint256[]",
          "name": "values",
          "type": "uint256[]"
        },
        {
          "internalType": "bytes",
          "name": "data",
          "type": "bytes"
        }
      ],
      "name": "onERC1155BatchReceived",
      "outputs": [
        {
          "internalType": "bytes4",
          "name": "",
          "type": "bytes4"
        }
      ],
      "stateMutability": "pure",
      "type": "function"
    },
    {
      "inputs": [
        {
          "internalType": "address",
          "name": "operator",
          "type": "address"
        },
        {
          "internalType": "address",
          "name": "from",
          "type": "address"
        },
        {
          "internalType": "uint256",
          "name": "id",
          "type": "uint256"
        },
        {
          "internalType": "uint256",
          "name": "value",
          "type": "uint256"
        },
        {
          "internalType": "bytes",
          "name": "data",
          "type": "bytes"
        }
      ],
      "name": "onERC1155Received",
      "outputs": [
        {
          "internalType": "bytes4",
          "name": "",
          "type": "bytes4"
        }
      ],
      "stateMutability": "pure",
      "type": "function"
    },
    {
      "inputs": [],
      "name": "owner",
      "outputs": [
        {
          "internalType": "address",
          "name": "",
          "type": "address"
        }
      ],
      "stateMutability": "view",
      "type": "function"
    },
    {
      "inputs": [],
      "name": "pause",
      "outputs": [],
      "stateMutability": "nonpayable",
      "type": "function"
    },
    {
      "inputs": [],
      "name": "paused",
      "outputs": [
        {
          "internalType": "bool",
          "name": "",
          "type": "bool"
        }
      ],
      "stateMutability": "view",
      "type": "function"
    },
    {
      "inputs": [],
      "name": "renounceOwnership",
      "outputs": [],
      "stateMutability": "nonpayable",
      "type": "function"
    },
    {
      "inputs": [
        {
          "internalType": "uint256",
          "name": "toolId",
          "type": "uint256"
        }
      ],
      "name": "repairTool",
      "outputs": [],
      "stateMutability": "nonpayable",
      "type": "function"
    },
    {
      "inputs": [
        {
          "internalType": "address",
          "name": "from",
          "type": "address"
        },
        {
          "internalType": "address",
          "name": "to",
          "type": "address"
        },
        {
          "internalType": "uint256[]",
          "name": "toolIds",
          "type": "uint256[]"
        },
        {
          "internalType": "uint256[]",
          "name": "amounts",
          "type": "uint256[]"
        },
        {
          "internalType": "bytes",
          "name": "data",
          "type": "bytes"
        }
      ],
      "name": "safeBatchTransferFrom",
      "outputs": [],
      "stateMutability": "nonpayable",
      "type": "function"
    },
    {
      "inputs": [
        {
          "internalType": "address",
          "name": "from",
          "type": "address"
        },
        {
          "internalType": "address",
          "name": "to",
          "type": "address"
        },
        {
          "internalType": "uint256",
          "name": "toolId",
          "type": "uint256"
        },
        {
          "internalType": "uint256",
          "name": "amount",
          "type": "uint256"
        },
        {
          "internalType": "bytes",
          "name": "data",
          "type": "bytes"
        }
      ],
      "name": "safeTransferFrom",
      "outputs": [],
      "stateMutability": "nonpayable",
      "type": "function"
    },
    {
      "inputs": [
        {
          "internalType": "address",
          "name": "operator",
          "type": "address"
        },
        {
          "internalType": "bool",
          "name": "approved",
          "type": "bool"
        }
      ],
      "name": "setApprovalForAll",
      "outputs": [],
      "stateMutability": "nonpayable",
      "type": "function"
    },
    {
      "inputs": [
        {
          "internalType": "address",
          "name": "artifactsAddress",
          "type": "address"
        }
      ],
      "name": "setArtifactsAddress",
      "outputs": [],
      "stateMutability": "nonpayable",
      "type": "function"
    },
    {
      "inputs": [
        {
          "internalType": "string",
          "name": "baseURI",
          "type": "string"
        }
      ],
      "name": "setBaseURI",
      "outputs": [],
      "stateMutability": "nonpayable",
      "type": "function"
    },
    {
      "inputs": [
        {
          "internalType": "address",
          "name": "miningAddress",
          "type": "address"
        }
      ],
      "name": "setMiningAddress",
      "outputs": [],
      "stateMutability": "nonpayable",
      "type": "function"
    },
    {
      "inputs": [
        {
          "internalType": "uint256",
          "name": "toolType",
          "type": "uint256"
        },
        {
          "internalType": "uint256",
          "name": "resourcesAmount",
          "type": "uint256"
        },
        {
          "internalType": "uint256[]",
          "name": "artifactsAmount",
          "type": "uint256[]"
        }
      ],
      "name": "setRecipe",
      "outputs": [],
      "stateMutability": "nonpayable",
      "type": "function"
    },
    {
      "inputs": [
        {
          "internalType": "uint256",
          "name": "toolType",
          "type": "uint256"
        },
        {
          "internalType": "uint32",
          "name": "maxStrength",
          "type": "uint32"
        },
        {
          "internalType": "uint32",
          "name": "miningDuration",
          "type": "uint32"
        },
        {
          "internalType": "uint32",
          "name": "energyCost",
          "type": "uint32"
        },
        {
          "internalType": "uint32",
          "name": "strengthCost",
          "type": "uint32"
        }
      ],
      "name": "setToolProperties",
      "outputs": [],
      "stateMutability": "nonpayable",
      "type": "function"
    },
    {
      "inputs": [
        {
          "internalType": "uint256",
          "name": "toolType",
          "type": "uint256"
        },
        {
          "internalType": "string",
          "name": "newURI",
          "type": "string"
        }
      ],
      "name": "setURI",
      "outputs": [],
      "stateMutability": "nonpayable",
      "type": "function"
    },
    {
      "inputs": [
        {
          "internalType": "bytes4",
          "name": "interfaceId",
          "type": "bytes4"
        }
      ],
      "name": "supportsInterface",
      "outputs": [
        {
          "internalType": "bool",
          "name": "",
          "type": "bool"
        }
      ],
      "stateMutability": "view",
      "type": "function"
    },
    {
      "inputs": [
        {
          "internalType": "address",
          "name": "newOwner",
          "type": "address"
        }
      ],
      "name": "transferOwnership",
      "outputs": [],
      "stateMutability": "nonpayable",
      "type": "function"
    },
    {
      "inputs": [
        {
          "internalType": "uint256",
          "name": "toolType",
          "type": "uint256"
        }
      ],
      "name": "uri",
      "outputs": [
        {
          "internalType": "string",
          "name": "",
          "type": "string"
        }
      ],
      "stateMutability": "view",
      "type": "function"
    }
  ],
  "bytecode": "0x608060405234801561001057600080fd5b506145bb806100206000396000f3fe608060405234801561001057600080fd5b50600436106102c75760003560e01c80638da5cb5b1161017b578063e61e401a116100d8578063f242432a1161008c578063f3917bd211610071578063f3917bd214610762578063f6e384e414610775578063f8d12a411461078857600080fd5b8063f242432a1461073c578063f2fde38b1461074f57600080fd5b8063e985e9c5116100bd578063e985e9c5146106b6578063ee100cd6146106f2578063f23a6e611461070357600080fd5b8063e61e401a1461069a578063e7fa2e6c146106ad57600080fd5b8063aa48fbf51161012f578063daa6c75511610114578063daa6c75514610642578063e30d34a71461064b578063e53fbda61461065e57600080fd5b8063aa48fbf5146105dd578063bc197c81146105f057600080fd5b8063a22cb46511610160578063a22cb465146105ae578063a264adc0146105c1578063aa1b775a146105ca57600080fd5b80638da5cb5b1461058a5780639bccf8ec1461059b57600080fd5b806343cac2b11161022957806377a2ec4d116101dd5780637c280237116101c25780637c280237146104f95780638456cb591461056f578063862440e21461057757600080fd5b806377a2ec4d146104bc5780637ae1f137146104cf57600080fd5b806355f804b31161020e57806355f804b3146104965780635c975abb146104a9578063715018a6146104b457600080fd5b806343cac2b1146104515780634e1273f41461047657600080fd5b80631f7fdffa116102805780632fb3b361116102655780632fb3b361146103785780633524f16c1461038b5780633dfc8f211461039e57600080fd5b80631f7fdffa146103525780632eb2c2d61461036557600080fd5b80630e89341c116102b15780630e89341c146103155780630ebb956d146103355780631399de511461033f57600080fd5b8062fdd58e146102cc57806301ffc9a7146102f2575b600080fd5b6102df6102da3660046136fd565b6107a9565b6040519081526020015b60405180910390f35b61030561030036600461373d565b610854565b60405190151581526020016102e9565b61032861032336600461375a565b6108b5565b6040516102e991906137cf565b61033d610996565b005b61033d61034d36600461382e565b610a2e565b61033d6103603660046138c3565b610b89565b61033d610373366004613ac4565b610f05565b61033d610386366004613b6e565b610fbb565b61033d61039936600461375a565b6111e0565b6104296103ac3660046136fd565b6001600160a01b0382166000908152610109602090815260408083208484528252808320546001600160801b0380821680865261010790945291909320549192600160801b9004169063ffffffff808216916801000000000000000081048216916c01000000000000000000000000909104169295509295909350565b604080519586526020860194909452928401919091526060830152608082015260a0016102e9565b60fe546001600160a01b03165b6040516001600160a01b0390911681526020016102e9565b610489610484366004613bf5565b611523565b6040516102e99190613cfb565b61033d6104a4366004613d0e565b611661565b60c95460ff16610305565b61033d611677565b61033d6104ca366004613d50565b61168b565b61045e6104dd36600461375a565b600090815261010460205260409020546001600160a01b031690565b61054f61050736600461375a565b6000908152610107602052604090205463ffffffff6401000000008204811692818316926801000000000000000081048316926c010000000000000000000000009091041690565b6040805194855260208501939093529183015260608201526080016102e9565b61033d6116b5565b61033d610585366004613d6b565b6116d7565b6033546001600160a01b031661045e565b6102df6105a9366004613dcb565b6116ef565b61033d6105bc366004613e97565b611927565b610101546102df565b61033d6105d8366004613d50565b611932565b61033d6105eb366004613d50565b6119d9565b6106296105fe366004613ece565b7fbc197c819b3e337a6f9652dd10becd7eef83032af3b9d958d3d42f66941466219695505050505050565b6040516001600160e01b031990911681526020016102e9565b610102546102df565b61033d610659366004613f7e565b611a03565b6102df61066c36600461375a565b336000908152610109602090815260408083209383529290522054600160801b90046001600160801b031690565b61033d6106a8366004613fb1565b611b04565b610103546102df565b6103056106c436600461400f565b6001600160a01b03918216600090815260986020908152604080832093909416825291909152205460ff1690565b60fc546001600160a01b031661045e565b610629610711366004614042565b7ff23a6e612e1ff4830e658fe43f4e3cb4a5f8170bd5d9e69fb5d7a7fa9e4fdf979695505050505050565b61033d61074a3660046140a8565b611d00565b61033d61075d366004613d50565b611e56565b61033d61077036600461375a565b611ee6565b61033d61078336600461410d565b61230f565b61079b61079636600461375a565b61254f565b6040516102e9929190614158565b60006001600160a01b03831661082c5760405162461bcd60e51b815260206004820152602a60248201527f455243313135353a2061646472657373207a65726f206973206e6f742061207660448201527f616c6964206f776e65720000000000000000000000000000000000000000000060648201526084015b60405180910390fd5b5060009081526097602090815260408083206001600160a01b03949094168352929052205490565b60006001600160e01b03198216636cdb3d1360e11b148061088557506001600160e01b031982166301ffc9a760e01b145b806108a057506001600160e01b031982166301ffc9a760e01b145b806108af57506108af8261263c565b92915050565b600081815261010660205260408120805460609291906108d490614179565b80601f016020809104026020016040519081016040528092919081815260200182805461090090614179565b801561094d5780601f106109225761010080835404028352916020019161094d565b820191906000526020600020905b81548152906001019060200180831161093057829003601f168201915b50505050509050600081511161096b57610966836126a5565b61098f565b60fd8160405160200161097f9291906141d0565b6040516020818303038152906040525b9392505050565b60fc546001600160a01b03163314610a165760405162461bcd60e51b815260206004820152602a60248201527f546f6f6c733a2063616c6c6572206973206e6f7420616e20417274696661637460448201527f7320636f6e7472616374000000000000000000000000000000000000000000006064820152608401610823565b6101028054906000610a278361428d565b9190505550565b610a36612739565b61010154841115610a895760405162461bcd60e51b815260206004820152601e60248201527f546f6f6c733a20696e76616c696420746f6f6c54797065732076616c756500006044820152606401610823565b610102548114610adb5760405162461bcd60e51b815260206004820152601960248201527f546f6f6c733a20696e76616c69642061727261792073697a65000000000000006044820152606401610823565b6000848152610108602052604081208490555b61010254811015610b4557828282818110610b0b57610b0b6142a8565b6000888152610108602090815260408083208784526001018252909120910292909201359091555080610b3d8161428d565b915050610aee565b507f36726119f64f1c98115eb86c6099e74e39f6a954e8c56a8c88dbc02ee6e5575284848484604051610b7b94939291906142be565b60405180910390a150505050565b610b91612739565b60fb54604051631846d2f560e31b81526001600160a01b03808a1660048301528992169063c23697a8906024016020604051808303816000875af1158015610bdd573d6000803e3d6000fd5b505050506040513d601f19601f82011682018060405250810190610c019190614321565b15610c4e5760405162461bcd60e51b815260206004820152601860248201527f546f6f6c733a207573657220696e20626c61636b6c69737400000000000000006044820152606401610823565b61010154610c9e5760405162461bcd60e51b815260206004820152600f60248201527f546f6f6c733a206e6f20746f6f6c7300000000000000000000000000000000006044820152606401610823565b60005b86811015610d265761010154888883818110610cbf57610cbf6142a8565b905060200201351115610d145760405162461bcd60e51b815260206004820152601760248201527f546f6f6c733a20696e76616c69642069642076616c75650000000000000000006044820152606401610823565b80610d1e8161428d565b915050610ca1565b50610dc98888888080602002602001604051908101604052809392919081815260200183836020028082843760009201919091525050604080516020808c0282810182019093528b82529093508b92508a91829185019084908082843760009201919091525050604080516020601f8b01819004810282018101909252898152925089915088908190840183828082843760009201919091525061279392505050565b60005b86811015610efa5760005b85811015610ee7576101008054906000610df08361428d565b9190505550888883818110610e0757610e076142a8565b6001600160a01b038d166000908152610109602090815260408083206101005484528252822080546fffffffffffffffffffffffffffffffff19169390910294909401356001600160801b03169190911790925550610107908a8a85818110610e7257610e726142a8565b602090810292909201358352508181019290925260409081016000908120546001600160a01b038e16825261010984528282206101005483529093522080546001600160801b031664010000000090920463ffffffff16600160801b0291909117905580610edf8161428d565b915050610dd7565b5080610ef28161428d565b915050610dcc565b505050505050505050565b60005b8351811015610fb357828181518110610f2357610f236142a8565b6020026020010151600114610f7a5760405162461bcd60e51b815260206004820152601860248201527f546f6f6c733a20746f6b656e496420697320756e6971756500000000000000006044820152606401610823565b610fa18686868481518110610f9157610f916142a8565b6020026020010151600186611d00565b80610fab8161428d565b915050610f08565b505050505050565b600054610100900460ff1615808015610fdb5750600054600160ff909116105b80610ff55750303b158015610ff5575060005460ff166001145b6110675760405162461bcd60e51b815260206004820152602e60248201527f496e697469616c697a61626c653a20636f6e747261637420697320616c72656160448201527f647920696e697469616c697a65640000000000000000000000000000000000006064820152608401610823565b6000805460ff19166001179055801561108a576000805461ff0019166101001790555b60ff805461dead6001600160a01b03199182161790915560fb805482166001600160a01b038981169190911790915561010460209081527f366700fa4a54fabf41470ae21330c7a9ced6ce535b281916c3ea8a91b225034d805484168984161790557fddd1838ad54486b43121aa4469d740f4d55ed333facef0ee1fcc9f1cb9a2ae7c80548416888416179055600360008190527f4de5804478882e9f6e2018b97f515690a5a6a6a6aaea739bceeab0cbe233c45b80549094169287169290921790925560066101025561010355825161116a9160fd91908501906135d4565b506111836040518060200160405280600081525061296f565b61118b6129e3565b611193612a56565b8015610fb3576000805461ff0019169055604051600181527f7f26b83ff96e1f2b6a682f133852f6798a09c465da95921460cefb38474024989060200160405180910390a1505050505050565b6111e8612ac9565b3360fb54604051631846d2f560e31b81526001600160a01b0383811660048301529091169063c23697a8906024016020604051808303816000875af1158015611235573d6000803e3d6000fd5b505050506040513d601f19601f820116820180604052508101906112599190614321565b156112a65760405162461bcd60e51b815260206004820152601860248201527f546f6f6c733a207573657220696e20626c61636b6c69737400000000000000006044820152606401610823565b336000908152610109602090815260408083208584529091529020546001600160801b0316806113185760405162461bcd60e51b815260206004820152601a60248201527f546f6f6c733a20746f6f6c20646f6573206e6f742065786973740000000000006044820152606401610823565b33600090815261010960209081526040808320868452808352818420546001600160801b03808216865261010785529285205488865291909352640100000000900463ffffffff16929160059161137791600160801b9004168461433e565b611381919061437c565b6001600160801b03169050806113ff5760405162461bcd60e51b815260206004820152602860248201527f546f6f6c733a2074686520746f6f6c20697320616c7265616479207374726f6e60448201527f6720656e6f7567680000000000000000000000000000000000000000000000006064820152608401610823565b60036000526101046020527f4de5804478882e9f6e2018b97f515690a5a6a6a6aaea739bceeab0cbe233c45b546001600160a01b03166323b872dd3360ff5460405160e084901b6001600160e01b03191681526001600160a01b03928316600482015291166024820152604481018490526064016020604051808303816000875af1158015611492573d6000803e3d6000fd5b505050506040513d601f19601f820116820180604052508101906114b69190614321565b503360009081526101096020908152604080832088845282529182902080546001600160801b03868116600160801b02911617905590518681527f489732742a3b7fa64b47009a0782e6a403d44f8efd85d60cea8722a001e1667391015b60405180910390a15050505050565b6060815183511461159c5760405162461bcd60e51b815260206004820152602960248201527f455243313135353a206163636f756e747320616e6420696473206c656e67746860448201527f206d69736d6174636800000000000000000000000000000000000000000000006064820152608401610823565b6000835167ffffffffffffffff8111156115b8576115b861396e565b6040519080825280602002602001820160405280156115e1578160200160208202803683370190505b50905060005b84518110156116595761162c858281518110611605576116056142a8565b602002602001015185838151811061161f5761161f6142a8565b60200260200101516107a9565b82828151811061163e5761163e6142a8565b60209081029190910101526116528161428d565b90506115e7565b509392505050565b611669612739565b6116738282612b1c565b5050565b61167f612739565b6116896000612b6d565b565b611693612739565b60fe80546001600160a01b0319166001600160a01b0392909216919091179055565b6116bd612739565b60c95460ff166116cf57611689612bbf565b611689612c19565b6116df612739565b6116ea838383612c52565b505050565b60006116f9612739565b61170460058b6143a2565b63ffffffff16156117575760405162461bcd60e51b815260206004820152601d60248201527f546f6f6c733a20696e76616c696420737472656e6774682076616c75650000006044820152606401610823565b60008963ffffffff16116117d35760405162461bcd60e51b815260206004820152603160248201527f546f6f6c733a206d696e696e67206475726174696f6e206d757374206265206760448201527f72656174686572207468616e207a65726f0000000000000000000000000000006064820152608401610823565b61010180549060006117e48361428d565b919050555060006101015490508a610107600083815260200190815260200160002060000160046101000a81548163ffffffff021916908363ffffffff16021790555089610107600083815260200190815260200160002060000160086101000a81548163ffffffff021916908363ffffffff160217905550886101076000838152602001908152602001600020600001600c6101000a81548163ffffffff021916908363ffffffff16021790555087610107600083815260200190815260200160002060000160006101000a81548163ffffffff021916908363ffffffff1602179055507f7296f5fa391687be022b0baddb2ec8adabc082c89fa302b5acd49b08bd9e4615816040516118fa91815260200190565b60405180910390a161190d8185856116d7565b61191981888888610a2e565b9a9950505050505050505050565b611673338383612cb2565b61193a612739565b6001600160a01b0381166119905760405162461bcd60e51b815260206004820152601660248201527f546f6f6c733a20696e76616c69642061646472657373000000000000000000006044820152606401610823565b61010380549060006119a18361428d565b90915550506101035460009081526101046020526040902080546001600160a01b0319166001600160a01b0392909216919091179055565b6119e1612739565b60fc80546001600160a01b0319166001600160a01b0392909216919091179055565b611a0b612ac9565b60fe546001600160a01b0316336001600160a01b031614611a945760405162461bcd60e51b815260206004820152602760248201527f546f6f6c733a206d73672e73656e6465722069736e2774204d696e696e67206360448201527f6f6e7472616374000000000000000000000000000000000000000000000000006064820152608401610823565b6001600160a01b03831660009081526101096020908152604080832085845290915290208054829190601090611adb908490600160801b90046001600160801b031661433e565b92506101000a8154816001600160801b0302191690836001600160801b03160217905550505050565b611b0c612739565b61010154851115611b5f5760405162461bcd60e51b815260206004820152601760248201527f546f6f6c733a20696e76616c69642069642076616c75650000000000000000006044820152606401610823565b611b6a6005856143a2565b63ffffffff1615611bbd5760405162461bcd60e51b815260206004820152601d60248201527f546f6f6c733a20696e76616c696420737472656e6774682076616c75650000006044820152606401610823565b60008363ffffffff1611611c395760405162461bcd60e51b815260206004820152603160248201527f546f6f6c733a206d696e696e67206475726174696f6e206d757374206265206760448201527f72656174686572207468616e207a65726f0000000000000000000000000000006064820152608401610823565b6000858152610107602090815260409182902080546bffffffffffffffff00000000191664010000000063ffffffff898116919091026bffffffff00000000000000001916919091176801000000000000000088831602177fffffffffffffffffffffffffffffffff00000000ffffffffffffffff00000000166c010000000000000000000000008783160263ffffffff19161790851617905590518681527f0d941a060da7489cee731e5f3679ce755c90811e0811066c59392d5bfe1940129101611514565b81600114611d505760405162461bcd60e51b815260206004820152601860248201527f546f6f6c733a20746f6b656e496420697320756e6971756500000000000000006044820152606401610823565b6001600160a01b0385166000908152610109602090815260408083208684529091529020546001600160801b031680611dcb5760405162461bcd60e51b815260206004820152601960248201527f546f6f6c733a20746f6f6c20646f65736e2774206578697374000000000000006044820152606401610823565b611dd88686838686612da7565b5050506001600160a01b039283166000908152610109602081815260408084208585528083528185209690971684529181528183209383529283528120835481546fffffffffffffffffffffffffffffffff19166001600160801b0391821690811783558554600160801b9081900490921690910217905592905255565b611e5e612739565b6001600160a01b038116611eda5760405162461bcd60e51b815260206004820152602660248201527f4f776e61626c653a206e6577206f776e657220697320746865207a65726f206160448201527f64647265737300000000000000000000000000000000000000000000000000006064820152608401610823565b611ee381612b6d565b50565b611eee612ac9565b3360fb54604051631846d2f560e31b81526001600160a01b0383811660048301529091169063c23697a8906024016020604051808303816000875af1158015611f3b573d6000803e3d6000fd5b505050506040513d601f19601f82011682018060405250810190611f5f9190614321565b15611fac5760405162461bcd60e51b815260206004820152601860248201527f546f6f6c733a207573657220696e20626c61636b6c69737400000000000000006044820152606401610823565b60006060611fb98461254f565b60036000526101046020527f4de5804478882e9f6e2018b97f515690a5a6a6a6aaea739bceeab0cbe233c45b5491935091506001600160a01b03166323b872dd3360ff5460405160e084901b6001600160e01b03191681526001600160a01b03928316600482015291166024820152604481018590526064016020604051808303816000875af1158015612051573d6000803e3d6000fd5b505050506040513d601f19601f820116820180604052508101906120759190614321565b5060026000526101046020527fddd1838ad54486b43121aa4469d740f4d55ed333facef0ee1fcc9f1cb9a2ae7c546001600160a01b03166323b872dd3360ff546001600160a01b03166120c98660056143c5565b6040516001600160e01b031960e086901b1681526001600160a01b03938416600482015292909116602483015260448201526064016020604051808303816000875af115801561211d573d6000803e3d6000fd5b505050506040513d601f19601f820116820180604052508101906121419190614321565b5060005b815181101561224257818181518110612160576121606142a8565b60200260200101516000146122305760fc546001600160a01b031663f242432a3360ff546001600160a01b03166121988560016143e4565b8686815181106121aa576121aa6142a8565b60209081029190910101516040516001600160e01b031960e087901b1681526001600160a01b0394851660048201529390921660248401526044830152606482015260a06084820152600060a482015260c401600060405180830381600087803b15801561221757600080fd5b505af115801561222b573d6000803e3d6000fd5b505050505b8061223a8161428d565b915050612145565b5061225f3385600160405180602001604052806000815250612e42565b61010080549060006122708361428d565b90915550506040805180820182526001600160801b0386811682526000878152610107602090815284822054640100000000900463ffffffff16818501908152338084526101098352868420610100548552835292869020945190518416600160801b02931692909217909255825191825281018690527f82bf558222c4c37aae80230f0a656373f327bcc6f1ac1ef73c385d4dec21b2239101610b7b565b612317612739565b60fb54604051631846d2f560e31b81526001600160a01b0380861660048301528592169063c23697a8906024016020604051808303816000875af1158015612363573d6000803e3d6000fd5b505050506040513d601f19601f820116820180604052508101906123879190614321565b156123d45760405162461bcd60e51b815260206004820152601860248201527f546f6f6c733a207573657220696e20626c61636b6c69737400000000000000006044820152606401610823565b610101546124245760405162461bcd60e51b815260206004820152600f60248201527f546f6f6c733a206e6f20746f6f6c7300000000000000000000000000000000006044820152606401610823565b61010154836001600160801b031611156124805760405162461bcd60e51b815260206004820152601760248201527f546f6f6c733a20696e76616c69642069642076616c75650000000000000000006044820152606401610823565b6124a484846001600160801b03168460405180602001604052806000815250612e42565b60005b828110156125485761010080549060006124c08361428d565b90915550506040805180820182526001600160801b03808716808352600090815261010760209081528482205463ffffffff640100000000909104168185019081526001600160a01b038b1683526101098252858320610100548452909152939020915192518116600160801b029216919091179055806125408161428d565b9150506124a7565b5050505050565b6000606061255b612ac9565b6101025467ffffffffffffffff8111156125775761257761396e565b6040519080825280602002602001820160405280156125a0578160200160208202803683370190505b506000848152610108602052604081205493509091505b610102548110156126365760008481526101086020908152604080832084845260010190915290205415612624576000848152610108602090815260408083208484526001019091529020548251839083908110612617576126176142a8565b6020026020010181815250505b8061262e8161428d565b9150506125b7565b50915091565b60006001600160e01b03198216636cdb3d1360e11b148061268657506001600160e01b031982167f0e89341c00000000000000000000000000000000000000000000000000000000145b806108af57506301ffc9a760e01b6001600160e01b03198316146108af565b6060609980546126b490614179565b80601f01602080910402602001604051908101604052809291908181526020018280546126e090614179565b801561272d5780601f106127025761010080835404028352916020019161272d565b820191906000526020600020905b81548152906001019060200180831161271057829003601f168201915b50505050509050919050565b6033546001600160a01b031633146116895760405162461bcd60e51b815260206004820181905260248201527f4f776e61626c653a2063616c6c6572206973206e6f7420746865206f776e65726044820152606401610823565b6001600160a01b0384166127f35760405162461bcd60e51b815260206004820152602160248201527f455243313135353a206d696e7420746f20746865207a65726f206164647265736044820152607360f81b6064820152608401610823565b815183511461286a5760405162461bcd60e51b815260206004820152602860248201527f455243313135353a2069647320616e6420616d6f756e7473206c656e6774682060448201527f6d69736d617463680000000000000000000000000000000000000000000000006064820152608401610823565b3360005b845181101561290757838181518110612889576128896142a8565b6020026020010151609760008784815181106128a7576128a76142a8565b602002602001015181526020019081526020016000206000886001600160a01b03166001600160a01b0316815260200190815260200160002060008282546128ef91906143e4565b909155508190506128ff8161428d565b91505061286e565b50846001600160a01b031660006001600160a01b0316826001600160a01b03167f4a39dc06d4c0dbc64b70af90fd698a233a518aa5d07e595d983b8c0526c8f7fb87876040516129589291906143fc565b60405180910390a461254881600087878787612f58565b600054610100900460ff166129da5760405162461bcd60e51b815260206004820152602b60248201527f496e697469616c697a61626c653a20636f6e7472616374206973206e6f74206960448201526a6e697469616c697a696e6760a81b6064820152608401610823565b611ee3816130fe565b600054610100900460ff16612a4e5760405162461bcd60e51b815260206004820152602b60248201527f496e697469616c697a61626c653a20636f6e7472616374206973206e6f74206960448201526a6e697469616c697a696e6760a81b6064820152608401610823565b611689613172565b600054610100900460ff16612ac15760405162461bcd60e51b815260206004820152602b60248201527f496e697469616c697a61626c653a20636f6e7472616374206973206e6f74206960448201526a6e697469616c697a696e6760a81b6064820152608401610823565b6116896131e9565b60c95460ff16156116895760405162461bcd60e51b815260206004820152601060248201527f5061757361626c653a20706175736564000000000000000000000000000000006044820152606401610823565b612b2860fd8383613658565b507f01e56a02aca7f26a28165a040851ba78f30282b55ca81c63a804cdc1e2dcea72612b5460016108b5565b604051612b6191906137cf565b60405180910390a15050565b603380546001600160a01b038381166001600160a01b0319831681179093556040519116919082907f8be0079c531659141344cd1fd0a4f28419497f9722a3daafe3b4186f6b6457e090600090a35050565b612bc7612ac9565b60c9805460ff191660011790557f62e78cea01bee320cd4e420270b5ea74000d11b0c9f74754ebdbfc544b05a258612bfc3390565b6040516001600160a01b03909116815260200160405180910390a1565b612c2161325d565b60c9805460ff191690557f5db9ee0a495bf2e6ff9c91a7834c1ba4fdd244a5e8aa4e537bd38aeae4b073aa33612bfc565b600083815261010660205260409020612c6c908383613658565b50827f6bb7ff708619ba0610cba295a58592e0451dee2622938c8755667688daf3529b612c98856108b5565b604051612ca591906137cf565b60405180910390a2505050565b816001600160a01b0316836001600160a01b03161415612d3a5760405162461bcd60e51b815260206004820152602960248201527f455243313135353a2073657474696e6720617070726f76616c2073746174757360448201527f20666f722073656c6600000000000000000000000000000000000000000000006064820152608401610823565b6001600160a01b03838116600081815260986020908152604080832094871680845294825291829020805460ff191686151590811790915591519182527f17307eab39ab6107e8899845ad3d59bd9653f200f220920489ca2b5937696c31910160405180910390a3505050565b6001600160a01b038516331480612dc35750612dc385336106c4565b612e355760405162461bcd60e51b815260206004820152602f60248201527f455243313135353a2063616c6c6572206973206e6f7420746f6b656e206f776e60448201527f6572206e6f7220617070726f76656400000000000000000000000000000000006064820152608401610823565b61254885858585856132af565b6001600160a01b038416612ea25760405162461bcd60e51b815260206004820152602160248201527f455243313135353a206d696e7420746f20746865207a65726f206164647265736044820152607360f81b6064820152608401610823565b336000612eae8561347e565b90506000612ebb8561347e565b905060008681526097602090815260408083206001600160a01b038b16845290915281208054879290612eef9084906143e4565b909155505060408051878152602081018790526001600160a01b03808a1692600092918716917fc3d58168c5ae7397731d063d5bbf3d657854427343f4c083240f7aacaa2d0f62910160405180910390a4612f4f836000898989896134c9565b50505050505050565b6001600160a01b0384163b15610fb35760405163bc197c8160e01b81526001600160a01b0385169063bc197c8190612f9c9089908990889088908890600401614421565b6020604051808303816000875af1925050508015612fd7575060408051601f3d908101601f19168201909252612fd49181019061447f565b60015b61308d57612fe361449c565b806308c379a0141561301d5750612ff86144b8565b80613003575061301f565b8060405162461bcd60e51b815260040161082391906137cf565b505b60405162461bcd60e51b815260206004820152603460248201527f455243313135353a207472616e7366657220746f206e6f6e204552433131353560448201527f526563656976657220696d706c656d656e7465720000000000000000000000006064820152608401610823565b6001600160e01b0319811663bc197c8160e01b14612f4f5760405162461bcd60e51b815260206004820152602860248201527f455243313135353a204552433131353552656365697665722072656a656374656044820152676420746f6b656e7360c01b6064820152608401610823565b600054610100900460ff166131695760405162461bcd60e51b815260206004820152602b60248201527f496e697469616c697a61626c653a20636f6e7472616374206973206e6f74206960448201526a6e697469616c697a696e6760a81b6064820152608401610823565b611ee3816135c5565b600054610100900460ff166131dd5760405162461bcd60e51b815260206004820152602b60248201527f496e697469616c697a61626c653a20636f6e7472616374206973206e6f74206960448201526a6e697469616c697a696e6760a81b6064820152608401610823565b60c9805460ff19169055565b600054610100900460ff166132545760405162461bcd60e51b815260206004820152602b60248201527f496e697469616c697a61626c653a20636f6e7472616374206973206e6f74206960448201526a6e697469616c697a696e6760a81b6064820152608401610823565b61168933612b6d565b60c95460ff166116895760405162461bcd60e51b815260206004820152601460248201527f5061757361626c653a206e6f74207061757365640000000000000000000000006044820152606401610823565b6001600160a01b03841661332b5760405162461bcd60e51b815260206004820152602560248201527f455243313135353a207472616e7366657220746f20746865207a65726f20616460448201527f64726573730000000000000000000000000000000000000000000000000000006064820152608401610823565b3360006133378561347e565b905060006133448561347e565b905060008681526097602090815260408083206001600160a01b038c168452909152902054858110156133df5760405162461bcd60e51b815260206004820152602a60248201527f455243313135353a20696e73756666696369656e742062616c616e636520666f60448201527f72207472616e73666572000000000000000000000000000000000000000000006064820152608401610823565b60008781526097602090815260408083206001600160a01b038d8116855292528083208985039055908a1682528120805488929061341e9084906143e4565b909155505060408051888152602081018890526001600160a01b03808b16928c821692918816917fc3d58168c5ae7397731d063d5bbf3d657854427343f4c083240f7aacaa2d0f62910160405180910390a4610efa848a8a8a8a8a6134c9565b604080516001808252818301909252606091600091906020808301908036833701905050905082816000815181106134b8576134b86142a8565b602090810291909101015292915050565b6001600160a01b0384163b15610fb35760405163f23a6e6160e01b81526001600160a01b0385169063f23a6e619061350d9089908990889088908890600401614542565b6020604051808303816000875af1925050508015613548575060408051601f3d908101601f191682019092526135459181019061447f565b60015b61355457612fe361449c565b6001600160e01b0319811663f23a6e6160e01b14612f4f5760405162461bcd60e51b815260206004820152602860248201527f455243313135353a204552433131353552656365697665722072656a656374656044820152676420746f6b656e7360c01b6064820152608401610823565b80516116739060999060208401905b8280546135e090614179565b90600052602060002090601f0160209004810192826136025760008555613648565b82601f1061361b57805160ff1916838001178555613648565b82800160010185558215613648579182015b8281111561364857825182559160200191906001019061362d565b506136549291506136cc565b5090565b82805461366490614179565b90600052602060002090601f0160209004810192826136865760008555613648565b82601f1061369f5782800160ff19823516178555613648565b82800160010185558215613648579182015b828111156136485782358255916020019190600101906136b1565b5b8082111561365457600081556001016136cd565b80356001600160a01b03811681146136f857600080fd5b919050565b6000806040838503121561371057600080fd5b613719836136e1565b946020939093013593505050565b6001600160e01b031981168114611ee357600080fd5b60006020828403121561374f57600080fd5b813561098f81613727565b60006020828403121561376c57600080fd5b5035919050565b60005b8381101561378e578181015183820152602001613776565b8381111561379d576000848401525b50505050565b600081518084526137bb816020860160208601613773565b601f01601f19169290920160200192915050565b60208152600061098f60208301846137a3565b60008083601f8401126137f457600080fd5b50813567ffffffffffffffff81111561380c57600080fd5b6020830191508360208260051b850101111561382757600080fd5b9250929050565b6000806000806060858703121561384457600080fd5b8435935060208501359250604085013567ffffffffffffffff81111561386957600080fd5b613875878288016137e2565b95989497509550505050565b60008083601f84011261389357600080fd5b50813567ffffffffffffffff8111156138ab57600080fd5b60208301915083602082850101111561382757600080fd5b60008060008060008060006080888a0312156138de57600080fd5b6138e7886136e1565b9650602088013567ffffffffffffffff8082111561390457600080fd5b6139108b838c016137e2565b909850965060408a013591508082111561392957600080fd5b6139358b838c016137e2565b909650945060608a013591508082111561394e57600080fd5b5061395b8a828b01613881565b989b979a50959850939692959293505050565b634e487b7160e01b600052604160045260246000fd5b601f8201601f1916810167ffffffffffffffff811182821017156139aa576139aa61396e565b6040525050565b600067ffffffffffffffff8211156139cb576139cb61396e565b5060051b60200190565b600082601f8301126139e657600080fd5b813560206139f3826139b1565b604051613a008282613984565b83815260059390931b8501820192828101915086841115613a2057600080fd5b8286015b84811015613a3b5780358352918301918301613a24565b509695505050505050565b600067ffffffffffffffff831115613a6057613a6061396e565b604051613a77601f8501601f191660200182613984565b809150838152848484011115613a8c57600080fd5b83836020830137600060208583010152509392505050565b600082601f830112613ab557600080fd5b61098f83833560208501613a46565b600080600080600060a08688031215613adc57600080fd5b613ae5866136e1565b9450613af3602087016136e1565b9350604086013567ffffffffffffffff80821115613b1057600080fd5b613b1c89838a016139d5565b94506060880135915080821115613b3257600080fd5b613b3e89838a016139d5565b93506080880135915080821115613b5457600080fd5b50613b6188828901613aa4565b9150509295509295909350565b600080600080600060a08688031215613b8657600080fd5b613b8f866136e1565b9450613b9d602087016136e1565b9350613bab604087016136e1565b9250613bb9606087016136e1565b9150608086013567ffffffffffffffff811115613bd557600080fd5b8601601f81018813613be657600080fd5b613b6188823560208401613a46565b60008060408385031215613c0857600080fd5b823567ffffffffffffffff80821115613c2057600080fd5b818501915085601f830112613c3457600080fd5b81356020613c41826139b1565b604051613c4e8282613984565b83815260059390931b8501820192828101915089841115613c6e57600080fd5b948201945b83861015613c9357613c84866136e1565b82529482019490820190613c73565b96505086013592505080821115613ca957600080fd5b50613cb6858286016139d5565b9150509250929050565b600081518084526020808501945080840160005b83811015613cf057815187529582019590820190600101613cd4565b509495945050505050565b60208152600061098f6020830184613cc0565b60008060208385031215613d2157600080fd5b823567ffffffffffffffff811115613d3857600080fd5b613d4485828601613881565b90969095509350505050565b600060208284031215613d6257600080fd5b61098f826136e1565b600080600060408486031215613d8057600080fd5b83359250602084013567ffffffffffffffff811115613d9e57600080fd5b613daa86828701613881565b9497909650939450505050565b803563ffffffff811681146136f857600080fd5b600080600080600080600080600060e08a8c031215613de957600080fd5b613df28a613db7565b9850613e0060208b01613db7565b9750613e0e60408b01613db7565b9650613e1c60608b01613db7565b955060808a0135945060a08a013567ffffffffffffffff80821115613e4057600080fd5b613e4c8d838e016137e2565b909650945060c08c0135915080821115613e6557600080fd5b50613e728c828d01613881565b915080935050809150509295985092959850929598565b8015158114611ee357600080fd5b60008060408385031215613eaa57600080fd5b613eb3836136e1565b91506020830135613ec381613e89565b809150509250929050565b60008060008060008060a08789031215613ee757600080fd5b613ef0876136e1565b9550613efe602088016136e1565b9450604087013567ffffffffffffffff80821115613f1b57600080fd5b613f278a838b016139d5565b95506060890135915080821115613f3d57600080fd5b613f498a838b016139d5565b94506080890135915080821115613f5f57600080fd5b50613f6c89828a01613881565b979a9699509497509295939492505050565b600080600060608486031215613f9357600080fd5b613f9c846136e1565b95602085013595506040909401359392505050565b600080600080600060a08688031215613fc957600080fd5b85359450613fd960208701613db7565b9350613fe760408701613db7565b9250613ff560608701613db7565b915061400360808701613db7565b90509295509295909350565b6000806040838503121561402257600080fd5b61402b836136e1565b9150614039602084016136e1565b90509250929050565b60008060008060008060a0878903121561405b57600080fd5b614064876136e1565b9550614072602088016136e1565b94506040870135935060608701359250608087013567ffffffffffffffff81111561409c57600080fd5b613f6c89828a01613881565b600080600080600060a086880312156140c057600080fd5b6140c9866136e1565b94506140d7602087016136e1565b93506040860135925060608601359150608086013567ffffffffffffffff81111561410157600080fd5b613b6188828901613aa4565b60008060006060848603121561412257600080fd5b61412b846136e1565b925060208401356001600160801b038116811461414757600080fd5b929592945050506040919091013590565b8281526040602082015260006141716040830184613cc0565b949350505050565b600181811c9082168061418d57607f821691505b602082108114156141ae57634e487b7160e01b600052602260045260246000fd5b50919050565b600081516141c6818560208601613773565b9290920192915050565b600080845481600182811c9150808316806141ec57607f831692505b602080841082141561420c57634e487b7160e01b86526022600452602486fd5b81801561422057600181146142315761425e565b60ff1986168952848901965061425e565b60008b81526020902060005b868110156142565781548b82015290850190830161423d565b505084890196505b50505050505061426e81856141b4565b95945050505050565b634e487b7160e01b600052601160045260246000fd5b60006000198214156142a1576142a1614277565b5060010190565b634e487b7160e01b600052603260045260246000fd5b8481528360208201526060604082015281606082015260007f07ffffffffffffffffffffffffffffffffffffffffffffffffffffffffffffff83111561430357600080fd5b8260051b808560808501376000920160800191825250949350505050565b60006020828403121561433357600080fd5b815161098f81613e89565b60006001600160801b038381169083168181101561435e5761435e614277565b039392505050565b634e487b7160e01b600052601260045260246000fd5b60006001600160801b038084168061439657614396614366565b92169190910492915050565b600063ffffffff808416806143b9576143b9614366565b92169190910692915050565b60008160001904831182151516156143df576143df614277565b500290565b600082198211156143f7576143f7614277565b500190565b60408152600061440f6040830185613cc0565b828103602084015261426e8185613cc0565b60006001600160a01b03808816835280871660208401525060a0604083015261444d60a0830186613cc0565b828103606084015261445f8186613cc0565b9050828103608084015261447381856137a3565b98975050505050505050565b60006020828403121561449157600080fd5b815161098f81613727565b600060033d11156144b55760046000803e5060005160e01c5b90565b600060443d10156144c65790565b6040516003193d81016004833e81513d67ffffffffffffffff81602484011181841117156144f657505050505090565b828501915081518181111561450e5750505050505090565b843d87010160208285010111156145285750505050505090565b61453760208286010187613984565b509095945050505050565b60006001600160a01b03808816835280871660208401525084604083015283606083015260a0608083015261457a60a08301846137a3565b97965050505050505056fea264697066735822122003b61eefcb0ddf61b20c6e03d18fb58a496ebaeaa9b309f606244ce626c023f464736f6c634300080c0033",
  "linkReferences": {},
  "deployedLinkReferences": {}
}