{
  "_format": "hh-sol-artifact-1",
  "contractName": "Artifacts",
  "sourceName": "contracts/Artifacts.sol",
  "abi": [
    {
      "anonymous": false,
      "inputs": [
        {
          "indexed": false,
          "internalType": "uint256",
          "name": "",
          "type": "uint256"
        }
      ],
      "name": "AddNewArtifact",
      "type": "event"
    },
    {
      "anonymous": false,
      "inputs": [
        {
          "indexed": true,
          "internalType": "address",
          "name": "account",
          "type": "address"
        },
        {
          "indexed": true,
          "internalType": "address",
          "name": "operator",
          "type": "address"
        },
        {
          "indexed": false,
          "internalType": "bool",
          "name": "approved",
          "type": "bool"
        }
      ],
      "name": "ApprovalForAll",
      "type": "event"
    },
    {
      "anonymous": false,
      "inputs": [
        {
          "indexed": false,
          "internalType": "uint8",
          "name": "version",
          "type": "uint8"
        }
      ],
      "name": "Initialized",
      "type": "event"
    },
    {
      "anonymous": false,
      "inputs": [
        {
          "indexed": true,
          "internalType": "address",
          "name": "previousOwner",
          "type": "address"
        },
        {
          "indexed": true,
          "internalType": "address",
          "name": "newOwner",
          "type": "address"
        }
      ],
      "name": "OwnershipTransferred",
      "type": "event"
    },
    {
      "anonymous": false,
      "inputs": [
        {
          "indexed": false,
          "internalType": "address",
          "name": "account",
          "type": "address"
        }
      ],
      "name": "Paused",
      "type": "event"
    },
    {
      "anonymous": false,
      "inputs": [
        {
          "indexed": true,
          "internalType": "address",
          "name": "operator",
          "type": "address"
        },
        {
          "indexed": true,
          "internalType": "address",
          "name": "from",
          "type": "address"
        },
        {
          "indexed": true,
          "internalType": "address",
          "name": "to",
          "type": "address"
        },
        {
          "indexed": false,
          "internalType": "uint256[]",
          "name": "ids",
          "type": "uint256[]"
        },
        {
          "indexed": false,
          "internalType": "uint256[]",
          "name": "values",
          "type": "uint256[]"
        }
      ],
      "name": "TransferBatch",
      "type": "event"
    },
    {
      "anonymous": false,
      "inputs": [
        {
          "indexed": true,
          "internalType": "address",
          "name": "operator",
          "type": "address"
        },
        {
          "indexed": true,
          "internalType": "address",
          "name": "from",
          "type": "address"
        },
        {
          "indexed": true,
          "internalType": "address",
          "name": "to",
          "type": "address"
        },
        {
          "indexed": false,
          "internalType": "uint256",
          "name": "id",
          "type": "uint256"
        },
        {
          "indexed": false,
          "internalType": "uint256",
          "name": "value",
          "type": "uint256"
        }
      ],
      "name": "TransferSingle",
      "type": "event"
    },
    {
      "anonymous": false,
      "inputs": [
        {
          "indexed": false,
          "internalType": "string",
          "name": "value",
          "type": "string"
        },
        {
          "indexed": true,
          "internalType": "uint256",
          "name": "id",
          "type": "uint256"
        }
      ],
      "name": "URI",
      "type": "event"
    },
    {
      "anonymous": false,
      "inputs": [
        {
          "indexed": false,
          "internalType": "address",
          "name": "account",
          "type": "address"
        }
      ],
      "name": "Unpaused",
      "type": "event"
    },
    {
      "inputs": [],
      "name": "addNewArtifact",
      "outputs": [],
      "stateMutability": "nonpayable",
      "type": "function"
    },
    {
      "inputs": [
        {
          "internalType": "address",
          "name": "account",
          "type": "address"
        },
        {
          "internalType": "uint256",
          "name": "id",
          "type": "uint256"
        }
      ],
      "name": "balanceOf",
      "outputs": [
        {
          "internalType": "uint256",
          "name": "",
          "type": "uint256"
        }
      ],
      "stateMutability": "view",
      "type": "function"
    },
    {
      "inputs": [
        {
          "internalType": "address[]",
          "name": "accounts",
          "type": "address[]"
        },
        {
          "internalType": "uint256[]",
          "name": "ids",
          "type": "uint256[]"
        }
      ],
      "name": "balanceOfBatch",
      "outputs": [
        {
          "internalType": "uint256[]",
          "name": "",
          "type": "uint256[]"
        }
      ],
      "stateMutability": "view",
      "type": "function"
    },
    {
      "inputs": [],
      "name": "getArtifactsTypesAmount",
      "outputs": [
        {
          "internalType": "uint256",
          "name": "",
          "type": "uint256"
        }
      ],
      "stateMutability": "view",
      "type": "function"
    },
    {
      "inputs": [
        {
          "internalType": "address",
          "name": "_toolsContractAddress",
          "type": "address"
        },
        {
          "internalType": "string",
          "name": "_baseUrl",
          "type": "string"
        },
        {
          "internalType": "address",
          "name": "_blackListContractAddress",
          "type": "address"
        }
      ],
      "name": "initialize",
      "outputs": [],
      "stateMutability": "nonpayable",
      "type": "function"
    },
    {
      "inputs": [
        {
          "internalType": "address",
          "name": "account",
          "type": "address"
        },
        {
          "internalType": "address",
          "name": "operator",
          "type": "address"
        }
      ],
      "name": "isApprovedForAll",
      "outputs": [
        {
          "internalType": "bool",
          "name": "",
          "type": "bool"
        }
      ],
      "stateMutability": "view",
      "type": "function"
    },
    {
      "inputs": [
        {
          "internalType": "address",
          "name": "user",
          "type": "address"
        },
        {
          "internalType": "uint256",
          "name": "artifactType",
          "type": "uint256"
        }
      ],
      "name": "lootArtifact",
      "outputs": [],
      "stateMutability": "nonpayable",
      "type": "function"
    },
    {
      "inputs": [
        {
          "internalType": "uint256",
          "name": "artifactType",
          "type": "uint256"
        },
        {
          "internalType": "address",
          "name": "to",
          "type": "address"
        },
        {
          "internalType": "uint256",
          "name": "amount",
          "type": "uint256"
        },
        {
          "internalType": "bytes",
          "name": "data",
          "type": "bytes"
        }
      ],
      "name": "mint",
      "outputs": [],
      "stateMutability": "nonpayable",
      "type": "function"
    },
    {
      "inputs": [
        {
          "internalType": "address",
          "name": "to",
          "type": "address"
        },
        {
          "internalType": "uint256[]",
          "name": "ids",
          "type": "uint256[]"
        },
        {
          "internalType": "uint256[]",
          "name": "amounts",
          "type": "uint256[]"
        },
        {
          "internalType": "bytes",
          "name": "data",
          "type": "bytes"
        }
      ],
      "name": "mintBatch",
      "outputs": [],
      "stateMutability": "nonpayable",
      "type": "function"
    },
    {
      "inputs": [],
      "name": "owner",
      "outputs": [
        {
          "internalType": "address",
          "name": "",
          "type": "address"
        }
      ],
      "stateMutability": "view",
      "type": "function"
    },
    {
      "inputs": [],
      "name": "pause",
      "outputs": [],
      "stateMutability": "nonpayable",
      "type": "function"
    },
    {
      "inputs": [],
      "name": "paused",
      "outputs": [
        {
          "internalType": "bool",
          "name": "",
          "type": "bool"
        }
      ],
      "stateMutability": "view",
      "type": "function"
    },
    {
      "inputs": [],
      "name": "renounceOwnership",
      "outputs": [],
      "stateMutability": "nonpayable",
      "type": "function"
    },
    {
      "inputs": [
        {
          "internalType": "address",
          "name": "from",
          "type": "address"
        },
        {
          "internalType": "address",
          "name": "to",
          "type": "address"
        },
        {
          "internalType": "uint256[]",
          "name": "ids",
          "type": "uint256[]"
        },
        {
          "internalType": "uint256[]",
          "name": "amounts",
          "type": "uint256[]"
        },
        {
          "internalType": "bytes",
          "name": "data",
          "type": "bytes"
        }
      ],
      "name": "safeBatchTransferFrom",
      "outputs": [],
      "stateMutability": "nonpayable",
      "type": "function"
    },
    {
      "inputs": [
        {
          "internalType": "address",
          "name": "from",
          "type": "address"
        },
        {
          "internalType": "address",
          "name": "to",
          "type": "address"
        },
        {
          "internalType": "uint256",
          "name": "id",
          "type": "uint256"
        },
        {
          "internalType": "uint256",
          "name": "amount",
          "type": "uint256"
        },
        {
          "internalType": "bytes",
          "name": "data",
          "type": "bytes"
        }
      ],
      "name": "safeTransferFrom",
      "outputs": [],
      "stateMutability": "nonpayable",
      "type": "function"
    },
    {
      "inputs": [
        {
          "internalType": "address",
          "name": "operator",
          "type": "address"
        },
        {
          "internalType": "bool",
          "name": "approved",
          "type": "bool"
        }
      ],
      "name": "setApprovalForAll",
      "outputs": [],
      "stateMutability": "nonpayable",
      "type": "function"
    },
    {
      "inputs": [
        {
          "internalType": "address",
          "name": "toolsAddress",
          "type": "address"
        }
      ],
      "name": "setToolsAddress",
      "outputs": [],
      "stateMutability": "nonpayable",
      "type": "function"
    },
    {
      "inputs": [
        {
          "internalType": "bytes4",
          "name": "interfaceId",
          "type": "bytes4"
        }
      ],
      "name": "supportsInterface",
      "outputs": [
        {
          "internalType": "bool",
          "name": "",
          "type": "bool"
        }
      ],
      "stateMutability": "view",
      "type": "function"
    },
    {
      "inputs": [
        {
          "internalType": "address",
          "name": "newOwner",
          "type": "address"
        }
      ],
      "name": "transferOwnership",
      "outputs": [],
      "stateMutability": "nonpayable",
      "type": "function"
    },
    {
      "inputs": [
        {
          "internalType": "uint256",
          "name": "artifactType",
          "type": "uint256"
        }
      ],
      "name": "uri",
      "outputs": [
        {
          "internalType": "string",
          "name": "",
          "type": "string"
        }
      ],
      "stateMutability": "view",
      "type": "function"
    }
  ],
  "bytecode": "0x608060405234801561001057600080fd5b50612aee806100206000396000f3fe608060405234801561001057600080fd5b506004361061016b5760003560e01c80638da5cb5b116100cd578063daa6c75511610081578063ed9e845211610066578063ed9e8452146102fa578063f242432a14610302578063f2fde38b1461031557600080fd5b8063daa6c755146102b6578063e985e9c5146102be57600080fd5b8063a22cb465116100b2578063a22cb4651461027d578063ac2a301014610290578063c77b66c2146102a357600080fd5b80638da5cb5b1461024f57806394cf7cd01461026a57600080fd5b80634e1273f411610124578063715018a611610109578063715018a61461022c5780637bb7c0d8146102345780638456cb591461024757600080fd5b80634e1273f4146102015780635c975abb1461022157600080fd5b80630e89341c116101555780630e89341c146101b95780631f7fdffa146101d95780632eb2c2d6146101ee57600080fd5b8062fdd58e1461017057806301ffc9a714610196575b600080fd5b61018361017e3660046120a9565b610328565b6040519081526020015b60405180910390f35b6101a96101a43660046120eb565b6103d3565b604051901515815260200161018d565b6101cc6101c736600461210f565b610470565b60405161018d9190612180565b6101ec6101e73660046122e9565b610505565b005b6101ec6101fc366004612384565b610695565b61021461020f366004612432565b610730565b60405161018d919061253a565b60c95460ff166101a9565b6101ec61086e565b6101ec61024236600461254d565b610882565b6101ec610a2e565b6033546040516001600160a01b03909116815260200161018d565b6101ec6102783660046125c5565b610a50565b6101ec61028b3660046125f0565b610add565b6101ec61029e3660046120a9565b610aec565b6101ec6102b1366004612629565b610c05565b60fe54610183565b6101a96102cc366004612680565b6001600160a01b03918216600090815260986020908152604080832093909416825291909152205460ff1690565b6101ec610d3f565b6101ec6103103660046126ae565b610e13565b6101ec6103233660046125c5565b610eae565b60006001600160a01b0383166103ab5760405162461bcd60e51b815260206004820152602a60248201527f455243313135353a2061646472657373207a65726f206973206e6f742061207660448201527f616c6964206f776e65720000000000000000000000000000000000000000000060648201526084015b60405180910390fd5b5060009081526097602090815260408083206001600160a01b03949094168352929052205490565b60006001600160e01b031982167fd9b67a2600000000000000000000000000000000000000000000000000000000148061043657506001600160e01b031982167f0e89341c00000000000000000000000000000000000000000000000000000000145b8061046a57507f01ffc9a7000000000000000000000000000000000000000000000000000000006001600160e01b03198316145b92915050565b606060fe548211156104d35760405162461bcd60e51b815260206004820152602660248201527f4172746966616374733a205468697320617274696661637420646f65736e277460448201526508195e1a5cdd60d21b60648201526084016103a2565b60fd6104de83610f3e565b6040516020016104ef92919061276e565b6040516020818303038152906040529050919050565b61050d611078565b6105156110d2565b60fb54604051631846d2f560e31b81526001600160a01b0380871660048301528692169063c23697a8906024016020604051808303816000875af1158015610561573d6000803e3d6000fd5b505050506040513d601f19601f820116820180604052508101906105859190612841565b156105d25760405162461bcd60e51b815260206004820152601c60248201527f4172746966616374733a207573657220696e20626c61636b6c6973740000000060448201526064016103a2565b60005b84518110156106815760fe548582815181106105f3576105f361285e565b6020026020010151111561066f5760405162461bcd60e51b815260206004820152602c60248201527f4172746966616374733a2074686973206172746966616374207479706520646f60448201527f65736e277420657869737473000000000000000000000000000000000000000060648201526084016103a2565b806106798161288a565b9150506105d5565b5061068e85858585611125565b5050505050565b6001600160a01b0385163314806106b157506106b185336102cc565b6107235760405162461bcd60e51b815260206004820152602f60248201527f455243313135353a2063616c6c6572206973206e6f7420746f6b656e206f776e60448201527f6572206e6f7220617070726f766564000000000000000000000000000000000060648201526084016103a2565b61068e85858585856112ec565b606081518351146107a95760405162461bcd60e51b815260206004820152602960248201527f455243313135353a206163636f756e747320616e6420696473206c656e67746860448201527f206d69736d61746368000000000000000000000000000000000000000000000060648201526084016103a2565b6000835167ffffffffffffffff8111156107c5576107c5612193565b6040519080825280602002602001820160405280156107ee578160200160208202803683370190505b50905060005b8451811015610866576108398582815181106108125761081261285e565b602002602001015185838151811061082c5761082c61285e565b6020026020010151610328565b82828151811061084b5761084b61285e565b602090810291909101015261085f8161288a565b90506107f4565b509392505050565b610876611078565b610880600061154d565b565b600054610100900460ff16158080156108a25750600054600160ff909116105b806108bc5750303b1580156108bc575060005460ff166001145b61092e5760405162461bcd60e51b815260206004820152602e60248201527f496e697469616c697a61626c653a20636f6e747261637420697320616c72656160448201527f647920696e697469616c697a656400000000000000000000000000000000000060648201526084016103a2565b6000805460ff191660011790558015610951576000805461ff0019166101001790555b60fc805473ffffffffffffffffffffffffffffffffffffffff19166001600160a01b038616179055825161098c9060fd906020860190611ffb565b5060fb805473ffffffffffffffffffffffffffffffffffffffff19166001600160a01b038416179055600660fe556040805160208101909152600081526109d2906115ac565b6109da611620565b6109e2611693565b8015610a28576000805461ff0019169055604051600181527f7f26b83ff96e1f2b6a682f133852f6798a09c465da95921460cefb38474024989060200160405180910390a15b50505050565b610a36611078565b60c95460ff16610a4857610880611706565b61088061175b565b610a58611078565b6001600160a01b038116610aae5760405162461bcd60e51b815260206004820152601760248201527f4172746966616374733a207a65726f206164647265737300000000000000000060448201526064016103a2565b60fc805473ffffffffffffffffffffffffffffffffffffffff19166001600160a01b0392909216919091179055565b610ae8338383611794565b5050565b60fc60009054906101000a90046001600160a01b03166001600160a01b03166343cac2b16040518163ffffffff1660e01b8152600401602060405180830381865afa158015610b3f573d6000803e3d6000fd5b505050506040513d601f19601f82011682018060405250810190610b6391906128a5565b6001600160a01b0316336001600160a01b031614610be95760405162461bcd60e51b815260206004820152603660248201527f4172746966616374733a206f6e6c79206d696e696e6720636f6e74726163742060448201527f63616e2063616c6c20746869732066756e6374696f6e0000000000000000000060648201526084016103a2565b610ae88282600160405180602001604052806000815250611889565b610c0d611078565b610c156110d2565b60fb54604051631846d2f560e31b81526001600160a01b0380861660048301528592169063c23697a8906024016020604051808303816000875af1158015610c61573d6000803e3d6000fd5b505050506040513d601f19601f82011682018060405250810190610c859190612841565b15610cd25760405162461bcd60e51b815260206004820152601c60248201527f4172746966616374733a207573657220696e20626c61636b6c6973740000000060448201526064016103a2565b60fe54851115610d335760405162461bcd60e51b815260206004820152602660248201527f4172746966616374733a205468697320617274696661637420646f65736e277460448201526508195e1a5cdd60d21b60648201526084016103a2565b61068e84868585611889565b610d47611078565b600160fe6000828254610d5a91906128c2565b909155505060fc54604080517f0ebb956d00000000000000000000000000000000000000000000000000000000815290516001600160a01b0390921691630ebb956d9160048082019260009290919082900301818387803b158015610dbe57600080fd5b505af1158015610dd2573d6000803e3d6000fd5b505050507f1b62dd3d3d4d94e83dc4eb3f8fe1fd04165796d790d0807467a1f58a7dd8a74a60fe54604051610e0991815260200190565b60405180910390a1565b6001600160a01b038516331480610e2f5750610e2f85336102cc565b610ea15760405162461bcd60e51b815260206004820152602f60248201527f455243313135353a2063616c6c6572206973206e6f7420746f6b656e206f776e60448201527f6572206e6f7220617070726f766564000000000000000000000000000000000060648201526084016103a2565b61068e858585858561199f565b610eb6611078565b6001600160a01b038116610f325760405162461bcd60e51b815260206004820152602660248201527f4f776e61626c653a206e6577206f776e657220697320746865207a65726f206160448201527f646472657373000000000000000000000000000000000000000000000000000060648201526084016103a2565b610f3b8161154d565b50565b606081610f7e57505060408051808201909152600181527f3000000000000000000000000000000000000000000000000000000000000000602082015290565b8160005b8115610fa85780610f928161288a565b9150610fa19050600a836128f0565b9150610f82565b60008167ffffffffffffffff811115610fc357610fc3612193565b6040519080825280601f01601f191660200182016040528015610fed576020820181803683370190505b5090505b841561107057611002600183612904565b915061100f600a8661291b565b61101a9060306128c2565b60f81b81838151811061102f5761102f61285e565b60200101907effffffffffffffffffffffffffffffffffffffffffffffffffffffffffffff1916908160001a905350611069600a866128f0565b9450610ff1565b949350505050565b6033546001600160a01b031633146108805760405162461bcd60e51b815260206004820181905260248201527f4f776e61626c653a2063616c6c6572206973206e6f7420746865206f776e657260448201526064016103a2565b60c95460ff16156108805760405162461bcd60e51b815260206004820152601060248201527f5061757361626c653a207061757365640000000000000000000000000000000060448201526064016103a2565b6001600160a01b0384166111855760405162461bcd60e51b815260206004820152602160248201527f455243313135353a206d696e7420746f20746865207a65726f206164647265736044820152607360f81b60648201526084016103a2565b81518351146111e75760405162461bcd60e51b815260206004820152602860248201527f455243313135353a2069647320616e6420616d6f756e7473206c656e677468206044820152670dad2e6dac2e8c6d60c31b60648201526084016103a2565b3360005b8451811015611284578381815181106112065761120661285e565b6020026020010151609760008784815181106112245761122461285e565b602002602001015181526020019081526020016000206000886001600160a01b03166001600160a01b03168152602001908152602001600020600082825461126c91906128c2565b9091555081905061127c8161288a565b9150506111eb565b50846001600160a01b031660006001600160a01b0316826001600160a01b03167f4a39dc06d4c0dbc64b70af90fd698a233a518aa5d07e595d983b8c0526c8f7fb87876040516112d592919061292f565b60405180910390a461068e81600087878787611b4e565b815183511461134e5760405162461bcd60e51b815260206004820152602860248201527f455243313135353a2069647320616e6420616d6f756e7473206c656e677468206044820152670dad2e6dac2e8c6d60c31b60648201526084016103a2565b6001600160a01b0384166113b25760405162461bcd60e51b815260206004820152602560248201527f455243313135353a207472616e7366657220746f20746865207a65726f206164604482015264647265737360d81b60648201526084016103a2565b3360005b84518110156114df5760008582815181106113d3576113d361285e565b6020026020010151905060008583815181106113f1576113f161285e565b60209081029190910181015160008481526097835260408082206001600160a01b038e1683529093529190912054909150818110156114855760405162461bcd60e51b815260206004820152602a60248201527f455243313135353a20696e73756666696369656e742062616c616e636520666f60448201526939103a3930b739b332b960b11b60648201526084016103a2565b60008381526097602090815260408083206001600160a01b038e8116855292528083208585039055908b168252812080548492906114c49084906128c2565b92505081905550505050806114d89061288a565b90506113b6565b50846001600160a01b0316866001600160a01b0316826001600160a01b03167f4a39dc06d4c0dbc64b70af90fd698a233a518aa5d07e595d983b8c0526c8f7fb878760405161152f92919061292f565b60405180910390a4611545818787878787611b4e565b505050505050565b603380546001600160a01b0383811673ffffffffffffffffffffffffffffffffffffffff19831681179093556040519116919082907f8be0079c531659141344cd1fd0a4f28419497f9722a3daafe3b4186f6b6457e090600090a35050565b600054610100900460ff166116175760405162461bcd60e51b815260206004820152602b60248201527f496e697469616c697a61626c653a20636f6e7472616374206973206e6f74206960448201526a6e697469616c697a696e6760a81b60648201526084016103a2565b610f3b81611cf4565b600054610100900460ff1661168b5760405162461bcd60e51b815260206004820152602b60248201527f496e697469616c697a61626c653a20636f6e7472616374206973206e6f74206960448201526a6e697469616c697a696e6760a81b60648201526084016103a2565b610880611d68565b600054610100900460ff166116fe5760405162461bcd60e51b815260206004820152602b60248201527f496e697469616c697a61626c653a20636f6e7472616374206973206e6f74206960448201526a6e697469616c697a696e6760a81b60648201526084016103a2565b610880611ddc565b61170e6110d2565b60c9805460ff191660011790557f62e78cea01bee320cd4e420270b5ea74000d11b0c9f74754ebdbfc544b05a2586117433390565b6040516001600160a01b039091168152602001610e09565b611763611e53565b60c9805460ff191690557f5db9ee0a495bf2e6ff9c91a7834c1ba4fdd244a5e8aa4e537bd38aeae4b073aa33611743565b816001600160a01b0316836001600160a01b0316141561181c5760405162461bcd60e51b815260206004820152602960248201527f455243313135353a2073657474696e6720617070726f76616c2073746174757360448201527f20666f722073656c66000000000000000000000000000000000000000000000060648201526084016103a2565b6001600160a01b03838116600081815260986020908152604080832094871680845294825291829020805460ff191686151590811790915591519182527f17307eab39ab6107e8899845ad3d59bd9653f200f220920489ca2b5937696c31910160405180910390a3505050565b6001600160a01b0384166118e95760405162461bcd60e51b815260206004820152602160248201527f455243313135353a206d696e7420746f20746865207a65726f206164647265736044820152607360f81b60648201526084016103a2565b3360006118f585611ea5565b9050600061190285611ea5565b905060008681526097602090815260408083206001600160a01b038b168452909152812080548792906119369084906128c2565b909155505060408051878152602081018790526001600160a01b03808a1692600092918716917fc3d58168c5ae7397731d063d5bbf3d657854427343f4c083240f7aacaa2d0f62910160405180910390a461199683600089898989611ef0565b50505050505050565b6001600160a01b038416611a035760405162461bcd60e51b815260206004820152602560248201527f455243313135353a207472616e7366657220746f20746865207a65726f206164604482015264647265737360d81b60648201526084016103a2565b336000611a0f85611ea5565b90506000611a1c85611ea5565b905060008681526097602090815260408083206001600160a01b038c16845290915290205485811015611aa45760405162461bcd60e51b815260206004820152602a60248201527f455243313135353a20696e73756666696369656e742062616c616e636520666f60448201526939103a3930b739b332b960b11b60648201526084016103a2565b60008781526097602090815260408083206001600160a01b038d8116855292528083208985039055908a16825281208054889290611ae39084906128c2565b909155505060408051888152602081018890526001600160a01b03808b16928c821692918816917fc3d58168c5ae7397731d063d5bbf3d657854427343f4c083240f7aacaa2d0f62910160405180910390a4611b43848a8a8a8a8a611ef0565b505050505050505050565b6001600160a01b0384163b156115455760405163bc197c8160e01b81526001600160a01b0385169063bc197c8190611b929089908990889088908890600401612954565b6020604051808303816000875af1925050508015611bcd575060408051601f3d908101601f19168201909252611bca918101906129b2565b60015b611c8357611bd96129cf565b806308c379a01415611c135750611bee6129eb565b80611bf95750611c15565b8060405162461bcd60e51b81526004016103a29190612180565b505b60405162461bcd60e51b815260206004820152603460248201527f455243313135353a207472616e7366657220746f206e6f6e204552433131353560448201527f526563656976657220696d706c656d656e74657200000000000000000000000060648201526084016103a2565b6001600160e01b0319811663bc197c8160e01b146119965760405162461bcd60e51b815260206004820152602860248201527f455243313135353a204552433131353552656365697665722072656a656374656044820152676420746f6b656e7360c01b60648201526084016103a2565b600054610100900460ff16611d5f5760405162461bcd60e51b815260206004820152602b60248201527f496e697469616c697a61626c653a20636f6e7472616374206973206e6f74206960448201526a6e697469616c697a696e6760a81b60648201526084016103a2565b610f3b81611fec565b600054610100900460ff16611dd35760405162461bcd60e51b815260206004820152602b60248201527f496e697469616c697a61626c653a20636f6e7472616374206973206e6f74206960448201526a6e697469616c697a696e6760a81b60648201526084016103a2565b6108803361154d565b600054610100900460ff16611e475760405162461bcd60e51b815260206004820152602b60248201527f496e697469616c697a61626c653a20636f6e7472616374206973206e6f74206960448201526a6e697469616c697a696e6760a81b60648201526084016103a2565b60c9805460ff19169055565b60c95460ff166108805760405162461bcd60e51b815260206004820152601460248201527f5061757361626c653a206e6f742070617573656400000000000000000000000060448201526064016103a2565b60408051600180825281830190925260609160009190602080830190803683370190505090508281600081518110611edf57611edf61285e565b602090810291909101015292915050565b6001600160a01b0384163b156115455760405163f23a6e6160e01b81526001600160a01b0385169063f23a6e6190611f349089908990889088908890600401612a75565b6020604051808303816000875af1925050508015611f6f575060408051601f3d908101601f19168201909252611f6c918101906129b2565b60015b611f7b57611bd96129cf565b6001600160e01b0319811663f23a6e6160e01b146119965760405162461bcd60e51b815260206004820152602860248201527f455243313135353a204552433131353552656365697665722072656a656374656044820152676420746f6b656e7360c01b60648201526084016103a2565b8051610ae89060999060208401905b82805461200790612717565b90600052602060002090601f016020900481019282612029576000855561206f565b82601f1061204257805160ff191683800117855561206f565b8280016001018555821561206f579182015b8281111561206f578251825591602001919060010190612054565b5061207b92915061207f565b5090565b5b8082111561207b5760008155600101612080565b6001600160a01b0381168114610f3b57600080fd5b600080604083850312156120bc57600080fd5b82356120c781612094565b946020939093013593505050565b6001600160e01b031981168114610f3b57600080fd5b6000602082840312156120fd57600080fd5b8135612108816120d5565b9392505050565b60006020828403121561212157600080fd5b5035919050565b60005b8381101561214357818101518382015260200161212b565b83811115610a285750506000910152565b6000815180845261216c816020860160208601612128565b601f01601f19169290920160200192915050565b6020815260006121086020830184612154565b634e487b7160e01b600052604160045260246000fd5b601f8201601f1916810167ffffffffffffffff811182821017156121cf576121cf612193565b6040525050565b600067ffffffffffffffff8211156121f0576121f0612193565b5060051b60200190565b600082601f83011261220b57600080fd5b81356020612218826121d6565b60405161222582826121a9565b83815260059390931b850182019282810191508684111561224557600080fd5b8286015b848110156122605780358352918301918301612249565b509695505050505050565b600067ffffffffffffffff83111561228557612285612193565b60405161229c601f8501601f1916602001826121a9565b8091508381528484840111156122b157600080fd5b83836020830137600060208583010152509392505050565b600082601f8301126122da57600080fd5b6121088383356020850161226b565b600080600080608085870312156122ff57600080fd5b843561230a81612094565b9350602085013567ffffffffffffffff8082111561232757600080fd5b612333888389016121fa565b9450604087013591508082111561234957600080fd5b612355888389016121fa565b9350606087013591508082111561236b57600080fd5b50612378878288016122c9565b91505092959194509250565b600080600080600060a0868803121561239c57600080fd5b85356123a781612094565b945060208601356123b781612094565b9350604086013567ffffffffffffffff808211156123d457600080fd5b6123e089838a016121fa565b945060608801359150808211156123f657600080fd5b61240289838a016121fa565b9350608088013591508082111561241857600080fd5b50612425888289016122c9565b9150509295509295909350565b6000806040838503121561244557600080fd5b823567ffffffffffffffff8082111561245d57600080fd5b818501915085601f83011261247157600080fd5b8135602061247e826121d6565b60405161248b82826121a9565b83815260059390931b85018201928281019150898411156124ab57600080fd5b948201945b838610156124d25785356124c381612094565b825294820194908201906124b0565b965050860135925050808211156124e857600080fd5b506124f5858286016121fa565b9150509250929050565b600081518084526020808501945080840160005b8381101561252f57815187529582019590820190600101612513565b509495945050505050565b60208152600061210860208301846124ff565b60008060006060848603121561256257600080fd5b833561256d81612094565b9250602084013567ffffffffffffffff81111561258957600080fd5b8401601f8101861361259a57600080fd5b6125a98682356020840161226b565b92505060408401356125ba81612094565b809150509250925092565b6000602082840312156125d757600080fd5b813561210881612094565b8015158114610f3b57600080fd5b6000806040838503121561260357600080fd5b823561260e81612094565b9150602083013561261e816125e2565b809150509250929050565b6000806000806080858703121561263f57600080fd5b84359350602085013561265181612094565b925060408501359150606085013567ffffffffffffffff81111561267457600080fd5b612378878288016122c9565b6000806040838503121561269357600080fd5b823561269e81612094565b9150602083013561261e81612094565b600080600080600060a086880312156126c657600080fd5b85356126d181612094565b945060208601356126e181612094565b93506040860135925060608601359150608086013567ffffffffffffffff81111561270b57600080fd5b612425888289016122c9565b600181811c9082168061272b57607f821691505b6020821081141561274c57634e487b7160e01b600052602260045260246000fd5b50919050565b60008151612764818560208601612128565b9290920192915050565b600080845481600182811c91508083168061278a57607f831692505b60208084108214156127aa57634e487b7160e01b86526022600452602486fd5b8180156127be57600181146127cf576127fc565b60ff198616895284890196506127fc565b60008b81526020902060005b868110156127f45781548b8201529085019083016127db565b505084890196505b50505050505061283861280f8286612752565b7f2e6a736f6e000000000000000000000000000000000000000000000000000000815260050190565b95945050505050565b60006020828403121561285357600080fd5b8151612108816125e2565b634e487b7160e01b600052603260045260246000fd5b634e487b7160e01b600052601160045260246000fd5b600060001982141561289e5761289e612874565b5060010190565b6000602082840312156128b757600080fd5b815161210881612094565b600082198211156128d5576128d5612874565b500190565b634e487b7160e01b600052601260045260246000fd5b6000826128ff576128ff6128da565b500490565b60008282101561291657612916612874565b500390565b60008261292a5761292a6128da565b500690565b60408152600061294260408301856124ff565b828103602084015261283881856124ff565b60006001600160a01b03808816835280871660208401525060a0604083015261298060a08301866124ff565b828103606084015261299281866124ff565b905082810360808401526129a68185612154565b98975050505050505050565b6000602082840312156129c457600080fd5b8151612108816120d5565b600060033d11156129e85760046000803e5060005160e01c5b90565b600060443d10156129f95790565b6040516003193d81016004833e81513d67ffffffffffffffff8160248401118184111715612a2957505050505090565b8285019150815181811115612a415750505050505090565b843d8701016020828501011115612a5b5750505050505090565b612a6a602082860101876121a9565b509095945050505050565b60006001600160a01b03808816835280871660208401525084604083015283606083015260a06080830152612aad60a0830184612154565b97965050505050505056fea2646970667358221220b5c55f420c8acb71070a6bbead97783b432c9ea663e50aaa5b717b33c06b81ac64736f6c634300080c0033",
  "linkReferences": {},
  "deployedLinkReferences": {}
}