{
  "_format": "hh-sol-artifact-1",
  "contractName": "Artifacts",
  "sourceName": "contracts/Artifacts.sol",
  "abi": [
    {
      "anonymous": false,
      "inputs": [
        {
          "indexed": false,
          "internalType": "uint256",
          "name": "",
          "type": "uint256"
        }
      ],
      "name": "AddNewArtifact",
      "type": "event"
    },
    {
      "anonymous": false,
      "inputs": [
        {
          "indexed": true,
          "internalType": "address",
          "name": "account",
          "type": "address"
        },
        {
          "indexed": true,
          "internalType": "address",
          "name": "operator",
          "type": "address"
        },
        {
          "indexed": false,
          "internalType": "bool",
          "name": "approved",
          "type": "bool"
        }
      ],
      "name": "ApprovalForAll",
      "type": "event"
    },
    {
      "anonymous": false,
      "inputs": [
        {
          "indexed": false,
          "internalType": "uint8",
          "name": "version",
          "type": "uint8"
        }
      ],
      "name": "Initialized",
      "type": "event"
    },
    {
      "anonymous": false,
      "inputs": [
        {
          "indexed": true,
          "internalType": "address",
          "name": "previousOwner",
          "type": "address"
        },
        {
          "indexed": true,
          "internalType": "address",
          "name": "newOwner",
          "type": "address"
        }
      ],
      "name": "OwnershipTransferred",
      "type": "event"
    },
    {
      "anonymous": false,
      "inputs": [
        {
          "indexed": false,
          "internalType": "address",
          "name": "account",
          "type": "address"
        }
      ],
      "name": "Paused",
      "type": "event"
    },
    {
      "anonymous": false,
      "inputs": [
        {
          "indexed": true,
          "internalType": "address",
          "name": "operator",
          "type": "address"
        },
        {
          "indexed": true,
          "internalType": "address",
          "name": "from",
          "type": "address"
        },
        {
          "indexed": true,
          "internalType": "address",
          "name": "to",
          "type": "address"
        },
        {
          "indexed": false,
          "internalType": "uint256[]",
          "name": "ids",
          "type": "uint256[]"
        },
        {
          "indexed": false,
          "internalType": "uint256[]",
          "name": "values",
          "type": "uint256[]"
        }
      ],
      "name": "TransferBatch",
      "type": "event"
    },
    {
      "anonymous": false,
      "inputs": [
        {
          "indexed": true,
          "internalType": "address",
          "name": "operator",
          "type": "address"
        },
        {
          "indexed": true,
          "internalType": "address",
          "name": "from",
          "type": "address"
        },
        {
          "indexed": true,
          "internalType": "address",
          "name": "to",
          "type": "address"
        },
        {
          "indexed": false,
          "internalType": "uint256",
          "name": "id",
          "type": "uint256"
        },
        {
          "indexed": false,
          "internalType": "uint256",
          "name": "value",
          "type": "uint256"
        }
      ],
      "name": "TransferSingle",
      "type": "event"
    },
    {
      "anonymous": false,
      "inputs": [
        {
          "indexed": false,
          "internalType": "string",
          "name": "value",
          "type": "string"
        },
        {
          "indexed": true,
          "internalType": "uint256",
          "name": "id",
          "type": "uint256"
        }
      ],
      "name": "URI",
      "type": "event"
    },
    {
      "anonymous": false,
      "inputs": [
        {
          "indexed": false,
          "internalType": "address",
          "name": "account",
          "type": "address"
        }
      ],
      "name": "Unpaused",
      "type": "event"
    },
    {
      "inputs": [],
      "name": "addNewArtifact",
      "outputs": [],
      "stateMutability": "nonpayable",
      "type": "function"
    },
    {
      "inputs": [
        {
          "internalType": "address",
          "name": "account",
          "type": "address"
        },
        {
          "internalType": "uint256",
          "name": "id",
          "type": "uint256"
        }
      ],
      "name": "balanceOf",
      "outputs": [
        {
          "internalType": "uint256",
          "name": "",
          "type": "uint256"
        }
      ],
      "stateMutability": "view",
      "type": "function"
    },
    {
      "inputs": [
        {
          "internalType": "address[]",
          "name": "accounts",
          "type": "address[]"
        },
        {
          "internalType": "uint256[]",
          "name": "ids",
          "type": "uint256[]"
        }
      ],
      "name": "balanceOfBatch",
      "outputs": [
        {
          "internalType": "uint256[]",
          "name": "",
          "type": "uint256[]"
        }
      ],
      "stateMutability": "view",
      "type": "function"
    },
    {
      "inputs": [],
      "name": "getArtifactsTypesAmount",
      "outputs": [
        {
          "internalType": "uint256",
          "name": "",
          "type": "uint256"
        }
      ],
      "stateMutability": "view",
      "type": "function"
    },
    {
      "inputs": [
        {
          "internalType": "string",
          "name": "_baseUrl",
          "type": "string"
        },
        {
          "internalType": "address",
          "name": "_blackListContractAddress",
          "type": "address"
        }
      ],
      "name": "initialize",
      "outputs": [],
      "stateMutability": "nonpayable",
      "type": "function"
    },
    {
      "inputs": [
        {
          "internalType": "address",
          "name": "account",
          "type": "address"
        },
        {
          "internalType": "address",
          "name": "operator",
          "type": "address"
        }
      ],
      "name": "isApprovedForAll",
      "outputs": [
        {
          "internalType": "bool",
          "name": "",
          "type": "bool"
        }
      ],
      "stateMutability": "view",
      "type": "function"
    },
    {
      "inputs": [
        {
          "internalType": "address",
          "name": "user",
          "type": "address"
        },
        {
          "internalType": "uint256",
          "name": "artifactType",
          "type": "uint256"
        }
      ],
      "name": "lootArtifact",
      "outputs": [],
      "stateMutability": "nonpayable",
      "type": "function"
    },
    {
      "inputs": [
        {
          "internalType": "uint256",
          "name": "artifactType",
          "type": "uint256"
        },
        {
          "internalType": "address",
          "name": "to",
          "type": "address"
        },
        {
          "internalType": "uint256",
          "name": "amount",
          "type": "uint256"
        },
        {
          "internalType": "bytes",
          "name": "data",
          "type": "bytes"
        }
      ],
      "name": "mint",
      "outputs": [],
      "stateMutability": "nonpayable",
      "type": "function"
    },
    {
      "inputs": [
        {
          "internalType": "address",
          "name": "to",
          "type": "address"
        },
        {
          "internalType": "uint256[]",
          "name": "ids",
          "type": "uint256[]"
        },
        {
          "internalType": "uint256[]",
          "name": "amounts",
          "type": "uint256[]"
        },
        {
          "internalType": "bytes",
          "name": "data",
          "type": "bytes"
        }
      ],
      "name": "mintBatch",
      "outputs": [],
      "stateMutability": "nonpayable",
      "type": "function"
    },
    {
      "inputs": [],
      "name": "owner",
      "outputs": [
        {
          "internalType": "address",
          "name": "",
          "type": "address"
        }
      ],
      "stateMutability": "view",
      "type": "function"
    },
    {
      "inputs": [],
      "name": "pause",
      "outputs": [],
      "stateMutability": "nonpayable",
      "type": "function"
    },
    {
      "inputs": [],
      "name": "paused",
      "outputs": [
        {
          "internalType": "bool",
          "name": "",
          "type": "bool"
        }
      ],
      "stateMutability": "view",
      "type": "function"
    },
    {
      "inputs": [],
      "name": "renounceOwnership",
      "outputs": [],
      "stateMutability": "nonpayable",
      "type": "function"
    },
    {
      "inputs": [
        {
          "internalType": "address",
          "name": "from",
          "type": "address"
        },
        {
          "internalType": "address",
          "name": "to",
          "type": "address"
        },
        {
          "internalType": "uint256[]",
          "name": "ids",
          "type": "uint256[]"
        },
        {
          "internalType": "uint256[]",
          "name": "amounts",
          "type": "uint256[]"
        },
        {
          "internalType": "bytes",
          "name": "data",
          "type": "bytes"
        }
      ],
      "name": "safeBatchTransferFrom",
      "outputs": [],
      "stateMutability": "nonpayable",
      "type": "function"
    },
    {
      "inputs": [
        {
          "internalType": "address",
          "name": "from",
          "type": "address"
        },
        {
          "internalType": "address",
          "name": "to",
          "type": "address"
        },
        {
          "internalType": "uint256",
          "name": "id",
          "type": "uint256"
        },
        {
          "internalType": "uint256",
          "name": "amount",
          "type": "uint256"
        },
        {
          "internalType": "bytes",
          "name": "data",
          "type": "bytes"
        }
      ],
      "name": "safeTransferFrom",
      "outputs": [],
      "stateMutability": "nonpayable",
      "type": "function"
    },
    {
      "inputs": [
        {
          "internalType": "address",
          "name": "operator",
          "type": "address"
        },
        {
          "internalType": "bool",
          "name": "approved",
          "type": "bool"
        }
      ],
      "name": "setApprovalForAll",
      "outputs": [],
      "stateMutability": "nonpayable",
      "type": "function"
    },
    {
      "inputs": [
        {
          "internalType": "address",
          "name": "toolsAddress",
          "type": "address"
        }
      ],
      "name": "setToolsAddress",
      "outputs": [],
      "stateMutability": "nonpayable",
      "type": "function"
    },
    {
      "inputs": [
        {
          "internalType": "bytes4",
          "name": "interfaceId",
          "type": "bytes4"
        }
      ],
      "name": "supportsInterface",
      "outputs": [
        {
          "internalType": "bool",
          "name": "",
          "type": "bool"
        }
      ],
      "stateMutability": "view",
      "type": "function"
    },
    {
      "inputs": [
        {
          "internalType": "address",
          "name": "newOwner",
          "type": "address"
        }
      ],
      "name": "transferOwnership",
      "outputs": [],
      "stateMutability": "nonpayable",
      "type": "function"
    },
    {
      "inputs": [
        {
          "internalType": "uint256",
          "name": "artifactType",
          "type": "uint256"
        }
      ],
      "name": "uri",
      "outputs": [
        {
          "internalType": "string",
          "name": "",
          "type": "string"
        }
      ],
      "stateMutability": "view",
      "type": "function"
    }
  ],
  "bytecode": "0x608060405234801561001057600080fd5b506129fa806100206000396000f3fe608060405234801561001057600080fd5b506004361061016b5760003560e01c80638da5cb5b116100cd578063daa6c75511610081578063ed9e845211610066578063ed9e8452146102fa578063f242432a14610302578063f2fde38b1461031557600080fd5b8063daa6c755146102b6578063e985e9c5146102be57600080fd5b8063a22cb465116100b2578063a22cb4651461027d578063ac2a301014610290578063c77b66c2146102a357600080fd5b80638da5cb5b1461024f57806394cf7cd01461026a57600080fd5b80634e1273f411610124578063715018a611610109578063715018a61461022c5780637ab4339d146102345780638456cb591461024757600080fd5b80634e1273f4146102015780635c975abb1461022157600080fd5b80630e89341c116101555780630e89341c146101b95780631f7fdffa146101d95780632eb2c2d6146101ee57600080fd5b8062fdd58e1461017057806301ffc9a714610196575b600080fd5b61018361017e366004611fd2565b610328565b6040519081526020015b60405180910390f35b6101a96101a4366004612014565b6103d3565b604051901515815260200161018d565b6101cc6101c7366004612038565b610470565b60405161018d91906120a9565b6101ec6101e7366004612212565b610505565b005b6101ec6101fc3660046122ad565b6105c7565b61021461020f36600461235b565b610669565b60405161018d9190612463565b60c95460ff166101a9565b6101ec6107a7565b6101ec610242366004612476565b6107bb565b6101ec61093e565b6033546040516001600160a01b03909116815260200161018d565b6101ec6102783660046124dc565b610960565b6101ec61028b366004612507565b6109ed565b6101ec61029e366004611fd2565b6109fc565b6101ec6102b1366004612535565b610b15565b60fe54610183565b6101a96102cc36600461258c565b6001600160a01b03918216600090815260986020908152604080832093909416825291909152205460ff1690565b6101ec610c68565b6101ec6103103660046125ba565b610d3c565b6101ec6103233660046124dc565b610dd7565b60006001600160a01b0383166103ab5760405162461bcd60e51b815260206004820152602a60248201527f455243313135353a2061646472657373207a65726f206973206e6f742061207660448201527f616c6964206f776e65720000000000000000000000000000000000000000000060648201526084015b60405180910390fd5b5060009081526097602090815260408083206001600160a01b03949094168352929052205490565b60006001600160e01b031982167fd9b67a2600000000000000000000000000000000000000000000000000000000148061043657506001600160e01b031982167f0e89341c00000000000000000000000000000000000000000000000000000000145b8061046a57507f01ffc9a7000000000000000000000000000000000000000000000000000000006001600160e01b03198316145b92915050565b606060fe548211156104d35760405162461bcd60e51b815260206004820152602660248201527f4172746966616374733a205468697320617274696661637420646f65736e277460448201526508195e1a5cdd60d21b60648201526084016103a2565b60fd6104de83610e67565b6040516020016104ef92919061267a565b6040516020818303038152906040529050919050565b60005b83518110156105b45760fe548482815181106105265761052661274d565b602002602001015111156105a25760405162461bcd60e51b815260206004820152602c60248201527f4172746966616374733a2074686973206172746966616374207479706520646f60448201527f65736e277420657869737473000000000000000000000000000000000000000060648201526084016103a2565b806105ac81612779565b915050610508565b506105c184848484610fa1565b50505050565b6001600160a01b0385163314806105e357506105e385336102cc565b6106555760405162461bcd60e51b815260206004820152602f60248201527f455243313135353a2063616c6c6572206973206e6f7420746f6b656e206f776e60448201527f6572206e6f7220617070726f766564000000000000000000000000000000000060648201526084016103a2565b6106628585858585611168565b5050505050565b606081518351146106e25760405162461bcd60e51b815260206004820152602960248201527f455243313135353a206163636f756e747320616e6420696473206c656e67746860448201527f206d69736d61746368000000000000000000000000000000000000000000000060648201526084016103a2565b6000835167ffffffffffffffff8111156106fe576106fe6120bc565b604051908082528060200260200182016040528015610727578160200160208202803683370190505b50905060005b845181101561079f5761077285828151811061074b5761074b61274d565b60200260200101518583815181106107655761076561274d565b6020026020010151610328565b8282815181106107845761078461274d565b602090810291909101015261079881612779565b905061072d565b509392505050565b6107af6113c9565b6107b96000611423565b565b600054610100900460ff16158080156107db5750600054600160ff909116105b806107f55750303b1580156107f5575060005460ff166001145b6108675760405162461bcd60e51b815260206004820152602e60248201527f496e697469616c697a61626c653a20636f6e747261637420697320616c72656160448201527f647920696e697469616c697a656400000000000000000000000000000000000060648201526084016103a2565b6000805460ff19166001179055801561088a576000805461ff0019166101001790555b825161089d9060fd906020860190611f24565b5060fb805473ffffffffffffffffffffffffffffffffffffffff19166001600160a01b038416179055600660fe556040805160208101909152600081526108e390611482565b6108eb6114f6565b6108f3611569565b8015610939576000805461ff0019169055604051600181527f7f26b83ff96e1f2b6a682f133852f6798a09c465da95921460cefb38474024989060200160405180910390a15b505050565b6109466113c9565b60c95460ff16610958576107b96115dc565b6107b9611631565b6109686113c9565b6001600160a01b0381166109be5760405162461bcd60e51b815260206004820152601760248201527f4172746966616374733a207a65726f206164647265737300000000000000000060448201526064016103a2565b60fc805473ffffffffffffffffffffffffffffffffffffffff19166001600160a01b0392909216919091179055565b6109f833838361166a565b5050565b60fc60009054906101000a90046001600160a01b03166001600160a01b03166343cac2b16040518163ffffffff1660e01b8152600401602060405180830381865afa158015610a4f573d6000803e3d6000fd5b505050506040513d601f19601f82011682018060405250810190610a739190612794565b6001600160a01b0316336001600160a01b031614610af95760405162461bcd60e51b815260206004820152603660248201527f4172746966616374733a206f6e6c79206d696e696e6720636f6e74726163742060448201527f63616e2063616c6c20746869732066756e6374696f6e0000000000000000000060648201526084016103a2565b6109f8828260016040518060200160405280600081525061175f565b610b1d6113c9565b610b25611875565b60fb546040517fc23697a80000000000000000000000000000000000000000000000000000000081526001600160a01b0380861660048301528592169063c23697a8906024016020604051808303816000875af1158015610b8a573d6000803e3d6000fd5b505050506040513d601f19601f82011682018060405250810190610bae91906127b1565b15610bfb5760405162461bcd60e51b815260206004820152601c60248201527f4172746966616374733a207573657220696e20626c61636b6c6973740000000060448201526064016103a2565b60fe54851115610c5c5760405162461bcd60e51b815260206004820152602660248201527f4172746966616374733a205468697320617274696661637420646f65736e277460448201526508195e1a5cdd60d21b60648201526084016103a2565b6106628486858561175f565b610c706113c9565b600160fe6000828254610c8391906127ce565b909155505060fc54604080517f0ebb956d00000000000000000000000000000000000000000000000000000000815290516001600160a01b0390921691630ebb956d9160048082019260009290919082900301818387803b158015610ce757600080fd5b505af1158015610cfb573d6000803e3d6000fd5b505050507f1b62dd3d3d4d94e83dc4eb3f8fe1fd04165796d790d0807467a1f58a7dd8a74a60fe54604051610d3291815260200190565b60405180910390a1565b6001600160a01b038516331480610d585750610d5885336102cc565b610dca5760405162461bcd60e51b815260206004820152602f60248201527f455243313135353a2063616c6c6572206973206e6f7420746f6b656e206f776e60448201527f6572206e6f7220617070726f766564000000000000000000000000000000000060648201526084016103a2565b61066285858585856118c8565b610ddf6113c9565b6001600160a01b038116610e5b5760405162461bcd60e51b815260206004820152602660248201527f4f776e61626c653a206e6577206f776e657220697320746865207a65726f206160448201527f646472657373000000000000000000000000000000000000000000000000000060648201526084016103a2565b610e6481611423565b50565b606081610ea757505060408051808201909152600181527f3000000000000000000000000000000000000000000000000000000000000000602082015290565b8160005b8115610ed15780610ebb81612779565b9150610eca9050600a836127fc565b9150610eab565b60008167ffffffffffffffff811115610eec57610eec6120bc565b6040519080825280601f01601f191660200182016040528015610f16576020820181803683370190505b5090505b8415610f9957610f2b600183612810565b9150610f38600a86612827565b610f439060306127ce565b60f81b818381518110610f5857610f5861274d565b60200101907effffffffffffffffffffffffffffffffffffffffffffffffffffffffffffff1916908160001a905350610f92600a866127fc565b9450610f1a565b949350505050565b6001600160a01b0384166110015760405162461bcd60e51b815260206004820152602160248201527f455243313135353a206d696e7420746f20746865207a65726f206164647265736044820152607360f81b60648201526084016103a2565b81518351146110635760405162461bcd60e51b815260206004820152602860248201527f455243313135353a2069647320616e6420616d6f756e7473206c656e677468206044820152670dad2e6dac2e8c6d60c31b60648201526084016103a2565b3360005b8451811015611100578381815181106110825761108261274d565b6020026020010151609760008784815181106110a0576110a061274d565b602002602001015181526020019081526020016000206000886001600160a01b03166001600160a01b0316815260200190815260200160002060008282546110e891906127ce565b909155508190506110f881612779565b915050611067565b50846001600160a01b031660006001600160a01b0316826001600160a01b03167f4a39dc06d4c0dbc64b70af90fd698a233a518aa5d07e595d983b8c0526c8f7fb878760405161115192919061283b565b60405180910390a461066281600087878787611a77565b81518351146111ca5760405162461bcd60e51b815260206004820152602860248201527f455243313135353a2069647320616e6420616d6f756e7473206c656e677468206044820152670dad2e6dac2e8c6d60c31b60648201526084016103a2565b6001600160a01b03841661122e5760405162461bcd60e51b815260206004820152602560248201527f455243313135353a207472616e7366657220746f20746865207a65726f206164604482015264647265737360d81b60648201526084016103a2565b3360005b845181101561135b57600085828151811061124f5761124f61274d565b60200260200101519050600085838151811061126d5761126d61274d565b60209081029190910181015160008481526097835260408082206001600160a01b038e1683529093529190912054909150818110156113015760405162461bcd60e51b815260206004820152602a60248201527f455243313135353a20696e73756666696369656e742062616c616e636520666f60448201526939103a3930b739b332b960b11b60648201526084016103a2565b60008381526097602090815260408083206001600160a01b038e8116855292528083208585039055908b168252812080548492906113409084906127ce565b925050819055505050508061135490612779565b9050611232565b50846001600160a01b0316866001600160a01b0316826001600160a01b03167f4a39dc06d4c0dbc64b70af90fd698a233a518aa5d07e595d983b8c0526c8f7fb87876040516113ab92919061283b565b60405180910390a46113c1818787878787611a77565b505050505050565b6033546001600160a01b031633146107b95760405162461bcd60e51b815260206004820181905260248201527f4f776e61626c653a2063616c6c6572206973206e6f7420746865206f776e657260448201526064016103a2565b603380546001600160a01b0383811673ffffffffffffffffffffffffffffffffffffffff19831681179093556040519116919082907f8be0079c531659141344cd1fd0a4f28419497f9722a3daafe3b4186f6b6457e090600090a35050565b600054610100900460ff166114ed5760405162461bcd60e51b815260206004820152602b60248201527f496e697469616c697a61626c653a20636f6e7472616374206973206e6f74206960448201526a6e697469616c697a696e6760a81b60648201526084016103a2565b610e6481611c1d565b600054610100900460ff166115615760405162461bcd60e51b815260206004820152602b60248201527f496e697469616c697a61626c653a20636f6e7472616374206973206e6f74206960448201526a6e697469616c697a696e6760a81b60648201526084016103a2565b6107b9611c91565b600054610100900460ff166115d45760405162461bcd60e51b815260206004820152602b60248201527f496e697469616c697a61626c653a20636f6e7472616374206973206e6f74206960448201526a6e697469616c697a696e6760a81b60648201526084016103a2565b6107b9611d05565b6115e4611875565b60c9805460ff191660011790557f62e78cea01bee320cd4e420270b5ea74000d11b0c9f74754ebdbfc544b05a2586116193390565b6040516001600160a01b039091168152602001610d32565b611639611d7c565b60c9805460ff191690557f5db9ee0a495bf2e6ff9c91a7834c1ba4fdd244a5e8aa4e537bd38aeae4b073aa33611619565b816001600160a01b0316836001600160a01b031614156116f25760405162461bcd60e51b815260206004820152602960248201527f455243313135353a2073657474696e6720617070726f76616c2073746174757360448201527f20666f722073656c66000000000000000000000000000000000000000000000060648201526084016103a2565b6001600160a01b03838116600081815260986020908152604080832094871680845294825291829020805460ff191686151590811790915591519182527f17307eab39ab6107e8899845ad3d59bd9653f200f220920489ca2b5937696c31910160405180910390a3505050565b6001600160a01b0384166117bf5760405162461bcd60e51b815260206004820152602160248201527f455243313135353a206d696e7420746f20746865207a65726f206164647265736044820152607360f81b60648201526084016103a2565b3360006117cb85611dce565b905060006117d885611dce565b905060008681526097602090815260408083206001600160a01b038b1684529091528120805487929061180c9084906127ce565b909155505060408051878152602081018790526001600160a01b03808a1692600092918716917fc3d58168c5ae7397731d063d5bbf3d657854427343f4c083240f7aacaa2d0f62910160405180910390a461186c83600089898989611e19565b50505050505050565b60c95460ff16156107b95760405162461bcd60e51b815260206004820152601060248201527f5061757361626c653a207061757365640000000000000000000000000000000060448201526064016103a2565b6001600160a01b03841661192c5760405162461bcd60e51b815260206004820152602560248201527f455243313135353a207472616e7366657220746f20746865207a65726f206164604482015264647265737360d81b60648201526084016103a2565b33600061193885611dce565b9050600061194585611dce565b905060008681526097602090815260408083206001600160a01b038c168452909152902054858110156119cd5760405162461bcd60e51b815260206004820152602a60248201527f455243313135353a20696e73756666696369656e742062616c616e636520666f60448201526939103a3930b739b332b960b11b60648201526084016103a2565b60008781526097602090815260408083206001600160a01b038d8116855292528083208985039055908a16825281208054889290611a0c9084906127ce565b909155505060408051888152602081018890526001600160a01b03808b16928c821692918816917fc3d58168c5ae7397731d063d5bbf3d657854427343f4c083240f7aacaa2d0f62910160405180910390a4611a6c848a8a8a8a8a611e19565b505050505050505050565b6001600160a01b0384163b156113c15760405163bc197c8160e01b81526001600160a01b0385169063bc197c8190611abb9089908990889088908890600401612860565b6020604051808303816000875af1925050508015611af6575060408051601f3d908101601f19168201909252611af3918101906128be565b60015b611bac57611b026128db565b806308c379a01415611b3c5750611b176128f7565b80611b225750611b3e565b8060405162461bcd60e51b81526004016103a291906120a9565b505b60405162461bcd60e51b815260206004820152603460248201527f455243313135353a207472616e7366657220746f206e6f6e204552433131353560448201527f526563656976657220696d706c656d656e74657200000000000000000000000060648201526084016103a2565b6001600160e01b0319811663bc197c8160e01b1461186c5760405162461bcd60e51b815260206004820152602860248201527f455243313135353a204552433131353552656365697665722072656a656374656044820152676420746f6b656e7360c01b60648201526084016103a2565b600054610100900460ff16611c885760405162461bcd60e51b815260206004820152602b60248201527f496e697469616c697a61626c653a20636f6e7472616374206973206e6f74206960448201526a6e697469616c697a696e6760a81b60648201526084016103a2565b610e6481611f15565b600054610100900460ff16611cfc5760405162461bcd60e51b815260206004820152602b60248201527f496e697469616c697a61626c653a20636f6e7472616374206973206e6f74206960448201526a6e697469616c697a696e6760a81b60648201526084016103a2565b6107b933611423565b600054610100900460ff16611d705760405162461bcd60e51b815260206004820152602b60248201527f496e697469616c697a61626c653a20636f6e7472616374206973206e6f74206960448201526a6e697469616c697a696e6760a81b60648201526084016103a2565b60c9805460ff19169055565b60c95460ff166107b95760405162461bcd60e51b815260206004820152601460248201527f5061757361626c653a206e6f742070617573656400000000000000000000000060448201526064016103a2565b60408051600180825281830190925260609160009190602080830190803683370190505090508281600081518110611e0857611e0861274d565b602090810291909101015292915050565b6001600160a01b0384163b156113c15760405163f23a6e6160e01b81526001600160a01b0385169063f23a6e6190611e5d9089908990889088908890600401612981565b6020604051808303816000875af1925050508015611e98575060408051601f3d908101601f19168201909252611e95918101906128be565b60015b611ea457611b026128db565b6001600160e01b0319811663f23a6e6160e01b1461186c5760405162461bcd60e51b815260206004820152602860248201527f455243313135353a204552433131353552656365697665722072656a656374656044820152676420746f6b656e7360c01b60648201526084016103a2565b80516109f89060999060208401905b828054611f3090612623565b90600052602060002090601f016020900481019282611f525760008555611f98565b82601f10611f6b57805160ff1916838001178555611f98565b82800160010185558215611f98579182015b82811115611f98578251825591602001919060010190611f7d565b50611fa4929150611fa8565b5090565b5b80821115611fa45760008155600101611fa9565b6001600160a01b0381168114610e6457600080fd5b60008060408385031215611fe557600080fd5b8235611ff081611fbd565b946020939093013593505050565b6001600160e01b031981168114610e6457600080fd5b60006020828403121561202657600080fd5b813561203181611ffe565b9392505050565b60006020828403121561204a57600080fd5b5035919050565b60005b8381101561206c578181015183820152602001612054565b838111156105c15750506000910152565b60008151808452612095816020860160208601612051565b601f01601f19169290920160200192915050565b602081526000612031602083018461207d565b634e487b7160e01b600052604160045260246000fd5b601f8201601f1916810167ffffffffffffffff811182821017156120f8576120f86120bc565b6040525050565b600067ffffffffffffffff821115612119576121196120bc565b5060051b60200190565b600082601f83011261213457600080fd5b81356020612141826120ff565b60405161214e82826120d2565b83815260059390931b850182019282810191508684111561216e57600080fd5b8286015b848110156121895780358352918301918301612172565b509695505050505050565b600067ffffffffffffffff8311156121ae576121ae6120bc565b6040516121c5601f8501601f1916602001826120d2565b8091508381528484840111156121da57600080fd5b83836020830137600060208583010152509392505050565b600082601f83011261220357600080fd5b61203183833560208501612194565b6000806000806080858703121561222857600080fd5b843561223381611fbd565b9350602085013567ffffffffffffffff8082111561225057600080fd5b61225c88838901612123565b9450604087013591508082111561227257600080fd5b61227e88838901612123565b9350606087013591508082111561229457600080fd5b506122a1878288016121f2565b91505092959194509250565b600080600080600060a086880312156122c557600080fd5b85356122d081611fbd565b945060208601356122e081611fbd565b9350604086013567ffffffffffffffff808211156122fd57600080fd5b61230989838a01612123565b9450606088013591508082111561231f57600080fd5b61232b89838a01612123565b9350608088013591508082111561234157600080fd5b5061234e888289016121f2565b9150509295509295909350565b6000806040838503121561236e57600080fd5b823567ffffffffffffffff8082111561238657600080fd5b818501915085601f83011261239a57600080fd5b813560206123a7826120ff565b6040516123b482826120d2565b83815260059390931b85018201928281019150898411156123d457600080fd5b948201945b838610156123fb5785356123ec81611fbd565b825294820194908201906123d9565b9650508601359250508082111561241157600080fd5b5061241e85828601612123565b9150509250929050565b600081518084526020808501945080840160005b838110156124585781518752958201959082019060010161243c565b509495945050505050565b6020815260006120316020830184612428565b6000806040838503121561248957600080fd5b823567ffffffffffffffff8111156124a057600080fd5b8301601f810185136124b157600080fd5b6124c085823560208401612194565b92505060208301356124d181611fbd565b809150509250929050565b6000602082840312156124ee57600080fd5b813561203181611fbd565b8015158114610e6457600080fd5b6000806040838503121561251a57600080fd5b823561252581611fbd565b915060208301356124d1816124f9565b6000806000806080858703121561254b57600080fd5b84359350602085013561255d81611fbd565b925060408501359150606085013567ffffffffffffffff81111561258057600080fd5b6122a1878288016121f2565b6000806040838503121561259f57600080fd5b82356125aa81611fbd565b915060208301356124d181611fbd565b600080600080600060a086880312156125d257600080fd5b85356125dd81611fbd565b945060208601356125ed81611fbd565b93506040860135925060608601359150608086013567ffffffffffffffff81111561261757600080fd5b61234e888289016121f2565b600181811c9082168061263757607f821691505b6020821081141561265857634e487b7160e01b600052602260045260246000fd5b50919050565b60008151612670818560208601612051565b9290920192915050565b600080845481600182811c91508083168061269657607f831692505b60208084108214156126b657634e487b7160e01b86526022600452602486fd5b8180156126ca57600181146126db57612708565b60ff19861689528489019650612708565b60008b81526020902060005b868110156127005781548b8201529085019083016126e7565b505084890196505b50505050505061274461271b828661265e565b7f2e6a736f6e000000000000000000000000000000000000000000000000000000815260050190565b95945050505050565b634e487b7160e01b600052603260045260246000fd5b634e487b7160e01b600052601160045260246000fd5b600060001982141561278d5761278d612763565b5060010190565b6000602082840312156127a657600080fd5b815161203181611fbd565b6000602082840312156127c357600080fd5b8151612031816124f9565b600082198211156127e1576127e1612763565b500190565b634e487b7160e01b600052601260045260246000fd5b60008261280b5761280b6127e6565b500490565b60008282101561282257612822612763565b500390565b600082612836576128366127e6565b500690565b60408152600061284e6040830185612428565b82810360208401526127448185612428565b60006001600160a01b03808816835280871660208401525060a0604083015261288c60a0830186612428565b828103606084015261289e8186612428565b905082810360808401526128b2818561207d565b98975050505050505050565b6000602082840312156128d057600080fd5b815161203181611ffe565b600060033d11156128f45760046000803e5060005160e01c5b90565b600060443d10156129055790565b6040516003193d81016004833e81513d67ffffffffffffffff816024840111818411171561293557505050505090565b828501915081518181111561294d5750505050505090565b843d87010160208285010111156129675750505050505090565b612976602082860101876120d2565b509095945050505050565b60006001600160a01b03808816835280871660208401525084604083015283606083015260a060808301526129b960a083018461207d565b97965050505050505056fea2646970667358221220fd86c30999f69f498783f67b0cef68b1cd2b5140c1f960e943c6082b47ad6c5864736f6c634300080c0033",
  "linkReferences": {},
  "deployedLinkReferences": {}
}