{
  "_format": "hh-sol-artifact-1",
  "contractName": "Artifacts",
  "sourceName": "contracts/Artifacts.sol",
  "abi": [
    {
      "anonymous": false,
      "inputs": [
        {
          "indexed": false,
          "internalType": "uint256",
          "name": "",
          "type": "uint256"
        }
      ],
      "name": "AddNewArtifact",
      "type": "event"
    },
    {
      "anonymous": false,
      "inputs": [
        {
          "indexed": true,
          "internalType": "address",
          "name": "account",
          "type": "address"
        },
        {
          "indexed": true,
          "internalType": "address",
          "name": "operator",
          "type": "address"
        },
        {
          "indexed": false,
          "internalType": "bool",
          "name": "approved",
          "type": "bool"
        }
      ],
      "name": "ApprovalForAll",
      "type": "event"
    },
    {
      "anonymous": false,
      "inputs": [
        {
          "indexed": false,
          "internalType": "uint8",
          "name": "version",
          "type": "uint8"
        }
      ],
      "name": "Initialized",
      "type": "event"
    },
    {
      "anonymous": false,
      "inputs": [
        {
          "indexed": true,
          "internalType": "address",
          "name": "previousOwner",
          "type": "address"
        },
        {
          "indexed": true,
          "internalType": "address",
          "name": "newOwner",
          "type": "address"
        }
      ],
      "name": "OwnershipTransferred",
      "type": "event"
    },
    {
      "anonymous": false,
      "inputs": [
        {
          "indexed": false,
          "internalType": "address",
          "name": "account",
          "type": "address"
        }
      ],
      "name": "Paused",
      "type": "event"
    },
    {
      "anonymous": false,
      "inputs": [
        {
          "indexed": true,
          "internalType": "address",
          "name": "operator",
          "type": "address"
        },
        {
          "indexed": true,
          "internalType": "address",
          "name": "from",
          "type": "address"
        },
        {
          "indexed": true,
          "internalType": "address",
          "name": "to",
          "type": "address"
        },
        {
          "indexed": false,
          "internalType": "uint256[]",
          "name": "ids",
          "type": "uint256[]"
        },
        {
          "indexed": false,
          "internalType": "uint256[]",
          "name": "values",
          "type": "uint256[]"
        }
      ],
      "name": "TransferBatch",
      "type": "event"
    },
    {
      "anonymous": false,
      "inputs": [
        {
          "indexed": true,
          "internalType": "address",
          "name": "operator",
          "type": "address"
        },
        {
          "indexed": true,
          "internalType": "address",
          "name": "from",
          "type": "address"
        },
        {
          "indexed": true,
          "internalType": "address",
          "name": "to",
          "type": "address"
        },
        {
          "indexed": false,
          "internalType": "uint256",
          "name": "id",
          "type": "uint256"
        },
        {
          "indexed": false,
          "internalType": "uint256",
          "name": "value",
          "type": "uint256"
        }
      ],
      "name": "TransferSingle",
      "type": "event"
    },
    {
      "anonymous": false,
      "inputs": [
        {
          "indexed": false,
          "internalType": "string",
          "name": "value",
          "type": "string"
        },
        {
          "indexed": true,
          "internalType": "uint256",
          "name": "id",
          "type": "uint256"
        }
      ],
      "name": "URI",
      "type": "event"
    },
    {
      "anonymous": false,
      "inputs": [
        {
          "indexed": false,
          "internalType": "address",
          "name": "account",
          "type": "address"
        }
      ],
      "name": "Unpaused",
      "type": "event"
    },
    {
      "inputs": [],
      "name": "addNewArtifact",
      "outputs": [],
      "stateMutability": "nonpayable",
      "type": "function"
    },
    {
      "inputs": [
        {
          "internalType": "address",
          "name": "account",
          "type": "address"
        },
        {
          "internalType": "uint256",
          "name": "id",
          "type": "uint256"
        }
      ],
      "name": "balanceOf",
      "outputs": [
        {
          "internalType": "uint256",
          "name": "",
          "type": "uint256"
        }
      ],
      "stateMutability": "view",
      "type": "function"
    },
    {
      "inputs": [
        {
          "internalType": "address[]",
          "name": "accounts",
          "type": "address[]"
        },
        {
          "internalType": "uint256[]",
          "name": "ids",
          "type": "uint256[]"
        }
      ],
      "name": "balanceOfBatch",
      "outputs": [
        {
          "internalType": "uint256[]",
          "name": "",
          "type": "uint256[]"
        }
      ],
      "stateMutability": "view",
      "type": "function"
    },
    {
      "inputs": [],
      "name": "getArtifactsTypesAmount",
      "outputs": [
        {
          "internalType": "uint256",
          "name": "",
          "type": "uint256"
        }
      ],
      "stateMutability": "view",
      "type": "function"
    },
    {
      "inputs": [
        {
          "internalType": "string",
          "name": "_baseUrl",
          "type": "string"
        },
        {
          "internalType": "address",
          "name": "_blackListContractAddress",
          "type": "address"
        }
      ],
      "name": "initialize",
      "outputs": [],
      "stateMutability": "nonpayable",
      "type": "function"
    },
    {
      "inputs": [
        {
          "internalType": "address",
          "name": "account",
          "type": "address"
        },
        {
          "internalType": "address",
          "name": "operator",
          "type": "address"
        }
      ],
      "name": "isApprovedForAll",
      "outputs": [
        {
          "internalType": "bool",
          "name": "",
          "type": "bool"
        }
      ],
      "stateMutability": "view",
      "type": "function"
    },
    {
      "inputs": [
        {
          "internalType": "address",
          "name": "user",
          "type": "address"
        },
        {
          "internalType": "uint256",
          "name": "artifactType",
          "type": "uint256"
        }
      ],
      "name": "lootArtifact",
      "outputs": [],
      "stateMutability": "nonpayable",
      "type": "function"
    },
    {
      "inputs": [
        {
          "internalType": "uint256",
          "name": "artifactType",
          "type": "uint256"
        },
        {
          "internalType": "address",
          "name": "to",
          "type": "address"
        },
        {
          "internalType": "uint256",
          "name": "amount",
          "type": "uint256"
        },
        {
          "internalType": "bytes",
          "name": "data",
          "type": "bytes"
        }
      ],
      "name": "mint",
      "outputs": [],
      "stateMutability": "nonpayable",
      "type": "function"
    },
    {
      "inputs": [
        {
          "internalType": "address",
          "name": "to",
          "type": "address"
        },
        {
          "internalType": "uint256[]",
          "name": "ids",
          "type": "uint256[]"
        },
        {
          "internalType": "uint256[]",
          "name": "amounts",
          "type": "uint256[]"
        },
        {
          "internalType": "bytes",
          "name": "data",
          "type": "bytes"
        }
      ],
      "name": "mintBatch",
      "outputs": [],
      "stateMutability": "nonpayable",
      "type": "function"
    },
    {
      "inputs": [],
      "name": "owner",
      "outputs": [
        {
          "internalType": "address",
          "name": "",
          "type": "address"
        }
      ],
      "stateMutability": "view",
      "type": "function"
    },
    {
      "inputs": [],
      "name": "pause",
      "outputs": [],
      "stateMutability": "nonpayable",
      "type": "function"
    },
    {
      "inputs": [],
      "name": "paused",
      "outputs": [
        {
          "internalType": "bool",
          "name": "",
          "type": "bool"
        }
      ],
      "stateMutability": "view",
      "type": "function"
    },
    {
      "inputs": [],
      "name": "renounceOwnership",
      "outputs": [],
      "stateMutability": "nonpayable",
      "type": "function"
    },
    {
      "inputs": [
        {
          "internalType": "address",
          "name": "from",
          "type": "address"
        },
        {
          "internalType": "address",
          "name": "to",
          "type": "address"
        },
        {
          "internalType": "uint256[]",
          "name": "ids",
          "type": "uint256[]"
        },
        {
          "internalType": "uint256[]",
          "name": "amounts",
          "type": "uint256[]"
        },
        {
          "internalType": "bytes",
          "name": "data",
          "type": "bytes"
        }
      ],
      "name": "safeBatchTransferFrom",
      "outputs": [],
      "stateMutability": "nonpayable",
      "type": "function"
    },
    {
      "inputs": [
        {
          "internalType": "address",
          "name": "from",
          "type": "address"
        },
        {
          "internalType": "address",
          "name": "to",
          "type": "address"
        },
        {
          "internalType": "uint256",
          "name": "id",
          "type": "uint256"
        },
        {
          "internalType": "uint256",
          "name": "amount",
          "type": "uint256"
        },
        {
          "internalType": "bytes",
          "name": "data",
          "type": "bytes"
        }
      ],
      "name": "safeTransferFrom",
      "outputs": [],
      "stateMutability": "nonpayable",
      "type": "function"
    },
    {
      "inputs": [
        {
          "internalType": "address",
          "name": "operator",
          "type": "address"
        },
        {
          "internalType": "bool",
          "name": "approved",
          "type": "bool"
        }
      ],
      "name": "setApprovalForAll",
      "outputs": [],
      "stateMutability": "nonpayable",
      "type": "function"
    },
    {
      "inputs": [
        {
          "internalType": "address",
          "name": "toolsAddress",
          "type": "address"
        }
      ],
      "name": "setToolsAddress",
      "outputs": [],
      "stateMutability": "nonpayable",
      "type": "function"
    },
    {
      "inputs": [
        {
          "internalType": "bytes4",
          "name": "interfaceId",
          "type": "bytes4"
        }
      ],
      "name": "supportsInterface",
      "outputs": [
        {
          "internalType": "bool",
          "name": "",
          "type": "bool"
        }
      ],
      "stateMutability": "view",
      "type": "function"
    },
    {
      "inputs": [
        {
          "internalType": "address",
          "name": "newOwner",
          "type": "address"
        }
      ],
      "name": "transferOwnership",
      "outputs": [],
      "stateMutability": "nonpayable",
      "type": "function"
    },
    {
      "inputs": [
        {
          "internalType": "uint256",
          "name": "artifactType",
          "type": "uint256"
        }
      ],
      "name": "uri",
      "outputs": [
        {
          "internalType": "string",
          "name": "",
          "type": "string"
        }
      ],
      "stateMutability": "view",
      "type": "function"
    }
  ],
  "bytecode": "0x608060405234801561001057600080fd5b5061519c806100206000396000f3fe608060405234801561001057600080fd5b506004361061012b5760003560e01c80638da5cb5b116100ad578063daa6c75511610071578063daa6c75514610304578063e985e9c514610322578063ed9e845214610352578063f242432a1461035c578063f2fde38b146103785761012b565b80638da5cb5b1461027657806394cf7cd014610294578063a22cb465146102b0578063ac2a3010146102cc578063c77b66c2146102e85761012b565b80634e1273f4116100f45780634e1273f4146101f85780635c975abb14610228578063715018a6146102465780637ab4339d146102505780638456cb591461026c5761012b565b8062fdd58e1461013057806301ffc9a7146101605780630e89341c146101905780631f7fdffa146101c05780632eb2c2d6146101dc575b600080fd5b61014a60048036038101906101459190613484565b610394565b60405161015791906134d3565b60405180910390f35b61017a60048036038101906101759190613546565b61045e565b604051610187919061358e565b60405180910390f35b6101aa60048036038101906101a591906135a9565b610540565b6040516101b7919061366f565b60405180910390f35b6101da60048036038101906101d5919061388e565b6106ed565b005b6101f660048036038101906101f19190613949565b61090a565b005b610212600480360381019061020d9190613adb565b6109ab565b60405161021f9190613c11565b60405180910390f35b610230610ac4565b60405161023d919061358e565b60405180910390f35b61024e610adb565b005b61026a60048036038101906102659190613cd4565b610aef565b005b610274610eeb565b005b61027e6110a3565b60405161028b9190613d3f565b60405180910390f35b6102ae60048036038101906102a99190613d5a565b6110cd565b005b6102ca60048036038101906102c59190613db3565b6112bd565b005b6102e660048036038101906102e19190613484565b6112d3565b005b61030260048036038101906102fd9190613df3565b61152c565b005b61030c6118af565b60405161031991906134d3565b60405180910390f35b61033c60048036038101906103379190613e76565b61193d565b604051610349919061358e565b60405180910390f35b61035a6119d1565b005b61037660048036038101906103719190613eb6565b611be4565b005b610392600480360381019061038d9190613d5a565b611c85565b005b60008073ffffffffffffffffffffffffffffffffffffffff168373ffffffffffffffffffffffffffffffffffffffff161415610405576040517f08c379a00000000000000000000000000000000000000000000000000000000081526004016103fc90613fbf565b60405180910390fd5b6097600083815260200190815260200160002060008473ffffffffffffffffffffffffffffffffffffffff1673ffffffffffffffffffffffffffffffffffffffff16815260200190815260200160002054905092915050565b60007fd9b67a26000000000000000000000000000000000000000000000000000000007bffffffffffffffffffffffffffffffffffffffffffffffffffffffff1916827bffffffffffffffffffffffffffffffffffffffffffffffffffffffff1916148061052957507f0e89341c000000000000000000000000000000000000000000000000000000007bffffffffffffffffffffffffffffffffffffffffffffffffffffffff1916827bffffffffffffffffffffffffffffffffffffffffffffffffffffffff1916145b80610539575061053882611d09565b5b9050919050565b606061056e7fc82702935016706fa91e517a9f95f4b1aebdf6060f5b0faec1518c1554287cfb60001b611d73565b61059a7fd9cb241190fa02d9081fd1e55105537c89ee25c76ebcd808ad9e21fcd39a4a0b60001b611d73565b6105c67f876049b8fc399d835b6d735838f7b51282015c598c62f283a0db10ee67c00f7960001b611d73565b6105f27fd0e9cba21ec9faf63f9be60860d778eb52de17c06adb56021d6ec49047d5c25660001b611d73565b60fe54821115610637576040517f08c379a000000000000000000000000000000000000000000000000000000000815260040161062e90614051565b60405180910390fd5b6106637fce381859186b7bbea8417e94179e678a8b89133644896e1c0319cae2a13774fc60001b611d73565b61068f7f8a2645b35eb1f5aa293eb5940f4ee89374c60b00fc7f598388cde8fb9b0d51ae60001b611d73565b6106bb7fd79601b59d52cd1409ccc5b38291d5670f3115e476e36c639a842ecc17e6977060001b611d73565b60fd6106c683611d76565b6040516020016106d79291906141ee565b6040516020818303038152906040529050919050565b6107197f34829809a5b6e045341da50ac1409d925ad55e7ea39afbceb765b716e24e244660001b611d73565b6107457ffbf842a260e33a9a1efa43868211cb80ca7764893a8ac408e6b6d6b086b9dfeb60001b611d73565b6107717fa2b25428f7bf54457f0f341fabc6b9ec0aa89a1c3edd17d0f87f6b09dde8f0e260001b611d73565b60005b835181101561089f576107a97f5253d58c9f475a68a4f6a21ee7ea2f1d3b3b18b1b6e617b2300b798b05a7183260001b611d73565b6107d57f74b0f17631c5bbbf2b010843e146fc6ade7296ff5819efbbe56f500c99e7608d60001b611d73565b6108017fa7e8f62e09261c4ed9534a224413d65c0a376b8f75f94be79513f9b016e9ceec60001b611d73565b60fe548482815181106108175761081661421d565b5b60200260200101511115610860576040517f08c379a0000000000000000000000000000000000000000000000000000000008152600401610857906142be565b60405180910390fd5b61088c7f47435453c0354add6238087acf7558e2a7ec296722837684e9bd9381c7c8b2ec60001b611d73565b80806108979061430d565b915050610774565b506108cc7f6f710c34571f59b93466569bc71b213170d409328ad13ea2b53ed24d65b401dd60001b611d73565b6108f87fe2317a900410483ea4b0d4720be64c93368530c8a912d0b62994d86f6afc39cc60001b611d73565b61090484848484611ed7565b50505050565b610912612105565b73ffffffffffffffffffffffffffffffffffffffff168573ffffffffffffffffffffffffffffffffffffffff161480610958575061095785610952612105565b61193d565b5b610997576040517f08c379a000000000000000000000000000000000000000000000000000000000815260040161098e906143c8565b60405180910390fd5b6109a4858585858561210d565b5050505050565b606081518351146109f1576040517f08c379a00000000000000000000000000000000000000000000000000000000081526004016109e89061445a565b60405180910390fd5b6000835167ffffffffffffffff811115610a0e57610a0d613696565b5b604051908082528060200260200182016040528015610a3c5781602001602082028036833780820191505090505b50905060005b8451811015610ab957610a89858281518110610a6157610a6061421d565b5b6020026020010151858381518110610a7c57610a7b61421d565b5b6020026020010151610394565b828281518110610a9c57610a9b61421d565b5b60200260200101818152505080610ab29061430d565b9050610a42565b508091505092915050565b600060c960009054906101000a900460ff16905090565b610ae3612432565b610aed60006124b0565b565b60008060019054906101000a900460ff16159050808015610b205750600160008054906101000a900460ff1660ff16105b80610b4d5750610b2f30612576565b158015610b4c5750600160008054906101000a900460ff1660ff16145b5b610b8c576040517f08c379a0000000000000000000000000000000000000000000000000000000008152600401610b83906144ec565b60405180910390fd5b60016000806101000a81548160ff021916908360ff1602179055508015610bc9576001600060016101000a81548160ff0219169083151502179055505b610bf57f530cf4d66a2f1409c7a4800da548143bb6557dd2fa65ec3d6dacd362fab3b44660001b611d73565b610c217f6f68f92d04e6540987ee2264fa3dc6bc172150d3d9251482730624c8de2b6bdd60001b611d73565b610c4d7fa1c923083b3a34448baa0faa30535268aab87e15cd7b9db5d7837e19c9b18dd560001b611d73565b8260fd9080519060200190610c63929190613339565b50610c907f63c50ad81dc7e7551a96496aa9a751b90d01bb25f0827c26d37c2d24f5c417e160001b611d73565b610cbc7f59eea757420c69bac7b0827f46581d42250ceb111f2bd575bf0271be572982c260001b611d73565b8160fb60006101000a81548173ffffffffffffffffffffffffffffffffffffffff021916908373ffffffffffffffffffffffffffffffffffffffff160217905550610d297f15689e89db42348a7aa68910cda0b9ae3fa663b76999ad36a8b35c6b22381f8f60001b611d73565b610d557fd12985d3aed7a6b10cfea02ab3b0338a3f51e9e700a6195f9cf2c4fd86c90d0160001b611d73565b600660fe81905550610d897f7acdb64c4081d8d845b2e4dde88f12f648338861655261714206ec90f6f0cb9260001b611d73565b610db57f116ef3d9c08ffb5235d28040e6bfefb879042ef94f22ba58257f61fca4a6e15e60001b611d73565b610dcd60405180602001604052806000815250612599565b610df97f7985010e9e087c2b96679313783a23b8a2f1052f052101d17fbd2eb56b7cb56160001b611d73565b610e257febac7b34ebbb52cc5f5197b9e5e72d4c2a3510f9a72b1259666ba2eb6aee189460001b611d73565b610e2d6125f4565b610e597f6f06aec0269ac738dd3e0ade1fe7764aad3deff541382f864c6ad3e12168d61f60001b611d73565b610e857fdf8553b5a71f707b927d8e77f0e0f9ffefc7fb3dad1ee0bf830db85436a9d18060001b611d73565b610e8d61264d565b8015610ee65760008060016101000a81548160ff0219169083151502179055507f7f26b83ff96e1f2b6a682f133852f6798a09c465da95921460cefb38474024986001604051610edd919061455e565b60405180910390a15b505050565b610ef3612432565b610f1f7f4021e6ac3291eb7227e9f8102410f40ed741b6959fa837f175ed904bdea2c2f460001b611d73565b610f4b7f23e893b2aa42887191c774f35a86bcb25287175fa2a25968c5b11bd747bbdc6560001b611d73565b610f777f4d0fd220700819fc37903064f1b732be1f8cacf7af41dc8d5185c5916d2daf4c60001b611d73565b610f7f610ac4565b61101457610faf7fa3416c6e00727e8563d2441b8618a3ee82b1615d12b39d4780c267e6ac88514d60001b611d73565b610fdb7fa498c7fec5e1212804eebd00d8cfa5e720859c75ee94e1aa05d75a585b9614cc60001b611d73565b6110077fdadfac367562bb3788616069f68735fa345c5fe3c58a099142c29b26e1db77dc60001b611d73565b61100f6126a6565b6110a1565b6110407f05c79f74c2b21effe8fb19fc229e8bfa8eb63e74de825c93ba1896db5f70b06660001b611d73565b61106c7f53dd0980e8dc47dd81b6e47952f460f7f2c5327fa33a628de8dc22f28548429760001b611d73565b6110987fdc3194f793930da5ec29e432ebbed7a186707bd657cb68d0e94167904332bc6060001b611d73565b6110a0612709565b5b565b6000603360009054906101000a900473ffffffffffffffffffffffffffffffffffffffff16905090565b6110d5612432565b6111017f4cd71399df2f0d808d25b9fa1996b5666c3ea6d5f6b20f0daffaff836f53913560001b611d73565b61112d7f7149405b80bf9cede6beaaeb2ffc3b7d01f5ff6e065c38daf4950b32d296b5ae60001b611d73565b6111597fa1f284c81fe35b39e083f9c3b899d192ad9f2797e98c637f25b92ee9abba56e160001b611d73565b6111857f36af12bc0aa8226c2dd8cd9420ce5a550ab8317db7c6136bcbdafc023ac9be2f60001b611d73565b600073ffffffffffffffffffffffffffffffffffffffff168173ffffffffffffffffffffffffffffffffffffffff1614156111f5576040517f08c379a00000000000000000000000000000000000000000000000000000000081526004016111ec906145c5565b60405180910390fd5b6112217f87aefc2d4dff6fdf157c90c3b8d9dd5eb56c581293b1372df3dc6749daa13a7c60001b611d73565b61124d7fae24a8ef93c48d6a343c8606374d538abb2b1ea3723bad83d9e167d29936d54560001b611d73565b6112797fb9c96ba0b9d0471dd9d7b49dea1e5dd80b544e4c46d1aa8cea3a9c40c80785ac60001b611d73565b8060fc60006101000a81548173ffffffffffffffffffffffffffffffffffffffff021916908373ffffffffffffffffffffffffffffffffffffffff16021790555050565b6112cf6112c8612105565b838361276c565b5050565b6112ff7f0b09dc5e028a718105d89626ebf43eed9f2ed760e3059d8a8d1a80a24f1b26a060001b611d73565b61132b7f788df815a3de8cee83fb9f120b7508df99ef6d72701df967c6c6b5a95e5feeb260001b611d73565b6113577f7d4e035410dc90d862bdde5a86703611045e55664362335318422a78852511ea60001b611d73565b6113837f11294265d91f4bf62a2e9834b70315f069d2a41d363a9c37a7d91d50a44037c760001b611d73565b60fc60009054906101000a900473ffffffffffffffffffffffffffffffffffffffff1673ffffffffffffffffffffffffffffffffffffffff166343cac2b16040518163ffffffff1660e01b8152600401602060405180830381865afa1580156113f0573d6000803e3d6000fd5b505050506040513d601f19601f8201168201806040525081019061141491906145fa565b73ffffffffffffffffffffffffffffffffffffffff16611432612105565b73ffffffffffffffffffffffffffffffffffffffff1614611488576040517f08c379a000000000000000000000000000000000000000000000000000000000815260040161147f90614699565b60405180910390fd5b6114b47f4347a73c59162d89878726cd70595e42206c6f15632ae901bb2d9cf1f98b6d5660001b611d73565b6114e07f14fe1d0e49af592eb122423670b49db0bd651593e5d0f415b4b4135fe959a51860001b611d73565b61150c7f5d0f572741fb23d984fc6b8b3a7a49451e7fee335375537539c7f6b0a222f15160001b611d73565b61152882826001604051806020016040528060008152506128d9565b5050565b611534612432565b61153c612a8b565b826115697fb895dedf58e3db83098d4e93420aadf4a3a83c2cbce157e378905a3f35e5e39360001b611d73565b6115957ffc711a60114c568bb058a8f12361b5f7ea127000ed563898cf7ced1e585ace4960001b611d73565b6115c17f63f42e0b214621e051517660ed505fd3ee63371ebc4200ac169e71774baac36e60001b611d73565b6115ed7f27ebe566d66e179f341e861f3b1919673272f226f3e4663917043c113c96f8e660001b611d73565b60fb60009054906101000a900473ffffffffffffffffffffffffffffffffffffffff1673ffffffffffffffffffffffffffffffffffffffff1663c23697a8826040518263ffffffff1660e01b81526004016116489190613d3f565b6020604051808303816000875af1158015611667573d6000803e3d6000fd5b505050506040513d601f19601f8201168201806040525081019061168b91906146ce565b156116cb576040517f08c379a00000000000000000000000000000000000000000000000000000000081526004016116c290614747565b60405180910390fd5b6116f77f5814bba0a3f3075d2d614968397c5d2c46b84f66f7cce61eb2caf1815d602f3560001b611d73565b6117237fa2e4e535b3c6f341a10f8de9ea01366acfd17bdba1cc6c9f795328e974a7799860001b611d73565b61174f7f342aa5e96c3f2f48188aee1e1b78b0f1257a25e150fc45e6a189bad8bbcaedab60001b611d73565b61177b7fc2e597c88c05fa5310d2c390e65d11afb4225447f3e76a1b9cfb3f79017a0e8560001b611d73565b6117a77fcfa0f2ab7b1425dfca010605e38c61dbf25286c52a7b149e52250d44526fa84d60001b611d73565b6117d37f0826e1bb81ee156e0fd7169c8acaa7f807a3505e3f93cb4dd6e21d857e45e08360001b611d73565b60fe54851115611818576040517f08c379a000000000000000000000000000000000000000000000000000000000815260040161180f90614051565b60405180910390fd5b6118447f58ac329814386f08937ff239ea485ffbdb451dbaefe3de7b6d03d39bd4d753db60001b611d73565b6118707fa4a2cec3286640cfb97ce3dae7c784d99abd35c8973fb68ff6e0bec77367cd9c60001b611d73565b61189c7f8140bc5d6677dd84d0c4808ec344105dd721bfde27893b8bc52cd00fd01e691d60001b611d73565b6118a8848685856128d9565b5050505050565b60006118dd7ff1697237d1eb7730a9d743344141271b316d57551211b14d3363d830f975905260001b611d73565b6119097fa2979e9fff481a07811af70a6abdc8608ad5fad88c7d04878ad4dccb20afb07f60001b611d73565b6119357f44d07a1c1fd8bae01fe3400298ad1bcb3a130c6fa30c49006a4963b4a7b4f52260001b611d73565b60fe54905090565b6000609860008473ffffffffffffffffffffffffffffffffffffffff1673ffffffffffffffffffffffffffffffffffffffff16815260200190815260200160002060008373ffffffffffffffffffffffffffffffffffffffff1673ffffffffffffffffffffffffffffffffffffffff16815260200190815260200160002060009054906101000a900460ff16905092915050565b6119d9612432565b611a057fc0e6625fba939d07466667397727da066c3206dea637716636337b1b31d6f45960001b611d73565b611a317fee6ef8d0137b61fa44186b94f166845d5ec138eaf3737739158fd73ebaf5357060001b611d73565b611a5d7fec0ccb71734436a7efbdfe3df31a67d6f5736d8793afbe2f9defc0f5b8c917e360001b611d73565b600160fe6000828254611a709190614767565b92505081905550611aa37f5dd68099bc052d5537426a73b81edcbfa4f8c561f60375c1dc511673aed89f4860001b611d73565b611acf7fee37eb1e2dca1f2b20c8adc7b26c5494bcd16f85045c4570bbf904c0d0ee9ded60001b611d73565b60fc60009054906101000a900473ffffffffffffffffffffffffffffffffffffffff1673ffffffffffffffffffffffffffffffffffffffff16630ebb956d6040518163ffffffff1660e01b8152600401600060405180830381600087803b158015611b3957600080fd5b505af1158015611b4d573d6000803e3d6000fd5b50505050611b7d7ffb48876dfcc65a7dcf6f0b36bab82446f73c848e92ac241f51560b6b3bfe60fc60001b611d73565b611ba97f4edfd1bfdc9af802ff974c89b5fe5ea3864abc0c60a748bf89d14e49fd16cc9e60001b611d73565b7f1b62dd3d3d4d94e83dc4eb3f8fe1fd04165796d790d0807467a1f58a7dd8a74a60fe54604051611bda91906134d3565b60405180910390a1565b611bec612105565b73ffffffffffffffffffffffffffffffffffffffff168573ffffffffffffffffffffffffffffffffffffffff161480611c325750611c3185611c2c612105565b61193d565b5b611c71576040517f08c379a0000000000000000000000000000000000000000000000000000000008152600401611c68906143c8565b60405180910390fd5b611c7e8585858585612ad5565b5050505050565b611c8d612432565b600073ffffffffffffffffffffffffffffffffffffffff168173ffffffffffffffffffffffffffffffffffffffff161415611cfd576040517f08c379a0000000000000000000000000000000000000000000000000000000008152600401611cf49061482f565b60405180910390fd5b611d06816124b0565b50565b60007f01ffc9a7000000000000000000000000000000000000000000000000000000007bffffffffffffffffffffffffffffffffffffffffffffffffffffffff1916827bffffffffffffffffffffffffffffffffffffffffffffffffffffffff1916149050919050565b50565b60606000821415611dbe576040518060400160405280600181526020017f30000000000000000000000000000000000000000000000000000000000000008152509050611ed2565b600082905060005b60008214611df0578080611dd99061430d565b915050600a82611de9919061487e565b9150611dc6565b60008167ffffffffffffffff811115611e0c57611e0b613696565b5b6040519080825280601f01601f191660200182016040528015611e3e5781602001600182028036833780820191505090505b5090505b60008514611ecb57600182611e5791906148af565b9150600a85611e6691906148e3565b6030611e729190614767565b60f81b818381518110611e8857611e8761421d565b5b60200101907effffffffffffffffffffffffffffffffffffffffffffffffffffffffffffff1916908160001a905350600a85611ec4919061487e565b9450611e42565b8093505050505b919050565b600073ffffffffffffffffffffffffffffffffffffffff168473ffffffffffffffffffffffffffffffffffffffff161415611f47576040517f08c379a0000000000000000000000000000000000000000000000000000000008152600401611f3e90614986565b60405180910390fd5b8151835114611f8b576040517f08c379a0000000000000000000000000000000000000000000000000000000008152600401611f8290614a18565b60405180910390fd5b6000611f95612105565b9050611fa681600087878787612d74565b60005b845181101561206057838181518110611fc557611fc461421d565b5b602002602001015160976000878481518110611fe457611fe361421d565b5b6020026020010151815260200190815260200160002060008873ffffffffffffffffffffffffffffffffffffffff1673ffffffffffffffffffffffffffffffffffffffff16815260200190815260200160002060008282546120469190614767565b9250508190555080806120589061430d565b915050611fa9565b508473ffffffffffffffffffffffffffffffffffffffff16600073ffffffffffffffffffffffffffffffffffffffff168273ffffffffffffffffffffffffffffffffffffffff167f4a39dc06d4c0dbc64b70af90fd698a233a518aa5d07e595d983b8c0526c8f7fb87876040516120d8929190614a38565b60405180910390a46120ef81600087878787612d7c565b6120fe81600087878787612d84565b5050505050565b600033905090565b8151835114612151576040517f08c379a000000000000000000000000000000000000000000000000000000000815260040161214890614a18565b60405180910390fd5b600073ffffffffffffffffffffffffffffffffffffffff168473ffffffffffffffffffffffffffffffffffffffff1614156121c1576040517f08c379a00000000000000000000000000000000000000000000000000000000081526004016121b890614ae1565b60405180910390fd5b60006121cb612105565b90506121db818787878787612d74565b60005b845181101561238f5760008582815181106121fc576121fb61421d565b5b60200260200101519050600085838151811061221b5761221a61421d565b5b6020026020010151905060006097600084815260200190815260200160002060008b73ffffffffffffffffffffffffffffffffffffffff1673ffffffffffffffffffffffffffffffffffffffff168152602001908152602001600020549050818110156122bd576040517f08c379a00000000000000000000000000000000000000000000000000000000081526004016122b490614b73565b60405180910390fd5b8181036097600085815260200190815260200160002060008c73ffffffffffffffffffffffffffffffffffffffff1673ffffffffffffffffffffffffffffffffffffffff16815260200190815260200160002081905550816097600085815260200190815260200160002060008b73ffffffffffffffffffffffffffffffffffffffff1673ffffffffffffffffffffffffffffffffffffffff16815260200190815260200160002060008282546123749190614767565b92505081905550505050806123889061430d565b90506121de565b508473ffffffffffffffffffffffffffffffffffffffff168673ffffffffffffffffffffffffffffffffffffffff168273ffffffffffffffffffffffffffffffffffffffff167f4a39dc06d4c0dbc64b70af90fd698a233a518aa5d07e595d983b8c0526c8f7fb8787604051612406929190614a38565b60405180910390a461241c818787878787612d7c565b61242a818787878787612d84565b505050505050565b61243a612105565b73ffffffffffffffffffffffffffffffffffffffff166124586110a3565b73ffffffffffffffffffffffffffffffffffffffff16146124ae576040517f08c379a00000000000000000000000000000000000000000000000000000000081526004016124a590614bdf565b60405180910390fd5b565b6000603360009054906101000a900473ffffffffffffffffffffffffffffffffffffffff16905081603360006101000a81548173ffffffffffffffffffffffffffffffffffffffff021916908373ffffffffffffffffffffffffffffffffffffffff1602179055508173ffffffffffffffffffffffffffffffffffffffff168173ffffffffffffffffffffffffffffffffffffffff167f8be0079c531659141344cd1fd0a4f28419497f9722a3daafe3b4186f6b6457e060405160405180910390a35050565b6000808273ffffffffffffffffffffffffffffffffffffffff163b119050919050565b600060019054906101000a900460ff166125e8576040517f08c379a00000000000000000000000000000000000000000000000000000000081526004016125df90614c71565b60405180910390fd5b6125f181612f5c565b50565b600060019054906101000a900460ff16612643576040517f08c379a000000000000000000000000000000000000000000000000000000000815260040161263a90614c71565b60405180910390fd5b61264b612fb7565b565b600060019054906101000a900460ff1661269c576040517f08c379a000000000000000000000000000000000000000000000000000000000815260040161269390614c71565b60405180910390fd5b6126a4613018565b565b6126ae612a8b565b600160c960006101000a81548160ff0219169083151502179055507f62e78cea01bee320cd4e420270b5ea74000d11b0c9f74754ebdbfc544b05a2586126f2612105565b6040516126ff9190613d3f565b60405180910390a1565b612711613084565b600060c960006101000a81548160ff0219169083151502179055507f5db9ee0a495bf2e6ff9c91a7834c1ba4fdd244a5e8aa4e537bd38aeae4b073aa612755612105565b6040516127629190613d3f565b60405180910390a1565b8173ffffffffffffffffffffffffffffffffffffffff168373ffffffffffffffffffffffffffffffffffffffff1614156127db576040517f08c379a00000000000000000000000000000000000000000000000000000000081526004016127d290614d03565b60405180910390fd5b80609860008573ffffffffffffffffffffffffffffffffffffffff1673ffffffffffffffffffffffffffffffffffffffff16815260200190815260200160002060008473ffffffffffffffffffffffffffffffffffffffff1673ffffffffffffffffffffffffffffffffffffffff16815260200190815260200160002060006101000a81548160ff0219169083151502179055508173ffffffffffffffffffffffffffffffffffffffff168373ffffffffffffffffffffffffffffffffffffffff167f17307eab39ab6107e8899845ad3d59bd9653f200f220920489ca2b5937696c31836040516128cc919061358e565b60405180910390a3505050565b600073ffffffffffffffffffffffffffffffffffffffff168473ffffffffffffffffffffffffffffffffffffffff161415612949576040517f08c379a000000000000000000000000000000000000000000000000000000000815260040161294090614986565b60405180910390fd5b6000612953612105565b90506000612960856130cd565b9050600061296d856130cd565b905061297e83600089858589612d74565b846097600088815260200190815260200160002060008973ffffffffffffffffffffffffffffffffffffffff1673ffffffffffffffffffffffffffffffffffffffff16815260200190815260200160002060008282546129de9190614767565b925050819055508673ffffffffffffffffffffffffffffffffffffffff16600073ffffffffffffffffffffffffffffffffffffffff168473ffffffffffffffffffffffffffffffffffffffff167fc3d58168c5ae7397731d063d5bbf3d657854427343f4c083240f7aacaa2d0f628989604051612a5c929190614d23565b60405180910390a4612a7383600089858589612d7c565b612a8283600089898989613147565b50505050505050565b612a93610ac4565b15612ad3576040517f08c379a0000000000000000000000000000000000000000000000000000000008152600401612aca90614d98565b60405180910390fd5b565b600073ffffffffffffffffffffffffffffffffffffffff168473ffffffffffffffffffffffffffffffffffffffff161415612b45576040517f08c379a0000000000000000000000000000000000000000000000000000000008152600401612b3c90614ae1565b60405180910390fd5b6000612b4f612105565b90506000612b5c856130cd565b90506000612b69856130cd565b9050612b79838989858589612d74565b60006097600088815260200190815260200160002060008a73ffffffffffffffffffffffffffffffffffffffff1673ffffffffffffffffffffffffffffffffffffffff16815260200190815260200160002054905085811015612c11576040517f08c379a0000000000000000000000000000000000000000000000000000000008152600401612c0890614b73565b60405180910390fd5b8581036097600089815260200190815260200160002060008b73ffffffffffffffffffffffffffffffffffffffff1673ffffffffffffffffffffffffffffffffffffffff16815260200190815260200160002081905550856097600089815260200190815260200160002060008a73ffffffffffffffffffffffffffffffffffffffff1673ffffffffffffffffffffffffffffffffffffffff1681526020019081526020016000206000828254612cc89190614767565b925050819055508773ffffffffffffffffffffffffffffffffffffffff168973ffffffffffffffffffffffffffffffffffffffff168573ffffffffffffffffffffffffffffffffffffffff167fc3d58168c5ae7397731d063d5bbf3d657854427343f4c083240f7aacaa2d0f628a8a604051612d45929190614d23565b60405180910390a4612d5b848a8a86868a612d7c565b612d69848a8a8a8a8a613147565b505050505050505050565b505050505050565b505050505050565b612da38473ffffffffffffffffffffffffffffffffffffffff16612576565b15612f54578373ffffffffffffffffffffffffffffffffffffffff1663bc197c8187878686866040518663ffffffff1660e01b8152600401612de9959493929190614e0d565b6020604051808303816000875af1925050508015612e2557506040513d601f19601f82011682018060405250810190612e229190614e8a565b60015b612ecb57612e31614ec4565b806308c379a01415612e8e5750612e46614ee6565b80612e515750612e90565b806040517f08c379a0000000000000000000000000000000000000000000000000000000008152600401612e85919061366f565b60405180910390fd5b505b6040517f08c379a0000000000000000000000000000000000000000000000000000000008152600401612ec290614fee565b60405180910390fd5b63bc197c8160e01b7bffffffffffffffffffffffffffffffffffffffffffffffffffffffff1916817bffffffffffffffffffffffffffffffffffffffffffffffffffffffff191614612f52576040517f08c379a0000000000000000000000000000000000000000000000000000000008152600401612f4990615080565b60405180910390fd5b505b505050505050565b600060019054906101000a900460ff16612fab576040517f08c379a0000000000000000000000000000000000000000000000000000000008152600401612fa290614c71565b60405180910390fd5b612fb48161331f565b50565b600060019054906101000a900460ff16613006576040517f08c379a0000000000000000000000000000000000000000000000000000000008152600401612ffd90614c71565b60405180910390fd5b613016613011612105565b6124b0565b565b600060019054906101000a900460ff16613067576040517f08c379a000000000000000000000000000000000000000000000000000000000815260040161305e90614c71565b60405180910390fd5b600060c960006101000a81548160ff021916908315150217905550565b61308c610ac4565b6130cb576040517f08c379a00000000000000000000000000000000000000000000000000000000081526004016130c2906150ec565b60405180910390fd5b565b60606000600167ffffffffffffffff8111156130ec576130eb613696565b5b60405190808252806020026020018201604052801561311a5781602001602082028036833780820191505090505b50905082816000815181106131325761313161421d565b5b60200260200101818152505080915050919050565b6131668473ffffffffffffffffffffffffffffffffffffffff16612576565b15613317578373ffffffffffffffffffffffffffffffffffffffff1663f23a6e6187878686866040518663ffffffff1660e01b81526004016131ac95949392919061510c565b6020604051808303816000875af19250505080156131e857506040513d601f19601f820116820180604052508101906131e59190614e8a565b60015b61328e576131f4614ec4565b806308c379a014156132515750613209614ee6565b806132145750613253565b806040517f08c379a0000000000000000000000000000000000000000000000000000000008152600401613248919061366f565b60405180910390fd5b505b6040517f08c379a000000000000000000000000000000000000000000000000000000000815260040161328590614fee565b60405180910390fd5b63f23a6e6160e01b7bffffffffffffffffffffffffffffffffffffffffffffffffffffffff1916817bffffffffffffffffffffffffffffffffffffffffffffffffffffffff191614613315576040517f08c379a000000000000000000000000000000000000000000000000000000000815260040161330c90615080565b60405180910390fd5b505b505050505050565b8060999080519060200190613335929190613339565b5050565b828054613345906140a0565b90600052602060002090601f01602090048101928261336757600085556133ae565b82601f1061338057805160ff19168380011785556133ae565b828001600101855582156133ae579182015b828111156133ad578251825591602001919060010190613392565b5b5090506133bb91906133bf565b5090565b5b808211156133d85760008160009055506001016133c0565b5090565b6000604051905090565b600080fd5b600080fd5b600073ffffffffffffffffffffffffffffffffffffffff82169050919050565b600061341b826133f0565b9050919050565b61342b81613410565b811461343657600080fd5b50565b60008135905061344881613422565b92915050565b6000819050919050565b6134618161344e565b811461346c57600080fd5b50565b60008135905061347e81613458565b92915050565b6000806040838503121561349b5761349a6133e6565b5b60006134a985828601613439565b92505060206134ba8582860161346f565b9150509250929050565b6134cd8161344e565b82525050565b60006020820190506134e860008301846134c4565b92915050565b60007fffffffff0000000000000000000000000000000000000000000000000000000082169050919050565b613523816134ee565b811461352e57600080fd5b50565b6000813590506135408161351a565b92915050565b60006020828403121561355c5761355b6133e6565b5b600061356a84828501613531565b91505092915050565b60008115159050919050565b61358881613573565b82525050565b60006020820190506135a3600083018461357f565b92915050565b6000602082840312156135bf576135be6133e6565b5b60006135cd8482850161346f565b91505092915050565b600081519050919050565b600082825260208201905092915050565b60005b838110156136105780820151818401526020810190506135f5565b8381111561361f576000848401525b50505050565b6000601f19601f8301169050919050565b6000613641826135d6565b61364b81856135e1565b935061365b8185602086016135f2565b61366481613625565b840191505092915050565b600060208201905081810360008301526136898184613636565b905092915050565b600080fd5b7f4e487b7100000000000000000000000000000000000000000000000000000000600052604160045260246000fd5b6136ce82613625565b810181811067ffffffffffffffff821117156136ed576136ec613696565b5b80604052505050565b60006137006133dc565b905061370c82826136c5565b919050565b600067ffffffffffffffff82111561372c5761372b613696565b5b602082029050602081019050919050565b600080fd5b600061375561375084613711565b6136f6565b905080838252602082019050602084028301858111156137785761377761373d565b5b835b818110156137a1578061378d888261346f565b84526020840193505060208101905061377a565b5050509392505050565b600082601f8301126137c0576137bf613691565b5b81356137d0848260208601613742565b91505092915050565b600080fd5b600067ffffffffffffffff8211156137f9576137f8613696565b5b61380282613625565b9050602081019050919050565b82818337600083830152505050565b600061383161382c846137de565b6136f6565b90508281526020810184848401111561384d5761384c6137d9565b5b61385884828561380f565b509392505050565b600082601f83011261387557613874613691565b5b813561388584826020860161381e565b91505092915050565b600080600080608085870312156138a8576138a76133e6565b5b60006138b687828801613439565b945050602085013567ffffffffffffffff8111156138d7576138d66133eb565b5b6138e3878288016137ab565b935050604085013567ffffffffffffffff811115613904576139036133eb565b5b613910878288016137ab565b925050606085013567ffffffffffffffff811115613931576139306133eb565b5b61393d87828801613860565b91505092959194509250565b600080600080600060a08688031215613965576139646133e6565b5b600061397388828901613439565b955050602061398488828901613439565b945050604086013567ffffffffffffffff8111156139a5576139a46133eb565b5b6139b1888289016137ab565b935050606086013567ffffffffffffffff8111156139d2576139d16133eb565b5b6139de888289016137ab565b925050608086013567ffffffffffffffff8111156139ff576139fe6133eb565b5b613a0b88828901613860565b9150509295509295909350565b600067ffffffffffffffff821115613a3357613a32613696565b5b602082029050602081019050919050565b6000613a57613a5284613a18565b6136f6565b90508083825260208201905060208402830185811115613a7a57613a7961373d565b5b835b81811015613aa35780613a8f8882613439565b845260208401935050602081019050613a7c565b5050509392505050565b600082601f830112613ac257613ac1613691565b5b8135613ad2848260208601613a44565b91505092915050565b60008060408385031215613af257613af16133e6565b5b600083013567ffffffffffffffff811115613b1057613b0f6133eb565b5b613b1c85828601613aad565b925050602083013567ffffffffffffffff811115613b3d57613b3c6133eb565b5b613b49858286016137ab565b9150509250929050565b600081519050919050565b600082825260208201905092915050565b6000819050602082019050919050565b613b888161344e565b82525050565b6000613b9a8383613b7f565b60208301905092915050565b6000602082019050919050565b6000613bbe82613b53565b613bc88185613b5e565b9350613bd383613b6f565b8060005b83811015613c04578151613beb8882613b8e565b9750613bf683613ba6565b925050600181019050613bd7565b5085935050505092915050565b60006020820190508181036000830152613c2b8184613bb3565b905092915050565b600067ffffffffffffffff821115613c4e57613c4d613696565b5b613c5782613625565b9050602081019050919050565b6000613c77613c7284613c33565b6136f6565b905082815260208101848484011115613c9357613c926137d9565b5b613c9e84828561380f565b509392505050565b600082601f830112613cbb57613cba613691565b5b8135613ccb848260208601613c64565b91505092915050565b60008060408385031215613ceb57613cea6133e6565b5b600083013567ffffffffffffffff811115613d0957613d086133eb565b5b613d1585828601613ca6565b9250506020613d2685828601613439565b9150509250929050565b613d3981613410565b82525050565b6000602082019050613d546000830184613d30565b92915050565b600060208284031215613d7057613d6f6133e6565b5b6000613d7e84828501613439565b91505092915050565b613d9081613573565b8114613d9b57600080fd5b50565b600081359050613dad81613d87565b92915050565b60008060408385031215613dca57613dc96133e6565b5b6000613dd885828601613439565b9250506020613de985828601613d9e565b9150509250929050565b60008060008060808587031215613e0d57613e0c6133e6565b5b6000613e1b8782880161346f565b9450506020613e2c87828801613439565b9350506040613e3d8782880161346f565b925050606085013567ffffffffffffffff811115613e5e57613e5d6133eb565b5b613e6a87828801613860565b91505092959194509250565b60008060408385031215613e8d57613e8c6133e6565b5b6000613e9b85828601613439565b9250506020613eac85828601613439565b9150509250929050565b600080600080600060a08688031215613ed257613ed16133e6565b5b6000613ee088828901613439565b9550506020613ef188828901613439565b9450506040613f028882890161346f565b9350506060613f138882890161346f565b925050608086013567ffffffffffffffff811115613f3457613f336133eb565b5b613f4088828901613860565b9150509295509295909350565b7f455243313135353a2061646472657373207a65726f206973206e6f742061207660008201527f616c6964206f776e657200000000000000000000000000000000000000000000602082015250565b6000613fa9602a836135e1565b9150613fb482613f4d565b604082019050919050565b60006020820190508181036000830152613fd881613f9c565b9050919050565b7f4172746966616374733a205468697320617274696661637420646f65736e277460008201527f2065786973740000000000000000000000000000000000000000000000000000602082015250565b600061403b6026836135e1565b915061404682613fdf565b604082019050919050565b6000602082019050818103600083015261406a8161402e565b9050919050565b7f4e487b7100000000000000000000000000000000000000000000000000000000600052602260045260246000fd5b600060028204905060018216806140b857607f821691505b602082108114156140cc576140cb614071565b5b50919050565b600081905092915050565b60008190508160005260206000209050919050565b600081546140ff816140a0565b61410981866140d2565b94506001821660008114614124576001811461413557614168565b60ff19831686528186019350614168565b61413e856140dd565b60005b8381101561416057815481890152600182019150602081019050614141565b838801955050505b50505092915050565b600061417c826135d6565b61418681856140d2565b93506141968185602086016135f2565b80840191505092915050565b7f2e6a736f6e000000000000000000000000000000000000000000000000000000600082015250565b60006141d86005836140d2565b91506141e3826141a2565b600582019050919050565b60006141fa82856140f2565b91506142068284614171565b9150614211826141cb565b91508190509392505050565b7f4e487b7100000000000000000000000000000000000000000000000000000000600052603260045260246000fd5b7f4172746966616374733a2074686973206172746966616374207479706520646f60008201527f65736e2774206578697374730000000000000000000000000000000000000000602082015250565b60006142a8602c836135e1565b91506142b38261424c565b604082019050919050565b600060208201905081810360008301526142d78161429b565b9050919050565b7f4e487b7100000000000000000000000000000000000000000000000000000000600052601160045260246000fd5b60006143188261344e565b91507fffffffffffffffffffffffffffffffffffffffffffffffffffffffffffffffff82141561434b5761434a6142de565b5b600182019050919050565b7f455243313135353a2063616c6c6572206973206e6f7420746f6b656e206f776e60008201527f6572206e6f7220617070726f7665640000000000000000000000000000000000602082015250565b60006143b2602f836135e1565b91506143bd82614356565b604082019050919050565b600060208201905081810360008301526143e1816143a5565b9050919050565b7f455243313135353a206163636f756e747320616e6420696473206c656e67746860008201527f206d69736d617463680000000000000000000000000000000000000000000000602082015250565b60006144446029836135e1565b915061444f826143e8565b604082019050919050565b6000602082019050818103600083015261447381614437565b9050919050565b7f496e697469616c697a61626c653a20636f6e747261637420697320616c72656160008201527f647920696e697469616c697a6564000000000000000000000000000000000000602082015250565b60006144d6602e836135e1565b91506144e18261447a565b604082019050919050565b60006020820190508181036000830152614505816144c9565b9050919050565b6000819050919050565b600060ff82169050919050565b6000819050919050565b600061454861454361453e8461450c565b614523565b614516565b9050919050565b6145588161452d565b82525050565b6000602082019050614573600083018461454f565b92915050565b7f4172746966616374733a207a65726f2061646472657373000000000000000000600082015250565b60006145af6017836135e1565b91506145ba82614579565b602082019050919050565b600060208201905081810360008301526145de816145a2565b9050919050565b6000815190506145f481613422565b92915050565b6000602082840312156146105761460f6133e6565b5b600061461e848285016145e5565b91505092915050565b7f4172746966616374733a206f6e6c79206d696e696e6720636f6e74726163742060008201527f63616e2063616c6c20746869732066756e6374696f6e00000000000000000000602082015250565b60006146836036836135e1565b915061468e82614627565b604082019050919050565b600060208201905081810360008301526146b281614676565b9050919050565b6000815190506146c881613d87565b92915050565b6000602082840312156146e4576146e36133e6565b5b60006146f2848285016146b9565b91505092915050565b7f4172746966616374733a207573657220696e20626c61636b6c69737400000000600082015250565b6000614731601c836135e1565b915061473c826146fb565b602082019050919050565b6000602082019050818103600083015261476081614724565b9050919050565b60006147728261344e565b915061477d8361344e565b9250827fffffffffffffffffffffffffffffffffffffffffffffffffffffffffffffffff038211156147b2576147b16142de565b5b828201905092915050565b7f4f776e61626c653a206e6577206f776e657220697320746865207a65726f206160008201527f6464726573730000000000000000000000000000000000000000000000000000602082015250565b60006148196026836135e1565b9150614824826147bd565b604082019050919050565b600060208201905081810360008301526148488161480c565b9050919050565b7f4e487b7100000000000000000000000000000000000000000000000000000000600052601260045260246000fd5b60006148898261344e565b91506148948361344e565b9250826148a4576148a361484f565b5b828204905092915050565b60006148ba8261344e565b91506148c58361344e565b9250828210156148d8576148d76142de565b5b828203905092915050565b60006148ee8261344e565b91506148f98361344e565b9250826149095761490861484f565b5b828206905092915050565b7f455243313135353a206d696e7420746f20746865207a65726f2061646472657360008201527f7300000000000000000000000000000000000000000000000000000000000000602082015250565b60006149706021836135e1565b915061497b82614914565b604082019050919050565b6000602082019050818103600083015261499f81614963565b9050919050565b7f455243313135353a2069647320616e6420616d6f756e7473206c656e6774682060008201527f6d69736d61746368000000000000000000000000000000000000000000000000602082015250565b6000614a026028836135e1565b9150614a0d826149a6565b604082019050919050565b60006020820190508181036000830152614a31816149f5565b9050919050565b60006040820190508181036000830152614a528185613bb3565b90508181036020830152614a668184613bb3565b90509392505050565b7f455243313135353a207472616e7366657220746f20746865207a65726f20616460008201527f6472657373000000000000000000000000000000000000000000000000000000602082015250565b6000614acb6025836135e1565b9150614ad682614a6f565b604082019050919050565b60006020820190508181036000830152614afa81614abe565b9050919050565b7f455243313135353a20696e73756666696369656e742062616c616e636520666f60008201527f72207472616e7366657200000000000000000000000000000000000000000000602082015250565b6000614b5d602a836135e1565b9150614b6882614b01565b604082019050919050565b60006020820190508181036000830152614b8c81614b50565b9050919050565b7f4f776e61626c653a2063616c6c6572206973206e6f7420746865206f776e6572600082015250565b6000614bc96020836135e1565b9150614bd482614b93565b602082019050919050565b60006020820190508181036000830152614bf881614bbc565b9050919050565b7f496e697469616c697a61626c653a20636f6e7472616374206973206e6f74206960008201527f6e697469616c697a696e67000000000000000000000000000000000000000000602082015250565b6000614c5b602b836135e1565b9150614c6682614bff565b604082019050919050565b60006020820190508181036000830152614c8a81614c4e565b9050919050565b7f455243313135353a2073657474696e6720617070726f76616c2073746174757360008201527f20666f722073656c660000000000000000000000000000000000000000000000602082015250565b6000614ced6029836135e1565b9150614cf882614c91565b604082019050919050565b60006020820190508181036000830152614d1c81614ce0565b9050919050565b6000604082019050614d3860008301856134c4565b614d4560208301846134c4565b9392505050565b7f5061757361626c653a2070617573656400000000000000000000000000000000600082015250565b6000614d826010836135e1565b9150614d8d82614d4c565b602082019050919050565b60006020820190508181036000830152614db181614d75565b9050919050565b600081519050919050565b600082825260208201905092915050565b6000614ddf82614db8565b614de98185614dc3565b9350614df98185602086016135f2565b614e0281613625565b840191505092915050565b600060a082019050614e226000830188613d30565b614e2f6020830187613d30565b8181036040830152614e418186613bb3565b90508181036060830152614e558185613bb3565b90508181036080830152614e698184614dd4565b90509695505050505050565b600081519050614e848161351a565b92915050565b600060208284031215614ea057614e9f6133e6565b5b6000614eae84828501614e75565b91505092915050565b60008160e01c9050919050565b600060033d1115614ee35760046000803e614ee0600051614eb7565b90505b90565b600060443d1015614ef657614f79565b614efe6133dc565b60043d036004823e80513d602482011167ffffffffffffffff82111715614f26575050614f79565b808201805167ffffffffffffffff811115614f445750505050614f79565b80602083010160043d038501811115614f61575050505050614f79565b614f70826020018501866136c5565b82955050505050505b90565b7f455243313135353a207472616e7366657220746f206e6f6e204552433131353560008201527f526563656976657220696d706c656d656e746572000000000000000000000000602082015250565b6000614fd86034836135e1565b9150614fe382614f7c565b604082019050919050565b6000602082019050818103600083015261500781614fcb565b9050919050565b7f455243313135353a204552433131353552656365697665722072656a6563746560008201527f6420746f6b656e73000000000000000000000000000000000000000000000000602082015250565b600061506a6028836135e1565b91506150758261500e565b604082019050919050565b600060208201905081810360008301526150998161505d565b9050919050565b7f5061757361626c653a206e6f7420706175736564000000000000000000000000600082015250565b60006150d66014836135e1565b91506150e1826150a0565b602082019050919050565b60006020820190508181036000830152615105816150c9565b9050919050565b600060a0820190506151216000830188613d30565b61512e6020830187613d30565b61513b60408301866134c4565b61514860608301856134c4565b818103608083015261515a8184614dd4565b9050969550505050505056fea2646970667358221220788e6935d1946bf9456c88b12b20d61213d1102bcf28e3aa032443bbb7ec326b64736f6c634300080c0033",
  "linkReferences": {},
  "deployedLinkReferences": {}
}