{
  "_format": "hh-sol-artifact-1",
  "contractName": "Artifacts",
  "sourceName": "contracts/Artifacts.sol",
  "abi": [
    {
      "anonymous": false,
      "inputs": [
        {
          "indexed": false,
          "internalType": "uint256",
          "name": "",
          "type": "uint256"
        }
      ],
      "name": "AddNewArtifact",
      "type": "event"
    },
    {
      "anonymous": false,
      "inputs": [
        {
          "indexed": true,
          "internalType": "address",
          "name": "account",
          "type": "address"
        },
        {
          "indexed": true,
          "internalType": "address",
          "name": "operator",
          "type": "address"
        },
        {
          "indexed": false,
          "internalType": "bool",
          "name": "approved",
          "type": "bool"
        }
      ],
      "name": "ApprovalForAll",
      "type": "event"
    },
    {
      "anonymous": false,
      "inputs": [
        {
          "indexed": false,
          "internalType": "uint8",
          "name": "version",
          "type": "uint8"
        }
      ],
      "name": "Initialized",
      "type": "event"
    },
    {
      "anonymous": false,
      "inputs": [
        {
          "indexed": true,
          "internalType": "address",
          "name": "previousOwner",
          "type": "address"
        },
        {
          "indexed": true,
          "internalType": "address",
          "name": "newOwner",
          "type": "address"
        }
      ],
      "name": "OwnershipTransferred",
      "type": "event"
    },
    {
      "anonymous": false,
      "inputs": [
        {
          "indexed": false,
          "internalType": "address",
          "name": "account",
          "type": "address"
        }
      ],
      "name": "Paused",
      "type": "event"
    },
    {
      "anonymous": false,
      "inputs": [
        {
          "indexed": true,
          "internalType": "address",
          "name": "operator",
          "type": "address"
        },
        {
          "indexed": true,
          "internalType": "address",
          "name": "from",
          "type": "address"
        },
        {
          "indexed": true,
          "internalType": "address",
          "name": "to",
          "type": "address"
        },
        {
          "indexed": false,
          "internalType": "uint256[]",
          "name": "ids",
          "type": "uint256[]"
        },
        {
          "indexed": false,
          "internalType": "uint256[]",
          "name": "values",
          "type": "uint256[]"
        }
      ],
      "name": "TransferBatch",
      "type": "event"
    },
    {
      "anonymous": false,
      "inputs": [
        {
          "indexed": true,
          "internalType": "address",
          "name": "operator",
          "type": "address"
        },
        {
          "indexed": true,
          "internalType": "address",
          "name": "from",
          "type": "address"
        },
        {
          "indexed": true,
          "internalType": "address",
          "name": "to",
          "type": "address"
        },
        {
          "indexed": false,
          "internalType": "uint256",
          "name": "id",
          "type": "uint256"
        },
        {
          "indexed": false,
          "internalType": "uint256",
          "name": "value",
          "type": "uint256"
        }
      ],
      "name": "TransferSingle",
      "type": "event"
    },
    {
      "anonymous": false,
      "inputs": [
        {
          "indexed": false,
          "internalType": "string",
          "name": "value",
          "type": "string"
        },
        {
          "indexed": true,
          "internalType": "uint256",
          "name": "id",
          "type": "uint256"
        }
      ],
      "name": "URI",
      "type": "event"
    },
    {
      "anonymous": false,
      "inputs": [
        {
          "indexed": false,
          "internalType": "address",
          "name": "account",
          "type": "address"
        }
      ],
      "name": "Unpaused",
      "type": "event"
    },
    {
      "inputs": [
        {
          "internalType": "string",
          "name": "name",
          "type": "string"
        },
        {
          "internalType": "uint256",
          "name": "_level",
          "type": "uint256"
        }
      ],
      "name": "addNewArtifact",
      "outputs": [],
      "stateMutability": "nonpayable",
      "type": "function"
    },
    {
      "inputs": [
        {
          "internalType": "address",
          "name": "account",
          "type": "address"
        },
        {
          "internalType": "uint256",
          "name": "id",
          "type": "uint256"
        }
      ],
      "name": "balanceOf",
      "outputs": [
        {
          "internalType": "uint256",
          "name": "",
          "type": "uint256"
        }
      ],
      "stateMutability": "view",
      "type": "function"
    },
    {
      "inputs": [
        {
          "internalType": "address[]",
          "name": "accounts",
          "type": "address[]"
        },
        {
          "internalType": "uint256[]",
          "name": "ids",
          "type": "uint256[]"
        }
      ],
      "name": "balanceOfBatch",
      "outputs": [
        {
          "internalType": "uint256[]",
          "name": "",
          "type": "uint256[]"
        }
      ],
      "stateMutability": "view",
      "type": "function"
    },
    {
      "inputs": [
        {
          "internalType": "string",
          "name": "_baseUrl",
          "type": "string"
        },
        {
          "internalType": "address",
          "name": "_blackListContractAddress",
          "type": "address"
        }
      ],
      "name": "initialize",
      "outputs": [],
      "stateMutability": "nonpayable",
      "type": "function"
    },
    {
      "inputs": [
        {
          "internalType": "address",
          "name": "account",
          "type": "address"
        },
        {
          "internalType": "address",
          "name": "operator",
          "type": "address"
        }
      ],
      "name": "isApprovedForAll",
      "outputs": [
        {
          "internalType": "bool",
          "name": "",
          "type": "bool"
        }
      ],
      "stateMutability": "view",
      "type": "function"
    },
    {
      "inputs": [
        {
          "internalType": "address",
          "name": "user",
          "type": "address"
        },
        {
          "internalType": "uint256",
          "name": "artifactType",
          "type": "uint256"
        }
      ],
      "name": "lootArtifact",
      "outputs": [],
      "stateMutability": "nonpayable",
      "type": "function"
    },
    {
      "inputs": [
        {
          "internalType": "uint256",
          "name": "artifactType",
          "type": "uint256"
        },
        {
          "internalType": "address",
          "name": "to",
          "type": "address"
        },
        {
          "internalType": "uint256",
          "name": "amount",
          "type": "uint256"
        },
        {
          "internalType": "bytes",
          "name": "data",
          "type": "bytes"
        }
      ],
      "name": "mint",
      "outputs": [],
      "stateMutability": "nonpayable",
      "type": "function"
    },
    {
      "inputs": [
        {
          "internalType": "address",
          "name": "to",
          "type": "address"
        },
        {
          "internalType": "uint256[]",
          "name": "ids",
          "type": "uint256[]"
        },
        {
          "internalType": "uint256[]",
          "name": "amounts",
          "type": "uint256[]"
        },
        {
          "internalType": "bytes",
          "name": "data",
          "type": "bytes"
        }
      ],
      "name": "mintBatch",
      "outputs": [],
      "stateMutability": "nonpayable",
      "type": "function"
    },
    {
      "inputs": [],
      "name": "owner",
      "outputs": [
        {
          "internalType": "address",
          "name": "",
          "type": "address"
        }
      ],
      "stateMutability": "view",
      "type": "function"
    },
    {
      "inputs": [],
      "name": "pause",
      "outputs": [],
      "stateMutability": "nonpayable",
      "type": "function"
    },
    {
      "inputs": [],
      "name": "paused",
      "outputs": [
        {
          "internalType": "bool",
          "name": "",
          "type": "bool"
        }
      ],
      "stateMutability": "view",
      "type": "function"
    },
    {
      "inputs": [],
      "name": "renounceOwnership",
      "outputs": [],
      "stateMutability": "nonpayable",
      "type": "function"
    },
    {
      "inputs": [
        {
          "internalType": "address",
          "name": "from",
          "type": "address"
        },
        {
          "internalType": "address",
          "name": "to",
          "type": "address"
        },
        {
          "internalType": "uint256[]",
          "name": "ids",
          "type": "uint256[]"
        },
        {
          "internalType": "uint256[]",
          "name": "amounts",
          "type": "uint256[]"
        },
        {
          "internalType": "bytes",
          "name": "data",
          "type": "bytes"
        }
      ],
      "name": "safeBatchTransferFrom",
      "outputs": [],
      "stateMutability": "nonpayable",
      "type": "function"
    },
    {
      "inputs": [
        {
          "internalType": "address",
          "name": "from",
          "type": "address"
        },
        {
          "internalType": "address",
          "name": "to",
          "type": "address"
        },
        {
          "internalType": "uint256",
          "name": "id",
          "type": "uint256"
        },
        {
          "internalType": "uint256",
          "name": "amount",
          "type": "uint256"
        },
        {
          "internalType": "bytes",
          "name": "data",
          "type": "bytes"
        }
      ],
      "name": "safeTransferFrom",
      "outputs": [],
      "stateMutability": "nonpayable",
      "type": "function"
    },
    {
      "inputs": [
        {
          "internalType": "address",
          "name": "operator",
          "type": "address"
        },
        {
          "internalType": "bool",
          "name": "approved",
          "type": "bool"
        }
      ],
      "name": "setApprovalForAll",
      "outputs": [],
      "stateMutability": "nonpayable",
      "type": "function"
    },
    {
      "inputs": [
        {
          "internalType": "address",
          "name": "toolsAddress",
          "type": "address"
        }
      ],
      "name": "setToolsAddress",
      "outputs": [],
      "stateMutability": "nonpayable",
      "type": "function"
    },
    {
      "inputs": [
        {
          "internalType": "bytes4",
          "name": "interfaceId",
          "type": "bytes4"
        }
      ],
      "name": "supportsInterface",
      "outputs": [
        {
          "internalType": "bool",
          "name": "",
          "type": "bool"
        }
      ],
      "stateMutability": "view",
      "type": "function"
    },
    {
      "inputs": [
        {
          "internalType": "address",
          "name": "newOwner",
          "type": "address"
        }
      ],
      "name": "transferOwnership",
      "outputs": [],
      "stateMutability": "nonpayable",
      "type": "function"
    },
    {
      "inputs": [
        {
          "internalType": "uint256",
          "name": "artifactType",
          "type": "uint256"
        }
      ],
      "name": "uri",
      "outputs": [
        {
          "internalType": "string",
          "name": "",
          "type": "string"
        }
      ],
      "stateMutability": "view",
      "type": "function"
    }
  ],
  "bytecode": "0x608060405234801561001057600080fd5b5061302d806100206000396000f3fe608060405234801561001057600080fd5b50600436106101205760003560e01c80637ab4339d116100ad578063ac2a301011610071578063ac2a301014610258578063c77b66c21461026b578063e985e9c51461027e578063f242432a146102ba578063f2fde38b146102cd57600080fd5b80637ab4339d146101fc5780638456cb591461020f5780638da5cb5b1461021757806394cf7cd014610232578063a22cb4651461024557600080fd5b80632eb2c2d6116100f45780632eb2c2d6146101a35780634e1273f4146101b65780635c975abb146101d6578063715018a6146101e157806376ae2794146101e957600080fd5b8062fdd58e1461012557806301ffc9a71461014b5780630e89341c1461016e5780631f7fdffa1461018e575b600080fd5b6101386101333660046123b7565b6102e0565b6040519081526020015b60405180910390f35b61015e6101593660046123f9565b610378565b6040519015158152602001610142565b61018161017c36600461241d565b6103ca565b6040516101429190612492565b6101a161019c3660046125ee565b610450565b005b6101a16101b1366004612688565b61070b565b6101c96101c4366004612735565b610750565b604051610142919061283c565b60c95460ff1661015e565b6101a1610879565b6101a16101f736600461284f565b61088d565b6101a161020a366004612893565b6109b3565b6101a1610e25565b6033546040516001600160a01b039091168152602001610142565b6101a16102403660046128e4565b610e47565b6101a161025336600461290f565b610e84565b6101a16102663660046123b7565b610e93565b6101a161027936600461293d565b6110d1565b61015e61028c366004612993565b6001600160a01b03918216600090815260986020908152604080832093909416825291909152205460ff1690565b6101a16102c83660046129c1565b61133d565b6101a16102db3660046128e4565b611382565b60006001600160a01b0383166103505760405162461bcd60e51b815260206004820152602a60248201527f455243313135353a2061646472657373207a65726f206973206e6f742061207660448201526930b634b21037bbb732b960b11b60648201526084015b60405180910390fd5b5060009081526097602090815260408083206001600160a01b03949094168352929052205490565b60006001600160e01b03198216636cdb3d1360e11b14806103a957506001600160e01b031982166303a24d0760e21b145b806103c457506301ffc9a760e01b6001600160e01b03198316145b92915050565b606060fe5482111561041e5760405162461bcd60e51b815260206004820152601860248201527f5468697320746f6b656e20646f65736e277420657869737400000000000000006044820152606401610347565b60fd610429836113fb565b60405160200161043a929190612a80565b6040516020818303038152906040529050919050565b60005b835181101561050d5760fe5461047b5760405162461bcd60e51b815260040161034790612b3b565b60fe5484828151811061049057610490612b85565b602002602001015111156104fb5760405162461bcd60e51b815260206004820152602c60248201527f4172746966616374733a2074686973206172746966616374207479706520646f60448201526b65736e27742065786973747360a01b6064820152608401610347565b8061050581612bb1565b915050610453565b5061051a84848484611500565b60005b83518110156107045760005b83818151811061053b5761053b612b85565b60200260200101518110156106f1576040518060400160405280610100600088868151811061056c5761056c612b85565b60200260200101518152602001908152602001600020805461058d90612a29565b80601f01602080910402602001604051908101604052809291908181526020018280546105b990612a29565b80156106065780601f106105db57610100808354040283529160200191610606565b820191906000526020600020905b8154815290600101906020018083116105e957829003601f168201915b5050505050815260200160ff600088868151811061062657610626612b85565b60200260200101518152602001908152602001600020546001600160801b03168152506101016000886001600160a01b03166001600160a01b03168152602001908152602001600020600087858151811061068357610683612b85565b6020026020010151815260200190815260200160002060008201518160000190805190602001906106b59291906122d3565b5060209190910151600190910180546001600160801b0319166001600160801b03909216919091179055806106e981612bb1565b915050610529565b50806106fc81612bb1565b91505061051d565b5050505050565b6001600160a01b0385163314806107275750610727853361028c565b6107435760405162461bcd60e51b815260040161034790612bcc565b610704858585858561165b565b606081518351146107b55760405162461bcd60e51b815260206004820152602960248201527f455243313135353a206163636f756e747320616e6420696473206c656e677468604482015268040dad2e6dac2e8c6d60bb1b6064820152608401610347565b600083516001600160401b038111156107d0576107d06124a5565b6040519080825280602002602001820160405280156107f9578160200160208202803683370190505b50905060005b84518110156108715761084485828151811061081d5761081d612b85565b602002602001015185838151811061083757610837612b85565b60200260200101516102e0565b82828151811061085657610856612b85565b602090810291909101015261086a81612bb1565b90506107ff565b509392505050565b610881611808565b61088b6000611862565b565b610895611808565b600160fe60008282546108a89190612c1b565b925050819055508060ff6000600160fe546108c39190612c33565b815260200190815260200160002081905550816101006000600160fe546108ea9190612c33565b8152602001908152602001600020908051906020019061090b9291906122d3565b5060fc60009054906101000a90046001600160a01b03166001600160a01b0316630ebb956d6040518163ffffffff1660e01b8152600401600060405180830381600087803b15801561095c57600080fd5b505af1158015610970573d6000803e3d6000fd5b505050507f1b62dd3d3d4d94e83dc4eb3f8fe1fd04165796d790d0807467a1f58a7dd8a74a60fe546040516109a791815260200190565b60405180910390a15050565b600054610100900460ff16158080156109d35750600054600160ff909116105b806109ed5750303b1580156109ed575060005460ff166001145b610a505760405162461bcd60e51b815260206004820152602e60248201527f496e697469616c697a61626c653a20636f6e747261637420697320616c72656160448201526d191e481a5b9a5d1a585b1a5e995960921b6064820152608401610347565b6000805460ff191660011790558015610a73576000805461ff0019166101001790555b8251610a869060fd9060208601906122d3565b5060fb80546001600160a01b0319166001600160a01b038416179055600660fe5560408051808201909152600e81526d4d6167696320736d6f6f7468696560901b6020808301918252600160005261010090529051610b06917f0f37cc93c7327dd0773c9bad1b9130cb34ac422da3ad8b8ae014d91283751870916122d3565b5060408051808201909152600a8152694d6f6e6579207472656560b01b6020808301918252600260005261010090529051610b62917f7d812dbdbe97598178d91fb116f92e9757cb257925e5a6804e75b5cd4b5303f4916122d3565b50604080518082019091526007815266115b595c985b1960ca1b6020808301918252600360005261010090529051610bbb917f8c24b2f2456733a698ea27cb375437cf29c8448c5388b3ef85292e3b4287afa6916122d3565b50604080518082019091526009815268476f6c64626572727960b81b6020808301918252600460005261010090529051610c16917ff6033519b305ee1ee728a37642d969ce1334227d806e8ca95cd735892f101ba8916122d3565b50604080518082019091526007815266111a585b5bdb9960ca1b6020808301918252600560005261010090529051610c6f917fb38a711562254948fa29a41eb67cdbe661c4a536a1ff238f4e5867585293978f916122d3565b5060408051808201909152600b81526a476f6c64656e207472656560a81b6020808301918252600660005261010090529051610ccc917f4725ce3cb1c53c4c86c3ba6e64af21dce6fd9a02a66c66c0809c58fec120b5bb916122d3565b5060ff602090815260037ff806280aa4dfe145596c627f696302876be30d4ea721e7e2b62aecde7954710a8190557fb0f1df1d730d08dc90b3a0398ffe9349eff7fc9a3154de5d356b01c785e0f0fb8190557f706367067091d6ec1dc7f2f0b272312d6c249fbe587f04b301ff73973764cfd65560047f88a9ae206c552d602035d3b26d2b42d3d2601e375be2cab1b5a73d445ed4eca18190557f80f0bf4638c668ddc66ffc002fb2c1298c970274789cbef4c7180b76efa8a4a3819055600660009081527f3b287b96341ba887247f4cbe7ab1190e0ef8b033bfcea83f7d204f679bba97aa919091556040805192830190528152610dca906118b4565b610dd26118e4565b610dda611913565b8015610e20576000805461ff0019169055604051600181527f7f26b83ff96e1f2b6a682f133852f6798a09c465da95921460cefb38474024989060200160405180910390a15b505050565b610e2d611808565b60c95460ff16610e3f5761088b611942565b61088b61199c565b610e4f611808565b6001600160a01b038116610e6257600080fd5b60fc80546001600160a01b0319166001600160a01b0392909216919091179055565b610e8f3383836119d5565b5050565b60fc60009054906101000a90046001600160a01b03166001600160a01b03166343cac2b16040518163ffffffff1660e01b8152600401602060405180830381865afa158015610ee6573d6000803e3d6000fd5b505050506040513d601f19601f82011682018060405250810190610f0a9190612c4a565b6001600160a01b0316336001600160a01b031614610f895760405162461bcd60e51b815260206004820152603660248201527f4172746966616374733a206f6e6c79206d696e696e6720636f6e74726163742060448201527531b0b71031b0b636103a3434b990333ab731ba34b7b760511b6064820152608401610347565b610fa58282600160405180602001604052806000815250611ab6565b604051806040016040528061010060008481526020019081526020016000208054610fcf90612a29565b80601f0160208091040260200160405190810160405280929190818152602001828054610ffb90612a29565b80156110485780601f1061101d57610100808354040283529160200191611048565b820191906000526020600020905b81548152906001019060200180831161102b57829003601f168201915b5050509183525050600083815260ff60209081526040808320546001600160801b0316938201939093526001600160a01b0386168252610101815282822085835281529190208251805191926110a3928492909101906122d3565b5060209190910151600190910180546001600160801b0319166001600160801b039092169190911790555050565b6110d9611808565b6110e1611ba1565b60fb54604051631846d2f560e31b81526001600160a01b0380861660048301528592169063c23697a8906024016020604051808303816000875af115801561112d573d6000803e3d6000fd5b505050506040513d601f19601f820116820180604052508101906111519190612c67565b156111925760405162461bcd60e51b8152602060048201526011602482015270155cd95c881a5b88189b1858dadb1a5cdd607a1b6044820152606401610347565b60fe546111b15760405162461bcd60e51b815260040161034790612b3b565b60fe5485106112025760405162461bcd60e51b815260206004820152601c60248201527f5468697320617274696661637420646f65736e27742065786973742e000000006044820152606401610347565b61120e84868585611ab6565b60405180604001604052806101006000888152602001908152602001600020805461123890612a29565b80601f016020809104026020016040519081016040528092919081815260200182805461126490612a29565b80156112b15780601f10611286576101008083540402835291602001916112b1565b820191906000526020600020905b81548152906001019060200180831161129457829003601f168201915b5050509183525050600087815260ff60209081526040808320546001600160801b0316938201939093526001600160a01b03881682526101018152828220898352815291902082518051919261130c928492909101906122d3565b5060209190910151600190910180546001600160801b0319166001600160801b039092169190911790555050505050565b6001600160a01b0385163314806113595750611359853361028c565b6113755760405162461bcd60e51b815260040161034790612bcc565b6107048585858585611be7565b61138a611808565b6001600160a01b0381166113ef5760405162461bcd60e51b815260206004820152602660248201527f4f776e61626c653a206e6577206f776e657220697320746865207a65726f206160448201526564647265737360d01b6064820152608401610347565b6113f881611862565b50565b60608161141f5750506040805180820190915260018152600360fc1b602082015290565b8160005b8115611449578061143381612bb1565b91506114429050600a83612c9a565b9150611423565b6000816001600160401b03811115611463576114636124a5565b6040519080825280601f01601f19166020018201604052801561148d576020820181803683370190505b5090505b84156114f8576114a2600183612c33565b91506114af600a86612cae565b6114ba906030612c1b565b60f81b8183815181106114cf576114cf612b85565b60200101906001600160f81b031916908160001a9053506114f1600a86612c9a565b9450611491565b949350505050565b6001600160a01b0384166115265760405162461bcd60e51b815260040161034790612cc2565b81518351146115475760405162461bcd60e51b815260040161034790612d03565b3360005b84518110156115e45783818151811061156657611566612b85565b60200260200101516097600087848151811061158457611584612b85565b602002602001015181526020019081526020016000206000886001600160a01b03166001600160a01b0316815260200190815260200160002060008282546115cc9190612c1b565b909155508190506115dc81612bb1565b91505061154b565b50846001600160a01b031660006001600160a01b0316826001600160a01b03167f4a39dc06d4c0dbc64b70af90fd698a233a518aa5d07e595d983b8c0526c8f7fb8787604051611635929190612d4b565b60405180910390a461164c81600087878787611d23565b61070481600087878787611f86565b815183511461167c5760405162461bcd60e51b815260040161034790612d03565b6001600160a01b0384166116a25760405162461bcd60e51b815260040161034790612d70565b3360005b845181101561178c5760008582815181106116c3576116c3612b85565b6020026020010151905060008583815181106116e1576116e1612b85565b60209081029190910181015160008481526097835260408082206001600160a01b038e1683529093529190912054909150818110156117325760405162461bcd60e51b815260040161034790612db5565b60008381526097602090815260408083206001600160a01b038e8116855292528083208585039055908b16825281208054849290611771908490612c1b565b925050819055505050508061178590612bb1565b90506116a6565b50846001600160a01b0316866001600160a01b0316826001600160a01b03167f4a39dc06d4c0dbc64b70af90fd698a233a518aa5d07e595d983b8c0526c8f7fb87876040516117dc929190612d4b565b60405180910390a46117f2818787878787611d23565b611800818787878787611f86565b505050505050565b6033546001600160a01b0316331461088b5760405162461bcd60e51b815260206004820181905260248201527f4f776e61626c653a2063616c6c6572206973206e6f7420746865206f776e65726044820152606401610347565b603380546001600160a01b038381166001600160a01b0319831681179093556040519116919082907f8be0079c531659141344cd1fd0a4f28419497f9722a3daafe3b4186f6b6457e090600090a35050565b600054610100900460ff166118db5760405162461bcd60e51b815260040161034790612dff565b6113f8816120e2565b600054610100900460ff1661190b5760405162461bcd60e51b815260040161034790612dff565b61088b612112565b600054610100900460ff1661193a5760405162461bcd60e51b815260040161034790612dff565b61088b612142565b61194a611ba1565b60c9805460ff191660011790557f62e78cea01bee320cd4e420270b5ea74000d11b0c9f74754ebdbfc544b05a25861197f3390565b6040516001600160a01b03909116815260200160405180910390a1565b6119a4612175565b60c9805460ff191690557f5db9ee0a495bf2e6ff9c91a7834c1ba4fdd244a5e8aa4e537bd38aeae4b073aa3361197f565b816001600160a01b0316836001600160a01b03161415611a495760405162461bcd60e51b815260206004820152602960248201527f455243313135353a2073657474696e6720617070726f76616c20737461747573604482015268103337b91039b2b63360b91b6064820152608401610347565b6001600160a01b03838116600081815260986020908152604080832094871680845294825291829020805460ff191686151590811790915591519182527f17307eab39ab6107e8899845ad3d59bd9653f200f220920489ca2b5937696c31910160405180910390a3505050565b6001600160a01b038416611adc5760405162461bcd60e51b815260040161034790612cc2565b336000611ae8856121be565b90506000611af5856121be565b905060008681526097602090815260408083206001600160a01b038b16845290915281208054879290611b29908490612c1b565b909155505060408051878152602081018790526001600160a01b03808a1692600092918716917fc3d58168c5ae7397731d063d5bbf3d657854427343f4c083240f7aacaa2d0f62910160405180910390a4611b8983600089858589611d23565b611b9883600089898989612209565b50505050505050565b60c95460ff161561088b5760405162461bcd60e51b815260206004820152601060248201526f14185d5cd8589b194e881c185d5cd95960821b6044820152606401610347565b6001600160a01b038416611c0d5760405162461bcd60e51b815260040161034790612d70565b336000611c19856121be565b90506000611c26856121be565b905060008681526097602090815260408083206001600160a01b038c16845290915290205485811015611c6b5760405162461bcd60e51b815260040161034790612db5565b60008781526097602090815260408083206001600160a01b038d8116855292528083208985039055908a16825281208054889290611caa908490612c1b565b909155505060408051888152602081018890526001600160a01b03808b16928c821692918816917fc3d58168c5ae7397731d063d5bbf3d657854427343f4c083240f7aacaa2d0f62910160405180910390a4611d0a848a8a86868a611d23565b611d18848a8a8a8a8a612209565b505050505050505050565b60005b8351811015611b985760405180604001604052806101016000896001600160a01b03166001600160a01b031681526020019081526020016000206000878581518110611d7457611d74612b85565b602002602001015181526020019081526020016000206000018054611d9890612a29565b80601f0160208091040260200160405190810160405280929190818152602001828054611dc490612a29565b8015611e115780601f10611de657610100808354040283529160200191611e11565b820191906000526020600020905b815481529060010190602001808311611df457829003601f168201915b505050505081526020016101016000896001600160a01b03166001600160a01b031681526020019081526020016000206000878581518110611e5557611e55612b85565b60209081029190910181015182528181019290925260409081016000908120600101546001600160801b03169093526001600160a01b038916835261010190915281208651909190879085908110611eaf57611eaf612b85565b602002602001015181526020019081526020016000206000820151816000019080519060200190611ee19291906122d3565b5060209182015160019190910180546001600160801b0319166001600160801b039092169190911790556001600160a01b0387166000908152610101909152604081208551909190869084908110611f3b57611f3b612b85565b6020026020010151815260200190815260200160002060008082016000611f629190612357565b5060010180546001600160801b031916905580611f7e81612bb1565b915050611d26565b6001600160a01b0384163b156118005760405163bc197c8160e01b81526001600160a01b0385169063bc197c8190611fca9089908990889088908890600401612e4a565b6020604051808303816000875af1925050508015612005575060408051601f3d908101601f1916820190925261200291810190612ea8565b60015b6120b257612011612ec5565b806308c379a0141561204b5750612026612ee1565b80612031575061204d565b8060405162461bcd60e51b81526004016103479190612492565b505b60405162461bcd60e51b815260206004820152603460248201527f455243313135353a207472616e7366657220746f206e6f6e20455243313135356044820152732932b1b2b4bb32b91034b6b83632b6b2b73a32b960611b6064820152608401610347565b6001600160e01b0319811663bc197c8160e01b14611b985760405162461bcd60e51b815260040161034790612f6a565b600054610100900460ff166121095760405162461bcd60e51b815260040161034790612dff565b6113f8816122c4565b600054610100900460ff166121395760405162461bcd60e51b815260040161034790612dff565b61088b33611862565b600054610100900460ff166121695760405162461bcd60e51b815260040161034790612dff565b60c9805460ff19169055565b60c95460ff1661088b5760405162461bcd60e51b815260206004820152601460248201527314185d5cd8589b194e881b9bdd081c185d5cd95960621b6044820152606401610347565b604080516001808252818301909252606091600091906020808301908036833701905050905082816000815181106121f8576121f8612b85565b602090810291909101015292915050565b6001600160a01b0384163b156118005760405163f23a6e6160e01b81526001600160a01b0385169063f23a6e619061224d9089908990889088908890600401612fb2565b6020604051808303816000875af1925050508015612288575060408051601f3d908101601f1916820190925261228591810190612ea8565b60015b61229457612011612ec5565b6001600160e01b0319811663f23a6e6160e01b14611b985760405162461bcd60e51b815260040161034790612f6a565b8051610e8f9060999060208401905b8280546122df90612a29565b90600052602060002090601f0160209004810192826123015760008555612347565b82601f1061231a57805160ff1916838001178555612347565b82800160010185558215612347579182015b8281111561234757825182559160200191906001019061232c565b5061235392915061238d565b5090565b50805461236390612a29565b6000825580601f10612373575050565b601f0160209004906000526020600020908101906113f891905b5b80821115612353576000815560010161238e565b6001600160a01b03811681146113f857600080fd5b600080604083850312156123ca57600080fd5b82356123d5816123a2565b946020939093013593505050565b6001600160e01b0319811681146113f857600080fd5b60006020828403121561240b57600080fd5b8135612416816123e3565b9392505050565b60006020828403121561242f57600080fd5b5035919050565b60005b83811015612451578181015183820152602001612439565b83811115612460576000848401525b50505050565b6000815180845261247e816020860160208601612436565b601f01601f19169290920160200192915050565b6020815260006124166020830184612466565b634e487b7160e01b600052604160045260246000fd5b601f8201601f191681016001600160401b03811182821017156124e0576124e06124a5565b6040525050565b60006001600160401b03821115612500576125006124a5565b5060051b60200190565b600082601f83011261251b57600080fd5b81356020612528826124e7565b60405161253582826124bb565b83815260059390931b850182019282810191508684111561255557600080fd5b8286015b848110156125705780358352918301918301612559565b509695505050505050565b600082601f83011261258c57600080fd5b81356001600160401b038111156125a5576125a56124a5565b6040516125bc601f8301601f1916602001826124bb565b8181528460208386010111156125d157600080fd5b816020850160208301376000918101602001919091529392505050565b6000806000806080858703121561260457600080fd5b843561260f816123a2565b935060208501356001600160401b038082111561262b57600080fd5b6126378883890161250a565b9450604087013591508082111561264d57600080fd5b6126598883890161250a565b9350606087013591508082111561266f57600080fd5b5061267c8782880161257b565b91505092959194509250565b600080600080600060a086880312156126a057600080fd5b85356126ab816123a2565b945060208601356126bb816123a2565b935060408601356001600160401b03808211156126d757600080fd5b6126e389838a0161250a565b945060608801359150808211156126f957600080fd5b61270589838a0161250a565b9350608088013591508082111561271b57600080fd5b506127288882890161257b565b9150509295509295909350565b6000806040838503121561274857600080fd5b82356001600160401b038082111561275f57600080fd5b818501915085601f83011261277357600080fd5b81356020612780826124e7565b60405161278d82826124bb565b83815260059390931b85018201928281019150898411156127ad57600080fd5b948201945b838610156127d45785356127c5816123a2565b825294820194908201906127b2565b965050860135925050808211156127ea57600080fd5b506127f78582860161250a565b9150509250929050565b600081518084526020808501945080840160005b8381101561283157815187529582019590820190600101612815565b509495945050505050565b6020815260006124166020830184612801565b6000806040838503121561286257600080fd5b82356001600160401b0381111561287857600080fd5b6128848582860161257b565b95602094909401359450505050565b600080604083850312156128a657600080fd5b82356001600160401b038111156128bc57600080fd5b6128c88582860161257b565b92505060208301356128d9816123a2565b809150509250929050565b6000602082840312156128f657600080fd5b8135612416816123a2565b80151581146113f857600080fd5b6000806040838503121561292257600080fd5b823561292d816123a2565b915060208301356128d981612901565b6000806000806080858703121561295357600080fd5b843593506020850135612965816123a2565b92506040850135915060608501356001600160401b0381111561298757600080fd5b61267c8782880161257b565b600080604083850312156129a657600080fd5b82356129b1816123a2565b915060208301356128d9816123a2565b600080600080600060a086880312156129d957600080fd5b85356129e4816123a2565b945060208601356129f4816123a2565b9350604086013592506060860135915060808601356001600160401b03811115612a1d57600080fd5b6127288882890161257b565b600181811c90821680612a3d57607f821691505b60208210811415612a5e57634e487b7160e01b600052602260045260246000fd5b50919050565b60008151612a76818560208601612436565b9290920192915050565b600080845481600182811c915080831680612a9c57607f831692505b6020808410821415612abc57634e487b7160e01b86526022600452602486fd5b818015612ad05760018114612ae157612b0e565b60ff19861689528489019650612b0e565b60008b81526020902060005b86811015612b065781548b820152908501908301612aed565b505084890196505b505050505050612b32612b218286612a64565b64173539b7b760d91b815260050190565b95945050505050565b6020808252602a908201527f4172746966616374733a207468657265206973206e6f20617761696c61626c656040820152692061727469666163747360b01b606082015260800190565b634e487b7160e01b600052603260045260246000fd5b634e487b7160e01b600052601160045260246000fd5b6000600019821415612bc557612bc5612b9b565b5060010190565b6020808252602f908201527f455243313135353a2063616c6c6572206973206e6f7420746f6b656e206f776e60408201526e195c881b9bdc88185c1c1c9bdd9959608a1b606082015260800190565b60008219821115612c2e57612c2e612b9b565b500190565b600082821015612c4557612c45612b9b565b500390565b600060208284031215612c5c57600080fd5b8151612416816123a2565b600060208284031215612c7957600080fd5b815161241681612901565b634e487b7160e01b600052601260045260246000fd5b600082612ca957612ca9612c84565b500490565b600082612cbd57612cbd612c84565b500690565b60208082526021908201527f455243313135353a206d696e7420746f20746865207a65726f206164647265736040820152607360f81b606082015260800190565b60208082526028908201527f455243313135353a2069647320616e6420616d6f756e7473206c656e677468206040820152670dad2e6dac2e8c6d60c31b606082015260800190565b604081526000612d5e6040830185612801565b8281036020840152612b328185612801565b60208082526025908201527f455243313135353a207472616e7366657220746f20746865207a65726f206164604082015264647265737360d81b606082015260800190565b6020808252602a908201527f455243313135353a20696e73756666696369656e742062616c616e636520666f60408201526939103a3930b739b332b960b11b606082015260800190565b6020808252602b908201527f496e697469616c697a61626c653a20636f6e7472616374206973206e6f74206960408201526a6e697469616c697a696e6760a81b606082015260800190565b6001600160a01b0386811682528516602082015260a060408201819052600090612e7690830186612801565b8281036060840152612e888186612801565b90508281036080840152612e9c8185612466565b98975050505050505050565b600060208284031215612eba57600080fd5b8151612416816123e3565b600060033d1115612ede5760046000803e5060005160e01c5b90565b600060443d1015612eef5790565b6040516003193d81016004833e81513d6001600160401b038160248401118184111715612f1e57505050505090565b8285019150815181811115612f365750505050505090565b843d8701016020828501011115612f505750505050505090565b612f5f602082860101876124bb565b509095945050505050565b60208082526028908201527f455243313135353a204552433131353552656365697665722072656a656374656040820152676420746f6b656e7360c01b606082015260800190565b6001600160a01b03868116825285166020820152604081018490526060810183905260a060808201819052600090612fec90830184612466565b97965050505050505056fea2646970667358221220f383bbe2009efa6f9517603214042bee8f0bd77fcdebd90d2787b2038c5a9ca864736f6c634300080c0033",
  "linkReferences": {},
  "deployedLinkReferences": {}
}