{
  "_format": "hh-sol-artifact-1",
  "contractName": "Artifacts",
  "sourceName": "contracts/Artifacts.sol",
  "abi": [
    {
      "anonymous": false,
      "inputs": [
        {
          "indexed": false,
          "internalType": "uint256",
          "name": "",
          "type": "uint256"
        }
      ],
      "name": "AddNewArtifact",
      "type": "event"
    },
    {
      "anonymous": false,
      "inputs": [
        {
          "indexed": true,
          "internalType": "address",
          "name": "account",
          "type": "address"
        },
        {
          "indexed": true,
          "internalType": "address",
          "name": "operator",
          "type": "address"
        },
        {
          "indexed": false,
          "internalType": "bool",
          "name": "approved",
          "type": "bool"
        }
      ],
      "name": "ApprovalForAll",
      "type": "event"
    },
    {
      "anonymous": false,
      "inputs": [
        {
          "indexed": false,
          "internalType": "string",
          "name": "",
          "type": "string"
        }
      ],
      "name": "BaseUriChanged",
      "type": "event"
    },
    {
      "anonymous": false,
      "inputs": [
        {
          "indexed": false,
          "internalType": "uint8",
          "name": "version",
          "type": "uint8"
        }
      ],
      "name": "Initialized",
      "type": "event"
    },
    {
      "anonymous": false,
      "inputs": [
        {
          "indexed": true,
          "internalType": "address",
          "name": "previousOwner",
          "type": "address"
        },
        {
          "indexed": true,
          "internalType": "address",
          "name": "newOwner",
          "type": "address"
        }
      ],
      "name": "OwnershipTransferred",
      "type": "event"
    },
    {
      "anonymous": false,
      "inputs": [
        {
          "indexed": false,
          "internalType": "address",
          "name": "account",
          "type": "address"
        }
      ],
      "name": "Paused",
      "type": "event"
    },
    {
      "anonymous": false,
      "inputs": [
        {
          "indexed": true,
          "internalType": "address",
          "name": "operator",
          "type": "address"
        },
        {
          "indexed": true,
          "internalType": "address",
          "name": "from",
          "type": "address"
        },
        {
          "indexed": true,
          "internalType": "address",
          "name": "to",
          "type": "address"
        },
        {
          "indexed": false,
          "internalType": "uint256[]",
          "name": "ids",
          "type": "uint256[]"
        },
        {
          "indexed": false,
          "internalType": "uint256[]",
          "name": "values",
          "type": "uint256[]"
        }
      ],
      "name": "TransferBatch",
      "type": "event"
    },
    {
      "anonymous": false,
      "inputs": [
        {
          "indexed": true,
          "internalType": "address",
          "name": "operator",
          "type": "address"
        },
        {
          "indexed": true,
          "internalType": "address",
          "name": "from",
          "type": "address"
        },
        {
          "indexed": true,
          "internalType": "address",
          "name": "to",
          "type": "address"
        },
        {
          "indexed": false,
          "internalType": "uint256",
          "name": "id",
          "type": "uint256"
        },
        {
          "indexed": false,
          "internalType": "uint256",
          "name": "value",
          "type": "uint256"
        }
      ],
      "name": "TransferSingle",
      "type": "event"
    },
    {
      "anonymous": false,
      "inputs": [
        {
          "indexed": false,
          "internalType": "string",
          "name": "value",
          "type": "string"
        },
        {
          "indexed": true,
          "internalType": "uint256",
          "name": "id",
          "type": "uint256"
        }
      ],
      "name": "URI",
      "type": "event"
    },
    {
      "anonymous": false,
      "inputs": [
        {
          "indexed": false,
          "internalType": "address",
          "name": "account",
          "type": "address"
        }
      ],
      "name": "Unpaused",
      "type": "event"
    },
    {
      "anonymous": false,
      "inputs": [
        {
          "indexed": false,
          "internalType": "uint256",
          "name": "",
          "type": "uint256"
        },
        {
          "indexed": false,
          "internalType": "string",
          "name": "",
          "type": "string"
        }
      ],
      "name": "UriChanged",
      "type": "event"
    },
    {
      "inputs": [],
      "name": "addNewArtifact",
      "outputs": [],
      "stateMutability": "nonpayable",
      "type": "function"
    },
    {
      "inputs": [
        {
          "internalType": "address",
          "name": "account",
          "type": "address"
        },
        {
          "internalType": "uint256",
          "name": "id",
          "type": "uint256"
        }
      ],
      "name": "balanceOf",
      "outputs": [
        {
          "internalType": "uint256",
          "name": "",
          "type": "uint256"
        }
      ],
      "stateMutability": "view",
      "type": "function"
    },
    {
      "inputs": [
        {
          "internalType": "address[]",
          "name": "accounts",
          "type": "address[]"
        },
        {
          "internalType": "uint256[]",
          "name": "ids",
          "type": "uint256[]"
        }
      ],
      "name": "balanceOfBatch",
      "outputs": [
        {
          "internalType": "uint256[]",
          "name": "",
          "type": "uint256[]"
        }
      ],
      "stateMutability": "view",
      "type": "function"
    },
    {
      "inputs": [],
      "name": "getArtifactsTypesAmount",
      "outputs": [
        {
          "internalType": "uint256",
          "name": "",
          "type": "uint256"
        }
      ],
      "stateMutability": "view",
      "type": "function"
    },
    {
      "inputs": [],
      "name": "getBaseUri",
      "outputs": [
        {
          "internalType": "string",
          "name": "",
          "type": "string"
        }
      ],
      "stateMutability": "view",
      "type": "function"
    },
    {
      "inputs": [
        {
          "internalType": "address",
          "name": "_toolsContractAddress",
          "type": "address"
        },
        {
          "internalType": "string",
          "name": "_baseUrl",
          "type": "string"
        },
        {
          "internalType": "address",
          "name": "_blackListContractAddress",
          "type": "address"
        }
      ],
      "name": "initialize",
      "outputs": [],
      "stateMutability": "nonpayable",
      "type": "function"
    },
    {
      "inputs": [
        {
          "internalType": "address",
          "name": "account",
          "type": "address"
        },
        {
          "internalType": "address",
          "name": "operator",
          "type": "address"
        }
      ],
      "name": "isApprovedForAll",
      "outputs": [
        {
          "internalType": "bool",
          "name": "",
          "type": "bool"
        }
      ],
      "stateMutability": "view",
      "type": "function"
    },
    {
      "inputs": [
        {
          "internalType": "address",
          "name": "user",
          "type": "address"
        },
        {
          "internalType": "uint256",
          "name": "artifactType",
          "type": "uint256"
        }
      ],
      "name": "lootArtifact",
      "outputs": [],
      "stateMutability": "nonpayable",
      "type": "function"
    },
    {
      "inputs": [
        {
          "internalType": "uint256",
          "name": "artifactType",
          "type": "uint256"
        },
        {
          "internalType": "address",
          "name": "to",
          "type": "address"
        },
        {
          "internalType": "uint256",
          "name": "amount",
          "type": "uint256"
        },
        {
          "internalType": "bytes",
          "name": "data",
          "type": "bytes"
        }
      ],
      "name": "mint",
      "outputs": [],
      "stateMutability": "nonpayable",
      "type": "function"
    },
    {
      "inputs": [
        {
          "internalType": "address",
          "name": "to",
          "type": "address"
        },
        {
          "internalType": "uint256[]",
          "name": "ids",
          "type": "uint256[]"
        },
        {
          "internalType": "uint256[]",
          "name": "amounts",
          "type": "uint256[]"
        },
        {
          "internalType": "bytes",
          "name": "data",
          "type": "bytes"
        }
      ],
      "name": "mintBatch",
      "outputs": [],
      "stateMutability": "nonpayable",
      "type": "function"
    },
    {
      "inputs": [],
      "name": "owner",
      "outputs": [
        {
          "internalType": "address",
          "name": "",
          "type": "address"
        }
      ],
      "stateMutability": "view",
      "type": "function"
    },
    {
      "inputs": [],
      "name": "pause",
      "outputs": [],
      "stateMutability": "nonpayable",
      "type": "function"
    },
    {
      "inputs": [],
      "name": "paused",
      "outputs": [
        {
          "internalType": "bool",
          "name": "",
          "type": "bool"
        }
      ],
      "stateMutability": "view",
      "type": "function"
    },
    {
      "inputs": [],
      "name": "renounceOwnership",
      "outputs": [],
      "stateMutability": "nonpayable",
      "type": "function"
    },
    {
      "inputs": [
        {
          "internalType": "address",
          "name": "from",
          "type": "address"
        },
        {
          "internalType": "address",
          "name": "to",
          "type": "address"
        },
        {
          "internalType": "uint256[]",
          "name": "ids",
          "type": "uint256[]"
        },
        {
          "internalType": "uint256[]",
          "name": "amounts",
          "type": "uint256[]"
        },
        {
          "internalType": "bytes",
          "name": "data",
          "type": "bytes"
        }
      ],
      "name": "safeBatchTransferFrom",
      "outputs": [],
      "stateMutability": "nonpayable",
      "type": "function"
    },
    {
      "inputs": [
        {
          "internalType": "address",
          "name": "from",
          "type": "address"
        },
        {
          "internalType": "address",
          "name": "to",
          "type": "address"
        },
        {
          "internalType": "uint256",
          "name": "id",
          "type": "uint256"
        },
        {
          "internalType": "uint256",
          "name": "amount",
          "type": "uint256"
        },
        {
          "internalType": "bytes",
          "name": "data",
          "type": "bytes"
        }
      ],
      "name": "safeTransferFrom",
      "outputs": [],
      "stateMutability": "nonpayable",
      "type": "function"
    },
    {
      "inputs": [
        {
          "internalType": "address",
          "name": "operator",
          "type": "address"
        },
        {
          "internalType": "bool",
          "name": "approved",
          "type": "bool"
        }
      ],
      "name": "setApprovalForAll",
      "outputs": [],
      "stateMutability": "nonpayable",
      "type": "function"
    },
    {
      "inputs": [
        {
          "internalType": "string",
          "name": "newBaseUri",
          "type": "string"
        }
      ],
      "name": "setBaseUri",
      "outputs": [],
      "stateMutability": "nonpayable",
      "type": "function"
    },
    {
      "inputs": [
        {
          "internalType": "address",
          "name": "toolsAddress",
          "type": "address"
        }
      ],
      "name": "setToolsAddress",
      "outputs": [],
      "stateMutability": "nonpayable",
      "type": "function"
    },
    {
      "inputs": [
        {
          "internalType": "uint256",
          "name": "artifactType",
          "type": "uint256"
        },
        {
          "internalType": "string",
          "name": "newUri",
          "type": "string"
        }
      ],
      "name": "setUri",
      "outputs": [],
      "stateMutability": "nonpayable",
      "type": "function"
    },
    {
      "inputs": [
        {
          "internalType": "bytes4",
          "name": "interfaceId",
          "type": "bytes4"
        }
      ],
      "name": "supportsInterface",
      "outputs": [
        {
          "internalType": "bool",
          "name": "",
          "type": "bool"
        }
      ],
      "stateMutability": "view",
      "type": "function"
    },
    {
      "inputs": [
        {
          "internalType": "address",
          "name": "newOwner",
          "type": "address"
        }
      ],
      "name": "transferOwnership",
      "outputs": [],
      "stateMutability": "nonpayable",
      "type": "function"
    },
    {
      "inputs": [
        {
          "internalType": "uint256",
          "name": "artifactType",
          "type": "uint256"
        }
      ],
      "name": "uri",
      "outputs": [
        {
          "internalType": "string",
          "name": "",
          "type": "string"
        }
      ],
      "stateMutability": "view",
      "type": "function"
    }
  ],
  "bytecode": "0x608060405234801561001057600080fd5b50612a35806100206000396000f3fe608060405234801561001057600080fd5b506004361061011c5760003560e01c8062fdd58e1461012157806301ffc9a7146101475780630cac36b21461016a5780630e89341c1461017f5780631f7fdffa146101925780632eb2c2d6146101a75780634e1273f4146101ba5780635c975abb146101da578063715018a6146101e5578063782f08ae146101ed5780637bb7c0d8146102005780638456cb59146102135780638da5cb5b1461021b57806394cf7cd014610230578063a0bcfc7f14610243578063a22cb46514610256578063ac2a301014610269578063c77b66c21461027c578063daa6c7551461028f578063e985e9c514610297578063ed9e8452146102d3578063f242432a146102db578063f2fde38b146102ee575b600080fd5b61013461012f366004611c1c565b610301565b6040519081526020015b60405180910390f35b61015a610155366004611c5e565b610399565b604051901515815260200161013e565b6101726103eb565b60405161013e9190611cda565b61017261018d366004611ced565b61047d565b6101a56101a0366004611e59565b61053f565b005b6101a56101b5366004611ef3565b610691565b6101cd6101c8366004611fa0565b6106d6565b60405161013e91906120a7565b60c95460ff1661015a565b6101a56107ff565b6101a56101fb366004612102565b610813565b6101a561020e36600461214d565b61082b565b6101a56109b0565b6102236109d2565b60405161013e91906121c4565b6101a561023e3660046121d8565b6109e1565b6101a56102513660046121f5565b610a5b565b6101a5610264366004612244565b610a71565b6101a5610277366004611c1c565b610a7c565b6101a561028a36600461227d565b610b8e565b60fe54610134565b61015a6102a53660046122d3565b6001600160a01b03918216600090815260986020908152604080832093909416825291909152205460ff1690565b6101a5610c5c565b6101a56102e9366004612301565b610c6c565b6101a56102fc3660046121d8565b610cb1565b60006001600160a01b0383166103715760405162461bcd60e51b815260206004820152602a60248201527f455243313135353a2061646472657373207a65726f206973206e6f742061207660448201526930b634b21037bbb732b960b11b60648201526084015b60405180910390fd5b5060009081526097602090815260408083206001600160a01b03949094168352929052205490565b60006001600160e01b03198216636cdb3d1360e11b14806103ca57506001600160e01b031982166303a24d0760e21b145b806103e557506301ffc9a760e01b6001600160e01b03198316145b92915050565b606060fd80546103fa90612369565b80601f016020809104026020016040519081016040528092919081815260200182805461042690612369565b80156104735780601f1061044857610100808354040283529160200191610473565b820191906000526020600020905b81548152906001019060200180831161045657829003601f168201915b5050505050905090565b606060fe548211156104a15760405162461bcd60e51b8152600401610368906123a4565b600082815260ff6020526040902080546104ba90612369565b80601f01602080910402602001604051908101604052809291908181526020018280546104e690612369565b80156105335780601f1061050857610100808354040283529160200191610533565b820191906000526020600020905b81548152906001019060200180831161051657829003601f168201915b50505050509050919050565b610547610d2a565b61054f610d89565b60fb54604051631846d2f560e31b815285916001600160a01b03169063c23697a89061057f9084906004016121c4565b6020604051808303816000875af115801561059e573d6000803e3d6000fd5b505050506040513d601f19601f820116820180604052508101906105c291906123ea565b156105df5760405162461bcd60e51b815260040161036890612407565b60005b845181101561067d5760fe548582815181106106005761060061243d565b6020026020010151111561066b5760405162461bcd60e51b815260206004820152602c60248201527f4172746966616374733a2074686973206172746966616374207479706520646f60448201526b65736e27742065786973747360a01b6064820152608401610368565b8061067581612469565b9150506105e2565b5061068a85858585610dcf565b5050505050565b6001600160a01b0385163314806106ad57506106ad85336102a5565b6106c95760405162461bcd60e51b815260040161036890612484565b61068a8585858585610f09565b6060815183511461073b5760405162461bcd60e51b815260206004820152602960248201527f455243313135353a206163636f756e747320616e6420696473206c656e677468604482015268040dad2e6dac2e8c6d60bb1b6064820152608401610368565b600083516001600160401b0381111561075657610756611d06565b60405190808252806020026020018201604052801561077f578160200160208202803683370190505b50905060005b84518110156107f7576107ca8582815181106107a3576107a361243d565b60200260200101518583815181106107bd576107bd61243d565b6020026020010151610301565b8282815181106107dc576107dc61243d565b60209081029190910101526107f081612469565b9050610785565b509392505050565b610807610d2a565b6108116000611096565b565b61081b610d2a565b6108268383836110e8565b505050565b600054610100900460ff161580801561084b5750600054600160ff909116105b8061086c575061085a30611164565b15801561086c575060005460ff166001145b6108cf5760405162461bcd60e51b815260206004820152602e60248201527f496e697469616c697a61626c653a20636f6e747261637420697320616c72656160448201526d191e481a5b9a5d1a585b1a5e995960921b6064820152608401610368565b6000805460ff1916600117905580156108f2576000805461ff0019166101001790555b60fc80546001600160a01b0319166001600160a01b03861617905582516109209060fd906020860190611afa565b5060fb80546001600160a01b0319166001600160a01b03841617905560408051602081019091526000815261095490611173565b61095c6111a3565b6109646111d2565b80156109aa576000805461ff0019169055604051600181527f7f26b83ff96e1f2b6a682f133852f6798a09c465da95921460cefb38474024989060200160405180910390a15b50505050565b6109b8610d2a565b60c95460ff166109ca57610811611201565b610811611255565b6033546001600160a01b031690565b6109e9610d2a565b6001600160a01b038116610a395760405162461bcd60e51b81526020600482015260176024820152764172746966616374733a207a65726f206164647265737360481b6044820152606401610368565b60fc80546001600160a01b0319166001600160a01b0392909216919091179055565b610a63610d2a565b610a6d828261128e565b5050565b610a6d3383836112d8565b60fc60009054906101000a90046001600160a01b03166001600160a01b03166343cac2b16040518163ffffffff1660e01b8152600401602060405180830381865afa158015610acf573d6000803e3d6000fd5b505050506040513d601f19601f82011682018060405250810190610af391906124d2565b6001600160a01b0316336001600160a01b031614610b725760405162461bcd60e51b815260206004820152603660248201527f4172746966616374733a206f6e6c79206d696e696e6720636f6e74726163742060448201527531b0b71031b0b636103a3434b990333ab731ba34b7b760511b6064820152608401610368565b610a6d82826001604051806020016040528060008152506113b9565b610b96610d2a565b610b9e610d89565b60fb54604051631846d2f560e31b815284916001600160a01b03169063c23697a890610bce9084906004016121c4565b6020604051808303816000875af1158015610bed573d6000803e3d6000fd5b505050506040513d601f19601f82011682018060405250810190610c1191906123ea565b15610c2e5760405162461bcd60e51b815260040161036890612407565b60fe54851115610c505760405162461bcd60e51b8152600401610368906123a4565b61068a848685856113b9565b610c64610d2a565b610811611483565b6001600160a01b038516331480610c885750610c8885336102a5565b610ca45760405162461bcd60e51b815260040161036890612484565b61068a858585858561157e565b610cb9610d2a565b6001600160a01b038116610d1e5760405162461bcd60e51b815260206004820152602660248201527f4f776e61626c653a206e6577206f776e657220697320746865207a65726f206160448201526564647265737360d01b6064820152608401610368565b610d2781611096565b50565b33610d336109d2565b6001600160a01b0316146108115760405162461bcd60e51b815260206004820181905260248201527f4f776e61626c653a2063616c6c6572206973206e6f7420746865206f776e65726044820152606401610368565b60c95460ff16156108115760405162461bcd60e51b815260206004820152601060248201526f14185d5cd8589b194e881c185d5cd95960821b6044820152606401610368565b6001600160a01b038416610df55760405162461bcd60e51b8152600401610368906124ef565b8151835114610e165760405162461bcd60e51b815260040161036890612530565b3360005b8451811015610eb357838181518110610e3557610e3561243d565b602002602001015160976000878481518110610e5357610e5361243d565b602002602001015181526020019081526020016000206000886001600160a01b03166001600160a01b031681526020019081526020016000206000828254610e9b9190612578565b90915550819050610eab81612469565b915050610e1a565b50846001600160a01b031660006001600160a01b0316826001600160a01b03166000805160206129c08339815191528787604051610ef2929190612590565b60405180910390a461068a8160008787878761169a565b8151835114610f2a5760405162461bcd60e51b815260040161036890612530565b6001600160a01b038416610f505760405162461bcd60e51b8152600401610368906125be565b3360005b845181101561103a576000858281518110610f7157610f7161243d565b602002602001015190506000858381518110610f8f57610f8f61243d565b60209081029190910181015160008481526097835260408082206001600160a01b038e168352909352919091205490915081811015610fe05760405162461bcd60e51b815260040161036890612603565b60008381526097602090815260408083206001600160a01b038e8116855292528083208585039055908b1682528120805484929061101f908490612578565b925050819055505050508061103390612469565b9050610f54565b50846001600160a01b0316866001600160a01b0316826001600160a01b03166000805160206129c08339815191528787604051611078929190612590565b60405180910390a461108e81878787878761169a565b505050505050565b603380546001600160a01b038381166001600160a01b0319831681179093556040519116919082907f8be0079c531659141344cd1fd0a4f28419497f9722a3daafe3b4186f6b6457e090600090a35050565b60fe5483111561110a5760405162461bcd60e51b8152600401610368906123a4565b600083815260ff60205260409020611123908383611b7e565b507f727278078475575154367bc16a7a4b8594316c9855643162a77c49ebdd8d2b0883838360405161115793929190612676565b60405180910390a1505050565b6001600160a01b03163b151590565b600054610100900460ff1661119a5760405162461bcd60e51b815260040161036890612690565b610d27816117fd565b600054610100900460ff166111ca5760405162461bcd60e51b815260040161036890612690565b61081161182d565b600054610100900460ff166111f95760405162461bcd60e51b815260040161036890612690565b61081161185d565b611209610d89565b60c9805460ff191660011790557f62e78cea01bee320cd4e420270b5ea74000d11b0c9f74754ebdbfc544b05a25861123e3390565b60405161124b91906121c4565b60405180910390a1565b61125d611890565b60c9805460ff191690557f5db9ee0a495bf2e6ff9c91a7834c1ba4fdd244a5e8aa4e537bd38aeae4b073aa3361123e565b61129a60fd8383611b7e565b507f87cdeaffd8e70903d6ce7cc983fac3b09ca79e83818124c98e47a1d70f8027d682826040516112cc9291906126db565b60405180910390a15050565b816001600160a01b0316836001600160a01b0316141561134c5760405162461bcd60e51b815260206004820152602960248201527f455243313135353a2073657474696e6720617070726f76616c20737461747573604482015268103337b91039b2b63360b91b6064820152608401610368565b6001600160a01b03838116600081815260986020908152604080832094871680845294825291829020805460ff191686151590811790915591519182527f17307eab39ab6107e8899845ad3d59bd9653f200f220920489ca2b5937696c31910160405180910390a3505050565b6001600160a01b0384166113df5760405162461bcd60e51b8152600401610368906124ef565b3360006113eb856118d9565b905060006113f8856118d9565b905060008681526097602090815260408083206001600160a01b038b1684529091528120805487929061142c908490612578565b909155505060408051878152602081018790526001600160a01b03808a1692600092918716916000805160206129e0833981519152910160405180910390a461147a83600089898989611924565b50505050505050565b600160fe60008282546114969190612578565b909155505060fc5460408051630ebb956d60e01b815290516001600160a01b0390921691630ebb956d9160048082019260009290919082900301818387803b1580156114e157600080fd5b505af11580156114f5573d6000803e3d6000fd5b5050505060fd61150660fe546119e6565b60405160200161151792919061270b565b60408051601f1981840301815291815260fe54600090815260ff6020908152919020825161154a93919290910190611afa565b507f1b62dd3d3d4d94e83dc4eb3f8fe1fd04165796d790d0807467a1f58a7dd8a74a60fe5460405161124b91815260200190565b6001600160a01b0384166115a45760405162461bcd60e51b8152600401610368906125be565b3360006115b0856118d9565b905060006115bd856118d9565b905060008681526097602090815260408083206001600160a01b038c168452909152902054858110156116025760405162461bcd60e51b815260040161036890612603565b60008781526097602090815260408083206001600160a01b038d8116855292528083208985039055908a16825281208054889290611641908490612578565b909155505060408051888152602081018890526001600160a01b03808b16928c821692918816916000805160206129e0833981519152910160405180910390a461168f848a8a8a8a8a611924565b505050505050505050565b6116ac846001600160a01b0316611164565b1561108e5760405163bc197c8160e01b81526001600160a01b0385169063bc197c81906116e590899089908890889088906004016127bd565b6020604051808303816000875af1925050508015611720575060408051601f3d908101601f1916820190925261171d9181019061281b565b60015b6117cd5761172c612838565b806308c379a014156117665750611741612854565b8061174c5750611768565b8060405162461bcd60e51b81526004016103689190611cda565b505b60405162461bcd60e51b815260206004820152603460248201527f455243313135353a207472616e7366657220746f206e6f6e2d455243313135356044820152732932b1b2b4bb32b91034b6b83632b6b2b73a32b960611b6064820152608401610368565b6001600160e01b0319811663bc197c8160e01b1461147a5760405162461bcd60e51b8152600401610368906128dd565b600054610100900460ff166118245760405162461bcd60e51b815260040161036890612690565b610d2781611aeb565b600054610100900460ff166118545760405162461bcd60e51b815260040161036890612690565b61081133611096565b600054610100900460ff166118845760405162461bcd60e51b815260040161036890612690565b60c9805460ff19169055565b60c95460ff166108115760405162461bcd60e51b815260206004820152601460248201527314185d5cd8589b194e881b9bdd081c185d5cd95960621b6044820152606401610368565b604080516001808252818301909252606091600091906020808301908036833701905050905082816000815181106119135761191361243d565b602090810291909101015292915050565b611936846001600160a01b0316611164565b1561108e5760405163f23a6e6160e01b81526001600160a01b0385169063f23a6e619061196f9089908990889088908890600401612925565b6020604051808303816000875af19250505080156119aa575060408051601f3d908101601f191682019092526119a79181019061281b565b60015b6119b65761172c612838565b6001600160e01b0319811663f23a6e6160e01b1461147a5760405162461bcd60e51b8152600401610368906128dd565b606081611a0a5750506040805180820190915260018152600360fc1b602082015290565b8160005b8115611a345780611a1e81612469565b9150611a2d9050600a83612980565b9150611a0e565b6000816001600160401b03811115611a4e57611a4e611d06565b6040519080825280601f01601f191660200182016040528015611a78576020820181803683370190505b5090505b8415611ae357611a8d600183612994565b9150611a9a600a866129ab565b611aa5906030612578565b60f81b818381518110611aba57611aba61243d565b60200101906001600160f81b031916908160001a905350611adc600a86612980565b9450611a7c565b949350505050565b8051610a6d9060999060208401905b828054611b0690612369565b90600052602060002090601f016020900481019282611b285760008555611b6e565b82601f10611b4157805160ff1916838001178555611b6e565b82800160010185558215611b6e579182015b82811115611b6e578251825591602001919060010190611b53565b50611b7a929150611bf2565b5090565b828054611b8a90612369565b90600052602060002090601f016020900481019282611bac5760008555611b6e565b82601f10611bc55782800160ff19823516178555611b6e565b82800160010185558215611b6e579182015b82811115611b6e578235825591602001919060010190611bd7565b5b80821115611b7a5760008155600101611bf3565b6001600160a01b0381168114610d2757600080fd5b60008060408385031215611c2f57600080fd5b8235611c3a81611c07565b946020939093013593505050565b6001600160e01b031981168114610d2757600080fd5b600060208284031215611c7057600080fd5b8135611c7b81611c48565b9392505050565b60005b83811015611c9d578181015183820152602001611c85565b838111156109aa5750506000910152565b60008151808452611cc6816020860160208601611c82565b601f01601f19169290920160200192915050565b602081526000611c7b6020830184611cae565b600060208284031215611cff57600080fd5b5035919050565b634e487b7160e01b600052604160045260246000fd5b601f8201601f191681016001600160401b0381118282101715611d4157611d41611d06565b6040525050565b60006001600160401b03821115611d6157611d61611d06565b5060051b60200190565b600082601f830112611d7c57600080fd5b81356020611d8982611d48565b604051611d968282611d1c565b83815260059390931b8501820192828101915086841115611db657600080fd5b8286015b84811015611dd15780358352918301918301611dba565b509695505050505050565b60006001600160401b03831115611df557611df5611d06565b604051611e0c601f8501601f191660200182611d1c565b809150838152848484011115611e2157600080fd5b83836020830137600060208583010152509392505050565b600082601f830112611e4a57600080fd5b611c7b83833560208501611ddc565b60008060008060808587031215611e6f57600080fd5b8435611e7a81611c07565b935060208501356001600160401b0380821115611e9657600080fd5b611ea288838901611d6b565b94506040870135915080821115611eb857600080fd5b611ec488838901611d6b565b93506060870135915080821115611eda57600080fd5b50611ee787828801611e39565b91505092959194509250565b600080600080600060a08688031215611f0b57600080fd5b8535611f1681611c07565b94506020860135611f2681611c07565b935060408601356001600160401b0380821115611f4257600080fd5b611f4e89838a01611d6b565b94506060880135915080821115611f6457600080fd5b611f7089838a01611d6b565b93506080880135915080821115611f8657600080fd5b50611f9388828901611e39565b9150509295509295909350565b60008060408385031215611fb357600080fd5b82356001600160401b0380821115611fca57600080fd5b818501915085601f830112611fde57600080fd5b81356020611feb82611d48565b604051611ff88282611d1c565b83815260059390931b850182019282810191508984111561201857600080fd5b948201945b8386101561203f57853561203081611c07565b8252948201949082019061201d565b9650508601359250508082111561205557600080fd5b5061206285828601611d6b565b9150509250929050565b600081518084526020808501945080840160005b8381101561209c57815187529582019590820190600101612080565b509495945050505050565b602081526000611c7b602083018461206c565b60008083601f8401126120cc57600080fd5b5081356001600160401b038111156120e357600080fd5b6020830191508360208285010111156120fb57600080fd5b9250929050565b60008060006040848603121561211757600080fd5b8335925060208401356001600160401b0381111561213457600080fd5b612140868287016120ba565b9497909650939450505050565b60008060006060848603121561216257600080fd5b833561216d81611c07565b925060208401356001600160401b0381111561218857600080fd5b8401601f8101861361219957600080fd5b6121a886823560208401611ddc565b92505060408401356121b981611c07565b809150509250925092565b6001600160a01b0391909116815260200190565b6000602082840312156121ea57600080fd5b8135611c7b81611c07565b6000806020838503121561220857600080fd5b82356001600160401b0381111561221e57600080fd5b61222a858286016120ba565b90969095509350505050565b8015158114610d2757600080fd5b6000806040838503121561225757600080fd5b823561226281611c07565b9150602083013561227281612236565b809150509250929050565b6000806000806080858703121561229357600080fd5b8435935060208501356122a581611c07565b92506040850135915060608501356001600160401b038111156122c757600080fd5b611ee787828801611e39565b600080604083850312156122e657600080fd5b82356122f181611c07565b9150602083013561227281611c07565b600080600080600060a0868803121561231957600080fd5b853561232481611c07565b9450602086013561233481611c07565b9350604086013592506060860135915060808601356001600160401b0381111561235d57600080fd5b611f9388828901611e39565b600181811c9082168061237d57607f821691505b6020821081141561239e57634e487b7160e01b600052602260045260246000fd5b50919050565b60208082526026908201527f4172746966616374733a205468697320617274696661637420646f65736e277460408201526508195e1a5cdd60d21b606082015260800190565b6000602082840312156123fc57600080fd5b8151611c7b81612236565b6020808252601c908201527b105c9d1a599858dd1cce881d5cd95c881a5b88189b1858dadb1a5cdd60221b604082015260600190565b634e487b7160e01b600052603260045260246000fd5b634e487b7160e01b600052601160045260246000fd5b600060001982141561247d5761247d612453565b5060010190565b6020808252602e908201527f455243313135353a2063616c6c6572206973206e6f7420746f6b656e206f776e60408201526d195c881bdc88185c1c1c9bdd995960921b606082015260800190565b6000602082840312156124e457600080fd5b8151611c7b81611c07565b60208082526021908201527f455243313135353a206d696e7420746f20746865207a65726f206164647265736040820152607360f81b606082015260800190565b60208082526028908201527f455243313135353a2069647320616e6420616d6f756e7473206c656e677468206040820152670dad2e6dac2e8c6d60c31b606082015260800190565b6000821982111561258b5761258b612453565b500190565b6040815260006125a3604083018561206c565b82810360208401526125b5818561206c565b95945050505050565b60208082526025908201527f455243313135353a207472616e7366657220746f20746865207a65726f206164604082015264647265737360d81b606082015260800190565b6020808252602a908201527f455243313135353a20696e73756666696369656e742062616c616e636520666f60408201526939103a3930b739b332b960b11b606082015260800190565b81835281816020850137506000828201602090810191909152601f909101601f19169091010190565b8381526040602082015260006125b560408301848661264d565b6020808252602b908201527f496e697469616c697a61626c653a20636f6e7472616374206973206e6f74206960408201526a6e697469616c697a696e6760a81b606082015260800190565b602081526000611ae360208301848661264d565b60008151612701818560208601611c82565b9290920192915050565b600080845481600182811c91508083168061272757607f831692505b602080841082141561274757634e487b7160e01b86526022600452602486fd5b81801561275b576001811461276c57612799565b60ff19861689528489019650612799565b60008b81526020902060005b868110156127915781548b820152908501908301612778565b505084890196505b5050505050506125b56127ac82866126ef565b64173539b7b760d91b815260050190565b6001600160a01b0386811682528516602082015260a0604082018190526000906127e99083018661206c565b82810360608401526127fb818661206c565b9050828103608084015261280f8185611cae565b98975050505050505050565b60006020828403121561282d57600080fd5b8151611c7b81611c48565b600060033d11156128515760046000803e5060005160e01c5b90565b600060443d10156128625790565b6040516003193d81016004833e81513d6001600160401b03808311602484018310171561289157505050505090565b82850191508151818111156128a95750505050505090565b843d87010160208285010111156128c35750505050505090565b6128d260208286010187611d1c565b509095945050505050565b60208082526028908201527f455243313135353a204552433131353552656365697665722072656a656374656040820152676420746f6b656e7360c01b606082015260800190565b6001600160a01b03868116825285166020820152604081018490526060810183905260a06080820181905260009061295f90830184611cae565b979650505050505050565b634e487b7160e01b600052601260045260246000fd5b60008261298f5761298f61296a565b500490565b6000828210156129a6576129a6612453565b500390565b6000826129ba576129ba61296a565b50069056fe4a39dc06d4c0dbc64b70af90fd698a233a518aa5d07e595d983b8c0526c8f7fbc3d58168c5ae7397731d063d5bbf3d657854427343f4c083240f7aacaa2d0f62a2646970667358221220f9dc4c9e8541fe7455df65fd72d58c6b5fe080544bda5e963bad96828b71d5c264736f6c634300080c0033",
  "linkReferences": {},
  "deployedLinkReferences": {}
}