{
  "_format": "hh-sol-artifact-1",
  "contractName": "Artifacts",
  "sourceName": "contracts/Artifacts.sol",
  "abi": [
    {
      "anonymous": false,
      "inputs": [
        {
          "indexed": false,
          "internalType": "uint256",
          "name": "",
          "type": "uint256"
        }
      ],
      "name": "AddNewArtifact",
      "type": "event"
    },
    {
      "anonymous": false,
      "inputs": [
        {
          "indexed": true,
          "internalType": "address",
          "name": "account",
          "type": "address"
        },
        {
          "indexed": true,
          "internalType": "address",
          "name": "operator",
          "type": "address"
        },
        {
          "indexed": false,
          "internalType": "bool",
          "name": "approved",
          "type": "bool"
        }
      ],
      "name": "ApprovalForAll",
      "type": "event"
    },
    {
      "anonymous": false,
      "inputs": [
        {
          "indexed": false,
          "internalType": "uint8",
          "name": "version",
          "type": "uint8"
        }
      ],
      "name": "Initialized",
      "type": "event"
    },
    {
      "anonymous": false,
      "inputs": [
        {
          "indexed": true,
          "internalType": "address",
          "name": "previousOwner",
          "type": "address"
        },
        {
          "indexed": true,
          "internalType": "address",
          "name": "newOwner",
          "type": "address"
        }
      ],
      "name": "OwnershipTransferred",
      "type": "event"
    },
    {
      "anonymous": false,
      "inputs": [
        {
          "indexed": false,
          "internalType": "address",
          "name": "account",
          "type": "address"
        }
      ],
      "name": "Paused",
      "type": "event"
    },
    {
      "anonymous": false,
      "inputs": [
        {
          "indexed": true,
          "internalType": "address",
          "name": "operator",
          "type": "address"
        },
        {
          "indexed": true,
          "internalType": "address",
          "name": "from",
          "type": "address"
        },
        {
          "indexed": true,
          "internalType": "address",
          "name": "to",
          "type": "address"
        },
        {
          "indexed": false,
          "internalType": "uint256[]",
          "name": "ids",
          "type": "uint256[]"
        },
        {
          "indexed": false,
          "internalType": "uint256[]",
          "name": "values",
          "type": "uint256[]"
        }
      ],
      "name": "TransferBatch",
      "type": "event"
    },
    {
      "anonymous": false,
      "inputs": [
        {
          "indexed": true,
          "internalType": "address",
          "name": "operator",
          "type": "address"
        },
        {
          "indexed": true,
          "internalType": "address",
          "name": "from",
          "type": "address"
        },
        {
          "indexed": true,
          "internalType": "address",
          "name": "to",
          "type": "address"
        },
        {
          "indexed": false,
          "internalType": "uint256",
          "name": "id",
          "type": "uint256"
        },
        {
          "indexed": false,
          "internalType": "uint256",
          "name": "value",
          "type": "uint256"
        }
      ],
      "name": "TransferSingle",
      "type": "event"
    },
    {
      "anonymous": false,
      "inputs": [
        {
          "indexed": false,
          "internalType": "string",
          "name": "value",
          "type": "string"
        },
        {
          "indexed": true,
          "internalType": "uint256",
          "name": "id",
          "type": "uint256"
        }
      ],
      "name": "URI",
      "type": "event"
    },
    {
      "anonymous": false,
      "inputs": [
        {
          "indexed": false,
          "internalType": "address",
          "name": "account",
          "type": "address"
        }
      ],
      "name": "Unpaused",
      "type": "event"
    },
    {
      "inputs": [],
      "name": "addNewArtifact",
      "outputs": [],
      "stateMutability": "nonpayable",
      "type": "function"
    },
    {
      "inputs": [
        {
          "internalType": "address",
          "name": "account",
          "type": "address"
        },
        {
          "internalType": "uint256",
          "name": "id",
          "type": "uint256"
        }
      ],
      "name": "balanceOf",
      "outputs": [
        {
          "internalType": "uint256",
          "name": "",
          "type": "uint256"
        }
      ],
      "stateMutability": "view",
      "type": "function"
    },
    {
      "inputs": [
        {
          "internalType": "address[]",
          "name": "accounts",
          "type": "address[]"
        },
        {
          "internalType": "uint256[]",
          "name": "ids",
          "type": "uint256[]"
        }
      ],
      "name": "balanceOfBatch",
      "outputs": [
        {
          "internalType": "uint256[]",
          "name": "",
          "type": "uint256[]"
        }
      ],
      "stateMutability": "view",
      "type": "function"
    },
    {
      "inputs": [],
      "name": "getArtifactsTypesAmount",
      "outputs": [
        {
          "internalType": "uint256",
          "name": "",
          "type": "uint256"
        }
      ],
      "stateMutability": "view",
      "type": "function"
    },
    {
      "inputs": [
        {
          "internalType": "address",
          "name": "_toolsContractAddress",
          "type": "address"
        },
        {
          "internalType": "string",
          "name": "_baseUrl",
          "type": "string"
        },
        {
          "internalType": "address",
          "name": "_blackListContractAddress",
          "type": "address"
        }
      ],
      "name": "initialize",
      "outputs": [],
      "stateMutability": "nonpayable",
      "type": "function"
    },
    {
      "inputs": [
        {
          "internalType": "address",
          "name": "account",
          "type": "address"
        },
        {
          "internalType": "address",
          "name": "operator",
          "type": "address"
        }
      ],
      "name": "isApprovedForAll",
      "outputs": [
        {
          "internalType": "bool",
          "name": "",
          "type": "bool"
        }
      ],
      "stateMutability": "view",
      "type": "function"
    },
    {
      "inputs": [
        {
          "internalType": "address",
          "name": "user",
          "type": "address"
        },
        {
          "internalType": "uint256",
          "name": "artifactType",
          "type": "uint256"
        }
      ],
      "name": "lootArtifact",
      "outputs": [],
      "stateMutability": "nonpayable",
      "type": "function"
    },
    {
      "inputs": [
        {
          "internalType": "uint256",
          "name": "artifactType",
          "type": "uint256"
        },
        {
          "internalType": "address",
          "name": "to",
          "type": "address"
        },
        {
          "internalType": "uint256",
          "name": "amount",
          "type": "uint256"
        },
        {
          "internalType": "bytes",
          "name": "data",
          "type": "bytes"
        }
      ],
      "name": "mint",
      "outputs": [],
      "stateMutability": "nonpayable",
      "type": "function"
    },
    {
      "inputs": [
        {
          "internalType": "address",
          "name": "to",
          "type": "address"
        },
        {
          "internalType": "uint256[]",
          "name": "ids",
          "type": "uint256[]"
        },
        {
          "internalType": "uint256[]",
          "name": "amounts",
          "type": "uint256[]"
        },
        {
          "internalType": "bytes",
          "name": "data",
          "type": "bytes"
        }
      ],
      "name": "mintBatch",
      "outputs": [],
      "stateMutability": "nonpayable",
      "type": "function"
    },
    {
      "inputs": [],
      "name": "owner",
      "outputs": [
        {
          "internalType": "address",
          "name": "",
          "type": "address"
        }
      ],
      "stateMutability": "view",
      "type": "function"
    },
    {
      "inputs": [],
      "name": "pause",
      "outputs": [],
      "stateMutability": "nonpayable",
      "type": "function"
    },
    {
      "inputs": [],
      "name": "paused",
      "outputs": [
        {
          "internalType": "bool",
          "name": "",
          "type": "bool"
        }
      ],
      "stateMutability": "view",
      "type": "function"
    },
    {
      "inputs": [],
      "name": "renounceOwnership",
      "outputs": [],
      "stateMutability": "nonpayable",
      "type": "function"
    },
    {
      "inputs": [
        {
          "internalType": "address",
          "name": "from",
          "type": "address"
        },
        {
          "internalType": "address",
          "name": "to",
          "type": "address"
        },
        {
          "internalType": "uint256[]",
          "name": "ids",
          "type": "uint256[]"
        },
        {
          "internalType": "uint256[]",
          "name": "amounts",
          "type": "uint256[]"
        },
        {
          "internalType": "bytes",
          "name": "data",
          "type": "bytes"
        }
      ],
      "name": "safeBatchTransferFrom",
      "outputs": [],
      "stateMutability": "nonpayable",
      "type": "function"
    },
    {
      "inputs": [
        {
          "internalType": "address",
          "name": "from",
          "type": "address"
        },
        {
          "internalType": "address",
          "name": "to",
          "type": "address"
        },
        {
          "internalType": "uint256",
          "name": "id",
          "type": "uint256"
        },
        {
          "internalType": "uint256",
          "name": "amount",
          "type": "uint256"
        },
        {
          "internalType": "bytes",
          "name": "data",
          "type": "bytes"
        }
      ],
      "name": "safeTransferFrom",
      "outputs": [],
      "stateMutability": "nonpayable",
      "type": "function"
    },
    {
      "inputs": [
        {
          "internalType": "address",
          "name": "operator",
          "type": "address"
        },
        {
          "internalType": "bool",
          "name": "approved",
          "type": "bool"
        }
      ],
      "name": "setApprovalForAll",
      "outputs": [],
      "stateMutability": "nonpayable",
      "type": "function"
    },
    {
      "inputs": [
        {
          "internalType": "address",
          "name": "toolsAddress",
          "type": "address"
        }
      ],
      "name": "setToolsAddress",
      "outputs": [],
      "stateMutability": "nonpayable",
      "type": "function"
    },
    {
      "inputs": [
        {
          "internalType": "bytes4",
          "name": "interfaceId",
          "type": "bytes4"
        }
      ],
      "name": "supportsInterface",
      "outputs": [
        {
          "internalType": "bool",
          "name": "",
          "type": "bool"
        }
      ],
      "stateMutability": "view",
      "type": "function"
    },
    {
      "inputs": [
        {
          "internalType": "address",
          "name": "newOwner",
          "type": "address"
        }
      ],
      "name": "transferOwnership",
      "outputs": [],
      "stateMutability": "nonpayable",
      "type": "function"
    },
    {
      "inputs": [
        {
          "internalType": "uint256",
          "name": "artifactType",
          "type": "uint256"
        }
      ],
      "name": "uri",
      "outputs": [
        {
          "internalType": "string",
          "name": "",
          "type": "string"
        }
      ],
      "stateMutability": "view",
      "type": "function"
    }
  ],
  "bytecode": "0x608060405234801561001057600080fd5b50615481806100206000396000f3fe608060405234801561001057600080fd5b506004361061016b5760003560e01c80638da5cb5b116100cd578063daa6c75511610081578063ed9e845211610066578063ed9e845214610392578063f242432a1461039c578063f2fde38b146103b85761016b565b8063daa6c75514610344578063e985e9c5146103625761016b565b8063a22cb465116100b2578063a22cb465146102f0578063ac2a30101461030c578063c77b66c2146103285761016b565b80638da5cb5b146102b657806394cf7cd0146102d45761016b565b80634e1273f411610124578063715018a611610109578063715018a6146102865780637bb7c0d8146102905780638456cb59146102ac5761016b565b80634e1273f4146102385780635c975abb146102685761016b565b80630e89341c116101555780630e89341c146101d05780631f7fdffa146102005780632eb2c2d61461021c5761016b565b8062fdd58e1461017057806301ffc9a7146101a0575b600080fd5b61018a60048036038101906101859190613756565b6103d4565b60405161019791906137a5565b60405180910390f35b6101ba60048036038101906101b59190613818565b61049e565b6040516101c79190613860565b60405180910390f35b6101ea60048036038101906101e5919061387b565b610580565b6040516101f79190613941565b60405180910390f35b61021a60048036038101906102159190613b60565b61072d565b005b61023660048036038101906102319190613c1b565b610b42565b005b610252600480360381019061024d9190613dad565b610be3565b60405161025f9190613ee3565b60405180910390f35b610270610cfc565b60405161027d9190613860565b60405180910390f35b61028e610d13565b005b6102aa60048036038101906102a59190613fa6565b610d27565b005b6102b46111bd565b005b6102be611375565b6040516102cb9190614024565b60405180910390f35b6102ee60048036038101906102e9919061403f565b61139f565b005b61030a60048036038101906103059190614098565b61158f565b005b61032660048036038101906103219190613756565b6115a5565b005b610342600480360381019061033d91906140d8565b6117fe565b005b61034c611b81565b60405161035991906137a5565b60405180910390f35b61037c6004803603810190610377919061415b565b611c0f565b6040516103899190613860565b60405180910390f35b61039a611ca3565b005b6103b660048036038101906103b1919061419b565b611eb6565b005b6103d260048036038101906103cd919061403f565b611f57565b005b60008073ffffffffffffffffffffffffffffffffffffffff168373ffffffffffffffffffffffffffffffffffffffff161415610445576040517f08c379a000000000000000000000000000000000000000000000000000000000815260040161043c906142a4565b60405180910390fd5b6097600083815260200190815260200160002060008473ffffffffffffffffffffffffffffffffffffffff1673ffffffffffffffffffffffffffffffffffffffff16815260200190815260200160002054905092915050565b60007fd9b67a26000000000000000000000000000000000000000000000000000000007bffffffffffffffffffffffffffffffffffffffffffffffffffffffff1916827bffffffffffffffffffffffffffffffffffffffffffffffffffffffff1916148061056957507f0e89341c000000000000000000000000000000000000000000000000000000007bffffffffffffffffffffffffffffffffffffffffffffffffffffffff1916827bffffffffffffffffffffffffffffffffffffffffffffffffffffffff1916145b80610579575061057882611fdb565b5b9050919050565b60606105ae7fc82702935016706fa91e517a9f95f4b1aebdf6060f5b0faec1518c1554287cfb60001b612045565b6105da7fd9cb241190fa02d9081fd1e55105537c89ee25c76ebcd808ad9e21fcd39a4a0b60001b612045565b6106067f876049b8fc399d835b6d735838f7b51282015c598c62f283a0db10ee67c00f7960001b612045565b6106327fd0e9cba21ec9faf63f9be60860d778eb52de17c06adb56021d6ec49047d5c25660001b612045565b60fe54821115610677576040517f08c379a000000000000000000000000000000000000000000000000000000000815260040161066e90614336565b60405180910390fd5b6106a37fce381859186b7bbea8417e94179e678a8b89133644896e1c0319cae2a13774fc60001b612045565b6106cf7f8a2645b35eb1f5aa293eb5940f4ee89374c60b00fc7f598388cde8fb9b0d51ae60001b612045565b6106fb7fd79601b59d52cd1409ccc5b38291d5670f3115e476e36c639a842ecc17e6977060001b612045565b60fd61070683612048565b6040516020016107179291906144d3565b6040516020818303038152906040529050919050565b6107356121a9565b61073d612227565b8361076a7f8b294bf233ed04f7c2854f8dbe74e98667145936fc8c1994130c162976ed807b60001b612045565b6107967f98713f419d5b164a2c26a33b86a4557f23301268408d312a7f42834d150c894560001b612045565b6107c27fb895dedf58e3db83098d4e93420aadf4a3a83c2cbce157e378905a3f35e5e39360001b612045565b6107ee7ffc711a60114c568bb058a8f12361b5f7ea127000ed563898cf7ced1e585ace4960001b612045565b60fb60009054906101000a900473ffffffffffffffffffffffffffffffffffffffff1673ffffffffffffffffffffffffffffffffffffffff1663c23697a8826040518263ffffffff1660e01b81526004016108499190614024565b6020604051808303816000875af1158015610868573d6000803e3d6000fd5b505050506040513d601f19601f8201168201806040525081019061088c9190614517565b156108cc576040517f08c379a00000000000000000000000000000000000000000000000000000000081526004016108c390614590565b60405180910390fd5b6108f87f63f42e0b214621e051517660ed505fd3ee63371ebc4200ac169e71774baac36e60001b612045565b6109247f27ebe566d66e179f341e861f3b1919673272f226f3e4663917043c113c96f8e660001b612045565b6109507f34829809a5b6e045341da50ac1409d925ad55e7ea39afbceb765b716e24e244660001b612045565b61097c7ffbf842a260e33a9a1efa43868211cb80ca7764893a8ac408e6b6d6b086b9dfeb60001b612045565b6109a87fa2b25428f7bf54457f0f341fabc6b9ec0aa89a1c3edd17d0f87f6b09dde8f0e260001b612045565b60005b8451811015610ad6576109e07f5253d58c9f475a68a4f6a21ee7ea2f1d3b3b18b1b6e617b2300b798b05a7183260001b612045565b610a0c7f74b0f17631c5bbbf2b010843e146fc6ade7296ff5819efbbe56f500c99e7608d60001b612045565b610a387fa7e8f62e09261c4ed9534a224413d65c0a376b8f75f94be79513f9b016e9ceec60001b612045565b60fe54858281518110610a4e57610a4d6145b0565b5b60200260200101511115610a97576040517f08c379a0000000000000000000000000000000000000000000000000000000008152600401610a8e90614651565b60405180910390fd5b610ac37f47435453c0354add6238087acf7558e2a7ec296722837684e9bd9381c7c8b2ec60001b612045565b8080610ace906146a0565b9150506109ab565b50610b037f6f710c34571f59b93466569bc71b213170d409328ad13ea2b53ed24d65b401dd60001b612045565b610b2f7fe2317a900410483ea4b0d4720be64c93368530c8a912d0b62994d86f6afc39cc60001b612045565b610b3b85858585612271565b5050505050565b610b4a61249f565b73ffffffffffffffffffffffffffffffffffffffff168573ffffffffffffffffffffffffffffffffffffffff161480610b905750610b8f85610b8a61249f565b611c0f565b5b610bcf576040517f08c379a0000000000000000000000000000000000000000000000000000000008152600401610bc69061475b565b60405180910390fd5b610bdc85858585856124a7565b5050505050565b60608151835114610c29576040517f08c379a0000000000000000000000000000000000000000000000000000000008152600401610c20906147ed565b60405180910390fd5b6000835167ffffffffffffffff811115610c4657610c45613968565b5b604051908082528060200260200182016040528015610c745781602001602082028036833780820191505090505b50905060005b8451811015610cf157610cc1858281518110610c9957610c986145b0565b5b6020026020010151858381518110610cb457610cb36145b0565b5b60200260200101516103d4565b828281518110610cd457610cd36145b0565b5b60200260200101818152505080610cea906146a0565b9050610c7a565b508091505092915050565b600060c960009054906101000a900460ff16905090565b610d1b6121a9565b610d2560006127cc565b565b60008060019054906101000a900460ff16159050808015610d585750600160008054906101000a900460ff1660ff16105b80610d855750610d6730612892565b158015610d845750600160008054906101000a900460ff1660ff16145b5b610dc4576040517f08c379a0000000000000000000000000000000000000000000000000000000008152600401610dbb9061487f565b60405180910390fd5b60016000806101000a81548160ff021916908360ff1602179055508015610e01576001600060016101000a81548160ff0219169083151502179055505b610e2d7f5814bba0a3f3075d2d614968397c5d2c46b84f66f7cce61eb2caf1815d602f3560001b612045565b610e597fa2e4e535b3c6f341a10f8de9ea01366acfd17bdba1cc6c9f795328e974a7799860001b612045565b610e857f530cf4d66a2f1409c7a4800da548143bb6557dd2fa65ec3d6dacd362fab3b44660001b612045565b8360fc60006101000a81548173ffffffffffffffffffffffffffffffffffffffff021916908373ffffffffffffffffffffffffffffffffffffffff160217905550610ef27f6f68f92d04e6540987ee2264fa3dc6bc172150d3d9251482730624c8de2b6bdd60001b612045565b610f1e7fa1c923083b3a34448baa0faa30535268aab87e15cd7b9db5d7837e19c9b18dd560001b612045565b8260fd9080519060200190610f3492919061360b565b50610f617f63c50ad81dc7e7551a96496aa9a751b90d01bb25f0827c26d37c2d24f5c417e160001b612045565b610f8d7f59eea757420c69bac7b0827f46581d42250ceb111f2bd575bf0271be572982c260001b612045565b8160fb60006101000a81548173ffffffffffffffffffffffffffffffffffffffff021916908373ffffffffffffffffffffffffffffffffffffffff160217905550610ffa7f15689e89db42348a7aa68910cda0b9ae3fa663b76999ad36a8b35c6b22381f8f60001b612045565b6110267fd12985d3aed7a6b10cfea02ab3b0338a3f51e9e700a6195f9cf2c4fd86c90d0160001b612045565b600660fe8190555061105a7f7acdb64c4081d8d845b2e4dde88f12f648338861655261714206ec90f6f0cb9260001b612045565b6110867f116ef3d9c08ffb5235d28040e6bfefb879042ef94f22ba58257f61fca4a6e15e60001b612045565b61109e604051806020016040528060008152506128b5565b6110ca7f7985010e9e087c2b96679313783a23b8a2f1052f052101d17fbd2eb56b7cb56160001b612045565b6110f67febac7b34ebbb52cc5f5197b9e5e72d4c2a3510f9a72b1259666ba2eb6aee189460001b612045565b6110fe612910565b61112a7f6f06aec0269ac738dd3e0ade1fe7764aad3deff541382f864c6ad3e12168d61f60001b612045565b6111567fdf8553b5a71f707b927d8e77f0e0f9ffefc7fb3dad1ee0bf830db85436a9d18060001b612045565b61115e612969565b80156111b75760008060016101000a81548160ff0219169083151502179055507f7f26b83ff96e1f2b6a682f133852f6798a09c465da95921460cefb384740249860016040516111ae91906148f1565b60405180910390a15b50505050565b6111c56121a9565b6111f17f4021e6ac3291eb7227e9f8102410f40ed741b6959fa837f175ed904bdea2c2f460001b612045565b61121d7f23e893b2aa42887191c774f35a86bcb25287175fa2a25968c5b11bd747bbdc6560001b612045565b6112497f4d0fd220700819fc37903064f1b732be1f8cacf7af41dc8d5185c5916d2daf4c60001b612045565b611251610cfc565b6112e6576112817fa3416c6e00727e8563d2441b8618a3ee82b1615d12b39d4780c267e6ac88514d60001b612045565b6112ad7fa498c7fec5e1212804eebd00d8cfa5e720859c75ee94e1aa05d75a585b9614cc60001b612045565b6112d97fdadfac367562bb3788616069f68735fa345c5fe3c58a099142c29b26e1db77dc60001b612045565b6112e16129c2565b611373565b6113127f05c79f74c2b21effe8fb19fc229e8bfa8eb63e74de825c93ba1896db5f70b06660001b612045565b61133e7f53dd0980e8dc47dd81b6e47952f460f7f2c5327fa33a628de8dc22f28548429760001b612045565b61136a7fdc3194f793930da5ec29e432ebbed7a186707bd657cb68d0e94167904332bc6060001b612045565b611372612a25565b5b565b6000603360009054906101000a900473ffffffffffffffffffffffffffffffffffffffff16905090565b6113a76121a9565b6113d37f4cd71399df2f0d808d25b9fa1996b5666c3ea6d5f6b20f0daffaff836f53913560001b612045565b6113ff7f7149405b80bf9cede6beaaeb2ffc3b7d01f5ff6e065c38daf4950b32d296b5ae60001b612045565b61142b7fa1f284c81fe35b39e083f9c3b899d192ad9f2797e98c637f25b92ee9abba56e160001b612045565b6114577f36af12bc0aa8226c2dd8cd9420ce5a550ab8317db7c6136bcbdafc023ac9be2f60001b612045565b600073ffffffffffffffffffffffffffffffffffffffff168173ffffffffffffffffffffffffffffffffffffffff1614156114c7576040517f08c379a00000000000000000000000000000000000000000000000000000000081526004016114be90614958565b60405180910390fd5b6114f37f87aefc2d4dff6fdf157c90c3b8d9dd5eb56c581293b1372df3dc6749daa13a7c60001b612045565b61151f7fae24a8ef93c48d6a343c8606374d538abb2b1ea3723bad83d9e167d29936d54560001b612045565b61154b7fb9c96ba0b9d0471dd9d7b49dea1e5dd80b544e4c46d1aa8cea3a9c40c80785ac60001b612045565b8060fc60006101000a81548173ffffffffffffffffffffffffffffffffffffffff021916908373ffffffffffffffffffffffffffffffffffffffff16021790555050565b6115a161159a61249f565b8383612a88565b5050565b6115d17f0b09dc5e028a718105d89626ebf43eed9f2ed760e3059d8a8d1a80a24f1b26a060001b612045565b6115fd7f788df815a3de8cee83fb9f120b7508df99ef6d72701df967c6c6b5a95e5feeb260001b612045565b6116297f7d4e035410dc90d862bdde5a86703611045e55664362335318422a78852511ea60001b612045565b6116557f11294265d91f4bf62a2e9834b70315f069d2a41d363a9c37a7d91d50a44037c760001b612045565b60fc60009054906101000a900473ffffffffffffffffffffffffffffffffffffffff1673ffffffffffffffffffffffffffffffffffffffff166343cac2b16040518163ffffffff1660e01b8152600401602060405180830381865afa1580156116c2573d6000803e3d6000fd5b505050506040513d601f19601f820116820180604052508101906116e6919061498d565b73ffffffffffffffffffffffffffffffffffffffff1661170461249f565b73ffffffffffffffffffffffffffffffffffffffff161461175a576040517f08c379a000000000000000000000000000000000000000000000000000000000815260040161175190614a2c565b60405180910390fd5b6117867f4347a73c59162d89878726cd70595e42206c6f15632ae901bb2d9cf1f98b6d5660001b612045565b6117b27f14fe1d0e49af592eb122423670b49db0bd651593e5d0f415b4b4135fe959a51860001b612045565b6117de7f5d0f572741fb23d984fc6b8b3a7a49451e7fee335375537539c7f6b0a222f15160001b612045565b6117fa8282600160405180602001604052806000815250612bf5565b5050565b6118066121a9565b61180e612227565b8261183b7f8b294bf233ed04f7c2854f8dbe74e98667145936fc8c1994130c162976ed807b60001b612045565b6118677f98713f419d5b164a2c26a33b86a4557f23301268408d312a7f42834d150c894560001b612045565b6118937fb895dedf58e3db83098d4e93420aadf4a3a83c2cbce157e378905a3f35e5e39360001b612045565b6118bf7ffc711a60114c568bb058a8f12361b5f7ea127000ed563898cf7ced1e585ace4960001b612045565b60fb60009054906101000a900473ffffffffffffffffffffffffffffffffffffffff1673ffffffffffffffffffffffffffffffffffffffff1663c23697a8826040518263ffffffff1660e01b815260040161191a9190614024565b6020604051808303816000875af1158015611939573d6000803e3d6000fd5b505050506040513d601f19601f8201168201806040525081019061195d9190614517565b1561199d576040517f08c379a000000000000000000000000000000000000000000000000000000000815260040161199490614590565b60405180910390fd5b6119c97f63f42e0b214621e051517660ed505fd3ee63371ebc4200ac169e71774baac36e60001b612045565b6119f57f27ebe566d66e179f341e861f3b1919673272f226f3e4663917043c113c96f8e660001b612045565b611a217f342aa5e96c3f2f48188aee1e1b78b0f1257a25e150fc45e6a189bad8bbcaedab60001b612045565b611a4d7fc2e597c88c05fa5310d2c390e65d11afb4225447f3e76a1b9cfb3f79017a0e8560001b612045565b611a797fcfa0f2ab7b1425dfca010605e38c61dbf25286c52a7b149e52250d44526fa84d60001b612045565b611aa57f0826e1bb81ee156e0fd7169c8acaa7f807a3505e3f93cb4dd6e21d857e45e08360001b612045565b60fe54851115611aea576040517f08c379a0000000000000000000000000000000000000000000000000000000008152600401611ae190614336565b60405180910390fd5b611b167f58ac329814386f08937ff239ea485ffbdb451dbaefe3de7b6d03d39bd4d753db60001b612045565b611b427fa4a2cec3286640cfb97ce3dae7c784d99abd35c8973fb68ff6e0bec77367cd9c60001b612045565b611b6e7f8140bc5d6677dd84d0c4808ec344105dd721bfde27893b8bc52cd00fd01e691d60001b612045565b611b7a84868585612bf5565b5050505050565b6000611baf7ff1697237d1eb7730a9d743344141271b316d57551211b14d3363d830f975905260001b612045565b611bdb7fa2979e9fff481a07811af70a6abdc8608ad5fad88c7d04878ad4dccb20afb07f60001b612045565b611c077f44d07a1c1fd8bae01fe3400298ad1bcb3a130c6fa30c49006a4963b4a7b4f52260001b612045565b60fe54905090565b6000609860008473ffffffffffffffffffffffffffffffffffffffff1673ffffffffffffffffffffffffffffffffffffffff16815260200190815260200160002060008373ffffffffffffffffffffffffffffffffffffffff1673ffffffffffffffffffffffffffffffffffffffff16815260200190815260200160002060009054906101000a900460ff16905092915050565b611cab6121a9565b611cd77fc0e6625fba939d07466667397727da066c3206dea637716636337b1b31d6f45960001b612045565b611d037fee6ef8d0137b61fa44186b94f166845d5ec138eaf3737739158fd73ebaf5357060001b612045565b611d2f7fec0ccb71734436a7efbdfe3df31a67d6f5736d8793afbe2f9defc0f5b8c917e360001b612045565b600160fe6000828254611d429190614a4c565b92505081905550611d757f5dd68099bc052d5537426a73b81edcbfa4f8c561f60375c1dc511673aed89f4860001b612045565b611da17fee37eb1e2dca1f2b20c8adc7b26c5494bcd16f85045c4570bbf904c0d0ee9ded60001b612045565b60fc60009054906101000a900473ffffffffffffffffffffffffffffffffffffffff1673ffffffffffffffffffffffffffffffffffffffff16630ebb956d6040518163ffffffff1660e01b8152600401600060405180830381600087803b158015611e0b57600080fd5b505af1158015611e1f573d6000803e3d6000fd5b50505050611e4f7ffb48876dfcc65a7dcf6f0b36bab82446f73c848e92ac241f51560b6b3bfe60fc60001b612045565b611e7b7f4edfd1bfdc9af802ff974c89b5fe5ea3864abc0c60a748bf89d14e49fd16cc9e60001b612045565b7f1b62dd3d3d4d94e83dc4eb3f8fe1fd04165796d790d0807467a1f58a7dd8a74a60fe54604051611eac91906137a5565b60405180910390a1565b611ebe61249f565b73ffffffffffffffffffffffffffffffffffffffff168573ffffffffffffffffffffffffffffffffffffffff161480611f045750611f0385611efe61249f565b611c0f565b5b611f43576040517f08c379a0000000000000000000000000000000000000000000000000000000008152600401611f3a9061475b565b60405180910390fd5b611f508585858585612da7565b5050505050565b611f5f6121a9565b600073ffffffffffffffffffffffffffffffffffffffff168173ffffffffffffffffffffffffffffffffffffffff161415611fcf576040517f08c379a0000000000000000000000000000000000000000000000000000000008152600401611fc690614b14565b60405180910390fd5b611fd8816127cc565b50565b60007f01ffc9a7000000000000000000000000000000000000000000000000000000007bffffffffffffffffffffffffffffffffffffffffffffffffffffffff1916827bffffffffffffffffffffffffffffffffffffffffffffffffffffffff1916149050919050565b50565b60606000821415612090576040518060400160405280600181526020017f300000000000000000000000000000000000000000000000000000000000000081525090506121a4565b600082905060005b600082146120c25780806120ab906146a0565b915050600a826120bb9190614b63565b9150612098565b60008167ffffffffffffffff8111156120de576120dd613968565b5b6040519080825280601f01601f1916602001820160405280156121105781602001600182028036833780820191505090505b5090505b6000851461219d576001826121299190614b94565b9150600a856121389190614bc8565b60306121449190614a4c565b60f81b81838151811061215a576121596145b0565b5b60200101907effffffffffffffffffffffffffffffffffffffffffffffffffffffffffffff1916908160001a905350600a856121969190614b63565b9450612114565b8093505050505b919050565b6121b161249f565b73ffffffffffffffffffffffffffffffffffffffff166121cf611375565b73ffffffffffffffffffffffffffffffffffffffff1614612225576040517f08c379a000000000000000000000000000000000000000000000000000000000815260040161221c90614c45565b60405180910390fd5b565b61222f610cfc565b1561226f576040517f08c379a000000000000000000000000000000000000000000000000000000000815260040161226690614cb1565b60405180910390fd5b565b600073ffffffffffffffffffffffffffffffffffffffff168473ffffffffffffffffffffffffffffffffffffffff1614156122e1576040517f08c379a00000000000000000000000000000000000000000000000000000000081526004016122d890614d43565b60405180910390fd5b8151835114612325576040517f08c379a000000000000000000000000000000000000000000000000000000000815260040161231c90614dd5565b60405180910390fd5b600061232f61249f565b905061234081600087878787613046565b60005b84518110156123fa5783818151811061235f5761235e6145b0565b5b60200260200101516097600087848151811061237e5761237d6145b0565b5b6020026020010151815260200190815260200160002060008873ffffffffffffffffffffffffffffffffffffffff1673ffffffffffffffffffffffffffffffffffffffff16815260200190815260200160002060008282546123e09190614a4c565b9250508190555080806123f2906146a0565b915050612343565b508473ffffffffffffffffffffffffffffffffffffffff16600073ffffffffffffffffffffffffffffffffffffffff168273ffffffffffffffffffffffffffffffffffffffff167f4a39dc06d4c0dbc64b70af90fd698a233a518aa5d07e595d983b8c0526c8f7fb8787604051612472929190614df5565b60405180910390a46124898160008787878761304e565b61249881600087878787613056565b5050505050565b600033905090565b81518351146124eb576040517f08c379a00000000000000000000000000000000000000000000000000000000081526004016124e290614dd5565b60405180910390fd5b600073ffffffffffffffffffffffffffffffffffffffff168473ffffffffffffffffffffffffffffffffffffffff16141561255b576040517f08c379a000000000000000000000000000000000000000000000000000000000815260040161255290614e9e565b60405180910390fd5b600061256561249f565b9050612575818787878787613046565b60005b8451811015612729576000858281518110612596576125956145b0565b5b6020026020010151905060008583815181106125b5576125b46145b0565b5b6020026020010151905060006097600084815260200190815260200160002060008b73ffffffffffffffffffffffffffffffffffffffff1673ffffffffffffffffffffffffffffffffffffffff16815260200190815260200160002054905081811015612657576040517f08c379a000000000000000000000000000000000000000000000000000000000815260040161264e90614f30565b60405180910390fd5b8181036097600085815260200190815260200160002060008c73ffffffffffffffffffffffffffffffffffffffff1673ffffffffffffffffffffffffffffffffffffffff16815260200190815260200160002081905550816097600085815260200190815260200160002060008b73ffffffffffffffffffffffffffffffffffffffff1673ffffffffffffffffffffffffffffffffffffffff168152602001908152602001600020600082825461270e9190614a4c565b9250508190555050505080612722906146a0565b9050612578565b508473ffffffffffffffffffffffffffffffffffffffff168673ffffffffffffffffffffffffffffffffffffffff168273ffffffffffffffffffffffffffffffffffffffff167f4a39dc06d4c0dbc64b70af90fd698a233a518aa5d07e595d983b8c0526c8f7fb87876040516127a0929190614df5565b60405180910390a46127b681878787878761304e565b6127c4818787878787613056565b505050505050565b6000603360009054906101000a900473ffffffffffffffffffffffffffffffffffffffff16905081603360006101000a81548173ffffffffffffffffffffffffffffffffffffffff021916908373ffffffffffffffffffffffffffffffffffffffff1602179055508173ffffffffffffffffffffffffffffffffffffffff168173ffffffffffffffffffffffffffffffffffffffff167f8be0079c531659141344cd1fd0a4f28419497f9722a3daafe3b4186f6b6457e060405160405180910390a35050565b6000808273ffffffffffffffffffffffffffffffffffffffff163b119050919050565b600060019054906101000a900460ff16612904576040517f08c379a00000000000000000000000000000000000000000000000000000000081526004016128fb90614fc2565b60405180910390fd5b61290d8161322e565b50565b600060019054906101000a900460ff1661295f576040517f08c379a000000000000000000000000000000000000000000000000000000000815260040161295690614fc2565b60405180910390fd5b612967613289565b565b600060019054906101000a900460ff166129b8576040517f08c379a00000000000000000000000000000000000000000000000000000000081526004016129af90614fc2565b60405180910390fd5b6129c06132ea565b565b6129ca612227565b600160c960006101000a81548160ff0219169083151502179055507f62e78cea01bee320cd4e420270b5ea74000d11b0c9f74754ebdbfc544b05a258612a0e61249f565b604051612a1b9190614024565b60405180910390a1565b612a2d613356565b600060c960006101000a81548160ff0219169083151502179055507f5db9ee0a495bf2e6ff9c91a7834c1ba4fdd244a5e8aa4e537bd38aeae4b073aa612a7161249f565b604051612a7e9190614024565b60405180910390a1565b8173ffffffffffffffffffffffffffffffffffffffff168373ffffffffffffffffffffffffffffffffffffffff161415612af7576040517f08c379a0000000000000000000000000000000000000000000000000000000008152600401612aee90615054565b60405180910390fd5b80609860008573ffffffffffffffffffffffffffffffffffffffff1673ffffffffffffffffffffffffffffffffffffffff16815260200190815260200160002060008473ffffffffffffffffffffffffffffffffffffffff1673ffffffffffffffffffffffffffffffffffffffff16815260200190815260200160002060006101000a81548160ff0219169083151502179055508173ffffffffffffffffffffffffffffffffffffffff168373ffffffffffffffffffffffffffffffffffffffff167f17307eab39ab6107e8899845ad3d59bd9653f200f220920489ca2b5937696c3183604051612be89190613860565b60405180910390a3505050565b600073ffffffffffffffffffffffffffffffffffffffff168473ffffffffffffffffffffffffffffffffffffffff161415612c65576040517f08c379a0000000000000000000000000000000000000000000000000000000008152600401612c5c90614d43565b60405180910390fd5b6000612c6f61249f565b90506000612c7c8561339f565b90506000612c898561339f565b9050612c9a83600089858589613046565b846097600088815260200190815260200160002060008973ffffffffffffffffffffffffffffffffffffffff1673ffffffffffffffffffffffffffffffffffffffff1681526020019081526020016000206000828254612cfa9190614a4c565b925050819055508673ffffffffffffffffffffffffffffffffffffffff16600073ffffffffffffffffffffffffffffffffffffffff168473ffffffffffffffffffffffffffffffffffffffff167fc3d58168c5ae7397731d063d5bbf3d657854427343f4c083240f7aacaa2d0f628989604051612d78929190615074565b60405180910390a4612d8f8360008985858961304e565b612d9e83600089898989613419565b50505050505050565b600073ffffffffffffffffffffffffffffffffffffffff168473ffffffffffffffffffffffffffffffffffffffff161415612e17576040517f08c379a0000000000000000000000000000000000000000000000000000000008152600401612e0e90614e9e565b60405180910390fd5b6000612e2161249f565b90506000612e2e8561339f565b90506000612e3b8561339f565b9050612e4b838989858589613046565b60006097600088815260200190815260200160002060008a73ffffffffffffffffffffffffffffffffffffffff1673ffffffffffffffffffffffffffffffffffffffff16815260200190815260200160002054905085811015612ee3576040517f08c379a0000000000000000000000000000000000000000000000000000000008152600401612eda90614f30565b60405180910390fd5b8581036097600089815260200190815260200160002060008b73ffffffffffffffffffffffffffffffffffffffff1673ffffffffffffffffffffffffffffffffffffffff16815260200190815260200160002081905550856097600089815260200190815260200160002060008a73ffffffffffffffffffffffffffffffffffffffff1673ffffffffffffffffffffffffffffffffffffffff1681526020019081526020016000206000828254612f9a9190614a4c565b925050819055508773ffffffffffffffffffffffffffffffffffffffff168973ffffffffffffffffffffffffffffffffffffffff168573ffffffffffffffffffffffffffffffffffffffff167fc3d58168c5ae7397731d063d5bbf3d657854427343f4c083240f7aacaa2d0f628a8a604051613017929190615074565b60405180910390a461302d848a8a86868a61304e565b61303b848a8a8a8a8a613419565b505050505050505050565b505050505050565b505050505050565b6130758473ffffffffffffffffffffffffffffffffffffffff16612892565b15613226578373ffffffffffffffffffffffffffffffffffffffff1663bc197c8187878686866040518663ffffffff1660e01b81526004016130bb9594939291906150f2565b6020604051808303816000875af19250505080156130f757506040513d601f19601f820116820180604052508101906130f4919061516f565b60015b61319d576131036151a9565b806308c379a0141561316057506131186151cb565b806131235750613162565b806040517f08c379a00000000000000000000000000000000000000000000000000000000081526004016131579190613941565b60405180910390fd5b505b6040517f08c379a0000000000000000000000000000000000000000000000000000000008152600401613194906152d3565b60405180910390fd5b63bc197c8160e01b7bffffffffffffffffffffffffffffffffffffffffffffffffffffffff1916817bffffffffffffffffffffffffffffffffffffffffffffffffffffffff191614613224576040517f08c379a000000000000000000000000000000000000000000000000000000000815260040161321b90615365565b60405180910390fd5b505b505050505050565b600060019054906101000a900460ff1661327d576040517f08c379a000000000000000000000000000000000000000000000000000000000815260040161327490614fc2565b60405180910390fd5b613286816135f1565b50565b600060019054906101000a900460ff166132d8576040517f08c379a00000000000000000000000000000000000000000000000000000000081526004016132cf90614fc2565b60405180910390fd5b6132e86132e361249f565b6127cc565b565b600060019054906101000a900460ff16613339576040517f08c379a000000000000000000000000000000000000000000000000000000000815260040161333090614fc2565b60405180910390fd5b600060c960006101000a81548160ff021916908315150217905550565b61335e610cfc565b61339d576040517f08c379a0000000000000000000000000000000000000000000000000000000008152600401613394906153d1565b60405180910390fd5b565b60606000600167ffffffffffffffff8111156133be576133bd613968565b5b6040519080825280602002602001820160405280156133ec5781602001602082028036833780820191505090505b5090508281600081518110613404576134036145b0565b5b60200260200101818152505080915050919050565b6134388473ffffffffffffffffffffffffffffffffffffffff16612892565b156135e9578373ffffffffffffffffffffffffffffffffffffffff1663f23a6e6187878686866040518663ffffffff1660e01b815260040161347e9594939291906153f1565b6020604051808303816000875af19250505080156134ba57506040513d601f19601f820116820180604052508101906134b7919061516f565b60015b613560576134c66151a9565b806308c379a0141561352357506134db6151cb565b806134e65750613525565b806040517f08c379a000000000000000000000000000000000000000000000000000000000815260040161351a9190613941565b60405180910390fd5b505b6040517f08c379a0000000000000000000000000000000000000000000000000000000008152600401613557906152d3565b60405180910390fd5b63f23a6e6160e01b7bffffffffffffffffffffffffffffffffffffffffffffffffffffffff1916817bffffffffffffffffffffffffffffffffffffffffffffffffffffffff1916146135e7576040517f08c379a00000000000000000000000000000000000000000000000000000000081526004016135de90615365565b60405180910390fd5b505b505050505050565b806099908051906020019061360792919061360b565b5050565b82805461361790614385565b90600052602060002090601f0160209004810192826136395760008555613680565b82601f1061365257805160ff1916838001178555613680565b82800160010185558215613680579182015b8281111561367f578251825591602001919060010190613664565b5b50905061368d9190613691565b5090565b5b808211156136aa576000816000905550600101613692565b5090565b6000604051905090565b600080fd5b600080fd5b600073ffffffffffffffffffffffffffffffffffffffff82169050919050565b60006136ed826136c2565b9050919050565b6136fd816136e2565b811461370857600080fd5b50565b60008135905061371a816136f4565b92915050565b6000819050919050565b61373381613720565b811461373e57600080fd5b50565b6000813590506137508161372a565b92915050565b6000806040838503121561376d5761376c6136b8565b5b600061377b8582860161370b565b925050602061378c85828601613741565b9150509250929050565b61379f81613720565b82525050565b60006020820190506137ba6000830184613796565b92915050565b60007fffffffff0000000000000000000000000000000000000000000000000000000082169050919050565b6137f5816137c0565b811461380057600080fd5b50565b600081359050613812816137ec565b92915050565b60006020828403121561382e5761382d6136b8565b5b600061383c84828501613803565b91505092915050565b60008115159050919050565b61385a81613845565b82525050565b60006020820190506138756000830184613851565b92915050565b600060208284031215613891576138906136b8565b5b600061389f84828501613741565b91505092915050565b600081519050919050565b600082825260208201905092915050565b60005b838110156138e25780820151818401526020810190506138c7565b838111156138f1576000848401525b50505050565b6000601f19601f8301169050919050565b6000613913826138a8565b61391d81856138b3565b935061392d8185602086016138c4565b613936816138f7565b840191505092915050565b6000602082019050818103600083015261395b8184613908565b905092915050565b600080fd5b7f4e487b7100000000000000000000000000000000000000000000000000000000600052604160045260246000fd5b6139a0826138f7565b810181811067ffffffffffffffff821117156139bf576139be613968565b5b80604052505050565b60006139d26136ae565b90506139de8282613997565b919050565b600067ffffffffffffffff8211156139fe576139fd613968565b5b602082029050602081019050919050565b600080fd5b6000613a27613a22846139e3565b6139c8565b90508083825260208201905060208402830185811115613a4a57613a49613a0f565b5b835b81811015613a735780613a5f8882613741565b845260208401935050602081019050613a4c565b5050509392505050565b600082601f830112613a9257613a91613963565b5b8135613aa2848260208601613a14565b91505092915050565b600080fd5b600067ffffffffffffffff821115613acb57613aca613968565b5b613ad4826138f7565b9050602081019050919050565b82818337600083830152505050565b6000613b03613afe84613ab0565b6139c8565b905082815260208101848484011115613b1f57613b1e613aab565b5b613b2a848285613ae1565b509392505050565b600082601f830112613b4757613b46613963565b5b8135613b57848260208601613af0565b91505092915050565b60008060008060808587031215613b7a57613b796136b8565b5b6000613b888782880161370b565b945050602085013567ffffffffffffffff811115613ba957613ba86136bd565b5b613bb587828801613a7d565b935050604085013567ffffffffffffffff811115613bd657613bd56136bd565b5b613be287828801613a7d565b925050606085013567ffffffffffffffff811115613c0357613c026136bd565b5b613c0f87828801613b32565b91505092959194509250565b600080600080600060a08688031215613c3757613c366136b8565b5b6000613c458882890161370b565b9550506020613c568882890161370b565b945050604086013567ffffffffffffffff811115613c7757613c766136bd565b5b613c8388828901613a7d565b935050606086013567ffffffffffffffff811115613ca457613ca36136bd565b5b613cb088828901613a7d565b925050608086013567ffffffffffffffff811115613cd157613cd06136bd565b5b613cdd88828901613b32565b9150509295509295909350565b600067ffffffffffffffff821115613d0557613d04613968565b5b602082029050602081019050919050565b6000613d29613d2484613cea565b6139c8565b90508083825260208201905060208402830185811115613d4c57613d4b613a0f565b5b835b81811015613d755780613d61888261370b565b845260208401935050602081019050613d4e565b5050509392505050565b600082601f830112613d9457613d93613963565b5b8135613da4848260208601613d16565b91505092915050565b60008060408385031215613dc457613dc36136b8565b5b600083013567ffffffffffffffff811115613de257613de16136bd565b5b613dee85828601613d7f565b925050602083013567ffffffffffffffff811115613e0f57613e0e6136bd565b5b613e1b85828601613a7d565b9150509250929050565b600081519050919050565b600082825260208201905092915050565b6000819050602082019050919050565b613e5a81613720565b82525050565b6000613e6c8383613e51565b60208301905092915050565b6000602082019050919050565b6000613e9082613e25565b613e9a8185613e30565b9350613ea583613e41565b8060005b83811015613ed6578151613ebd8882613e60565b9750613ec883613e78565b925050600181019050613ea9565b5085935050505092915050565b60006020820190508181036000830152613efd8184613e85565b905092915050565b600067ffffffffffffffff821115613f2057613f1f613968565b5b613f29826138f7565b9050602081019050919050565b6000613f49613f4484613f05565b6139c8565b905082815260208101848484011115613f6557613f64613aab565b5b613f70848285613ae1565b509392505050565b600082601f830112613f8d57613f8c613963565b5b8135613f9d848260208601613f36565b91505092915050565b600080600060608486031215613fbf57613fbe6136b8565b5b6000613fcd8682870161370b565b935050602084013567ffffffffffffffff811115613fee57613fed6136bd565b5b613ffa86828701613f78565b925050604061400b8682870161370b565b9150509250925092565b61401e816136e2565b82525050565b60006020820190506140396000830184614015565b92915050565b600060208284031215614055576140546136b8565b5b60006140638482850161370b565b91505092915050565b61407581613845565b811461408057600080fd5b50565b6000813590506140928161406c565b92915050565b600080604083850312156140af576140ae6136b8565b5b60006140bd8582860161370b565b92505060206140ce85828601614083565b9150509250929050565b600080600080608085870312156140f2576140f16136b8565b5b600061410087828801613741565b94505060206141118782880161370b565b935050604061412287828801613741565b925050606085013567ffffffffffffffff811115614143576141426136bd565b5b61414f87828801613b32565b91505092959194509250565b60008060408385031215614172576141716136b8565b5b60006141808582860161370b565b92505060206141918582860161370b565b9150509250929050565b600080600080600060a086880312156141b7576141b66136b8565b5b60006141c58882890161370b565b95505060206141d68882890161370b565b94505060406141e788828901613741565b93505060606141f888828901613741565b925050608086013567ffffffffffffffff811115614219576142186136bd565b5b61422588828901613b32565b9150509295509295909350565b7f455243313135353a2061646472657373207a65726f206973206e6f742061207660008201527f616c6964206f776e657200000000000000000000000000000000000000000000602082015250565b600061428e602a836138b3565b915061429982614232565b604082019050919050565b600060208201905081810360008301526142bd81614281565b9050919050565b7f4172746966616374733a205468697320617274696661637420646f65736e277460008201527f2065786973740000000000000000000000000000000000000000000000000000602082015250565b60006143206026836138b3565b915061432b826142c4565b604082019050919050565b6000602082019050818103600083015261434f81614313565b9050919050565b7f4e487b7100000000000000000000000000000000000000000000000000000000600052602260045260246000fd5b6000600282049050600182168061439d57607f821691505b602082108114156143b1576143b0614356565b5b50919050565b600081905092915050565b60008190508160005260206000209050919050565b600081546143e481614385565b6143ee81866143b7565b94506001821660008114614409576001811461441a5761444d565b60ff1983168652818601935061444d565b614423856143c2565b60005b8381101561444557815481890152600182019150602081019050614426565b838801955050505b50505092915050565b6000614461826138a8565b61446b81856143b7565b935061447b8185602086016138c4565b80840191505092915050565b7f2e6a736f6e000000000000000000000000000000000000000000000000000000600082015250565b60006144bd6005836143b7565b91506144c882614487565b600582019050919050565b60006144df82856143d7565b91506144eb8284614456565b91506144f6826144b0565b91508190509392505050565b6000815190506145118161406c565b92915050565b60006020828403121561452d5761452c6136b8565b5b600061453b84828501614502565b91505092915050565b7f4172746966616374733a207573657220696e20626c61636b6c69737400000000600082015250565b600061457a601c836138b3565b915061458582614544565b602082019050919050565b600060208201905081810360008301526145a98161456d565b9050919050565b7f4e487b7100000000000000000000000000000000000000000000000000000000600052603260045260246000fd5b7f4172746966616374733a2074686973206172746966616374207479706520646f60008201527f65736e2774206578697374730000000000000000000000000000000000000000602082015250565b600061463b602c836138b3565b9150614646826145df565b604082019050919050565b6000602082019050818103600083015261466a8161462e565b9050919050565b7f4e487b7100000000000000000000000000000000000000000000000000000000600052601160045260246000fd5b60006146ab82613720565b91507fffffffffffffffffffffffffffffffffffffffffffffffffffffffffffffffff8214156146de576146dd614671565b5b600182019050919050565b7f455243313135353a2063616c6c6572206973206e6f7420746f6b656e206f776e60008201527f6572206e6f7220617070726f7665640000000000000000000000000000000000602082015250565b6000614745602f836138b3565b9150614750826146e9565b604082019050919050565b6000602082019050818103600083015261477481614738565b9050919050565b7f455243313135353a206163636f756e747320616e6420696473206c656e67746860008201527f206d69736d617463680000000000000000000000000000000000000000000000602082015250565b60006147d76029836138b3565b91506147e28261477b565b604082019050919050565b60006020820190508181036000830152614806816147ca565b9050919050565b7f496e697469616c697a61626c653a20636f6e747261637420697320616c72656160008201527f647920696e697469616c697a6564000000000000000000000000000000000000602082015250565b6000614869602e836138b3565b91506148748261480d565b604082019050919050565b600060208201905081810360008301526148988161485c565b9050919050565b6000819050919050565b600060ff82169050919050565b6000819050919050565b60006148db6148d66148d18461489f565b6148b6565b6148a9565b9050919050565b6148eb816148c0565b82525050565b600060208201905061490660008301846148e2565b92915050565b7f4172746966616374733a207a65726f2061646472657373000000000000000000600082015250565b60006149426017836138b3565b915061494d8261490c565b602082019050919050565b6000602082019050818103600083015261497181614935565b9050919050565b600081519050614987816136f4565b92915050565b6000602082840312156149a3576149a26136b8565b5b60006149b184828501614978565b91505092915050565b7f4172746966616374733a206f6e6c79206d696e696e6720636f6e74726163742060008201527f63616e2063616c6c20746869732066756e6374696f6e00000000000000000000602082015250565b6000614a166036836138b3565b9150614a21826149ba565b604082019050919050565b60006020820190508181036000830152614a4581614a09565b9050919050565b6000614a5782613720565b9150614a6283613720565b9250827fffffffffffffffffffffffffffffffffffffffffffffffffffffffffffffffff03821115614a9757614a96614671565b5b828201905092915050565b7f4f776e61626c653a206e6577206f776e657220697320746865207a65726f206160008201527f6464726573730000000000000000000000000000000000000000000000000000602082015250565b6000614afe6026836138b3565b9150614b0982614aa2565b604082019050919050565b60006020820190508181036000830152614b2d81614af1565b9050919050565b7f4e487b7100000000000000000000000000000000000000000000000000000000600052601260045260246000fd5b6000614b6e82613720565b9150614b7983613720565b925082614b8957614b88614b34565b5b828204905092915050565b6000614b9f82613720565b9150614baa83613720565b925082821015614bbd57614bbc614671565b5b828203905092915050565b6000614bd382613720565b9150614bde83613720565b925082614bee57614bed614b34565b5b828206905092915050565b7f4f776e61626c653a2063616c6c6572206973206e6f7420746865206f776e6572600082015250565b6000614c2f6020836138b3565b9150614c3a82614bf9565b602082019050919050565b60006020820190508181036000830152614c5e81614c22565b9050919050565b7f5061757361626c653a2070617573656400000000000000000000000000000000600082015250565b6000614c9b6010836138b3565b9150614ca682614c65565b602082019050919050565b60006020820190508181036000830152614cca81614c8e565b9050919050565b7f455243313135353a206d696e7420746f20746865207a65726f2061646472657360008201527f7300000000000000000000000000000000000000000000000000000000000000602082015250565b6000614d2d6021836138b3565b9150614d3882614cd1565b604082019050919050565b60006020820190508181036000830152614d5c81614d20565b9050919050565b7f455243313135353a2069647320616e6420616d6f756e7473206c656e6774682060008201527f6d69736d61746368000000000000000000000000000000000000000000000000602082015250565b6000614dbf6028836138b3565b9150614dca82614d63565b604082019050919050565b60006020820190508181036000830152614dee81614db2565b9050919050565b60006040820190508181036000830152614e0f8185613e85565b90508181036020830152614e238184613e85565b90509392505050565b7f455243313135353a207472616e7366657220746f20746865207a65726f20616460008201527f6472657373000000000000000000000000000000000000000000000000000000602082015250565b6000614e886025836138b3565b9150614e9382614e2c565b604082019050919050565b60006020820190508181036000830152614eb781614e7b565b9050919050565b7f455243313135353a20696e73756666696369656e742062616c616e636520666f60008201527f72207472616e7366657200000000000000000000000000000000000000000000602082015250565b6000614f1a602a836138b3565b9150614f2582614ebe565b604082019050919050565b60006020820190508181036000830152614f4981614f0d565b9050919050565b7f496e697469616c697a61626c653a20636f6e7472616374206973206e6f74206960008201527f6e697469616c697a696e67000000000000000000000000000000000000000000602082015250565b6000614fac602b836138b3565b9150614fb782614f50565b604082019050919050565b60006020820190508181036000830152614fdb81614f9f565b9050919050565b7f455243313135353a2073657474696e6720617070726f76616c2073746174757360008201527f20666f722073656c660000000000000000000000000000000000000000000000602082015250565b600061503e6029836138b3565b915061504982614fe2565b604082019050919050565b6000602082019050818103600083015261506d81615031565b9050919050565b60006040820190506150896000830185613796565b6150966020830184613796565b9392505050565b600081519050919050565b600082825260208201905092915050565b60006150c48261509d565b6150ce81856150a8565b93506150de8185602086016138c4565b6150e7816138f7565b840191505092915050565b600060a0820190506151076000830188614015565b6151146020830187614015565b81810360408301526151268186613e85565b9050818103606083015261513a8185613e85565b9050818103608083015261514e81846150b9565b90509695505050505050565b600081519050615169816137ec565b92915050565b600060208284031215615185576151846136b8565b5b60006151938482850161515a565b91505092915050565b60008160e01c9050919050565b600060033d11156151c85760046000803e6151c560005161519c565b90505b90565b600060443d10156151db5761525e565b6151e36136ae565b60043d036004823e80513d602482011167ffffffffffffffff8211171561520b57505061525e565b808201805167ffffffffffffffff811115615229575050505061525e565b80602083010160043d03850181111561524657505050505061525e565b61525582602001850186613997565b82955050505050505b90565b7f455243313135353a207472616e7366657220746f206e6f6e204552433131353560008201527f526563656976657220696d706c656d656e746572000000000000000000000000602082015250565b60006152bd6034836138b3565b91506152c882615261565b604082019050919050565b600060208201905081810360008301526152ec816152b0565b9050919050565b7f455243313135353a204552433131353552656365697665722072656a6563746560008201527f6420746f6b656e73000000000000000000000000000000000000000000000000602082015250565b600061534f6028836138b3565b915061535a826152f3565b604082019050919050565b6000602082019050818103600083015261537e81615342565b9050919050565b7f5061757361626c653a206e6f7420706175736564000000000000000000000000600082015250565b60006153bb6014836138b3565b91506153c682615385565b602082019050919050565b600060208201905081810360008301526153ea816153ae565b9050919050565b600060a0820190506154066000830188614015565b6154136020830187614015565b6154206040830186613796565b61542d6060830185613796565b818103608083015261543f81846150b9565b9050969550505050505056fea264697066735822122025ff22cb55bef9c498c4c97b23295d7ed1e058d2925482b2bcd18598d579905264736f6c634300080c0033",
  "linkReferences": {},
  "deployedLinkReferences": {}
}