{
  "address": "0xfe92377e5fED485DD694365fFf77c7C43486C83d",
  "abi": [
    {
      "anonymous": false,
      "inputs": [
        {
          "indexed": false,
          "internalType": "uint256",
          "name": "artifactType",
          "type": "uint256"
        },
        {
          "indexed": false,
          "internalType": "string",
          "name": "newUri",
          "type": "string"
        }
      ],
      "name": "AddNewArtifact",
      "type": "event"
    },
    {
      "anonymous": false,
      "inputs": [
        {
          "indexed": true,
          "internalType": "address",
          "name": "account",
          "type": "address"
        },
        {
          "indexed": true,
          "internalType": "address",
          "name": "operator",
          "type": "address"
        },
        {
          "indexed": false,
          "internalType": "bool",
          "name": "approved",
          "type": "bool"
        }
      ],
      "name": "ApprovalForAll",
      "type": "event"
    },
    {
      "anonymous": false,
      "inputs": [
        {
          "indexed": false,
          "internalType": "string",
          "name": "newBaseUri",
          "type": "string"
        }
      ],
      "name": "BaseUriChanged",
      "type": "event"
    },
    {
      "anonymous": false,
      "inputs": [
        {
          "indexed": false,
          "internalType": "uint8",
          "name": "version",
          "type": "uint8"
        }
      ],
      "name": "Initialized",
      "type": "event"
    },
    {
      "anonymous": false,
      "inputs": [
        {
          "indexed": true,
          "internalType": "address",
          "name": "previousOwner",
          "type": "address"
        },
        {
          "indexed": true,
          "internalType": "address",
          "name": "newOwner",
          "type": "address"
        }
      ],
      "name": "OwnershipTransferred",
      "type": "event"
    },
    {
      "anonymous": false,
      "inputs": [
        {
          "indexed": false,
          "internalType": "address",
          "name": "account",
          "type": "address"
        }
      ],
      "name": "Paused",
      "type": "event"
    },
    {
      "anonymous": false,
      "inputs": [
        {
          "indexed": true,
          "internalType": "address",
          "name": "operator",
          "type": "address"
        },
        {
          "indexed": true,
          "internalType": "address",
          "name": "from",
          "type": "address"
        },
        {
          "indexed": true,
          "internalType": "address",
          "name": "to",
          "type": "address"
        },
        {
          "indexed": false,
          "internalType": "uint256[]",
          "name": "ids",
          "type": "uint256[]"
        },
        {
          "indexed": false,
          "internalType": "uint256[]",
          "name": "values",
          "type": "uint256[]"
        }
      ],
      "name": "TransferBatch",
      "type": "event"
    },
    {
      "anonymous": false,
      "inputs": [
        {
          "indexed": true,
          "internalType": "address",
          "name": "operator",
          "type": "address"
        },
        {
          "indexed": true,
          "internalType": "address",
          "name": "from",
          "type": "address"
        },
        {
          "indexed": true,
          "internalType": "address",
          "name": "to",
          "type": "address"
        },
        {
          "indexed": false,
          "internalType": "uint256",
          "name": "id",
          "type": "uint256"
        },
        {
          "indexed": false,
          "internalType": "uint256",
          "name": "value",
          "type": "uint256"
        }
      ],
      "name": "TransferSingle",
      "type": "event"
    },
    {
      "anonymous": false,
      "inputs": [
        {
          "indexed": false,
          "internalType": "string",
          "name": "value",
          "type": "string"
        },
        {
          "indexed": true,
          "internalType": "uint256",
          "name": "id",
          "type": "uint256"
        }
      ],
      "name": "URI",
      "type": "event"
    },
    {
      "anonymous": false,
      "inputs": [
        {
          "indexed": false,
          "internalType": "address",
          "name": "account",
          "type": "address"
        }
      ],
      "name": "Unpaused",
      "type": "event"
    },
    {
      "anonymous": false,
      "inputs": [
        {
          "indexed": false,
          "internalType": "uint256",
          "name": "artifactType",
          "type": "uint256"
        },
        {
          "indexed": false,
          "internalType": "string",
          "name": "newUri",
          "type": "string"
        }
      ],
      "name": "UriChanged",
      "type": "event"
    },
    {
      "inputs": [
        {
          "internalType": "string",
          "name": "newUri",
          "type": "string"
        }
      ],
      "name": "addNewArtifact",
      "outputs": [],
      "stateMutability": "nonpayable",
      "type": "function"
    },
    {
      "inputs": [
        {
          "internalType": "address",
          "name": "account",
          "type": "address"
        },
        {
          "internalType": "uint256",
          "name": "id",
          "type": "uint256"
        }
      ],
      "name": "balanceOf",
      "outputs": [
        {
          "internalType": "uint256",
          "name": "",
          "type": "uint256"
        }
      ],
      "stateMutability": "view",
      "type": "function"
    },
    {
      "inputs": [
        {
          "internalType": "address[]",
          "name": "accounts",
          "type": "address[]"
        },
        {
          "internalType": "uint256[]",
          "name": "ids",
          "type": "uint256[]"
        }
      ],
      "name": "balanceOfBatch",
      "outputs": [
        {
          "internalType": "uint256[]",
          "name": "",
          "type": "uint256[]"
        }
      ],
      "stateMutability": "view",
      "type": "function"
    },
    {
      "inputs": [],
      "name": "getArtifactsTypesAmount",
      "outputs": [
        {
          "internalType": "uint256",
          "name": "",
          "type": "uint256"
        }
      ],
      "stateMutability": "view",
      "type": "function"
    },
    {
      "inputs": [],
      "name": "getBaseUri",
      "outputs": [
        {
          "internalType": "string",
          "name": "",
          "type": "string"
        }
      ],
      "stateMutability": "view",
      "type": "function"
    },
    {
      "inputs": [
        {
          "internalType": "address",
          "name": "_toolsContractAddress",
          "type": "address"
        },
        {
          "internalType": "string",
          "name": "_baseUrl",
          "type": "string"
        },
        {
          "internalType": "address",
          "name": "_blackListContractAddress",
          "type": "address"
        }
      ],
      "name": "initialize",
      "outputs": [],
      "stateMutability": "nonpayable",
      "type": "function"
    },
    {
      "inputs": [
        {
          "internalType": "address",
          "name": "account",
          "type": "address"
        },
        {
          "internalType": "address",
          "name": "operator",
          "type": "address"
        }
      ],
      "name": "isApprovedForAll",
      "outputs": [
        {
          "internalType": "bool",
          "name": "",
          "type": "bool"
        }
      ],
      "stateMutability": "view",
      "type": "function"
    },
    {
      "inputs": [
        {
          "internalType": "address",
          "name": "user",
          "type": "address"
        },
        {
          "internalType": "uint256",
          "name": "artifactType",
          "type": "uint256"
        }
      ],
      "name": "lootArtifact",
      "outputs": [],
      "stateMutability": "nonpayable",
      "type": "function"
    },
    {
      "inputs": [
        {
          "internalType": "uint256",
          "name": "artifactType",
          "type": "uint256"
        },
        {
          "internalType": "address",
          "name": "to",
          "type": "address"
        },
        {
          "internalType": "uint256",
          "name": "amount",
          "type": "uint256"
        }
      ],
      "name": "mint",
      "outputs": [],
      "stateMutability": "nonpayable",
      "type": "function"
    },
    {
      "inputs": [
        {
          "internalType": "address",
          "name": "to",
          "type": "address"
        },
        {
          "internalType": "uint256[]",
          "name": "artifactTypes",
          "type": "uint256[]"
        },
        {
          "internalType": "uint256[]",
          "name": "amounts",
          "type": "uint256[]"
        }
      ],
      "name": "mintBatch",
      "outputs": [],
      "stateMutability": "nonpayable",
      "type": "function"
    },
    {
      "inputs": [],
      "name": "owner",
      "outputs": [
        {
          "internalType": "address",
          "name": "",
          "type": "address"
        }
      ],
      "stateMutability": "view",
      "type": "function"
    },
    {
      "inputs": [],
      "name": "pause",
      "outputs": [],
      "stateMutability": "nonpayable",
      "type": "function"
    },
    {
      "inputs": [],
      "name": "paused",
      "outputs": [
        {
          "internalType": "bool",
          "name": "",
          "type": "bool"
        }
      ],
      "stateMutability": "view",
      "type": "function"
    },
    {
      "inputs": [],
      "name": "renounceOwnership",
      "outputs": [],
      "stateMutability": "nonpayable",
      "type": "function"
    },
    {
      "inputs": [
        {
          "internalType": "address",
          "name": "from",
          "type": "address"
        },
        {
          "internalType": "address",
          "name": "to",
          "type": "address"
        },
        {
          "internalType": "uint256[]",
          "name": "ids",
          "type": "uint256[]"
        },
        {
          "internalType": "uint256[]",
          "name": "amounts",
          "type": "uint256[]"
        },
        {
          "internalType": "bytes",
          "name": "data",
          "type": "bytes"
        }
      ],
      "name": "safeBatchTransferFrom",
      "outputs": [],
      "stateMutability": "nonpayable",
      "type": "function"
    },
    {
      "inputs": [
        {
          "internalType": "address",
          "name": "from",
          "type": "address"
        },
        {
          "internalType": "address",
          "name": "to",
          "type": "address"
        },
        {
          "internalType": "uint256",
          "name": "id",
          "type": "uint256"
        },
        {
          "internalType": "uint256",
          "name": "amount",
          "type": "uint256"
        },
        {
          "internalType": "bytes",
          "name": "data",
          "type": "bytes"
        }
      ],
      "name": "safeTransferFrom",
      "outputs": [],
      "stateMutability": "nonpayable",
      "type": "function"
    },
    {
      "inputs": [
        {
          "internalType": "address",
          "name": "operator",
          "type": "address"
        },
        {
          "internalType": "bool",
          "name": "approved",
          "type": "bool"
        }
      ],
      "name": "setApprovalForAll",
      "outputs": [],
      "stateMutability": "nonpayable",
      "type": "function"
    },
    {
      "inputs": [
        {
          "internalType": "string",
          "name": "newBaseUri",
          "type": "string"
        }
      ],
      "name": "setBaseUri",
      "outputs": [],
      "stateMutability": "nonpayable",
      "type": "function"
    },
    {
      "inputs": [
        {
          "internalType": "address",
          "name": "toolsAddress",
          "type": "address"
        }
      ],
      "name": "setToolsAddress",
      "outputs": [],
      "stateMutability": "nonpayable",
      "type": "function"
    },
    {
      "inputs": [
        {
          "internalType": "uint256",
          "name": "artifactType",
          "type": "uint256"
        },
        {
          "internalType": "string",
          "name": "newUri",
          "type": "string"
        }
      ],
      "name": "setUri",
      "outputs": [],
      "stateMutability": "nonpayable",
      "type": "function"
    },
    {
      "inputs": [
        {
          "internalType": "bytes4",
          "name": "interfaceId",
          "type": "bytes4"
        }
      ],
      "name": "supportsInterface",
      "outputs": [
        {
          "internalType": "bool",
          "name": "",
          "type": "bool"
        }
      ],
      "stateMutability": "view",
      "type": "function"
    },
    {
      "inputs": [
        {
          "internalType": "address",
          "name": "newOwner",
          "type": "address"
        }
      ],
      "name": "transferOwnership",
      "outputs": [],
      "stateMutability": "nonpayable",
      "type": "function"
    },
    {
      "inputs": [
        {
          "internalType": "uint256",
          "name": "artifactType",
          "type": "uint256"
        }
      ],
      "name": "uri",
      "outputs": [
        {
          "internalType": "string",
          "name": "",
          "type": "string"
        }
      ],
      "stateMutability": "view",
      "type": "function"
    }
  ],
  "transactionHash": "0xd34c1cafd30a9b004963b8b8242c889e63f109058e170afca60841594395d45f",
  "args": [],
  "numDeployments": 1,
  "solcInputHash": "eb86febf9b0da114deb60ddeec8b28ba",
  "bytecode": "0x608060405234801561001057600080fd5b50612976806100206000396000f3fe608060405234801561001057600080fd5b506004361061011c5760003560e01c8062fdd58e1461012157806301ffc9a7146101475780630cac36b21461016a5780630e89341c1461017f5780632eb2c2d6146101925780634e1273f4146101a75780635c975abb146101c7578063715018a6146101d25780637477e129146101da578063782f08ae146101ed5780637bb7c0d814610200578063836a1040146102135780638456cb59146102265780638da5cb5b1461022e57806394cf7cd014610243578063a0bcfc7f14610256578063a22cb46514610269578063ac2a30101461027c578063d81d0a151461028f578063daa6c755146102a2578063e985e9c5146102aa578063f242432a146102e6578063f2fde38b146102f9575b600080fd5b61013461012f366004611bd2565b61030c565b6040519081526020015b60405180910390f35b61015a610155366004611c14565b6103a4565b604051901515815260200161013e565b6101726103f6565b60405161013e9190611c90565b61017261018d366004611ca3565b610488565b6101a56101a0366004611e05565b61054a565b005b6101ba6101b5366004611eb2565b610596565b60405161013e9190611fb9565b60c95460ff1661015a565b6101a56106bf565b6101a56101e8366004611fcc565b6106d3565b6101a56101fb366004612050565b6106e7565b6101a561020e36600461209b565b6106ff565b6101a56102213660046120fe565b610884565b6101a5610961565b610236610983565b60405161013e9190612136565b6101a561025136600461214a565b610992565b6101a5610264366004612167565b610a0c565b6101a56102773660046121b6565b610a22565b6101a561028a366004611bd2565b610a2d565b6101a561029d3660046121ef565b610bcf565b60fe54610134565b61015a6102b8366004612264565b6001600160a01b03918216600090815260986020908152604080832093909416825291909152205460ff1690565b6101a56102f4366004612292565b610d29565b6101a561030736600461214a565b610d6e565b60006001600160a01b03831661037c5760405162461bcd60e51b815260206004820152602a60248201527f455243313135353a2061646472657373207a65726f206973206e6f742061207660448201526930b634b21037bbb732b960b11b60648201526084015b60405180910390fd5b5060009081526097602090815260408083206001600160a01b03949094168352929052205490565b60006001600160e01b03198216636cdb3d1360e11b14806103d557506001600160e01b031982166303a24d0760e21b145b806103f057506301ffc9a760e01b6001600160e01b03198316145b92915050565b606060fd8054610405906122fa565b80601f0160208091040260200160405190810160405280929190818152602001828054610431906122fa565b801561047e5780601f106104535761010080835404028352916020019161047e565b820191906000526020600020905b81548152906001019060200180831161046157829003601f168201915b5050505050905090565b606060fe548211156104ac5760405162461bcd60e51b815260040161037390612335565b600082815260ff6020526040902080546104c5906122fa565b80601f01602080910402602001604051908101604052809291908181526020018280546104f1906122fa565b801561053e5780601f106105135761010080835404028352916020019161053e565b820191906000526020600020905b81548152906001019060200180831161052157829003601f168201915b50505050509050919050565b6001600160a01b038516331480610566575061056685336102b8565b6105825760405162461bcd60e51b81526004016103739061237b565b61058f8585858585610de4565b5050505050565b606081518351146105fb5760405162461bcd60e51b815260206004820152602960248201527f455243313135353a206163636f756e747320616e6420696473206c656e677468604482015268040dad2e6dac2e8c6d60bb1b6064820152608401610373565b600083516001600160401b0381111561061657610616611cbc565b60405190808252806020026020018201604052801561063f578160200160208202803683370190505b50905060005b84518110156106b75761068a858281518110610663576106636123c9565b602002602001015185838151811061067d5761067d6123c9565b602002602001015161030c565b82828151811061069c5761069c6123c9565b60209081029190910101526106b0816123f5565b9050610645565b509392505050565b6106c7610f71565b6106d16000610fd0565b565b6106db610f71565b6106e481611022565b50565b6106ef610f71565b6106fa83838361111e565b505050565b600054610100900460ff161580801561071f5750600054600160ff909116105b80610740575061072e3061119a565b158015610740575060005460ff166001145b6107a35760405162461bcd60e51b815260206004820152602e60248201527f496e697469616c697a61626c653a20636f6e747261637420697320616c72656160448201526d191e481a5b9a5d1a585b1a5e995960921b6064820152608401610373565b6000805460ff1916600117905580156107c6576000805461ff0019166101001790555b60fc80546001600160a01b0319166001600160a01b03861617905582516107f49060fd906020860190611ab0565b5060fb80546001600160a01b0319166001600160a01b038416179055604080516020810190915260008152610828906111a9565b6108306111d9565b610838611208565b801561087e576000805461ff0019169055604051600181527f7f26b83ff96e1f2b6a682f133852f6798a09c465da95921460cefb38474024989060200160405180910390a15b50505050565b61088c610f71565b610894611237565b60fb54604051631846d2f560e31b815283916001600160a01b03169063c23697a8906108c4908490600401612136565b6020604051808303816000875af11580156108e3573d6000803e3d6000fd5b505050506040513d601f19601f820116820180604052508101906109079190612410565b156109245760405162461bcd60e51b81526004016103739061242d565b60fe548411156109465760405162461bcd60e51b815260040161037390612335565b61087e8385846040518060200160405280600081525061127d565b610969610f71565b60c95460ff1661097b576106d1611347565b6106d161139b565b6033546001600160a01b031690565b61099a610f71565b6001600160a01b0381166109ea5760405162461bcd60e51b81526020600482015260176024820152764172746966616374733a207a65726f206164647265737360481b6044820152606401610373565b60fc80546001600160a01b0319166001600160a01b0392909216919091179055565b610a14610f71565b610a1e82826113d4565b5050565b610a1e33838361141e565b60fb54604051631846d2f560e31b815283916001600160a01b03169063c23697a890610a5d908490600401612136565b6020604051808303816000875af1158015610a7c573d6000803e3d6000fd5b505050506040513d601f19601f82011682018060405250810190610aa09190612410565b15610abd5760405162461bcd60e51b81526004016103739061242d565b60fc60009054906101000a90046001600160a01b03166001600160a01b03166343cac2b16040518163ffffffff1660e01b8152600401602060405180830381865afa158015610b10573d6000803e3d6000fd5b505050506040513d601f19601f82011682018060405250810190610b349190612463565b6001600160a01b0316336001600160a01b031614610bb35760405162461bcd60e51b815260206004820152603660248201527f4172746966616374733a206f6e6c79206d696e696e6720636f6e74726163742060448201527531b0b71031b0b636103a3434b990333ab731ba34b7b760511b6064820152608401610373565b6106fa838360016040518060200160405280600081525061127d565b610bd7610f71565b610bdf611237565b60fb54604051631846d2f560e31b815284916001600160a01b03169063c23697a890610c0f908490600401612136565b6020604051808303816000875af1158015610c2e573d6000803e3d6000fd5b505050506040513d601f19601f82011682018060405250810190610c529190612410565b15610c6f5760405162461bcd60e51b81526004016103739061242d565b60005b8351811015610d0d5760fe54848281518110610c9057610c906123c9565b60200260200101511115610cfb5760405162461bcd60e51b815260206004820152602c60248201527f4172746966616374733a2074686973206172746966616374207479706520646f60448201526b65736e27742065786973747360a01b6064820152608401610373565b80610d05816123f5565b915050610c72565b5061087e848484604051806020016040528060008152506114ff565b6001600160a01b038516331480610d455750610d4585336102b8565b610d615760405162461bcd60e51b81526004016103739061237b565b61058f8585858585611639565b610d76610f71565b6001600160a01b038116610ddb5760405162461bcd60e51b815260206004820152602660248201527f4f776e61626c653a206e6577206f776e657220697320746865207a65726f206160448201526564647265737360d01b6064820152608401610373565b6106e481610fd0565b8151835114610e055760405162461bcd60e51b815260040161037390612480565b6001600160a01b038416610e2b5760405162461bcd60e51b8152600401610373906124c8565b3360005b8451811015610f15576000858281518110610e4c57610e4c6123c9565b602002602001015190506000858381518110610e6a57610e6a6123c9565b60209081029190910181015160008481526097835260408082206001600160a01b038e168352909352919091205490915081811015610ebb5760405162461bcd60e51b81526004016103739061250d565b60008381526097602090815260408083206001600160a01b038e8116855292528083208585039055908b16825281208054849290610efa908490612557565b9250508190555050505080610f0e906123f5565b9050610e2f565b50846001600160a01b0316866001600160a01b0316826001600160a01b03166000805160206129018339815191528787604051610f5392919061256f565b60405180910390a4610f69818787878787611755565b505050505050565b33610f7a610983565b6001600160a01b0316146106d15760405162461bcd60e51b815260206004820181905260248201527f4f776e61626c653a2063616c6c6572206973206e6f7420746865206f776e65726044820152606401610373565b603380546001600160a01b038381166001600160a01b0319831681179093556040519116919082907f8be0079c531659141344cd1fd0a4f28419497f9722a3daafe3b4186f6b6457e090600090a35050565b600160fe60008282546110359190612557565b909155505060fc546040805163b1ec71db60e01b815290516001600160a01b039092169163b1ec71db9160048082019260009290919082900301818387803b15801561108057600080fd5b505af1158015611094573d6000803e3d6000fd5b5050505060fd816040516020016110ac9291906125b9565b60408051601f1981840301815291815260fe54600090815260ff602090815291902082516110df93919290910190611ab0565b507fe10fc2a3081e455a43ed79685987459ed559f0db7550c05581ce2a8cc342138c60fe5482604051611113929190612657565b60405180910390a150565b60fe548311156111405760405162461bcd60e51b815260040161037390612335565b600083815260ff60205260409020611159908383611b34565b507f727278078475575154367bc16a7a4b8594316c9855643162a77c49ebdd8d2b0883838360405161118d93929190612699565b60405180910390a1505050565b6001600160a01b03163b151590565b600054610100900460ff166111d05760405162461bcd60e51b8152600401610373906126b3565b6106e4816118b8565b600054610100900460ff166112005760405162461bcd60e51b8152600401610373906126b3565b6106d16118e8565b600054610100900460ff1661122f5760405162461bcd60e51b8152600401610373906126b3565b6106d1611918565b60c95460ff16156106d15760405162461bcd60e51b815260206004820152601060248201526f14185d5cd8589b194e881c185d5cd95960821b6044820152606401610373565b6001600160a01b0384166112a35760405162461bcd60e51b8152600401610373906126fe565b3360006112af8561194b565b905060006112bc8561194b565b905060008681526097602090815260408083206001600160a01b038b168452909152812080548792906112f0908490612557565b909155505060408051878152602081018790526001600160a01b03808a169260009291871691600080516020612921833981519152910160405180910390a461133e83600089898989611996565b50505050505050565b61134f611237565b60c9805460ff191660011790557f62e78cea01bee320cd4e420270b5ea74000d11b0c9f74754ebdbfc544b05a2586113843390565b6040516113919190612136565b60405180910390a1565b6113a3611a58565b60c9805460ff191690557f5db9ee0a495bf2e6ff9c91a7834c1ba4fdd244a5e8aa4e537bd38aeae4b073aa33611384565b6113e060fd8383611b34565b507f87cdeaffd8e70903d6ce7cc983fac3b09ca79e83818124c98e47a1d70f8027d6828260405161141292919061273f565b60405180910390a15050565b816001600160a01b0316836001600160a01b031614156114925760405162461bcd60e51b815260206004820152602960248201527f455243313135353a2073657474696e6720617070726f76616c20737461747573604482015268103337b91039b2b63360b91b6064820152608401610373565b6001600160a01b03838116600081815260986020908152604080832094871680845294825291829020805460ff191686151590811790915591519182527f17307eab39ab6107e8899845ad3d59bd9653f200f220920489ca2b5937696c31910160405180910390a3505050565b6001600160a01b0384166115255760405162461bcd60e51b8152600401610373906126fe565b81518351146115465760405162461bcd60e51b815260040161037390612480565b3360005b84518110156115e357838181518110611565576115656123c9565b602002602001015160976000878481518110611583576115836123c9565b602002602001015181526020019081526020016000206000886001600160a01b03166001600160a01b0316815260200190815260200160002060008282546115cb9190612557565b909155508190506115db816123f5565b91505061154a565b50846001600160a01b031660006001600160a01b0316826001600160a01b0316600080516020612901833981519152878760405161162292919061256f565b60405180910390a461058f81600087878787611755565b6001600160a01b03841661165f5760405162461bcd60e51b8152600401610373906124c8565b33600061166b8561194b565b905060006116788561194b565b905060008681526097602090815260408083206001600160a01b038c168452909152902054858110156116bd5760405162461bcd60e51b81526004016103739061250d565b60008781526097602090815260408083206001600160a01b038d8116855292528083208985039055908a168252812080548892906116fc908490612557565b909155505060408051888152602081018890526001600160a01b03808b16928c82169291881691600080516020612921833981519152910160405180910390a461174a848a8a8a8a8a611996565b505050505050505050565b611767846001600160a01b031661119a565b15610f695760405163bc197c8160e01b81526001600160a01b0385169063bc197c81906117a09089908990889088908890600401612753565b6020604051808303816000875af19250505080156117db575060408051601f3d908101601f191682019092526117d8918101906127b1565b60015b611888576117e76127ce565b806308c379a0141561182157506117fc6127ea565b806118075750611823565b8060405162461bcd60e51b81526004016103739190611c90565b505b60405162461bcd60e51b815260206004820152603460248201527f455243313135353a207472616e7366657220746f206e6f6e2d455243313135356044820152732932b1b2b4bb32b91034b6b83632b6b2b73a32b960611b6064820152608401610373565b6001600160e01b0319811663bc197c8160e01b1461133e5760405162461bcd60e51b815260040161037390612873565b600054610100900460ff166118df5760405162461bcd60e51b8152600401610373906126b3565b6106e481611aa1565b600054610100900460ff1661190f5760405162461bcd60e51b8152600401610373906126b3565b6106d133610fd0565b600054610100900460ff1661193f5760405162461bcd60e51b8152600401610373906126b3565b60c9805460ff19169055565b60408051600180825281830190925260609160009190602080830190803683370190505090508281600081518110611985576119856123c9565b602090810291909101015292915050565b6119a8846001600160a01b031661119a565b15610f695760405163f23a6e6160e01b81526001600160a01b0385169063f23a6e61906119e190899089908890889088906004016128bb565b6020604051808303816000875af1925050508015611a1c575060408051601f3d908101601f19168201909252611a19918101906127b1565b60015b611a28576117e76127ce565b6001600160e01b0319811663f23a6e6160e01b1461133e5760405162461bcd60e51b815260040161037390612873565b60c95460ff166106d15760405162461bcd60e51b815260206004820152601460248201527314185d5cd8589b194e881b9bdd081c185d5cd95960621b6044820152606401610373565b8051610a1e9060999060208401905b828054611abc906122fa565b90600052602060002090601f016020900481019282611ade5760008555611b24565b82601f10611af757805160ff1916838001178555611b24565b82800160010185558215611b24579182015b82811115611b24578251825591602001919060010190611b09565b50611b30929150611ba8565b5090565b828054611b40906122fa565b90600052602060002090601f016020900481019282611b625760008555611b24565b82601f10611b7b5782800160ff19823516178555611b24565b82800160010185558215611b24579182015b82811115611b24578235825591602001919060010190611b8d565b5b80821115611b305760008155600101611ba9565b6001600160a01b03811681146106e457600080fd5b60008060408385031215611be557600080fd5b8235611bf081611bbd565b946020939093013593505050565b6001600160e01b0319811681146106e457600080fd5b600060208284031215611c2657600080fd5b8135611c3181611bfe565b9392505050565b60005b83811015611c53578181015183820152602001611c3b565b8381111561087e5750506000910152565b60008151808452611c7c816020860160208601611c38565b601f01601f19169290920160200192915050565b602081526000611c316020830184611c64565b600060208284031215611cb557600080fd5b5035919050565b634e487b7160e01b600052604160045260246000fd5b601f8201601f191681016001600160401b0381118282101715611cf757611cf7611cbc565b6040525050565b60006001600160401b03821115611d1757611d17611cbc565b5060051b60200190565b600082601f830112611d3257600080fd5b81356020611d3f82611cfe565b604051611d4c8282611cd2565b83815260059390931b8501820192828101915086841115611d6c57600080fd5b8286015b84811015611d875780358352918301918301611d70565b509695505050505050565b600082601f830112611da357600080fd5b81356001600160401b03811115611dbc57611dbc611cbc565b604051611dd3601f8301601f191660200182611cd2565b818152846020838601011115611de857600080fd5b816020850160208301376000918101602001919091529392505050565b600080600080600060a08688031215611e1d57600080fd5b8535611e2881611bbd565b94506020860135611e3881611bbd565b935060408601356001600160401b0380821115611e5457600080fd5b611e6089838a01611d21565b94506060880135915080821115611e7657600080fd5b611e8289838a01611d21565b93506080880135915080821115611e9857600080fd5b50611ea588828901611d92565b9150509295509295909350565b60008060408385031215611ec557600080fd5b82356001600160401b0380821115611edc57600080fd5b818501915085601f830112611ef057600080fd5b81356020611efd82611cfe565b604051611f0a8282611cd2565b83815260059390931b8501820192828101915089841115611f2a57600080fd5b948201945b83861015611f51578535611f4281611bbd565b82529482019490820190611f2f565b96505086013592505080821115611f6757600080fd5b50611f7485828601611d21565b9150509250929050565b600081518084526020808501945080840160005b83811015611fae57815187529582019590820190600101611f92565b509495945050505050565b602081526000611c316020830184611f7e565b600060208284031215611fde57600080fd5b81356001600160401b03811115611ff457600080fd5b61200084828501611d92565b949350505050565b60008083601f84011261201a57600080fd5b5081356001600160401b0381111561203157600080fd5b60208301915083602082850101111561204957600080fd5b9250929050565b60008060006040848603121561206557600080fd5b8335925060208401356001600160401b0381111561208257600080fd5b61208e86828701612008565b9497909650939450505050565b6000806000606084860312156120b057600080fd5b83356120bb81611bbd565b925060208401356001600160401b038111156120d657600080fd5b6120e286828701611d92565b92505060408401356120f381611bbd565b809150509250925092565b60008060006060848603121561211357600080fd5b83359250602084013561212581611bbd565b929592945050506040919091013590565b6001600160a01b0391909116815260200190565b60006020828403121561215c57600080fd5b8135611c3181611bbd565b6000806020838503121561217a57600080fd5b82356001600160401b0381111561219057600080fd5b61219c85828601612008565b90969095509350505050565b80151581146106e457600080fd5b600080604083850312156121c957600080fd5b82356121d481611bbd565b915060208301356121e4816121a8565b809150509250929050565b60008060006060848603121561220457600080fd5b833561220f81611bbd565b925060208401356001600160401b038082111561222b57600080fd5b61223787838801611d21565b9350604086013591508082111561224d57600080fd5b5061225a86828701611d21565b9150509250925092565b6000806040838503121561227757600080fd5b823561228281611bbd565b915060208301356121e481611bbd565b600080600080600060a086880312156122aa57600080fd5b85356122b581611bbd565b945060208601356122c581611bbd565b9350604086013592506060860135915060808601356001600160401b038111156122ee57600080fd5b611ea588828901611d92565b600181811c9082168061230e57607f821691505b6020821081141561232f57634e487b7160e01b600052602260045260246000fd5b50919050565b60208082526026908201527f4172746966616374733a205468697320617274696661637420646f65736e277460408201526508195e1a5cdd60d21b606082015260800190565b6020808252602e908201527f455243313135353a2063616c6c6572206973206e6f7420746f6b656e206f776e60408201526d195c881bdc88185c1c1c9bdd995960921b606082015260800190565b634e487b7160e01b600052603260045260246000fd5b634e487b7160e01b600052601160045260246000fd5b6000600019821415612409576124096123df565b5060010190565b60006020828403121561242257600080fd5b8151611c31816121a8565b6020808252601c908201527b105c9d1a599858dd1cce881d5cd95c881a5b88189b1858dadb1a5cdd60221b604082015260600190565b60006020828403121561247557600080fd5b8151611c3181611bbd565b60208082526028908201527f455243313135353a2069647320616e6420616d6f756e7473206c656e677468206040820152670dad2e6dac2e8c6d60c31b606082015260800190565b60208082526025908201527f455243313135353a207472616e7366657220746f20746865207a65726f206164604082015264647265737360d81b606082015260800190565b6020808252602a908201527f455243313135353a20696e73756666696369656e742062616c616e636520666f60408201526939103a3930b739b332b960b11b606082015260800190565b6000821982111561256a5761256a6123df565b500190565b6040815260006125826040830185611f7e565b82810360208401526125948185611f7e565b95945050505050565b600081516125af818560208601611c38565b9290920192915050565b600080845481600182811c9150808316806125d557607f831692505b60208084108214156125f557634e487b7160e01b86526022600452602486fd5b818015612609576001811461261a57612647565b60ff19861689528489019650612647565b60008b81526020902060005b8681101561263f5781548b820152908501908301612626565b505084890196505b505050505050612594818561259d565b8281526040602082015260006120006040830184611c64565b81835281816020850137506000828201602090810191909152601f909101601f19169091010190565b838152604060208201526000612594604083018486612670565b6020808252602b908201527f496e697469616c697a61626c653a20636f6e7472616374206973206e6f74206960408201526a6e697469616c697a696e6760a81b606082015260800190565b60208082526021908201527f455243313135353a206d696e7420746f20746865207a65726f206164647265736040820152607360f81b606082015260800190565b602081526000612000602083018486612670565b6001600160a01b0386811682528516602082015260a06040820181905260009061277f90830186611f7e565b82810360608401526127918186611f7e565b905082810360808401526127a58185611c64565b98975050505050505050565b6000602082840312156127c357600080fd5b8151611c3181611bfe565b600060033d11156127e75760046000803e5060005160e01c5b90565b600060443d10156127f85790565b6040516003193d81016004833e81513d6001600160401b03808311602484018310171561282757505050505090565b828501915081518181111561283f5750505050505090565b843d87010160208285010111156128595750505050505090565b61286860208286010187611cd2565b509095945050505050565b60208082526028908201527f455243313135353a204552433131353552656365697665722072656a656374656040820152676420746f6b656e7360c01b606082015260800190565b6001600160a01b03868116825285166020820152604081018490526060810183905260a0608082018190526000906128f590830184611c64565b97965050505050505056fe4a39dc06d4c0dbc64b70af90fd698a233a518aa5d07e595d983b8c0526c8f7fbc3d58168c5ae7397731d063d5bbf3d657854427343f4c083240f7aacaa2d0f62a2646970667358221220b9178146cac14625c61e07e165085f18d25b1928c5440e4176be432326c5290564736f6c634300080c0033",
  "devdoc": {
    "kind": "dev",
    "methods": {
      "balanceOf(address,uint256)": {
        "details": "See {IERC1155-balanceOf}. Requirements: - `account` cannot be the zero address."
      },
      "balanceOfBatch(address[],uint256[])": {
        "details": "See {IERC1155-balanceOfBatch}. Requirements: - `accounts` and `ids` must have the same length."
      },
      "isApprovedForAll(address,address)": {
        "details": "See {IERC1155-isApprovedForAll}."
      },
      "owner()": {
        "details": "Returns the address of the current owner."
      },
      "paused()": {
        "details": "Returns true if the contract is paused, and false otherwise."
      },
      "renounceOwnership()": {
        "details": "Leaves the contract without owner. It will not be possible to call `onlyOwner` functions. Can only be called by the current owner. NOTE: Renouncing ownership will leave the contract without an owner, thereby disabling any functionality that is only available to the owner."
      },
      "safeBatchTransferFrom(address,address,uint256[],uint256[],bytes)": {
        "details": "See {IERC1155-safeBatchTransferFrom}."
      },
      "safeTransferFrom(address,address,uint256,uint256,bytes)": {
        "details": "See {IERC1155-safeTransferFrom}."
      },
      "setApprovalForAll(address,bool)": {
        "details": "See {IERC1155-setApprovalForAll}."
      },
      "supportsInterface(bytes4)": {
        "details": "See {IERC165-supportsInterface}."
      },
      "transferOwnership(address)": {
        "details": "Transfers ownership of the contract to a new account (`newOwner`). Can only be called by the current owner."
      }
    },
    "stateVariables": {
      "_artifactTypes": {
        "details": "Number of types of artifactsStarts with 0"
      },
      "_baseURI": {
        "details": "Base URI for IPFS"
      },
      "_blacklist": {
        "details": "The address of the Blacklist contract"
      },
      "_tools": {
        "details": "The address of the Tools contract"
      },
      "_typesToUris": {
        "details": "Mapping from artifact type to it's URI"
      }
    },
    "title": "Artifact tokens can be aquired during mining        Artifacts are used to craft tools",
    "version": 1
  },
  "userdoc": {
    "kind": "user",
    "methods": {
      "addNewArtifact(string)": {
        "notice": "See {IArtifacts-addNewArtifact}"
      },
      "getArtifactsTypesAmount()": {
        "notice": "See {IArtifacts-getArtifactsTypesAmount}"
      },
      "getBaseUri()": {
        "notice": "See {IArtifacts-getBaseUri}"
      },
      "lootArtifact(address,uint256)": {
        "notice": "See {IArtifacts-lootArtifact}"
      },
      "mint(uint256,address,uint256)": {
        "notice": "See {IArtifacts-mint}"
      },
      "mintBatch(address,uint256[],uint256[])": {
        "notice": "See {IArtifacts-mintBatch}"
      },
      "pause()": {
        "notice": "See {IArtifacts-pause}"
      },
      "setBaseUri(string)": {
        "notice": "See {IArtifacts-setBaseUri}"
      },
      "setToolsAddress(address)": {
        "notice": "See {IArtifacts-setToolsAddress}"
      },
      "setUri(uint256,string)": {
        "notice": "See {IArtifacts-setUri}"
      },
      "uri(uint256)": {
        "notice": "See {IArtifacts-uri}"
      }
    },
    "version": 1
  },
  "storageLayout": {
    "storage": [
      {
        "astId": 138,
        "contract": "contracts/Artifacts.sol:Artifacts",
        "label": "_initialized",
        "offset": 0,
        "slot": "0",
        "type": "t_uint8"
      },
      {
        "astId": 141,
        "contract": "contracts/Artifacts.sol:Artifacts",
        "label": "_initializing",
        "offset": 1,
        "slot": "0",
        "type": "t_bool"
      },
      {
        "astId": 2221,
        "contract": "contracts/Artifacts.sol:Artifacts",
        "label": "__gap",
        "offset": 0,
        "slot": "1",
        "type": "t_array(t_uint256)50_storage"
      },
      {
        "astId": 10,
        "contract": "contracts/Artifacts.sol:Artifacts",
        "label": "_owner",
        "offset": 0,
        "slot": "51",
        "type": "t_address"
      },
      {
        "astId": 130,
        "contract": "contracts/Artifacts.sol:Artifacts",
        "label": "__gap",
        "offset": 0,
        "slot": "52",
        "type": "t_array(t_uint256)49_storage"
      },
      {
        "astId": 2265,
        "contract": "contracts/Artifacts.sol:Artifacts",
        "label": "__gap",
        "offset": 0,
        "slot": "101",
        "type": "t_array(t_uint256)50_storage"
      },
      {
        "astId": 456,
        "contract": "contracts/Artifacts.sol:Artifacts",
        "label": "_balances",
        "offset": 0,
        "slot": "151",
        "type": "t_mapping(t_uint256,t_mapping(t_address,t_uint256))"
      },
      {
        "astId": 462,
        "contract": "contracts/Artifacts.sol:Artifacts",
        "label": "_operatorApprovals",
        "offset": 0,
        "slot": "152",
        "type": "t_mapping(t_address,t_mapping(t_address,t_bool))"
      },
      {
        "astId": 464,
        "contract": "contracts/Artifacts.sol:Artifacts",
        "label": "_uri",
        "offset": 0,
        "slot": "153",
        "type": "t_string_storage"
      },
      {
        "astId": 1671,
        "contract": "contracts/Artifacts.sol:Artifacts",
        "label": "__gap",
        "offset": 0,
        "slot": "154",
        "type": "t_array(t_uint256)47_storage"
      },
      {
        "astId": 321,
        "contract": "contracts/Artifacts.sol:Artifacts",
        "label": "_paused",
        "offset": 0,
        "slot": "201",
        "type": "t_bool"
      },
      {
        "astId": 426,
        "contract": "contracts/Artifacts.sol:Artifacts",
        "label": "__gap",
        "offset": 0,
        "slot": "202",
        "type": "t_array(t_uint256)49_storage"
      },
      {
        "astId": 3170,
        "contract": "contracts/Artifacts.sol:Artifacts",
        "label": "_blacklist",
        "offset": 0,
        "slot": "251",
        "type": "t_contract(IBlackList)6158"
      },
      {
        "astId": 3174,
        "contract": "contracts/Artifacts.sol:Artifacts",
        "label": "_tools",
        "offset": 0,
        "slot": "252",
        "type": "t_contract(ITools)6645"
      },
      {
        "astId": 3177,
        "contract": "contracts/Artifacts.sol:Artifacts",
        "label": "_baseURI",
        "offset": 0,
        "slot": "253",
        "type": "t_string_storage"
      },
      {
        "astId": 3180,
        "contract": "contracts/Artifacts.sol:Artifacts",
        "label": "_artifactTypes",
        "offset": 0,
        "slot": "254",
        "type": "t_uint256"
      },
      {
        "astId": 3185,
        "contract": "contracts/Artifacts.sol:Artifacts",
        "label": "_typesToUris",
        "offset": 0,
        "slot": "255",
        "type": "t_mapping(t_uint256,t_string_storage)"
      }
    ],
    "types": {
      "t_address": {
        "encoding": "inplace",
        "label": "address",
        "numberOfBytes": "20"
      },
      "t_array(t_uint256)47_storage": {
        "base": "t_uint256",
        "encoding": "inplace",
        "label": "uint256[47]",
        "numberOfBytes": "1504"
      },
      "t_array(t_uint256)49_storage": {
        "base": "t_uint256",
        "encoding": "inplace",
        "label": "uint256[49]",
        "numberOfBytes": "1568"
      },
      "t_array(t_uint256)50_storage": {
        "base": "t_uint256",
        "encoding": "inplace",
        "label": "uint256[50]",
        "numberOfBytes": "1600"
      },
      "t_bool": {
        "encoding": "inplace",
        "label": "bool",
        "numberOfBytes": "1"
      },
      "t_contract(IBlackList)6158": {
        "encoding": "inplace",
        "label": "contract IBlackList",
        "numberOfBytes": "20"
      },
      "t_contract(ITools)6645": {
        "encoding": "inplace",
        "label": "contract ITools",
        "numberOfBytes": "20"
      },
      "t_mapping(t_address,t_bool)": {
        "encoding": "mapping",
        "key": "t_address",
        "label": "mapping(address => bool)",
        "numberOfBytes": "32",
        "value": "t_bool"
      },
      "t_mapping(t_address,t_mapping(t_address,t_bool))": {
        "encoding": "mapping",
        "key": "t_address",
        "label": "mapping(address => mapping(address => bool))",
        "numberOfBytes": "32",
        "value": "t_mapping(t_address,t_bool)"
      },
      "t_mapping(t_address,t_uint256)": {
        "encoding": "mapping",
        "key": "t_address",
        "label": "mapping(address => uint256)",
        "numberOfBytes": "32",
        "value": "t_uint256"
      },
      "t_mapping(t_uint256,t_mapping(t_address,t_uint256))": {
        "encoding": "mapping",
        "key": "t_uint256",
        "label": "mapping(uint256 => mapping(address => uint256))",
        "numberOfBytes": "32",
        "value": "t_mapping(t_address,t_uint256)"
      },
      "t_mapping(t_uint256,t_string_storage)": {
        "encoding": "mapping",
        "key": "t_uint256",
        "label": "mapping(uint256 => string)",
        "numberOfBytes": "32",
        "value": "t_string_storage"
      },
      "t_string_storage": {
        "encoding": "bytes",
        "label": "string",
        "numberOfBytes": "32"
      },
      "t_uint256": {
        "encoding": "inplace",
        "label": "uint256",
        "numberOfBytes": "32"
      },
      "t_uint8": {
        "encoding": "inplace",
        "label": "uint8",
        "numberOfBytes": "1"
      }
    }
  }
}