{
  "address": "0x53a754166618aD19B0Ba97CcdD14E0F0Ba28Ab8c",
  "abi": [
    {
      "anonymous": false,
      "inputs": [
        {
          "indexed": false,
          "internalType": "uint8",
          "name": "version",
          "type": "uint8"
        }
      ],
      "name": "Initialized",
      "type": "event"
    },
    {
      "anonymous": false,
      "inputs": [
        {
          "indexed": false,
          "internalType": "address",
          "name": "user",
          "type": "address"
        },
        {
          "components": [
            {
              "internalType": "uint32",
              "name": "endTime",
              "type": "uint32"
            },
            {
              "internalType": "uint32",
              "name": "energyCost",
              "type": "uint32"
            },
            {
              "internalType": "uint16",
              "name": "toolType",
              "type": "uint16"
            },
            {
              "internalType": "uint16",
              "name": "strengthCost",
              "type": "uint16"
            },
            {
              "internalType": "bool",
              "name": "started",
              "type": "bool"
            }
          ],
          "indexed": false,
          "internalType": "struct Mining.MiningSession",
          "name": "session",
          "type": "tuple"
        }
      ],
      "name": "MiningEnded",
      "type": "event"
    },
    {
      "anonymous": false,
      "inputs": [
        {
          "indexed": false,
          "internalType": "address",
          "name": "user",
          "type": "address"
        },
        {
          "components": [
            {
              "internalType": "uint32",
              "name": "endTime",
              "type": "uint32"
            },
            {
              "internalType": "uint32",
              "name": "energyCost",
              "type": "uint32"
            },
            {
              "internalType": "uint16",
              "name": "toolType",
              "type": "uint16"
            },
            {
              "internalType": "uint16",
              "name": "strengthCost",
              "type": "uint16"
            },
            {
              "internalType": "bool",
              "name": "started",
              "type": "bool"
            }
          ],
          "indexed": false,
          "internalType": "struct Mining.MiningSession",
          "name": "session",
          "type": "tuple"
        }
      ],
      "name": "MiningStarted",
      "type": "event"
    },
    {
      "anonymous": false,
      "inputs": [
        {
          "indexed": true,
          "internalType": "address",
          "name": "previousOwner",
          "type": "address"
        },
        {
          "indexed": true,
          "internalType": "address",
          "name": "newOwner",
          "type": "address"
        }
      ],
      "name": "OwnershipTransferred",
      "type": "event"
    },
    {
      "anonymous": false,
      "inputs": [
        {
          "indexed": false,
          "internalType": "address",
          "name": "account",
          "type": "address"
        }
      ],
      "name": "Paused",
      "type": "event"
    },
    {
      "anonymous": false,
      "inputs": [
        {
          "indexed": false,
          "internalType": "address",
          "name": "account",
          "type": "address"
        }
      ],
      "name": "Unpaused",
      "type": "event"
    },
    {
      "inputs": [
        {
          "internalType": "uint256",
          "name": "toolId",
          "type": "uint256"
        }
      ],
      "name": "endMining",
      "outputs": [],
      "stateMutability": "nonpayable",
      "type": "function"
    },
    {
      "inputs": [],
      "name": "getRewards",
      "outputs": [],
      "stateMutability": "nonpayable",
      "type": "function"
    },
    {
      "inputs": [
        {
          "internalType": "address",
          "name": "blacklistAddress",
          "type": "address"
        },
        {
          "internalType": "address",
          "name": "toolsAddress",
          "type": "address"
        }
      ],
      "name": "initialize",
      "outputs": [],
      "stateMutability": "nonpayable",
      "type": "function"
    },
    {
      "inputs": [
        {
          "internalType": "address",
          "name": "operator",
          "type": "address"
        },
        {
          "internalType": "address",
          "name": "from",
          "type": "address"
        },
        {
          "internalType": "uint256[]",
          "name": "ids",
          "type": "uint256[]"
        },
        {
          "internalType": "uint256[]",
          "name": "values",
          "type": "uint256[]"
        },
        {
          "internalType": "bytes",
          "name": "data",
          "type": "bytes"
        }
      ],
      "name": "onERC1155BatchReceived",
      "outputs": [
        {
          "internalType": "bytes4",
          "name": "",
          "type": "bytes4"
        }
      ],
      "stateMutability": "pure",
      "type": "function"
    },
    {
      "inputs": [
        {
          "internalType": "address",
          "name": "operator",
          "type": "address"
        },
        {
          "internalType": "address",
          "name": "from",
          "type": "address"
        },
        {
          "internalType": "uint256",
          "name": "id",
          "type": "uint256"
        },
        {
          "internalType": "uint256",
          "name": "value",
          "type": "uint256"
        },
        {
          "internalType": "bytes",
          "name": "data",
          "type": "bytes"
        }
      ],
      "name": "onERC1155Received",
      "outputs": [
        {
          "internalType": "bytes4",
          "name": "",
          "type": "bytes4"
        }
      ],
      "stateMutability": "pure",
      "type": "function"
    },
    {
      "inputs": [],
      "name": "owner",
      "outputs": [
        {
          "internalType": "address",
          "name": "",
          "type": "address"
        }
      ],
      "stateMutability": "view",
      "type": "function"
    },
    {
      "inputs": [],
      "name": "pause",
      "outputs": [],
      "stateMutability": "nonpayable",
      "type": "function"
    },
    {
      "inputs": [],
      "name": "paused",
      "outputs": [
        {
          "internalType": "bool",
          "name": "",
          "type": "bool"
        }
      ],
      "stateMutability": "view",
      "type": "function"
    },
    {
      "inputs": [],
      "name": "renounceOwnership",
      "outputs": [],
      "stateMutability": "nonpayable",
      "type": "function"
    },
    {
      "inputs": [
        {
          "internalType": "uint256",
          "name": "toolId",
          "type": "uint256"
        },
        {
          "internalType": "address",
          "name": "user",
          "type": "address"
        },
        {
          "internalType": "uint256[]",
          "name": "resourcesAmount",
          "type": "uint256[]"
        },
        {
          "internalType": "uint256[]",
          "name": "artifactsAmount",
          "type": "uint256[]"
        }
      ],
      "name": "startMining",
      "outputs": [],
      "stateMutability": "nonpayable",
      "type": "function"
    },
    {
      "inputs": [
        {
          "internalType": "bytes4",
          "name": "interfaceId",
          "type": "bytes4"
        }
      ],
      "name": "supportsInterface",
      "outputs": [
        {
          "internalType": "bool",
          "name": "",
          "type": "bool"
        }
      ],
      "stateMutability": "pure",
      "type": "function"
    },
    {
      "inputs": [
        {
          "internalType": "address",
          "name": "newOwner",
          "type": "address"
        }
      ],
      "name": "transferOwnership",
      "outputs": [],
      "stateMutability": "nonpayable",
      "type": "function"
    }
  ],
  "transactionHash": "0x16ee10bcc1a9936b64a73d50f4a5827b86d6cadd80b32f135bb51b0e60bd71b5",
  "args": [],
  "numDeployments": 1,
  "solcInputHash": "63392786ebe349abfa2cdd2e3c441e37",
  "bytecode": "0x608060405234801561001057600080fd5b50611ad6806100206000396000f3fe608060405234801561001057600080fd5b50600436106100a45760003560e01c806301ffc9a7146100a95780630572b0cc146100e2578063485cc955146100ec5780635c975abb146100ff578063715018a61461010a5780638456cb59146101125780638da5cb5b1461011a578063a7148e8a1461012f578063bc197c8114610142578063e614c0dc14610196578063f23a6e61146101a9578063f2fde38b146101e2575b600080fd5b6100cd6100b73660046114b1565b6001600160e01b0319166301ffc9a760e01b1490565b60405190151581526020015b60405180910390f35b6100ea6101f5565b005b6100ea6100fa3660046114f7565b6105a8565b60335460ff166100cd565b6100ea610703565b6100ea610717565b610122610739565b6040516100d99190611530565b6100ea61013d366004611544565b610748565b61017d6101503660046115e9565b7fbc197c819b3e337a6f9652dd10becd7eef83032af3b9d958d3d42f669414662198975050505050505050565b6040516001600160e01b031990911681526020016100d9565b6100ea6101a4366004611757565b610ab1565b61017d6101b73660046117d6565b7ff23a6e612e1ff4830e658fe43f4e3cb4a5f8170bd5d9e69fb5d7a7fa9e4fdf979695505050505050565b6100ea6101f0366004611851565b610fda565b60008060005b609760009054906101000a90046001600160a01b03166001600160a01b031663e7fa2e6c6040518163ffffffff1660e01b8152600401602060405180830381865afa15801561024e573d6000803e3d6000fd5b505050506040513d601f19601f82011682018060405250810190610272919061186e565b8110156103c357336000908152609b60209081526040808320848452909152902054156103b157609754604051637ae1f13760e01b8152600481018390526001600160a01b0390911690637ae1f13790602401602060405180830381865afa1580156102e2573d6000803e3d6000fd5b505050506040513d601f19601f820116820180604052508101906103069190611887565b336000818152609b602090815260408083208684529091529081902054905163a9059cbb60e01b81529295506001600160a01b0386169263a9059cbb926103519290916004016118a4565b6020604051808303816000875af1158015610370573d6000803e3d6000fd5b505050506040513d601f19601f8201168201806040525081019061039491906118bd565b50336000908152609b602090815260408083208484529091528120555b806103bb816118f5565b9150506101fb565b5060015b609760009054906101000a90046001600160a01b03166001600160a01b031663daa6c7556040518163ffffffff1660e01b8152600401602060405180830381865afa15801561041a573d6000803e3d6000fd5b505050506040513d601f19601f8201168201806040525081019061043e919061186e565b81116105a357336000908152609c602090815260408083208484529091529020541561059157609760009054906101000a90046001600160a01b03166001600160a01b031663ee100cd66040518163ffffffff1660e01b8152600401602060405180830381865afa1580156104b7573d6000803e3d6000fd5b505050506040513d601f19601f820116820180604052508101906104db9190611887565b915060015b336000908152609c60209081526040808320858452909152902054811161057457604051630ac2a30160e41b81526001600160a01b0384169063ac2a30109061052f90339086906004016118a4565b600060405180830381600087803b15801561054957600080fd5b505af115801561055d573d6000803e3d6000fd5b50505050808061056c906118f5565b9150506104e0565b50336000908152609c602090815260408083208484529091528120555b8061059b816118f5565b9150506103c7565b505050565b600054610100900460ff16158080156105c85750600054600160ff909116105b806105e25750303b1580156105e2575060005460ff166001145b61064a5760405162461bcd60e51b815260206004820152602e60248201527f496e697469616c697a61626c653a20636f6e747261637420697320616c72656160448201526d191e481a5b9a5d1a585b1a5e995960921b60648201526084015b60405180910390fd5b6000805460ff19166001179055801561066d576000805461ff0019166101001790555b6099805461dead6001600160a01b0319918216179091556097805482166001600160a01b0385811691909117909155609880549092169085161790556106b1611053565b6106b9611082565b80156105a3576000805461ff0019169055604051600181527f7f26b83ff96e1f2b6a682f133852f6798a09c465da95921460cefb38474024989060200160405180910390a1505050565b61070b6110b1565b6107156000611110565b565b61071f6110b1565b60335460ff1661073157610715611162565b6107156111b6565b6065546001600160a01b031690565b6107506111ef565b609854604051631846d2f560e31b815233916001600160a01b03169063c23697a890610780908490600401611530565b6020604051808303816000875af115801561079f573d6000803e3d6000fd5b505050506040513d601f19601f820116820180604052508101906107c391906118bd565b156107e05760405162461bcd60e51b815260040161064190611910565b336000908152609a60209081526040808320858452909152902054600160601b900460ff1661084d5760405162461bcd60e51b81526020600482015260196024820152784d696e696e673a207573657220646f65736e2774206d696e6560381b6044820152606401610641565b336000908152609a6020908152604080832085845290915290205463ffffffff164210156108b15760405162461bcd60e51b81526020600482015260116024820152704d696e696e673a20746f6f206561726c7960781b6044820152606401610641565b609754336000908152609a6020908152604080832086845290915280822054815163e30d34a760e01b815230600482015260248101879052600160501b90910461ffff16604482015290516001600160a01b039093169263e30d34a79260648084019391929182900301818387803b15801561092c57600080fd5b505af1158015610940573d6000803e3d6000fd5b5050609754604051637921219560e11b81526001600160a01b03909116925063f242432a915061097b9030903390879060019060040161193b565b600060405180830381600087803b15801561099557600080fd5b505af11580156109a9573d6000803e3d6000fd5b505050506000609a60006109ba3390565b6001600160a01b03168152602080820192909252604090810160009081208682528352818120825160a081018452905463ffffffff8082168352600160201b8204169482019490945261ffff600160401b8504811693820193909352600160501b9093049091166060830152608082015290507fa3d5bdab2881ec265b492985c50053fa5047af6880a3c6feada1009bdcd5bfe9610a553390565b336000908152609a60209081526040808320888452909152908190209051610a7e929190611973565b60405180910390a15050336000908152609a602090815260408083209383529290522080546001600160681b0319169055565b610ab96110b1565b610ac16111ef565b609854604051631846d2f560e31b815284916001600160a01b03169063c23697a890610af1908490600401611530565b6020604051808303816000875af1158015610b10573d6000803e3d6000fd5b505050506040513d601f19601f82011682018060405250810190610b3491906118bd565b15610b515760405162461bcd60e51b815260040161064190611910565b6001600160a01b0384166000908152609a60209081526040808320888452909152902054600160601b900460ff1615610be55760405162461bcd60e51b815260206004820152603060248201527f4d696e696e673a2074686973207573657220616c72656164792073746172746560448201526f64206d696e696e672070726f6365737360801b6064820152608401610641565b609754604051633dfc8f2160e01b815260009182918291829182916001600160a01b031690633dfc8f2190610c20908c908e906004016118a4565b60a060405180830381865afa158015610c3d573d6000803e3d6000fd5b505050506040513d601f19601f82011682018060405250810190610c6191906119d0565b9450945094509450945060008385610c799190611a10565b11610cc55760405162461bcd60e51b815260206004820152601c60248201527b09ad2dcd2dcce7440dcdee840cadcdeeacee8d040e6e8e4cadccee8d60231b6044820152606401610641565b609754604051637ae1f13760e01b8152600060048201819052916001600160a01b031690637ae1f13790602401602060405180830381865afa158015610d0f573d6000803e3d6000fd5b505050506040513d601f19601f82011682018060405250810190610d339190611887565b9050609760009054906101000a90046001600160a01b03166001600160a01b031663f242432a8b308e60016040518563ffffffff1660e01b8152600401610d7d949392919061193b565b600060405180830381600087803b158015610d9757600080fd5b505af1158015610dab573d6000803e3d6000fd5b50506099546040516323b872dd60e01b81526001600160a01b038e8116600483015291821660248201526044810186905290841692506323b872dd91506064016020604051808303816000875af1158015610e0a573d6000803e3d6000fd5b505050506040513d601f19601f82011682018060405250810190610e2e91906118bd565b506040518060a001604052808442610e469190611a27565b63ffffffff1681526020018363ffffffff1681526020018761ffff1681526020018561ffff16815260200160011515815250609a60008c6001600160a01b03166001600160a01b0316815260200190815260200160002060008d815260200190815260200160002060008201518160000160006101000a81548163ffffffff021916908363ffffffff16021790555060208201518160000160046101000a81548163ffffffff021916908363ffffffff16021790555060408201518160000160086101000a81548161ffff021916908361ffff160217905550606082015181600001600a6101000a81548161ffff021916908361ffff160217905550608082015181600001600c6101000a81548160ff021916908315150217905550905050610f708a8a8a611235565b6001600160a01b038a166000908152609a602090815260408083208e84529091529081902090517f2cf42dab26f6e78d02ddf36175cca18384d98cd465c1cde4a4271ac6a8d7b1b991610fc5918d9190611973565b60405180910390a15050505050505050505050565b610fe26110b1565b6001600160a01b0381166110475760405162461bcd60e51b815260206004820152602660248201527f4f776e61626c653a206e6577206f776e657220697320746865207a65726f206160448201526564647265737360d01b6064820152608401610641565b61105081611110565b50565b600054610100900460ff1661107a5760405162461bcd60e51b815260040161064190611a3f565b610715611405565b600054610100900460ff166110a95760405162461bcd60e51b815260040161064190611a3f565b610715611438565b336110ba610739565b6001600160a01b0316146107155760405162461bcd60e51b815260206004820181905260248201527f4f776e61626c653a2063616c6c6572206973206e6f7420746865206f776e65726044820152606401610641565b606580546001600160a01b038381166001600160a01b0319831681179093556040519116919082907f8be0079c531659141344cd1fd0a4f28419497f9722a3daafe3b4186f6b6457e090600090a35050565b61116a6111ef565b6033805460ff191660011790557f62e78cea01bee320cd4e420270b5ea74000d11b0c9f74754ebdbfc544b05a25861119f3390565b6040516111ac9190611530565b60405180910390a1565b6111be611468565b6033805460ff191690557f5db9ee0a495bf2e6ff9c91a7834c1ba4fdd244a5e8aa4e537bd38aeae4b073aa3361119f565b60335460ff16156107155760405162461bcd60e51b815260206004820152601060248201526f14185d5cd8589b194e881c185d5cd95960821b6044820152606401610641565b60005b82518110156112d95782818151811061125357611253611a8a565b60200260200101516000146112c75782818151811061127457611274611a8a565b6020026020010151609b6000866001600160a01b03166001600160a01b03168152602001908152602001600020600083815260200190815260200160002060008282546112c19190611a27565b90915550505b806112d1816118f5565b915050611238565b5060005b609760009054906101000a90046001600160a01b03166001600160a01b031663daa6c7556040518163ffffffff1660e01b8152600401602060405180830381865afa158015611330573d6000803e3d6000fd5b505050506040513d601f19601f82011682018060405250810190611354919061186e565b8110156113ff5781818151811061136d5761136d611a8a565b60200260200101516000146113ed5781818151811061138e5761138e611a8a565b6020026020010151609c6000866001600160a01b03166001600160a01b0316815260200190815260200160002060008360016113ca9190611a27565b815260200190815260200160002060008282546113e79190611a27565b90915550505b806113f7816118f5565b9150506112dd565b50505050565b600054610100900460ff1661142c5760405162461bcd60e51b815260040161064190611a3f565b6033805460ff19169055565b600054610100900460ff1661145f5760405162461bcd60e51b815260040161064190611a3f565b61071533611110565b60335460ff166107155760405162461bcd60e51b815260206004820152601460248201527314185d5cd8589b194e881b9bdd081c185d5cd95960621b6044820152606401610641565b6000602082840312156114c357600080fd5b81356001600160e01b0319811681146114db57600080fd5b9392505050565b6001600160a01b038116811461105057600080fd5b6000806040838503121561150a57600080fd5b8235611515816114e2565b91506020830135611525816114e2565b809150509250929050565b6001600160a01b0391909116815260200190565b60006020828403121561155657600080fd5b5035919050565b60008083601f84011261156f57600080fd5b5081356001600160401b0381111561158657600080fd5b6020830191508360208260051b85010111156115a157600080fd5b9250929050565b60008083601f8401126115ba57600080fd5b5081356001600160401b038111156115d157600080fd5b6020830191508360208285010111156115a157600080fd5b60008060008060008060008060a0898b03121561160557600080fd5b8835611610816114e2565b97506020890135611620816114e2565b965060408901356001600160401b038082111561163c57600080fd5b6116488c838d0161155d565b909850965060608b013591508082111561166157600080fd5b61166d8c838d0161155d565b909650945060808b013591508082111561168657600080fd5b506116938b828c016115a8565b999c989b5096995094979396929594505050565b634e487b7160e01b600052604160045260246000fd5b600082601f8301126116ce57600080fd5b813560206001600160401b03808311156116ea576116ea6116a7565b8260051b604051601f19603f8301168101818110848211171561170f5761170f6116a7565b60405293845285810183019383810192508785111561172d57600080fd5b83870191505b8482101561174c57813583529183019190830190611733565b979650505050505050565b6000806000806080858703121561176d57600080fd5b84359350602085013561177f816114e2565b925060408501356001600160401b038082111561179b57600080fd5b6117a7888389016116bd565b935060608701359150808211156117bd57600080fd5b506117ca878288016116bd565b91505092959194509250565b60008060008060008060a087890312156117ef57600080fd5b86356117fa816114e2565b9550602087013561180a816114e2565b9450604087013593506060870135925060808701356001600160401b0381111561183357600080fd5b61183f89828a016115a8565b979a9699509497509295939492505050565b60006020828403121561186357600080fd5b81356114db816114e2565b60006020828403121561188057600080fd5b5051919050565b60006020828403121561189957600080fd5b81516114db816114e2565b6001600160a01b03929092168252602082015260400190565b6000602082840312156118cf57600080fd5b815180151581146114db57600080fd5b634e487b7160e01b600052601160045260246000fd5b6000600019821415611909576119096118df565b5060010190565b602080825260119082015270155cd95c881a5b88189b1858dadb1a5cdd607a1b604082015260600190565b6001600160a01b0394851681529290931660208301526040820152606081019190915260a06080820181905260009082015260c00190565b6001600160a01b039290921682525463ffffffff80821660208085019190915282901c1660408084019190915281901c61ffff908116606080850191909152605083901c90911660808401521c60ff16151560a082015260c00190565b600080600080600060a086880312156119e857600080fd5b5050835160208501516040860151606087015160809097015192989197509594509092509050565b600082821015611a2257611a226118df565b500390565b60008219821115611a3a57611a3a6118df565b500190565b6020808252602b908201527f496e697469616c697a61626c653a20636f6e7472616374206973206e6f74206960408201526a6e697469616c697a696e6760a81b606082015260800190565b634e487b7160e01b600052603260045260246000fdfea2646970667358221220cdf7ee21c866189a382b8dcfaa28f1ca30893564de95e162628a21246ce570af64736f6c634300080c0033",
  "devdoc": {
    "kind": "dev",
    "methods": {
      "onERC1155BatchReceived(address,address,uint256[],uint256[],bytes)": {
        "details": "Handles the receipt of a multiple ERC1155 token types. This function is called at the end of a `safeBatchTransferFrom` after the balances have been updated. NOTE: To accept the transfer(s), this must return `bytes4(keccak256(\"onERC1155BatchReceived(address,address,uint256[],uint256[],bytes)\"))` (i.e. 0xbc197c81, or its own function selector).",
        "params": {
          "data": "Additional data with no specified format",
          "from": "The address which previously owned the token",
          "ids": "An array containing ids of each token being transferred (order and length must match values array)",
          "operator": "The address which initiated the batch transfer (i.e. msg.sender)",
          "values": "An array containing amounts of each token being transferred (order and length must match ids array)"
        },
        "returns": {
          "_0": "`bytes4(keccak256(\"onERC1155BatchReceived(address,address,uint256[],uint256[],bytes)\"))` if transfer is allowed"
        }
      },
      "onERC1155Received(address,address,uint256,uint256,bytes)": {
        "details": "Handles the receipt of a single ERC1155 token type. This function is called at the end of a `safeTransferFrom` after the balance has been updated. NOTE: To accept the transfer, this must return `bytes4(keccak256(\"onERC1155Received(address,address,uint256,uint256,bytes)\"))` (i.e. 0xf23a6e61, or its own function selector).",
        "params": {
          "data": "Additional data with no specified format",
          "from": "The address which previously owned the token",
          "id": "The ID of the token being transferred",
          "operator": "The address which initiated the transfer (i.e. msg.sender)",
          "value": "The amount of tokens being transferred"
        },
        "returns": {
          "_0": "`bytes4(keccak256(\"onERC1155Received(address,address,uint256,uint256,bytes)\"))` if transfer is allowed"
        }
      },
      "owner()": {
        "details": "Returns the address of the current owner."
      },
      "paused()": {
        "details": "Returns true if the contract is paused, and false otherwise."
      },
      "renounceOwnership()": {
        "details": "Leaves the contract without owner. It will not be possible to call `onlyOwner` functions anymore. Can only be called by the current owner. NOTE: Renouncing ownership will leave the contract without an owner, thereby removing any functionality that is only available to the owner."
      },
      "supportsInterface(bytes4)": {
        "details": "Returns true if this contract implements the interface defined by `interfaceId`. See the corresponding https://eips.ethereum.org/EIPS/eip-165#how-interfaces-are-identified[EIP section] to learn more about how these ids are created. This function call must use less than 30 000 gas."
      },
      "transferOwnership(address)": {
        "details": "Transfers ownership of the contract to a new account (`newOwner`). Can only be called by the current owner."
      }
    },
    "version": 1
  },
  "userdoc": {
    "kind": "user",
    "methods": {},
    "version": 1
  },
  "storageLayout": {
    "storage": [
      {
        "astId": 138,
        "contract": "contracts/Mining.sol:Mining",
        "label": "_initialized",
        "offset": 0,
        "slot": "0",
        "type": "t_uint8"
      },
      {
        "astId": 141,
        "contract": "contracts/Mining.sol:Mining",
        "label": "_initializing",
        "offset": 1,
        "slot": "0",
        "type": "t_bool"
      },
      {
        "astId": 2116,
        "contract": "contracts/Mining.sol:Mining",
        "label": "__gap",
        "offset": 0,
        "slot": "1",
        "type": "t_array(t_uint256)50_storage"
      },
      {
        "astId": 303,
        "contract": "contracts/Mining.sol:Mining",
        "label": "_paused",
        "offset": 0,
        "slot": "51",
        "type": "t_bool"
      },
      {
        "astId": 408,
        "contract": "contracts/Mining.sol:Mining",
        "label": "__gap",
        "offset": 0,
        "slot": "52",
        "type": "t_array(t_uint256)49_storage"
      },
      {
        "astId": 10,
        "contract": "contracts/Mining.sol:Mining",
        "label": "_owner",
        "offset": 0,
        "slot": "101",
        "type": "t_address"
      },
      {
        "astId": 130,
        "contract": "contracts/Mining.sol:Mining",
        "label": "__gap",
        "offset": 0,
        "slot": "102",
        "type": "t_array(t_uint256)49_storage"
      },
      {
        "astId": 4496,
        "contract": "contracts/Mining.sol:Mining",
        "label": "_tools",
        "offset": 0,
        "slot": "151",
        "type": "t_contract(ITools)6691"
      },
      {
        "astId": 4499,
        "contract": "contracts/Mining.sol:Mining",
        "label": "_blacklist",
        "offset": 0,
        "slot": "152",
        "type": "t_contract(IBlackList)6607"
      },
      {
        "astId": 4501,
        "contract": "contracts/Mining.sol:Mining",
        "label": "_zeroAddress",
        "offset": 0,
        "slot": "153",
        "type": "t_address"
      },
      {
        "astId": 4508,
        "contract": "contracts/Mining.sol:Mining",
        "label": "_session",
        "offset": 0,
        "slot": "154",
        "type": "t_mapping(t_address,t_mapping(t_uint256,t_struct(MiningSession)4531_storage))"
      },
      {
        "astId": 4514,
        "contract": "contracts/Mining.sol:Mining",
        "label": "availableResources",
        "offset": 0,
        "slot": "155",
        "type": "t_mapping(t_address,t_mapping(t_uint256,t_uint256))"
      },
      {
        "astId": 4520,
        "contract": "contracts/Mining.sol:Mining",
        "label": "availableArtifacts",
        "offset": 0,
        "slot": "156",
        "type": "t_mapping(t_address,t_mapping(t_uint256,t_uint256))"
      }
    ],
    "types": {
      "t_address": {
        "encoding": "inplace",
        "label": "address",
        "numberOfBytes": "20"
      },
      "t_array(t_uint256)49_storage": {
        "base": "t_uint256",
        "encoding": "inplace",
        "label": "uint256[49]",
        "numberOfBytes": "1568"
      },
      "t_array(t_uint256)50_storage": {
        "base": "t_uint256",
        "encoding": "inplace",
        "label": "uint256[50]",
        "numberOfBytes": "1600"
      },
      "t_bool": {
        "encoding": "inplace",
        "label": "bool",
        "numberOfBytes": "1"
      },
      "t_contract(IBlackList)6607": {
        "encoding": "inplace",
        "label": "contract IBlackList",
        "numberOfBytes": "20"
      },
      "t_contract(ITools)6691": {
        "encoding": "inplace",
        "label": "contract ITools",
        "numberOfBytes": "20"
      },
      "t_mapping(t_address,t_mapping(t_uint256,t_struct(MiningSession)4531_storage))": {
        "encoding": "mapping",
        "key": "t_address",
        "label": "mapping(address => mapping(uint256 => struct Mining.MiningSession))",
        "numberOfBytes": "32",
        "value": "t_mapping(t_uint256,t_struct(MiningSession)4531_storage)"
      },
      "t_mapping(t_address,t_mapping(t_uint256,t_uint256))": {
        "encoding": "mapping",
        "key": "t_address",
        "label": "mapping(address => mapping(uint256 => uint256))",
        "numberOfBytes": "32",
        "value": "t_mapping(t_uint256,t_uint256)"
      },
      "t_mapping(t_uint256,t_struct(MiningSession)4531_storage)": {
        "encoding": "mapping",
        "key": "t_uint256",
        "label": "mapping(uint256 => struct Mining.MiningSession)",
        "numberOfBytes": "32",
        "value": "t_struct(MiningSession)4531_storage"
      },
      "t_mapping(t_uint256,t_uint256)": {
        "encoding": "mapping",
        "key": "t_uint256",
        "label": "mapping(uint256 => uint256)",
        "numberOfBytes": "32",
        "value": "t_uint256"
      },
      "t_struct(MiningSession)4531_storage": {
        "encoding": "inplace",
        "label": "struct Mining.MiningSession",
        "members": [
          {
            "astId": 4522,
            "contract": "contracts/Mining.sol:Mining",
            "label": "endTime",
            "offset": 0,
            "slot": "0",
            "type": "t_uint32"
          },
          {
            "astId": 4524,
            "contract": "contracts/Mining.sol:Mining",
            "label": "energyCost",
            "offset": 4,
            "slot": "0",
            "type": "t_uint32"
          },
          {
            "astId": 4526,
            "contract": "contracts/Mining.sol:Mining",
            "label": "toolType",
            "offset": 8,
            "slot": "0",
            "type": "t_uint16"
          },
          {
            "astId": 4528,
            "contract": "contracts/Mining.sol:Mining",
            "label": "strengthCost",
            "offset": 10,
            "slot": "0",
            "type": "t_uint16"
          },
          {
            "astId": 4530,
            "contract": "contracts/Mining.sol:Mining",
            "label": "started",
            "offset": 12,
            "slot": "0",
            "type": "t_bool"
          }
        ],
        "numberOfBytes": "32"
      },
      "t_uint16": {
        "encoding": "inplace",
        "label": "uint16",
        "numberOfBytes": "2"
      },
      "t_uint256": {
        "encoding": "inplace",
        "label": "uint256",
        "numberOfBytes": "32"
      },
      "t_uint32": {
        "encoding": "inplace",
        "label": "uint32",
        "numberOfBytes": "4"
      },
      "t_uint8": {
        "encoding": "inplace",
        "label": "uint8",
        "numberOfBytes": "1"
      }
    }
  }
}