{
  "address": "0xf637886DD8ECa20a9Dbb0875200f8f67a8cEdE67",
  "abi": [
    {
      "anonymous": false,
      "inputs": [
        {
          "indexed": false,
          "internalType": "uint8",
          "name": "version",
          "type": "uint8"
        }
      ],
      "name": "Initialized",
      "type": "event"
    },
    {
      "anonymous": false,
      "inputs": [
        {
          "indexed": false,
          "internalType": "address",
          "name": "user",
          "type": "address"
        },
        {
          "components": [
            {
              "internalType": "uint32",
              "name": "toolId",
              "type": "uint32"
            },
            {
              "internalType": "bool",
              "name": "started",
              "type": "bool"
            },
            {
              "internalType": "bool",
              "name": "ended",
              "type": "bool"
            },
            {
              "internalType": "uint32",
              "name": "endTime",
              "type": "uint32"
            },
            {
              "internalType": "uint32",
              "name": "energyCost",
              "type": "uint32"
            },
            {
              "internalType": "uint16",
              "name": "strengthCost",
              "type": "uint16"
            },
            {
              "internalType": "uint32",
              "name": "nonce",
              "type": "uint32"
            }
          ],
          "indexed": false,
          "internalType": "struct IMining.MiningSession",
          "name": "session",
          "type": "tuple"
        }
      ],
      "name": "MiningEnded",
      "type": "event"
    },
    {
      "anonymous": false,
      "inputs": [
        {
          "indexed": false,
          "internalType": "address",
          "name": "user",
          "type": "address"
        },
        {
          "components": [
            {
              "internalType": "uint32",
              "name": "toolId",
              "type": "uint32"
            },
            {
              "internalType": "bool",
              "name": "started",
              "type": "bool"
            },
            {
              "internalType": "bool",
              "name": "ended",
              "type": "bool"
            },
            {
              "internalType": "uint32",
              "name": "endTime",
              "type": "uint32"
            },
            {
              "internalType": "uint32",
              "name": "energyCost",
              "type": "uint32"
            },
            {
              "internalType": "uint16",
              "name": "strengthCost",
              "type": "uint16"
            },
            {
              "internalType": "uint32",
              "name": "nonce",
              "type": "uint32"
            }
          ],
          "indexed": false,
          "internalType": "struct IMining.MiningSession",
          "name": "session",
          "type": "tuple"
        }
      ],
      "name": "MiningStarted",
      "type": "event"
    },
    {
      "anonymous": false,
      "inputs": [
        {
          "indexed": true,
          "internalType": "address",
          "name": "previousOwner",
          "type": "address"
        },
        {
          "indexed": true,
          "internalType": "address",
          "name": "newOwner",
          "type": "address"
        }
      ],
      "name": "OwnershipTransferred",
      "type": "event"
    },
    {
      "anonymous": false,
      "inputs": [
        {
          "indexed": false,
          "internalType": "address",
          "name": "account",
          "type": "address"
        }
      ],
      "name": "Paused",
      "type": "event"
    },
    {
      "anonymous": false,
      "inputs": [
        {
          "indexed": false,
          "internalType": "address",
          "name": "user",
          "type": "address"
        },
        {
          "indexed": false,
          "internalType": "uint256[]",
          "name": "resources",
          "type": "uint256[]"
        },
        {
          "indexed": false,
          "internalType": "uint256[]",
          "name": "artifacts",
          "type": "uint256[]"
        }
      ],
      "name": "RewardsClaimed",
      "type": "event"
    },
    {
      "anonymous": false,
      "inputs": [
        {
          "indexed": false,
          "internalType": "address",
          "name": "account",
          "type": "address"
        }
      ],
      "name": "Unpaused",
      "type": "event"
    },
    {
      "inputs": [
        {
          "internalType": "uint256",
          "name": "toolId",
          "type": "uint256"
        }
      ],
      "name": "endMining",
      "outputs": [],
      "stateMutability": "nonpayable",
      "type": "function"
    },
    {
      "inputs": [
        {
          "internalType": "address",
          "name": "blacklistAddress",
          "type": "address"
        },
        {
          "internalType": "address",
          "name": "toolsAddress",
          "type": "address"
        }
      ],
      "name": "initialize",
      "outputs": [],
      "stateMutability": "nonpayable",
      "type": "function"
    },
    {
      "inputs": [
        {
          "internalType": "address",
          "name": "",
          "type": "address"
        },
        {
          "internalType": "address",
          "name": "",
          "type": "address"
        },
        {
          "internalType": "uint256[]",
          "name": "",
          "type": "uint256[]"
        },
        {
          "internalType": "uint256[]",
          "name": "",
          "type": "uint256[]"
        },
        {
          "internalType": "bytes",
          "name": "",
          "type": "bytes"
        }
      ],
      "name": "onERC1155BatchReceived",
      "outputs": [
        {
          "internalType": "bytes4",
          "name": "",
          "type": "bytes4"
        }
      ],
      "stateMutability": "pure",
      "type": "function"
    },
    {
      "inputs": [
        {
          "internalType": "address",
          "name": "",
          "type": "address"
        },
        {
          "internalType": "address",
          "name": "",
          "type": "address"
        },
        {
          "internalType": "uint256",
          "name": "",
          "type": "uint256"
        },
        {
          "internalType": "uint256",
          "name": "",
          "type": "uint256"
        },
        {
          "internalType": "bytes",
          "name": "",
          "type": "bytes"
        }
      ],
      "name": "onERC1155Received",
      "outputs": [
        {
          "internalType": "bytes4",
          "name": "",
          "type": "bytes4"
        }
      ],
      "stateMutability": "pure",
      "type": "function"
    },
    {
      "inputs": [],
      "name": "owner",
      "outputs": [
        {
          "internalType": "address",
          "name": "",
          "type": "address"
        }
      ],
      "stateMutability": "view",
      "type": "function"
    },
    {
      "inputs": [],
      "name": "pause",
      "outputs": [],
      "stateMutability": "nonpayable",
      "type": "function"
    },
    {
      "inputs": [],
      "name": "paused",
      "outputs": [
        {
          "internalType": "bool",
          "name": "",
          "type": "bool"
        }
      ],
      "stateMutability": "view",
      "type": "function"
    },
    {
      "inputs": [],
      "name": "renounceOwnership",
      "outputs": [],
      "stateMutability": "nonpayable",
      "type": "function"
    },
    {
      "inputs": [
        {
          "internalType": "uint256",
          "name": "toolId",
          "type": "uint256"
        },
        {
          "internalType": "address",
          "name": "user",
          "type": "address"
        },
        {
          "internalType": "bytes",
          "name": "rewards",
          "type": "bytes"
        },
        {
          "internalType": "bytes",
          "name": "signature",
          "type": "bytes"
        },
        {
          "internalType": "uint256",
          "name": "nonce",
          "type": "uint256"
        }
      ],
      "name": "startMining",
      "outputs": [],
      "stateMutability": "nonpayable",
      "type": "function"
    },
    {
      "inputs": [
        {
          "internalType": "bytes4",
          "name": "interfaceId",
          "type": "bytes4"
        }
      ],
      "name": "supportsInterface",
      "outputs": [
        {
          "internalType": "bool",
          "name": "",
          "type": "bool"
        }
      ],
      "stateMutability": "pure",
      "type": "function"
    },
    {
      "inputs": [
        {
          "internalType": "address",
          "name": "newOwner",
          "type": "address"
        }
      ],
      "name": "transferOwnership",
      "outputs": [],
      "stateMutability": "nonpayable",
      "type": "function"
    }
  ],
  "transactionHash": "0x8a5f9187a5d195573e33041490427b09bad5ac11ba02e7bf95e73364c7a64934",
  "args": [],
  "numDeployments": 2,
  "solcInputHash": "b0d4929a3219d33a669ef4419f1d8431",
  "bytecode": "0x608060405234801561001057600080fd5b506123ee806100206000396000f3fe608060405234801561001057600080fd5b50600436106100995760003560e01c806301ffc9a71461009e578063485cc955146100d75780635c975abb146100ec578063715018a6146100f75780638456cb59146100ff5780638da5cb5b14610107578063a0c79e191461011c578063a7148e8a1461012f578063bc197c8114610142578063f23a6e6114610196578063f2fde38b146101cf575b600080fd5b6100c26100ac366004611c13565b6001600160e01b0319166301ffc9a760e01b1490565b60405190151581526020015b60405180910390f35b6100ea6100e5366004611c59565b6101e2565b005b60335460ff166100c2565b6100ea610332565b6100ea610346565b61010f610368565b6040516100ce9190611c92565b6100ea61012a366004611ce7565b610377565b6100ea61013d366004611d7b565b610a95565b61017d610150366004611dd8565b7fbc197c819b3e337a6f9652dd10becd7eef83032af3b9d958d3d42f669414662198975050505050505050565b6040516001600160e01b031990911681526020016100ce565b61017d6101a4366004611e96565b7ff23a6e612e1ff4830e658fe43f4e3cb4a5f8170bd5d9e69fb5d7a7fa9e4fdf979695505050505050565b6100ea6101dd366004611f11565b6113f1565b600054610100900460ff16158080156102025750600054600160ff909116105b8061021c5750303b15801561021c575060005460ff166001145b6102845760405162461bcd60e51b815260206004820152602e60248201527f496e697469616c697a61626c653a20636f6e747261637420697320616c72656160448201526d191e481a5b9a5d1a585b1a5e995960921b60648201526084015b60405180910390fd5b6000805460ff1916600117905580156102a7576000805461ff0019166101001790555b609780546001600160a01b038085166001600160a01b03199283161790925560988054928616929091169190911790556102df61146a565b6102e7611499565b801561032d576000805461ff0019169055604051600181527f7f26b83ff96e1f2b6a682f133852f6798a09c465da95921460cefb38474024989060200160405180910390a15b505050565b61033a6114c8565b6103446000611527565b565b61034e6114c8565b60335460ff1661036057610344611579565b6103446115cd565b6065546001600160a01b031690565b61037f611606565b609854604051631846d2f560e31b815287916001600160a01b03169063c23697a8906103af908490600401611c92565b6020604051808303816000875af11580156103ce573d6000803e3d6000fd5b505050506040513d601f19601f820116820180604052508101906103f29190611f2e565b1561040f5760405162461bcd60e51b815260040161027b90611f50565b60008061041e8789018961202b565b9150915060006040518060c001604052808c81526020018b6001600160a01b0316815260200186815260200188888080601f016020809104026020016040519081016040528093929190818152602001838380828437600092018290525093855250505060208083018790526040928301869052838101516001600160a01b03168252609981528282208451835290522054909150600160201b900460ff16156105235760405162461bcd60e51b815260206004820152603060248201527f4d696e696e673a2074686973207573657220616c72656164792073746172746560448201526f64206d696e696e672070726f6365737360801b606482015260840161027b565b60006105468260000151836020015184608001518560a00151866040015161164c565b6000818152609c602052604090205490915060ff16156105a35760405162461bcd60e51b8152602060048201526018602482015277135a5b9a5b99ce88185b1c9958591e48195e1958dd5d195960421b604482015260640161027b565b6105b182606001518261168a565b6106075760405162461bcd60e51b815260206004820152602160248201527f4d696e696e673a20696e76616c6964206261636b656e64207369676e617475726044820152606560f81b606482015260840161027b565b6000818152609c60209081526040808320805460ff191660011790556097549185015185519151633dfc8f2160e01b815284938493849384936001600160a01b0390931692633dfc8f219261065f929160040161208e565b60a060405180830381865afa15801561067c573d6000803e3d6000fd5b505050506040513d601f19601f820116820180604052508101906106a091906120a7565b94509450945094509450600083856106b891906120fd565b10156107045760405162461bcd60e51b815260206004820152601b60248201527a09ad2dcd2dcce7440dcdee840cadcdeeaced040e6e8e4cadccee8d602b1b604482015260640161027b565b609754604051637ae1f13760e01b8152600060048201819052916001600160a01b031690637ae1f13790602401602060405180830381865afa15801561074e573d6000803e3d6000fd5b505050506040513d601f19601f820116820180604052508101906107729190612114565b60208901516040516323b872dd60e01b81526001600160a01b03918216600482015261dead6024820152604481018590529192508216906323b872dd906064016020604051808303816000875af11580156107d1573d6000803e3d6000fd5b505050506040513d601f19601f820116820180604052508101906107f59190611f2e565b5060975460208901518951604051637921219560e11b81526001600160a01b039093169263f242432a92610833929091309190600190600401612131565b600060405180830381600087803b15801561084d57600080fd5b505af1158015610861573d6000803e3d6000fd5b50506040805160e0810182528b5163ffffffff16815260016020820152600091810191909152915050606081016108988542612169565b63ffffffff1681526020018363ffffffff1681526020018561ffff168152602001896040015163ffffffff16815250609960008a602001516001600160a01b03166001600160a01b0316815260200190815260200160002060008a60000151815260200190815260200160002060008201518160000160006101000a81548163ffffffff021916908363ffffffff16021790555060208201518160000160046101000a81548160ff02191690831515021790555060408201518160000160056101000a81548160ff02191690831515021790555060608201518160000160066101000a81548163ffffffff021916908363ffffffff160217905550608082015181600001600a6101000a81548163ffffffff021916908363ffffffff16021790555060a082015181600001600e6101000a81548161ffff021916908361ffff16021790555060c08201518160000160106101000a81548163ffffffff021916908363ffffffff160217905550905050610a23886020015189600001518a608001518b60a00151611711565b6020808901516001600160a01b03811660009081526099835260408082208c51835290935282902091517fe831797b77ca973c720e7e08013a57de647b61c4c152dbfb02dbec80f17e968692610a799291612181565b60405180910390a1505050505050505050505050505050505050565b610a9d611606565b609854604051631846d2f560e31b815233916001600160a01b03169063c23697a890610acd908490600401611c92565b6020604051808303816000875af1158015610aec573d6000803e3d6000fd5b505050506040513d601f19601f82011682018060405250810190610b109190611f2e565b15610b2d5760405162461bcd60e51b815260040161027b90611f50565b336000908152609960209081526040808320858452909152902054600160201b900460ff16610b9a5760405162461bcd60e51b81526020600482015260196024820152784d696e696e673a207573657220646f65736e2774206d696e6560381b604482015260640161027b565b336000908152609960209081526040808320858452909152902054600160301b900463ffffffff16421015610c055760405162461bcd60e51b81526020600482015260116024820152704d696e696e673a20746f6f206561726c7960781b604482015260640161027b565b60975433600090815260996020908152604080832086845290915280822054815163e30d34a760e01b815230600482015260248101879052600160701b90910461ffff16604482015290516001600160a01b039093169263e30d34a79260648084019391929182900301818387803b158015610c8057600080fd5b505af1158015610c94573d6000803e3d6000fd5b5050609754604051637921219560e11b81526001600160a01b03909116925063f242432a9150610ccf90309033908790600190600401612131565b600060405180830381600087803b158015610ce957600080fd5b505af1158015610cfd573d6000803e3d6000fd5b50505050600160996000610d0e3390565b6001600160a01b031681526020808201929092526040908101600090812086825290925290208054911515600160281b0260ff60281b199092169190911790557f7d5049307502af05bee065cf7a5e8d7ec617afdc433a2a52be9a3ca4e6d7dca1610d763390565b336000908152609960209081526040808320878452909152908190209051610d9f929190612181565b60405180910390a16000806000609760009054906101000a90046001600160a01b03166001600160a01b0316632f700f2f6040518163ffffffff1660e01b8152600401602060405180830381865afa158015610dff573d6000803e3d6000fd5b505050506040513d601f19601f82011682018060405250810190610e239190612222565b6001600160401b03811115610e3a57610e3a611f7b565b604051908082528060200260200182016040528015610e63578160200160208202803683370190505b5090506000609760009054906101000a90046001600160a01b03166001600160a01b031663daa6c7556040518163ffffffff1660e01b8152600401602060405180830381865afa158015610ebb573d6000803e3d6000fd5b505050506040513d601f19601f82011682018060405250810190610edf9190612222565b6001600160401b03811115610ef657610ef6611f7b565b604051908082528060200260200182016040528015610f1f578160200160208202803683370190505b50905060005b609760009054906101000a90046001600160a01b03166001600160a01b0316632f700f2f6040518163ffffffff1660e01b8152600401602060405180830381865afa158015610f78573d6000803e3d6000fd5b505050506040513d601f19601f82011682018060405250810190610f9c9190612222565b81101561114757336000908152609a602090815260408083208a84528252808320848452909152902054156110f357609754604051637ae1f13760e01b8152600481018390526001600160a01b0390911690637ae1f13790602401602060405180830381865afa158015611014573d6000803e3d6000fd5b505050506040513d601f19601f820116820180604052508101906110389190612114565b336000818152609a602090815260408083208c845282528083208684529091529081902054905163a9059cbb60e01b81529297506001600160a01b0388169263a9059cbb9261108b92909160040161208e565b6020604051808303816000875af11580156110aa573d6000803e3d6000fd5b505050506040513d601f19601f820116820180604052508101906110ce9190611f2e565b50336000908152609a602090815260408083208a845282528083208484529091528120555b336000908152609a602090815260408083208a84528252808320848452909152902054835184908390811061112a5761112a61223b565b60209081029190910101528061113f81612251565b915050610f25565b5060005b609760009054906101000a90046001600160a01b03166001600160a01b031663daa6c7556040518163ffffffff1660e01b8152600401602060405180830381865afa15801561119e573d6000803e3d6000fd5b505050506040513d601f19601f820116820180604052508101906111c29190612222565b81101561138457336000908152609b602090815260408083208a845282528083208484529091529020541561135157609760009054906101000a90046001600160a01b03166001600160a01b031663ee100cd66040518163ffffffff1660e01b8152600401602060405180830381865afa158015611244573d6000803e3d6000fd5b505050506040513d601f19601f820116820180604052508101906112689190612114565b935060005b336000908152609b602090815260408083208b8452825280832085845290915290205481101561132857604051630ac2a30160e41b81526001600160a01b0386169063ac2a3010906112c5903390869060040161208e565b600060405180830381600087803b1580156112df57600080fd5b505af11580156112f3573d6000803e3d6000fd5b50505050600183838151811061130b5761130b61223b565b60209081029190910101528061132081612251565b91505061126d565b50336000908152609b602090815260408083208a84528252808320848452909152812055611372565b60008282815181106113655761136561223b565b6020026020010181815250505b8061137c81612251565b91505061114b565b507f6a8d91c49594226b40d453d563914bd89c00f6859210b5b861b4647c1d87b8673383836040516113b8939291906122a7565b60405180910390a150503360009081526099602090815260408083209683529590529390932080546001600160a01b0319169055505050565b6113f96114c8565b6001600160a01b03811661145e5760405162461bcd60e51b815260206004820152602660248201527f4f776e61626c653a206e6577206f776e657220697320746865207a65726f206160448201526564647265737360d01b606482015260840161027b565b61146781611527565b50565b600054610100900460ff166114915760405162461bcd60e51b815260040161027b906122e7565b610344611864565b600054610100900460ff166114c05760405162461bcd60e51b815260040161027b906122e7565b610344611897565b336114d1610368565b6001600160a01b0316146103445760405162461bcd60e51b815260206004820181905260248201527f4f776e61626c653a2063616c6c6572206973206e6f7420746865206f776e6572604482015260640161027b565b606580546001600160a01b038381166001600160a01b0319831681179093556040519116919082907f8be0079c531659141344cd1fd0a4f28419497f9722a3daafe3b4186f6b6457e090600090a35050565b611581611606565b6033805460ff191660011790557f62e78cea01bee320cd4e420270b5ea74000d11b0c9f74754ebdbfc544b05a2586115b63390565b6040516115c39190611c92565b60405180910390a1565b6115d56118c7565b6033805460ff191690557f5db9ee0a495bf2e6ff9c91a7834c1ba4fdd244a5e8aa4e537bd38aeae4b073aa336115b6565b60335460ff16156103445760405162461bcd60e51b815260206004820152601060248201526f14185d5cd8589b194e881c185d5cd95960821b604482015260640161027b565b600030868686868660405160200161166996959493929190612357565b60405160208183030381529060405280519060200120905095945050505050565b6000806116e3836040517b0ca2ba3432b932bab69029b4b3b732b21026b2b9b9b0b3b29d05199960211b6020820152603c8101829052600090605c01604051602081830303815290604052805190602001209050919050565b905060006116f18286611910565b90506116fb610368565b6001600160a01b03918216911614949350505050565b60005b82518110156117ae5782818151811061172f5761172f61223b565b602002602001015160001461179c578281815181106117505761175061223b565b6020908102919091018101516001600160a01b0387166000908152609a835260408082208883528452808220858352909352918220805491929091611796908490612169565b90915550505b806117a681612251565b915050611714565b5060005b815181101561185d578181815181106117cd576117cd61223b565b602002602001015160001461184b578181815181106117ee576117ee61223b565b6020908102919091018101516001600160a01b0387166000908152609b835260408082208883529093529182209091611828846001612169565b815260200190815260200160002060008282546118459190612169565b90915550505b8061185581612251565b9150506117b2565b5050505050565b600054610100900460ff1661188b5760405162461bcd60e51b815260040161027b906122e7565b6033805460ff19169055565b600054610100900460ff166118be5760405162461bcd60e51b815260040161027b906122e7565b61034433611527565b60335460ff166103445760405162461bcd60e51b815260206004820152601460248201527314185d5cd8589b194e881b9bdd081c185d5cd95960621b604482015260640161027b565b600080600061191f8585611934565b9150915061192c8161197a565b509392505050565b60008082516041141561196b5760208301516040840151606085015160001a61195f87828585611b30565b94509450505050611973565b506000905060025b9250929050565b600081600481111561198e5761198e6123a2565b14156119975750565b60018160048111156119ab576119ab6123a2565b14156119f45760405162461bcd60e51b815260206004820152601860248201527745434453413a20696e76616c6964207369676e617475726560401b604482015260640161027b565b6002816004811115611a0857611a086123a2565b1415611a565760405162461bcd60e51b815260206004820152601f60248201527f45434453413a20696e76616c6964207369676e6174757265206c656e67746800604482015260640161027b565b6003816004811115611a6a57611a6a6123a2565b1415611ac35760405162461bcd60e51b815260206004820152602260248201527f45434453413a20696e76616c6964207369676e6174757265202773272076616c604482015261756560f01b606482015260840161027b565b6004816004811115611ad757611ad76123a2565b14156114675760405162461bcd60e51b815260206004820152602260248201527f45434453413a20696e76616c6964207369676e6174757265202776272076616c604482015261756560f01b606482015260840161027b565b6000806fa2a8918ca85bafe22016d0b997e4df60600160ff1b03831115611b5d5750600090506003611c0a565b8460ff16601b14158015611b7557508460ff16601c14155b15611b865750600090506004611c0a565b6040805160008082526020820180845289905260ff881692820192909252606081018690526080810185905260019060a0016020604051602081039080840390855afa158015611bda573d6000803e3d6000fd5b5050604051601f1901519150506001600160a01b038116611c0357600060019250925050611c0a565b9150600090505b94509492505050565b600060208284031215611c2557600080fd5b81356001600160e01b031981168114611c3d57600080fd5b9392505050565b6001600160a01b038116811461146757600080fd5b60008060408385031215611c6c57600080fd5b8235611c7781611c44565b91506020830135611c8781611c44565b809150509250929050565b6001600160a01b0391909116815260200190565b60008083601f840112611cb857600080fd5b5081356001600160401b03811115611ccf57600080fd5b60208301915083602082850101111561197357600080fd5b600080600080600080600060a0888a031215611d0257600080fd5b873596506020880135611d1481611c44565b955060408801356001600160401b0380821115611d3057600080fd5b611d3c8b838c01611ca6565b909750955060608a0135915080821115611d5557600080fd5b50611d628a828b01611ca6565b989b979a50959894979596608090950135949350505050565b600060208284031215611d8d57600080fd5b5035919050565b60008083601f840112611da657600080fd5b5081356001600160401b03811115611dbd57600080fd5b6020830191508360208260051b850101111561197357600080fd5b60008060008060008060008060a0898b031215611df457600080fd5b8835611dff81611c44565b97506020890135611e0f81611c44565b965060408901356001600160401b0380821115611e2b57600080fd5b611e378c838d01611d94565b909850965060608b0135915080821115611e5057600080fd5b611e5c8c838d01611d94565b909650945060808b0135915080821115611e7557600080fd5b50611e828b828c01611ca6565b999c989b5096995094979396929594505050565b60008060008060008060a08789031215611eaf57600080fd5b8635611eba81611c44565b95506020870135611eca81611c44565b9450604087013593506060870135925060808701356001600160401b03811115611ef357600080fd5b611eff89828a01611ca6565b979a9699509497509295939492505050565b600060208284031215611f2357600080fd5b8135611c3d81611c44565b600060208284031215611f4057600080fd5b81518015158114611c3d57600080fd5b602080825260119082015270155cd95c881a5b88189b1858dadb1a5cdd607a1b604082015260600190565b634e487b7160e01b600052604160045260246000fd5b600082601f830112611fa257600080fd5b813560206001600160401b0380831115611fbe57611fbe611f7b565b8260051b604051601f19603f83011681018181108482111715611fe357611fe3611f7b565b60405293845285810183019383810192508785111561200157600080fd5b83870191505b8482101561202057813583529183019190830190612007565b979650505050505050565b6000806040838503121561203e57600080fd5b82356001600160401b038082111561205557600080fd5b61206186838701611f91565b9350602085013591508082111561207757600080fd5b5061208485828601611f91565b9150509250929050565b6001600160a01b03929092168252602082015260400190565b600080600080600060a086880312156120bf57600080fd5b5050835160208501516040860151606087015160809097015192989197509594509092509050565b634e487b7160e01b600052601160045260246000fd5b60008282101561210f5761210f6120e7565b500390565b60006020828403121561212657600080fd5b8151611c3d81611c44565b6001600160a01b0394851681529290931660208301526040820152606081019190915260a06080820181905260009082015260c00190565b6000821982111561217c5761217c6120e7565b500190565b60006101008201905060018060a01b0384168252825463ffffffff808216602085015260ff8260201c16151560408501526121c66060850160ff8460281c1615159052565b6121dd60808501828460301c1663ffffffff169052565b6121f460a08501828460501c1663ffffffff169052565b607082901c61ffff1660c085015261221960e08501828460801c1663ffffffff169052565b50509392505050565b60006020828403121561223457600080fd5b5051919050565b634e487b7160e01b600052603260045260246000fd5b6000600019821415612265576122656120e7565b5060010190565b600081518084526020808501945080840160005b8381101561229c57815187529582019590820190600101612280565b509495945050505050565b6001600160a01b03841681526060602082018190526000906122cb9083018561226c565b82810360408401526122dd818561226c565b9695505050505050565b6020808252602b908201527f496e697469616c697a61626c653a20636f6e7472616374206973206e6f74206960408201526a6e697469616c697a696e6760a81b606082015260800190565b8051600090602080840183831561229c57815187529582019590820190600101612280565b6001600160601b0319606088811b821683526014830188905286901b166034820152600061239161238b6048840187612332565b85612332565b928352505060200195945050505050565b634e487b7160e01b600052602160045260246000fdfea2646970667358221220d8880f641f8dc3003b81709fae1438ec961d9cb88232bfcde64c917fffe2e63c64736f6c634300080c0033",
  "devdoc": {
    "kind": "dev",
    "methods": {
      "owner()": {
        "details": "Returns the address of the current owner."
      },
      "paused()": {
        "details": "Returns true if the contract is paused, and false otherwise."
      },
      "renounceOwnership()": {
        "details": "Leaves the contract without owner. It will not be possible to call `onlyOwner` functions. Can only be called by the current owner. NOTE: Renouncing ownership will leave the contract without an owner, thereby disabling any functionality that is only available to the owner."
      },
      "supportsInterface(bytes4)": {
        "details": "The following 3 functions are required to ERC1155 standard"
      },
      "transferOwnership(address)": {
        "details": "Transfers ownership of the contract to a new account (`newOwner`). Can only be called by the current owner."
      }
    },
    "stateVariables": {
      "_blacklist": {
        "details": "The address of Blacklist contract"
      },
      "_tools": {
        "details": "The address of Tools contract"
      },
      "_usersToArtifacts": {
        "details": "Mapping showing the amount of artifacts a user would win in specific mining session"
      },
      "_usersToResources": {
        "details": "Mapping showing the amount of resources a user would win in specific mining session"
      },
      "_usersToSessions": {
        "details": "Mapping (user address => (toolId => MiningSession))"
      },
      "_zeroAddress": {
        "details": "Zero address to burn tokens"
      }
    },
    "title": "Contract for resources mining",
    "version": 1
  },
  "userdoc": {
    "events": {
      "MiningEnded(address,(uint32,bool,bool,uint32,uint32,uint16,uint32))": {
        "notice": "Indicates that mining session has ended"
      },
      "MiningStarted(address,(uint32,bool,bool,uint32,uint32,uint16,uint32))": {
        "notice": "Indicates that new mining session has started"
      },
      "RewardsClaimed(address,uint256[],uint256[])": {
        "notice": "Indicates that user has claimed his rewards"
      }
    },
    "kind": "user",
    "methods": {
      "endMining(uint256)": {
        "notice": "See {IMining-endMining}"
      },
      "pause()": {
        "notice": "See {IMining-pause}"
      },
      "startMining(uint256,address,bytes,bytes,uint256)": {
        "notice": "See {IMining-startMining}"
      }
    },
    "version": 1
  },
  "storageLayout": {
    "storage": [
      {
        "astId": 138,
        "contract": "contracts/Mining.sol:Mining",
        "label": "_initialized",
        "offset": 0,
        "slot": "0",
        "type": "t_uint8"
      },
      {
        "astId": 141,
        "contract": "contracts/Mining.sol:Mining",
        "label": "_initializing",
        "offset": 1,
        "slot": "0",
        "type": "t_bool"
      },
      {
        "astId": 2221,
        "contract": "contracts/Mining.sol:Mining",
        "label": "__gap",
        "offset": 0,
        "slot": "1",
        "type": "t_array(t_uint256)50_storage"
      },
      {
        "astId": 321,
        "contract": "contracts/Mining.sol:Mining",
        "label": "_paused",
        "offset": 0,
        "slot": "51",
        "type": "t_bool"
      },
      {
        "astId": 426,
        "contract": "contracts/Mining.sol:Mining",
        "label": "__gap",
        "offset": 0,
        "slot": "52",
        "type": "t_array(t_uint256)49_storage"
      },
      {
        "astId": 10,
        "contract": "contracts/Mining.sol:Mining",
        "label": "_owner",
        "offset": 0,
        "slot": "101",
        "type": "t_address"
      },
      {
        "astId": 130,
        "contract": "contracts/Mining.sol:Mining",
        "label": "__gap",
        "offset": 0,
        "slot": "102",
        "type": "t_array(t_uint256)49_storage"
      },
      {
        "astId": 5203,
        "contract": "contracts/Mining.sol:Mining",
        "label": "_tools",
        "offset": 0,
        "slot": "151",
        "type": "t_contract(ITools)10527"
      },
      {
        "astId": 5207,
        "contract": "contracts/Mining.sol:Mining",
        "label": "_blacklist",
        "offset": 0,
        "slot": "152",
        "type": "t_contract(IBlackList)10000"
      },
      {
        "astId": 5219,
        "contract": "contracts/Mining.sol:Mining",
        "label": "_usersToSessions",
        "offset": 0,
        "slot": "153",
        "type": "t_mapping(t_address,t_mapping(t_uint256,t_struct(MiningSession)10066_storage))"
      },
      {
        "astId": 5228,
        "contract": "contracts/Mining.sol:Mining",
        "label": "_usersToResources",
        "offset": 0,
        "slot": "154",
        "type": "t_mapping(t_address,t_mapping(t_uint256,t_mapping(t_uint256,t_uint256)))"
      },
      {
        "astId": 5237,
        "contract": "contracts/Mining.sol:Mining",
        "label": "_usersToArtifacts",
        "offset": 0,
        "slot": "155",
        "type": "t_mapping(t_address,t_mapping(t_uint256,t_mapping(t_uint256,t_uint256)))"
      },
      {
        "astId": 5242,
        "contract": "contracts/Mining.sol:Mining",
        "label": "_executed",
        "offset": 0,
        "slot": "156",
        "type": "t_mapping(t_bytes32,t_bool)"
      }
    ],
    "types": {
      "t_address": {
        "encoding": "inplace",
        "label": "address",
        "numberOfBytes": "20"
      },
      "t_array(t_uint256)49_storage": {
        "base": "t_uint256",
        "encoding": "inplace",
        "label": "uint256[49]",
        "numberOfBytes": "1568"
      },
      "t_array(t_uint256)50_storage": {
        "base": "t_uint256",
        "encoding": "inplace",
        "label": "uint256[50]",
        "numberOfBytes": "1600"
      },
      "t_bool": {
        "encoding": "inplace",
        "label": "bool",
        "numberOfBytes": "1"
      },
      "t_bytes32": {
        "encoding": "inplace",
        "label": "bytes32",
        "numberOfBytes": "32"
      },
      "t_contract(IBlackList)10000": {
        "encoding": "inplace",
        "label": "contract IBlackList",
        "numberOfBytes": "20"
      },
      "t_contract(ITools)10527": {
        "encoding": "inplace",
        "label": "contract ITools",
        "numberOfBytes": "20"
      },
      "t_mapping(t_address,t_mapping(t_uint256,t_mapping(t_uint256,t_uint256)))": {
        "encoding": "mapping",
        "key": "t_address",
        "label": "mapping(address => mapping(uint256 => mapping(uint256 => uint256)))",
        "numberOfBytes": "32",
        "value": "t_mapping(t_uint256,t_mapping(t_uint256,t_uint256))"
      },
      "t_mapping(t_address,t_mapping(t_uint256,t_struct(MiningSession)10066_storage))": {
        "encoding": "mapping",
        "key": "t_address",
        "label": "mapping(address => mapping(uint256 => struct IMining.MiningSession))",
        "numberOfBytes": "32",
        "value": "t_mapping(t_uint256,t_struct(MiningSession)10066_storage)"
      },
      "t_mapping(t_bytes32,t_bool)": {
        "encoding": "mapping",
        "key": "t_bytes32",
        "label": "mapping(bytes32 => bool)",
        "numberOfBytes": "32",
        "value": "t_bool"
      },
      "t_mapping(t_uint256,t_mapping(t_uint256,t_uint256))": {
        "encoding": "mapping",
        "key": "t_uint256",
        "label": "mapping(uint256 => mapping(uint256 => uint256))",
        "numberOfBytes": "32",
        "value": "t_mapping(t_uint256,t_uint256)"
      },
      "t_mapping(t_uint256,t_struct(MiningSession)10066_storage)": {
        "encoding": "mapping",
        "key": "t_uint256",
        "label": "mapping(uint256 => struct IMining.MiningSession)",
        "numberOfBytes": "32",
        "value": "t_struct(MiningSession)10066_storage"
      },
      "t_mapping(t_uint256,t_uint256)": {
        "encoding": "mapping",
        "key": "t_uint256",
        "label": "mapping(uint256 => uint256)",
        "numberOfBytes": "32",
        "value": "t_uint256"
      },
      "t_struct(MiningSession)10066_storage": {
        "encoding": "inplace",
        "label": "struct IMining.MiningSession",
        "members": [
          {
            "astId": 10053,
            "contract": "contracts/Mining.sol:Mining",
            "label": "toolId",
            "offset": 0,
            "slot": "0",
            "type": "t_uint32"
          },
          {
            "astId": 10055,
            "contract": "contracts/Mining.sol:Mining",
            "label": "started",
            "offset": 4,
            "slot": "0",
            "type": "t_bool"
          },
          {
            "astId": 10057,
            "contract": "contracts/Mining.sol:Mining",
            "label": "ended",
            "offset": 5,
            "slot": "0",
            "type": "t_bool"
          },
          {
            "astId": 10059,
            "contract": "contracts/Mining.sol:Mining",
            "label": "endTime",
            "offset": 6,
            "slot": "0",
            "type": "t_uint32"
          },
          {
            "astId": 10061,
            "contract": "contracts/Mining.sol:Mining",
            "label": "energyCost",
            "offset": 10,
            "slot": "0",
            "type": "t_uint32"
          },
          {
            "astId": 10063,
            "contract": "contracts/Mining.sol:Mining",
            "label": "strengthCost",
            "offset": 14,
            "slot": "0",
            "type": "t_uint16"
          },
          {
            "astId": 10065,
            "contract": "contracts/Mining.sol:Mining",
            "label": "nonce",
            "offset": 16,
            "slot": "0",
            "type": "t_uint32"
          }
        ],
        "numberOfBytes": "32"
      },
      "t_uint16": {
        "encoding": "inplace",
        "label": "uint16",
        "numberOfBytes": "2"
      },
      "t_uint256": {
        "encoding": "inplace",
        "label": "uint256",
        "numberOfBytes": "32"
      },
      "t_uint32": {
        "encoding": "inplace",
        "label": "uint32",
        "numberOfBytes": "4"
      },
      "t_uint8": {
        "encoding": "inplace",
        "label": "uint8",
        "numberOfBytes": "1"
      }
    }
  }
}