{
  "address": "0x5F7B476bC7d912A1d8DAa3B2e18E803b149bC0a3",
  "abi": [
    {
      "anonymous": false,
      "inputs": [
        {
          "indexed": false,
          "internalType": "uint256",
          "name": "toolType",
          "type": "uint256"
        },
        {
          "indexed": false,
          "internalType": "string",
          "name": "newURI",
          "type": "string"
        }
      ],
      "name": "AddTool",
      "type": "event"
    },
    {
      "anonymous": false,
      "inputs": [
        {
          "indexed": true,
          "internalType": "address",
          "name": "account",
          "type": "address"
        },
        {
          "indexed": true,
          "internalType": "address",
          "name": "operator",
          "type": "address"
        },
        {
          "indexed": false,
          "internalType": "bool",
          "name": "approved",
          "type": "bool"
        }
      ],
      "name": "ApprovalForAll",
      "type": "event"
    },
    {
      "anonymous": false,
      "inputs": [
        {
          "indexed": false,
          "internalType": "string",
          "name": "baseURI",
          "type": "string"
        }
      ],
      "name": "BaseURI",
      "type": "event"
    },
    {
      "anonymous": false,
      "inputs": [
        {
          "indexed": false,
          "internalType": "address",
          "name": "user",
          "type": "address"
        },
        {
          "indexed": false,
          "internalType": "uint256",
          "name": "toolType",
          "type": "uint256"
        },
        {
          "indexed": false,
          "internalType": "uint256",
          "name": "toolId",
          "type": "uint256"
        }
      ],
      "name": "Craft",
      "type": "event"
    },
    {
      "anonymous": false,
      "inputs": [
        {
          "indexed": false,
          "internalType": "uint8",
          "name": "version",
          "type": "uint8"
        }
      ],
      "name": "Initialized",
      "type": "event"
    },
    {
      "anonymous": false,
      "inputs": [
        {
          "indexed": false,
          "internalType": "address",
          "name": "to",
          "type": "address"
        },
        {
          "indexed": false,
          "internalType": "uint256",
          "name": "toolType",
          "type": "uint256"
        },
        {
          "indexed": false,
          "internalType": "uint256",
          "name": "toolId",
          "type": "uint256"
        }
      ],
      "name": "MintId",
      "type": "event"
    },
    {
      "anonymous": false,
      "inputs": [
        {
          "indexed": false,
          "internalType": "address",
          "name": "to",
          "type": "address"
        },
        {
          "indexed": false,
          "internalType": "uint256",
          "name": "toolType",
          "type": "uint256"
        },
        {
          "indexed": false,
          "internalType": "uint256",
          "name": "amount",
          "type": "uint256"
        }
      ],
      "name": "MintType",
      "type": "event"
    },
    {
      "anonymous": false,
      "inputs": [
        {
          "indexed": true,
          "internalType": "address",
          "name": "previousOwner",
          "type": "address"
        },
        {
          "indexed": true,
          "internalType": "address",
          "name": "newOwner",
          "type": "address"
        }
      ],
      "name": "OwnershipTransferred",
      "type": "event"
    },
    {
      "anonymous": false,
      "inputs": [
        {
          "indexed": false,
          "internalType": "address",
          "name": "account",
          "type": "address"
        }
      ],
      "name": "Paused",
      "type": "event"
    },
    {
      "anonymous": false,
      "inputs": [
        {
          "indexed": false,
          "internalType": "uint256",
          "name": "toolType",
          "type": "uint256"
        },
        {
          "indexed": false,
          "internalType": "uint256",
          "name": "resourcesAmount",
          "type": "uint256"
        },
        {
          "indexed": false,
          "internalType": "uint256[]",
          "name": "artifactsAmounts",
          "type": "uint256[]"
        }
      ],
      "name": "RecipeCreatedOrUpdated",
      "type": "event"
    },
    {
      "anonymous": false,
      "inputs": [
        {
          "indexed": false,
          "internalType": "uint256",
          "name": "toolType",
          "type": "uint256"
        }
      ],
      "name": "ToolPropertiesSet",
      "type": "event"
    },
    {
      "anonymous": false,
      "inputs": [
        {
          "indexed": false,
          "internalType": "uint256",
          "name": "toolId",
          "type": "uint256"
        }
      ],
      "name": "ToolRepaired",
      "type": "event"
    },
    {
      "anonymous": false,
      "inputs": [
        {
          "indexed": false,
          "internalType": "address",
          "name": "from",
          "type": "address"
        },
        {
          "indexed": false,
          "internalType": "address",
          "name": "to",
          "type": "address"
        },
        {
          "indexed": false,
          "internalType": "uint256",
          "name": "toolType",
          "type": "uint256"
        },
        {
          "indexed": false,
          "internalType": "uint256",
          "name": "toolId",
          "type": "uint256"
        }
      ],
      "name": "Transfer",
      "type": "event"
    },
    {
      "anonymous": false,
      "inputs": [
        {
          "indexed": true,
          "internalType": "address",
          "name": "operator",
          "type": "address"
        },
        {
          "indexed": true,
          "internalType": "address",
          "name": "from",
          "type": "address"
        },
        {
          "indexed": true,
          "internalType": "address",
          "name": "to",
          "type": "address"
        },
        {
          "indexed": false,
          "internalType": "uint256[]",
          "name": "ids",
          "type": "uint256[]"
        },
        {
          "indexed": false,
          "internalType": "uint256[]",
          "name": "values",
          "type": "uint256[]"
        }
      ],
      "name": "TransferBatch",
      "type": "event"
    },
    {
      "anonymous": false,
      "inputs": [
        {
          "indexed": true,
          "internalType": "address",
          "name": "operator",
          "type": "address"
        },
        {
          "indexed": true,
          "internalType": "address",
          "name": "from",
          "type": "address"
        },
        {
          "indexed": true,
          "internalType": "address",
          "name": "to",
          "type": "address"
        },
        {
          "indexed": false,
          "internalType": "uint256",
          "name": "id",
          "type": "uint256"
        },
        {
          "indexed": false,
          "internalType": "uint256",
          "name": "value",
          "type": "uint256"
        }
      ],
      "name": "TransferSingle",
      "type": "event"
    },
    {
      "anonymous": false,
      "inputs": [
        {
          "indexed": false,
          "internalType": "string",
          "name": "value",
          "type": "string"
        },
        {
          "indexed": true,
          "internalType": "uint256",
          "name": "id",
          "type": "uint256"
        }
      ],
      "name": "URI",
      "type": "event"
    },
    {
      "anonymous": false,
      "inputs": [
        {
          "indexed": false,
          "internalType": "address",
          "name": "account",
          "type": "address"
        }
      ],
      "name": "Unpaused",
      "type": "event"
    },
    {
      "inputs": [
        {
          "internalType": "uint32",
          "name": "maxStrength",
          "type": "uint32"
        },
        {
          "internalType": "uint32",
          "name": "miningDuration",
          "type": "uint32"
        },
        {
          "internalType": "uint256",
          "name": "energyCost",
          "type": "uint256"
        },
        {
          "internalType": "uint32",
          "name": "strengthCost",
          "type": "uint32"
        },
        {
          "internalType": "uint256",
          "name": "resourcesAmount",
          "type": "uint256"
        },
        {
          "internalType": "uint256[]",
          "name": "artifactsAmounts",
          "type": "uint256[]"
        },
        {
          "internalType": "string",
          "name": "newURI",
          "type": "string"
        }
      ],
      "name": "addTool",
      "outputs": [
        {
          "internalType": "uint256",
          "name": "",
          "type": "uint256"
        }
      ],
      "stateMutability": "nonpayable",
      "type": "function"
    },
    {
      "inputs": [
        {
          "internalType": "address",
          "name": "account",
          "type": "address"
        },
        {
          "internalType": "uint256",
          "name": "id",
          "type": "uint256"
        }
      ],
      "name": "balanceOf",
      "outputs": [
        {
          "internalType": "uint256",
          "name": "",
          "type": "uint256"
        }
      ],
      "stateMutability": "view",
      "type": "function"
    },
    {
      "inputs": [
        {
          "internalType": "address[]",
          "name": "accounts",
          "type": "address[]"
        },
        {
          "internalType": "uint256[]",
          "name": "ids",
          "type": "uint256[]"
        }
      ],
      "name": "balanceOfBatch",
      "outputs": [
        {
          "internalType": "uint256[]",
          "name": "",
          "type": "uint256[]"
        }
      ],
      "stateMutability": "view",
      "type": "function"
    },
    {
      "inputs": [
        {
          "internalType": "address",
          "name": "user",
          "type": "address"
        },
        {
          "internalType": "uint256",
          "name": "toolId",
          "type": "uint256"
        },
        {
          "internalType": "uint256",
          "name": "strengthCost",
          "type": "uint256"
        }
      ],
      "name": "corrupt",
      "outputs": [],
      "stateMutability": "nonpayable",
      "type": "function"
    },
    {
      "inputs": [
        {
          "internalType": "uint256",
          "name": "toolType",
          "type": "uint256"
        }
      ],
      "name": "craft",
      "outputs": [],
      "stateMutability": "nonpayable",
      "type": "function"
    },
    {
      "inputs": [],
      "name": "getArtifactsAddress",
      "outputs": [
        {
          "internalType": "address",
          "name": "",
          "type": "address"
        }
      ],
      "stateMutability": "view",
      "type": "function"
    },
    {
      "inputs": [],
      "name": "getArtifactsTypesAmount",
      "outputs": [
        {
          "internalType": "uint256",
          "name": "",
          "type": "uint256"
        }
      ],
      "stateMutability": "view",
      "type": "function"
    },
    {
      "inputs": [],
      "name": "getMiningAddress",
      "outputs": [
        {
          "internalType": "address",
          "name": "",
          "type": "address"
        }
      ],
      "stateMutability": "view",
      "type": "function"
    },
    {
      "inputs": [
        {
          "internalType": "uint256",
          "name": "toolType",
          "type": "uint256"
        }
      ],
      "name": "getRecipe",
      "outputs": [
        {
          "internalType": "uint256",
          "name": "resourcesAmount",
          "type": "uint256"
        },
        {
          "internalType": "uint256[]",
          "name": "artifactsAmounts",
          "type": "uint256[]"
        }
      ],
      "stateMutability": "view",
      "type": "function"
    },
    {
      "inputs": [
        {
          "internalType": "uint256",
          "name": "resourceId",
          "type": "uint256"
        }
      ],
      "name": "getResourceAddress",
      "outputs": [
        {
          "internalType": "address",
          "name": "",
          "type": "address"
        }
      ],
      "stateMutability": "view",
      "type": "function"
    },
    {
      "inputs": [],
      "name": "getResourcesTypesAmount",
      "outputs": [
        {
          "internalType": "uint256",
          "name": "",
          "type": "uint256"
        }
      ],
      "stateMutability": "view",
      "type": "function"
    },
    {
      "inputs": [
        {
          "internalType": "address",
          "name": "user",
          "type": "address"
        },
        {
          "internalType": "uint256",
          "name": "toolId",
          "type": "uint256"
        }
      ],
      "name": "getStrength",
      "outputs": [
        {
          "internalType": "uint256",
          "name": "",
          "type": "uint256"
        }
      ],
      "stateMutability": "view",
      "type": "function"
    },
    {
      "inputs": [
        {
          "internalType": "address",
          "name": "user",
          "type": "address"
        },
        {
          "internalType": "uint256",
          "name": "toolId",
          "type": "uint256"
        }
      ],
      "name": "getToolProperties",
      "outputs": [
        {
          "internalType": "uint256",
          "name": "toolType",
          "type": "uint256"
        },
        {
          "internalType": "uint256",
          "name": "strength",
          "type": "uint256"
        },
        {
          "internalType": "uint256",
          "name": "strengthCost",
          "type": "uint256"
        },
        {
          "internalType": "uint256",
          "name": "miningDuration",
          "type": "uint256"
        },
        {
          "internalType": "uint256",
          "name": "energyCost",
          "type": "uint256"
        }
      ],
      "stateMutability": "view",
      "type": "function"
    },
    {
      "inputs": [
        {
          "internalType": "uint256",
          "name": "toolType",
          "type": "uint256"
        }
      ],
      "name": "getToolTypeProperties",
      "outputs": [
        {
          "internalType": "uint256",
          "name": "maxStrength",
          "type": "uint256"
        },
        {
          "internalType": "uint256",
          "name": "strengthCost",
          "type": "uint256"
        },
        {
          "internalType": "uint256",
          "name": "miningDuration",
          "type": "uint256"
        },
        {
          "internalType": "uint256",
          "name": "energyCost",
          "type": "uint256"
        }
      ],
      "stateMutability": "view",
      "type": "function"
    },
    {
      "inputs": [],
      "name": "getToolsTypesAmount",
      "outputs": [
        {
          "internalType": "uint256",
          "name": "",
          "type": "uint256"
        }
      ],
      "stateMutability": "view",
      "type": "function"
    },
    {
      "inputs": [],
      "name": "increaseArtifactsTypesAmount",
      "outputs": [],
      "stateMutability": "nonpayable",
      "type": "function"
    },
    {
      "inputs": [
        {
          "internalType": "address",
          "name": "blacklistAddress",
          "type": "address"
        },
        {
          "internalType": "address",
          "name": "berryAddress",
          "type": "address"
        },
        {
          "internalType": "address",
          "name": "treeAddress",
          "type": "address"
        },
        {
          "internalType": "address",
          "name": "goldAddress",
          "type": "address"
        },
        {
          "internalType": "string",
          "name": "baseURI",
          "type": "string"
        }
      ],
      "name": "initialize",
      "outputs": [],
      "stateMutability": "nonpayable",
      "type": "function"
    },
    {
      "inputs": [
        {
          "internalType": "address",
          "name": "account",
          "type": "address"
        },
        {
          "internalType": "address",
          "name": "operator",
          "type": "address"
        }
      ],
      "name": "isApprovedForAll",
      "outputs": [
        {
          "internalType": "bool",
          "name": "",
          "type": "bool"
        }
      ],
      "stateMutability": "view",
      "type": "function"
    },
    {
      "inputs": [
        {
          "internalType": "address",
          "name": "to",
          "type": "address"
        },
        {
          "internalType": "uint128",
          "name": "toolType",
          "type": "uint128"
        },
        {
          "internalType": "uint256",
          "name": "amount",
          "type": "uint256"
        }
      ],
      "name": "mint",
      "outputs": [],
      "stateMutability": "nonpayable",
      "type": "function"
    },
    {
      "inputs": [
        {
          "internalType": "address",
          "name": "to",
          "type": "address"
        },
        {
          "internalType": "uint256[]",
          "name": "toolTypes",
          "type": "uint256[]"
        },
        {
          "internalType": "uint256[]",
          "name": "amounts",
          "type": "uint256[]"
        }
      ],
      "name": "mintBatch",
      "outputs": [],
      "stateMutability": "nonpayable",
      "type": "function"
    },
    {
      "inputs": [
        {
          "internalType": "address",
          "name": "",
          "type": "address"
        },
        {
          "internalType": "address",
          "name": "",
          "type": "address"
        },
        {
          "internalType": "uint256[]",
          "name": "",
          "type": "uint256[]"
        },
        {
          "internalType": "uint256[]",
          "name": "",
          "type": "uint256[]"
        },
        {
          "internalType": "bytes",
          "name": "",
          "type": "bytes"
        }
      ],
      "name": "onERC1155BatchReceived",
      "outputs": [
        {
          "internalType": "bytes4",
          "name": "",
          "type": "bytes4"
        }
      ],
      "stateMutability": "pure",
      "type": "function"
    },
    {
      "inputs": [
        {
          "internalType": "address",
          "name": "",
          "type": "address"
        },
        {
          "internalType": "address",
          "name": "",
          "type": "address"
        },
        {
          "internalType": "uint256",
          "name": "",
          "type": "uint256"
        },
        {
          "internalType": "uint256",
          "name": "",
          "type": "uint256"
        },
        {
          "internalType": "bytes",
          "name": "",
          "type": "bytes"
        }
      ],
      "name": "onERC1155Received",
      "outputs": [
        {
          "internalType": "bytes4",
          "name": "",
          "type": "bytes4"
        }
      ],
      "stateMutability": "pure",
      "type": "function"
    },
    {
      "inputs": [],
      "name": "owner",
      "outputs": [
        {
          "internalType": "address",
          "name": "",
          "type": "address"
        }
      ],
      "stateMutability": "view",
      "type": "function"
    },
    {
      "inputs": [
        {
          "internalType": "address",
          "name": "user",
          "type": "address"
        },
        {
          "internalType": "uint256",
          "name": "toolId",
          "type": "uint256"
        }
      ],
      "name": "ownsTool",
      "outputs": [
        {
          "internalType": "bool",
          "name": "",
          "type": "bool"
        }
      ],
      "stateMutability": "view",
      "type": "function"
    },
    {
      "inputs": [],
      "name": "pause",
      "outputs": [],
      "stateMutability": "nonpayable",
      "type": "function"
    },
    {
      "inputs": [],
      "name": "paused",
      "outputs": [
        {
          "internalType": "bool",
          "name": "",
          "type": "bool"
        }
      ],
      "stateMutability": "view",
      "type": "function"
    },
    {
      "inputs": [],
      "name": "renounceOwnership",
      "outputs": [],
      "stateMutability": "nonpayable",
      "type": "function"
    },
    {
      "inputs": [
        {
          "internalType": "uint256",
          "name": "toolId",
          "type": "uint256"
        }
      ],
      "name": "repairTool",
      "outputs": [],
      "stateMutability": "nonpayable",
      "type": "function"
    },
    {
      "inputs": [
        {
          "internalType": "address",
          "name": "from",
          "type": "address"
        },
        {
          "internalType": "address",
          "name": "to",
          "type": "address"
        },
        {
          "internalType": "uint256[]",
          "name": "toolIds",
          "type": "uint256[]"
        },
        {
          "internalType": "uint256[]",
          "name": "amounts",
          "type": "uint256[]"
        },
        {
          "internalType": "bytes",
          "name": "data",
          "type": "bytes"
        }
      ],
      "name": "safeBatchTransferFrom",
      "outputs": [],
      "stateMutability": "nonpayable",
      "type": "function"
    },
    {
      "inputs": [
        {
          "internalType": "address",
          "name": "from",
          "type": "address"
        },
        {
          "internalType": "address",
          "name": "to",
          "type": "address"
        },
        {
          "internalType": "uint256",
          "name": "toolId",
          "type": "uint256"
        },
        {
          "internalType": "uint256",
          "name": "amount",
          "type": "uint256"
        },
        {
          "internalType": "bytes",
          "name": "data",
          "type": "bytes"
        }
      ],
      "name": "safeTransferFrom",
      "outputs": [],
      "stateMutability": "nonpayable",
      "type": "function"
    },
    {
      "inputs": [
        {
          "internalType": "address",
          "name": "operator",
          "type": "address"
        },
        {
          "internalType": "bool",
          "name": "approved",
          "type": "bool"
        }
      ],
      "name": "setApprovalForAll",
      "outputs": [],
      "stateMutability": "nonpayable",
      "type": "function"
    },
    {
      "inputs": [
        {
          "internalType": "address",
          "name": "artifactsAddress",
          "type": "address"
        }
      ],
      "name": "setArtifactsAddress",
      "outputs": [],
      "stateMutability": "nonpayable",
      "type": "function"
    },
    {
      "inputs": [
        {
          "internalType": "string",
          "name": "baseURI",
          "type": "string"
        }
      ],
      "name": "setBaseURI",
      "outputs": [],
      "stateMutability": "nonpayable",
      "type": "function"
    },
    {
      "inputs": [
        {
          "internalType": "address",
          "name": "miningAddress",
          "type": "address"
        }
      ],
      "name": "setMiningAddress",
      "outputs": [],
      "stateMutability": "nonpayable",
      "type": "function"
    },
    {
      "inputs": [
        {
          "internalType": "uint256",
          "name": "toolType",
          "type": "uint256"
        },
        {
          "internalType": "uint256",
          "name": "resourcesAmount",
          "type": "uint256"
        },
        {
          "internalType": "uint256[]",
          "name": "artifactsAmounts",
          "type": "uint256[]"
        }
      ],
      "name": "setRecipe",
      "outputs": [],
      "stateMutability": "nonpayable",
      "type": "function"
    },
    {
      "inputs": [
        {
          "internalType": "uint256",
          "name": "toolType",
          "type": "uint256"
        },
        {
          "internalType": "uint32",
          "name": "maxStrength",
          "type": "uint32"
        },
        {
          "internalType": "uint32",
          "name": "miningDuration",
          "type": "uint32"
        },
        {
          "internalType": "uint256",
          "name": "energyCost",
          "type": "uint256"
        },
        {
          "internalType": "uint32",
          "name": "strengthCost",
          "type": "uint32"
        }
      ],
      "name": "setToolProperties",
      "outputs": [],
      "stateMutability": "nonpayable",
      "type": "function"
    },
    {
      "inputs": [
        {
          "internalType": "uint256",
          "name": "toolType",
          "type": "uint256"
        },
        {
          "internalType": "string",
          "name": "newURI",
          "type": "string"
        }
      ],
      "name": "setURI",
      "outputs": [],
      "stateMutability": "nonpayable",
      "type": "function"
    },
    {
      "inputs": [
        {
          "internalType": "bytes4",
          "name": "interfaceId",
          "type": "bytes4"
        }
      ],
      "name": "supportsInterface",
      "outputs": [
        {
          "internalType": "bool",
          "name": "",
          "type": "bool"
        }
      ],
      "stateMutability": "view",
      "type": "function"
    },
    {
      "inputs": [
        {
          "internalType": "address",
          "name": "newOwner",
          "type": "address"
        }
      ],
      "name": "transferOwnership",
      "outputs": [],
      "stateMutability": "nonpayable",
      "type": "function"
    },
    {
      "inputs": [
        {
          "internalType": "uint256",
          "name": "toolType",
          "type": "uint256"
        }
      ],
      "name": "uri",
      "outputs": [
        {
          "internalType": "string",
          "name": "",
          "type": "string"
        }
      ],
      "stateMutability": "view",
      "type": "function"
    }
  ],
  "transactionHash": "0x6b5e6a5217f04369cae4c2d658ed9fe455a0d1681b4890ba5437cd657f740716",
  "args": [],
  "numDeployments": 2,
  "solcInputHash": "b0d4929a3219d33a669ef4419f1d8431",
  "bytecode": "0x608060405234801561001057600080fd5b506143fb806100206000396000f3fe608060405234801561001057600080fd5b50600436106101d75760003560e01c8062fdd58e146101dc57806301ffc9a7146102025780630d2c6b5a146102255780630e89341c1461023a5780631399de511461025a57806321f3fd241461026d5780632eb2c2d6146102af5780632f700f2f146102c25780632fb3b361146102cb5780633524f16c146102de5780633dfc8f21146102f157806343cac2b1146103935780634e1273f4146103ad57806355f804b3146103cd5780635c975abb146103e0578063715018a6146103eb57806377a2ec4d146103f35780637ae1f137146104065780637c280237146104195780638456cb591461047f578063862440e2146104875780638da5cb5b1461049a578063a22cb465146104a2578063a264adc0146104b5578063aa48fbf5146104be578063b01f78e0146104d1578063b1ec71db146104e4578063bc197c81146104ec578063d42f083514610540578063d81d0a1514610587578063daa6c7551461059a578063e30d34a7146105a3578063e985e9c5146105b6578063ee100cd6146105f2578063f23a6e6114610603578063f242432a1461063c578063f2fde38b1461064f578063f3917bd214610662578063f6e384e414610675578063f8d12a4114610688575b600080fd5b6101ef6101ea3660046131ef565b6106a9565b6040519081526020015b60405180910390f35b61021561021036600461322f565b610741565b60405190151581526020016101f9565b610238610233366004613260565b6107a2565b005b61024d6102483660046132b7565b6108b7565b6040516101f9919061332c565b61023861026836600461338a565b610998565b61021561027b3660046131ef565b6001600160a01b039190911660009081526101086020908152604080832093835292905220546001600160801b0316151590565b6102386102bd36600461352f565b610abf565b610102546101ef565b6102386102d93660046135d8565b610c6f565b6102386102ec3660046132b7565b610e54565b61036b6102ff3660046131ef565b6001600160a01b0391909116600090815261010860209081526040808320938352928152828220546001600160801b038082168085526101069093529390922080546001909101549194600160801b9093049093169263ffffffff80821693600160401b909204169190565b604080519586526020860194909452928401919091526060830152608082015260a0016101f9565b60fd546001600160a01b03165b6040516101f9919061365e565b6103c06103bb366004613672565b61111d565b6040516101f99190613777565b6102386103db3660046137cb565b611246565b60c95460ff16610215565b61023861125c565b61023861040136600461380c565b611270565b6103a06104143660046132b7565b61129a565b61045f6104273660046132b7565b600090815261010660205260409020805460019091015463ffffffff600160201b830481169381841693600160401b90049091169190565b6040805194855260208501939093529183015260608201526080016101f9565b6102386112f5565b610238610495366004613827565b611317565b6103a061132f565b6102386104b0366004613880565b61133e565b610100546101ef565b6102386104cc36600461380c565b611349565b6101ef6104df3660046138b7565b611373565b61023861151f565b6105276104fa36600461396d565b7fbc197c819b3e337a6f9652dd10becd7eef83032af3b9d958d3d42f669414662198975050505050505050565b6040516001600160e01b031990911681526020016101f9565b6101ef61054e3660046131ef565b6001600160a01b03919091166000908152610108602090815260408083209383529290522054600160801b90046001600160801b031690565b610238610595366004613a27565b6115a4565b610101546101ef565b6102386105b1366004613aa7565b6118fa565b6102156105c4366004613ada565b6001600160a01b03918216600090815260986020908152604080832093909416825291909152205460ff1690565b60fc546001600160a01b03166103a0565b610527610611366004613b0d565b7ff23a6e612e1ff4830e658fe43f4e3cb4a5f8170bd5d9e69fb5d7a7fa9e4fdf979695505050505050565b61023861064a366004613b84565b6119e5565b61023861065d36600461380c565b611d5c565b6102386106703660046132b7565b611dd5565b610238610683366004613be8565b61216f565b61069b6106963660046132b7565b612371565b6040516101f9929190613c33565b60006001600160a01b0383166107195760405162461bcd60e51b815260206004820152602a60248201527f455243313135353a2061646472657373207a65726f206973206e6f742061207660448201526930b634b21037bbb732b960b11b60648201526084015b60405180910390fd5b5060009081526097602090815260408083206001600160a01b03949094168352929052205490565b60006001600160e01b03198216636cdb3d1360e11b148061077257506001600160e01b031982166301ffc9a760e01b145b8061078d57506001600160e01b031982166301ffc9a760e01b145b8061079c575061079c8261245d565b92915050565b6107aa6124ad565b610100548511156107cd5760405162461bcd60e51b815260040161071090613c54565b6107d8600585613ca1565b63ffffffff16156107fb5760405162461bcd60e51b815260040161071090613cc4565b60008363ffffffff16116108215760405162461bcd60e51b815260040161071090613cfb565b60008581526101066020908152604091829020805460018201869055600160201b600160601b031916600160201b63ffffffff8981169190910263ffffffff60401b191691909117600160401b888316021763ffffffff191690851617905590518681527f0d941a060da7489cee731e5f3679ce755c90811e0811066c59392d5bfe194012910160405180910390a15050505050565b600081815261010560205260408120805460609291906108d690613d4c565b80601f016020809104026020016040519081016040528092919081815260200182805461090290613d4c565b801561094f5780601f106109245761010080835404028352916020019161094f565b820191906000526020600020905b81548152906001019060200180831161093257829003601f168201915b50505050509050600081511161096d576109688361250c565b610991565b60fe81604051602001610981929190613da3565b6040516020818303038152906040525b9392505050565b6109a06124ad565b610100548411156109c35760405162461bcd60e51b815260040161071090613c54565b610101548114610a115760405162461bcd60e51b8152602060048201526019602482015278546f6f6c733a20696e76616c69642061727261792073697a6560381b6044820152606401610710565b6000848152610107602052604081208490555b61010154811015610a7b57828282818110610a4157610a41613e4a565b6000888152610107602090815260408083208784526001018252909120910292909201359091555080610a7381613e76565b915050610a24565b507f36726119f64f1c98115eb86c6099e74e39f6a954e8c56a8c88dbc02ee6e5575284848484604051610ab19493929190613e91565b60405180910390a150505050565b610ac76125a0565b60fb54604051631846d2f560e31b815286916001600160a01b03169063c23697a890610af790849060040161365e565b6020604051808303816000875af1158015610b16573d6000803e3d6000fd5b505050506040513d601f19601f82011682018060405250810190610b3a9190613edd565b15610b575760405162461bcd60e51b815260040161071090613efa565b60fb54604051631846d2f560e31b815286916001600160a01b03169063c23697a890610b8790849060040161365e565b6020604051808303816000875af1158015610ba6573d6000803e3d6000fd5b505050506040513d601f19601f82011682018060405250810190610bca9190613edd565b15610be75760405162461bcd60e51b815260040161071090613efa565b60005b8551811015610c6557848181518110610c0557610c05613e4a565b6020026020010151600114610c2c5760405162461bcd60e51b815260040161071090613f2c565b610c538888888481518110610c4357610c43613e4a565b60200260200101516001886119e5565b80610c5d81613e76565b915050610bea565b5050505050505050565b600054610100900460ff1615808015610c8f5750600054600160ff909116105b80610cb05750610c9e306125e6565b158015610cb0575060005460ff166001145b610d135760405162461bcd60e51b815260206004820152602e60248201527f496e697469616c697a61626c653a20636f6e747261637420697320616c72656160448201526d191e481a5b9a5d1a585b1a5e995960921b6064820152608401610710565b6000805460ff191660011790558015610d36576000805461ff0019166101001790555b60fb80546001600160a01b038881166001600160a01b03199283161790925561010360209081527ff167d7e9ac6011f0b837eaede5176b30419264c8a43ec5db1d59bf93c98c1f7f80548985169084161790556000805160206143a683398151915280548316888516179055600260005260008051602061438683398151915280549092169286169290921790556003610102558251610ddc9160fe91908501906130c6565b50610df5604051806020016040528060008152506125f5565b610dfd612625565b610e05612654565b8015610e4c576000805461ff0019169055604051600181527f7f26b83ff96e1f2b6a682f133852f6798a09c465da95921460cefb3847402498906020015b60405180910390a15b505050505050565b610e5c6125a0565b60fb54604051631846d2f560e31b815233916001600160a01b03169063c23697a890610e8c90849060040161365e565b6020604051808303816000875af1158015610eab573d6000803e3d6000fd5b505050506040513d601f19601f82011682018060405250810190610ecf9190613edd565b15610eec5760405162461bcd60e51b815260040161071090613efa565b336000908152610108602090815260408083208584528252918290208251808401909352546001600160801b03808216808552600160801b909204169183019190915280610f795760405162461bcd60e51b815260206004820152601a602482015279151bdbdb1cce881d1bdbdb08191bd95cc81b9bdd08195e1a5cdd60321b6044820152606401610710565b81516001600160801b031660009081526101066020908152604082205490840151600160201b90910463ffffffff169190600590610fb79084613f74565b610fc19190613f9c565b6001600160801b031690508061102a5760405162461bcd60e51b815260206004820152602860248201527f546f6f6c733a2074686520746f6f6c20697320616c7265616479207374726f6e6044820152670ce40cadcdeeaced60c31b6064820152608401610710565b6002600052610103602052600080516020614386833981519152546040516323b872dd60e01b81526001600160a01b03909116906323b872dd9061107890339061dead908690600401613fc2565b6020604051808303816000875af1158015611097573d6000803e3d6000fd5b505050506040513d601f19601f820116820180604052508101906110bb9190613edd565b503360009081526101086020908152604080832089845282529182902080546001600160801b03868116600160801b02911617905590518781527f489732742a3b7fa64b47009a0782e6a403d44f8efd85d60cea8722a001e166739101610e43565b606081518351146111825760405162461bcd60e51b815260206004820152602960248201527f455243313135353a206163636f756e747320616e6420696473206c656e677468604482015268040dad2e6dac2e8c6d60bb1b6064820152608401610710565b600083516001600160401b0381111561119d5761119d6133dc565b6040519080825280602002602001820160405280156111c6578160200160208202803683370190505b50905060005b845181101561123e576112118582815181106111ea576111ea613e4a565b602002602001015185838151811061120457611204613e4a565b60200260200101516106a9565b82828151811061122357611223613e4a565b602090810291909101015261123781613e76565b90506111cc565b509392505050565b61124e6124ad565b6112588282612683565b5050565b6112646124ad565b61126e60006126d4565b565b6112786124ad565b60fd80546001600160a01b0319166001600160a01b0392909216919091179055565b600061010360008360028111156112b3576112b3613f5e565b60028111156112c4576112c4613f5e565b60028111156112d5576112d5613f5e565b81526020810191909152604001600020546001600160a01b031692915050565b6112fd6124ad565b60c95460ff1661130f5761126e612726565b61126e61277a565b61131f6124ad565b61132a8383836127b3565b505050565b6033546001600160a01b031690565b611258338383612813565b6113516124ad565b60fc80546001600160a01b0319166001600160a01b0392909216919091179055565b600061137d6124ad565b61138860058b613ca1565b63ffffffff161580156113a1575060008a63ffffffff16115b6113bd5760405162461bcd60e51b815260040161071090613cc4565b60008963ffffffff16116113e35760405162461bcd60e51b815260040161071090613cfb565b61010080549060006113f483613e76565b919050555060006101005490508a610106600083815260200190815260200160002060000160046101000a81548163ffffffff021916908363ffffffff16021790555089610106600083815260200190815260200160002060000160086101000a81548163ffffffff021916908363ffffffff1602179055508861010660008381526020019081526020016000206001018190555087610106600083815260200190815260200160002060000160006101000a81548163ffffffff021916908363ffffffff1602179055507f7b97e18d4df675ac5d1bfee40da9e103cff0f9b789ce40e582231b4e3214f2668185856040516114f293929190613fe6565b60405180910390a1611505818585611317565b61151181888888610998565b9a9950505050505050505050565b60fc546001600160a01b0316331461158c5760405162461bcd60e51b815260206004820152602a60248201527f546f6f6c733a2063616c6c6572206973206e6f7420616e2041727469666163746044820152691cc818dbdb9d1c9858dd60b21b6064820152608401610710565b610101805490600061159d83613e76565b9190505550565b6115ac6124ad565b60fb54604051631846d2f560e31b815286916001600160a01b03169063c23697a8906115dc90849060040161365e565b6020604051808303816000875af11580156115fb573d6000803e3d6000fd5b505050506040513d601f19601f8201168201806040525081019061161f9190613edd565b1561163c5760405162461bcd60e51b815260040161071090613efa565b6101005461165c5760405162461bcd60e51b81526004016107109061401c565b60005b848110156116b4576101005486868381811061167d5761167d613e4a565b9050602002013511156116a25760405162461bcd60e51b815260040161071090613c54565b806116ac81613e76565b91505061165f565b506117318686868080602002602001604051908101604052809392919081815260200183836020028082843760009201919091525050604080516020808a028281018201909352898252909350899250889182918501908490808284376000920182905250604080516020810190915290815292506128f4915050565b60005b848110156118f1576000805160206143668339815191528787878481811061175e5761175e613e4a565b9050602002013586868581811061177757611777613e4a565b9050602002013560405161178d93929190614045565b60405180910390a160005b838110156118de5760ff80549060006117b083613e76565b91905055508686838181106117c7576117c7613e4a565b6001600160a01b038b1660009081526101086020908152604080832060ff5484528252822080546001600160801b0319169390910294909401356001600160801b031691909117909255506101069088888581811061182857611828613e4a565b602090810292909201358352508181019290925260409081016000908120546001600160a01b038c168252610108845282822060ff5483529093522080546001600160801b0316600160201b90920463ffffffff16600160801b02919091179055600080516020614346833981519152888888858181106118ab576118ab613e4a565b9050602002013560ff546040516118c493929190614045565b60405180910390a1806118d681613e76565b915050611798565b50806118e981613e76565b915050611734565b50505050505050565b6119026125a0565b60fd546001600160a01b0316336001600160a01b0316146119755760405162461bcd60e51b815260206004820152602760248201527f546f6f6c733a206d73672e73656e6465722069736e2774204d696e696e6720636044820152661bdb9d1c9858dd60ca1b6064820152608401610710565b6001600160a01b038316600090815261010860209081526040808320858452909152902080548291906010906119bc908490600160801b90046001600160801b0316613f74565b92506101000a8154816001600160801b0302191690836001600160801b03160217905550505050565b6119ed6125a0565b60fb54604051631846d2f560e31b815286916001600160a01b03169063c23697a890611a1d90849060040161365e565b6020604051808303816000875af1158015611a3c573d6000803e3d6000fd5b505050506040513d601f19601f82011682018060405250810190611a609190613edd565b15611a7d5760405162461bcd60e51b815260040161071090613efa565b60fb54604051631846d2f560e31b815286916001600160a01b03169063c23697a890611aad90849060040161365e565b6020604051808303816000875af1158015611acc573d6000803e3d6000fd5b505050506040513d601f19601f82011682018060405250810190611af09190613edd565b15611b0d5760405162461bcd60e51b815260040161071090613efa565b83600114611b2d5760405162461bcd60e51b815260040161071090613f2c565b6001600160a01b0387166000908152610108602090815260408083208884529091529020546001600160801b031680611ba45760405162461bcd60e51b8152602060048201526019602482015278151bdbdb1cce881d1bdbdb08191bd95cdb89dd08195e1a5cdd603a1b6044820152606401610710565b600081815261010660209081526040808320546001600160a01b038c16845261010883528184208a855290925290912054600160201b90910463ffffffff16600160801b9091046001600160801b031614611c855760fd546001600160a01b0389811691161480611c22575060fd546001600160a01b038881169116145b611c855760405162461bcd60e51b815260206004820152602e60248201527f546f6f6c733a207472616e73666572206f66207573656420746f6f6c206e6f7460448201526d20746f20746865206d696e696e6760901b6064820152608401610710565b611c928888838888612a81565b604080516001600160a01b03808b16825289166020820152908101829052606081018790527f9ed053bb818ff08b8353cd46f78db1f0799f31c9e4458fdb425c10eccd2efc449060800160405180910390a1505050506001600160a01b039384166000908152610108602081815260408084208685528083528185209790981684529181528183209483529384528120845481546001600160801b0319166001600160801b0391821690811783558654600160801b90819004909216909102179055939091525055565b611d646124ad565b6001600160a01b038116611dc95760405162461bcd60e51b815260206004820152602660248201527f4f776e61626c653a206e6577206f776e657220697320746865207a65726f206160448201526564647265737360d01b6064820152608401610710565b611dd2816126d4565b50565b611ddd6125a0565b60fb54604051631846d2f560e31b815233916001600160a01b03169063c23697a890611e0d90849060040161365e565b6020604051808303816000875af1158015611e2c573d6000803e3d6000fd5b505050506040513d601f19601f82011682018060405250810190611e509190613edd565b15611e6d5760405162461bcd60e51b815260040161071090613efa565b60006060611e7a84612371565b6002600052610103602052600080516020614386833981519152546040516323b872dd60e01b81529294509092506001600160a01b0316906323b872dd90611ecc90339061dead908790600401613fc2565b6020604051808303816000875af1158015611eeb573d6000803e3d6000fd5b505050506040513d601f19601f82011682018060405250810190611f0f9190613edd565b5060016000526101036020526000805160206143a6833981519152546001600160a01b03166323b872dd3361dead611f48866005614066565b6040518463ffffffff1660e01b8152600401611f6693929190613fc2565b6020604051808303816000875af1158015611f85573d6000803e3d6000fd5b505050506040513d601f19601f82011682018060405250810190611fa99190613edd565b5060005b81518110156120a157818181518110611fc857611fc8613e4a565b602002602001015160001461208f5760fc546001600160a01b031663f242432a3361dead611ff7856001614085565b86868151811061200957612009613e4a565b60209081029190910101516040516001600160e01b031960e087901b1681526001600160a01b0394851660048201529390921660248401526044830152606482015260a06084820152600060a482015260c401600060405180830381600087803b15801561207657600080fd5b505af115801561208a573d6000803e3d6000fd5b505050505b8061209981613e76565b915050611fad565b506120be3385600160405180602001604052806000815250612b0d565b60ff80549060006120ce83613e76565b90915550506040805180820182526001600160801b0386811682526000878152610106602090815284822054600160201b900463ffffffff1681850190815233808452610108835286842060ff54855290925294909120925193518216600160801b02939091169290921790557f199828a8936e6bbf903b8de6c496d9724e58997bbd49c6576165a14635ea1b149060ff54604051610ab192918891614045565b6121776124ad565b60fb54604051631846d2f560e31b815284916001600160a01b03169063c23697a8906121a790849060040161365e565b6020604051808303816000875af11580156121c6573d6000803e3d6000fd5b505050506040513d601f19601f820116820180604052508101906121ea9190613edd565b156122075760405162461bcd60e51b815260040161071090613efa565b610100546122275760405162461bcd60e51b81526004016107109061401c565b61010054836001600160801b031611156122535760405162461bcd60e51b815260040161071090613c54565b61227784846001600160801b03168460405180602001604052806000815250612b0d565b6000805160206143668339815191528484846040516122989392919061409d565b60405180910390a160005b8281101561236a5760ff80549060006122bb83613e76565b90915550506040805180820182526001600160801b03808716808352600090815261010660209081528482205463ffffffff600160201b909104168185019081526001600160a01b038b168352610108825285832060ff80548552925291859020935191518316600160801b02919092161790915554905160008051602061434683398151915291612350918891889161409d565b60405180910390a18061236281613e76565b9150506122a3565b5050505050565b6000606061237d6125a0565b610101546001600160401b03811115612398576123986133dc565b6040519080825280602002602001820160405280156123c1578160200160208202803683370190505b506000848152610107602052604081205493509091505b61010154811015612457576000848152610107602090815260408083208484526001019091529020541561244557600084815261010760209081526040808320848452600101909152902054825183908390811061243857612438613e4a565b6020026020010181815250505b8061244f81613e76565b9150506123d8565b50915091565b60006001600160e01b03198216636cdb3d1360e11b148061248e57506001600160e01b031982166303a24d0760e21b145b8061079c57506301ffc9a760e01b6001600160e01b031983161461079c565b336124b661132f565b6001600160a01b03161461126e5760405162461bcd60e51b815260206004820181905260248201527f4f776e61626c653a2063616c6c6572206973206e6f7420746865206f776e65726044820152606401610710565b60606099805461251b90613d4c565b80601f016020809104026020016040519081016040528092919081815260200182805461254790613d4c565b80156125945780601f1061256957610100808354040283529160200191612594565b820191906000526020600020905b81548152906001019060200180831161257757829003601f168201915b50505050509050919050565b60c95460ff161561126e5760405162461bcd60e51b815260206004820152601060248201526f14185d5cd8589b194e881c185d5cd95960821b6044820152606401610710565b6001600160a01b03163b151590565b600054610100900460ff1661261c5760405162461bcd60e51b8152600401610710906140c7565b611dd281612bce565b600054610100900460ff1661264c5760405162461bcd60e51b8152600401610710906140c7565b61126e612bfe565b600054610100900460ff1661267b5760405162461bcd60e51b8152600401610710906140c7565b61126e612c31565b61268f60fe838361314a565b507f01e56a02aca7f26a28165a040851ba78f30282b55ca81c63a804cdc1e2dcea726126bb60016108b7565b6040516126c8919061332c565b60405180910390a15050565b603380546001600160a01b038381166001600160a01b0319831681179093556040519116919082907f8be0079c531659141344cd1fd0a4f28419497f9722a3daafe3b4186f6b6457e090600090a35050565b61272e6125a0565b60c9805460ff191660011790557f62e78cea01bee320cd4e420270b5ea74000d11b0c9f74754ebdbfc544b05a2586127633390565b604051612770919061365e565b60405180910390a1565b612782612c61565b60c9805460ff191690557f5db9ee0a495bf2e6ff9c91a7834c1ba4fdd244a5e8aa4e537bd38aeae4b073aa33612763565b6000838152610105602052604090206127cd90838361314a565b50827f6bb7ff708619ba0610cba295a58592e0451dee2622938c8755667688daf3529b6127f9856108b7565b604051612806919061332c565b60405180910390a2505050565b816001600160a01b0316836001600160a01b031614156128875760405162461bcd60e51b815260206004820152602960248201527f455243313135353a2073657474696e6720617070726f76616c20737461747573604482015268103337b91039b2b63360b91b6064820152608401610710565b6001600160a01b03838116600081815260986020908152604080832094871680845294825291829020805460ff191686151590811790915591519182527f17307eab39ab6107e8899845ad3d59bd9653f200f220920489ca2b5937696c31910160405180910390a3505050565b6001600160a01b03841661291a5760405162461bcd60e51b815260040161071090614112565b815183511461297c5760405162461bcd60e51b815260206004820152602860248201527f455243313135353a2069647320616e6420616d6f756e7473206c656e677468206044820152670dad2e6dac2e8c6d60c31b6064820152608401610710565b3360005b8451811015612a195783818151811061299b5761299b613e4a565b6020026020010151609760008784815181106129b9576129b9613e4a565b602002602001015181526020019081526020016000206000886001600160a01b03166001600160a01b031681526020019081526020016000206000828254612a019190614085565b90915550819050612a1181613e76565b915050612980565b50846001600160a01b031660006001600160a01b0316826001600160a01b03167f4a39dc06d4c0dbc64b70af90fd698a233a518aa5d07e595d983b8c0526c8f7fb8787604051612a6a929190614153565b60405180910390a461236a81600087878787612caa565b6001600160a01b038516331480612a9d5750612a9d85336105c4565b612b005760405162461bcd60e51b815260206004820152602e60248201527f455243313135353a2063616c6c6572206973206e6f7420746f6b656e206f776e60448201526d195c881bdc88185c1c1c9bdd995960921b6064820152608401610710565b61236a8585858585612e0d565b6001600160a01b038416612b335760405162461bcd60e51b815260040161071090614112565b336000612b3f85612faa565b90506000612b4c85612faa565b905060008681526097602090815260408083206001600160a01b038b16845290915281208054879290612b80908490614085565b909155505060408051878152602081018790526001600160a01b03808a169260009291871691600080516020614326833981519152910160405180910390a46118f183600089898989612ff5565b600054610100900460ff16612bf55760405162461bcd60e51b8152600401610710906140c7565b611dd2816130b7565b600054610100900460ff16612c255760405162461bcd60e51b8152600401610710906140c7565b60c9805460ff19169055565b600054610100900460ff16612c585760405162461bcd60e51b8152600401610710906140c7565b61126e336126d4565b60c95460ff1661126e5760405162461bcd60e51b815260206004820152601460248201527314185d5cd8589b194e881b9bdd081c185d5cd95960621b6044820152606401610710565b612cbc846001600160a01b03166125e6565b15610e4c5760405163bc197c8160e01b81526001600160a01b0385169063bc197c8190612cf59089908990889088908890600401614178565b6020604051808303816000875af1925050508015612d30575060408051601f3d908101601f19168201909252612d2d918101906141d6565b60015b612ddd57612d3c6141f3565b806308c379a01415612d765750612d5161420f565b80612d5c5750612d78565b8060405162461bcd60e51b8152600401610710919061332c565b505b60405162461bcd60e51b815260206004820152603460248201527f455243313135353a207472616e7366657220746f206e6f6e2d455243313135356044820152732932b1b2b4bb32b91034b6b83632b6b2b73a32b960611b6064820152608401610710565b6001600160e01b0319811663bc197c8160e01b146118f15760405162461bcd60e51b815260040161071090614298565b6001600160a01b038416612e715760405162461bcd60e51b815260206004820152602560248201527f455243313135353a207472616e7366657220746f20746865207a65726f206164604482015264647265737360d81b6064820152608401610710565b336000612e7d85612faa565b90506000612e8a85612faa565b905060008681526097602090815260408083206001600160a01b038c16845290915290205485811015612f125760405162461bcd60e51b815260206004820152602a60248201527f455243313135353a20696e73756666696369656e742062616c616e636520666f60448201526939103a3930b739b332b960b11b6064820152608401610710565b60008781526097602090815260408083206001600160a01b038d8116855292528083208985039055908a16825281208054889290612f51908490614085565b909155505060408051888152602081018890526001600160a01b03808b16928c82169291881691600080516020614326833981519152910160405180910390a4612f9f848a8a8a8a8a612ff5565b505050505050505050565b60408051600180825281830190925260609160009190602080830190803683370190505090508281600081518110612fe457612fe4613e4a565b602090810291909101015292915050565b613007846001600160a01b03166125e6565b15610e4c5760405163f23a6e6160e01b81526001600160a01b0385169063f23a6e619061304090899089908890889088906004016142e0565b6020604051808303816000875af192505050801561307b575060408051601f3d908101601f19168201909252613078918101906141d6565b60015b61308757612d3c6141f3565b6001600160e01b0319811663f23a6e6160e01b146118f15760405162461bcd60e51b815260040161071090614298565b80516112589060999060208401905b8280546130d290613d4c565b90600052602060002090601f0160209004810192826130f4576000855561313a565b82601f1061310d57805160ff191683800117855561313a565b8280016001018555821561313a579182015b8281111561313a57825182559160200191906001019061311f565b506131469291506131be565b5090565b82805461315690613d4c565b90600052602060002090601f016020900481019282613178576000855561313a565b82601f106131915782800160ff1982351617855561313a565b8280016001018555821561313a579182015b8281111561313a5782358255916020019190600101906131a3565b5b8082111561314657600081556001016131bf565b80356001600160a01b03811681146131ea57600080fd5b919050565b6000806040838503121561320257600080fd5b61320b836131d3565b946020939093013593505050565b6001600160e01b031981168114611dd257600080fd5b60006020828403121561324157600080fd5b813561099181613219565b803563ffffffff811681146131ea57600080fd5b600080600080600060a0868803121561327857600080fd5b853594506132886020870161324c565b93506132966040870161324c565b9250606086013591506132ab6080870161324c565b90509295509295909350565b6000602082840312156132c957600080fd5b5035919050565b60005b838110156132eb5781810151838201526020016132d3565b838111156132fa576000848401525b50505050565b600081518084526133188160208601602086016132d0565b601f01601f19169290920160200192915050565b6020815260006109916020830184613300565b60008083601f84011261335157600080fd5b5081356001600160401b0381111561336857600080fd5b6020830191508360208260051b850101111561338357600080fd5b9250929050565b600080600080606085870312156133a057600080fd5b843593506020850135925060408501356001600160401b038111156133c457600080fd5b6133d08782880161333f565b95989497509550505050565b634e487b7160e01b600052604160045260246000fd5b601f8201601f191681016001600160401b0381118282101715613417576134176133dc565b6040525050565b60006001600160401b03821115613437576134376133dc565b5060051b60200190565b600082601f83011261345257600080fd5b8135602061345f8261341e565b60405161346c82826133f2565b83815260059390931b850182019282810191508684111561348c57600080fd5b8286015b848110156134a75780358352918301918301613490565b509695505050505050565b60006001600160401b038311156134cb576134cb6133dc565b6040516134e2601f8501601f1916602001826133f2565b8091508381528484840111156134f757600080fd5b83836020830137600060208583010152509392505050565b600082601f83011261352057600080fd5b610991838335602085016134b2565b600080600080600060a0868803121561354757600080fd5b613550866131d3565b945061355e602087016131d3565b935060408601356001600160401b038082111561357a57600080fd5b61358689838a01613441565b9450606088013591508082111561359c57600080fd5b6135a889838a01613441565b935060808801359150808211156135be57600080fd5b506135cb8882890161350f565b9150509295509295909350565b600080600080600060a086880312156135f057600080fd5b6135f9866131d3565b9450613607602087016131d3565b9350613615604087016131d3565b9250613623606087016131d3565b915060808601356001600160401b0381111561363e57600080fd5b8601601f8101881361364f57600080fd5b6135cb888235602084016134b2565b6001600160a01b0391909116815260200190565b6000806040838503121561368557600080fd5b82356001600160401b038082111561369c57600080fd5b818501915085601f8301126136b057600080fd5b813560206136bd8261341e565b6040516136ca82826133f2565b83815260059390931b85018201928281019150898411156136ea57600080fd5b948201945b8386101561370f57613700866131d3565b825294820194908201906136ef565b9650508601359250508082111561372557600080fd5b5061373285828601613441565b9150509250929050565b600081518084526020808501945080840160005b8381101561376c57815187529582019590820190600101613750565b509495945050505050565b602081526000610991602083018461373c565b60008083601f84011261379c57600080fd5b5081356001600160401b038111156137b357600080fd5b60208301915083602082850101111561338357600080fd5b600080602083850312156137de57600080fd5b82356001600160401b038111156137f457600080fd5b6138008582860161378a565b90969095509350505050565b60006020828403121561381e57600080fd5b610991826131d3565b60008060006040848603121561383c57600080fd5b8335925060208401356001600160401b0381111561385957600080fd5b6138658682870161378a565b9497909650939450505050565b8015158114611dd257600080fd5b6000806040838503121561389357600080fd5b61389c836131d3565b915060208301356138ac81613872565b809150509250929050565b600080600080600080600080600060e08a8c0312156138d557600080fd5b6138de8a61324c565b98506138ec60208b0161324c565b975060408a0135965061390160608b0161324c565b955060808a0135945060a08a01356001600160401b038082111561392457600080fd5b6139308d838e0161333f565b909650945060c08c013591508082111561394957600080fd5b506139568c828d0161378a565b915080935050809150509295985092959850929598565b60008060008060008060008060a0898b03121561398957600080fd5b613992896131d3565b97506139a060208a016131d3565b965060408901356001600160401b03808211156139bc57600080fd5b6139c88c838d0161333f565b909850965060608b01359150808211156139e157600080fd5b6139ed8c838d0161333f565b909650945060808b0135915080821115613a0657600080fd5b50613a138b828c0161378a565b999c989b5096995094979396929594505050565b600080600080600060608688031215613a3f57600080fd5b613a48866131d3565b945060208601356001600160401b0380821115613a6457600080fd5b613a7089838a0161333f565b90965094506040880135915080821115613a8957600080fd5b50613a968882890161333f565b969995985093965092949392505050565b600080600060608486031215613abc57600080fd5b613ac5846131d3565b95602085013595506040909401359392505050565b60008060408385031215613aed57600080fd5b613af6836131d3565b9150613b04602084016131d3565b90509250929050565b60008060008060008060a08789031215613b2657600080fd5b613b2f876131d3565b9550613b3d602088016131d3565b9450604087013593506060870135925060808701356001600160401b03811115613b6657600080fd5b613b7289828a0161378a565b979a9699509497509295939492505050565b600080600080600060a08688031215613b9c57600080fd5b613ba5866131d3565b9450613bb3602087016131d3565b9350604086013592506060860135915060808601356001600160401b03811115613bdc57600080fd5b6135cb8882890161350f565b600080600060608486031215613bfd57600080fd5b613c06846131d3565b925060208401356001600160801b0381168114613c2257600080fd5b929592945050506040919091013590565b828152604060208201526000613c4c604083018461373c565b949350505050565b6020808252601e908201527f546f6f6c733a20696e76616c696420746f6f6c54797065732076616c75650000604082015260600190565b634e487b7160e01b600052601260045260246000fd5b600063ffffffff80841680613cb857613cb8613c8b565b92169190910692915050565b6020808252601d908201527f546f6f6c733a20696e76616c696420737472656e6774682076616c7565000000604082015260600190565b60208082526031908201527f546f6f6c733a206d696e696e67206475726174696f6e206d757374206265206760408201527072656174686572207468616e207a65726f60781b606082015260800190565b600181811c90821680613d6057607f821691505b60208210811415613d8157634e487b7160e01b600052602260045260246000fd5b50919050565b60008151613d998185602086016132d0565b9290920192915050565b600080845481600182811c915080831680613dbf57607f831692505b6020808410821415613ddf57634e487b7160e01b86526022600452602486fd5b818015613df35760018114613e0457613e31565b60ff19861689528489019650613e31565b60008b81526020902060005b86811015613e295781548b820152908501908301613e10565b505084890196505b505050505050613e418185613d87565b95945050505050565b634e487b7160e01b600052603260045260246000fd5b634e487b7160e01b600052601160045260246000fd5b6000600019821415613e8a57613e8a613e60565b5060010190565b84815260208101849052606060408201819052810182905260006001600160fb1b03831115613ebf57600080fd5b8260051b808560808501376000920160800191825250949350505050565b600060208284031215613eef57600080fd5b815161099181613872565b602080825260189082015277151bdbdb1cce881d5cd95c881a5b88189b1858dadb1a5cdd60421b604082015260600190565b602080825260189082015277546f6f6c733a20746f6b656e496420697320756e6971756560401b604082015260600190565b634e487b7160e01b600052602160045260246000fd5b60006001600160801b0383811690831681811015613f9457613f94613e60565b039392505050565b60006001600160801b0383811680613fb657613fb6613c8b565b92169190910492915050565b6001600160a01b039384168152919092166020820152604081019190915260600190565b83815260406020820152816040820152818360608301376000818301606090810191909152601f909201601f1916010192915050565b6020808252600f908201526e546f6f6c733a206e6f20746f6f6c7360881b604082015260600190565b6001600160a01b039390931683526020830191909152604082015260600190565b600081600019048311821515161561408057614080613e60565b500290565b6000821982111561409857614098613e60565b500190565b6001600160a01b039390931683526001600160801b03919091166020830152604082015260600190565b6020808252602b908201527f496e697469616c697a61626c653a20636f6e7472616374206973206e6f74206960408201526a6e697469616c697a696e6760a81b606082015260800190565b60208082526021908201527f455243313135353a206d696e7420746f20746865207a65726f206164647265736040820152607360f81b606082015260800190565b604081526000614166604083018561373c565b8281036020840152613e41818561373c565b6001600160a01b0386811682528516602082015260a0604082018190526000906141a49083018661373c565b82810360608401526141b6818661373c565b905082810360808401526141ca8185613300565b98975050505050505050565b6000602082840312156141e857600080fd5b815161099181613219565b600060033d111561420c5760046000803e5060005160e01c5b90565b600060443d101561421d5790565b6040516003193d81016004833e81513d6001600160401b03808311602484018310171561424c57505050505090565b82850191508151818111156142645750505050505090565b843d870101602082850101111561427e5750505050505090565b61428d602082860101876133f2565b509095945050505050565b60208082526028908201527f455243313135353a204552433131353552656365697665722072656a656374656040820152676420746f6b656e7360c01b606082015260800190565b6001600160a01b03868116825285166020820152604081018490526060810183905260a06080820181905260009061431a90830184613300565b97965050505050505056fec3d58168c5ae7397731d063d5bbf3d657854427343f4c083240f7aacaa2d0f628809a6eacbd3ed8c843928c1d1b6b7e379d054a10dfdc72114d48c7f3803d790b8f33804c50e79975c4b37648ce9e98c00c089432d986ed64e71ea50203d5b860e795269dfbed9d26c3aec45bae0e61251290765b5d19cc5b76a2a2e5e8e14417429aea77fbbd36248989297e5cd26ad8449693bd601bedeb44733c4a6f62b49a264697066735822122073529db8327c6edfba4400f27a5a9a82767ea31b30d40d3ad4931967f74fb60064736f6c634300080c0033",
  "devdoc": {
    "kind": "dev",
    "methods": {
      "balanceOf(address,uint256)": {
        "details": "See {IERC1155-balanceOf}. Requirements: - `account` cannot be the zero address."
      },
      "balanceOfBatch(address[],uint256[])": {
        "details": "See {IERC1155-balanceOfBatch}. Requirements: - `accounts` and `ids` must have the same length."
      },
      "isApprovedForAll(address,address)": {
        "details": "See {IERC1155-isApprovedForAll}."
      },
      "onERC1155Received(address,address,uint256,uint256,bytes)": {
        "details": "The next 2 functions are required for ERC1155 standard"
      },
      "owner()": {
        "details": "Returns the address of the current owner."
      },
      "paused()": {
        "details": "Returns true if the contract is paused, and false otherwise."
      },
      "renounceOwnership()": {
        "details": "Leaves the contract without owner. It will not be possible to call `onlyOwner` functions. Can only be called by the current owner. NOTE: Renouncing ownership will leave the contract without an owner, thereby disabling any functionality that is only available to the owner."
      },
      "setApprovalForAll(address,bool)": {
        "details": "See {IERC1155-setApprovalForAll}."
      },
      "supportsInterface(bytes4)": {
        "details": "This function is required for ERC1155 standard"
      },
      "transferOwnership(address)": {
        "details": "Transfers ownership of the contract to a new account (`newOwner`). Can only be called by the current owner."
      }
    },
    "stateVariables": {
      "_artifactTypesAmount": {
        "details": "Number of types of artifactsStarts with 0"
      },
      "_artifacts": {
        "details": "The address of the Artifacts contract"
      },
      "_baseURI": {
        "details": "Base URI for IPFS"
      },
      "_blacklist": {
        "details": "The address of the Blacklist contract"
      },
      "_idsToURIs": {
        "details": "Mapping (tool id => URI)"
      },
      "_miningAddress": {
        "details": "The address of the Mining contract"
      },
      "_ownedTools": {
        "details": "Mapping (user address => (tool id => OwnedTool))"
      },
      "_repairCost": {
        "details": "Mapping (tool type => repair cost)"
      },
      "_resourceTypesAmount": {
        "details": "Number of types of resourcesStarts with 0"
      },
      "_resources": {
        "details": "Mapping (enum Resources => IResources)"
      },
      "_toolIds": {
        "details": "IDs of tools. Each one is unique"
      },
      "_toolTypes": {
        "details": "Types of tools"
      },
      "_typesToRecipes": {
        "details": "Mapping (tool type => Recipe)"
      },
      "_typesToTools": {
        "details": "Mapping (tool type => Tool)"
      },
      "_zeroAddress": {
        "details": "Zero address to burn tokens"
      }
    },
    "title": "This contracts represents tools that are used to mine resources and artifacts.",
    "version": 1
  },
  "userdoc": {
    "events": {
      "AddTool(uint256,string)": {
        "notice": "Indicates that a new tool was added"
      },
      "BaseURI(string)": {
        "notice": "Indicates that a new base URI was set"
      },
      "Craft(address,uint256,uint256)": {
        "notice": "Indicates that a tool was crafted"
      },
      "RecipeCreatedOrUpdated(uint256,uint256,uint256[])": {
        "notice": "Indicates that tool recipe was created or updated"
      },
      "ToolPropertiesSet(uint256)": {
        "notice": "Indicates that tool type's properties have been changed"
      },
      "ToolRepaired(uint256)": {
        "notice": "Indicates that a tool has been fully repaired"
      }
    },
    "kind": "user",
    "methods": {
      "addTool(uint32,uint32,uint256,uint32,uint256,uint256[],string)": {
        "notice": "See {ITools-addTool}"
      },
      "corrupt(address,uint256,uint256)": {
        "notice": "See {ITools-corrupt}"
      },
      "craft(uint256)": {
        "notice": "See {ITools-craft}"
      },
      "getArtifactsAddress()": {
        "notice": "See {ITools-getArtifactsAddress}"
      },
      "getArtifactsTypesAmount()": {
        "notice": "See {ITools-getArtifactsTypesAmount}"
      },
      "getMiningAddress()": {
        "notice": "See {ITools-getMiningAddress}"
      },
      "getRecipe(uint256)": {
        "notice": "See {ITools-getRecipe}"
      },
      "getResourceAddress(uint256)": {
        "notice": "See {ITools-getResourceAddress}"
      },
      "getResourcesTypesAmount()": {
        "notice": "See {ITools-getResourcesTypesAmount}"
      },
      "getStrength(address,uint256)": {
        "notice": "See {ITools-getStrength}"
      },
      "getToolProperties(address,uint256)": {
        "notice": "See {ITools-getToolProperties}"
      },
      "getToolTypeProperties(uint256)": {
        "notice": "See {ITools-getToolTypeProperties}"
      },
      "getToolsTypesAmount()": {
        "notice": "See {ITools-getToolsTypesAmount}"
      },
      "increaseArtifactsTypesAmount()": {
        "notice": "See {ITools-increaseArtifactsTypesAmount}"
      },
      "mint(address,uint128,uint256)": {
        "notice": "See {ITools-mint}"
      },
      "mintBatch(address,uint256[],uint256[])": {
        "notice": "See {ITools-mintBatch}"
      },
      "ownsTool(address,uint256)": {
        "notice": "See {ITools-ownsTool}"
      },
      "pause()": {
        "notice": "See {ITools-pause}"
      },
      "repairTool(uint256)": {
        "notice": "See {ITools-repairTool}"
      },
      "safeBatchTransferFrom(address,address,uint256[],uint256[],bytes)": {
        "notice": "See {ITools-safeBatchTransferFrom}"
      },
      "safeTransferFrom(address,address,uint256,uint256,bytes)": {
        "notice": "See {ITools-safeTransferFrom}"
      },
      "setArtifactsAddress(address)": {
        "notice": "See {ITools-setArtifactsAddress}"
      },
      "setBaseURI(string)": {
        "notice": "See {ITools-setBaseURI}"
      },
      "setMiningAddress(address)": {
        "notice": "See {ITools-setMiningAddress}"
      },
      "setRecipe(uint256,uint256,uint256[])": {
        "notice": "See {ITools-setRecipe}"
      },
      "setToolProperties(uint256,uint32,uint32,uint256,uint32)": {
        "notice": "See {ITools-setToolProperties}"
      },
      "setURI(uint256,string)": {
        "notice": "See {ITools-setURI}"
      },
      "uri(uint256)": {
        "notice": "See {ITools-uri}"
      }
    },
    "version": 1
  },
  "storageLayout": {
    "storage": [
      {
        "astId": 138,
        "contract": "contracts/Tools.sol:Tools",
        "label": "_initialized",
        "offset": 0,
        "slot": "0",
        "type": "t_uint8"
      },
      {
        "astId": 141,
        "contract": "contracts/Tools.sol:Tools",
        "label": "_initializing",
        "offset": 1,
        "slot": "0",
        "type": "t_bool"
      },
      {
        "astId": 2221,
        "contract": "contracts/Tools.sol:Tools",
        "label": "__gap",
        "offset": 0,
        "slot": "1",
        "type": "t_array(t_uint256)50_storage"
      },
      {
        "astId": 10,
        "contract": "contracts/Tools.sol:Tools",
        "label": "_owner",
        "offset": 0,
        "slot": "51",
        "type": "t_address"
      },
      {
        "astId": 130,
        "contract": "contracts/Tools.sol:Tools",
        "label": "__gap",
        "offset": 0,
        "slot": "52",
        "type": "t_array(t_uint256)49_storage"
      },
      {
        "astId": 2265,
        "contract": "contracts/Tools.sol:Tools",
        "label": "__gap",
        "offset": 0,
        "slot": "101",
        "type": "t_array(t_uint256)50_storage"
      },
      {
        "astId": 456,
        "contract": "contracts/Tools.sol:Tools",
        "label": "_balances",
        "offset": 0,
        "slot": "151",
        "type": "t_mapping(t_uint256,t_mapping(t_address,t_uint256))"
      },
      {
        "astId": 462,
        "contract": "contracts/Tools.sol:Tools",
        "label": "_operatorApprovals",
        "offset": 0,
        "slot": "152",
        "type": "t_mapping(t_address,t_mapping(t_address,t_bool))"
      },
      {
        "astId": 464,
        "contract": "contracts/Tools.sol:Tools",
        "label": "_uri",
        "offset": 0,
        "slot": "153",
        "type": "t_string_storage"
      },
      {
        "astId": 1671,
        "contract": "contracts/Tools.sol:Tools",
        "label": "__gap",
        "offset": 0,
        "slot": "154",
        "type": "t_array(t_uint256)47_storage"
      },
      {
        "astId": 321,
        "contract": "contracts/Tools.sol:Tools",
        "label": "_paused",
        "offset": 0,
        "slot": "201",
        "type": "t_bool"
      },
      {
        "astId": 426,
        "contract": "contracts/Tools.sol:Tools",
        "label": "__gap",
        "offset": 0,
        "slot": "202",
        "type": "t_array(t_uint256)49_storage"
      },
      {
        "astId": 8324,
        "contract": "contracts/Tools.sol:Tools",
        "label": "_blacklist",
        "offset": 0,
        "slot": "251",
        "type": "t_contract(IBlackList)10000"
      },
      {
        "astId": 8328,
        "contract": "contracts/Tools.sol:Tools",
        "label": "_artifacts",
        "offset": 0,
        "slot": "252",
        "type": "t_contract(IArtifacts)9968"
      },
      {
        "astId": 8331,
        "contract": "contracts/Tools.sol:Tools",
        "label": "_miningAddress",
        "offset": 0,
        "slot": "253",
        "type": "t_address"
      },
      {
        "astId": 8334,
        "contract": "contracts/Tools.sol:Tools",
        "label": "_baseURI",
        "offset": 0,
        "slot": "254",
        "type": "t_string_storage"
      },
      {
        "astId": 8341,
        "contract": "contracts/Tools.sol:Tools",
        "label": "_toolIds",
        "offset": 0,
        "slot": "255",
        "type": "t_uint256"
      },
      {
        "astId": 8344,
        "contract": "contracts/Tools.sol:Tools",
        "label": "_toolTypes",
        "offset": 0,
        "slot": "256",
        "type": "t_uint256"
      },
      {
        "astId": 8347,
        "contract": "contracts/Tools.sol:Tools",
        "label": "_artifactTypesAmount",
        "offset": 0,
        "slot": "257",
        "type": "t_uint256"
      },
      {
        "astId": 8350,
        "contract": "contracts/Tools.sol:Tools",
        "label": "_resourceTypesAmount",
        "offset": 0,
        "slot": "258",
        "type": "t_uint256"
      },
      {
        "astId": 8357,
        "contract": "contracts/Tools.sol:Tools",
        "label": "_resources",
        "offset": 0,
        "slot": "259",
        "type": "t_mapping(t_enum(Resources)10172,t_contract(IResources)10162)"
      },
      {
        "astId": 8362,
        "contract": "contracts/Tools.sol:Tools",
        "label": "_repairCost",
        "offset": 0,
        "slot": "260",
        "type": "t_mapping(t_uint256,t_uint256)"
      },
      {
        "astId": 8367,
        "contract": "contracts/Tools.sol:Tools",
        "label": "_idsToURIs",
        "offset": 0,
        "slot": "261",
        "type": "t_mapping(t_uint256,t_string_storage)"
      },
      {
        "astId": 8373,
        "contract": "contracts/Tools.sol:Tools",
        "label": "_typesToTools",
        "offset": 0,
        "slot": "262",
        "type": "t_mapping(t_uint256,t_struct(Tool)10188_storage)"
      },
      {
        "astId": 8379,
        "contract": "contracts/Tools.sol:Tools",
        "label": "_typesToRecipes",
        "offset": 0,
        "slot": "263",
        "type": "t_mapping(t_uint256,t_struct(Recipe)10179_storage)"
      },
      {
        "astId": 8387,
        "contract": "contracts/Tools.sol:Tools",
        "label": "_ownedTools",
        "offset": 0,
        "slot": "264",
        "type": "t_mapping(t_address,t_mapping(t_uint256,t_struct(OwnedTool)10193_storage))"
      }
    ],
    "types": {
      "t_address": {
        "encoding": "inplace",
        "label": "address",
        "numberOfBytes": "20"
      },
      "t_array(t_uint256)47_storage": {
        "base": "t_uint256",
        "encoding": "inplace",
        "label": "uint256[47]",
        "numberOfBytes": "1504"
      },
      "t_array(t_uint256)49_storage": {
        "base": "t_uint256",
        "encoding": "inplace",
        "label": "uint256[49]",
        "numberOfBytes": "1568"
      },
      "t_array(t_uint256)50_storage": {
        "base": "t_uint256",
        "encoding": "inplace",
        "label": "uint256[50]",
        "numberOfBytes": "1600"
      },
      "t_bool": {
        "encoding": "inplace",
        "label": "bool",
        "numberOfBytes": "1"
      },
      "t_contract(IArtifacts)9968": {
        "encoding": "inplace",
        "label": "contract IArtifacts",
        "numberOfBytes": "20"
      },
      "t_contract(IBlackList)10000": {
        "encoding": "inplace",
        "label": "contract IBlackList",
        "numberOfBytes": "20"
      },
      "t_contract(IResources)10162": {
        "encoding": "inplace",
        "label": "contract IResources",
        "numberOfBytes": "20"
      },
      "t_enum(Resources)10172": {
        "encoding": "inplace",
        "label": "enum ITools.Resources",
        "numberOfBytes": "1"
      },
      "t_mapping(t_address,t_bool)": {
        "encoding": "mapping",
        "key": "t_address",
        "label": "mapping(address => bool)",
        "numberOfBytes": "32",
        "value": "t_bool"
      },
      "t_mapping(t_address,t_mapping(t_address,t_bool))": {
        "encoding": "mapping",
        "key": "t_address",
        "label": "mapping(address => mapping(address => bool))",
        "numberOfBytes": "32",
        "value": "t_mapping(t_address,t_bool)"
      },
      "t_mapping(t_address,t_mapping(t_uint256,t_struct(OwnedTool)10193_storage))": {
        "encoding": "mapping",
        "key": "t_address",
        "label": "mapping(address => mapping(uint256 => struct ITools.OwnedTool))",
        "numberOfBytes": "32",
        "value": "t_mapping(t_uint256,t_struct(OwnedTool)10193_storage)"
      },
      "t_mapping(t_address,t_uint256)": {
        "encoding": "mapping",
        "key": "t_address",
        "label": "mapping(address => uint256)",
        "numberOfBytes": "32",
        "value": "t_uint256"
      },
      "t_mapping(t_enum(Resources)10172,t_contract(IResources)10162)": {
        "encoding": "mapping",
        "key": "t_enum(Resources)10172",
        "label": "mapping(enum ITools.Resources => contract IResources)",
        "numberOfBytes": "32",
        "value": "t_contract(IResources)10162"
      },
      "t_mapping(t_uint256,t_mapping(t_address,t_uint256))": {
        "encoding": "mapping",
        "key": "t_uint256",
        "label": "mapping(uint256 => mapping(address => uint256))",
        "numberOfBytes": "32",
        "value": "t_mapping(t_address,t_uint256)"
      },
      "t_mapping(t_uint256,t_string_storage)": {
        "encoding": "mapping",
        "key": "t_uint256",
        "label": "mapping(uint256 => string)",
        "numberOfBytes": "32",
        "value": "t_string_storage"
      },
      "t_mapping(t_uint256,t_struct(OwnedTool)10193_storage)": {
        "encoding": "mapping",
        "key": "t_uint256",
        "label": "mapping(uint256 => struct ITools.OwnedTool)",
        "numberOfBytes": "32",
        "value": "t_struct(OwnedTool)10193_storage"
      },
      "t_mapping(t_uint256,t_struct(Recipe)10179_storage)": {
        "encoding": "mapping",
        "key": "t_uint256",
        "label": "mapping(uint256 => struct ITools.Recipe)",
        "numberOfBytes": "32",
        "value": "t_struct(Recipe)10179_storage"
      },
      "t_mapping(t_uint256,t_struct(Tool)10188_storage)": {
        "encoding": "mapping",
        "key": "t_uint256",
        "label": "mapping(uint256 => struct ITools.Tool)",
        "numberOfBytes": "32",
        "value": "t_struct(Tool)10188_storage"
      },
      "t_mapping(t_uint256,t_uint256)": {
        "encoding": "mapping",
        "key": "t_uint256",
        "label": "mapping(uint256 => uint256)",
        "numberOfBytes": "32",
        "value": "t_uint256"
      },
      "t_string_storage": {
        "encoding": "bytes",
        "label": "string",
        "numberOfBytes": "32"
      },
      "t_struct(OwnedTool)10193_storage": {
        "encoding": "inplace",
        "label": "struct ITools.OwnedTool",
        "members": [
          {
            "astId": 10190,
            "contract": "contracts/Tools.sol:Tools",
            "label": "toolType",
            "offset": 0,
            "slot": "0",
            "type": "t_uint128"
          },
          {
            "astId": 10192,
            "contract": "contracts/Tools.sol:Tools",
            "label": "strength",
            "offset": 16,
            "slot": "0",
            "type": "t_uint128"
          }
        ],
        "numberOfBytes": "32"
      },
      "t_struct(Recipe)10179_storage": {
        "encoding": "inplace",
        "label": "struct ITools.Recipe",
        "members": [
          {
            "astId": 10174,
            "contract": "contracts/Tools.sol:Tools",
            "label": "resourcesAmount",
            "offset": 0,
            "slot": "0",
            "type": "t_uint256"
          },
          {
            "astId": 10178,
            "contract": "contracts/Tools.sol:Tools",
            "label": "artifacts",
            "offset": 0,
            "slot": "1",
            "type": "t_mapping(t_uint256,t_uint256)"
          }
        ],
        "numberOfBytes": "64"
      },
      "t_struct(Tool)10188_storage": {
        "encoding": "inplace",
        "label": "struct ITools.Tool",
        "members": [
          {
            "astId": 10181,
            "contract": "contracts/Tools.sol:Tools",
            "label": "strengthCost",
            "offset": 0,
            "slot": "0",
            "type": "t_uint32"
          },
          {
            "astId": 10183,
            "contract": "contracts/Tools.sol:Tools",
            "label": "maxStrength",
            "offset": 4,
            "slot": "0",
            "type": "t_uint32"
          },
          {
            "astId": 10185,
            "contract": "contracts/Tools.sol:Tools",
            "label": "miningDuration",
            "offset": 8,
            "slot": "0",
            "type": "t_uint32"
          },
          {
            "astId": 10187,
            "contract": "contracts/Tools.sol:Tools",
            "label": "energyCost",
            "offset": 0,
            "slot": "1",
            "type": "t_uint256"
          }
        ],
        "numberOfBytes": "64"
      },
      "t_uint128": {
        "encoding": "inplace",
        "label": "uint128",
        "numberOfBytes": "16"
      },
      "t_uint256": {
        "encoding": "inplace",
        "label": "uint256",
        "numberOfBytes": "32"
      },
      "t_uint32": {
        "encoding": "inplace",
        "label": "uint32",
        "numberOfBytes": "4"
      },
      "t_uint8": {
        "encoding": "inplace",
        "label": "uint8",
        "numberOfBytes": "1"
      }
    }
  }
}