{
  "_format": "hh-sol-artifact-1",
  "contractName": "Mining",
  "sourceName": "contracts/Mining.sol",
  "abi": [
    {
      "anonymous": false,
      "inputs": [
        {
          "indexed": false,
          "internalType": "uint8",
          "name": "version",
          "type": "uint8"
        }
      ],
      "name": "Initialized",
      "type": "event"
    },
    {
      "anonymous": false,
      "inputs": [
        {
          "indexed": false,
          "internalType": "address",
          "name": "user",
          "type": "address"
        },
        {
          "components": [
            {
              "internalType": "uint32",
              "name": "endTime",
              "type": "uint32"
            },
            {
              "internalType": "uint32",
              "name": "energyCost",
              "type": "uint32"
            },
            {
              "internalType": "uint16",
              "name": "toolType",
              "type": "uint16"
            },
            {
              "internalType": "uint16",
              "name": "strengthCost",
              "type": "uint16"
            },
            {
              "internalType": "bool",
              "name": "started",
              "type": "bool"
            }
          ],
          "indexed": false,
          "internalType": "struct Mining.MiningSession",
          "name": "session",
          "type": "tuple"
        }
      ],
      "name": "MiningEnded",
      "type": "event"
    },
    {
      "anonymous": false,
      "inputs": [
        {
          "indexed": false,
          "internalType": "address",
          "name": "user",
          "type": "address"
        },
        {
          "components": [
            {
              "internalType": "uint32",
              "name": "endTime",
              "type": "uint32"
            },
            {
              "internalType": "uint32",
              "name": "energyCost",
              "type": "uint32"
            },
            {
              "internalType": "uint16",
              "name": "toolType",
              "type": "uint16"
            },
            {
              "internalType": "uint16",
              "name": "strengthCost",
              "type": "uint16"
            },
            {
              "internalType": "bool",
              "name": "started",
              "type": "bool"
            }
          ],
          "indexed": false,
          "internalType": "struct Mining.MiningSession",
          "name": "session",
          "type": "tuple"
        }
      ],
      "name": "MiningStarted",
      "type": "event"
    },
    {
      "anonymous": false,
      "inputs": [
        {
          "indexed": true,
          "internalType": "address",
          "name": "previousOwner",
          "type": "address"
        },
        {
          "indexed": true,
          "internalType": "address",
          "name": "newOwner",
          "type": "address"
        }
      ],
      "name": "OwnershipTransferred",
      "type": "event"
    },
    {
      "anonymous": false,
      "inputs": [
        {
          "indexed": false,
          "internalType": "address",
          "name": "account",
          "type": "address"
        }
      ],
      "name": "Paused",
      "type": "event"
    },
    {
      "anonymous": false,
      "inputs": [
        {
          "indexed": false,
          "internalType": "address",
          "name": "account",
          "type": "address"
        }
      ],
      "name": "Unpaused",
      "type": "event"
    },
    {
      "inputs": [
        {
          "internalType": "uint256",
          "name": "toolId",
          "type": "uint256"
        }
      ],
      "name": "endMining",
      "outputs": [],
      "stateMutability": "nonpayable",
      "type": "function"
    },
    {
      "inputs": [],
      "name": "getRewards",
      "outputs": [],
      "stateMutability": "nonpayable",
      "type": "function"
    },
    {
      "inputs": [
        {
          "internalType": "address",
          "name": "blacklistAddress",
          "type": "address"
        },
        {
          "internalType": "address",
          "name": "toolsAddress",
          "type": "address"
        }
      ],
      "name": "initialize",
      "outputs": [],
      "stateMutability": "nonpayable",
      "type": "function"
    },
    {
      "inputs": [
        {
          "internalType": "address",
          "name": "operator",
          "type": "address"
        },
        {
          "internalType": "address",
          "name": "from",
          "type": "address"
        },
        {
          "internalType": "uint256[]",
          "name": "ids",
          "type": "uint256[]"
        },
        {
          "internalType": "uint256[]",
          "name": "values",
          "type": "uint256[]"
        },
        {
          "internalType": "bytes",
          "name": "data",
          "type": "bytes"
        }
      ],
      "name": "onERC1155BatchReceived",
      "outputs": [
        {
          "internalType": "bytes4",
          "name": "",
          "type": "bytes4"
        }
      ],
      "stateMutability": "pure",
      "type": "function"
    },
    {
      "inputs": [
        {
          "internalType": "address",
          "name": "operator",
          "type": "address"
        },
        {
          "internalType": "address",
          "name": "from",
          "type": "address"
        },
        {
          "internalType": "uint256",
          "name": "id",
          "type": "uint256"
        },
        {
          "internalType": "uint256",
          "name": "value",
          "type": "uint256"
        },
        {
          "internalType": "bytes",
          "name": "data",
          "type": "bytes"
        }
      ],
      "name": "onERC1155Received",
      "outputs": [
        {
          "internalType": "bytes4",
          "name": "",
          "type": "bytes4"
        }
      ],
      "stateMutability": "pure",
      "type": "function"
    },
    {
      "inputs": [],
      "name": "owner",
      "outputs": [
        {
          "internalType": "address",
          "name": "",
          "type": "address"
        }
      ],
      "stateMutability": "view",
      "type": "function"
    },
    {
      "inputs": [],
      "name": "pause",
      "outputs": [],
      "stateMutability": "nonpayable",
      "type": "function"
    },
    {
      "inputs": [],
      "name": "paused",
      "outputs": [
        {
          "internalType": "bool",
          "name": "",
          "type": "bool"
        }
      ],
      "stateMutability": "view",
      "type": "function"
    },
    {
      "inputs": [],
      "name": "renounceOwnership",
      "outputs": [],
      "stateMutability": "nonpayable",
      "type": "function"
    },
    {
      "inputs": [
        {
          "internalType": "uint256",
          "name": "toolId",
          "type": "uint256"
        },
        {
          "internalType": "address",
          "name": "user",
          "type": "address"
        },
        {
          "internalType": "uint256[]",
          "name": "resourcesAmount",
          "type": "uint256[]"
        },
        {
          "internalType": "uint256[]",
          "name": "artifactsAmount",
          "type": "uint256[]"
        }
      ],
      "name": "startMining",
      "outputs": [],
      "stateMutability": "nonpayable",
      "type": "function"
    },
    {
      "inputs": [
        {
          "internalType": "bytes4",
          "name": "interfaceId",
          "type": "bytes4"
        }
      ],
      "name": "supportsInterface",
      "outputs": [
        {
          "internalType": "bool",
          "name": "",
          "type": "bool"
        }
      ],
      "stateMutability": "pure",
      "type": "function"
    },
    {
      "inputs": [
        {
          "internalType": "address",
          "name": "newOwner",
          "type": "address"
        }
      ],
      "name": "transferOwnership",
      "outputs": [],
      "stateMutability": "nonpayable",
      "type": "function"
    }
  ],
  "bytecode": "0x608060405234801561001057600080fd5b50611d32806100206000396000f3fe608060405234801561001057600080fd5b50600436106100d45760003560e01c80638da5cb5b11610081578063e614c0dc1161005b578063e614c0dc146101e5578063f23a6e61146101f8578063f2fde38b1461023157600080fd5b80638da5cb5b14610163578063a7148e8a1461017e578063bc197c811461019157600080fd5b80635c975abb116100b25780635c975abb14610148578063715018a6146101535780638456cb591461015b57600080fd5b806301ffc9a7146100d95780630572b0cc1461012b578063485cc95514610135575b600080fd5b6101166100e736600461183f565b6001600160e01b0319167f01ffc9a7000000000000000000000000000000000000000000000000000000001490565b60405190151581526020015b60405180910390f35b610133610244565b005b610133610143366004611885565b610630565b60335460ff16610116565b6101336107a7565b6101336107bb565b6065546040516001600160a01b039091168152602001610122565b61013361018c3660046118be565b6107dd565b6101cc61019f366004611965565b7fbc197c819b3e337a6f9652dd10becd7eef83032af3b9d958d3d42f669414662198975050505050505050565b6040516001600160e01b03199091168152602001610122565b6101336101f3366004611ad5565b610c21565b6101cc610206366004611b55565b7ff23a6e612e1ff4830e658fe43f4e3cb4a5f8170bd5d9e69fb5d7a7fa9e4fdf979695505050505050565b61013361023f366004611bd1565b61121d565b60008060005b609760009054906101000a90046001600160a01b03166001600160a01b031663e7fa2e6c6040518163ffffffff1660e01b8152600401602060405180830381865afa15801561029d573d6000803e3d6000fd5b505050506040513d601f19601f820116820180604052508101906102c19190611bee565b81101561043b57336000908152609b6020908152604080832084845290915290205415610429576097546001600160a01b0316637ae1f137610304836001611c1d565b6040518263ffffffff1660e01b815260040161032291815260200190565b602060405180830381865afa15801561033f573d6000803e3d6000fd5b505050506040513d601f19601f820116820180604052508101906103639190611c35565b336000818152609b60209081526040808320868452909152908190205490517fa9059cbb000000000000000000000000000000000000000000000000000000008152600481019290925260248201529093506001600160a01b0384169063a9059cbb906044016020604051808303816000875af11580156103e8573d6000803e3d6000fd5b505050506040513d601f19601f8201168201806040525081019061040c9190611c52565b50336000908152609b602090815260408083208484529091528120555b8061043381611c74565b91505061024a565b5060015b609760009054906101000a90046001600160a01b03166001600160a01b031663daa6c7556040518163ffffffff1660e01b8152600401602060405180830381865afa158015610492573d6000803e3d6000fd5b505050506040513d601f19601f820116820180604052508101906104b69190611bee565b811161062b57336000908152609c602090815260408083208484529091529020541561061957609760009054906101000a90046001600160a01b03166001600160a01b031663ee100cd66040518163ffffffff1660e01b8152600401602060405180830381865afa15801561052f573d6000803e3d6000fd5b505050506040513d601f19601f820116820180604052508101906105539190611c35565b915060015b336000908152609c6020908152604080832085845290915290205481116105fc576001600160a01b03831663ac2a3010336040516001600160e01b031960e084901b1681526001600160a01b03909116600482015260248101859052604401600060405180830381600087803b1580156105d157600080fd5b505af11580156105e5573d6000803e3d6000fd5b5050505080806105f490611c74565b915050610558565b50336000908152609c602090815260408083208484529091528120555b8061062381611c74565b91505061043f565b505050565b600054610100900460ff16158080156106505750600054600160ff909116105b8061066a5750303b15801561066a575060005460ff166001145b6106e15760405162461bcd60e51b815260206004820152602e60248201527f496e697469616c697a61626c653a20636f6e747261637420697320616c72656160448201527f647920696e697469616c697a656400000000000000000000000000000000000060648201526084015b60405180910390fd5b6000805460ff191660011790558015610704576000805461ff0019166101001790555b6099805461dead73ffffffffffffffffffffffffffffffffffffffff19918216179091556097805482166001600160a01b0385811691909117909155609880549092169085161790556107556112ad565b61075d611320565b801561062b576000805461ff0019169055604051600181527f7f26b83ff96e1f2b6a682f133852f6798a09c465da95921460cefb38474024989060200160405180910390a1505050565b6107af611393565b6107b960006113ed565b565b6107c3611393565b60335460ff166107d5576107b961144c565b6107b96114a6565b6107e56114df565b33609854604051631846d2f560e31b81526001600160a01b0383811660048301529091169063c23697a8906024016020604051808303816000875af1158015610832573d6000803e3d6000fd5b505050506040513d601f19601f820116820180604052508101906108569190611c52565b156108a35760405162461bcd60e51b815260206004820152601160248201527f5573657220696e20626c61636b6c69737400000000000000000000000000000060448201526064016106d8565b336000908152609a602090815260408083208584529091529020546c01000000000000000000000000900460ff1661091d5760405162461bcd60e51b815260206004820152601960248201527f4d696e696e673a207573657220646f65736e2774206d696e650000000000000060448201526064016106d8565b336000908152609a6020908152604080832085845290915290205463ffffffff1642101561098d5760405162461bcd60e51b815260206004820152601160248201527f4d696e696e673a20746f6f206561726c7900000000000000000000000000000060448201526064016106d8565b609754336000908152609a602090815260408083208684529091528082205481517fe30d34a7000000000000000000000000000000000000000000000000000000008152306004820152602481018790526a010000000000000000000090910461ffff16604482015290516001600160a01b039093169263e30d34a79260648084019391929182900301818387803b158015610a2857600080fd5b505af1158015610a3c573d6000803e3d6000fd5b505060975460408051637921219560e11b8152306004820152336024820152604481018790526001606482015260a06084820152600060a4820181905291516001600160a01b03909316945063f242432a935060c4808201939182900301818387803b158015610aab57600080fd5b505af1158015610abf573d6000803e3d6000fd5b505050506000609a6000610ad03390565b6001600160a01b03168152602080820192909252604090810160009081208682528352818120825160a081018452905463ffffffff80821683526401000000008204169482019490945261ffff6801000000000000000085048116938201939093526a01000000000000000000009093049091166060830152608082015290507fa3d5bdab2881ec265b492985c50053fa5047af6880a3c6feada1009bdcd5bfe9610b783390565b336000908152609a6020908152604080832088845282529182902082516001600160a01b039490941684525463ffffffff808216858401529181901c9091168383015261ffff81831c8116606080860191909152605083901c909116608085015260ff91901c16151560a0830152519081900360c00190a15050336000908152609a602090815260408083209383529290522080546cffffffffffffffffffffffffff19169055565b610c29611393565b610c316114df565b609854604051631846d2f560e31b81526001600160a01b0380861660048301528592169063c23697a8906024016020604051808303816000875af1158015610c7d573d6000803e3d6000fd5b505050506040513d601f19601f82011682018060405250810190610ca19190611c52565b15610cee5760405162461bcd60e51b815260206004820152601160248201527f5573657220696e20626c61636b6c69737400000000000000000000000000000060448201526064016106d8565b6001600160a01b0384166000908152609a602090815260408083208884529091529020546c01000000000000000000000000900460ff1615610d985760405162461bcd60e51b815260206004820152603060248201527f4d696e696e673a2074686973207573657220616c72656164792073746172746560448201527f64206d696e696e672070726f636573730000000000000000000000000000000060648201526084016106d8565b6097546040517f3dfc8f210000000000000000000000000000000000000000000000000000000081526001600160a01b038681166004830152602482018890526000928392839283928392911690633dfc8f219060440160a060405180830381865afa158015610e0c573d6000803e3d6000fd5b505050506040513d601f19601f82011682018060405250810190610e309190611c8f565b9450945094509450945060008385610e489190611ccf565b11610e955760405162461bcd60e51b815260206004820152601c60248201527f4d696e696e673a206e6f7420656e6f7567746820737472656e6774680000000060448201526064016106d8565b6097546040517f7ae1f137000000000000000000000000000000000000000000000000000000008152600160048201526000916001600160a01b031690637ae1f13790602401602060405180830381865afa158015610ef8573d6000803e3d6000fd5b505050506040513d601f19601f82011682018060405250810190610f1c9190611c35565b609754604051637921219560e11b81526001600160a01b038d81166004830152306024830152604482018f90526001606483015260a06084830152600060a483015292935091169063f242432a9060c401600060405180830381600087803b158015610f8757600080fd5b505af1158015610f9b573d6000803e3d6000fd5b50506099546040517f23b872dd0000000000000000000000000000000000000000000000000000000081526001600160a01b038e8116600483015291821660248201526044810186905290841692506323b872dd91506064016020604051808303816000875af1158015611013573d6000803e3d6000fd5b505050506040513d601f19601f820116820180604052508101906110379190611c52565b506040518060a00160405280844261104f9190611c1d565b63ffffffff1681526020018363ffffffff1681526020018761ffff1681526020018561ffff16815260200160011515815250609a60008c6001600160a01b03166001600160a01b0316815260200190815260200160002060008d815260200190815260200160002060008201518160000160006101000a81548163ffffffff021916908363ffffffff16021790555060208201518160000160046101000a81548163ffffffff021916908363ffffffff16021790555060408201518160000160086101000a81548161ffff021916908361ffff160217905550606082015181600001600a6101000a81548161ffff021916908361ffff160217905550608082015181600001600c6101000a81548160ff0219169083151502179055509050506111798a8a8a611532565b6001600160a01b038a166000818152609a602090815260408083208f845282529182902082519384525463ffffffff808216858401529181901c9091168383015261ffff81831c8116606080860191909152605083901c909116608085015260ff91901c16151560a0830152517f2cf42dab26f6e78d02ddf36175cca18384d98cd465c1cde4a4271ac6a8d7b1b99181900360c00190a15050505050505050505050565b611225611393565b6001600160a01b0381166112a15760405162461bcd60e51b815260206004820152602660248201527f4f776e61626c653a206e6577206f776e657220697320746865207a65726f206160448201527f646472657373000000000000000000000000000000000000000000000000000060648201526084016106d8565b6112aa816113ed565b50565b600054610100900460ff166113185760405162461bcd60e51b815260206004820152602b60248201527f496e697469616c697a61626c653a20636f6e7472616374206973206e6f74206960448201526a6e697469616c697a696e6760a81b60648201526084016106d8565b6107b9611702565b600054610100900460ff1661138b5760405162461bcd60e51b815260206004820152602b60248201527f496e697469616c697a61626c653a20636f6e7472616374206973206e6f74206960448201526a6e697469616c697a696e6760a81b60648201526084016106d8565b6107b9611779565b6065546001600160a01b031633146107b95760405162461bcd60e51b815260206004820181905260248201527f4f776e61626c653a2063616c6c6572206973206e6f7420746865206f776e657260448201526064016106d8565b606580546001600160a01b0383811673ffffffffffffffffffffffffffffffffffffffff19831681179093556040519116919082907f8be0079c531659141344cd1fd0a4f28419497f9722a3daafe3b4186f6b6457e090600090a35050565b6114546114df565b6033805460ff191660011790557f62e78cea01bee320cd4e420270b5ea74000d11b0c9f74754ebdbfc544b05a2586114893390565b6040516001600160a01b03909116815260200160405180910390a1565b6114ae6117ed565b6033805460ff191690557f5db9ee0a495bf2e6ff9c91a7834c1ba4fdd244a5e8aa4e537bd38aeae4b073aa33611489565b60335460ff16156107b95760405162461bcd60e51b815260206004820152601060248201527f5061757361626c653a207061757365640000000000000000000000000000000060448201526064016106d8565b60005b82518110156115d65782818151811061155057611550611ce6565b60200260200101516000146115c45782818151811061157157611571611ce6565b6020026020010151609b6000866001600160a01b03166001600160a01b03168152602001908152602001600020600083815260200190815260200160002060008282546115be9190611c1d565b90915550505b806115ce81611c74565b915050611535565b5060005b609760009054906101000a90046001600160a01b03166001600160a01b031663daa6c7556040518163ffffffff1660e01b8152600401602060405180830381865afa15801561162d573d6000803e3d6000fd5b505050506040513d601f19601f820116820180604052508101906116519190611bee565b8110156116fc5781818151811061166a5761166a611ce6565b60200260200101516000146116ea5781818151811061168b5761168b611ce6565b6020026020010151609c6000866001600160a01b03166001600160a01b0316815260200190815260200160002060008360016116c79190611c1d565b815260200190815260200160002060008282546116e49190611c1d565b90915550505b806116f481611c74565b9150506115da565b50505050565b600054610100900460ff1661176d5760405162461bcd60e51b815260206004820152602b60248201527f496e697469616c697a61626c653a20636f6e7472616374206973206e6f74206960448201526a6e697469616c697a696e6760a81b60648201526084016106d8565b6033805460ff19169055565b600054610100900460ff166117e45760405162461bcd60e51b815260206004820152602b60248201527f496e697469616c697a61626c653a20636f6e7472616374206973206e6f74206960448201526a6e697469616c697a696e6760a81b60648201526084016106d8565b6107b9336113ed565b60335460ff166107b95760405162461bcd60e51b815260206004820152601460248201527f5061757361626c653a206e6f742070617573656400000000000000000000000060448201526064016106d8565b60006020828403121561185157600080fd5b81356001600160e01b03198116811461186957600080fd5b9392505050565b6001600160a01b03811681146112aa57600080fd5b6000806040838503121561189857600080fd5b82356118a381611870565b915060208301356118b381611870565b809150509250929050565b6000602082840312156118d057600080fd5b5035919050565b60008083601f8401126118e957600080fd5b50813567ffffffffffffffff81111561190157600080fd5b6020830191508360208260051b850101111561191c57600080fd5b9250929050565b60008083601f84011261193557600080fd5b50813567ffffffffffffffff81111561194d57600080fd5b60208301915083602082850101111561191c57600080fd5b60008060008060008060008060a0898b03121561198157600080fd5b883561198c81611870565b9750602089013561199c81611870565b9650604089013567ffffffffffffffff808211156119b957600080fd5b6119c58c838d016118d7565b909850965060608b01359150808211156119de57600080fd5b6119ea8c838d016118d7565b909650945060808b0135915080821115611a0357600080fd5b50611a108b828c01611923565b999c989b5096995094979396929594505050565b634e487b7160e01b600052604160045260246000fd5b600082601f830112611a4b57600080fd5b8135602067ffffffffffffffff80831115611a6857611a68611a24565b8260051b604051601f19603f83011681018181108482111715611a8d57611a8d611a24565b604052938452858101830193838101925087851115611aab57600080fd5b83870191505b84821015611aca57813583529183019190830190611ab1565b979650505050505050565b60008060008060808587031215611aeb57600080fd5b843593506020850135611afd81611870565b9250604085013567ffffffffffffffff80821115611b1a57600080fd5b611b2688838901611a3a565b93506060870135915080821115611b3c57600080fd5b50611b4987828801611a3a565b91505092959194509250565b60008060008060008060a08789031215611b6e57600080fd5b8635611b7981611870565b95506020870135611b8981611870565b94506040870135935060608701359250608087013567ffffffffffffffff811115611bb357600080fd5b611bbf89828a01611923565b979a9699509497509295939492505050565b600060208284031215611be357600080fd5b813561186981611870565b600060208284031215611c0057600080fd5b5051919050565b634e487b7160e01b600052601160045260246000fd5b60008219821115611c3057611c30611c07565b500190565b600060208284031215611c4757600080fd5b815161186981611870565b600060208284031215611c6457600080fd5b8151801515811461186957600080fd5b6000600019821415611c8857611c88611c07565b5060010190565b600080600080600060a08688031215611ca757600080fd5b5050835160208501516040860151606087015160809097015192989197509594509092509050565b600082821015611ce157611ce1611c07565b500390565b634e487b7160e01b600052603260045260246000fdfea2646970667358221220539f8fc23617225f2040af881286bfad41b09253231152d03ae781059fbff25d64736f6c634300080c0033",
  "linkReferences": {},
  "deployedLinkReferences": {}
}