{
  "_format": "hh-sol-artifact-1",
  "contractName": "Mining",
  "sourceName": "contracts/Mining.sol",
  "abi": [
    {
      "anonymous": false,
      "inputs": [
        {
          "indexed": false,
          "internalType": "uint8",
          "name": "version",
          "type": "uint8"
        }
      ],
      "name": "Initialized",
      "type": "event"
    },
    {
      "anonymous": false,
      "inputs": [
        {
          "indexed": false,
          "internalType": "address",
          "name": "user",
          "type": "address"
        },
        {
          "components": [
            {
              "internalType": "uint32",
              "name": "endTime",
              "type": "uint32"
            },
            {
              "internalType": "uint32",
              "name": "rewardRate",
              "type": "uint32"
            },
            {
              "internalType": "uint32",
              "name": "energyCost",
              "type": "uint32"
            },
            {
              "internalType": "uint16",
              "name": "toolType",
              "type": "uint16"
            },
            {
              "internalType": "uint16",
              "name": "strengthCost",
              "type": "uint16"
            },
            {
              "internalType": "bool",
              "name": "started",
              "type": "bool"
            }
          ],
          "indexed": false,
          "internalType": "struct Mining.MiningSession",
          "name": "session",
          "type": "tuple"
        }
      ],
      "name": "MiningEnded",
      "type": "event"
    },
    {
      "anonymous": false,
      "inputs": [
        {
          "indexed": false,
          "internalType": "address",
          "name": "user",
          "type": "address"
        },
        {
          "components": [
            {
              "internalType": "uint32",
              "name": "endTime",
              "type": "uint32"
            },
            {
              "internalType": "uint32",
              "name": "rewardRate",
              "type": "uint32"
            },
            {
              "internalType": "uint32",
              "name": "energyCost",
              "type": "uint32"
            },
            {
              "internalType": "uint16",
              "name": "toolType",
              "type": "uint16"
            },
            {
              "internalType": "uint16",
              "name": "strengthCost",
              "type": "uint16"
            },
            {
              "internalType": "bool",
              "name": "started",
              "type": "bool"
            }
          ],
          "indexed": false,
          "internalType": "struct Mining.MiningSession",
          "name": "session",
          "type": "tuple"
        }
      ],
      "name": "MiningStarted",
      "type": "event"
    },
    {
      "anonymous": false,
      "inputs": [
        {
          "indexed": true,
          "internalType": "address",
          "name": "previousOwner",
          "type": "address"
        },
        {
          "indexed": true,
          "internalType": "address",
          "name": "newOwner",
          "type": "address"
        }
      ],
      "name": "OwnershipTransferred",
      "type": "event"
    },
    {
      "anonymous": false,
      "inputs": [
        {
          "indexed": false,
          "internalType": "address",
          "name": "account",
          "type": "address"
        }
      ],
      "name": "Paused",
      "type": "event"
    },
    {
      "anonymous": false,
      "inputs": [
        {
          "indexed": false,
          "internalType": "address",
          "name": "account",
          "type": "address"
        }
      ],
      "name": "Unpaused",
      "type": "event"
    },
    {
      "inputs": [
        {
          "internalType": "uint256",
          "name": "toolId",
          "type": "uint256"
        }
      ],
      "name": "endMining",
      "outputs": [],
      "stateMutability": "nonpayable",
      "type": "function"
    },
    {
      "inputs": [],
      "name": "getRewards",
      "outputs": [],
      "stateMutability": "nonpayable",
      "type": "function"
    },
    {
      "inputs": [
        {
          "internalType": "address",
          "name": "blacklistAddress",
          "type": "address"
        },
        {
          "internalType": "address",
          "name": "toolsAddress",
          "type": "address"
        }
      ],
      "name": "initialize",
      "outputs": [],
      "stateMutability": "nonpayable",
      "type": "function"
    },
    {
      "inputs": [
        {
          "internalType": "address",
          "name": "operator",
          "type": "address"
        },
        {
          "internalType": "address",
          "name": "from",
          "type": "address"
        },
        {
          "internalType": "uint256[]",
          "name": "ids",
          "type": "uint256[]"
        },
        {
          "internalType": "uint256[]",
          "name": "values",
          "type": "uint256[]"
        },
        {
          "internalType": "bytes",
          "name": "data",
          "type": "bytes"
        }
      ],
      "name": "onERC1155BatchReceived",
      "outputs": [
        {
          "internalType": "bytes4",
          "name": "",
          "type": "bytes4"
        }
      ],
      "stateMutability": "pure",
      "type": "function"
    },
    {
      "inputs": [
        {
          "internalType": "address",
          "name": "operator",
          "type": "address"
        },
        {
          "internalType": "address",
          "name": "from",
          "type": "address"
        },
        {
          "internalType": "uint256",
          "name": "id",
          "type": "uint256"
        },
        {
          "internalType": "uint256",
          "name": "value",
          "type": "uint256"
        },
        {
          "internalType": "bytes",
          "name": "data",
          "type": "bytes"
        }
      ],
      "name": "onERC1155Received",
      "outputs": [
        {
          "internalType": "bytes4",
          "name": "",
          "type": "bytes4"
        }
      ],
      "stateMutability": "pure",
      "type": "function"
    },
    {
      "inputs": [],
      "name": "owner",
      "outputs": [
        {
          "internalType": "address",
          "name": "",
          "type": "address"
        }
      ],
      "stateMutability": "view",
      "type": "function"
    },
    {
      "inputs": [],
      "name": "pause",
      "outputs": [],
      "stateMutability": "nonpayable",
      "type": "function"
    },
    {
      "inputs": [],
      "name": "paused",
      "outputs": [
        {
          "internalType": "bool",
          "name": "",
          "type": "bool"
        }
      ],
      "stateMutability": "view",
      "type": "function"
    },
    {
      "inputs": [],
      "name": "renounceOwnership",
      "outputs": [],
      "stateMutability": "nonpayable",
      "type": "function"
    },
    {
      "inputs": [
        {
          "internalType": "address",
          "name": "user",
          "type": "address"
        },
        {
          "internalType": "uint256[]",
          "name": "resourcesAmount",
          "type": "uint256[]"
        },
        {
          "internalType": "uint256[]",
          "name": "artifactsAmount",
          "type": "uint256[]"
        }
      ],
      "name": "setRewards",
      "outputs": [],
      "stateMutability": "nonpayable",
      "type": "function"
    },
    {
      "inputs": [
        {
          "internalType": "uint256",
          "name": "toolId",
          "type": "uint256"
        }
      ],
      "name": "startMining",
      "outputs": [],
      "stateMutability": "nonpayable",
      "type": "function"
    },
    {
      "inputs": [
        {
          "internalType": "bytes4",
          "name": "interfaceId",
          "type": "bytes4"
        }
      ],
      "name": "supportsInterface",
      "outputs": [
        {
          "internalType": "bool",
          "name": "",
          "type": "bool"
        }
      ],
      "stateMutability": "pure",
      "type": "function"
    },
    {
      "inputs": [
        {
          "internalType": "address",
          "name": "newOwner",
          "type": "address"
        }
      ],
      "name": "transferOwnership",
      "outputs": [],
      "stateMutability": "nonpayable",
      "type": "function"
    },
    {
      "inputs": [],
      "name": "unpause",
      "outputs": [],
      "stateMutability": "nonpayable",
      "type": "function"
    }
  ],
  "bytecode": "0x608060405234801561001057600080fd5b50611a3e806100206000396000f3fe608060405234801561001057600080fd5b50600436106100ea5760003560e01c806380b1317c1161008c578063a7148e8a11610066578063a7148e8a146101a9578063bc197c81146101bc578063f23a6e6114610210578063f2fde38b1461024957600080fd5b806380b1317c146101735780638456cb59146101865780638da5cb5b1461018e57600080fd5b806347b272c0116100c857806347b272c01461013a578063485cc9551461014d5780635c975abb14610160578063715018a61461016b57600080fd5b806301ffc9a7146100ef5780630572b0cc146101285780633f4ba83a14610132575b600080fd5b6101136100fd366004611455565b6001600160e01b0319166301ffc9a760e01b1490565b60405190151581526020015b60405180910390f35b61013061025c565b005b610130610603565b610130610148366004611486565b610615565b61013061015b3660046114b4565b610b3b565b60335460ff16610113565b610130610c85565b61013061018136600461159e565b610c97565b610130610d8b565b6065546040516001600160a01b03909116815260200161011f565b6101306101b7366004611486565b610d9b565b6101f76101ca3660046116a2565b7fbc197c819b3e337a6f9652dd10becd7eef83032af3b9d958d3d42f669414662198975050505050505050565b6040516001600160e01b0319909116815260200161011f565b6101f761021e366004611761565b7ff23a6e612e1ff4830e658fe43f4e3cb4a5f8170bd5d9e69fb5d7a7fa9e4fdf979695505050505050565b6101306102573660046117dd565b611151565b60008060005b609760009054906101000a90046001600160a01b03166001600160a01b031663e7fa2e6c6040518163ffffffff1660e01b8152600401602060405180830381865afa1580156102b5573d6000803e3d6000fd5b505050506040513d601f19601f820116820180604052508101906102d991906117fa565b81101561043a57336000908152609c6020908152604080832084845290915290205415610428576097546001600160a01b0316637ae1f13761031c836001611829565b6040518263ffffffff1660e01b815260040161033a91815260200190565b602060405180830381865afa158015610357573d6000803e3d6000fd5b505050506040513d601f19601f8201168201806040525081019061037b9190611841565b336000818152609c602090815260408083208684529091529081902054905163a9059cbb60e01b8152600481019290925260248201529093506001600160a01b0384169063a9059cbb906044016020604051808303816000875af11580156103e7573d6000803e3d6000fd5b505050506040513d601f19601f8201168201806040525081019061040b919061185e565b50336000908152609c602090815260408083208484529091528120555b8061043281611880565b915050610262565b5060005b609760009054906101000a90046001600160a01b03166001600160a01b031663111a5f846040518163ffffffff1660e01b8152600401602060405180830381865afa158015610491573d6000803e3d6000fd5b505050506040513d601f19601f820116820180604052508101906104b591906117fa565b8110156105fe57336000908152609d6020526040902054156105ec57609760009054906101000a90046001600160a01b03166001600160a01b031663ee100cd66040518163ffffffff1660e01b8152600401602060405180830381865afa158015610524573d6000803e3d6000fd5b505050506040513d601f19601f820116820180604052508101906105489190611841565b336000818152609d602052604090819020549051630ac2a30160e41b8152600481019290925260248201529092506001600160a01b0383169063ac2a301090604401600060405180830381600087803b1580156105a457600080fd5b505af11580156105b8573d6000803e3d6000fd5b50505050609d60006105c73390565b6001600160a01b03166001600160a01b03168152602001908152602001600020600090555b806105f681611880565b91505061043e565b505050565b61060b6111ca565b610613611224565b565b61061d611276565b33609854604051631846d2f560e31b81526001600160a01b0383811660048301529091169063c23697a8906024016020604051808303816000875af115801561066a573d6000803e3d6000fd5b505050506040513d601f19601f8201168201806040525081019061068e919061185e565b156106d45760405162461bcd60e51b8152602060048201526011602482015270155cd95c881a5b88189b1858dadb1a5cdd607a1b60448201526064015b60405180910390fd5b336000908152609b60209081526040808320858452909152902054600160801b900460ff161561075f5760405162461bcd60e51b815260206004820152603060248201527f4d696e696e673a2074686973207573657220616c72656164792073746172746560448201526f64206d696e696e672070726f6365737360801b60648201526084016106cb565b6097546000908190819081908190819081906001600160a01b0316633dfc8f21336040516001600160e01b031960e084901b1681526001600160a01b039091166004820152602481018c905260440160e060405180830381865afa1580156107cb573d6000803e3d6000fd5b505050506040513d601f19601f820116820180604052508101906107ef919061189b565b96509650965096509650965096506000858761080b91906118ef565b116108585760405162461bcd60e51b815260206004820152601c60248201527f4d696e696e673a206e6f7420656e6f7567746820737472656e6774680000000060448201526064016106cb565b609754604051637ae1f13760e01b8152600481018690526000916001600160a01b031690637ae1f13790602401602060405180830381865afa1580156108a2573d6000803e3d6000fd5b505050506040513d601f19601f820116820180604052508101906108c69190611841565b609754604051637921219560e11b81529192506001600160a01b03169063f242432a906108fe90339030908f90600190600401611906565b600060405180830381600087803b15801561091857600080fd5b505af115801561092c573d6000803e3d6000fd5b50505050806001600160a01b03166323b872dd6109463390565b6040516001600160e01b031960e084901b1681526001600160a01b039091166004820152306024820152604481018690526064016020604051808303816000875af1158015610999573d6000803e3d6000fd5b505050506040513d601f19601f820116820180604052508101906109bd919061185e565b506040518060c0016040528085426109d59190611829565b63ffffffff908116825284811660208301528516604082015261ffff8a8116606083015288166080820152600160a090910152609b6000336001600160a01b03168152602080820192909252604090810160009081208e825283528190208351815493850151928501516060860151608087015160a0909701511515600160801b0260ff60801b1961ffff988916600160701b021662ffffff60701b1998909216600160601b0261ffff60601b1963ffffffff948516600160401b02166dffffffffffff0000000000000000199785166401000000000267ffffffffffffffff1990991694909516939093179690961794909416919091171793909316171790557fef9dc126b80dd8fe8cd4bcd9f43925f5b05513790d8d70dd0c6268354350fee7610afe3390565b336000908152609b602090815260408083208f8452909152908190209051610b2792919061193e565b60405180910390a150505050505050505050565b600054610100900460ff1615808015610b5b5750600054600160ff909116105b80610b755750303b158015610b75575060005460ff166001145b610bd85760405162461bcd60e51b815260206004820152602e60248201527f496e697469616c697a61626c653a20636f6e747261637420697320616c72656160448201526d191e481a5b9a5d1a585b1a5e995960921b60648201526084016106cb565b6000805460ff191660011790558015610bfb576000805461ff0019166101001790555b609780546001600160a01b038085166001600160a01b0319928316179092556098805492861692909116919091179055610c336112bc565b610c3b6112eb565b80156105fe576000805461ff0019169055604051600181527f7f26b83ff96e1f2b6a682f133852f6798a09c465da95921460cefb38474024989060200160405180910390a1505050565b610c8d6111ca565b610613600061131a565b610c9f6111ca565b60005b8251811015610d2057828181518110610cbd57610cbd6119a7565b6020026020010151600014610d0e57828181518110610cde57610cde6119a7565b6020908102919091018101516001600160a01b0386166000908152609c8352604080822085835290935291909120555b80610d1881611880565b915050610ca2565b5060005b8151811015610d8557818181518110610d3f57610d3f6119a7565b6020026020010151600014610d7357610d59816001611829565b6001600160a01b0385166000908152609d60205260409020555b80610d7d81611880565b915050610d24565b50505050565b610d936111ca565b61061361136c565b610da3611276565b33609854604051631846d2f560e31b81526001600160a01b0383811660048301529091169063c23697a8906024016020604051808303816000875af1158015610df0573d6000803e3d6000fd5b505050506040513d601f19601f82011682018060405250810190610e14919061185e565b15610e555760405162461bcd60e51b8152602060048201526011602482015270155cd95c881a5b88189b1858dadb1a5cdd607a1b60448201526064016106cb565b336000908152609b60209081526040808320858452909152902054600160801b900460ff16610ec65760405162461bcd60e51b815260206004820152601960248201527f4d696e696e673a207573657220646f65736e2774206d696e650000000000000060448201526064016106cb565b336000908152609b6020908152604080832085845290915290205463ffffffff16421015610f2a5760405162461bcd60e51b81526020600482015260116024820152704d696e696e673a20746f6f206561726c7960781b60448201526064016106cb565b6097546001600160a01b031663f242432a30338560016040518563ffffffff1660e01b8152600401610f5f9493929190611906565b600060405180830381600087803b158015610f7957600080fd5b505af1158015610f8d573d6000803e3d6000fd5b505050506000609b6000610f9e3390565b6001600160a01b039081168252602080830193909352604091820160009081208782528452828120835160c081018552905463ffffffff80821683526401000000008204811696830196909652600160401b81049095169381019390935261ffff600160601b850481166060850152600160701b909404909316608083015260a08201929092526097549092501663e30d34a76110383390565b336000908152609b6020908152604080832089845290915280822054815160e086901b6001600160e01b03191681526001600160a01b0394909416600485015260248401899052600160701b900461ffff1660448401525160648084019382900301818387803b1580156110ab57600080fd5b505af11580156110bf573d6000803e3d6000fd5b505050507f0ebc69c267ad4de6eda13e8285b974cae22aa14dcd3663040d6f4c53bb0092c46110eb3390565b336000908152609b6020908152604080832088845290915290819020905161111492919061193e565b60405180910390a15050336000908152609b6020908152604080832093835292905220805470ffffffffffffffffffffffffffffffffff19169055565b6111596111ca565b6001600160a01b0381166111be5760405162461bcd60e51b815260206004820152602660248201527f4f776e61626c653a206e6577206f776e657220697320746865207a65726f206160448201526564647265737360d01b60648201526084016106cb565b6111c78161131a565b50565b6065546001600160a01b031633146106135760405162461bcd60e51b815260206004820181905260248201527f4f776e61626c653a2063616c6c6572206973206e6f7420746865206f776e657260448201526064016106cb565b61122c6113a9565b6033805460ff191690557f5db9ee0a495bf2e6ff9c91a7834c1ba4fdd244a5e8aa4e537bd38aeae4b073aa335b6040516001600160a01b03909116815260200160405180910390a1565b60335460ff16156106135760405162461bcd60e51b815260206004820152601060248201526f14185d5cd8589b194e881c185d5cd95960821b60448201526064016106cb565b600054610100900460ff166112e35760405162461bcd60e51b81526004016106cb906119bd565b6106136113f2565b600054610100900460ff166113125760405162461bcd60e51b81526004016106cb906119bd565b610613611425565b606580546001600160a01b038381166001600160a01b0319831681179093556040519116919082907f8be0079c531659141344cd1fd0a4f28419497f9722a3daafe3b4186f6b6457e090600090a35050565b611374611276565b6033805460ff191660011790557f62e78cea01bee320cd4e420270b5ea74000d11b0c9f74754ebdbfc544b05a2586112593390565b60335460ff166106135760405162461bcd60e51b815260206004820152601460248201527314185d5cd8589b194e881b9bdd081c185d5cd95960621b60448201526064016106cb565b600054610100900460ff166114195760405162461bcd60e51b81526004016106cb906119bd565b6033805460ff19169055565b600054610100900460ff1661144c5760405162461bcd60e51b81526004016106cb906119bd565b6106133361131a565b60006020828403121561146757600080fd5b81356001600160e01b03198116811461147f57600080fd5b9392505050565b60006020828403121561149857600080fd5b5035919050565b6001600160a01b03811681146111c757600080fd5b600080604083850312156114c757600080fd5b82356114d28161149f565b915060208301356114e28161149f565b809150509250929050565b634e487b7160e01b600052604160045260246000fd5b600082601f83011261151457600080fd5b8135602067ffffffffffffffff80831115611531576115316114ed565b8260051b604051601f19603f83011681018181108482111715611556576115566114ed565b60405293845285810183019383810192508785111561157457600080fd5b83870191505b848210156115935781358352918301919083019061157a565b979650505050505050565b6000806000606084860312156115b357600080fd5b83356115be8161149f565b9250602084013567ffffffffffffffff808211156115db57600080fd5b6115e787838801611503565b935060408601359150808211156115fd57600080fd5b5061160a86828701611503565b9150509250925092565b60008083601f84011261162657600080fd5b50813567ffffffffffffffff81111561163e57600080fd5b6020830191508360208260051b850101111561165957600080fd5b9250929050565b60008083601f84011261167257600080fd5b50813567ffffffffffffffff81111561168a57600080fd5b60208301915083602082850101111561165957600080fd5b60008060008060008060008060a0898b0312156116be57600080fd5b88356116c98161149f565b975060208901356116d98161149f565b9650604089013567ffffffffffffffff808211156116f657600080fd5b6117028c838d01611614565b909850965060608b013591508082111561171b57600080fd5b6117278c838d01611614565b909650945060808b013591508082111561174057600080fd5b5061174d8b828c01611660565b999c989b5096995094979396929594505050565b60008060008060008060a0878903121561177a57600080fd5b86356117858161149f565b955060208701356117958161149f565b94506040870135935060608701359250608087013567ffffffffffffffff8111156117bf57600080fd5b6117cb89828a01611660565b979a9699509497509295939492505050565b6000602082840312156117ef57600080fd5b813561147f8161149f565b60006020828403121561180c57600080fd5b5051919050565b634e487b7160e01b600052601160045260246000fd5b6000821982111561183c5761183c611813565b500190565b60006020828403121561185357600080fd5b815161147f8161149f565b60006020828403121561187057600080fd5b8151801515811461147f57600080fd5b600060001982141561189457611894611813565b5060010190565b600080600080600080600060e0888a0312156118b657600080fd5b5050855160208701516040880151606089015160808a015160a08b015160c0909b0151949c939b50919990985090965094509092509050565b60008282101561190157611901611813565b500390565b6001600160a01b0394851681529290931660208301526040820152606081019190915260a06080820181905260009082015260c00190565b600060e08201905060018060a01b0384168252825463ffffffff8082166020850152808260201c166040850152808260401c1660608501525061ffff808260601c166080850152808260701c1660a08501525060ff8160801c16151560c0840152509392505050565b634e487b7160e01b600052603260045260246000fd5b6020808252602b908201527f496e697469616c697a61626c653a20636f6e7472616374206973206e6f74206960408201526a6e697469616c697a696e6760a81b60608201526080019056fea26469706673582212207468d7f3b3ed8317e2f5aa6c70c7e3f23ac9ca96c71a86c8df0532fa281505d964736f6c634300080c0033",
  "linkReferences": {},
  "deployedLinkReferences": {}
}