{
  "_format": "hh-sol-artifact-1",
  "contractName": "BlackList",
  "sourceName": "contracts/BlackList.sol",
  "abi": [
    {
      "anonymous": false,
      "inputs": [
        {
          "indexed": true,
          "internalType": "address",
          "name": "previousOwner",
          "type": "address"
        },
        {
          "indexed": true,
          "internalType": "address",
          "name": "newOwner",
          "type": "address"
        }
      ],
      "name": "OwnershipTransferred",
      "type": "event"
    },
    {
      "inputs": [
        {
          "internalType": "address",
          "name": "user",
          "type": "address"
        }
      ],
      "name": "addToBlacklist",
      "outputs": [],
      "stateMutability": "nonpayable",
      "type": "function"
    },
    {
      "inputs": [
        {
          "internalType": "address",
          "name": "user",
          "type": "address"
        }
      ],
      "name": "check",
      "outputs": [
        {
          "internalType": "bool",
          "name": "",
          "type": "bool"
        }
      ],
      "stateMutability": "view",
      "type": "function"
    },
    {
      "inputs": [],
      "name": "owner",
      "outputs": [
        {
          "internalType": "address",
          "name": "",
          "type": "address"
        }
      ],
      "stateMutability": "view",
      "type": "function"
    },
    {
      "inputs": [
        {
          "internalType": "address",
          "name": "user",
          "type": "address"
        }
      ],
      "name": "removeFromBlacklist",
      "outputs": [],
      "stateMutability": "nonpayable",
      "type": "function"
    },
    {
      "inputs": [],
      "name": "renounceOwnership",
      "outputs": [],
      "stateMutability": "nonpayable",
      "type": "function"
    },
    {
      "inputs": [
        {
          "internalType": "address",
          "name": "newOwner",
          "type": "address"
        }
      ],
      "name": "transferOwnership",
      "outputs": [],
      "stateMutability": "nonpayable",
      "type": "function"
    }
  ],
  "bytecode": "0x608060405234801561001057600080fd5b5061002d61002261003260201b60201c565b61003a60201b60201c565b6100fe565b600033905090565b60008060009054906101000a900473ffffffffffffffffffffffffffffffffffffffff169050816000806101000a81548173ffffffffffffffffffffffffffffffffffffffff021916908373ffffffffffffffffffffffffffffffffffffffff1602179055508173ffffffffffffffffffffffffffffffffffffffff168173ffffffffffffffffffffffffffffffffffffffff167f8be0079c531659141344cd1fd0a4f28419497f9722a3daafe3b4186f6b6457e060405160405180910390a35050565b610b6b8061010d6000396000f3fe608060405234801561001057600080fd5b50600436106100725760003560e01c80638da5cb5b116100505780638da5cb5b146100b9578063c23697a8146100d7578063f2fde38b1461010757610072565b806344337ea114610077578063537df3b614610093578063715018a6146100af575b600080fd5b610091600480360381019061008c91906108c1565b610123565b005b6100ad60048036038101906100a891906108c1565b61034c565b005b6100b7610576565b005b6100c161058a565b6040516100ce91906108fd565b60405180910390f35b6100f160048036038101906100ec91906108c1565b6105b3565b6040516100fe9190610933565b60405180910390f35b610121600480360381019061011c91906108c1565b61068d565b005b61012b610711565b6101577fc2e39ef988c07f8216421ea4a5bcfbae0df36b920799a1a54e1f441c4a3044f660001b61078f565b6101837fd323a705765f296bf90b431557027e4bb7af01fb4449f3199bc4b6aa77d9319b60001b61078f565b6101af7fee8155b596be98018720c7cb1ee66b7ce26c95b33f19425baf6abb65f307320060001b61078f565b6101db7fbf8cb26f282ff11341f9e350b0797016e977700b6d9cbdca795a2020e1cb327d60001b61078f565b60001515600160008373ffffffffffffffffffffffffffffffffffffffff1673ffffffffffffffffffffffffffffffffffffffff16815260200190815260200160002060009054906101000a900460ff1615151461026e576040517f08c379a0000000000000000000000000000000000000000000000000000000008152600401610265906109ab565b60405180910390fd5b61029a7fad51415c5e43ab29afcc7fea787dcee55000f694a3f4c7db457da2e0adf3f28d60001b61078f565b6102c67fdf685c98d6049de2050dcd765c94367839cf1fcad453f46e030294a959f64c6660001b61078f565b6102f27f29071e5a8ee2f0933fc18d50334c3c966610f1d208035f86cee0583da8baca8d60001b61078f565b60018060008373ffffffffffffffffffffffffffffffffffffffff1673ffffffffffffffffffffffffffffffffffffffff16815260200190815260200160002060006101000a81548160ff02191690831515021790555050565b610354610711565b6103807f531f8fabef49294d5deea8e90b7909cd16c8285b68ecc963257848dc771b0ba260001b61078f565b6103ac7fbb983d640d0c309c44db9b6f4ccbb1406ff23febe0c6f8aa63d3a85216e58b7760001b61078f565b6103d87f94cab0366f841b4fce5b1af8b8ad231760b0ab8256fcef0f795a058ca99c509860001b61078f565b6104047fac681f91cec56af61d26577a64949188b5e5695732c1e12d6d52559a30e45a2560001b61078f565b60011515600160008373ffffffffffffffffffffffffffffffffffffffff1673ffffffffffffffffffffffffffffffffffffffff16815260200190815260200160002060009054906101000a900460ff16151514610497576040517f08c379a000000000000000000000000000000000000000000000000000000000815260040161048e90610a17565b60405180910390fd5b6104c37f4721fbba78a9c5f0b9bf9b34365ba5a0083d338e43fde21f8b53931a7c4b5fc360001b61078f565b6104ef7f49c260f479d9b1aa39a041abd64e76a1743df11f0ed105ba9d5cb97c82ce235560001b61078f565b61051b7fa46b6c911080d7a52990b2e1acc09da572b69f8ac1b27976a089b14627728a0b60001b61078f565b6000600160008373ffffffffffffffffffffffffffffffffffffffff1673ffffffffffffffffffffffffffffffffffffffff16815260200190815260200160002060006101000a81548160ff02191690831515021790555050565b61057e610711565b6105886000610792565b565b60008060009054906101000a900473ffffffffffffffffffffffffffffffffffffffff16905090565b60006105e17ff77ae57a4c215a928ed343cf1fe6004ee7b1fca597abb8386fe9c1c5375c2e6060001b61078f565b61060d7f2eea48b25eeb6877f57f926396d2beac9155b60f7d3349ae2047acd37aad881d60001b61078f565b6106397ff247f16ad532a58ac7b021352ae1b77c3f98d05643f73908241887afd5f4ce9360001b61078f565b600160008373ffffffffffffffffffffffffffffffffffffffff1673ffffffffffffffffffffffffffffffffffffffff16815260200190815260200160002060009054906101000a900460ff169050919050565b610695610711565b600073ffffffffffffffffffffffffffffffffffffffff168173ffffffffffffffffffffffffffffffffffffffff161415610705576040517f08c379a00000000000000000000000000000000000000000000000000000000081526004016106fc90610aa9565b60405180910390fd5b61070e81610792565b50565b610719610856565b73ffffffffffffffffffffffffffffffffffffffff1661073761058a565b73ffffffffffffffffffffffffffffffffffffffff161461078d576040517f08c379a000000000000000000000000000000000000000000000000000000000815260040161078490610b15565b60405180910390fd5b565b50565b60008060009054906101000a900473ffffffffffffffffffffffffffffffffffffffff169050816000806101000a81548173ffffffffffffffffffffffffffffffffffffffff021916908373ffffffffffffffffffffffffffffffffffffffff1602179055508173ffffffffffffffffffffffffffffffffffffffff168173ffffffffffffffffffffffffffffffffffffffff167f8be0079c531659141344cd1fd0a4f28419497f9722a3daafe3b4186f6b6457e060405160405180910390a35050565b600033905090565b600080fd5b600073ffffffffffffffffffffffffffffffffffffffff82169050919050565b600061088e82610863565b9050919050565b61089e81610883565b81146108a957600080fd5b50565b6000813590506108bb81610895565b92915050565b6000602082840312156108d7576108d661085e565b5b60006108e5848285016108ac565b91505092915050565b6108f781610883565b82525050565b600060208201905061091260008301846108ee565b92915050565b60008115159050919050565b61092d81610918565b82525050565b60006020820190506109486000830184610924565b92915050565b600082825260208201905092915050565b7f5573657220616c726561647920696e20626c61636b6c69737400000000000000600082015250565b600061099560198361094e565b91506109a08261095f565b602082019050919050565b600060208201905081810360008301526109c481610988565b9050919050565b7f55736572206973206e6f7420696e20626c61636b6c6973740000000000000000600082015250565b6000610a0160188361094e565b9150610a0c826109cb565b602082019050919050565b60006020820190508181036000830152610a30816109f4565b9050919050565b7f4f776e61626c653a206e6577206f776e657220697320746865207a65726f206160008201527f6464726573730000000000000000000000000000000000000000000000000000602082015250565b6000610a9360268361094e565b9150610a9e82610a37565b604082019050919050565b60006020820190508181036000830152610ac281610a86565b9050919050565b7f4f776e61626c653a2063616c6c6572206973206e6f7420746865206f776e6572600082015250565b6000610aff60208361094e565b9150610b0a82610ac9565b602082019050919050565b60006020820190508181036000830152610b2e81610af2565b905091905056fea2646970667358221220a639653616d06a6e4d1465a24d954bf6562bbd5d7964e44d326e76c7e40cffc964736f6c634300080c0033",
  "linkReferences": {},
  "deployedLinkReferences": {}
}