{
  "_format": "hh-sol-artifact-1",
  "contractName": "BlackList",
  "sourceName": "contracts/BlackList.sol",
  "abi": [
    {
      "anonymous": false,
      "inputs": [
        {
          "indexed": true,
          "internalType": "address",
          "name": "previousOwner",
          "type": "address"
        },
        {
          "indexed": true,
          "internalType": "address",
          "name": "newOwner",
          "type": "address"
        }
      ],
      "name": "OwnershipTransferred",
      "type": "event"
    },
    {
      "inputs": [
        {
          "internalType": "address",
          "name": "user",
          "type": "address"
        }
      ],
      "name": "addToBlacklist",
      "outputs": [],
      "stateMutability": "nonpayable",
      "type": "function"
    },
    {
      "inputs": [
        {
          "internalType": "address",
          "name": "user",
          "type": "address"
        }
      ],
      "name": "check",
      "outputs": [
        {
          "internalType": "bool",
          "name": "",
          "type": "bool"
        }
      ],
      "stateMutability": "view",
      "type": "function"
    },
    {
      "inputs": [],
      "name": "owner",
      "outputs": [
        {
          "internalType": "address",
          "name": "",
          "type": "address"
        }
      ],
      "stateMutability": "view",
      "type": "function"
    },
    {
      "inputs": [
        {
          "internalType": "address",
          "name": "user",
          "type": "address"
        }
      ],
      "name": "removeFromBlacklist",
      "outputs": [],
      "stateMutability": "nonpayable",
      "type": "function"
    },
    {
      "inputs": [],
      "name": "renounceOwnership",
      "outputs": [],
      "stateMutability": "nonpayable",
      "type": "function"
    },
    {
      "inputs": [
        {
          "internalType": "address",
          "name": "newOwner",
          "type": "address"
        }
      ],
      "name": "transferOwnership",
      "outputs": [],
      "stateMutability": "nonpayable",
      "type": "function"
    }
  ],
  "bytecode": "0x608060405234801561001057600080fd5b5061001a3361001f565b61006f565b600080546001600160a01b038381166001600160a01b0319831681178455604051919092169283917f8be0079c531659141344cd1fd0a4f28419497f9722a3daafe3b4186f6b6457e09190a35050565b6103d78061007e6000396000f3fe608060405234801561001057600080fd5b50600436106100625760003560e01c806344337ea114610067578063537df3b61461007c578063715018a61461008f5780638da5cb5b14610097578063c23697a8146100b7578063f2fde38b146100f3575b600080fd5b61007a610075366004610371565b610106565b005b61007a61008a366004610371565b6101a3565b61007a61023a565b6000546040516001600160a01b0390911681526020015b60405180910390f35b6100e36100c5366004610371565b6001600160a01b031660009081526001602052604090205460ff1690565b60405190151581526020016100ae565b61007a610101366004610371565b61024e565b61010e6102c7565b6001600160a01b03811660009081526001602052604090205460ff161561017c5760405162461bcd60e51b815260206004820152601960248201527f5573657220616c726561647920696e20626c61636b6c6973740000000000000060448201526064015b60405180910390fd5b6001600160a01b03166000908152600160208190526040909120805460ff19169091179055565b6101ab6102c7565b6001600160a01b03811660009081526001602081905260409091205460ff161515146102195760405162461bcd60e51b815260206004820152601860248201527f55736572206973206e6f7420696e20626c61636b6c69737400000000000000006044820152606401610173565b6001600160a01b03166000908152600160205260409020805460ff19169055565b6102426102c7565b61024c6000610321565b565b6102566102c7565b6001600160a01b0381166102bb5760405162461bcd60e51b815260206004820152602660248201527f4f776e61626c653a206e6577206f776e657220697320746865207a65726f206160448201526564647265737360d01b6064820152608401610173565b6102c481610321565b50565b6000546001600160a01b0316331461024c5760405162461bcd60e51b815260206004820181905260248201527f4f776e61626c653a2063616c6c6572206973206e6f7420746865206f776e65726044820152606401610173565b600080546001600160a01b038381166001600160a01b0319831681178455604051919092169283917f8be0079c531659141344cd1fd0a4f28419497f9722a3daafe3b4186f6b6457e09190a35050565b60006020828403121561038357600080fd5b81356001600160a01b038116811461039a57600080fd5b939250505056fea2646970667358221220b3d650cee9b063fe6bd197f8d876ce8c12d4bff270fac2af72f2c01a72d8463964736f6c634300080c0033",
  "linkReferences": {},
  "deployedLinkReferences": {}
}