{
  "_format": "hh-sol-artifact-1",
  "contractName": "PocMon",
  "sourceName": "contracts/others/Resources.sol",
  "abi": [
    {
      "inputs": [
        {
          "internalType": "address",
          "name": "router",
          "type": "address"
        },
        {
          "internalType": "address",
          "name": "compensationToken_",
          "type": "address"
        },
        {
          "internalType": "address",
          "name": "devAddress",
          "type": "address"
        },
        {
          "internalType": "address",
          "name": "owner_",
          "type": "address"
        }
      ],
      "stateMutability": "nonpayable",
      "type": "constructor"
    },
    {
      "anonymous": false,
      "inputs": [
        {
          "indexed": true,
          "internalType": "address",
          "name": "owner",
          "type": "address"
        },
        {
          "indexed": true,
          "internalType": "address",
          "name": "spender",
          "type": "address"
        },
        {
          "indexed": false,
          "internalType": "uint256",
          "name": "value",
          "type": "uint256"
        }
      ],
      "name": "Approval",
      "type": "event"
    },
    {
      "anonymous": false,
      "inputs": [
        {
          "indexed": false,
          "internalType": "address",
          "name": "to",
          "type": "address"
        },
        {
          "indexed": false,
          "internalType": "uint256",
          "name": "bnbSent",
          "type": "uint256"
        }
      ],
      "name": "GemFeeSent",
      "type": "event"
    },
    {
      "anonymous": false,
      "inputs": [
        {
          "indexed": false,
          "internalType": "uint256",
          "name": "minTokensBeforeSwap",
          "type": "uint256"
        }
      ],
      "name": "MinTokensBeforeSwapUpdated",
      "type": "event"
    },
    {
      "anonymous": false,
      "inputs": [
        {
          "indexed": true,
          "internalType": "address",
          "name": "previousOwner",
          "type": "address"
        },
        {
          "indexed": true,
          "internalType": "address",
          "name": "newOwner",
          "type": "address"
        }
      ],
      "name": "OwnershipTransferred",
      "type": "event"
    },
    {
      "anonymous": false,
      "inputs": [
        {
          "indexed": false,
          "internalType": "uint256",
          "name": "tokensSwapped",
          "type": "uint256"
        },
        {
          "indexed": false,
          "internalType": "uint256",
          "name": "ethReceived",
          "type": "uint256"
        },
        {
          "indexed": false,
          "internalType": "uint256",
          "name": "tokensIntoLiqudity",
          "type": "uint256"
        }
      ],
      "name": "SwapAndLiquify",
      "type": "event"
    },
    {
      "anonymous": false,
      "inputs": [
        {
          "indexed": false,
          "internalType": "bool",
          "name": "enabled",
          "type": "bool"
        }
      ],
      "name": "SwapAndLiquifyEnabledUpdated",
      "type": "event"
    },
    {
      "anonymous": false,
      "inputs": [
        {
          "indexed": true,
          "internalType": "address",
          "name": "from",
          "type": "address"
        },
        {
          "indexed": true,
          "internalType": "address",
          "name": "to",
          "type": "address"
        },
        {
          "indexed": false,
          "internalType": "uint256",
          "name": "value",
          "type": "uint256"
        }
      ],
      "name": "Transfer",
      "type": "event"
    },
    {
      "inputs": [],
      "name": "_gemFee",
      "outputs": [
        {
          "internalType": "uint256",
          "name": "",
          "type": "uint256"
        }
      ],
      "stateMutability": "view",
      "type": "function"
    },
    {
      "inputs": [],
      "name": "_gemWalletAddress",
      "outputs": [
        {
          "internalType": "address",
          "name": "",
          "type": "address"
        }
      ],
      "stateMutability": "view",
      "type": "function"
    },
    {
      "inputs": [],
      "name": "_liquidityFee",
      "outputs": [
        {
          "internalType": "uint256",
          "name": "",
          "type": "uint256"
        }
      ],
      "stateMutability": "view",
      "type": "function"
    },
    {
      "inputs": [],
      "name": "_maxTxAmount",
      "outputs": [
        {
          "internalType": "uint256",
          "name": "",
          "type": "uint256"
        }
      ],
      "stateMutability": "view",
      "type": "function"
    },
    {
      "inputs": [],
      "name": "_reflectionFee",
      "outputs": [
        {
          "internalType": "uint256",
          "name": "",
          "type": "uint256"
        }
      ],
      "stateMutability": "view",
      "type": "function"
    },
    {
      "inputs": [
        {
          "internalType": "address",
          "name": "owner",
          "type": "address"
        },
        {
          "internalType": "address",
          "name": "spender",
          "type": "address"
        }
      ],
      "name": "allowance",
      "outputs": [
        {
          "internalType": "uint256",
          "name": "",
          "type": "uint256"
        }
      ],
      "stateMutability": "view",
      "type": "function"
    },
    {
      "inputs": [
        {
          "internalType": "address",
          "name": "spender",
          "type": "address"
        },
        {
          "internalType": "uint256",
          "name": "amount",
          "type": "uint256"
        }
      ],
      "name": "approve",
      "outputs": [
        {
          "internalType": "bool",
          "name": "",
          "type": "bool"
        }
      ],
      "stateMutability": "nonpayable",
      "type": "function"
    },
    {
      "inputs": [
        {
          "internalType": "address",
          "name": "account",
          "type": "address"
        }
      ],
      "name": "balanceOf",
      "outputs": [
        {
          "internalType": "uint256",
          "name": "",
          "type": "uint256"
        }
      ],
      "stateMutability": "view",
      "type": "function"
    },
    {
      "inputs": [],
      "name": "compensationToken",
      "outputs": [
        {
          "internalType": "contract IGEM",
          "name": "",
          "type": "address"
        }
      ],
      "stateMutability": "view",
      "type": "function"
    },
    {
      "inputs": [],
      "name": "decimals",
      "outputs": [
        {
          "internalType": "uint256",
          "name": "",
          "type": "uint256"
        }
      ],
      "stateMutability": "view",
      "type": "function"
    },
    {
      "inputs": [
        {
          "internalType": "address",
          "name": "spender",
          "type": "address"
        },
        {
          "internalType": "uint256",
          "name": "subtractedValue",
          "type": "uint256"
        }
      ],
      "name": "decreaseAllowance",
      "outputs": [
        {
          "internalType": "bool",
          "name": "",
          "type": "bool"
        }
      ],
      "stateMutability": "nonpayable",
      "type": "function"
    },
    {
      "inputs": [
        {
          "internalType": "address",
          "name": "account",
          "type": "address"
        }
      ],
      "name": "excludeFromFee",
      "outputs": [],
      "stateMutability": "nonpayable",
      "type": "function"
    },
    {
      "inputs": [
        {
          "internalType": "address",
          "name": "account",
          "type": "address"
        }
      ],
      "name": "excludeFromReward",
      "outputs": [],
      "stateMutability": "nonpayable",
      "type": "function"
    },
    {
      "inputs": [],
      "name": "gemFee",
      "outputs": [
        {
          "internalType": "uint256",
          "name": "",
          "type": "uint256"
        }
      ],
      "stateMutability": "view",
      "type": "function"
    },
    {
      "inputs": [],
      "name": "gemWallet",
      "outputs": [
        {
          "internalType": "address",
          "name": "",
          "type": "address"
        }
      ],
      "stateMutability": "view",
      "type": "function"
    },
    {
      "inputs": [
        {
          "internalType": "address",
          "name": "account",
          "type": "address"
        }
      ],
      "name": "includeInFee",
      "outputs": [],
      "stateMutability": "nonpayable",
      "type": "function"
    },
    {
      "inputs": [
        {
          "internalType": "address",
          "name": "account",
          "type": "address"
        }
      ],
      "name": "includeInReward",
      "outputs": [],
      "stateMutability": "nonpayable",
      "type": "function"
    },
    {
      "inputs": [
        {
          "internalType": "address",
          "name": "spender",
          "type": "address"
        },
        {
          "internalType": "uint256",
          "name": "addedValue",
          "type": "uint256"
        }
      ],
      "name": "increaseAllowance",
      "outputs": [
        {
          "internalType": "bool",
          "name": "",
          "type": "bool"
        }
      ],
      "stateMutability": "nonpayable",
      "type": "function"
    },
    {
      "inputs": [
        {
          "internalType": "address",
          "name": "account",
          "type": "address"
        }
      ],
      "name": "isExcludedFromFee",
      "outputs": [
        {
          "internalType": "bool",
          "name": "",
          "type": "bool"
        }
      ],
      "stateMutability": "view",
      "type": "function"
    },
    {
      "inputs": [
        {
          "internalType": "address",
          "name": "account",
          "type": "address"
        }
      ],
      "name": "isExcludedFromReward",
      "outputs": [
        {
          "internalType": "bool",
          "name": "",
          "type": "bool"
        }
      ],
      "stateMutability": "view",
      "type": "function"
    },
    {
      "inputs": [],
      "name": "liquidityFee",
      "outputs": [
        {
          "internalType": "uint256",
          "name": "",
          "type": "uint256"
        }
      ],
      "stateMutability": "view",
      "type": "function"
    },
    {
      "inputs": [],
      "name": "name",
      "outputs": [
        {
          "internalType": "string",
          "name": "",
          "type": "string"
        }
      ],
      "stateMutability": "view",
      "type": "function"
    },
    {
      "inputs": [],
      "name": "numTokensSellToAddToLiquidity",
      "outputs": [
        {
          "internalType": "uint256",
          "name": "",
          "type": "uint256"
        }
      ],
      "stateMutability": "view",
      "type": "function"
    },
    {
      "inputs": [],
      "name": "owner",
      "outputs": [
        {
          "internalType": "address",
          "name": "",
          "type": "address"
        }
      ],
      "stateMutability": "view",
      "type": "function"
    },
    {
      "inputs": [],
      "name": "reflectionFee",
      "outputs": [
        {
          "internalType": "uint256",
          "name": "",
          "type": "uint256"
        }
      ],
      "stateMutability": "view",
      "type": "function"
    },
    {
      "inputs": [
        {
          "internalType": "uint256",
          "name": "tAmount",
          "type": "uint256"
        },
        {
          "internalType": "bool",
          "name": "deductTransferFee",
          "type": "bool"
        }
      ],
      "name": "reflectionFromToken",
      "outputs": [
        {
          "internalType": "uint256",
          "name": "",
          "type": "uint256"
        }
      ],
      "stateMutability": "view",
      "type": "function"
    },
    {
      "inputs": [],
      "name": "renounceOwnership",
      "outputs": [],
      "stateMutability": "nonpayable",
      "type": "function"
    },
    {
      "inputs": [
        {
          "internalType": "uint256",
          "name": "gemFee_",
          "type": "uint256"
        }
      ],
      "name": "setGemFeePercent",
      "outputs": [],
      "stateMutability": "nonpayable",
      "type": "function"
    },
    {
      "inputs": [
        {
          "internalType": "address payable",
          "name": "gemWalletAddress",
          "type": "address"
        }
      ],
      "name": "setGemWallet",
      "outputs": [],
      "stateMutability": "nonpayable",
      "type": "function"
    },
    {
      "inputs": [
        {
          "internalType": "uint256",
          "name": "liquidityFee_",
          "type": "uint256"
        }
      ],
      "name": "setLiquidityFeePercent",
      "outputs": [],
      "stateMutability": "nonpayable",
      "type": "function"
    },
    {
      "inputs": [
        {
          "internalType": "uint256",
          "name": "maxTxAmount",
          "type": "uint256"
        }
      ],
      "name": "setMaxTxAmount",
      "outputs": [],
      "stateMutability": "nonpayable",
      "type": "function"
    },
    {
      "inputs": [
        {
          "internalType": "uint256",
          "name": "amountToUpdate",
          "type": "uint256"
        }
      ],
      "name": "setNumTokensSellToAddToLiquidity",
      "outputs": [],
      "stateMutability": "nonpayable",
      "type": "function"
    },
    {
      "inputs": [
        {
          "internalType": "uint256",
          "name": "reflectionFee_",
          "type": "uint256"
        }
      ],
      "name": "setReflectionFeePercent",
      "outputs": [],
      "stateMutability": "nonpayable",
      "type": "function"
    },
    {
      "inputs": [
        {
          "internalType": "address",
          "name": "newRouter",
          "type": "address"
        }
      ],
      "name": "setRouterAddress",
      "outputs": [],
      "stateMutability": "nonpayable",
      "type": "function"
    },
    {
      "inputs": [
        {
          "internalType": "bool",
          "name": "_enabled",
          "type": "bool"
        }
      ],
      "name": "setSwapAndLiquifyEnabled",
      "outputs": [],
      "stateMutability": "nonpayable",
      "type": "function"
    },
    {
      "inputs": [],
      "name": "swapAndLiquifyEnabled",
      "outputs": [
        {
          "internalType": "bool",
          "name": "",
          "type": "bool"
        }
      ],
      "stateMutability": "view",
      "type": "function"
    },
    {
      "inputs": [],
      "name": "symbol",
      "outputs": [
        {
          "internalType": "string",
          "name": "",
          "type": "string"
        }
      ],
      "stateMutability": "view",
      "type": "function"
    },
    {
      "inputs": [
        {
          "internalType": "uint256",
          "name": "rAmount",
          "type": "uint256"
        }
      ],
      "name": "tokenFromReflection",
      "outputs": [
        {
          "internalType": "uint256",
          "name": "",
          "type": "uint256"
        }
      ],
      "stateMutability": "view",
      "type": "function"
    },
    {
      "inputs": [],
      "name": "totalSupply",
      "outputs": [
        {
          "internalType": "uint256",
          "name": "",
          "type": "uint256"
        }
      ],
      "stateMutability": "view",
      "type": "function"
    },
    {
      "inputs": [
        {
          "internalType": "address",
          "name": "recipient",
          "type": "address"
        },
        {
          "internalType": "uint256",
          "name": "amount",
          "type": "uint256"
        }
      ],
      "name": "transfer",
      "outputs": [
        {
          "internalType": "bool",
          "name": "",
          "type": "bool"
        }
      ],
      "stateMutability": "nonpayable",
      "type": "function"
    },
    {
      "inputs": [
        {
          "internalType": "address",
          "name": "sender",
          "type": "address"
        },
        {
          "internalType": "address",
          "name": "recipient",
          "type": "address"
        },
        {
          "internalType": "uint256",
          "name": "amount",
          "type": "uint256"
        }
      ],
      "name": "transferFrom",
      "outputs": [
        {
          "internalType": "bool",
          "name": "",
          "type": "bool"
        }
      ],
      "stateMutability": "nonpayable",
      "type": "function"
    },
    {
      "inputs": [
        {
          "internalType": "address",
          "name": "newOwner",
          "type": "address"
        }
      ],
      "name": "transferOwnership",
      "outputs": [],
      "stateMutability": "nonpayable",
      "type": "function"
    },
    {
      "inputs": [],
      "name": "uniswapV2Pair",
      "outputs": [
        {
          "internalType": "address",
          "name": "",
          "type": "address"
        }
      ],
      "stateMutability": "view",
      "type": "function"
    },
    {
      "inputs": [],
      "name": "uniswapV2Router",
      "outputs": [
        {
          "internalType": "contract IUniswapV2Router02",
          "name": "",
          "type": "address"
        }
      ],
      "stateMutability": "view",
      "type": "function"
    },
    {
      "stateMutability": "payable",
      "type": "receive"
    }
  ],
  "bytecode": "0x60806040526001600e556006601055600360125560016015806101000a81548160ff0219169083151502179055503480156200003a57600080fd5b506040516200c4363803806200c4368339818101604052810190620000609190620010b5565b620000806200007462000d7b60201b60201c565b62000d8360201b60201c565b620000b47fee85355a2d5f33569db5473cfc38fde29df8c002cc66a2730b5feb98e612ebf360001b62000e4760201b60201c565b620000e87f9a867df4d517c4a9d81af33e0d7320937b768320c2c2767dc3fe40ba70b7cd3060001b62000e4760201b60201c565b6200011c7f3e8ae1680cfd04f3173ba7a185c24e04fefa2174c80b38e12b2287af995e036f60001b62000e4760201b60201c565b6040518060400160405280600681526020017f506f634d6f6e0000000000000000000000000000000000000000000000000000815250600b90805190602001906200016992919062000f9b565b506200019e7fb1abd48036479df1d882df83c4ed6be37690e8c36233d97e32ee25452e1a88df60001b62000e4760201b60201c565b620001d27f84f5dc313219372652bacb7ab2e24590f4d3b531d893078d58620b25d77e147660001b62000e4760201b60201c565b6040518060400160405280600381526020017f4d4f4e0000000000000000000000000000000000000000000000000000000000815250600c90805190602001906200021f92919062000f9b565b50620002547ff562ce131ee7a2ca63105842bf1b201856def62b8882df992aef4e9d80fbd72660001b62000e4760201b60201c565b620002887f8b6e45b030c7c3ce4929284b7f1f4b4635547fbe601360397a2ca08eb8d72b2d60001b62000e4760201b60201c565b6009600d81905550620002c47f661dbb35113240831a709fc30e40e8de5ecc0edf4fde06950d7ba47f02f3153860001b62000e4760201b60201c565b620002f87fc736df699a5098df785d8232a5f83463e52f50a4157fbc0d6d30350bc6e4e13160001b62000e4760201b60201c565b670429d069189e00006008819055506200033b7f6db436fa3560d0186b78b1089b7e0abdf31ff4ec687993faa534f6e219df80da60001b62000e4760201b60201c565b6200036f7fc7add85e05f93bdbcbfac4913d821129658e4b0237a537b02c124bd1082bf2bd60001b62000e4760201b60201c565b60085460001962000381919062001160565b600019620003909190620011c7565b600981905550620003ca7f0715d4e5b4e137107183db93faeee876363c2de125bf4cb9ecb3acb6294bdcdc60001b62000e4760201b60201c565b620003fe7f66580cea3045e98efe15964e714c2e27ed0878dd247a9883ceb21eeb4360442c60001b62000e4760201b60201c565b662386f26fc10000601681905550620004407f083da267b502358ab27ec0583ecf780d90832d40f153ba1a5a3244a74184585060001b62000e4760201b60201c565b620004747f68a4d0298a63afe6bc93d3b45a705421772e2ad7124b6c75bfc8ca04cc221bb860001b62000e4760201b60201c565b6605543df729c000601781905550620004b67f6ea2ddad7475684cffb987206b846c3a4f3f63688822b96dedb6b49f4b96f63360001b62000e4760201b60201c565b620004ea7f3ca04c50f04a9b955c88fc286b70ed76dcba2c5f0962d1a76a17d7818c5f55cf60001b62000e4760201b60201c565b81600760006101000a81548173ffffffffffffffffffffffffffffffffffffffff021916908373ffffffffffffffffffffffffffffffffffffffff1602179055506200055f7f095448415687707098718304b2b38ff1eb728c5a210493335c5c9ad75fe7eed860001b62000e4760201b60201c565b620005937f5d7e01397e5b7fff514c453f7d7f916f556126e5f46d66e1da54f1b299876d4760001b62000e4760201b60201c565b6000849050620005cc7fc20bc92133589c63d1ba9db1e2bfa88f5f9e45f78436a98fa4b2178bce12017160001b62000e4760201b60201c565b620006007f2650d694355acfa4ce1d1b356ae43c5ef87520d78e393d6f578acd9b25fcb4d660001b62000e4760201b60201c565b8073ffffffffffffffffffffffffffffffffffffffff1663c45a01556040518163ffffffff1660e01b8152600401602060405180830381865afa1580156200064c573d6000803e3d6000fd5b505050506040513d601f19601f8201168201806040525081019062000672919062001202565b73ffffffffffffffffffffffffffffffffffffffff1663c9c65396308373ffffffffffffffffffffffffffffffffffffffff1663ad5c46486040518163ffffffff1660e01b8152600401602060405180830381865afa158015620006da573d6000803e3d6000fd5b505050506040513d601f19601f8201168201806040525081019062000700919062001202565b6040518363ffffffff1660e01b81526004016200071f92919062001245565b6020604051808303816000875af11580156200073f573d6000803e3d6000fd5b505050506040513d601f19601f8201168201806040525081019062000765919062001202565b601560006101000a81548173ffffffffffffffffffffffffffffffffffffffff021916908373ffffffffffffffffffffffffffffffffffffffff160217905550620007d97f50cda8acd6161b73419100c697c989b454ce3c2b0c07e47a40970e56b0c796d460001b62000e4760201b60201c565b6200080d7f9b29b816c91b458284b620b893ff155ccd1f7b0b2d0d1a92ed42e9299debc7e460001b62000e4760201b60201c565b80601460006101000a81548173ffffffffffffffffffffffffffffffffffffffff021916908373ffffffffffffffffffffffffffffffffffffffff160217905550620008827fb1cb67d077be5b30bb9ff9f7a27041aeda87197323b2c8da03e7ca3736ccdcfe60001b62000e4760201b60201c565b620008b67faf2c6b8294fcf3a8c223a4c5d219989bf88cfa0d922738cc89f0644665d54de560001b62000e4760201b60201c565b83601860006101000a81548173ffffffffffffffffffffffffffffffffffffffff021916908373ffffffffffffffffffffffffffffffffffffffff1602179055506200092b7f855e531195db4746e2d041a4826c3845769acb1d9039ca390d9f67d3b19c68fe60001b62000e4760201b60201c565b6200095f7f3d7cf884b34f4ddb297798aa2e1b035128eb2e5d12e702b6b07b11b4a91b93a660001b62000e4760201b60201c565b6001600460008473ffffffffffffffffffffffffffffffffffffffff1673ffffffffffffffffffffffffffffffffffffffff16815260200190815260200160002060006101000a81548160ff021916908315150217905550620009eb7f123a82c2660237ac09aae6b752aadc2ea65156fb58350465155fec9b24005ce560001b62000e4760201b60201c565b62000a1f7f09b388e5cfe66f344a6bb8f5230a5677bcd85f1e09561e1df44ef6effe75960060001b62000e4760201b60201c565b6001600460003073ffffffffffffffffffffffffffffffffffffffff1673ffffffffffffffffffffffffffffffffffffffff16815260200190815260200160002060006101000a81548160ff02191690831515021790555062000aab7f84150e76fa4182e326531b8f748209e236d3591238f4a5ecb891ab451696e75560001b62000e4760201b60201c565b62000adf7f31557b5d60427b22bc206aa7f62b11300051bd2627d3eeab05d6b03bdc925dd860001b62000e4760201b60201c565b600160046000600760009054906101000a900473ffffffffffffffffffffffffffffffffffffffff1673ffffffffffffffffffffffffffffffffffffffff1673ffffffffffffffffffffffffffffffffffffffff16815260200190815260200160002060006101000a81548160ff02191690831515021790555062000b8d7f10b741806911b815d0e2d5332ea1b121f25ffb9427a68c805ba108e72dd00e3d60001b62000e4760201b60201c565b62000bc17f720e17fcccf44ae563d924eb86700ad4400be0475e89b034fc2ce390254c2e8160001b62000e4760201b60201c565b62000bd28262000e4a60201b60201c565b62000c067f4510e30470ac579f3b928b9e287e87faad64649ae4607d914755f6010c8a5ca060001b62000e4760201b60201c565b62000c3a7f95830053d93a17508435b3d04037b0a7790fc71aecac2784a3f8cb8b103b4ef560001b62000e4760201b60201c565b6009546001600062000c5162000ee160201b60201c565b73ffffffffffffffffffffffffffffffffffffffff1673ffffffffffffffffffffffffffffffffffffffff1681526020019081526020016000208190555062000cc37feb663fbdc220d2b380f239c18299ddbb0377639173c62303beba6351f9a894da60001b62000e4760201b60201c565b62000cf77fa8029290caa0bc6b859b77d118a95c85691ed95a6485147d318740f326573bb660001b62000e4760201b60201c565b62000d0762000ee160201b60201c565b73ffffffffffffffffffffffffffffffffffffffff16600073ffffffffffffffffffffffffffffffffffffffff167fddf252ad1be2c89b69c2b068fc378daa952ba7f163c4a11628f55a4df523b3ef60085460405162000d68919062001283565b60405180910390a3505050505062001420565b600033905090565b60008060009054906101000a900473ffffffffffffffffffffffffffffffffffffffff169050816000806101000a81548173ffffffffffffffffffffffffffffffffffffffff021916908373ffffffffffffffffffffffffffffffffffffffff1602179055508173ffffffffffffffffffffffffffffffffffffffff168173ffffffffffffffffffffffffffffffffffffffff167f8be0079c531659141344cd1fd0a4f28419497f9722a3daafe3b4186f6b6457e060405160405180910390a35050565b50565b62000e5a62000f0a60201b60201c565b600073ffffffffffffffffffffffffffffffffffffffff168173ffffffffffffffffffffffffffffffffffffffff16141562000ecd576040517f08c379a000000000000000000000000000000000000000000000000000000000815260040162000ec49062001327565b60405180910390fd5b62000ede8162000d8360201b60201c565b50565b60008060009054906101000a900473ffffffffffffffffffffffffffffffffffffffff16905090565b62000f1a62000d7b60201b60201c565b73ffffffffffffffffffffffffffffffffffffffff1662000f4062000ee160201b60201c565b73ffffffffffffffffffffffffffffffffffffffff161462000f99576040517f08c379a000000000000000000000000000000000000000000000000000000000815260040162000f909062001399565b60405180910390fd5b565b82805462000fa990620013ea565b90600052602060002090601f01602090048101928262000fcd576000855562001019565b82601f1062000fe857805160ff191683800117855562001019565b8280016001018555821562001019579182015b828111156200101857825182559160200191906001019062000ffb565b5b5090506200102891906200102c565b5090565b5b80821115620010475760008160009055506001016200102d565b5090565b600080fd5b600073ffffffffffffffffffffffffffffffffffffffff82169050919050565b60006200107d8262001050565b9050919050565b6200108f8162001070565b81146200109b57600080fd5b50565b600081519050620010af8162001084565b92915050565b60008060008060808587031215620010d257620010d16200104b565b5b6000620010e2878288016200109e565b9450506020620010f5878288016200109e565b935050604062001108878288016200109e565b92505060606200111b878288016200109e565b91505092959194509250565b6000819050919050565b7f4e487b7100000000000000000000000000000000000000000000000000000000600052601260045260246000fd5b60006200116d8262001127565b91506200117a8362001127565b9250826200118d576200118c62001131565b5b828206905092915050565b7f4e487b7100000000000000000000000000000000000000000000000000000000600052601160045260246000fd5b6000620011d48262001127565b9150620011e18362001127565b925082821015620011f757620011f662001198565b5b828203905092915050565b6000602082840312156200121b576200121a6200104b565b5b60006200122b848285016200109e565b91505092915050565b6200123f8162001070565b82525050565b60006040820190506200125c600083018562001234565b6200126b602083018462001234565b9392505050565b6200127d8162001127565b82525050565b60006020820190506200129a600083018462001272565b92915050565b600082825260208201905092915050565b7f4f776e61626c653a206e6577206f776e657220697320746865207a65726f206160008201527f6464726573730000000000000000000000000000000000000000000000000000602082015250565b60006200130f602683620012a0565b91506200131c82620012b1565b604082019050919050565b60006020820190508181036000830152620013428162001300565b9050919050565b7f4f776e61626c653a2063616c6c6572206973206e6f7420746865206f776e6572600082015250565b600062001381602083620012a0565b91506200138e8262001349565b602082019050919050565b60006020820190508181036000830152620013b48162001372565b9050919050565b7f4e487b7100000000000000000000000000000000000000000000000000000000600052602260045260246000fd5b600060028204905060018216806200140357607f821691505b602082108114156200141a5762001419620013bb565b5b50919050565b61b00680620014306000396000f3fe6080604052600436106102eb5760003560e01c8063715018a611610184578063a457c2d7116100d6578063dd62ed3e1161008a578063f0f165af11610064578063f0f165af14610a76578063f2fde38b14610a9f578063fdcc338214610ac8576102f2565b8063dd62ed3e146109e7578063ea2f0b3714610a24578063ec28438a14610a4d576102f2565b8063c49b9a80116100bb578063c49b9a8014610968578063c81d583914610991578063d12a7688146109bc576102f2565b8063a457c2d7146108ee578063a9059cbb1461092b576102f2565b80638da5cb5b1161013857806395d89b411161011257806395d89b411461086f57806398118cb41461089a578063a0dc392d146108c5576102f2565b80638da5cb5b146107f05780638ee88c531461081b5780639314558214610844576102f2565b80637d1db4a5116101695780637d1db4a51461075d57806383ad79941461078857806388f82020146107b3576102f2565b8063715018a61461071b5780637bf0be8d14610732576102f2565b80633685d4191161023d57806349bd5a5e116101f15780635342acb4116101cb5780635342acb4146106765780636bc87c3a146106b357806370a08231146106de576102f2565b806349bd5a5e146105f75780634a74bb021461062257806352390c021461064d576102f2565b806341cb87fc1161022257806341cb87fc14610568578063437823ec146105915780634549b039146105ba576102f2565b80633685d41914610502578063395093511461052b576102f2565b80631abe0e951161029f5780632d838119116102795780632d8381191461046f578063313ce567146104ac5780633206b4aa146104d7576102f2565b80631abe0e95146103de5780631f7ede2b1461040957806323b872dd14610432576102f2565b806314af7962116102d057806314af79621461035f5780631694505e1461038857806318160ddd146103b3576102f2565b806306fdde03146102f7578063095ea7b314610322576102f2565b366102f257005b600080fd5b34801561030357600080fd5b5061030c610af3565b6040516103199190619db3565b60405180910390f35b34801561032e57600080fd5b5061034960048036038101906103449190619e6e565b610c09565b6040516103569190619ec9565b60405180910390f35b34801561036b57600080fd5b5061038660048036038101906103819190619ee4565b610d03565b005b34801561039457600080fd5b5061039d610ea6565b6040516103aa9190619f70565b60405180910390f35b3480156103bf57600080fd5b506103c8610ecc565b6040516103d59190619f9a565b60405180910390f35b3480156103ea57600080fd5b506103f3610f5a565b6040516104009190619fc4565b60405180910390f35b34801561041557600080fd5b50610430600480360381019061042b9190619ee4565b611008565b005b34801561043e57600080fd5b5061045960048036038101906104549190619fdf565b6111ab565b6040516104669190619ec9565b60405180910390f35b34801561047b57600080fd5b5061049660048036038101906104919190619ee4565b6113b8565b6040516104a39190619f9a565b60405180910390f35b3480156104b857600080fd5b506104c16115b2565b6040516104ce9190619f9a565b60405180910390f35b3480156104e357600080fd5b506104ec611640565b6040516104f99190619f9a565b60405180910390f35b34801561050e57600080fd5b506105296004803603810190610524919061a032565b611646565b005b34801561053757600080fd5b50610552600480360381019061054d9190619e6e565b611c78565b60405161055f9190619ec9565b60405180910390f35b34801561057457600080fd5b5061058f600480360381019061058a919061a032565b611e07565b005b34801561059d57600080fd5b506105b860048036038101906105b3919061a032565b612127565b005b3480156105c657600080fd5b506105e160048036038101906105dc919061a08b565b61220e565b6040516105ee9190619f9a565b60405180910390f35b34801561060357600080fd5b5061060c61257e565b6040516106199190619fc4565b60405180910390f35b34801561062e57600080fd5b506106376125a4565b6040516106449190619ec9565b60405180910390f35b34801561065957600080fd5b50610674600480360381019061066f919061a032565b6125b5565b005b34801561068257600080fd5b5061069d6004803603810190610698919061a032565b612a74565b6040516106aa9190619ec9565b60405180910390f35b3480156106bf57600080fd5b506106c8612b4e565b6040516106d59190619f9a565b60405180910390f35b3480156106ea57600080fd5b506107056004803603810190610700919061a032565b612b54565b6040516107129190619f9a565b60405180910390f35b34801561072757600080fd5b50610730612d9f565b005b34801561073e57600080fd5b50610747612db3565b6040516107549190619fc4565b60405180910390f35b34801561076957600080fd5b50610772612dd9565b60405161077f9190619f9a565b60405180910390f35b34801561079457600080fd5b5061079d612ddf565b6040516107aa9190619f9a565b60405180910390f35b3480156107bf57600080fd5b506107da60048036038101906107d5919061a032565b612e6d565b6040516107e79190619ec9565b60405180910390f35b3480156107fc57600080fd5b50610805612f47565b6040516108129190619fc4565b60405180910390f35b34801561082757600080fd5b50610842600480360381019061083d9190619ee4565b612f70565b005b34801561085057600080fd5b50610859613113565b6040516108669190619f9a565b60405180910390f35b34801561087b57600080fd5b506108846131a1565b6040516108919190619db3565b60405180910390f35b3480156108a657600080fd5b506108af6132b7565b6040516108bc9190619f9a565b60405180910390f35b3480156108d157600080fd5b506108ec60048036038101906108e7919061a109565b613345565b005b3480156108fa57600080fd5b5061091560048036038101906109109190619e6e565b613415565b6040516109229190619ec9565b60405180910390f35b34801561093757600080fd5b50610952600480360381019061094d9190619e6e565b6135be565b60405161095f9190619ec9565b60405180910390f35b34801561097457600080fd5b5061098f600480360381019061098a919061a136565b6136b8565b005b34801561099d57600080fd5b506109a66137ef565b6040516109b3919061a184565b60405180910390f35b3480156109c857600080fd5b506109d1613815565b6040516109de9190619f9a565b60405180910390f35b3480156109f357600080fd5b50610a0e6004803603810190610a09919061a19f565b61381b565b604051610a1b9190619f9a565b60405180910390f35b348015610a3057600080fd5b50610a4b6004803603810190610a46919061a032565b613926565b005b348015610a5957600080fd5b50610a746004803603810190610a6f9190619ee4565b613a0d565b005b348015610a8257600080fd5b50610a9d6004803603810190610a989190619ee4565b613b9d565b005b348015610aab57600080fd5b50610ac66004803603810190610ac1919061a032565b613c33565b005b348015610ad457600080fd5b50610add613cb7565b604051610aea9190619f9a565b60405180910390f35b6060610b217f83d7f4bec5ab73fbd6bdb9380e6461a4b574e2a05d07f06a1cf93b1cc278274c60001b613cbd565b610b4d7fcb75a2dbb6c61068a7968cb9ab8122b269c55532569a76b29e97286964443fec60001b613cbd565b610b797f10cf70df637849c1017d59303ab415c44e4bd9ad0d01901d2be671a3ab9d614360001b613cbd565b600b8054610b869061a20e565b80601f0160208091040260200160405190810160405280929190818152602001828054610bb29061a20e565b8015610bff5780601f10610bd457610100808354040283529160200191610bff565b820191906000526020600020905b815481529060010190602001808311610be257829003601f168201915b5050505050905090565b6000610c377fd5a9e1ba10cb1fb2aa6065580777a3cd0b16982f6d964901c90e7cdb80a80b1660001b613cbd565b610c637f3bc678974ef43f51f2b6571e4df1d9e81ba0953185c697f6ee0f15349a62073f60001b613cbd565b610c8f7ff3b5809137aa12417e425598011fbf9d5b43129a1c3cf9bfd4f38e952bec7a5260001b613cbd565b610ca1610c9a613cc0565b8484613cc8565b610ccd7fb88e80282e10d6eb488f75f1109e5e8024fec6be3edd905c7d931b7ada98f49260001b613cbd565b610cf97f3791b4abd263df7fefea30def2276fc52e4659aa949664e26a3904dea7e680fe60001b613cbd565b6001905092915050565b610d0b6140cf565b610d377fea19c5473e46e2c11326fa32b9ae4850d85bd803991ae5b37703dca07506687760001b613cbd565b610d637f567c2ca66cdf9f50f468185c3d28380e0250e365833c1181505290ecf56b4cfb60001b613cbd565b610d8f7f669a3eebc302e9720a639e7a7859a2e2de4d02022d3bd8480ec5d9f420da80e560001b613cbd565b610dbb7f27d0b01b014b97f5ca1ca90e8689a94947b4812a0d936d4da78f67e7646cff2260001b613cbd565b600f81601254600e54610dce919061a26f565b610dd8919061a26f565b10610e18576040517f08c379a0000000000000000000000000000000000000000000000000000000008152600401610e0f9061a311565b60405180910390fd5b610e447f2f165c9ab5a47cc4efc6a91b75a1671bc1d9e5bd5acdc59fc0e67cf8bd1a017560001b613cbd565b610e707f3b23a9d86e0f980986dc98be987b84d920cc957999446bbb493f87c12f91f9b260001b613cbd565b610e9c7f771f75c86d5dba90d878cd72e86431b5e09e4b43170a65f306c8fb7f16dc013860001b613cbd565b8060108190555050565b601460009054906101000a900473ffffffffffffffffffffffffffffffffffffffff1681565b6000610efa7f6f1be1ea816062041213a5209ea8d5fac47aeb38a44bf87b78acf3d5adc8be7760001b613cbd565b610f267f91889a235aa5fc0bc7d5b6f5a21360faf3a68d6172691dd33e8aba669182771660001b613cbd565b610f527fec411949de50e2e7ac8fdd1d280732fbe07cd20d7b2ff0c8a7ae0eefeb56a74c60001b613cbd565b600854905090565b6000610f887f4e37dd930e404bcff3c7b71dc1959685454f9a5cfac4b45e4e63b2ed9aaf942160001b613cbd565b610fb47fe92baabaac35aa10a5a56032ddd5fa2a4acd47b8341736d5acfeda8e5018f88f60001b613cbd565b610fe07f4d82144a46fa9b4e0f8aba905032d15a620c14474993239bdef58831c68d6b2660001b613cbd565b600760009054906101000a900473ffffffffffffffffffffffffffffffffffffffff16905090565b6110106140cf565b61103c7fc850a1c0cd0dc0521d9fcb641627dd523eded55e8a604d71d3ee1ac875046dfe60001b613cbd565b6110687f3e45190a3c9a4cec45516edaf32ffe145741a28225f1ee6eb4b8177e670d36b560001b613cbd565b6110947fb3cffa6526e045bd6db0b4a37a025698b10c6c0abd442910e4296dbeeee62e5960001b613cbd565b6110c07f1d376916f41c9aaf5d62c46f49dbdc419f65c97783e366565f2a652a780052f260001b613cbd565b600f601054601254836110d3919061a26f565b6110dd919061a26f565b1061111d576040517f08c379a00000000000000000000000000000000000000000000000000000000081526004016111149061a311565b60405180910390fd5b6111497f95fc0e410114d2ca06b01f418a96a3247c59c14386f7833eaf2d6b473ba0084960001b613cbd565b6111757f42d07d1acaca731fdb17b5f20268e4b93dca562df1e413ee0b3225cb71cd38f260001b613cbd565b6111a17fe41fcb0886a53422f52d5ac78a3e89e55226279bba0de2f6d70b3a0a9f90f72a60001b613cbd565b80600e8190555050565b60006111d97fe3c19aeb085a8cda4ebf9485a1c0a0c0574ccb24aaaa807ca01d18230c34878160001b613cbd565b6112057f6517f5c7d2b484bdefdb417b079f29e6038c8b98f7db5c8b5374b65dc29178e660001b613cbd565b6112317f4dd21684ae717875b87111d7f5333b544fd1ffba07a7c4fc4e006a6f7d79e74960001b613cbd565b61123c84848461414d565b6112687fd49d30cc12c87d0a1383e4c81bbe19627ac1f8908fe2a2528d81505b6a53488e60001b613cbd565b6112947f6c09e60dfcb284bacb9fa676e9e8f76bd355bfedbdb1e069cd04fdc43dafa2d860001b613cbd565b611355846112a0613cc0565b6113508560405180606001604052806028815260200161af8460289139600360008b73ffffffffffffffffffffffffffffffffffffffff1673ffffffffffffffffffffffffffffffffffffffff1681526020019081526020016000206000611306613cc0565b73ffffffffffffffffffffffffffffffffffffffff1673ffffffffffffffffffffffffffffffffffffffff16815260200190815260200160002054614d3a9092919063ffffffff16565b613cc8565b6113817f181e550309600ec536e5b74712382c2a5ca55396f222f9289b1ae6877cb6b27860001b613cbd565b6113ad7f1df66e399f06498913dd3ab6dbea93e13c1f8022a057829c35885cd58ca6c3d360001b613cbd565b600190509392505050565b60006113e67fa51536d3f9b8346f33d647693eb03d4c35f3f9a8ea72fe87cd8be7f8d1c39c8e60001b613cbd565b6114127f3c641983096d330caafab165b39b7bde77d1a5b16dc35d36365e0269ca881ac860001b613cbd565b61143e7f61de64365ae553af266ceaa2057596d079f462cbcbc148dd0a2124acca9bcda060001b613cbd565b61146a7f9bf3683623c93db499b0e75777ca6e420e0754a0c908f4be98a4fe4bdd700a2f60001b613cbd565b6009548211156114af576040517f08c379a00000000000000000000000000000000000000000000000000000000081526004016114a69061a3a3565b60405180910390fd5b6114db7f60888b2e8200e4c82b5f50ccec4298b3be557af90765f7893649e1876735cbd860001b613cbd565b6115077ffb1364738be356e33c770fce5b1fc359261525fbda22e47670af56da1c8ac38560001b613cbd565b6115337ffdfab6251fa52adf02e1d97a8be29e7a306b7d05122a095f618d6032fa1ba93d60001b613cbd565b600061153d614d8f565b905061156b7ffcf4d449dbc9e4c6a685a60e4a0c8322765214c4d6924b40a726cca0559e70c760001b613cbd565b6115977f2553154db289e6ea4061b2ce3d6e22ebe4fee3611f5e2ddab5b209a32c1e106460001b613cbd565b6115aa8184614e9690919063ffffffff16565b915050919050565b60006115e07fafdfec5424e12ac0bc8c8442d2141e228e8c6417be39ced74689f4a9faa0218260001b613cbd565b61160c7fa82908a84f6c0dfcb85ea345fc313be0f1ec4ff1eca10006736ce8e95f122ebf60001b613cbd565b6116387f681cbb2541cf1d9eb4b43cc525aea0d9fa48eb73907d7f8817534ec8a52e4a5560001b613cbd565b600d54905090565b600e5481565b61164e6140cf565b61167a7f46f46048347c4142002d9683b88d889e596b917a27961e4a8f698ad7fa903c4660001b613cbd565b6116a67f12b6a75ef44f147236e2966752c95cdbbd6a23964f28f19bcb07fa9466c3f84e60001b613cbd565b6116d27fac06ccb6cdb342a7a16f7f202d0d0a4e00690eb85f1a535af272e821076b04be60001b613cbd565b6116fe7f99d0cc54d00031ea00a6d84b791f73b678775797baf5893150e1614609e86e7860001b613cbd565b600560008273ffffffffffffffffffffffffffffffffffffffff1673ffffffffffffffffffffffffffffffffffffffff16815260200190815260200160002060009054906101000a900460ff1661178a576040517f08c379a00000000000000000000000000000000000000000000000000000000081526004016117819061a40f565b60405180910390fd5b6117b67fa8811eea9382114fc9e2df23664f581260e4cd549559bf44f66becd290c3121060001b613cbd565b6117e27f45d3593997b99af6b7033bebdd9350c78179bf20a45bbcd3ca147c45a17096f060001b613cbd565b61180e7fe085f686b00d5549c2fc056d6b54e4da7edb02946b19a3557c958fc989848f6860001b613cbd565b60005b600680549050811015611c745761184a7f44c6651fc84b2e22b007247c5eb8fe41a509763cba2a20692f6906527105e20760001b613cbd565b6118767f0455b58357330bca0a54ccba9ff52785f4015d9d36870b6f5971297adff2b21760001b613cbd565b8173ffffffffffffffffffffffffffffffffffffffff16600682815481106118a1576118a061a42f565b5b9060005260206000200160009054906101000a900473ffffffffffffffffffffffffffffffffffffffff1673ffffffffffffffffffffffffffffffffffffffff161415611c35576119147f3d4d15f0ab1b532ff2e71fcf43a34e957df14e209e72ff600f5d958cc73e558a60001b613cbd565b6119407fc08f0958b5b9b59b259f97d086abc048fd7053b7406087808c3c9deccb8a7c4d60001b613cbd565b61196c7f9a71817b521a07cdf68e91a9b1025150faa38dfab7b337f278da46b7871c7f7860001b613cbd565b60066001600680549050611980919061a45e565b815481106119915761199061a42f565b5b9060005260206000200160009054906101000a900473ffffffffffffffffffffffffffffffffffffffff16600682815481106119d0576119cf61a42f565b5b9060005260206000200160006101000a81548173ffffffffffffffffffffffffffffffffffffffff021916908373ffffffffffffffffffffffffffffffffffffffff160217905550611a447f60740a9ecc3612e044d6a6b7601fdac5b3442d07c0037b1ba9c474e771d1abf360001b613cbd565b611a707f92cbba52e0dbb0a7f3d3f3c4aed1e1bc8654820d6011762d27129f9ee41253b560001b613cbd565b6000600260008473ffffffffffffffffffffffffffffffffffffffff1673ffffffffffffffffffffffffffffffffffffffff16815260200190815260200160002081905550611ae17fa3c80e0664a8b437ddf0b300891f1b53082ba75fb1d120fc5cf6afbb896e2c7260001b613cbd565b611b0d7f0a79262d083ed35a86d544ee006357178b9249c569735473d655fb427d28a4cc60001b613cbd565b6000600560008473ffffffffffffffffffffffffffffffffffffffff1673ffffffffffffffffffffffffffffffffffffffff16815260200190815260200160002060006101000a81548160ff021916908315150217905550611b917f4c5fe4f056ffe9facc3ae2b93c25ce225dda12d0a32ed8116bdb384d6c32e12d60001b613cbd565b611bbd7fb6449d3883112cac823eee9167f3f231743ab75d941d38f979af8f66d24d9efe60001b613cbd565b6006805480611bcf57611bce61a492565b5b6001900381819060005260206000200160006101000a81549073ffffffffffffffffffffffffffffffffffffffff02191690559055611c307f321650f773c4c663317cf24d45329fa646a57ede7fdee9348ee2954afed2ea3960001b613cbd565b611c74565b611c617f0a0e9fdd23da2ea803a1334b3e5232af6da54f1424810a735bb2b88adb28cb0b60001b613cbd565b8080611c6c9061a4c1565b915050611811565b5050565b6000611ca67f0acdd1a4618879a84e8724f761d0f362bd214d717ff9bc139cc4284a466941b760001b613cbd565b611cd27f464acea7f974bc1fdbc1d241f92f37eaac77d96070c2f957224e6d2405dfba0a60001b613cbd565b611cfe7f305682521d49f48084af6de1d412b0f2fda41d2d8a2ec735bf2de24ca460379d60001b613cbd565b611da5611d09613cc0565b84611da08560036000611d1a613cc0565b73ffffffffffffffffffffffffffffffffffffffff1673ffffffffffffffffffffffffffffffffffffffff16815260200190815260200160002060008973ffffffffffffffffffffffffffffffffffffffff1673ffffffffffffffffffffffffffffffffffffffff16815260200190815260200160002054614eac90919063ffffffff16565b613cc8565b611dd17f9618b93426ee973ffdb8da9d26551903581570b70a4d88cf55553153f2c642cf60001b613cbd565b611dfd7f195175d1a1091cca6e5a3b5f4ff56108a91395f76ce571067ecfb99561c4806760001b613cbd565b6001905092915050565b611e0f6140cf565b611e3b7f342b2f4aaba3686d3708c82d2512dfc9bd17b9ee7b8e99a7dc9a55db8f61058360001b613cbd565b611e677fa9e55a33d477d882eed739903cefec41fcddb1807a51b34a3ae35361e3026da160001b613cbd565b611e937f5df8fd554ce0c1708844aef28ce4cacce09ddb0283828ae3743fa63a36f9a77860001b613cbd565b6000819050611ec47fbb5bcb522d2a143070370b10044f90f70701b26975f105ac0b14c6c01ac4de8e60001b613cbd565b611ef07f788f29a303f3157c5d5d9dbb84e2e7b085f1fc3c8e006d502ca0e3713d5f3c8b60001b613cbd565b8073ffffffffffffffffffffffffffffffffffffffff1663c45a01556040518163ffffffff1660e01b8152600401602060405180830381865afa158015611f3b573d6000803e3d6000fd5b505050506040513d601f19601f82011682018060405250810190611f5f919061a51f565b73ffffffffffffffffffffffffffffffffffffffff1663c9c65396308373ffffffffffffffffffffffffffffffffffffffff1663ad5c46486040518163ffffffff1660e01b8152600401602060405180830381865afa158015611fc6573d6000803e3d6000fd5b505050506040513d601f19601f82011682018060405250810190611fea919061a51f565b6040518363ffffffff1660e01b815260040161200792919061a54c565b6020604051808303816000875af1158015612026573d6000803e3d6000fd5b505050506040513d601f19601f8201168201806040525081019061204a919061a51f565b601560006101000a81548173ffffffffffffffffffffffffffffffffffffffff021916908373ffffffffffffffffffffffffffffffffffffffff1602179055506120b67ff03acbfbdf68c1f2a7737bb8dce35849af03f4fefef950dd739f814c6c46c6cc60001b613cbd565b6120e27f06cfcb765b2447c6a2702102013729d5f16750bbc135079952cde60828cb22b860001b613cbd565b80601460006101000a81548173ffffffffffffffffffffffffffffffffffffffff021916908373ffffffffffffffffffffffffffffffffffffffff1602179055505050565b61212f6140cf565b61215b7fe0577c000c113d3083951fed8e39c2594884de94b61dd3fd59eb358550f3177060001b613cbd565b6121877ff26be734f416288e388f11a536ef697b282bde69d1ab6cf88e590aa835ee7cad60001b613cbd565b6121b37f441fbbc973c9337f29369a8cbc63185386a4b3267726229eb13a68977366994660001b613cbd565b6001600460008373ffffffffffffffffffffffffffffffffffffffff1673ffffffffffffffffffffffffffffffffffffffff16815260200190815260200160002060006101000a81548160ff02191690831515021790555050565b600061223c7f948bf2f5ced7008e5e9ae2d6586bb51f53568418ffbf31759df2086a6dfc75c260001b613cbd565b6122687f567a42de31b998dfa9a759100afc4cba75cc04e356fdca17f306b2477dd5667260001b613cbd565b6122947f89d84d8ab46daad05a937ff69f175f90c138724788ed5b5ad877bd0d1f2376cd60001b613cbd565b6122c07f0955e690f3b30a5cb3367369bdab13dce0c66566d50e375bedc1c708f1bbf66260001b613cbd565b600854831115612305576040517f08c379a00000000000000000000000000000000000000000000000000000000081526004016122fc9061a5c1565b60405180910390fd5b6123317f15202e5038c976a251f4faa114802be21b12a46366ba8c31d02a9dc3af6827fb60001b613cbd565b61235d7fd177e6e20734a94a2c548c43ce5bbaa68003413e8b73d8a09bf4028a11334b1460001b613cbd565b6123897f65885217c59a03e114189b76fddd14d271e0eba3170d8cce5e351e42754a952160001b613cbd565b81612485576123ba7f1c38e7f9db91b7cf783387cda1749dbc2e8e38ab6eadb6f07c22054afcd975fc60001b613cbd565b6123e67f633154b56351924a6452329d0a1d249fe5f2340f5c8a7345700144ebe098d5de60001b613cbd565b6124127fa08ebe849ce2800c0c87a39852ac83401f0c100ab6291d44e30d4864e9a7741060001b613cbd565b600061241d84614ec2565b505050505090506124507f6d1cd44bc300e74851ef1721dda0035b07b6df9943dea8f5d93776d1aa96672c60001b613cbd565b61247c7f42b777e4efe1dba79ddbefd6db807e28eb4d3483b54a77e0e2eabf8c391a3fba60001b613cbd565b80915050612578565b6124b17fb11a8362bb9a49f6bc4ff07e13748c616a2ce2cab0819e809e6cc0807b23ac6160001b613cbd565b6124dd7f342fb7342dff1aa659c512f43089d615ab036cc0fd9a7226eb3bf2013d35f21d60001b613cbd565b6125097fe563c0255811ee6055cbbf1d207a94041e409847d64fd5a22d99dfbff7684cc360001b613cbd565b600061251484614ec2565b505050509150506125477f1225e8dd2fc63bd5e62206bdd591eda7e7141f0064c683e8dca064f72283071960001b613cbd565b6125737fbe77a7bcdc76396fb4dd3bf18e525fd854dc4afbf0f8951d167eeb512992eb7960001b613cbd565b809150505b92915050565b601560009054906101000a900473ffffffffffffffffffffffffffffffffffffffff1681565b60158054906101000a900460ff1681565b6125bd6140cf565b6125e97f62638322938738fdc834a220e5f49cf96e6e9e4cf8f23d2b3b86a08a765453cb60001b613cbd565b6126157f68b9f260c84aae5a5b74d0cfe0b62565090a63545e85bd189172f202cdcbd7ca60001b613cbd565b6126417ff1d265dd32efcd6ddc54830a630ba9198990aa51c0c93b6f3bdc5f2f3cb66d1660001b613cbd565b61266d7f6d2c91a89b31c46629027dcda6be9f8d083f28b6ae210b3fbc06c5dd006d3c9e60001b613cbd565b600560008273ffffffffffffffffffffffffffffffffffffffff1673ffffffffffffffffffffffffffffffffffffffff16815260200190815260200160002060009054906101000a900460ff16156126fa576040517f08c379a00000000000000000000000000000000000000000000000000000000081526004016126f19061a62d565b60405180910390fd5b6127257e59fb9d0652ee5d961d176c5a2724f929e3b958c4d5195286055202cf3b59c460001b613cbd565b6127517fcef11ea27084ff4a400de6b3ae521b328e9c431fb7943ac3feba3d897723aaf960001b613cbd565b61277d7f59ff9bf32011c48e1a89bb5aa32481165e095293bcbd2f20a2f6b616d1ef6f7160001b613cbd565b6000600160008373ffffffffffffffffffffffffffffffffffffffff1673ffffffffffffffffffffffffffffffffffffffff1681526020019081526020016000205411156128d9576127f17f2497f5cbc7a8434c6c21ab02b9e7529026a79a0449db14b4981bad2dfbd9145e60001b613cbd565b61281d7fa71c30a81891ce04c12b0eccb2e89de052d3c3fcb45f9aebae31877ba838295f60001b613cbd565b6128497fe80d8589af63bba1479866e673446086c55e55c41b8e108a3f920bf54d785cfb60001b613cbd565b612891600160008373ffffffffffffffffffffffffffffffffffffffff1673ffffffffffffffffffffffffffffffffffffffff168152602001908152602001600020546113b8565b600260008373ffffffffffffffffffffffffffffffffffffffff1673ffffffffffffffffffffffffffffffffffffffff16815260200190815260200160002081905550612906565b6129057f51ff7c42bcee5a2be1cc069528922fec0091d68d0d31f7135d28e17cdca2fc7660001b613cbd565b5b6129327fd85cad390cecefe6e549159f8eec10d29995583e6dd67ce7232bf8dedea57df160001b613cbd565b61295e7f8178651c56c6acb1a2666e261c90e15b88b59a2228b21fcb18054d75c5175e3660001b613cbd565b6001600560008373ffffffffffffffffffffffffffffffffffffffff1673ffffffffffffffffffffffffffffffffffffffff16815260200190815260200160002060006101000a81548160ff0219169083151502179055506129e27fb16c39f38ddac4231adce86d4d94a9a7b342f5f1db960cfb35cb39152133026a60001b613cbd565b612a0e7feeaf1b696ac6ccd4f6f5a567bb0e0b344fd3bdb29a183ee80ba57e6f100ddf3c60001b613cbd565b6006819080600181540180825580915050600190039060005260206000200160009091909190916101000a81548173ffffffffffffffffffffffffffffffffffffffff021916908373ffffffffffffffffffffffffffffffffffffffff16021790555050565b6000612aa27fa5c12b4db1e53ba3b3a2df18620091835a091f6f32af3970c5f5babe72e7c60360001b613cbd565b612ace7f96b9de6b2c3a391bac8295d242372b750f8fe0d1f8dca6f28ffe582547a418fe60001b613cbd565b612afa7f3b2149217c87a11b5fac77255856f1fbc99a8a52639b105fd38b77196eb6af1e60001b613cbd565b600460008373ffffffffffffffffffffffffffffffffffffffff1673ffffffffffffffffffffffffffffffffffffffff16815260200190815260200160002060009054906101000a900460ff169050919050565b60125481565b6000612b827f2aa1ab4d83402659b5ed0e2811e4c20e72d9f76626b158a7989affcf676c0bdd60001b613cbd565b612bae7ffea72c386e6ef18a428a6d8b80241aabf23d40b7194676f420ef5b1e48204f7660001b613cbd565b612bda7f785a7e11bca3c5773d930802acbc25004e6300917eac2c610aabd3d1f6600b6760001b613cbd565b600560008373ffffffffffffffffffffffffffffffffffffffff1673ffffffffffffffffffffffffffffffffffffffff16815260200190815260200160002060009054906101000a900460ff1615612ccb57612c587fa9187931d5b3dc4a91afbdcae337befd57d982ac3b79aa86cce6314cd12af34b60001b613cbd565b612c847fbf66c3d511e0a23a67d411dda863b52ddf75d1f7581b5b4bad99c017aea79e0760001b613cbd565b600260008373ffffffffffffffffffffffffffffffffffffffff1673ffffffffffffffffffffffffffffffffffffffff168152602001908152602001600020549050612d9a565b612cf77f11a2c8b6f866c507f35589b0a4b9f2877b328cf47193a2c21056b05e323628f060001b613cbd565b612d237fc9e29cbd110b4cdf51134e410f46a53c66298df771649e96ca371148463138cf60001b613cbd565b612d4f7f8fa3cac468acb9ee12b47c78e1034846770d1b99cabdb38ec6e8b2cdc185de6660001b613cbd565b612d97600160008473ffffffffffffffffffffffffffffffffffffffff1673ffffffffffffffffffffffffffffffffffffffff168152602001908152602001600020546113b8565b90505b919050565b612da76140cf565b612db16000615062565b565b600760009054906101000a900473ffffffffffffffffffffffffffffffffffffffff1681565b60165481565b6000612e0d7fe0642f45b647fd0db5ae3b4d124f1b0571ff30eb5afdf7a8dff6fcb82d6a9d0960001b613cbd565b612e397fbc6294bec2c308cb1df26021e40bcae6addd592c7ce23fb52db0780f4093b0dd60001b613cbd565b612e657fa2caeb0558e288936210674131f739883528f0efe6e861bd2ff0ef84430e700460001b613cbd565b600e54905090565b6000612e9b7f656a34aa13f31e665ab01e005839d5e7ba4dea69194923b6c5880a59d77b48fa60001b613cbd565b612ec77fb5bfdb39348c1c4e73429ad682ebb59171059625b26e04380d88bb52bc48a50c60001b613cbd565b612ef37f878c2a5617ed045364499a9728b4515d00debc331c41156fd4182d1c21470eb660001b613cbd565b600560008373ffffffffffffffffffffffffffffffffffffffff1673ffffffffffffffffffffffffffffffffffffffff16815260200190815260200160002060009054906101000a900460ff169050919050565b60008060009054906101000a900473ffffffffffffffffffffffffffffffffffffffff16905090565b612f786140cf565b612fa47f7ee6f9c1c07182eb04bedd6289a79fcf7a74a01ac0a3937fbfcb1e339709211e60001b613cbd565b612fd07fa872a323436b235a8fa3d2b3e726b50f0442c1f04f1d39e70724ceebb584c98660001b613cbd565b612ffc7fe994ee81abef723fd05d2efde42e65a4e1933a0fbf1d23886cb116e0b7cbb41e60001b613cbd565b6130287f76191936592015d1c2507478ac76a80be5c5dea94237c546337eea7fcb311cc160001b613cbd565b600f60105482600e5461303b919061a26f565b613045919061a26f565b10613085576040517f08c379a000000000000000000000000000000000000000000000000000000000815260040161307c9061a311565b60405180910390fd5b6130b17fad5c422e78227e53dd24bbf701f4d0ddaae6919ec307a653abc72295bc84b89a60001b613cbd565b6130dd7fe996f559ecb113b1bc49cab20e70f761f9b3ed5be8f0ae7c2774c4e73bab354960001b613cbd565b6131097fde07438109cec4128ea4e8391259e17208aca63983ce1b49ed28f295ae7dcff760001b613cbd565b8060128190555050565b60006131417f7f65970ab663b299ee71e236fec7df69eb5f056881b63b0b85de76cf33dc454c60001b613cbd565b61316d7f3ac3c7897f0a8346c60bc8e3336388e1b5117434075e0bde67ddbb1b877d297a60001b613cbd565b6131997fcadc9d40473c7029de8f6384f7de5ef094decdd4f6f2d593a39eff864c75830260001b613cbd565b601054905090565b60606131cf7fedfbef20a566135010ffb0e13a9560f813fb937eecd3664e9abc5fe6f45ff4d860001b613cbd565b6131fb7f986baa78e13685a6e85fe9b905bcdd93a3f5dd49d768a4d0a14fa9075d742b9d60001b613cbd565b6132277f24658220de5b7811f0f65d8ff1923b0f5378d89c1c421f1e1949d2cf0ebf0c5660001b613cbd565b600c80546132349061a20e565b80601f01602080910402602001604051908101604052809291908181526020018280546132609061a20e565b80156132ad5780601f10613282576101008083540402835291602001916132ad565b820191906000526020600020905b81548152906001019060200180831161329057829003601f168201915b5050505050905090565b60006132e57fa4ec1b0085ea941fea33422585b5b924db2648758b85630d1bf36c6e630e437160001b613cbd565b6133117ffed719c7e36e4d278dfac20b95904b26f0701300a1c82ad9a3240bde8901258b60001b613cbd565b61333d7fc83da4030f2704d16a221a6b3652f4af1b14ac23f9a2bc95f546a9b329c289d960001b613cbd565b601254905090565b61334d6140cf565b6133797f9eeff2b76f5b695ca81d61bc5e22344e99be6d4da415e26a5cc7c0644b5259af60001b613cbd565b6133a57f5dea8b62bfa9e7fd8d3ac74ed11b217db8b6700afe691fcccf4ccb5d066551fc60001b613cbd565b6133d17fca5d817f25c5ed83eb2e7c109628de601af5578220d2f99c2dfed0b4cc09dd0160001b613cbd565b80600760006101000a81548173ffffffffffffffffffffffffffffffffffffffff021916908373ffffffffffffffffffffffffffffffffffffffff16021790555050565b60006134437fb42b0052142b9b80d14560494cf4ab633df12e6d49eaf1552978de69f313ed0560001b613cbd565b61346f7fea4e5f5a818c7e27e15200a76fbd8322c2511a9e61ac939c539eadcc48f93ea060001b613cbd565b61349b7f9717ecc28e9096045fc86d232b60aa3cfb1c22b9a874d3fff79aeff2655beaf660001b613cbd565b61355c6134a6613cc0565b846135578560405180606001604052806025815260200161afac60259139600360006134d0613cc0565b73ffffffffffffffffffffffffffffffffffffffff1673ffffffffffffffffffffffffffffffffffffffff16815260200190815260200160002060008a73ffffffffffffffffffffffffffffffffffffffff1673ffffffffffffffffffffffffffffffffffffffff16815260200190815260200160002054614d3a9092919063ffffffff16565b613cc8565b6135887fb75f63c4d926d9848c105167b085151a9ff1b9297413ebbe26d760554107c86d60001b613cbd565b6135b47fad5bfde2cbd8c5974e3229742a7fd0c3ee409c99e02442eb8503bd9109aa46d060001b613cbd565b6001905092915050565b60006135ec7fdfcd415712ed7589e0fd542621628136268c6698539f30e9ec5d2692e44bb3e760001b613cbd565b6136187fc122f40aa58e454278a819752b8bd3e34f4d569fd72c3d7b1c6d4a2e52c65d6660001b613cbd565b6136447f0eea3b7bc115c990964123d24841bd450be69ea3a30d414c6d15403a4f2b752860001b613cbd565b61365661364f613cc0565b848461414d565b6136827fec6f3738b86e6f4448b9d94c2d8d36884052404c728a585ec7e9632fc89b1e3760001b613cbd565b6136ae7f94d951a0817ec50b98e98326afec0e92e1f4b3063d375433cbfca64ae2a2b2eb60001b613cbd565b6001905092915050565b6136c06140cf565b6136ec7f10cc290beb499fa003cfe86593fe1ae97f22c6d94da8c87e5ffbac00abe1075460001b613cbd565b6137187fc18574ba2454cd01e5f4ff680cf86cfdb4f4285df358e5b4819259aca8dcdba460001b613cbd565b6137447f37d74be80834780e6cf898201d04717f64876e704ce49a79c72fd482f0886c7e60001b613cbd565b806015806101000a81548160ff0219169083151502179055506137897f5cbbc2ae268e6f10e8c3fcc67899e997492288cd94c2767245df5287761fc8d060001b613cbd565b6137b57fcf385837565cb28aaa434af2248a845b4e3c887cc2955d433d799e8feddd832e60001b613cbd565b7f53726dfcaf90650aa7eb35524f4d3220f07413c8d6cb404cc8c18bf5591bc159816040516137e49190619ec9565b60405180910390a150565b601860009054906101000a900473ffffffffffffffffffffffffffffffffffffffff1681565b60175481565b60006138497f876b7724b95900aacbb0c2d3e8f68413e6b69fdeae663b2b84052e51a71b539160001b613cbd565b6138757f840c1d88c63ceedb7982db5a93667b59cb0fd8337405186f699bed9923f375ed60001b613cbd565b6138a17fe585798acd9fa805996260c1cd33490458e1f442e441b5eb667014c138b411f760001b613cbd565b600360008473ffffffffffffffffffffffffffffffffffffffff1673ffffffffffffffffffffffffffffffffffffffff16815260200190815260200160002060008373ffffffffffffffffffffffffffffffffffffffff1673ffffffffffffffffffffffffffffffffffffffff16815260200190815260200160002054905092915050565b61392e6140cf565b61395a7f9dcceb17d1fd48d0499b0675166a53edbf18b642772a3a26dfc1f3d16ff2dc9160001b613cbd565b6139867f5e7158fe8bc730d87431034797c7debfc48f553543608dd156cbd88c18c8ad8260001b613cbd565b6139b27ffa54b80d121b070307be0970875e35a77c9ea535b922e6790081725e6c45e5fe60001b613cbd565b6000600460008373ffffffffffffffffffffffffffffffffffffffff1673ffffffffffffffffffffffffffffffffffffffff16815260200190815260200160002060006101000a81548160ff02191690831515021790555050565b613a156140cf565b613a417fecb3867eb848c42284a051af97bddbd646e23595a437870af2bab12cfe2f527a60001b613cbd565b613a6d7fceba15e699b235bf50f74a1dcc258512628873b58e661d4e1cc23586882fea1d60001b613cbd565b613a997fd518bf30df65928c54a68fcb11a3e9c356bb45df4d2be9a802c3bc2f0fd4666160001b613cbd565b613ac57f81cf57dcbf2fcfeb48e06e7c28787886020b76e53db06db013c2ff426899007260001b613cbd565b6605543df729c000811015613b0f576040517f08c379a0000000000000000000000000000000000000000000000000000000008152600401613b069061a6bf565b60405180910390fd5b613b3b7fc8198b843acce622f51ba0880fc6b691dd001bfdbb0e299a2f32e977c24ec19a60001b613cbd565b613b677f1607816fba527725808fd3498700620ca8976e743dc34652e8d154c9dc3dbf7c60001b613cbd565b613b937f0dd1167fcbe8144a1355722eca2fa435500f9c18044084079f9a3f71adfec82660001b613cbd565b8060168190555050565b613ba56140cf565b613bd17f254af63a7eb6337f3b12360b941978b2b41ecd9fb67890952489c627cd1bb2f060001b613cbd565b613bfd7fc8a15b5dc73287aabc2410ffceecb2b9d59f8a8ca839bd3d7234b12ce766628960001b613cbd565b613c297f89b1c2694dfbf24cce0380553e64df67c992866b095a2559972188df78dd321560001b613cbd565b8060178190555050565b613c3b6140cf565b600073ffffffffffffffffffffffffffffffffffffffff168173ffffffffffffffffffffffffffffffffffffffff161415613cab576040517f08c379a0000000000000000000000000000000000000000000000000000000008152600401613ca29061a751565b60405180910390fd5b613cb481615062565b50565b60105481565b50565b600033905090565b613cf47fb7fa5d6673a8cf664f1363645aca863d0b7a106b1156dec3361ab6f4f55143a760001b613cbd565b613d207f38e081e8a8997b6afaa4603dde007894ce2f0e3b27c87978bff2808e38c400b860001b613cbd565b613d4c7fe98a9418f27b411b24b0f7fd159cb5ce00bb372fb30c8d16d9f8ec7b90a4c5a060001b613cbd565b613d787fe39d8ca5713d70fb4156f3d399f6af266ae535d38312dae9f02c4c0af19564ef60001b613cbd565b600073ffffffffffffffffffffffffffffffffffffffff168373ffffffffffffffffffffffffffffffffffffffff161415613de8576040517f08c379a0000000000000000000000000000000000000000000000000000000008152600401613ddf9061a7e3565b60405180910390fd5b613e147f80282bd6d8408619cc82225378193d404442ad4ea03010cd558dfbcc1359b25760001b613cbd565b613e407fb0fd6bd6b2741758d3517d61c2d55a195f7fa9549f28328c50db7379115ef9b160001b613cbd565b613e6c7f4c9b4e859f2331071ff79735fa4a0a1727edafc8522282ea7de7a2332a91305f60001b613cbd565b613e987f383235e947a66b66879ef1c1da2583d109eeff97af738228c72172c386554d8a60001b613cbd565b600073ffffffffffffffffffffffffffffffffffffffff168273ffffffffffffffffffffffffffffffffffffffff161415613f08576040517f08c379a0000000000000000000000000000000000000000000000000000000008152600401613eff9061a875565b60405180910390fd5b613f347f249e85bcb55b1a3b86e9af0071e9839d0bb412ce8fa0c65d57580bdf46ea21a460001b613cbd565b613f607f09bcd605440ff9a6e83e692b637ddbdb99d65ee75f4b08487fa995c2baf990cf60001b613cbd565b613f8c7f1ab5e614141e1f7a19f81b55c417106b21569c0e75f766dadc53116d71bfbbbf60001b613cbd565b80600360008573ffffffffffffffffffffffffffffffffffffffff1673ffffffffffffffffffffffffffffffffffffffff16815260200190815260200160002060008473ffffffffffffffffffffffffffffffffffffffff1673ffffffffffffffffffffffffffffffffffffffff168152602001908152602001600020819055506140397fb83f3bf7be8691564c375083d42cda99b6658148e6b2e347a04a6f11da9d97e360001b613cbd565b6140657f2d2d55ab33c359a77742db7a5ac4681065e4ccd0e0e44ff191dbd5ac248e3a0f60001b613cbd565b8173ffffffffffffffffffffffffffffffffffffffff168373ffffffffffffffffffffffffffffffffffffffff167f8c5be1e5ebec7d5bd14f71427d1e84f3dd0314c0f7b2291e5b200ac8c7c3b925836040516140c29190619f9a565b60405180910390a3505050565b6140d7613cc0565b73ffffffffffffffffffffffffffffffffffffffff166140f5612f47565b73ffffffffffffffffffffffffffffffffffffffff161461414b576040517f08c379a00000000000000000000000000000000000000000000000000000000081526004016141429061a8e1565b60405180910390fd5b565b6141797fdf4d939c78a03920196f63f1e3832b2e5dcd09099990a27b2ad12ca279e9020f60001b613cbd565b6141a57f029a50bb378d65327e2aab816a313005d19e3b778b0323337a4a5246645f772360001b613cbd565b6141d17fca709db4de538ea74f803d5288530e4c4111afe31c0f4e0dc41b560acbe6e9ba60001b613cbd565b6141fd7f92921a0e9a97dbb3a321cc97baa13f94667120a996839b8ce98326441a192ba760001b613cbd565b600073ffffffffffffffffffffffffffffffffffffffff168373ffffffffffffffffffffffffffffffffffffffff16141561426d576040517f08c379a00000000000000000000000000000000000000000000000000000000081526004016142649061a973565b60405180910390fd5b6142997f4cb25c694d85b0eacaed193c357f8347004ffb6913900b69c2e7f3d436d058c560001b613cbd565b6142c57f7287c6a789824067f012974519809a228c3b5308a4fb4a9706b1accfc4c7c63260001b613cbd565b6142f17fa7e868a005084f2ae2907c57a90369f9e09ad45598554662a268a33ff6c260b460001b613cbd565b61431d7f5f0f9b95038ab34c2ab3f552ddbba98739cae767dd811833f6ce69d97db2dad560001b613cbd565b600073ffffffffffffffffffffffffffffffffffffffff168273ffffffffffffffffffffffffffffffffffffffff16141561438d576040517f08c379a00000000000000000000000000000000000000000000000000000000081526004016143849061aa05565b60405180910390fd5b6143b97fc6f44754ebb57fc41b8fc5801c844e0ef2625592946e9dae58ccdf28142f913060001b613cbd565b6143e57fb0b0f5756210f5a0943e47d70da0f649490d144db038f374375f1c1056d1258060001b613cbd565b6144117f072ab63035468178d3e6dfafc7e3a9ff0a72c88f17efb0e411ccf10c2fa997a660001b613cbd565b61443d7f05beaba06f4a50850d65b452ee6e3e1c28d6b74bab385b6b1234e888f081ab0c60001b613cbd565b60008111614480576040517f08c379a00000000000000000000000000000000000000000000000000000000081526004016144779061aa97565b60405180910390fd5b6144ac7f35b3fe81453a65a272a317d5059230d7e98b045fd9612141cf219bb5de57c13a60001b613cbd565b6144d87f720807627604dc16dc5b5b50184f65d82c7119784d557a5006cc87d938a881dd60001b613cbd565b6145047f3d7ffed432cab492d9d0e986f85e83cb97e135e7e559c0c454b0230440ad5ed160001b613cbd565b61450c612f47565b73ffffffffffffffffffffffffffffffffffffffff168373ffffffffffffffffffffffffffffffffffffffff161415801561457a575061454a612f47565b73ffffffffffffffffffffffffffffffffffffffff168273ffffffffffffffffffffffffffffffffffffffff1614155b156146a5576145ab7f6291391affb068eea416787f961e7e37b719778650bc0ad07444e332e49029a860001b613cbd565b6145d77fa70c93446d86ceb7b7fbd40bfe6da7e6c60ad108bc8421c0520715b9aee2e4a660001b613cbd565b6146037f0400c4287ef41daf87a3908dbae5cb65695cc0acbbe48755130a8bad1a3c718960001b613cbd565b61462f7f317d0db8e4312407fc95973e93255370a5bb481ffee5529927e6848a396b081160001b613cbd565b601654811115614674576040517f08c379a000000000000000000000000000000000000000000000000000000000815260040161466b9061ab29565b60405180910390fd5b6146a07f2410382936ae0c934bdf0896e59fba049f4021f6f9e98205cf10c4ee370998da60001b613cbd565b6146d2565b6146d17f103c55ca2714880f35a5f6a6588b79705d040397b94feb4ff4fb11a13e8627c960001b613cbd565b5b6146fe7f3356d4a4ef0ce4c6f02f70184073a9dc9fd11512c3e43329817bf74eb2d3091560001b613cbd565b61472a7f02f3b4f51a15cb41b8704baf6886190731020aceb2eb4de7813f1f5d2b8945cf60001b613cbd565b600061473530612b54565b90506147637f3ce5c7ff38f41d8a76c9655650e9c2eb4ca894de1c8eb901dd10cc11c4204a9360001b613cbd565b61478f7fa681ef7e897ed368ee180e909cfc1ae42bffcc85a48747101c6553a81f3f515b60001b613cbd565b6016548110614826576147c47f4e14ac0b77123689dbd33e94d248d07d21846e77df57a321da12ac25c5100f0e60001b613cbd565b6147f07fb7e2a30c293998ef88b02eee630d69ed03a36d8e296f53e60b1828261f204bc860001b613cbd565b61481c7fffbbabffc15ef4646a5ce15c406db356e833a5c1994f7e7b07133667783eb01060001b613cbd565b6016549050614853565b6148527f8d365d032aad02d680c43f818a4fc417df444d8ad063a06aaac6e103ff2d0d8160001b613cbd565b5b61487f7fee13dd7943f3b2e57a5651dc3f4d0245fbf8403cc89dfaacdc1f841be6b66e1160001b613cbd565b6148ab7f3315a44e7f23acee841c349cfe67e5e7f60c3a21f34773d1beb3cfdec12568bd60001b613cbd565b600060175482101590506148e17fa810a212523c03d920b028bdfdb5ae4c522cf7c87ce0a5ffc67e7cc56074c94860001b613cbd565b61490d7fba739a2c50295e42e2c494b44fd4852829b90fd326c8a72096e10f380b97dd1560001b613cbd565b8080156149275750601560149054906101000a900460ff16155b80156149815750601560009054906101000a900473ffffffffffffffffffffffffffffffffffffffff1673ffffffffffffffffffffffffffffffffffffffff168573ffffffffffffffffffffffffffffffffffffffff1614155b8015614997575060158054906101000a900460ff165b15614a8b576149c87f62f27e5991796469be780cdb4d870d8b142e729325e2835f4e44b8b47e4751ba60001b613cbd565b6149f47f661efe95862306dc57edea56f147c86ea939e4cbf4703e5c40df76f6b44b39b360001b613cbd565b614a207f16464b1f5411ece761eaf87f1f31a6bffbf8ffce239774cf9925fab2c460b08960001b613cbd565b6017549150614a517f2b4fc12f46fd3fc5c44dada75b415b1b5341b02cf21709524c62b257929083dc60001b613cbd565b614a7d7f406758a7953ac5c1a813406ea1116cd2aedb7ae181763cdbcf1d94f065a0487e60001b613cbd565b614a8682615126565b614ab8565b614ab77f2894db4dd40d9a354e919c7c4ef31da8bb638ebd8153115c5396bc89997eb20560001b613cbd565b5b614ae47fc57555e0a49a5d366973fb2abd10e1aa869f7cf1c1c44ef99582a4eb1be1ab2e60001b613cbd565b614b107ff05fb9ff1a377a60cd588bc74e688d85ff16fec6be2b4bb024855dbd825254cd60001b613cbd565b600060019050614b427fbc315d5b4e00593cbd0f23182380513fa3a9df0f203e4ed7740d3bdba22334b560001b613cbd565b614b6e7fa2420e3144dfb7875073f30cce7a32b1c9e271df7b8efc8532f57585ea537ade60001b613cbd565b600460008773ffffffffffffffffffffffffffffffffffffffff1673ffffffffffffffffffffffffffffffffffffffff16815260200190815260200160002060009054906101000a900460ff1680614c0f5750600460008673ffffffffffffffffffffffffffffffffffffffff1673ffffffffffffffffffffffffffffffffffffffff16815260200190815260200160002060009054906101000a900460ff165b15614ca157614c407f3a2350377716baf5ac6a562ac15c879887eff0b586bc6a260d15bcf9f7e0aab660001b613cbd565b614c6c7f1add649f89d5b26d309a8e17aeedf593d01e0233d25b0c74178603c83446fa0a60001b613cbd565b614c987f3e2dde6740c8853fd83b7b7a095dcc6092e5077ce4f42402a4c932719d8832b060001b613cbd565b60009050614cce565b614ccd7fc2192785b33b1741dbf7c7b5a241c59d20bf19fe63ddbd49d99158317ca1d82960001b613cbd565b5b614cfa7f3fd900cd11283879a5b537aca96b812f809e4160c9c16568d4bfb261cea3372c60001b613cbd565b614d267f7c8830ce0af66f47e958a5b764dba0459af50fca82f1b0de7d25b1b1799faabb60001b613cbd565b614d3286868684615a42565b505050505050565b6000838311158290614d82576040517f08c379a0000000000000000000000000000000000000000000000000000000008152600401614d799190619db3565b60405180910390fd5b5082840390509392505050565b6000614dbd7f33dfd51a42476ab8f19a7c266451157949f26895395a90e7797bf77b6cb21bff60001b613cbd565b614de97f33efa32055cab05ec7dc87e605683bfa6caa83836c38eee5ddbc8c66fe7f689b60001b613cbd565b614e157f96cf5313a1c849e0d1a87d2154d0aac01d7dfa099f6c413fa917391cbbe0f62360001b613cbd565b600080614e2061619f565b91509150614e507f29797027a7612eac56e604d2ef356c09286a1e5be6f5a2ad413ee98119d0c94860001b613cbd565b614e7c7fdfdebabc90ff500aa479a0e6228e662c82db73a6b7ccdf334ceb84812cecfdcc60001b613cbd565b614e8f8183614e9690919063ffffffff16565b9250505090565b60008183614ea4919061ab78565b905092915050565b60008183614eba919061a26f565b905092915050565b600080600080600080614ef77fb7fa99341a2f9d5e6f23c79563912512ddd24d573b03649f8db7233520d59ee760001b613cbd565b614f237ff46f6fe95fac7b310bed6eafd713b14648f778485682c4e83b34d4733adf520760001b613cbd565b614f4f7f3ada1a87c372095e3a2eba692e23a1611466b12f949fa2ca488bdf5d951c2dd960001b613cbd565b600080600080614f5e8b616846565b9350935093509350614f927f8b2cc052fd22b5a55e99c137d5b26526584c6188318560bffcf2f3da1c57e4b560001b613cbd565b614fbe7f496d932220cf307ba88afcfca2cb9241d77c1940ea68eeeb8d875e5d322b0c5d60001b613cbd565b6000806000614fd78e878787614fd2614d8f565b616aa9565b9250925092506150097fcef128e6bae047d2a25ffe55858071e33f4b18904fc8c8ab24f2422f86d4bb3060001b613cbd565b6150357f48f1c5442ddaa79f7a1d82b88f1e61a2079485c6c60083c9cde7683f153ff9a660001b613cbd565b82828289898989615046919061a26f565b9c509c509c509c509c509c505050505050505091939550919395565b60008060009054906101000a900473ffffffffffffffffffffffffffffffffffffffff169050816000806101000a81548173ffffffffffffffffffffffffffffffffffffffff021916908373ffffffffffffffffffffffffffffffffffffffff1602179055508173ffffffffffffffffffffffffffffffffffffffff168173ffffffffffffffffffffffffffffffffffffffff167f8be0079c531659141344cd1fd0a4f28419497f9722a3daafe3b4186f6b6457e060405160405180910390a35050565b6151527f8d8c8d266c24d394e49ab7a33aed95d4443400911c7b0fee524897fd652206ff60001b613cbd565b61517e7f49eb1203b1ae75c04d9ef7377570febfc8440295dd92d745d8a2c4ee9102b2f860001b613cbd565b6151aa7f0dfd75038c5726906d02ca71fe7b7e2074f76def3264714857f93aab0154ee7d60001b613cbd565b6001601560146101000a81548160ff0219169083151502179055506151f17f815c4bfd09aceb193539e1144a85c1dbaa959245049be80144893062df61a1f760001b613cbd565b61521d7f547fe4d292fa7157756f1fdbfacdd274234a3841aea7b98e2edb40f6146dd42960001b613cbd565b6152497fb61825b2d7540fd5d27a4147525dd887bde8532d1bf93af1a78017331ca226b060001b613cbd565b6152757fed4b86394bd9f1cc5bcc709ae95fcaed67f7c340a287a5d798458499e9ae1ca260001b613cbd565b60006152b4615291601254601054614eac90919063ffffffff16565b6152a660105485616d9a90919063ffffffff16565b614e9690919063ffffffff16565b90506152e27ff1861123e90dfb26c4fd4a20b3e5b82ce7c48ca5233cd008c388984f063b28c160001b613cbd565b61530e7fe4e77a986187ca3a8162974ee1d3548943bea84cbb45c557b75247ccaf7d0bc360001b613cbd565b60006153238284616db090919063ffffffff16565b90506153517f94e595ea4368f627d9b18a5fce7c69bfa91185dee56b72f186696ee17fb027ba60001b613cbd565b61537d7f07d77c8295093f40e776890c44f84ca725c35ec1b8ada341b53fedb2e79f9f0e60001b613cbd565b6000615393600283614e9690919063ffffffff16565b90506153c17f5cfbdbf238b378db65009c39c843d331e18b8120a18a968c3946de9be4d93e9e60001b613cbd565b6153ed7fc114c649d96630710250980a5759941e7be8cb9689c016a4cd42ea38a857d49060001b613cbd565b60006154028284616db090919063ffffffff16565b90506154307f3b0cc2f0fdddaa388e2693a0318daba951e7b74e67e1226539269814f744cf1d60001b613cbd565b61545c7f9a49b4a58a36ec0ebd8931e798ccfc696ac4e4e92fe78892a628deb78dc33dcd60001b613cbd565b60006154718584614eac90919063ffffffff16565b905061549f7f6c26a14d4a4170329734030d39757eab70c5c8e6bbd60c4d8fd70a11b21aa3b360001b613cbd565b6154cb7f0b339ad4d7f501ffa7be1fadf2285849bd2ec035efbbb46d26476da99cde829860001b613cbd565b60004790506154fc7fc06d597268c61491cc85e93cc036525a3b4317c5ed28e425f2992cbe27c45a0a60001b613cbd565b6155287f8df7c8b29af94d820bb19a0840c73ee7a23398117fc3a75b140803ad8008252260001b613cbd565b61553182616dc6565b61555d7f4f297eccfea44059dc68467f3fa6a506816bbcf9ebd43ca0e88116c0d324bb7660001b613cbd565b6155897f438645871ce3f09b924f075529829436150eef033250968b906826c2da863e3d60001b613cbd565b600061559e8247616db090919063ffffffff16565b90506155cc7f196688e0d18ae981ed0b945fcb37d9248db1255580bc8c2a2e95101546b641da60001b613cbd565b6155f87f97947baeb2453439e36ae955643a5e1dc557a7f8fef8e40f953d4f109ae89f9b60001b613cbd565b600061562a8689615609919061a26f565b61561c8a85616d9a90919063ffffffff16565b614e9690919063ffffffff16565b90506156587f33e9692c1d44c57e2be2afa1d6f7b6821276ecf2ccef37fb97164a6d090dc4a560001b613cbd565b6156847ff9eef03e80be7b4b8af9fe1faa0fedad3c67cae361ba830fbcf47780c920dd9260001b613cbd565b60006156998284616db090919063ffffffff16565b90506156c77f0ab4ed4462a65e3c0aa5413f0c8eff65c7bd97857d5ad8a9dfed6624cc38c88760001b613cbd565b6156f37f425aeae80ff92bd7bd4ce6576eab010c027e30b4b966bd66fad648ccfe43352060001b613cbd565b60008211156158a1576157287f627f186b7629ae5167d5b39e3c7991348a305d6a69bb20963e8e7229fc7691c860001b613cbd565b6157547f95a5f515a772cee92225b8c2c5820270060feb0793f8cb17fb3a974e471737b060001b613cbd565b6157807f5addda4e3961c32e1c0b3630415311daae24e7ad122838b7b861467ec2f9929760001b613cbd565b600760009054906101000a900473ffffffffffffffffffffffffffffffffffffffff1673ffffffffffffffffffffffffffffffffffffffff166108fc839081150290604051600060405180830381858888f193505050501580156157e8573d6000803e3d6000fd5b506158157f5f8dc5b7fe722129e94ab9316fdad80e49f58f4ec887330d573dd461d3b59fb860001b613cbd565b6158417f9f4529904d61f0fcf51770a91ea2acd05e59ecba2b8e6e3378523b700ba2be3e60001b613cbd565b7ffd581ed4b14aa526b334ee3509a6979a356edff4ca4233a58e8b2a12a2e5a493600760009054906101000a900473ffffffffffffffffffffffffffffffffffffffff168360405161589492919061aba9565b60405180910390a16158ce565b6158cd7f6c0929bdf3704e64fb97c579ba0e7f1a4732f70d0e4e7ccc80de17fe15443dae60001b613cbd565b5b6158fa7f8694438416c41e6db2efbd732b022098f2fbe25d33f35d96e47c936c7fa0b8da60001b613cbd565b6159267f66bceba13c5b5b2eeec02c6375cbf688527eeacc8ad2d0341617e80d6dd470d360001b613cbd565b61593086826171f0565b61595c7ffc2400b9d858e35a91aa04dc657f92b3ceacafbc80addf2d60721406fb46b65b60001b613cbd565b6159887f77e1b27f0d181e63d312d93ce683aa9d77bbf2c8de503c485e1411ddeda39c2260001b613cbd565b7f17bbfb9a6069321b6ded73bd96327c9e6b7212a5cd51ff219cd61370acafb5618782886040516159bb9392919061abd2565b60405180910390a15050505050505050506159f87f6dac365559e8068b235e5dc2e6f58e822596cf7633867c54b9ecc15d0b79717d60001b613cbd565b615a247f56fb5cc60dfdb770f1f9c64b749f0df844f1ddf39711afd1a0c513d2d2561d9860001b613cbd565b6000601560146101000a81548160ff02191690831515021790555050565b615a6e7f3ca4516a5034904b179acb5fc5e312459957246a0dd723833f4fd85b8e5326b760001b613cbd565b615a9a7fca37ed8d047653f32a9162c2946e31d61ed57376b97e833eca30c16ec357314c60001b613cbd565b615ac67f7d85f391a80b4ba3c97e08bb355157ddca45cbb11942fc286fd09623748fc31f60001b613cbd565b80615b3057615af77fd2d3bc7a3f2f8836c11e3600b5d17654f2b6bfd785cbbd4fec2d5946f699263d60001b613cbd565b615b237f148cdaff9dbe02a24ef185090c94cd24b93714d809aa91dde5a5e995260e189060001b613cbd565b615b2b6173ad565b615b5d565b615b5c7fbf00545a23c428006a94677c0b7d8beab43051d6d6dcbe0eae4eeffe656bef2b60001b613cbd565b5b615b897fc444d948b7c116afe8b27808a0883d0078bbc08631d6235a25a01482b0b29ce760001b613cbd565b615bb57f82e3fbb754afe78fa217702c5fac0bb4975b8dfe215a778b5142d435243baf1560001b613cbd565b600560008573ffffffffffffffffffffffffffffffffffffffff1673ffffffffffffffffffffffffffffffffffffffff16815260200190815260200160002060009054906101000a900460ff168015615c585750600560008473ffffffffffffffffffffffffffffffffffffffff1673ffffffffffffffffffffffffffffffffffffffff16815260200190815260200160002060009054906101000a900460ff16155b15615cf157615c897f20479c3c0ce0c05ba1f4be657edb3f0332b40296d9e658aff2b18f3b230d629960001b613cbd565b615cb57fdfedca9c6a610979c4534893ba73cc876272488eeaba13ef8f9257da7b2b328f60001b613cbd565b615ce17ffe58773923f8d6ce25eafcdaa9b684a57492c6f1e5c8e2d85b4aa035c55b52ea60001b613cbd565b615cec84848461761e565b6160aa565b615d1d7ff8058e6516b74b2621b52d9d7e0a427a4110b38ea5f2ee64f21064cdb0cd4ac560001b613cbd565b615d497f502a03cc46193f2df01cf7b529da1dcca5b05620cde6c602ef73676993dd714960001b613cbd565b600560008573ffffffffffffffffffffffffffffffffffffffff1673ffffffffffffffffffffffffffffffffffffffff16815260200190815260200160002060009054906101000a900460ff16158015615dec5750600560008473ffffffffffffffffffffffffffffffffffffffff1673ffffffffffffffffffffffffffffffffffffffff16815260200190815260200160002060009054906101000a900460ff165b15615e8557615e1d7f18d1b9dd1bcb41eeb9191aadb0b6d2e0e29ef322519b4b4286a6e6f016848d1360001b613cbd565b615e497fc844f03c3a216eea6368a83403c1376c20c8607248a852a6f8cf54461837ff8a60001b613cbd565b615e757f47d6022463d112675682fa95bdfee1ed4a5402393721592b2065c984924692e660001b613cbd565b615e80848484617b80565b6160a9565b615eb17f68aecff3f2c20c8b6e44443148179d52abb9616b7b0aeacadfbbcc5bd659e3dd60001b613cbd565b615edd7f29077d1071ea4602fedaf1a76f75757b53bed51b4a1719cd9446dff022a4671a60001b613cbd565b600560008573ffffffffffffffffffffffffffffffffffffffff1673ffffffffffffffffffffffffffffffffffffffff16815260200190815260200160002060009054906101000a900460ff168015615f7f5750600560008473ffffffffffffffffffffffffffffffffffffffff1673ffffffffffffffffffffffffffffffffffffffff16815260200190815260200160002060009054906101000a900460ff165b1561601857615fb07fa5bbb8854082144e12f8e2d8021ef98c5cc502b9e0783876fad3b502b6c6426c60001b613cbd565b615fdc7feb9cfa9b26db5c773b98c014013d660e207c559ad156f8149c9be5f271d0940c60001b613cbd565b6160087f44bc377e9f90ab094c15e1b66cc5025da443b6c44a87c1a09cd5bf9f8155521960001b613cbd565b6160138484846180e2565b6160a8565b6160447f6606529604567f8248a8737472b17ad7a2d023fc01b20aa77bfae7926544403960001b613cbd565b6160707fdedc9a0be65af7138e68cf6985ede3b37ea012cfe15e10d2b4166b3a59e8cb0d60001b613cbd565b61609c7f538435ed29002f3ab114e5ae14f49b6091bb2ff1c7e75ef0d7c8fb8740bd810560001b613cbd565b6160a7848484618731565b5b5b5b6160d67f2b3078cb6802a76542c348036ab097737e79806855f093fd5f2a497caed1fad960001b613cbd565b6161027f2c4134a527a7b5c318394d6671ce634a8c2918772732be174592ea2d4e6772bf60001b613cbd565b8061616c576161337f04901e86309737a6a5ac6663c928c0552031b157ec69404e0732feec80b3e8d760001b613cbd565b61615f7ff9b21cdf82b48de9eb556d02ceaa4f2f71609eb22253c0a9d382461a6870775860001b613cbd565b616167618ba6565b616199565b6161987f8e25326fcbde6bc1ca8dc033989bfca4f872af1e931ce201c2b3041f07dbd36960001b613cbd565b5b50505050565b6000806161ce7f03a6c6b0eff38aa3947f9fa0fcfa7c79903a85f98616707ced717f5e7f04649560001b613cbd565b6161fa7f6c30d00b542934ccd4cde7fa9b330f80856453a34dc78bf5253354f89e05448060001b613cbd565b6162267f76b2c184bbc2a4bec988dda95f5275fcc808e771d02e57245ccbd7cc4504ea3a60001b613cbd565b600060095490506162597f0cceaf2b402678fd5ba1435c0d20a2aeee50020c5687857ee810b6516648a89060001b613cbd565b6162857fdfa38cd52f1a410239cdb61b653d4d845f5d0bab2ddb2647a71b700d1c64ffa460001b613cbd565b600060085490506162b87f50f27cf535c8d4ced0b588ca02268b1537ff53c434d096fcc5fa640599d5b22860001b613cbd565b6162e47ff1f29576edf1ad95ee389996c0b438c87520d61620814b5b0653326132ca398a60001b613cbd565b60005b6006805490508110156166d5576163207fc15eed4e03b65197ea2abb998c2cf2d8e33a0209547c33952353a3fdea568eec60001b613cbd565b61634c7f27d6e0660997452dab4a660b13bccb546511eb8b15e0e00e0610d3a9112ad39260001b613cbd565b8260016000600684815481106163655761636461a42f565b5b9060005260206000200160009054906101000a900473ffffffffffffffffffffffffffffffffffffffff1673ffffffffffffffffffffffffffffffffffffffff1673ffffffffffffffffffffffffffffffffffffffff16815260200190815260200160002054118061645357508160026000600684815481106163eb576163ea61a42f565b5b9060005260206000200160009054906101000a900473ffffffffffffffffffffffffffffffffffffffff1673ffffffffffffffffffffffffffffffffffffffff1673ffffffffffffffffffffffffffffffffffffffff16815260200190815260200160002054115b156164c2576164847f550e9bf1d7e5b09fd59396bd1701a4cc6c2d3daa98d6217706f788b6395b4a2260001b613cbd565b6164b07f7003aa0cfba75cde6ecffb972d6f2b66f067cb788e264c14e1b30ace1d9034f960001b613cbd565b60095460085494509450505050616842565b6164ee7fcaa70731d676ec76738e48e6b53b8a458ca66b44e3fbcc5316ab66870d13e66460001b613cbd565b61651a7fb4520298699a0d6f1195904b944e66b910aaebb9d31646e42b1d0098a3b3f69760001b613cbd565b6165467f174c00759840953fc85b28b304e13c5e7416db1fe2f77bc81f5e5ce1472c176260001b613cbd565b6165d660016000600684815481106165615761656061a42f565b5b9060005260206000200160009054906101000a900473ffffffffffffffffffffffffffffffffffffffff1673ffffffffffffffffffffffffffffffffffffffff1673ffffffffffffffffffffffffffffffffffffffff1681526020019081526020016000205484616db090919063ffffffff16565b92506166047f4e081688f348fb544e31c8922032a94c62ca34e529b1cdde1b5bc153531472b460001b613cbd565b6166307f1ac774b8907016d1628e88b05973a6c5c5d4e08029662b7e519f616149f0194860001b613cbd565b6166c0600260006006848154811061664b5761664a61a42f565b5b9060005260206000200160009054906101000a900473ffffffffffffffffffffffffffffffffffffffff1673ffffffffffffffffffffffffffffffffffffffff1673ffffffffffffffffffffffffffffffffffffffff1681526020019081526020016000205483616db090919063ffffffff16565b915080806166cd9061a4c1565b9150506162e7565b506167027f788345876d287cfa78f6b92584f86141b8d448ce7c70e53681996c026742c28260001b613cbd565b61672e7ffb8d5c324312961b8677ac8f4505229c243d0994323a0166fe5070204c8b255860001b613cbd565b616745600854600954614e9690919063ffffffff16565b8210156167b5576167787fcbaae3bf761af14a3920b77745b6dd1748ed813e95571c578438172e35ebbc9a60001b613cbd565b6167a47fd5fd435f040957791c7af53b6834ba30aaad4600aecfdeb1c8b65fcd03eaf2ee60001b613cbd565b600954600854935093505050616842565b6167e17f198409d27cd1178fc61d39833a828c5e1ed9e0f50ef93d04d842657eaeaf7d6360001b613cbd565b61680d7fb68a3651920fcf3a948975ff4b4fb4115abf67f093b686fa8acc04be58631f1e60001b613cbd565b6168397ff82f5e627a4c35a5644562fc6d214e02ae4cdee21ccbea1e4426a8040af0be4160001b613cbd565b81819350935050505b9091565b6000806000806168787fccfddff535eacb34579e222502a5ec8bd5f34bc8033ef2d553cc529a2be5e40b60001b613cbd565b6168a47ff982d88c0110519ede7e4d78cc9bf121156d7a2d10bb6e66e2730e087443fbd760001b613cbd565b6168d07f456cbf3fadcf747862797960f3a2f9a41dfb31d87b5f3e853be957e47c4fcb7c60001b613cbd565b60006168db86618cf7565b90506169097ffab5efa24692125b36f9b620d9233e2ea64f106b6ca9ef36131446e71b29dc5d60001b613cbd565b6169357fb7ff46d8c9a21b8169c2c2d6e831a4d0261267fbdc1d8f2d2e625978c684ed5f60001b613cbd565b600061694087618dac565b905061696e7fb90d418ea8cc41d14087051a3a910c249a9482221067cdc5b006e76b6cf67fe760001b613cbd565b61699a7f7014d5afb1cf9cb343e3ac9e475e45a88cb07599e03e12d0dcf6e41cba941a4560001b613cbd565b60006169a588618e61565b90506169d37f39dc17197fb2bfbfe8dd66f0146cc9995041f7f3ec0f2a0ce4845edf818c0f7160001b613cbd565b6169ff7f92383df1fb4d68de4a20831be343b5ec4bb69142456c817a4e243fbaac92915060001b613cbd565b6000616a3882616a2a85616a1c888e616db090919063ffffffff16565b616db090919063ffffffff16565b616db090919063ffffffff16565b9050616a667fbc2c553aa22e23b1798825ba5c90e2b4ad46915839db4283c9ae0ebcbf5db9bf60001b613cbd565b616a927fb26f9bd794501016d629c17ffac72ca9d5b971042cf8d9f236a4e42e3799c31660001b613cbd565b808484849750975097509750505050509193509193565b6000806000616ada7f7029a4fc79cae0cb0bdae0015e3534731de718ec4ef44f10d39597aadd65053f60001b613cbd565b616b067f1a49f8c843669464b68678c8c15015c22894808bef1a98b5987ac18a610a8c9f60001b613cbd565b616b327fff79221ce9be970cf105c038ba2077cace168e09611302d8a2742dab1867411a60001b613cbd565b6000616b47858a616d9a90919063ffffffff16565b9050616b757fe8d325966f6a8ec42737a2ef97f42dbb2beb4205c27ead6d024627c5d56c35c360001b613cbd565b616ba17f1abdee33fe3f47fa2928ea3a6c4916bea9aa5631dee31418c8fa6fc33931003060001b613cbd565b6000616bb6868a616d9a90919063ffffffff16565b9050616be47f9fac28604fd9e0b022c01505ee6381e7b336cb80817faf709d207b2296860a8b60001b613cbd565b616c107f3a36e2394e46c9942447af7c3057a3a4399b6f206a7fa3aec4fb7614f408b56060001b613cbd565b6000616c25878a616d9a90919063ffffffff16565b9050616c537ff05f040b101bb64ed931d9be50dd494e93a337225023c8608644a41c835f5a5060001b613cbd565b616c7f7f94b7df96592fc181f1ac699043bfd614812d6604fa9666ab70c22cdc30aab14f60001b613cbd565b6000616c94888a616d9a90919063ffffffff16565b9050616cc27fc14d4ef81ff0b09abd1253483b86c56ad73837ed9b2db38d7d0dcecfef84618460001b613cbd565b616cee7f733444efb6d44b335efbd67ba98c04054ab3a28cb04edea65424adee9e34c2f660001b613cbd565b6000616d2782616d1985616d0b888a616db090919063ffffffff16565b616db090919063ffffffff16565b616db090919063ffffffff16565b9050616d557f1e8e7477fed373968ce7f193de8602932ac04ab1ae48d2f40f908d92fa870d0260001b613cbd565b616d817fcd3ad27791aa8f52b93919708365ae47e83816e6ba9fb29c042a5cbfe638b7ae60001b613cbd565b8481859750975097505050505050955095509592505050565b60008183616da8919061ac09565b905092915050565b60008183616dbe919061a45e565b905092915050565b616df27f9df6cc130d6a1a26cec258ce5d87f541c16d550a9212b5cd1d06c568ab7b6c4560001b613cbd565b616e1e7fe2c4f1d3d9958f6ef8878857b664f88aa2096fc8b1c0992e9b74f80aa76869d460001b613cbd565b616e4a7f62419cb23160b39556f0e969731963602a0aae57e7d5d59d67ab91e0f449c27960001b613cbd565b6000600267ffffffffffffffff811115616e6757616e6661ac63565b5b604051908082528060200260200182016040528015616e955781602001602082028036833780820191505090505b509050616ec47fb7fe72e9f7b5776852e1541d9c0720e846d8254e53923e9e5afffce36a3399ba60001b613cbd565b616ef07f74f0b6d19ff4da74962a3e678fe67f3fb809455528ce36a9bae387364dcd46e160001b613cbd565b3081600081518110616f0557616f0461a42f565b5b602002602001019073ffffffffffffffffffffffffffffffffffffffff16908173ffffffffffffffffffffffffffffffffffffffff1681525050616f6b7ff454667f02a8b00a19d0bec4f0aa23d6f5b11729db175ca10885ce3cf36caa4060001b613cbd565b616f977fd08b1f45ec7f8a8740c28378939cc5c0485b3294e52c7be44a22e49c770a669960001b613cbd565b601460009054906101000a900473ffffffffffffffffffffffffffffffffffffffff1673ffffffffffffffffffffffffffffffffffffffff1663ad5c46486040518163ffffffff1660e01b8152600401602060405180830381865afa158015617004573d6000803e3d6000fd5b505050506040513d601f19601f82011682018060405250810190617028919061a51f565b8160018151811061703c5761703b61a42f565b5b602002602001019073ffffffffffffffffffffffffffffffffffffffff16908173ffffffffffffffffffffffffffffffffffffffff16815250506170a27f7b9c215d49ef22bc5ae1f2228a9a58ae1d3a2d26b1d0adfd27f87d936cc5d2bc60001b613cbd565b6170ce7f68b195e03f4d1c419a11a104ea4555c3a67489e73bb98273c4603965bc85907760001b613cbd565b6170fb30601460009054906101000a900473ffffffffffffffffffffffffffffffffffffffff1684613cc8565b6171277f864880007539fb8cc821e71215235926b7976b37ac31623b2dbb900af35fca3e60001b613cbd565b6171537f420654ecdcc7d5187f488096d99ce4050efa19c69de393e96e6f2cab7256da2460001b613cbd565b601460009054906101000a900473ffffffffffffffffffffffffffffffffffffffff1673ffffffffffffffffffffffffffffffffffffffff1663791ac9478360008430426040518663ffffffff1660e01b81526004016171b795949392919061ad8b565b600060405180830381600087803b1580156171d157600080fd5b505af19250505080156171e2575060015b6171eb576171ec565b5b5050565b61721c7fc2c3776330981f575b2eaa4331b4711dddd2e1a14041d2935cb4622f035cfb2060001b613cbd565b6172487f867527762df736e36467dc972fd2ed5c05e2e2c9ac9ce7081765437d531710f060001b613cbd565b6172747f5649d53e9f1bfa1bf836c7cd4ab8439143ef608a76c85a7e2e38338e12cb20c360001b613cbd565b6172a130601460009054906101000a900473ffffffffffffffffffffffffffffffffffffffff1684613cc8565b6172cd7fc56233a3785e0e2a15ed480daac5bc5af36f182da3eec94b1640f8995dbaf19960001b613cbd565b6172f97f667f2f6b3af37849c0de12667b112e587096ffac52a0acd23589755f89c3f4f560001b613cbd565b601460009054906101000a900473ffffffffffffffffffffffffffffffffffffffff1673ffffffffffffffffffffffffffffffffffffffff1663f305d71982308560008030426040518863ffffffff1660e01b81526004016173609695949392919061ade5565b60606040518083038185885af19350505050801561739c57506040513d601f19601f82011682018060405250810190617399919061ae5b565b60015b6173a5576173a9565b5050505b5050565b6173d97fdde58cc06b5c5824d3aca27af99544d10410754df035db3f4663d32e3ff3b81b60001b613cbd565b6174057f3b72c37b62d24cc9775e84cec8a09eaa75b80df9ea21d6467d5c89fc3dace8ef60001b613cbd565b6174317f3234cfa9b6365eb8b5f74875384a2169fa04f683195c1dc7447cfab441f7f00960001b613cbd565b600e54600f819055506174667f2d9c60b3d0e2afb96105fd57065bf50b4a03eaa6ac162bfcf460fca5ab2baf1660001b613cbd565b6174927f7bd854d5846cd008590ad1f7f928ac734de9ce5ff022397a36bca44298be42e960001b613cbd565b6010546011819055506174c77fc8a44a481a1f92158e6e3b39a86d85e0dc4ced2bc9443335cb8eae2d77e7beac60001b613cbd565b6174f37f256c171acb2a05785b60a3c2ee06941f8afb259b6c8bc8dc25cdbca61ebc373260001b613cbd565b6012546013819055506175287f01dfa8c0eefb0595b6c6e1035501e4e67fc27ca6090ea32a8e2a5d3e5f15b63a60001b613cbd565b6175547fc0c12aa0dd6005bc60984e7bb26a5fb233aada9e0ff92a4b1562f4d4d416f5cf60001b613cbd565b6000600e819055506175887fde73a0d2ff32e83a4b7cdd7d6d25665760a16dbaea3626a28453c376ce92fef160001b613cbd565b6175b47f89c103e0954c667fb24700b64a3e39a7090c1ac8f4450ac67ac90e421966027060001b613cbd565b60006010819055506175e87f9a708a5c2e6eff2f250eae925011992b4f01a7566c7b756bfd68ab81690742e760001b613cbd565b6176147f6753b3458b53dbe04f163c25517b9ea807fcfe1d1a62b336c876a72ea99b527a60001b613cbd565b6000601281905550565b61764a7f4e5bafc439f6208290aba39fd405bac8b9d311ec1861d1e56bc02aeb408ce5ad60001b613cbd565b6176767f6c6513e89319dee2b780b87a5e66f84d8535024109b7cd2f4ddbfba4016776cf60001b613cbd565b6176a27f3f2318a8780b50b88e5a25c1215b0c03a090556fb0695077f8e2021129f4237860001b613cbd565b6000806000806000806176b487614ec2565b9550955095509550955095506176ec7f0590347ca15eb808626047367250158bc88e18cae7ef44c75a7507eb46cc0bf260001b613cbd565b6177187f98eb2df1e687866a1f54f0f615ec262ebe1317bd8f1b36e9b081cd6e5d954abf60001b613cbd565b61776a87600260008c73ffffffffffffffffffffffffffffffffffffffff1673ffffffffffffffffffffffffffffffffffffffff16815260200190815260200160002054616db090919063ffffffff16565b600260008b73ffffffffffffffffffffffffffffffffffffffff1673ffffffffffffffffffffffffffffffffffffffff168152602001908152602001600020819055506177d97f830c71384835e1845005c32e3a2920a1703e2aa5169909c7f50ac5bd6f35b07560001b613cbd565b6178057f88d819fc0c24a5dae6a10a4b302f945ee448ffcc6d84a4d903e902b8991bef8160001b613cbd565b61785786600160008c73ffffffffffffffffffffffffffffffffffffffff1673ffffffffffffffffffffffffffffffffffffffff16815260200190815260200160002054616db090919063ffffffff16565b600160008b73ffffffffffffffffffffffffffffffffffffffff1673ffffffffffffffffffffffffffffffffffffffff168152602001908152602001600020819055506178c67fad04f00c83bcb79e2eb87193f1e50fc41009cb7452c209080522c4c36e36cdc060001b613cbd565b6178f27f71ee732781b8a588effbf3e58e87da0e42b79cfe13c154e3688f2a710ce8227e60001b613cbd565b61794485600160008b73ffffffffffffffffffffffffffffffffffffffff1673ffffffffffffffffffffffffffffffffffffffff16815260200190815260200160002054614eac90919063ffffffff16565b600160008a73ffffffffffffffffffffffffffffffffffffffff1673ffffffffffffffffffffffffffffffffffffffff168152602001908152602001600020819055506179b37fd20cf0acee14ec250bd5b05c6d589f39642f88e4a510ee8736e0636b936c22db60001b613cbd565b6179df7f57e2dec013009ae121177a6e4cb71e3aaf8290dd944b4fd7bc21a900c7ee9cba60001b613cbd565b6179e881618f16565b617a147f5f35214227b0b9ad47ec97910d1e58877ac50c96b3c8bf06a632ecbff105434960001b613cbd565b617a407f3fe5d7ea0689d4566d5aa5d529ba82e151f003c883c1fe06df42a00ed3fb326460001b613cbd565b617a4a84836192fc565b617a767fffdb2d3a787665b24a88bca351f7b50e67523a76ebbc995ee6f420fefe73ed8c60001b613cbd565b617aa27f82d11169602738ca0f2125da50caa74026706dac23c2d3b9532b9043e2cad52060001b613cbd565b617ab889898385617ab3919061a26f565b619412565b617ae47f2c3ae883f5ae5e7ce5e7c897460e36df4908a3acd7908a43ea88082845bded8a60001b613cbd565b617b107f412b7c18fd3cce0f1c30f3d5764c33ee5651bf7a9bf95cb897f04b39f96868aa60001b613cbd565b8773ffffffffffffffffffffffffffffffffffffffff168973ffffffffffffffffffffffffffffffffffffffff167fddf252ad1be2c89b69c2b068fc378daa952ba7f163c4a11628f55a4df523b3ef85604051617b6d9190619f9a565b60405180910390a3505050505050505050565b617bac7fe124afd1dff40faa322e025a7633c814868249e05c03e3cc4caa6cca5533ae6a60001b613cbd565b617bd87f01b330cb879efb5376c7bd2bcc3dafe8aecdd44982f1ca37d9d2c80607ed118760001b613cbd565b617c047f4b71a2323a63bbc5052682ec6058cb56db125ce875331e71daa8e54e2ebee8f960001b613cbd565b600080600080600080617c1687614ec2565b955095509550955095509550617c4e7fe160eed9f454db6a63f400690243454644644e94ea30621cd852e330957f6f5960001b613cbd565b617c7a7fb4fd74b59f6132c19946466b1cae60acbe272f275fef84424e9626a325bfa2bd60001b613cbd565b617ccc86600160008c73ffffffffffffffffffffffffffffffffffffffff1673ffffffffffffffffffffffffffffffffffffffff16815260200190815260200160002054616db090919063ffffffff16565b600160008b73ffffffffffffffffffffffffffffffffffffffff1673ffffffffffffffffffffffffffffffffffffffff16815260200190815260200160002081905550617d3b7fe9f04d5c87a3672617ae8a06df531f2ec263127cb05ae907cdaac79c9288b20660001b613cbd565b617d677f1e8cdf2a61ded9aed9f88c6bb509a24aa0746279553cad044dfb3efc52dbcb4b60001b613cbd565b617db983600260008b73ffffffffffffffffffffffffffffffffffffffff1673ffffffffffffffffffffffffffffffffffffffff16815260200190815260200160002054614eac90919063ffffffff16565b600260008a73ffffffffffffffffffffffffffffffffffffffff1673ffffffffffffffffffffffffffffffffffffffff16815260200190815260200160002081905550617e287f5574965add3b54f92a71004190e4a6ab790b1def13964b1cd25bed114055ad1660001b613cbd565b617e547f79adfb08fb33970f23f707dfa77e9010ea0080264c2a7ccfbe9ee70408fd990d60001b613cbd565b617ea685600160008b73ffffffffffffffffffffffffffffffffffffffff1673ffffffffffffffffffffffffffffffffffffffff16815260200190815260200160002054614eac90919063ffffffff16565b600160008a73ffffffffffffffffffffffffffffffffffffffff1673ffffffffffffffffffffffffffffffffffffffff16815260200190815260200160002081905550617f157f5d32fb2e783c7964a224f33287bfcd017c6909654ac639ea8b19138c4776a56460001b613cbd565b617f417f0f49627c22e7e45b480b351e284132ca20dca054bc412ed30b5cdf2144727a2660001b613cbd565b617f4a81618f16565b617f767f925deb2acbccc05b4201dd27a14f0d5b158e1e93ee0e4876f74628f2c881c23e60001b613cbd565b617fa27f1c04662b374242f7cc87cb078355b78d935989e7d35267d9151fc58aee0e8e8560001b613cbd565b617fac84836192fc565b617fd87f2e92cc8efd1ff68abb30f27931a688859cb2923c037f180ea4b24f608c69113960001b613cbd565b6180047f5c43e1a462fb078d3c369c67702754c5ba2e7bd397f7ca9b1f198b221d92c95760001b613cbd565b61801a89898385618015919061a26f565b619412565b6180467fcb743bc4e8948cb597e62aeb0d2c3e9043250d262d8472f2b228afbe88a3534060001b613cbd565b6180727f2e46e691b6de08e7936eaa0baf6c6dbdfd2314133ac379fe6cdb8477392ac73a60001b613cbd565b8773ffffffffffffffffffffffffffffffffffffffff168973ffffffffffffffffffffffffffffffffffffffff167fddf252ad1be2c89b69c2b068fc378daa952ba7f163c4a11628f55a4df523b3ef856040516180cf9190619f9a565b60405180910390a3505050505050505050565b61810e7fbbe0e517086356c6ea3aa120e9de13cb5d2897d98603600d5ba8c11af941caeb60001b613cbd565b61813a7f4c4b54ee7d5707481189f962bbbc6f6b9e1c0a4295ef8cc06a7eb610a395e43260001b613cbd565b6181667ff817ee90bd3c49adc4319103b8762997fab850526665037fa2db372adc0f89c260001b613cbd565b60008060008060008061817887614ec2565b9550955095509550955095506181b07f350ccc54a0e0e0b349f0f024f9b37e5950dd26ed221690c2413c30c5814709c160001b613cbd565b6181dc7f032bf132d1ab18efe29e5e6058f47860e85381325bbf52e098c08dcf277a8d4860001b613cbd565b61822e87600260008c73ffffffffffffffffffffffffffffffffffffffff1673ffffffffffffffffffffffffffffffffffffffff16815260200190815260200160002054616db090919063ffffffff16565b600260008b73ffffffffffffffffffffffffffffffffffffffff1673ffffffffffffffffffffffffffffffffffffffff1681526020019081526020016000208190555061829d7f757ccc9ed4b3edf80b7501e758081f53ce9f57dba2d910173a07dcffdad0450460001b613cbd565b6182c97f99ca620173ae206827d825239df439bed5df367230c64846b09851b43d1ea6c860001b613cbd565b61831b86600160008c73ffffffffffffffffffffffffffffffffffffffff1673ffffffffffffffffffffffffffffffffffffffff16815260200190815260200160002054616db090919063ffffffff16565b600160008b73ffffffffffffffffffffffffffffffffffffffff1673ffffffffffffffffffffffffffffffffffffffff1681526020019081526020016000208190555061838a7f8210d177b26d40652c197980eeeb9453402377e303601d1fb0ddaa4cfa99105c60001b613cbd565b6183b67f7db0cb931bee0d5c872692bba0171ccc98145b6cd64d957b748b2a42e823795a60001b613cbd565b61840883600260008b73ffffffffffffffffffffffffffffffffffffffff1673ffffffffffffffffffffffffffffffffffffffff16815260200190815260200160002054614eac90919063ffffffff16565b600260008a73ffffffffffffffffffffffffffffffffffffffff1673ffffffffffffffffffffffffffffffffffffffff168152602001908152602001600020819055506184777f66d57d9b600cfc384ae681e1932ddef33c1f8b281ae1c46a09cc12894611d43260001b613cbd565b6184a37f094e5359575cabccefdba6f31c1d16103976592bb9c5467ab5c0b1ceb034e3bc60001b613cbd565b6184f585600160008b73ffffffffffffffffffffffffffffffffffffffff1673ffffffffffffffffffffffffffffffffffffffff16815260200190815260200160002054614eac90919063ffffffff16565b600160008a73ffffffffffffffffffffffffffffffffffffffff1673ffffffffffffffffffffffffffffffffffffffff168152602001908152602001600020819055506185647fbe372ecc30de15ae93d90f2b5f9da16647442ad5269ce7398db73ecab9b01ef360001b613cbd565b6185907f453d95cb4845f7da9fe8e6d5a9e130cac39e06c2e5bbe9c264d911002386417460001b613cbd565b61859981618f16565b6185c57fdde6357a63c2fc0b3f3b3d997609b46091f2fb03945afcbd826d87e134af8dda60001b613cbd565b6185f17f2b28687e2b8bd344a81e61c619db83e294ecaf23651166a69b322568916a238760001b613cbd565b6185fb84836192fc565b6186277f4e417092cd8fd423c5ee9666d8544049ec6576d1c40548bb2bec5bd61fd9a90c60001b613cbd565b6186537f22119d333f461bb23bc59be354b1f06c670d5ac9ef9ae4001c1d710c6731323860001b613cbd565b61866989898385618664919061a26f565b619412565b6186957f4a06394b2cbeb241ec80195d6a2da7daaedeeebedbf2b8bd439968a5bb5209eb60001b613cbd565b6186c17f5b942fab5d7ac514e88c50aa1e2a09197a5ac9d93826631cc672c7d3443ee9fc60001b613cbd565b8773ffffffffffffffffffffffffffffffffffffffff168973ffffffffffffffffffffffffffffffffffffffff167fddf252ad1be2c89b69c2b068fc378daa952ba7f163c4a11628f55a4df523b3ef8560405161871e9190619f9a565b60405180910390a3505050505050505050565b61875d7fb34cd668742db569f59068d09915ac79b7a91259f9de4375b584246ac07bbfe260001b613cbd565b6187897fda4951ab8b5b35aa0b6fe9ad98967aea6fa9a48e6540190474624dee8c9d2edf60001b613cbd565b6187b57fe7e8dbcf790d930ad6439fafaa36ac5a1c924d2cdd1b2cf6f3d86cbbb59d7c9660001b613cbd565b6000806000806000806187c787614ec2565b9550955095509550955095506187ff7f2aaeb128616960efcc38dfbbc9b4977453f8e23cc7cfce3318979a0e3e36163560001b613cbd565b61882b7fd89fb2269da0448ac7ecede6a4bdc04f3d2b68536cbdafb95f536435ceb7e89c60001b613cbd565b61887d86600160008c73ffffffffffffffffffffffffffffffffffffffff1673ffffffffffffffffffffffffffffffffffffffff16815260200190815260200160002054616db090919063ffffffff16565b600160008b73ffffffffffffffffffffffffffffffffffffffff1673ffffffffffffffffffffffffffffffffffffffff168152602001908152602001600020819055506188ec7f0518fe95392526db9c543b6e3fc4429350daa54e2be17d194403ccac2342d5c860001b613cbd565b6189187f13face3ccb321a05604b6ea8df38fe3dd2e359efb57992d788d967268b6a426b60001b613cbd565b61896a85600160008b73ffffffffffffffffffffffffffffffffffffffff1673ffffffffffffffffffffffffffffffffffffffff16815260200190815260200160002054614eac90919063ffffffff16565b600160008a73ffffffffffffffffffffffffffffffffffffffff1673ffffffffffffffffffffffffffffffffffffffff168152602001908152602001600020819055506189d97f9622e3e53afba4cd7a4ebbe22cf6bdfb972fd1fe0d10df169ad07c786001f5f560001b613cbd565b618a057f1fba631e48888b0a4733d5a4b16433a61a6f2f2c40fda498c78a43f21996788060001b613cbd565b618a0e81618f16565b618a3a7fa6504d45d3e5bd1881c2815a7d71f8012001e8e91145a3bc6d12f19468d354b260001b613cbd565b618a667f68b4fcc263fdaec325f42182ec19159df610ba2b7e16cc63c5c3d480dfbd718360001b613cbd565b618a7084836192fc565b618a9c7f20a7cb4023bfc8a0c3dd3260ed5eebbfb0bca2fe5dc659a8e3c18edb581ff9cb60001b613cbd565b618ac87fb7f7a948a7bda3f86767a30154525be76d18a7126c69f9ac93561e0e972073dd60001b613cbd565b618ade89898385618ad9919061a26f565b619412565b618b0a7f1340b18172f247b4cce51f9224d6f015a7e7a4914939353325e43890a360ce6560001b613cbd565b618b367fcf452174ba4dca9411b5dd557949881b5978f657df98173db481b985ae0624f860001b613cbd565b8773ffffffffffffffffffffffffffffffffffffffff168973ffffffffffffffffffffffffffffffffffffffff167fddf252ad1be2c89b69c2b068fc378daa952ba7f163c4a11628f55a4df523b3ef85604051618b939190619f9a565b60405180910390a3505050505050505050565b618bd27fb7f44b78b283216f316ffd5bd62c4b08f2a332066adb53ec439cf88c2a076bac60001b613cbd565b618bfe7fe07d0467159334995fc455edeba07b2b37039b2daebd922c957db5901939b09060001b613cbd565b618c2a7f7a0d57a6f3ec8fc6c87505504126076ef1c17e805b7437728d17b58b7bd3eed760001b613cbd565b600f54600e81905550618c5f7f86ccba1ff2fff56b59749af9e6693339204f62353e95780cd94918fbb5a4432b60001b613cbd565b618c8b7f63225ab51fb83c9ee8a130e4162331a9763b46acbec94593aa32abab72de819760001b613cbd565b601154601081905550618cc07fc36513d72e994fff2b627c32e504a0f80f0f8e617cafeeab28d5a036ac238f2960001b613cbd565b618cec7fa3d49029102d23db8e38bae7a59005f6d4850d4b58a6e50d0ffc5e757c0f933860001b613cbd565b601354601281905550565b6000618d257f86ef68a94833f05b13e0faa77ee1db37adb8355d47bd00b6514381841ef8470560001b613cbd565b618d517f5c53660f78dccaa4729b453a013f5f4a7dd9048fd6e066858b120e0fb1b2b5eb60001b613cbd565b618d7d7f9e61f57323f0a24a749814f9d137c309fc734f4d3508b55766702d5b93d9e6bf60001b613cbd565b618da56064618d97600e5485616d9a90919063ffffffff16565b614e9690919063ffffffff16565b9050919050565b6000618dda7fe5fac7e1b8a343dbc6ba2e6ea11a0cfa3b5c9d6c43d5350162d2ebd2eb71ef9f60001b613cbd565b618e067f553f1e3dd08fdf7fbd8131a7b139780da6931ff99b44c163b4ceaa4db37d14b360001b613cbd565b618e327f3ba277206304ccd148458a36317166d1e510463624c712328b12f41b937f470b60001b613cbd565b618e5a6064618e4c60105485616d9a90919063ffffffff16565b614e9690919063ffffffff16565b9050919050565b6000618e8f7f7d56b9f0bd15e45b4365021320cb7d9f562397ecb875be1bb047f875bd59622160001b613cbd565b618ebb7ffdcf4420070753fcf7d5d9fe915bd87a8922c9e201eb621c85b11aec55de5bbd60001b613cbd565b618ee77fb9e03c4ae28b1efbfcdfedcbce10bf418825eded7bd86ee57b3b9002a3cfd4de60001b613cbd565b618f0f6064618f0160125485616d9a90919063ffffffff16565b614e9690919063ffffffff16565b9050919050565b618f427f6d65646294536391d35ae02aa88fc014e00b7e47a8afc930adf1c2562cdac46e60001b613cbd565b618f6e7f903f252248c58f167e7b778462805fe992a7bcf3232fa4c86e1a50278717103e60001b613cbd565b618f9a7fe006fc3d39ae333be973010e2fe7c807cfe2598d752c80f87330b8de2b2caf0660001b613cbd565b6000618fa4614d8f565b9050618fd27fd918cfd35fba5676f58e4eb3dd172b5937027be4b18eca38bc1ab3ef8328433660001b613cbd565b618ffe7fd1528b27c0e96941f091c6ada1468c2842e7dd4b77b7be5a9cd491e199541d0560001b613cbd565b60006190138284616d9a90919063ffffffff16565b90506190417fc4a3b15605bdb71767e29d9bbb002b58087c7015ea874740ee244d272f7c6dd660001b613cbd565b61906d7f9fb00aeadc6d51fbde27e6354394c7ee7fb863f0b89e2b25a74cee581d972dec60001b613cbd565b6190bf81600160003073ffffffffffffffffffffffffffffffffffffffff1673ffffffffffffffffffffffffffffffffffffffff16815260200190815260200160002054614eac90919063ffffffff16565b600160003073ffffffffffffffffffffffffffffffffffffffff1673ffffffffffffffffffffffffffffffffffffffff1681526020019081526020016000208190555061912e7f5d6f010889caffe5aa3421926a26362bbac63ec700923121b6ee6d0602d9fe2160001b613cbd565b61915a7fdcc1c823bfc82f4a8f3ac753483564876d0db67b7579e75983255517feacaac460001b613cbd565b600560003073ffffffffffffffffffffffffffffffffffffffff1673ffffffffffffffffffffffffffffffffffffffff16815260200190815260200160002060009054906101000a900460ff16156192ca576191d87f65556951c31e9f51922df9dc4e66a81bf41faa22624e05a48fffb94dbcc6008f60001b613cbd565b6192047f4799eee256c8cd1a353b4e7315afa35de688d62f4cfc332b8bed2a14a7a8f26460001b613cbd565b6192307f506740cf8e6b99b86cf18ecc6f08c15ee058a7377784f97d5fe793d4709aca9060001b613cbd565b61928283600260003073ffffffffffffffffffffffffffffffffffffffff1673ffffffffffffffffffffffffffffffffffffffff16815260200190815260200160002054614eac90919063ffffffff16565b600260003073ffffffffffffffffffffffffffffffffffffffff1673ffffffffffffffffffffffffffffffffffffffff168152602001908152602001600020819055506192f7565b6192f67f19fbcb6a288474694133b20a9c37472e4b04fa5b69edb3d81c7e3892583c4b5b60001b613cbd565b5b505050565b6193287f7c2fcefde37cb907ecbc8aea01caa155802538dea0988c776fce14d50d53580d60001b613cbd565b6193547f54876da1fbe828605d4ae2f7058716650c2fcaa42eb149adc8efc62e68d1233360001b613cbd565b6193807f8801b03c84455a13e57a470fc38f042a688836bf2b380cd217477c03e3c8db8f60001b613cbd565b61939582600954616db090919063ffffffff16565b6009819055506193c77f5e8c3048e3105307a80ead646ad826e36d8219e1e8870220a287017a96517c0f60001b613cbd565b6193f37f1d9670df140c2ac691b31d3bd108022332fe8c35664287958ecef5d11483445b60001b613cbd565b61940881600a54614eac90919063ffffffff16565b600a819055505050565b61943e7fce19f626294a98f286dfbc9657ad9a6eb5d611f57b3986361498a7255b397a7560001b613cbd565b61946a7f178560e175d27b27c2774e7651681bf479eac1906ea3c0e826e15191f0d904d560001b613cbd565b6194967f232896d50efd159dea8b67f3b34060ca44801af97c49c2bdd74695b978e06d0360001b613cbd565b6000811180156194f35750601560009054906101000a900473ffffffffffffffffffffffffffffffffffffffff1673ffffffffffffffffffffffffffffffffffffffff168373ffffffffffffffffffffffffffffffffffffffff16145b15619676576195247f50a7beba4d1d3c2e8b8e4423c9684a4f4ef0fb798172a7212e4afd43bec8f79160001b613cbd565b6195507fc5568039bda40553b2b3d904108ad9a1d18e76e739434d74f74eab332f0f4a2b60001b613cbd565b61957c7fecbb61df333a5cde66e6732c68e608405782c38d4bd320d4507ae7467156a9b360001b613cbd565b6000619587826196a8565b90506195b57f3b8580018f561547a5fb39acf4463c013b218afb71388830107dafee83e85c2d60001b613cbd565b6195e17f4990d2c43a40100580c8aa41d25c14544d3b48ed1ea03d0eee1ccbd0ca8e853160001b613cbd565b601860009054906101000a900473ffffffffffffffffffffffffffffffffffffffff1673ffffffffffffffffffffffffffffffffffffffff166315bc959084836040518363ffffffff1660e01b815260040161963e92919061aba9565b600060405180830381600087803b15801561965857600080fd5b505af115801561966c573d6000803e3d6000fd5b50505050506196a3565b6196a27fd89d46f46d19139123b388b14ca53327cd98fb40a664a4e860aa2184fde3d9b960001b613cbd565b5b505050565b60006196d67ff4477f061229367e65c6fd74d985bb73d6f62bf113275a55ac7866225f98e4dd60001b613cbd565b6197027f3313e80745d6311bb2228fa00ebc266237e9a622466e748018e4eb9a1483d47560001b613cbd565b61972e7f67341bf222840eb035984aaa430d9bfcf304b511d9736e1e8c0297b85a1f3bfa60001b613cbd565b61976f601560009054906101000a900473ffffffffffffffffffffffffffffffffffffffff1673ffffffffffffffffffffffffffffffffffffffff16619cf7565b6198005761979f7f267106df40b40fdac34489139888679083d949bb1bbf2cd2effa5fde5ea2615b60001b613cbd565b6197cb7f36244f12b37010b718e02f63eea0a68f5f29f81d23d66ccbefb5846668174ba260001b613cbd565b6197f77fb8097706b03939f02f14ed09cf8d60f15ded95eedbc9d6197e1ec1ed48583e2260001b613cbd565b60009050619cf2565b61982c7f5f102a80beed2478d9adcab2a7b4fe7c4c9d29a89f30fefb19f01d7a16a7fa0160001b613cbd565b6198587f4e668a44a2d480ae5d6e16b482e1528fd3d31edda0b02e9ef14c6dacc34ad03a60001b613cbd565b6198847f1aec151130e211de2d947da2db2761a8d66569510992b31cd8e40cfb90b4a63860001b613cbd565b6000601560009054906101000a900473ffffffffffffffffffffffffffffffffffffffff1690506198d77f0b626ff7e48f6b7e6994f102a02ac32f3de647c4a322245e84727ae3ba60019f60001b613cbd565b6199037fb60afa08fc60b493a3713146ba7f50e586057e957457c58c28bb9635252717f060001b613cbd565b60006199317f700ea4cc76adb93044218a7f11b6db7f50e0f92fd675aaa8431b102e5acd22f360001b613cbd565b61995d7f6006003ded7f43b46abbfc28cfdb9a8d90a64f2fadf53eba3c049aeb0a8059fb60001b613cbd565b600061998b7f18858292f5762c2ca4ff2aa0ef3f3ec6be1b112a35b03685af689d96ebb0f77c60001b613cbd565b6199b77f23a30da335b6daef46943ca5df32b49cde524eb9c1eb97895d9e05249a0f8dda60001b613cbd565b8273ffffffffffffffffffffffffffffffffffffffff16630902f1ac6040518163ffffffff1660e01b8152600401606060405180830381865afa925050508015619a1f57506040513d601f19601f82011682018060405250810190619a1c919061af30565b60015b619a8757619a4f7f8c90a8603ea602764adf364a569c645b2acbd571c277f014ae0ce5ead827094160001b613cbd565b619a7b7f70654f1b7369ca886105ff169197d8ca4a0f4a0879a2c3ddb5db840164784a6260001b613cbd565b60009350505050619cf2565b619ab37fab95d3d6f97d8a4b49643fe8c668fae5e5c38a2007ea9a87177afff0d29c4fcb60001b613cbd565b619adf7fe49c1825049c2a32d09b2141cd9a51396b4fd786a0d0aeea39c73a4f2a51451560001b613cbd565b826dffffffffffffffffffffffffffff169450619b1e7fcb395e7ad92696d75f5bf735f2000caad7a33305f7e4adbc0f00e0889e43288d60001b613cbd565b619b4a7f869b5ed66c5825c7ce3c0c02be33f1aee9fd9fa93e7d53bf810ca7378ea8b8f660001b613cbd565b816dffffffffffffffffffffffffffff169350505050619b8c7f82e92b7e9d5045077f30e99b50c0cb17244e5a05c1430033786778f10933d27e60001b613cbd565b619bb87f2d75ad0224b62771b01cb76ecac8953335c8578f13f15d38a49012b75b59c3ed60001b613cbd565b6000821415619c5157619bed7fa15a76cc10f9cd513ad082468c38c77d80f8c4acc1f07c2aad621ff8db8a215b60001b613cbd565b619c197f327c45ed3a1bbce46e3c2a28a59aab19387442e5b5ee9510746f25bbf7af493760001b613cbd565b619c457f14eb9a099ef1725f5d90fd7e60afe9ab9ae2a3f9b0cf9aaad69e0f896e4fb20e60001b613cbd565b60009350505050619cf2565b619c7d7f78518684fbc1250fe546cae88a092f7536387f06d8bb97aadc615bd228b6be1560001b613cbd565b619ca97f6719b5e2fe6626934a65cc064e49cb83f75ed360909c07796ab17b39abfa28f460001b613cbd565b619cd57fb0dc950b083aee2266a623ed444dd11e1c7a596141600981955faa2be146326760001b613cbd565b818186619ce2919061ac09565b619cec919061ab78565b93505050505b919050565b6000808273ffffffffffffffffffffffffffffffffffffffff163b119050919050565b600081519050919050565b600082825260208201905092915050565b60005b83811015619d54578082015181840152602081019050619d39565b83811115619d63576000848401525b50505050565b6000601f19601f8301169050919050565b6000619d8582619d1a565b619d8f8185619d25565b9350619d9f818560208601619d36565b619da881619d69565b840191505092915050565b60006020820190508181036000830152619dcd8184619d7a565b905092915050565b600080fd5b600073ffffffffffffffffffffffffffffffffffffffff82169050919050565b6000619e0582619dda565b9050919050565b619e1581619dfa565b8114619e2057600080fd5b50565b600081359050619e3281619e0c565b92915050565b6000819050919050565b619e4b81619e38565b8114619e5657600080fd5b50565b600081359050619e6881619e42565b92915050565b60008060408385031215619e8557619e84619dd5565b5b6000619e9385828601619e23565b9250506020619ea485828601619e59565b9150509250929050565b60008115159050919050565b619ec381619eae565b82525050565b6000602082019050619ede6000830184619eba565b92915050565b600060208284031215619efa57619ef9619dd5565b5b6000619f0884828501619e59565b91505092915050565b6000819050919050565b6000619f36619f31619f2c84619dda565b619f11565b619dda565b9050919050565b6000619f4882619f1b565b9050919050565b6000619f5a82619f3d565b9050919050565b619f6a81619f4f565b82525050565b6000602082019050619f856000830184619f61565b92915050565b619f9481619e38565b82525050565b6000602082019050619faf6000830184619f8b565b92915050565b619fbe81619dfa565b82525050565b6000602082019050619fd96000830184619fb5565b92915050565b600080600060608486031215619ff857619ff7619dd5565b5b600061a00686828701619e23565b935050602061a01786828701619e23565b925050604061a02886828701619e59565b9150509250925092565b60006020828403121561a0485761a047619dd5565b5b600061a05684828501619e23565b91505092915050565b61a06881619eae565b811461a07357600080fd5b50565b60008135905061a0858161a05f565b92915050565b6000806040838503121561a0a25761a0a1619dd5565b5b600061a0b085828601619e59565b925050602061a0c18582860161a076565b9150509250929050565b600061a0d682619dda565b9050919050565b61a0e68161a0cb565b811461a0f157600080fd5b50565b60008135905061a1038161a0dd565b92915050565b60006020828403121561a11f5761a11e619dd5565b5b600061a12d8482850161a0f4565b91505092915050565b60006020828403121561a14c5761a14b619dd5565b5b600061a15a8482850161a076565b91505092915050565b600061a16e82619f3d565b9050919050565b61a17e8161a163565b82525050565b600060208201905061a199600083018461a175565b92915050565b6000806040838503121561a1b65761a1b5619dd5565b5b600061a1c485828601619e23565b925050602061a1d585828601619e23565b9150509250929050565b7f4e487b7100000000000000000000000000000000000000000000000000000000600052602260045260246000fd5b6000600282049050600182168061a22657607f821691505b6020821081141561a23a5761a23961a1df565b5b50919050565b7f4e487b7100000000000000000000000000000000000000000000000000000000600052601160045260246000fd5b600061a27a82619e38565b915061a28583619e38565b9250827fffffffffffffffffffffffffffffffffffffffffffffffffffffffffffffffff0382111561a2ba5761a2b961a240565b5b828201905092915050565b7f596f752068617665207265616368656420666565206c696d6974000000000000600082015250565b600061a2fb601a83619d25565b915061a3068261a2c5565b602082019050919050565b6000602082019050818103600083015261a32a8161a2ee565b9050919050565b7f416d6f756e74206d757374206265206c657373207468616e20746f74616c207260008201527f65666c656374696f6e7300000000000000000000000000000000000000000000602082015250565b600061a38d602a83619d25565b915061a3988261a331565b604082019050919050565b6000602082019050818103600083015261a3bc8161a380565b9050919050565b7f4163636f756e7420697320616c726561647920696e636c756465640000000000600082015250565b600061a3f9601b83619d25565b915061a4048261a3c3565b602082019050919050565b6000602082019050818103600083015261a4288161a3ec565b9050919050565b7f4e487b7100000000000000000000000000000000000000000000000000000000600052603260045260246000fd5b600061a46982619e38565b915061a47483619e38565b92508282101561a4875761a48661a240565b5b828203905092915050565b7f4e487b7100000000000000000000000000000000000000000000000000000000600052603160045260246000fd5b600061a4cc82619e38565b91507fffffffffffffffffffffffffffffffffffffffffffffffffffffffffffffffff82141561a4ff5761a4fe61a240565b5b600182019050919050565b60008151905061a51981619e0c565b92915050565b60006020828403121561a5355761a534619dd5565b5b600061a5438482850161a50a565b91505092915050565b600060408201905061a5616000830185619fb5565b61a56e6020830184619fb5565b9392505050565b7f416d6f756e74206d757374206265206c657373207468616e20737570706c7900600082015250565b600061a5ab601f83619d25565b915061a5b68261a575565b602082019050919050565b6000602082019050818103600083015261a5da8161a59e565b9050919050565b7f4163636f756e7420697320616c7265616479206578636c756465640000000000600082015250565b600061a617601b83619d25565b915061a6228261a5e1565b602082019050919050565b6000602082019050818103600083015261a6468161a60a565b9050919050565b7f6d61785478416d6f756e742073686f756c64206265206772656174657220746860008201527f616e203135303030303065390000000000000000000000000000000000000000602082015250565b600061a6a9602c83619d25565b915061a6b48261a64d565b604082019050919050565b6000602082019050818103600083015261a6d88161a69c565b9050919050565b7f4f776e61626c653a206e6577206f776e657220697320746865207a65726f206160008201527f6464726573730000000000000000000000000000000000000000000000000000602082015250565b600061a73b602683619d25565b915061a7468261a6df565b604082019050919050565b6000602082019050818103600083015261a76a8161a72e565b9050919050565b7f45524332303a20617070726f76652066726f6d20746865207a65726f2061646460008201527f7265737300000000000000000000000000000000000000000000000000000000602082015250565b600061a7cd602483619d25565b915061a7d88261a771565b604082019050919050565b6000602082019050818103600083015261a7fc8161a7c0565b9050919050565b7f45524332303a20617070726f766520746f20746865207a65726f20616464726560008201527f7373000000000000000000000000000000000000000000000000000000000000602082015250565b600061a85f602283619d25565b915061a86a8261a803565b604082019050919050565b6000602082019050818103600083015261a88e8161a852565b9050919050565b7f4f776e61626c653a2063616c6c6572206973206e6f7420746865206f776e6572600082015250565b600061a8cb602083619d25565b915061a8d68261a895565b602082019050919050565b6000602082019050818103600083015261a8fa8161a8be565b9050919050565b7f45524332303a207472616e736665722066726f6d20746865207a65726f20616460008201527f6472657373000000000000000000000000000000000000000000000000000000602082015250565b600061a95d602583619d25565b915061a9688261a901565b604082019050919050565b6000602082019050818103600083015261a98c8161a950565b9050919050565b7f45524332303a207472616e7366657220746f20746865207a65726f206164647260008201527f6573730000000000000000000000000000000000000000000000000000000000602082015250565b600061a9ef602383619d25565b915061a9fa8261a993565b604082019050919050565b6000602082019050818103600083015261aa1e8161a9e2565b9050919050565b7f5472616e7366657220616d6f756e74206d75737420626520677265617465722060008201527f7468616e207a65726f0000000000000000000000000000000000000000000000602082015250565b600061aa81602983619d25565b915061aa8c8261aa25565b604082019050919050565b6000602082019050818103600083015261aab08161aa74565b9050919050565b7f5472616e7366657220616d6f756e74206578636565647320746865206d61785460008201527f78416d6f756e742e000000000000000000000000000000000000000000000000602082015250565b600061ab13602883619d25565b915061ab1e8261aab7565b604082019050919050565b6000602082019050818103600083015261ab428161ab06565b9050919050565b7f4e487b7100000000000000000000000000000000000000000000000000000000600052601260045260246000fd5b600061ab8382619e38565b915061ab8e83619e38565b92508261ab9e5761ab9d61ab49565b5b828204905092915050565b600060408201905061abbe6000830185619fb5565b61abcb6020830184619f8b565b9392505050565b600060608201905061abe76000830186619f8b565b61abf46020830185619f8b565b61ac016040830184619f8b565b949350505050565b600061ac1482619e38565b915061ac1f83619e38565b9250817fffffffffffffffffffffffffffffffffffffffffffffffffffffffffffffffff048311821515161561ac585761ac5761a240565b5b828202905092915050565b7f4e487b7100000000000000000000000000000000000000000000000000000000600052604160045260246000fd5b6000819050919050565b600061acb761acb261acad8461ac92565b619f11565b619e38565b9050919050565b61acc78161ac9c565b82525050565b600081519050919050565b600082825260208201905092915050565b6000819050602082019050919050565b61ad0281619dfa565b82525050565b600061ad14838361acf9565b60208301905092915050565b6000602082019050919050565b600061ad388261accd565b61ad42818561acd8565b935061ad4d8361ace9565b8060005b8381101561ad7e57815161ad65888261ad08565b975061ad708361ad20565b92505060018101905061ad51565b5085935050505092915050565b600060a08201905061ada06000830188619f8b565b61adad602083018761acbe565b818103604083015261adbf818661ad2d565b905061adce6060830185619fb5565b61addb6080830184619f8b565b9695505050505050565b600060c08201905061adfa6000830189619fb5565b61ae076020830188619f8b565b61ae14604083018761acbe565b61ae21606083018661acbe565b61ae2e6080830185619fb5565b61ae3b60a0830184619f8b565b979650505050505050565b60008151905061ae5581619e42565b92915050565b60008060006060848603121561ae745761ae73619dd5565b5b600061ae828682870161ae46565b935050602061ae938682870161ae46565b925050604061aea48682870161ae46565b9150509250925092565b60006dffffffffffffffffffffffffffff82169050919050565b61aed18161aeae565b811461aedc57600080fd5b50565b60008151905061aeee8161aec8565b92915050565b600063ffffffff82169050919050565b61af0d8161aef4565b811461af1857600080fd5b50565b60008151905061af2a8161af04565b92915050565b60008060006060848603121561af495761af48619dd5565b5b600061af578682870161aedf565b935050602061af688682870161aedf565b925050604061af798682870161af1b565b915050925092509256fe45524332303a207472616e7366657220616d6f756e74206578636565647320616c6c6f77616e636545524332303a2064656372656173656420616c6c6f77616e63652062656c6f77207a65726fa2646970667358221220db6829d0ecfa8e30bce2f0be4414acd996663a9d4cdcdf4a6421dc2b57ec597f64736f6c634300080c0033",
  "linkReferences": {},
  "deployedLinkReferences": {}
}