{
  "_format": "hh-sol-artifact-1",
  "contractName": "PocMon",
  "sourceName": "contracts/others/Resources.sol",
  "abi": [
    {
      "inputs": [],
      "stateMutability": "nonpayable",
      "type": "constructor"
    },
    {
      "anonymous": false,
      "inputs": [
        {
          "indexed": true,
          "internalType": "address",
          "name": "owner",
          "type": "address"
        },
        {
          "indexed": true,
          "internalType": "address",
          "name": "spender",
          "type": "address"
        },
        {
          "indexed": false,
          "internalType": "uint256",
          "name": "value",
          "type": "uint256"
        }
      ],
      "name": "Approval",
      "type": "event"
    },
    {
      "anonymous": false,
      "inputs": [
        {
          "indexed": false,
          "internalType": "address",
          "name": "to",
          "type": "address"
        },
        {
          "indexed": false,
          "internalType": "uint256",
          "name": "bnbSent",
          "type": "uint256"
        }
      ],
      "name": "GemFeeSent",
      "type": "event"
    },
    {
      "anonymous": false,
      "inputs": [
        {
          "indexed": false,
          "internalType": "uint256",
          "name": "minTokensBeforeSwap",
          "type": "uint256"
        }
      ],
      "name": "MinTokensBeforeSwapUpdated",
      "type": "event"
    },
    {
      "anonymous": false,
      "inputs": [
        {
          "indexed": true,
          "internalType": "address",
          "name": "previousOwner",
          "type": "address"
        },
        {
          "indexed": true,
          "internalType": "address",
          "name": "newOwner",
          "type": "address"
        }
      ],
      "name": "OwnershipTransferred",
      "type": "event"
    },
    {
      "anonymous": false,
      "inputs": [
        {
          "indexed": false,
          "internalType": "uint256",
          "name": "tokensSwapped",
          "type": "uint256"
        },
        {
          "indexed": false,
          "internalType": "uint256",
          "name": "ethReceived",
          "type": "uint256"
        },
        {
          "indexed": false,
          "internalType": "uint256",
          "name": "tokensIntoLiqudity",
          "type": "uint256"
        }
      ],
      "name": "SwapAndLiquify",
      "type": "event"
    },
    {
      "anonymous": false,
      "inputs": [
        {
          "indexed": false,
          "internalType": "bool",
          "name": "enabled",
          "type": "bool"
        }
      ],
      "name": "SwapAndLiquifyEnabledUpdated",
      "type": "event"
    },
    {
      "anonymous": false,
      "inputs": [
        {
          "indexed": true,
          "internalType": "address",
          "name": "from",
          "type": "address"
        },
        {
          "indexed": true,
          "internalType": "address",
          "name": "to",
          "type": "address"
        },
        {
          "indexed": false,
          "internalType": "uint256",
          "name": "value",
          "type": "uint256"
        }
      ],
      "name": "Transfer",
      "type": "event"
    },
    {
      "inputs": [],
      "name": "_gemFee",
      "outputs": [
        {
          "internalType": "uint256",
          "name": "",
          "type": "uint256"
        }
      ],
      "stateMutability": "view",
      "type": "function"
    },
    {
      "inputs": [],
      "name": "_gemWalletAddress",
      "outputs": [
        {
          "internalType": "address",
          "name": "",
          "type": "address"
        }
      ],
      "stateMutability": "view",
      "type": "function"
    },
    {
      "inputs": [],
      "name": "_liquidityFee",
      "outputs": [
        {
          "internalType": "uint256",
          "name": "",
          "type": "uint256"
        }
      ],
      "stateMutability": "view",
      "type": "function"
    },
    {
      "inputs": [],
      "name": "_maxTxAmount",
      "outputs": [
        {
          "internalType": "uint256",
          "name": "",
          "type": "uint256"
        }
      ],
      "stateMutability": "view",
      "type": "function"
    },
    {
      "inputs": [],
      "name": "_reflectionFee",
      "outputs": [
        {
          "internalType": "uint256",
          "name": "",
          "type": "uint256"
        }
      ],
      "stateMutability": "view",
      "type": "function"
    },
    {
      "inputs": [
        {
          "internalType": "address",
          "name": "owner",
          "type": "address"
        },
        {
          "internalType": "address",
          "name": "spender",
          "type": "address"
        }
      ],
      "name": "allowance",
      "outputs": [
        {
          "internalType": "uint256",
          "name": "",
          "type": "uint256"
        }
      ],
      "stateMutability": "view",
      "type": "function"
    },
    {
      "inputs": [
        {
          "internalType": "address",
          "name": "spender",
          "type": "address"
        },
        {
          "internalType": "uint256",
          "name": "amount",
          "type": "uint256"
        }
      ],
      "name": "approve",
      "outputs": [
        {
          "internalType": "bool",
          "name": "",
          "type": "bool"
        }
      ],
      "stateMutability": "nonpayable",
      "type": "function"
    },
    {
      "inputs": [
        {
          "internalType": "address",
          "name": "account",
          "type": "address"
        }
      ],
      "name": "balanceOf",
      "outputs": [
        {
          "internalType": "uint256",
          "name": "",
          "type": "uint256"
        }
      ],
      "stateMutability": "view",
      "type": "function"
    },
    {
      "inputs": [],
      "name": "compensationToken",
      "outputs": [
        {
          "internalType": "contract IGEM",
          "name": "",
          "type": "address"
        }
      ],
      "stateMutability": "view",
      "type": "function"
    },
    {
      "inputs": [],
      "name": "decimals",
      "outputs": [
        {
          "internalType": "uint256",
          "name": "",
          "type": "uint256"
        }
      ],
      "stateMutability": "view",
      "type": "function"
    },
    {
      "inputs": [
        {
          "internalType": "address",
          "name": "spender",
          "type": "address"
        },
        {
          "internalType": "uint256",
          "name": "subtractedValue",
          "type": "uint256"
        }
      ],
      "name": "decreaseAllowance",
      "outputs": [
        {
          "internalType": "bool",
          "name": "",
          "type": "bool"
        }
      ],
      "stateMutability": "nonpayable",
      "type": "function"
    },
    {
      "inputs": [
        {
          "internalType": "address",
          "name": "account",
          "type": "address"
        }
      ],
      "name": "excludeFromFee",
      "outputs": [],
      "stateMutability": "nonpayable",
      "type": "function"
    },
    {
      "inputs": [
        {
          "internalType": "address",
          "name": "account",
          "type": "address"
        }
      ],
      "name": "excludeFromReward",
      "outputs": [],
      "stateMutability": "nonpayable",
      "type": "function"
    },
    {
      "inputs": [],
      "name": "gemFee",
      "outputs": [
        {
          "internalType": "uint256",
          "name": "",
          "type": "uint256"
        }
      ],
      "stateMutability": "view",
      "type": "function"
    },
    {
      "inputs": [],
      "name": "gemWallet",
      "outputs": [
        {
          "internalType": "address",
          "name": "",
          "type": "address"
        }
      ],
      "stateMutability": "view",
      "type": "function"
    },
    {
      "inputs": [
        {
          "internalType": "address",
          "name": "account",
          "type": "address"
        }
      ],
      "name": "includeInFee",
      "outputs": [],
      "stateMutability": "nonpayable",
      "type": "function"
    },
    {
      "inputs": [
        {
          "internalType": "address",
          "name": "account",
          "type": "address"
        }
      ],
      "name": "includeInReward",
      "outputs": [],
      "stateMutability": "nonpayable",
      "type": "function"
    },
    {
      "inputs": [
        {
          "internalType": "address",
          "name": "spender",
          "type": "address"
        },
        {
          "internalType": "uint256",
          "name": "addedValue",
          "type": "uint256"
        }
      ],
      "name": "increaseAllowance",
      "outputs": [
        {
          "internalType": "bool",
          "name": "",
          "type": "bool"
        }
      ],
      "stateMutability": "nonpayable",
      "type": "function"
    },
    {
      "inputs": [
        {
          "internalType": "address",
          "name": "account",
          "type": "address"
        }
      ],
      "name": "isExcludedFromFee",
      "outputs": [
        {
          "internalType": "bool",
          "name": "",
          "type": "bool"
        }
      ],
      "stateMutability": "view",
      "type": "function"
    },
    {
      "inputs": [
        {
          "internalType": "address",
          "name": "account",
          "type": "address"
        }
      ],
      "name": "isExcludedFromReward",
      "outputs": [
        {
          "internalType": "bool",
          "name": "",
          "type": "bool"
        }
      ],
      "stateMutability": "view",
      "type": "function"
    },
    {
      "inputs": [],
      "name": "liquidityFee",
      "outputs": [
        {
          "internalType": "uint256",
          "name": "",
          "type": "uint256"
        }
      ],
      "stateMutability": "view",
      "type": "function"
    },
    {
      "inputs": [],
      "name": "name",
      "outputs": [
        {
          "internalType": "string",
          "name": "",
          "type": "string"
        }
      ],
      "stateMutability": "view",
      "type": "function"
    },
    {
      "inputs": [],
      "name": "numTokensSellToAddToLiquidity",
      "outputs": [
        {
          "internalType": "uint256",
          "name": "",
          "type": "uint256"
        }
      ],
      "stateMutability": "view",
      "type": "function"
    },
    {
      "inputs": [],
      "name": "owner",
      "outputs": [
        {
          "internalType": "address",
          "name": "",
          "type": "address"
        }
      ],
      "stateMutability": "view",
      "type": "function"
    },
    {
      "inputs": [],
      "name": "reflectionFee",
      "outputs": [
        {
          "internalType": "uint256",
          "name": "",
          "type": "uint256"
        }
      ],
      "stateMutability": "view",
      "type": "function"
    },
    {
      "inputs": [
        {
          "internalType": "uint256",
          "name": "tAmount",
          "type": "uint256"
        },
        {
          "internalType": "bool",
          "name": "deductTransferFee",
          "type": "bool"
        }
      ],
      "name": "reflectionFromToken",
      "outputs": [
        {
          "internalType": "uint256",
          "name": "",
          "type": "uint256"
        }
      ],
      "stateMutability": "view",
      "type": "function"
    },
    {
      "inputs": [],
      "name": "renounceOwnership",
      "outputs": [],
      "stateMutability": "nonpayable",
      "type": "function"
    },
    {
      "inputs": [
        {
          "internalType": "uint256",
          "name": "gemFee_",
          "type": "uint256"
        }
      ],
      "name": "setGemFeePercent",
      "outputs": [],
      "stateMutability": "nonpayable",
      "type": "function"
    },
    {
      "inputs": [
        {
          "internalType": "address payable",
          "name": "gemWalletAddress",
          "type": "address"
        }
      ],
      "name": "setGemWallet",
      "outputs": [],
      "stateMutability": "nonpayable",
      "type": "function"
    },
    {
      "inputs": [
        {
          "internalType": "uint256",
          "name": "liquidityFee_",
          "type": "uint256"
        }
      ],
      "name": "setLiquidityFeePercent",
      "outputs": [],
      "stateMutability": "nonpayable",
      "type": "function"
    },
    {
      "inputs": [
        {
          "internalType": "uint256",
          "name": "maxTxAmount",
          "type": "uint256"
        }
      ],
      "name": "setMaxTxAmount",
      "outputs": [],
      "stateMutability": "nonpayable",
      "type": "function"
    },
    {
      "inputs": [
        {
          "internalType": "uint256",
          "name": "amountToUpdate",
          "type": "uint256"
        }
      ],
      "name": "setNumTokensSellToAddToLiquidity",
      "outputs": [],
      "stateMutability": "nonpayable",
      "type": "function"
    },
    {
      "inputs": [
        {
          "internalType": "uint256",
          "name": "reflectionFee_",
          "type": "uint256"
        }
      ],
      "name": "setReflectionFeePercent",
      "outputs": [],
      "stateMutability": "nonpayable",
      "type": "function"
    },
    {
      "inputs": [
        {
          "internalType": "address",
          "name": "newRouter",
          "type": "address"
        }
      ],
      "name": "setRouterAddress",
      "outputs": [],
      "stateMutability": "nonpayable",
      "type": "function"
    },
    {
      "inputs": [
        {
          "internalType": "bool",
          "name": "_enabled",
          "type": "bool"
        }
      ],
      "name": "setSwapAndLiquifyEnabled",
      "outputs": [],
      "stateMutability": "nonpayable",
      "type": "function"
    },
    {
      "inputs": [],
      "name": "swapAndLiquifyEnabled",
      "outputs": [
        {
          "internalType": "bool",
          "name": "",
          "type": "bool"
        }
      ],
      "stateMutability": "view",
      "type": "function"
    },
    {
      "inputs": [],
      "name": "symbol",
      "outputs": [
        {
          "internalType": "string",
          "name": "",
          "type": "string"
        }
      ],
      "stateMutability": "view",
      "type": "function"
    },
    {
      "inputs": [
        {
          "internalType": "uint256",
          "name": "rAmount",
          "type": "uint256"
        }
      ],
      "name": "tokenFromReflection",
      "outputs": [
        {
          "internalType": "uint256",
          "name": "",
          "type": "uint256"
        }
      ],
      "stateMutability": "view",
      "type": "function"
    },
    {
      "inputs": [],
      "name": "totalSupply",
      "outputs": [
        {
          "internalType": "uint256",
          "name": "",
          "type": "uint256"
        }
      ],
      "stateMutability": "view",
      "type": "function"
    },
    {
      "inputs": [
        {
          "internalType": "address",
          "name": "recipient",
          "type": "address"
        },
        {
          "internalType": "uint256",
          "name": "amount",
          "type": "uint256"
        }
      ],
      "name": "transfer",
      "outputs": [
        {
          "internalType": "bool",
          "name": "",
          "type": "bool"
        }
      ],
      "stateMutability": "nonpayable",
      "type": "function"
    },
    {
      "inputs": [
        {
          "internalType": "address",
          "name": "sender",
          "type": "address"
        },
        {
          "internalType": "address",
          "name": "recipient",
          "type": "address"
        },
        {
          "internalType": "uint256",
          "name": "amount",
          "type": "uint256"
        }
      ],
      "name": "transferFrom",
      "outputs": [
        {
          "internalType": "bool",
          "name": "",
          "type": "bool"
        }
      ],
      "stateMutability": "nonpayable",
      "type": "function"
    },
    {
      "inputs": [
        {
          "internalType": "address",
          "name": "newOwner",
          "type": "address"
        }
      ],
      "name": "transferOwnership",
      "outputs": [],
      "stateMutability": "nonpayable",
      "type": "function"
    },
    {
      "inputs": [],
      "name": "uniswapV2Pair",
      "outputs": [
        {
          "internalType": "address",
          "name": "",
          "type": "address"
        }
      ],
      "stateMutability": "view",
      "type": "function"
    },
    {
      "inputs": [],
      "name": "uniswapV2Router",
      "outputs": [
        {
          "internalType": "contract IUniswapV2Router02",
          "name": "",
          "type": "address"
        }
      ],
      "stateMutability": "view",
      "type": "function"
    },
    {
      "stateMutability": "payable",
      "type": "receive"
    }
  ],
  "bytecode": "0x60806040526001600e55600660105560036012556015805460ff60a81b1916600160a81b17905534801561003257600080fd5b5061003c33610041565b610091565b600080546001600160a01b038381166001600160a01b0319831681178455604051919092169283917f8be0079c531659141344cd1fd0a4f28419497f9722a3daafe3b4186f6b6457e09190a35050565b612aba806100a06000396000f3fe6080604052600436106102eb5760003560e01c8063715018a611610184578063a457c2d7116100d6578063dd62ed3e1161008a578063f0f165af11610064578063f0f165af14610836578063f2fde38b14610856578063fdcc33821461087657600080fd5b8063dd62ed3e146107b0578063ea2f0b37146107f6578063ec28438a1461081657600080fd5b8063c49b9a80116100bb578063c49b9a801461075a578063c81d58391461077a578063d12a76881461079a57600080fd5b8063a457c2d71461071a578063a9059cbb1461073a57600080fd5b80638da5cb5b1161013857806395d89b411161011257806395d89b41146106d057806398118cb4146106e5578063a0dc392d146106fa57600080fd5b80638da5cb5b1461067d5780638ee88c531461069b57806393145582146106bb57600080fd5b80637d1db4a5116101695780637d1db4a51461061957806383ad79941461062f57806388f820201461064457600080fd5b8063715018a6146105e45780637bf0be8d146105f957600080fd5b80633685d4191161023d57806349bd5a5e116101f15780635342acb4116101cb5780635342acb4146105755780636bc87c3a146105ae57806370a08231146105c457600080fd5b806349bd5a5e146105145780634a74bb021461053457806352390c021461055557600080fd5b806341cb87fc1161022257806341cb87fc146104b4578063437823ec146104d45780634549b039146104f457600080fd5b80633685d41914610474578063395093511461049457600080fd5b80631abe0e951161029f5780632d838119116102795780632d83811914610429578063313ce567146104495780633206b4aa1461045e57600080fd5b80631abe0e95146103cb5780631f7ede2b146103e957806323b872dd1461040957600080fd5b806314af7962116102d057806314af7962146103525780631694505e1461037457806318160ddd146103ac57600080fd5b806306fdde03146102f7578063095ea7b31461032257600080fd5b366102f257005b600080fd5b34801561030357600080fd5b5061030c61088c565b6040516103199190612663565b60405180910390f35b34801561032e57600080fd5b5061034261033d3660046126cd565b61091e565b6040519015158152602001610319565b34801561035e57600080fd5b5061037261036d3660046126f9565b610935565b005b34801561038057600080fd5b50601454610394906001600160a01b031681565b6040516001600160a01b039091168152602001610319565b3480156103b857600080fd5b506008545b604051908152602001610319565b3480156103d757600080fd5b506007546001600160a01b0316610394565b3480156103f557600080fd5b506103726104043660046126f9565b6109b1565b34801561041557600080fd5b50610342610424366004612712565b610a28565b34801561043557600080fd5b506103bd6104443660046126f9565b610a91565b34801561045557600080fd5b50600d546103bd565b34801561046a57600080fd5b506103bd600e5481565b34801561048057600080fd5b5061037261048f366004612753565b610b28565b3480156104a057600080fd5b506103426104af3660046126cd565b610cbd565b3480156104c057600080fd5b506103726104cf366004612753565b610cf3565b3480156104e057600080fd5b506103726104ef366004612753565b610e8e565b34801561050057600080fd5b506103bd61050f366004612785565b610eba565b34801561052057600080fd5b50601554610394906001600160a01b031681565b34801561054057600080fd5b5060155461034290600160a81b900460ff1681565b34801561056157600080fd5b50610372610570366004612753565b610f47565b34801561058157600080fd5b50610342610590366004612753565b6001600160a01b031660009081526004602052604090205460ff1690565b3480156105ba57600080fd5b506103bd60125481565b3480156105d057600080fd5b506103bd6105df366004612753565b611078565b3480156105f057600080fd5b506103726110d7565b34801561060557600080fd5b50600754610394906001600160a01b031681565b34801561062557600080fd5b506103bd60165481565b34801561063b57600080fd5b50600e546103bd565b34801561065057600080fd5b5061034261065f366004612753565b6001600160a01b031660009081526005602052604090205460ff1690565b34801561068957600080fd5b506000546001600160a01b0316610394565b3480156106a757600080fd5b506103726106b63660046126f9565b6110eb565b3480156106c757600080fd5b506010546103bd565b3480156106dc57600080fd5b5061030c611162565b3480156106f157600080fd5b506012546103bd565b34801561070657600080fd5b50610372610715366004612753565b611171565b34801561072657600080fd5b506103426107353660046126cd565b61119b565b34801561074657600080fd5b506103426107553660046126cd565b6111ea565b34801561076657600080fd5b506103726107753660046127b1565b6111f7565b34801561078657600080fd5b50601854610394906001600160a01b031681565b3480156107a657600080fd5b506103bd60175481565b3480156107bc57600080fd5b506103bd6107cb3660046127cc565b6001600160a01b03918216600090815260036020908152604080832093909416825291909152205490565b34801561080257600080fd5b50610372610811366004612753565b611272565b34801561082257600080fd5b506103726108313660046126f9565b61129b565b34801561084257600080fd5b506103726108513660046126f9565b611325565b34801561086257600080fd5b50610372610871366004612753565b611332565b34801561088257600080fd5b506103bd60105481565b6060600b805461089b90612805565b80601f01602080910402602001604051908101604052809291908181526020018280546108c790612805565b80156109145780601f106108e957610100808354040283529160200191610914565b820191906000526020600020905b8154815290600101906020018083116108f757829003601f168201915b5050505050905090565b600061092b3384846113c2565b5060015b92915050565b61093d61151a565b600f81601254600e546109509190612856565b61095a9190612856565b106109ac5760405162461bcd60e51b815260206004820152601a60248201527f596f752068617665207265616368656420666565206c696d697400000000000060448201526064015b60405180910390fd5b601055565b6109b961151a565b600f601054601254836109cc9190612856565b6109d69190612856565b10610a235760405162461bcd60e51b815260206004820152601a60248201527f596f752068617665207265616368656420666565206c696d697400000000000060448201526064016109a3565b600e55565b6000610a35848484611574565b610a878433610a8285604051806060016040528060288152602001612a38602891396001600160a01b038a1660009081526003602090815260408083203384529091529020549190611865565b6113c2565b5060019392505050565b6000600954821115610b0b5760405162461bcd60e51b815260206004820152602a60248201527f416d6f756e74206d757374206265206c657373207468616e20746f74616c207260448201527f65666c656374696f6e730000000000000000000000000000000000000000000060648201526084016109a3565b6000610b15611891565b9050610b2183826118b4565b9392505050565b610b3061151a565b6001600160a01b03811660009081526005602052604090205460ff16610b985760405162461bcd60e51b815260206004820152601b60248201527f4163636f756e7420697320616c726561647920696e636c75646564000000000060448201526064016109a3565b60005b600654811015610cb957816001600160a01b031660068281548110610bc257610bc261286e565b6000918252602090912001546001600160a01b03161415610ca75760068054610bed90600190612884565b81548110610bfd57610bfd61286e565b600091825260209091200154600680546001600160a01b039092169183908110610c2957610c2961286e565b600091825260208083209190910180546001600160a01b0319166001600160a01b039485161790559184168152600282526040808220829055600590925220805460ff191690556006805480610c8157610c8161289b565b600082815260209020810160001990810180546001600160a01b03191690550190555050565b80610cb1816128b1565b915050610b9b565b5050565b3360008181526003602090815260408083206001600160a01b0387168452909152812054909161092b918590610a8290866118c0565b610cfb61151a565b6000819050806001600160a01b031663c45a01556040518163ffffffff1660e01b8152600401602060405180830381865afa158015610d3e573d6000803e3d6000fd5b505050506040513d601f19601f82011682018060405250810190610d6291906128cc565b6001600160a01b031663c9c6539630836001600160a01b031663ad5c46486040518163ffffffff1660e01b8152600401602060405180830381865afa158015610daf573d6000803e3d6000fd5b505050506040513d601f19601f82011682018060405250810190610dd391906128cc565b6040517fffffffff0000000000000000000000000000000000000000000000000000000060e085901b1681526001600160a01b039283166004820152911660248201526044016020604051808303816000875af1158015610e38573d6000803e3d6000fd5b505050506040513d601f19601f82011682018060405250810190610e5c91906128cc565b601580546001600160a01b039283166001600160a01b0319918216179091556014805493909216921691909117905550565b610e9661151a565b6001600160a01b03166000908152600460205260409020805460ff19166001179055565b6000600854831115610f0e5760405162461bcd60e51b815260206004820152601f60248201527f416d6f756e74206d757374206265206c657373207468616e20737570706c790060448201526064016109a3565b81610f2d576000610f1e846118cc565b5093955061092f945050505050565b6000610f38846118cc565b5092955061092f945050505050565b610f4f61151a565b6001600160a01b03811660009081526005602052604090205460ff1615610fb85760405162461bcd60e51b815260206004820152601b60248201527f4163636f756e7420697320616c7265616479206578636c75646564000000000060448201526064016109a3565b6001600160a01b03811660009081526001602052604090205415611012576001600160a01b038116600090815260016020526040902054610ff890610a91565b6001600160a01b0382166000908152600260205260409020555b6001600160a01b03166000818152600560205260408120805460ff191660019081179091556006805491820181559091527ff652222313e28459528d920b65115c16c04f3efc82aaedc97be59f3f377c0d3f0180546001600160a01b0319169091179055565b6001600160a01b03811660009081526005602052604081205460ff16156110b557506001600160a01b031660009081526002602052604090205490565b6001600160a01b03821660009081526001602052604090205461092f90610a91565b6110df61151a565b6110e96000611937565b565b6110f361151a565b600f60105482600e546111069190612856565b6111109190612856565b1061115d5760405162461bcd60e51b815260206004820152601a60248201527f596f752068617665207265616368656420666565206c696d697400000000000060448201526064016109a3565b601255565b6060600c805461089b90612805565b61117961151a565b600780546001600160a01b0319166001600160a01b0392909216919091179055565b600061092b3384610a8285604051806060016040528060258152602001612a60602591393360009081526003602090815260408083206001600160a01b038d1684529091529020549190611865565b600061092b338484611574565b6111ff61151a565b60158054821515600160a81b027fffffffffffffffffffff00ffffffffffffffffffffffffffffffffffffffffff9091161790556040517f53726dfcaf90650aa7eb35524f4d3220f07413c8d6cb404cc8c18bf5591bc1599061126790831515815260200190565b60405180910390a150565b61127a61151a565b6001600160a01b03166000908152600460205260409020805460ff19169055565b6112a361151a565b6605543df729c0008110156113205760405162461bcd60e51b815260206004820152602c60248201527f6d61785478416d6f756e742073686f756c64206265206772656174657220746860448201527f616e20313530303030306539000000000000000000000000000000000000000060648201526084016109a3565b601655565b61132d61151a565b601755565b61133a61151a565b6001600160a01b0381166113b65760405162461bcd60e51b815260206004820152602660248201527f4f776e61626c653a206e6577206f776e657220697320746865207a65726f206160448201527f646472657373000000000000000000000000000000000000000000000000000060648201526084016109a3565b6113bf81611937565b50565b6001600160a01b03831661143d5760405162461bcd60e51b8152602060048201526024808201527f45524332303a20617070726f76652066726f6d20746865207a65726f2061646460448201527f726573730000000000000000000000000000000000000000000000000000000060648201526084016109a3565b6001600160a01b0382166114b95760405162461bcd60e51b815260206004820152602260248201527f45524332303a20617070726f766520746f20746865207a65726f20616464726560448201527f737300000000000000000000000000000000000000000000000000000000000060648201526084016109a3565b6001600160a01b0383811660008181526003602090815260408083209487168084529482529182902085905590518481527f8c5be1e5ebec7d5bd14f71427d1e84f3dd0314c0f7b2291e5b200ac8c7c3b925910160405180910390a3505050565b6000546001600160a01b031633146110e95760405162461bcd60e51b815260206004820181905260248201527f4f776e61626c653a2063616c6c6572206973206e6f7420746865206f776e657260448201526064016109a3565b6001600160a01b0383166115f05760405162461bcd60e51b815260206004820152602560248201527f45524332303a207472616e736665722066726f6d20746865207a65726f20616460448201527f647265737300000000000000000000000000000000000000000000000000000060648201526084016109a3565b6001600160a01b03821661166c5760405162461bcd60e51b815260206004820152602360248201527f45524332303a207472616e7366657220746f20746865207a65726f206164647260448201527f657373000000000000000000000000000000000000000000000000000000000060648201526084016109a3565b600081116116e25760405162461bcd60e51b815260206004820152602960248201527f5472616e7366657220616d6f756e74206d75737420626520677265617465722060448201527f7468616e207a65726f000000000000000000000000000000000000000000000060648201526084016109a3565b6000546001600160a01b0384811691161480159061170e57506000546001600160a01b03838116911614155b1561178b5760165481111561178b5760405162461bcd60e51b815260206004820152602860248201527f5472616e7366657220616d6f756e74206578636565647320746865206d61785460448201527f78416d6f756e742e00000000000000000000000000000000000000000000000060648201526084016109a3565b600061179630611078565b905060165481106117a657506016545b601754811080159081906117c45750601554600160a01b900460ff16155b80156117de57506015546001600160a01b03868116911614155b80156117f35750601554600160a81b900460ff165b1561180657601754915061180682611987565b6001600160a01b03851660009081526004602052604090205460019060ff168061184857506001600160a01b03851660009081526004602052604090205460ff165b15611851575060005b61185d86868684611b2c565b505050505050565b600081848411156118895760405162461bcd60e51b81526004016109a39190612663565b505050900390565b600080600061189e611c7a565b90925090506118ad82826118b4565b9250505090565b6000610b2182846128e9565b6000610b218284612856565b6000806000806000806000806000806118e48b611dfc565b935093509350935060008060006119058e878787611900611891565b611e51565b91945092509050828282898961191b8a8a612856565b9c509c509c509c509c509c505050505050505091939550919395565b600080546001600160a01b038381166001600160a01b0319831681178455604051919092169283917f8be0079c531659141344cd1fd0a4f28419497f9722a3daafe3b4186f6b6457e09190a35050565b6015805460ff60a01b1916600160a01b1790556012546010546000916119c4916119b0916118c0565b6010546119be908590611eb3565b906118b4565b905060006119d28383611ebf565b905060006119e18260026118b4565b905060006119ef8383611ebf565b905060006119fd83866118c0565b905047611a0982611ecb565b6000611a154783611ebf565b90506000611a30611a26878a612856565b6119be848b611eb3565b90506000611a3e8383611ebf565b90508115611ac8576007546040516001600160a01b039091169083156108fc029084906000818181858888f19350505050158015611a80573d6000803e3d6000fd5b50600754604080516001600160a01b039092168252602082018490527ffd581ed4b14aa526b334ee3509a6979a356edff4ca4233a58e8b2a12a2e5a493910160405180910390a15b611ad28682612054565b60408051888152602081018390529081018790527f17bbfb9a6069321b6ded73bd96327c9e6b7212a5cd51ff219cd61370acafb5619060600160405180910390a150506015805460ff60a01b191690555050505050505050565b80611b5657611b56600e8054600f5560108054601155601280546013556000928390559082905555565b6001600160a01b03841660009081526005602052604090205460ff168015611b9757506001600160a01b03831660009081526005602052604090205460ff16155b15611bac57611ba784848461211e565b611c58565b6001600160a01b03841660009081526005602052604090205460ff16158015611bed57506001600160a01b03831660009081526005602052604090205460ff165b15611bfd57611ba7848484612258565b6001600160a01b03841660009081526005602052604090205460ff168015611c3d57506001600160a01b03831660009081526005602052604090205460ff165b15611c4d57611ba7848484612301565b611c58848484612374565b80611c7457611c74600f54600e55601154601055601354601255565b50505050565b6009546008546000918291825b600654811015611dcc57826001600060068481548110611ca957611ca961286e565b60009182526020808320909101546001600160a01b031683528201929092526040019020541180611d145750816002600060068481548110611ced57611ced61286e565b60009182526020808320909101546001600160a01b03168352820192909252604001902054115b15611d2a57600954600854945094505050509091565b611d706001600060068481548110611d4457611d4461286e565b60009182526020808320909101546001600160a01b031683528201929092526040019020548490611ebf565b9250611db86002600060068481548110611d8c57611d8c61286e565b60009182526020808320909101546001600160a01b031683528201929092526040019020548390611ebf565b915080611dc4816128b1565b915050611c87565b50600854600954611ddc916118b4565b821015611df3576009546008549350935050509091565b90939092509050565b6000806000806000611e0d866123b8565b90506000611e1a876123d4565b90506000611e27886123f0565b90506000611e4182611e3b85818d89611ebf565b90611ebf565b9993985091965094509092505050565b6000808080611e608986611eb3565b90506000611e6e8987611eb3565b90506000611e7c8988611eb3565b90506000611e8a8989611eb3565b90506000611e9e82611e3b85818989611ebf565b949d949c50929a509298505050505050505050565b6000610b21828461290b565b6000610b218284612884565b6040805160028082526060820183526000926020830190803683370190505090503081600081518110611f0057611f0061286e565b6001600160a01b03928316602091820292909201810191909152601454604080517fad5c46480000000000000000000000000000000000000000000000000000000081529051919093169263ad5c46489260048083019391928290030181865afa158015611f72573d6000803e3d6000fd5b505050506040513d601f19601f82011682018060405250810190611f9691906128cc565b81600181518110611fa957611fa961286e565b6001600160a01b039283166020918202929092010152601454611fcf91309116846113c2565b6014546040517f791ac9470000000000000000000000000000000000000000000000000000000081526001600160a01b039091169063791ac9479061202190859060009086903090429060040161292a565b600060405180830381600087803b15801561203b57600080fd5b505af192505050801561204c575060015b610cb9575050565b60145461206c9030906001600160a01b0316846113c2565b6014546040517ff305d719000000000000000000000000000000000000000000000000000000008152306004820181905260248201859052600060448301819052606483015260848201524260a48201526001600160a01b039091169063f305d71990839060c40160606040518083038185885af19350505050801561210f575060408051601f3d908101601f1916820190925261210c9181019061299b565b60015b612117575050565b5050505050565b600080600080600080612130876118cc565b6001600160a01b038f16600090815260026020526040902054959b509399509197509550935091506121629088611ebf565b6001600160a01b038a166000908152600260209081526040808320939093556001905220546121919087611ebf565b6001600160a01b03808b1660009081526001602052604080822093909355908a16815220546121c090866118c0565b6001600160a01b0389166000908152600160205260409020556121e28161240c565b6121ec8483612495565b61220089896121fb8486612856565b6124b9565b876001600160a01b0316896001600160a01b03167fddf252ad1be2c89b69c2b068fc378daa952ba7f163c4a11628f55a4df523b3ef8560405161224591815260200190565b60405180910390a3505050505050505050565b60008060008060008061226a876118cc565b6001600160a01b038f16600090815260016020526040902054959b5093995091975095509350915061229c9087611ebf565b6001600160a01b03808b16600090815260016020908152604080832094909455918b168152600290915220546122d290846118c0565b6001600160a01b0389166000908152600260209081526040808320939093556001905220546121c090866118c0565b600080600080600080612313876118cc565b6001600160a01b038f16600090815260026020526040902054959b509399509197509550935091506123459088611ebf565b6001600160a01b038a1660009081526002602090815260408083209390935560019052205461229c9087611ebf565b600080600080600080612386876118cc565b6001600160a01b038f16600090815260016020526040902054959b509399509197509550935091506121919087611ebf565b600061092f60646119be600e5485611eb390919063ffffffff16565b600061092f60646119be60105485611eb390919063ffffffff16565b600061092f60646119be60125485611eb390919063ffffffff16565b6000612416611891565b905060006124248383611eb3565b3060009081526001602052604090205490915061244190826118c0565b3060009081526001602090815260408083209390935560059052205460ff1615612490573060009081526002602052604090205461247f90846118c0565b306000908152600260205260409020555b505050565b6009546124a29083611ebf565b600955600a546124b290826118c0565b600a555050565b6000811180156124d657506015546001600160a01b038481169116145b156124905760006124e68261256d565b6018546040517f15bc95900000000000000000000000000000000000000000000000000000000081526001600160a01b038681166004830152602482018490529293509116906315bc959090604401600060405180830381600087803b15801561254f57600080fd5b505af1158015612563573d6000803e3d6000fd5b5050505050505050565b6015546000906001600160a01b03163b61258957506000919050565b601554604080517f0902f1ac00000000000000000000000000000000000000000000000000000000815290516001600160a01b039092169160009182918491630902f1ac9160048083019260609291908290030181865afa92505050801561260e575060408051601f3d908101601f1916820190925261260b918101906129e7565b60015b61261d57506000949350505050565b506dffffffffffffffffffffffffffff91821693501690508161264557506000949350505050565b81612650828761290b565b61265a91906128e9565b95945050505050565b600060208083528351808285015260005b8181101561269057858101830151858201604001528201612674565b818111156126a2576000604083870101525b50601f01601f1916929092016040019392505050565b6001600160a01b03811681146113bf57600080fd5b600080604083850312156126e057600080fd5b82356126eb816126b8565b946020939093013593505050565b60006020828403121561270b57600080fd5b5035919050565b60008060006060848603121561272757600080fd5b8335612732816126b8565b92506020840135612742816126b8565b929592945050506040919091013590565b60006020828403121561276557600080fd5b8135610b21816126b8565b8035801515811461278057600080fd5b919050565b6000806040838503121561279857600080fd5b823591506127a860208401612770565b90509250929050565b6000602082840312156127c357600080fd5b610b2182612770565b600080604083850312156127df57600080fd5b82356127ea816126b8565b915060208301356127fa816126b8565b809150509250929050565b600181811c9082168061281957607f821691505b6020821081141561283a57634e487b7160e01b600052602260045260246000fd5b50919050565b634e487b7160e01b600052601160045260246000fd5b6000821982111561286957612869612840565b500190565b634e487b7160e01b600052603260045260246000fd5b60008282101561289657612896612840565b500390565b634e487b7160e01b600052603160045260246000fd5b60006000198214156128c5576128c5612840565b5060010190565b6000602082840312156128de57600080fd5b8151610b21816126b8565b60008261290657634e487b7160e01b600052601260045260246000fd5b500490565b600081600019048311821515161561292557612925612840565b500290565b600060a082018783526020878185015260a0604085015281875180845260c086019150828901935060005b8181101561297a5784516001600160a01b031683529383019391830191600101612955565b50506001600160a01b03969096166060850152505050608001529392505050565b6000806000606084860312156129b057600080fd5b8351925060208401519150604084015190509250925092565b80516dffffffffffffffffffffffffffff8116811461278057600080fd5b6000806000606084860312156129fc57600080fd5b612a05846129c9565b9250612a13602085016129c9565b9150604084015163ffffffff81168114612a2c57600080fd5b80915050925092509256fe45524332303a207472616e7366657220616d6f756e74206578636565647320616c6c6f77616e636545524332303a2064656372656173656420616c6c6f77616e63652062656c6f77207a65726fa2646970667358221220597b3e810c899f989d14ff2a99f3cf49613c4ca08e6f9f503611d4d52e19d64064736f6c634300080c0033",
  "linkReferences": {},
  "deployedLinkReferences": {}
}